{
  "address": "0xD31563072D43e166755e7cF2E38ba1d09D07D27F",
  "abi": [
    {
      "inputs": [
        {
          "internalType": "address[]",
          "name": "operators",
          "type": "address[]"
        }
      ],
      "stateMutability": "nonpayable",
      "type": "constructor"
    },
    {
      "inputs": [],
      "name": "InvalidAccess",
      "type": "error"
    },
    {
      "inputs": [
        {
          "internalType": "address",
          "name": "",
          "type": "address"
        }
      ],
      "name": "isOperator",
      "outputs": [
        {
          "internalType": "bool",
          "name": "",
          "type": "bool"
        }
      ],
      "stateMutability": "view",
      "type": "function"
    },
    {
      "inputs": [
        {
          "internalType": "address",
          "name": "asset",
          "type": "address"
        },
        {
          "internalType": "uint256",
          "name": "amount",
          "type": "uint256"
        },
        {
          "internalType": "address",
          "name": "recipient",
          "type": "address"
        }
      ],
      "name": "withdraw",
      "outputs": [],
      "stateMutability": "nonpayable",
      "type": "function"
    }
  ],
  "transactionHash": "0xe8a6c1cbdb98935b864ea53c2ad438b9b8cc68a0980bb29c1fd33aeb3520efad",
  "args": [
    [
      "0x322dee5db438378ad6b4e2f465ecd0f3ba7ce83b",
      "0xe4a6357c953762767a08c2d7a275bcce02cdd1e0"
    ]
  ],
  "numDeployments": 1,
  "solcInputHash": "8341a0300ed40a8c4fa0bc45c0cf56b3",
  "bytecode": "0x608060405234801561000f575f80fd5b506040516106db3803806106db83398101604081905261002e916100c6565b5f5b81518110156100905760015f8084848151811061004f5761004f610185565b6020908102919091018101516001600160a01b031682528101919091526040015f20805460ff191691151591909117905561008981610199565b9050610030565b50506101bd565b634e487b7160e01b5f52604160045260245ffd5b80516001600160a01b03811681146100c1575f80fd5b919050565b5f60208083850312156100d7575f80fd5b82516001600160401b03808211156100ed575f80fd5b818501915085601f830112610100575f80fd5b81518181111561011257610112610097565b8060051b604051601f19603f8301168101818110858211171561013757610137610097565b604052918252848201925083810185019188831115610154575f80fd5b938501935b828510156101795761016a856100ab565b84529385019392850192610159565b98975050505050505050565b634e487b7160e01b5f52603260045260245ffd5b5f600182016101b657634e487b7160e01b5f52601160045260245ffd5b5060010190565b610511806101ca5f395ff3fe608060405234801561000f575f80fd5b5060043610610034575f3560e01c806369328dec146100385780636d70f7ae1461004d575b5f80fd5b61004b6100463660046103f4565b610083565b005b61006f61005b36600461042d565b5f6020819052908152604090205460ff1681565b604051901515815260200160405180910390f35b335f9081526020819052604090205460ff166100cb576040517fc0185c6400000000000000000000000000000000000000000000000000000000815260040160405180910390fd5b6100df6001600160a01b03841682846100e4565b505050565b604080516001600160a01b03848116602483015260448083018590528351808403909101815260649092018352602080830180517bffffffffffffffffffffffffffffffffffffffffffffffffffffffff167fa9059cbb0000000000000000000000000000000000000000000000000000000017905283518085019094528084527f5361666545524332303a206c6f772d6c6576656c2063616c6c206661696c6564908401526100df928692915f916101a1918516908490610238565b905080515f14806101c15750808060200190518101906101c1919061044d565b6100df5760405162461bcd60e51b815260206004820152602a60248201527f5361666545524332303a204552433230206f7065726174696f6e20646964206e60448201527f6f7420737563636565640000000000000000000000000000000000000000000060648201526084015b60405180910390fd5b606061024684845f8561024e565b949350505050565b6060824710156102c65760405162461bcd60e51b815260206004820152602660248201527f416464726573733a20696e73756666696369656e742062616c616e636520666f60448201527f722063616c6c0000000000000000000000000000000000000000000000000000606482015260840161022f565b5f80866001600160a01b031685876040516102e1919061048e565b5f6040518083038185875af1925050503d805f811461031b576040519150601f19603f3d011682016040523d82523d5f602084013e610320565b606091505b50915091506103318783838761033c565b979650505050505050565b606083156103aa5782515f036103a3576001600160a01b0385163b6103a35760405162461bcd60e51b815260206004820152601d60248201527f416464726573733a2063616c6c20746f206e6f6e2d636f6e7472616374000000604482015260640161022f565b5081610246565b61024683838151156103bf5781518083602001fd5b8060405162461bcd60e51b815260040161022f91906104a9565b80356001600160a01b03811681146103ef575f80fd5b919050565b5f805f60608486031215610406575f80fd5b61040f846103d9565b925060208401359150610424604085016103d9565b90509250925092565b5f6020828403121561043d575f80fd5b610446826103d9565b9392505050565b5f6020828403121561045d575f80fd5b81518015158114610446575f80fd5b5f5b8381101561048657818101518382015260200161046e565b50505f910152565b5f825161049f81846020870161046c565b9190910192915050565b602081525f82518060208401526104c781604085016020870161046c565b601f01601f1916919091016040019291505056fea2646970667358221220533a29cc126b3531864020b4132bbf4e99b27c0288a772d92094f4981f4e0fdd64736f6c63430008140033",
  "devdoc": {
    "kind": "dev",
    "methods": {},
    "version": 1
  },
  "userdoc": {
    "kind": "user",
    "methods": {},
    "version": 1
  },
  "storageLayout": {
    "storage": [
      {
        "astId": 8630,
        "contract": "contracts/AssetPool.sol:AssetPool",
        "label": "isOperator",
        "offset": 0,
        "slot": "0",
        "type": "t_mapping(t_address,t_bool)"
      }
    ],
    "types": {
      "t_address": {
        "encoding": "inplace",
        "label": "address",
        "numberOfBytes": "20"
      },
      "t_bool": {
        "encoding": "inplace",
        "label": "bool",
        "numberOfBytes": "1"
      },
      "t_mapping(t_address,t_bool)": {
        "encoding": "mapping",
        "key": "t_address",
        "label": "mapping(address => bool)",
        "numberOfBytes": "32",
        "value": "t_bool"
      }
    }
  }
}