{
  "address": "0x00644a534bDea310ee2FCCF1c2821Df769A0b12F",
  "abi": [
    {
      "inputs": [
        {
          "internalType": "address",
          "name": "coupon_",
          "type": "address"
        },
        {
          "internalType": "address",
          "name": "assetPool_",
          "type": "address"
        },
        {
          "internalType": "string",
          "name": "baseURI_",
          "type": "string"
        }
      ],
      "stateMutability": "nonpayable",
      "type": "constructor"
    },
    {
      "inputs": [],
      "name": "AlreadyExpired",
      "type": "error"
    },
    {
      "inputs": [],
      "name": "EpochOverflow",
      "type": "error"
    },
    {
      "inputs": [],
      "name": "InvalidAccess",
      "type": "error"
    },
    {
      "inputs": [],
      "name": "InvalidEpoch",
      "type": "error"
    },
    {
      "inputs": [],
      "name": "InvalidPositionEpoch",
      "type": "error"
    },
    {
      "inputs": [],
      "name": "InvalidShortString",
      "type": "error"
    },
    {
      "inputs": [],
      "name": "InvalidSignature",
      "type": "error"
    },
    {
      "inputs": [
        {
          "internalType": "address",
          "name": "locker",
          "type": "address"
        }
      ],
      "name": "LockedBy",
      "type": "error"
    },
    {
      "inputs": [],
      "name": "NotSettled",
      "type": "error"
    },
    {
      "inputs": [],
      "name": "PermitExpired",
      "type": "error"
    },
    {
      "inputs": [
        {
          "internalType": "string",
          "name": "str",
          "type": "string"
        }
      ],
      "name": "StringTooLong",
      "type": "error"
    },
    {
      "inputs": [],
      "name": "UnmatchedPosition",
      "type": "error"
    },
    {
      "inputs": [],
      "name": "UnregisteredAsset",
      "type": "error"
    },
    {
      "anonymous": false,
      "inputs": [
        {
          "indexed": true,
          "internalType": "address",
          "name": "owner",
          "type": "address"
        },
        {
          "indexed": true,
          "internalType": "address",
          "name": "approved",
          "type": "address"
        },
        {
          "indexed": true,
          "internalType": "uint256",
          "name": "tokenId",
          "type": "uint256"
        }
      ],
      "name": "Approval",
      "type": "event"
    },
    {
      "anonymous": false,
      "inputs": [
        {
          "indexed": true,
          "internalType": "address",
          "name": "owner",
          "type": "address"
        },
        {
          "indexed": true,
          "internalType": "address",
          "name": "operator",
          "type": "address"
        },
        {
          "indexed": false,
          "internalType": "bool",
          "name": "approved",
          "type": "bool"
        }
      ],
      "name": "ApprovalForAll",
      "type": "event"
    },
    {
      "anonymous": false,
      "inputs": [],
      "name": "EIP712DomainChanged",
      "type": "event"
    },
    {
      "anonymous": false,
      "inputs": [
        {
          "indexed": true,
          "internalType": "address",
          "name": "previousOwner",
          "type": "address"
        },
        {
          "indexed": true,
          "internalType": "address",
          "name": "newOwner",
          "type": "address"
        }
      ],
      "name": "OwnershipTransferred",
      "type": "event"
    },
    {
      "anonymous": false,
      "inputs": [
        {
          "indexed": true,
          "internalType": "address",
          "name": "asset",
          "type": "address"
        }
      ],
      "name": "RegisterAsset",
      "type": "event"
    },
    {
      "anonymous": false,
      "inputs": [
        {
          "indexed": true,
          "internalType": "address",
          "name": "from",
          "type": "address"
        },
        {
          "indexed": true,
          "internalType": "address",
          "name": "to",
          "type": "address"
        },
        {
          "indexed": true,
          "internalType": "uint256",
          "name": "tokenId",
          "type": "uint256"
        }
      ],
      "name": "Transfer",
      "type": "event"
    },
    {
      "anonymous": false,
      "inputs": [
        {
          "indexed": true,
          "internalType": "uint256",
          "name": "tokenId",
          "type": "uint256"
        },
        {
          "indexed": false,
          "internalType": "uint256",
          "name": "amount",
          "type": "uint256"
        },
        {
          "indexed": false,
          "internalType": "Epoch",
          "name": "expiredWith",
          "type": "uint8"
        }
      ],
      "name": "UpdatePosition",
      "type": "event"
    },
    {
      "inputs": [],
      "name": "DOMAIN_SEPARATOR",
      "outputs": [
        {
          "internalType": "bytes32",
          "name": "",
          "type": "bytes32"
        }
      ],
      "stateMutability": "view",
      "type": "function"
    },
    {
      "inputs": [],
      "name": "MAX_EPOCH",
      "outputs": [
        {
          "internalType": "Epoch",
          "name": "",
          "type": "uint8"
        }
      ],
      "stateMutability": "view",
      "type": "function"
    },
    {
      "inputs": [],
      "name": "PERMIT_TYPEHASH",
      "outputs": [
        {
          "internalType": "bytes32",
          "name": "",
          "type": "bytes32"
        }
      ],
      "stateMutability": "view",
      "type": "function"
    },
    {
      "inputs": [
        {
          "internalType": "uint256",
          "name": "positionId",
          "type": "uint256"
        },
        {
          "internalType": "uint256",
          "name": "amount",
          "type": "uint256"
        },
        {
          "internalType": "Epoch",
          "name": "expiredWith",
          "type": "uint8"
        }
      ],
      "name": "adjustPosition",
      "outputs": [
        {
          "components": [
            {
              "components": [
                {
                  "internalType": "address",
                  "name": "asset",
                  "type": "address"
                },
                {
                  "internalType": "Epoch",
                  "name": "epoch",
                  "type": "uint8"
                }
              ],
              "internalType": "struct CouponKey",
              "name": "key",
              "type": "tuple"
            },
            {
              "internalType": "uint256",
              "name": "amount",
              "type": "uint256"
            }
          ],
          "internalType": "struct Coupon[]",
          "name": "couponsToMint",
          "type": "tuple[]"
        },
        {
          "components": [
            {
              "components": [
                {
                  "internalType": "address",
                  "name": "asset",
                  "type": "address"
                },
                {
                  "internalType": "Epoch",
                  "name": "epoch",
                  "type": "uint8"
                }
              ],
              "internalType": "struct CouponKey",
              "name": "key",
              "type": "tuple"
            },
            {
              "internalType": "uint256",
              "name": "amount",
              "type": "uint256"
            }
          ],
          "internalType": "struct Coupon[]",
          "name": "couponsToBurn",
          "type": "tuple[]"
        },
        {
          "internalType": "int256",
          "name": "amountDelta",
          "type": "int256"
        }
      ],
      "stateMutability": "nonpayable",
      "type": "function"
    },
    {
      "inputs": [
        {
          "internalType": "address",
          "name": "to",
          "type": "address"
        },
        {
          "internalType": "uint256",
          "name": "tokenId",
          "type": "uint256"
        }
      ],
      "name": "approve",
      "outputs": [],
      "stateMutability": "nonpayable",
      "type": "function"
    },
    {
      "inputs": [
        {
          "internalType": "address",
          "name": "locker",
          "type": "address"
        },
        {
          "internalType": "uint256",
          "name": "assetId",
          "type": "uint256"
        }
      ],
      "name": "assetDelta",
      "outputs": [
        {
          "internalType": "int256",
          "name": "delta",
          "type": "int256"
        }
      ],
      "stateMutability": "view",
      "type": "function"
    },
    {
      "inputs": [],
      "name": "assetPool",
      "outputs": [
        {
          "internalType": "address",
          "name": "",
          "type": "address"
        }
      ],
      "stateMutability": "view",
      "type": "function"
    },
    {
      "inputs": [
        {
          "internalType": "address",
          "name": "owner",
          "type": "address"
        }
      ],
      "name": "balanceOf",
      "outputs": [
        {
          "internalType": "uint256",
          "name": "",
          "type": "uint256"
        }
      ],
      "stateMutability": "view",
      "type": "function"
    },
    {
      "inputs": [],
      "name": "baseURI",
      "outputs": [
        {
          "internalType": "string",
          "name": "",
          "type": "string"
        }
      ],
      "stateMutability": "view",
      "type": "function"
    },
    {
      "inputs": [
        {
          "components": [
            {
              "components": [
                {
                  "internalType": "address",
                  "name": "asset",
                  "type": "address"
                },
                {
                  "internalType": "Epoch",
                  "name": "epoch",
                  "type": "uint8"
                }
              ],
              "internalType": "struct CouponKey",
              "name": "key",
              "type": "tuple"
            },
            {
              "internalType": "uint256",
              "name": "amount",
              "type": "uint256"
            }
          ],
          "internalType": "struct Coupon[]",
          "name": "coupons",
          "type": "tuple[]"
        }
      ],
      "name": "burnCoupons",
      "outputs": [],
      "stateMutability": "nonpayable",
      "type": "function"
    },
    {
      "inputs": [
        {
          "internalType": "address",
          "name": "token",
          "type": "address"
        },
        {
          "internalType": "uint256",
          "name": "amount",
          "type": "uint256"
        }
      ],
      "name": "depositToken",
      "outputs": [],
      "stateMutability": "nonpayable",
      "type": "function"
    },
    {
      "inputs": [],
      "name": "eip712Domain",
      "outputs": [
        {
          "internalType": "bytes1",
          "name": "fields",
          "type": "bytes1"
        },
        {
          "internalType": "string",
          "name": "name",
          "type": "string"
        },
        {
          "internalType": "string",
          "name": "version",
          "type": "string"
        },
        {
          "internalType": "uint256",
          "name": "chainId",
          "type": "uint256"
        },
        {
          "internalType": "address",
          "name": "verifyingContract",
          "type": "address"
        },
        {
          "internalType": "bytes32",
          "name": "salt",
          "type": "bytes32"
        },
        {
          "internalType": "uint256[]",
          "name": "extensions",
          "type": "uint256[]"
        }
      ],
      "stateMutability": "view",
      "type": "function"
    },
    {
      "inputs": [
        {
          "internalType": "uint256",
          "name": "tokenId",
          "type": "uint256"
        }
      ],
      "name": "getApproved",
      "outputs": [
        {
          "internalType": "address",
          "name": "",
          "type": "address"
        }
      ],
      "stateMutability": "view",
      "type": "function"
    },
    {
      "inputs": [
        {
          "internalType": "uint256",
          "name": "positionId",
          "type": "uint256"
        }
      ],
      "name": "getPosition",
      "outputs": [
        {
          "components": [
            {
              "internalType": "address",
              "name": "asset",
              "type": "address"
            },
            {
              "internalType": "uint64",
              "name": "nonce",
              "type": "uint64"
            },
            {
              "internalType": "Epoch",
              "name": "expiredWith",
              "type": "uint8"
            },
            {
              "internalType": "bool",
              "name": "isSettled",
              "type": "bool"
            },
            {
              "internalType": "uint256",
              "name": "amount",
              "type": "uint256"
            }
          ],
          "internalType": "struct BondPosition",
          "name": "",
          "type": "tuple"
        }
      ],
      "stateMutability": "view",
      "type": "function"
    },
    {
      "inputs": [
        {
          "internalType": "address",
          "name": "owner",
          "type": "address"
        },
        {
          "internalType": "address",
          "name": "operator",
          "type": "address"
        }
      ],
      "name": "isApprovedForAll",
      "outputs": [
        {
          "internalType": "bool",
          "name": "",
          "type": "bool"
        }
      ],
      "stateMutability": "view",
      "type": "function"
    },
    {
      "inputs": [
        {
          "internalType": "address",
          "name": "asset",
          "type": "address"
        }
      ],
      "name": "isAssetRegistered",
      "outputs": [
        {
          "internalType": "bool",
          "name": "",
          "type": "bool"
        }
      ],
      "stateMutability": "view",
      "type": "function"
    },
    {
      "inputs": [
        {
          "internalType": "bytes",
          "name": "data",
          "type": "bytes"
        }
      ],
      "name": "lock",
      "outputs": [
        {
          "internalType": "bytes",
          "name": "result",
          "type": "bytes"
        }
      ],
      "stateMutability": "nonpayable",
      "type": "function"
    },
    {
      "inputs": [],
      "name": "lockData",
      "outputs": [
        {
          "internalType": "uint128",
          "name": "",
          "type": "uint128"
        },
        {
          "internalType": "uint128",
          "name": "",
          "type": "uint128"
        }
      ],
      "stateMutability": "view",
      "type": "function"
    },
    {
      "inputs": [
        {
          "internalType": "address",
          "name": "asset",
          "type": "address"
        }
      ],
      "name": "mint",
      "outputs": [
        {
          "internalType": "uint256",
          "name": "positionId",
          "type": "uint256"
        }
      ],
      "stateMutability": "nonpayable",
      "type": "function"
    },
    {
      "inputs": [
        {
          "components": [
            {
              "components": [
                {
                  "internalType": "address",
                  "name": "asset",
                  "type": "address"
                },
                {
                  "internalType": "Epoch",
                  "name": "epoch",
                  "type": "uint8"
                }
              ],
              "internalType": "struct CouponKey",
              "name": "key",
              "type": "tuple"
            },
            {
              "internalType": "uint256",
              "name": "amount",
              "type": "uint256"
            }
          ],
          "internalType": "struct Coupon[]",
          "name": "coupons",
          "type": "tuple[]"
        },
        {
          "internalType": "address",
          "name": "to",
          "type": "address"
        },
        {
          "internalType": "bytes",
          "name": "data",
          "type": "bytes"
        }
      ],
      "name": "mintCoupons",
      "outputs": [],
      "stateMutability": "nonpayable",
      "type": "function"
    },
    {
      "inputs": [],
      "name": "name",
      "outputs": [
        {
          "internalType": "string",
          "name": "",
          "type": "string"
        }
      ],
      "stateMutability": "view",
      "type": "function"
    },
    {
      "inputs": [],
      "name": "nextId",
      "outputs": [
        {
          "internalType": "uint256",
          "name": "",
          "type": "uint256"
        }
      ],
      "stateMutability": "view",
      "type": "function"
    },
    {
      "inputs": [
        {
          "internalType": "uint256",
          "name": "positionId",
          "type": "uint256"
        }
      ],
      "name": "nonces",
      "outputs": [
        {
          "internalType": "uint256",
          "name": "",
          "type": "uint256"
        }
      ],
      "stateMutability": "view",
      "type": "function"
    },
    {
      "inputs": [],
      "name": "owner",
      "outputs": [
        {
          "internalType": "address",
          "name": "",
          "type": "address"
        }
      ],
      "stateMutability": "view",
      "type": "function"
    },
    {
      "inputs": [
        {
          "internalType": "uint256",
          "name": "tokenId",
          "type": "uint256"
        }
      ],
      "name": "ownerOf",
      "outputs": [
        {
          "internalType": "address",
          "name": "",
          "type": "address"
        }
      ],
      "stateMutability": "view",
      "type": "function"
    },
    {
      "inputs": [
        {
          "internalType": "address",
          "name": "spender",
          "type": "address"
        },
        {
          "internalType": "uint256",
          "name": "tokenId",
          "type": "uint256"
        },
        {
          "internalType": "uint256",
          "name": "deadline",
          "type": "uint256"
        },
        {
          "internalType": "uint8",
          "name": "v",
          "type": "uint8"
        },
        {
          "internalType": "bytes32",
          "name": "r",
          "type": "bytes32"
        },
        {
          "internalType": "bytes32",
          "name": "s",
          "type": "bytes32"
        }
      ],
      "name": "permit",
      "outputs": [],
      "stateMutability": "payable",
      "type": "function"
    },
    {
      "inputs": [
        {
          "internalType": "address",
          "name": "asset",
          "type": "address"
        }
      ],
      "name": "registerAsset",
      "outputs": [],
      "stateMutability": "nonpayable",
      "type": "function"
    },
    {
      "inputs": [],
      "name": "renounceOwnership",
      "outputs": [],
      "stateMutability": "nonpayable",
      "type": "function"
    },
    {
      "inputs": [
        {
          "internalType": "address",
          "name": "from",
          "type": "address"
        },
        {
          "internalType": "address",
          "name": "to",
          "type": "address"
        },
        {
          "internalType": "uint256",
          "name": "tokenId",
          "type": "uint256"
        }
      ],
      "name": "safeTransferFrom",
      "outputs": [],
      "stateMutability": "nonpayable",
      "type": "function"
    },
    {
      "inputs": [
        {
          "internalType": "address",
          "name": "from",
          "type": "address"
        },
        {
          "internalType": "address",
          "name": "to",
          "type": "address"
        },
        {
          "internalType": "uint256",
          "name": "tokenId",
          "type": "uint256"
        },
        {
          "internalType": "bytes",
          "name": "data",
          "type": "bytes"
        }
      ],
      "name": "safeTransferFrom",
      "outputs": [],
      "stateMutability": "nonpayable",
      "type": "function"
    },
    {
      "inputs": [
        {
          "internalType": "address",
          "name": "operator",
          "type": "address"
        },
        {
          "internalType": "bool",
          "name": "approved",
          "type": "bool"
        }
      ],
      "name": "setApprovalForAll",
      "outputs": [],
      "stateMutability": "nonpayable",
      "type": "function"
    },
    {
      "inputs": [
        {
          "internalType": "uint256",
          "name": "positionId",
          "type": "uint256"
        }
      ],
      "name": "settlePosition",
      "outputs": [],
      "stateMutability": "nonpayable",
      "type": "function"
    },
    {
      "inputs": [
        {
          "internalType": "bytes4",
          "name": "interfaceId",
          "type": "bytes4"
        }
      ],
      "name": "supportsInterface",
      "outputs": [
        {
          "internalType": "bool",
          "name": "",
          "type": "bool"
        }
      ],
      "stateMutability": "view",
      "type": "function"
    },
    {
      "inputs": [],
      "name": "symbol",
      "outputs": [
        {
          "internalType": "string",
          "name": "",
          "type": "string"
        }
      ],
      "stateMutability": "view",
      "type": "function"
    },
    {
      "inputs": [
        {
          "internalType": "uint256",
          "name": "tokenId",
          "type": "uint256"
        }
      ],
      "name": "tokenURI",
      "outputs": [
        {
          "internalType": "string",
          "name": "",
          "type": "string"
        }
      ],
      "stateMutability": "view",
      "type": "function"
    },
    {
      "inputs": [
        {
          "internalType": "address",
          "name": "from",
          "type": "address"
        },
        {
          "internalType": "address",
          "name": "to",
          "type": "address"
        },
        {
          "internalType": "uint256",
          "name": "tokenId",
          "type": "uint256"
        }
      ],
      "name": "transferFrom",
      "outputs": [],
      "stateMutability": "nonpayable",
      "type": "function"
    },
    {
      "inputs": [
        {
          "internalType": "address",
          "name": "newOwner",
          "type": "address"
        }
      ],
      "name": "transferOwnership",
      "outputs": [],
      "stateMutability": "nonpayable",
      "type": "function"
    },
    {
      "inputs": [
        {
          "internalType": "address",
          "name": "token",
          "type": "address"
        },
        {
          "internalType": "address",
          "name": "to",
          "type": "address"
        },
        {
          "internalType": "uint256",
          "name": "amount",
          "type": "uint256"
        }
      ],
      "name": "withdrawToken",
      "outputs": [],
      "stateMutability": "nonpayable",
      "type": "function"
    }
  ],
  "transactionHash": "0xab5ecf19c0a9a7eb05c01c24261ee359a00dc9e5fb6e3848942742fd9a7eabb7",
  "args": [
    "0x929075bdc8cf2e43cA7FB4BF1a189130b6014Cc1",
    "0x92bb5C37868C5B34B163FeFAb4e20b1179853eB9",
    "BOND_BASE_URI"
  ],
  "numDeployments": 1,
  "solcInputHash": "7479731586e5356f66333c5929b137f8",
  "bytecode": "0x6101a060405260016009553480156200001757600080fd5b5060405162004a5938038062004a598339810160408190526200003a91620002fb565b8282826040518060400160405280600d81526020016c2137b732102837b9b4ba34b7b760991b81525060405180604001604052806002815260200161042560f41b8152508181604051806040016040528060018152602001603160f81b815250828184848160009081620000af91906200046a565b506001620000be82826200046a565b50620000d091508390506006620001c7565b61012052620000e1816007620001c7565b61014052815160208084019190912060e052815190820120610100524660a0526200016f60e05161010051604080517f8b73c3c69bb8fe3d512ecc4cf759cc79239f7b179b0ffacaa9a75d522b39400f60208201529081019290925260608201524660808201523060a082015260009060c00160405160208183030381529060405280519060200120905090565b60805250503060c0525050506001600160a01b038581166101605284166101805260086200019e84826200046a565b505050505050620001be620001b86200020060201b60201c565b62000204565b50505062000590565b6000602083511015620001e757620001df8362000256565b9050620001fa565b81620001f484826200046a565b5060ff90505b92915050565b3390565b600c80546001600160a01b038381166001600160a01b0319831681179093556040519116919082907f8be0079c531659141344cd1fd0a4f28419497f9722a3daafe3b4186f6b6457e090600090a35050565b600080829050601f815111156200028d578260405163305a27a960e01b815260040162000284919062000536565b60405180910390fd5b80516200029a826200056b565b179392505050565b80516001600160a01b0381168114620002ba57600080fd5b919050565b634e487b7160e01b600052604160045260246000fd5b60005b83811015620002f2578181015183820152602001620002d8565b50506000910152565b6000806000606084860312156200031157600080fd5b6200031c84620002a2565b92506200032c60208501620002a2565b60408501519092506001600160401b03808211156200034a57600080fd5b818601915086601f8301126200035f57600080fd5b815181811115620003745762000374620002bf565b604051601f8201601f19908116603f011681019083821181831017156200039f576200039f620002bf565b81604052828152896020848701011115620003b957600080fd5b620003cc836020830160208801620002d5565b80955050505050509250925092565b600181811c90821680620003f057607f821691505b6020821081036200041157634e487b7160e01b600052602260045260246000fd5b50919050565b601f8211156200046557600081815260208120601f850160051c81016020861015620004405750805b601f850160051c820191505b8181101562000461578281556001016200044c565b5050505b505050565b81516001600160401b03811115620004865762000486620002bf565b6200049e81620004978454620003db565b8462000417565b602080601f831160018114620004d65760008415620004bd5750858301515b600019600386901b1c1916600185901b17855562000461565b600085815260208120601f198616915b828110156200050757888601518255948401946001909101908401620004e6565b5085821015620005265787850151600019600388901b60f8161c191681555b5050505050600190811b01905550565b602081526000825180602084015262000557816040850160208701620002d5565b601f01601f19169190910160400192915050565b80516020808301519190811015620004115760001960209190910360031b1b16919050565b60805160a05160c05160e051610100516101205161014051610160516101805161444362000616600039600081816103f9015281816109a70152610e5a015260008181610d140152610f360152600061168d015260006116620152600061248801526000612460015260006123bb015260006123e50152600061240f01526144436000f3fe6080604052600436106102855760003560e01c80636c0360eb11610153578063aba5b4b3116100cb578063e1869a431161007f578063eb02c30111610064578063eb02c30114610799578063f2fde38b146108ac578063f8fcd156146108cc57600080fd5b8063e1869a4314610721578063e985e9c51461075057600080fd5b8063bf9559c3116100b0578063bf9559c3146106ba578063c87b56dd146106e1578063d312998f1461070157600080fd5b8063aba5b4b31461067a578063b88d4fde1461069a57600080fd5b806381548319116101225780638da5cb5b116101075780638da5cb5b1461062757806395d89b4114610645578063a22cb4651461065a57600080fd5b806381548319146105df57806384b0196e146105ff57600080fd5b80636c0360eb1461058257806370a0823114610597578063715018a6146105b75780637ac2ff7b146105cc57600080fd5b806330adf81f11610201578063430c114b116101b55780636352211e1161019a5780636352211e1461050a5780636a6278421461052a5780636af6dbf41461054a57600080fd5b8063430c114b146104d457806361b8ce8c146104f457600080fd5b8063338b5dea116101e6578063338b5dea1461047f5780633644e5151461049f57806342842e0e146104b457600080fd5b806330adf81f1461041b578063332b2ee01461044f57600080fd5b8063095ea7b311610258578063141a468c1161023d578063141a468c1461037b57806323b872dd146103c75780632ec939f9146103e757600080fd5b8063095ea7b31461033b5780630f0b07651461035b57600080fd5b806301e336671461028a57806301ffc9a7146102ac57806306fdde03146102e1578063081812fc14610303575b600080fd5b34801561029657600080fd5b506102aa6102a53660046139d2565b610903565b005b3480156102b857600080fd5b506102cc6102c7366004613a24565b610a09565b60405190151581526020015b60405180910390f35b3480156102ed57600080fd5b506102f6610a4d565b6040516102d89190613a91565b34801561030f57600080fd5b5061032361031e366004613aa4565b610adf565b6040516001600160a01b0390911681526020016102d8565b34801561034757600080fd5b506102aa610356366004613abd565b610b06565b34801561036757600080fd5b506102aa610376366004613b75565b610c37565b34801561038757600080fd5b506103b9610396366004613aa4565b6000908152600e6020526040902054600160a01b900467ffffffffffffffff1690565b6040519081526020016102d8565b3480156103d357600080fd5b506102aa6103e23660046139d2565b610d8b565b3480156103f357600080fd5b506103237f000000000000000000000000000000000000000000000000000000000000000081565b34801561042757600080fd5b506103b97f49ecf333e5b8c95c40fdafc95c1ad136e8914a8fb55e9dc8bb01eaa83a2df9ad81565b34801561045b57600080fd5b506102cc61046a366004613bf9565b600d6020526000908152604090205460ff1681565b34801561048b57600080fd5b506102aa61049a366004613abd565b610e02565b3480156104ab57600080fd5b506103b9610e9a565b3480156104c057600080fd5b506102aa6104cf3660046139d2565b610ea9565b3480156104e057600080fd5b506102aa6104ef366004613c14565b610ec4565b34801561050057600080fd5b506103b960095481565b34801561051657600080fd5b50610323610525366004613aa4565b610ff0565b34801561053657600080fd5b506103b9610545366004613bf9565b611055565b34801561055657600080fd5b506103b9610565366004613abd565b600b60209081526000928352604080842090915290825290205481565b34801561058e57600080fd5b506102f661112e565b3480156105a357600080fd5b506103b96105b2366004613bf9565b6111bc565b3480156105c357600080fd5b506102aa611256565b6102aa6105da366004613c65565b61126a565b3480156105eb57600080fd5b506102f66105fa366004613cbf565b6114d7565b34801561060b57600080fd5b50610614611654565b6040516102d89796959493929190613cf5565b34801561063357600080fd5b50600c546001600160a01b0316610323565b34801561065157600080fd5b506102f66116f9565b34801561066657600080fd5b506102aa610675366004613db5565b611708565b34801561068657600080fd5b506102aa610695366004613aa4565b611717565b3480156106a657600080fd5b506102aa6106b5366004613e84565b61188d565b3480156106c657600080fd5b506106cf609d81565b60405160ff90911681526020016102d8565b3480156106ed57600080fd5b506102f66106fc366004613aa4565b611905565b34801561070d57600080fd5b506102aa61071c366004613bf9565b61196c565b34801561072d57600080fd5b5061074161073c366004613f2f565b6119c0565b6040516102d893929190613fc4565b34801561075c57600080fd5b506102cc61076b366004613ffa565b6001600160a01b03918216600090815260056020908152604080832093909416825291909152205460ff1690565b3480156107a557600080fd5b506108526107b4366004613aa4565b6040805160a081018252600080825260208201819052918101829052606081018290526080810191909152506000908152600e6020908152604091829020825160a08101845281546001600160a01b038116825267ffffffffffffffff600160a01b8204169382019390935260ff600160e01b8404811694820194909452600160e81b90920490921615156060820152600190910154608082015290565b6040516102d89190600060a0820190506001600160a01b03835116825267ffffffffffffffff602084015116602083015260ff60408401511660408301526060830151151560608301526080830151608083015292915050565b3480156108b857600080fd5b506102aa6108c7366004613bf9565b611d40565b3480156108d857600080fd5b50600a54604080516001600160801b038084168252600160801b9093049092166020830152016102d8565b600061090f600a611dd0565b9050336001600160a01b0382161461094a576040516313d2c13360e21b81526001600160a01b03821660048201526024015b60405180910390fd5b61095f846001600160a01b0316836000611e1d565b506040517f69328dec0000000000000000000000000000000000000000000000000000000081526001600160a01b0385811660048301526024820184905284811660448301527f000000000000000000000000000000000000000000000000000000000000000016906369328dec90606401600060405180830381600087803b1580156109eb57600080fd5b505af11580156109ff573d6000803e3d6000fd5b5050505050505050565b60006001600160e01b031982167f6831a4fd000000000000000000000000000000000000000000000000000000001480610a475750610a4782611f2c565b92915050565b606060008054610a5c9061402d565b80601f0160208091040260200160405190810160405280929190818152602001828054610a889061402d565b8015610ad55780601f10610aaa57610100808354040283529160200191610ad5565b820191906000526020600020905b815481529060010190602001808311610ab857829003601f168201915b5050505050905090565b6000610aea82611fc7565b506000908152600460205260409020546001600160a01b031690565b6000610b1182610ff0565b9050806001600160a01b0316836001600160a01b031603610b9a5760405162461bcd60e51b815260206004820152602160248201527f4552433732313a20617070726f76616c20746f2063757272656e74206f776e6560448201527f72000000000000000000000000000000000000000000000000000000000000006064820152608401610941565b336001600160a01b0382161480610bb65750610bb6813361076b565b610c285760405162461bcd60e51b815260206004820152603d60248201527f4552433732313a20617070726f76652063616c6c6572206973206e6f7420746f60448201527f6b656e206f776e6572206f7220617070726f76656420666f7220616c6c0000006064820152608401610941565b610c32838361202b565b505050565b6000610c43600a611dd0565b9050336001600160a01b03821614610c79576040516313d2c13360e21b81526001600160a01b0382166004820152602401610941565b60005b85811015610ce357610cda610cb7888884818110610c9c57610c9c614061565b905060600201803603810190610cb29190614077565b612099565b888884818110610cc957610cc9614061565b905060600201604001356000611e1d565b50600101610c7c565b506040517f3ee44b0f0000000000000000000000000000000000000000000000000000000081526001600160a01b037f00000000000000000000000000000000000000000000000000000000000000001690633ee44b0f90610d519087908a908a9089908990600401614165565b600060405180830381600087803b158015610d6b57600080fd5b505af1158015610d7f573d6000803e3d6000fd5b50505050505050505050565b610d9533826120ae565b610df75760405162461bcd60e51b815260206004820152602d60248201527f4552433732313a2063616c6c6572206973206e6f7420746f6b656e206f776e6560448201526c1c881bdc88185c1c1c9bdd9959609a1b6064820152608401610941565b610c3283838361212d565b6000610e0e600a611dd0565b9050336001600160a01b03821614610e44576040516313d2c13360e21b81526001600160a01b0382166004820152602401610941565b8115610c3257610e7f6001600160a01b038416337f000000000000000000000000000000000000000000000000000000000000000085612326565b610e94836001600160a01b0316600084611e1d565b50505050565b6000610ea46123ae565b905090565b610c328383836040518060200160405280600081525061188d565b6000610ed0600a611dd0565b9050336001600160a01b03821614610f06576040516313d2c13360e21b81526001600160a01b0382166004820152602401610941565b6040517fca6ce7ea0000000000000000000000000000000000000000000000000000000081526001600160a01b037f0000000000000000000000000000000000000000000000000000000000000000169063ca6ce7ea90610f6f9033908790879060040161419b565b600060405180830381600087803b158015610f8957600080fd5b505af1158015610f9d573d6000803e3d6000fd5b5050505060005b82811015610e9457610fe7610fc4858584818110610c9c57610c9c614061565b6000868685818110610fd857610fd8614061565b90506060020160400135611e1d565b50600101610fa4565b6000818152600260205260408120546001600160a01b031680610a475760405162461bcd60e51b815260206004820152601860248201527f4552433732313a20696e76616c696420746f6b656e20494400000000000000006044820152606401610941565b600080611062600a611dd0565b9050336001600160a01b03821614611098576040516313d2c13360e21b81526001600160a01b0382166004820152602401610941565b6001600160a01b0383166000908152600d602052604090205460ff166110ea576040517fcea93bf200000000000000000000000000000000000000000000000000000000815260040160405180910390fd5b60098054600181019091556000818152600e6020526040902080546001600160a01b0319166001600160a01b038616179055915061112833836124d9565b50919050565b6008805461113b9061402d565b80601f01602080910402602001604051908101604052809291908181526020018280546111679061402d565b80156111b45780601f10611189576101008083540402835291602001916111b4565b820191906000526020600020905b81548152906001019060200180831161119757829003601f168201915b505050505081565b60006001600160a01b03821661123a5760405162461bcd60e51b815260206004820152602960248201527f4552433732313a2061646472657373207a65726f206973206e6f74206120766160448201527f6c6964206f776e657200000000000000000000000000000000000000000000006064820152608401610941565b506001600160a01b031660009081526003602052604090205490565b61125e612523565b611268600061257d565b565b834211156112a4576040517f1a15a3cc00000000000000000000000000000000000000000000000000000000815260040160405180910390fd5b60006113227f49ecf333e5b8c95c40fdafc95c1ad136e8914a8fb55e9dc8bb01eaa83a2df9ad88886112d5816125cf565b6040805160208101959095526001600160a01b03909316928401929092526060830152608082015260a0810187905260c001604051602081830303815290604052805190602001206125f6565b9050600061132f87610ff0565b9050806001600160a01b0316886001600160a01b03160361136357604051638baa579f60e01b815260040160405180910390fd5b6001600160a01b0381163b1561149057604080516020810186905280820185905260f887901b7fff000000000000000000000000000000000000000000000000000000000000001660608201528151604181830301815260618201928390527f1626ba7e000000000000000000000000000000000000000000000000000000009092526001600160a01b03831691631626ba7e916114059186916065016141c7565b602060405180830381865afa158015611422573d6000803e3d6000fd5b505050506040513d601f19601f8201168201806040525081019061144691906141e0565b7bffffffffffffffffffffffffffffffffffffffffffffffffffffffff1916631626ba7e60e01b1461148b57604051638baa579f60e01b815260040160405180910390fd5b6114cd565b806001600160a01b03166114a68387878761263e565b6001600160a01b0316146114cd57604051638baa579f60e01b815260040160405180910390fd5b6109ff888861202b565b6060611533600a3381546001600160801b039081167f760a9a962ae3d184e99c0483cf5684fb3170f47116ca4f445c50209da4f4f90681019290925582546fffffffffffffffffffffffffffffffff1916600190920116179055565b6040517f46a114e200000000000000000000000000000000000000000000000000000000815233906346a114e29061157190869086906004016141fd565b6000604051808303816000875af1158015611590573d6000803e3d6000fd5b505050506040513d6000823e601f3d908101601f191682016040526115b89190810190614211565b600a549091506001600160801b031660010361162257600a54600160801b90046001600160801b031615611618576040517fba329a9b00000000000000000000000000000000000000000000000000000000815260040160405180910390fd5b6000600a55610a47565b600a80546fffffffffffffffffffffffffffffffff1981166001600160801b0391821660001901909116179055610a47565b6000606080828080836116887f00000000000000000000000000000000000000000000000000000000000000006006612666565b6116b37f00000000000000000000000000000000000000000000000000000000000000006007612666565b604080516000808252602082019092527f0f000000000000000000000000000000000000000000000000000000000000009b939a50919850469750309650945092509050565b606060018054610a5c9061402d565b611713338383612711565b5050565b6000611723600a611dd0565b9050336001600160a01b03821614611759576040516313d2c13360e21b81526001600160a01b0382166004820152602401610941565b611762826127df565b6000828152600e6020908152604091829020825160a08101845281546001600160a01b038116825267ffffffffffffffff600160a01b8204169382019390935260ff600160e01b84048116948201859052600160e81b9093049092161515606083015260010154608082015290609d10156117f05760405163d5b25b6360e01b815260040160405180910390fd5b806080015160000361180a5761180583612849565b611843565b611825816040015161181a6128de565b60ff90811691161090565b156118435760405163d5b25b6360e01b815260040160405180910390fd5b6080810151604080830151815192835260ff16602083015284917f55675be485a04cf233b424212b45f79539d7659f60d57e11031e11bff7854d83910160405180910390a2505050565b61189733836120ae565b6118f95760405162461bcd60e51b815260206004820152602d60248201527f4552433732313a2063616c6c6572206973206e6f7420746f6b656e206f776e6560448201526c1c881bdc88185c1c1c9bdd9959609a1b6064820152608401610941565b610e94848484846128e9565b606061191082611fc7565b600061191a612972565b9050600081511161193a5760405180602001604052806000815250611965565b8061194484612981565b60405160200161195592919061427f565b6040516020818303038152906040525b9392505050565b611974612523565b6001600160a01b0381166000818152600d6020526040808220805460ff19166001179055517f1d034b2e4fdfa6ae2551ce484daa9f20adabb0ab3a986c965e974981247b50489190a250565b6060806000806119d0600a611dd0565b9050336001600160a01b03821614611a06576040516313d2c13360e21b81526001600160a01b0382166004820152602401610941565b86611a1133896120ae565b611a47576040517fc0185c6400000000000000000000000000000000000000000000000000000000815260040160405180910390fd5b6000611a51612a21565b9050871580611a61575060ff8716155b15611a6e57600097508096505b60ff8082169088161080611a85575060ff8716609d105b15611aa35760405163d5b25b6360e01b815260040160405180910390fd5b6000898152600e60208181526040808420815160a08101835281546001600160a01b038116825267ffffffffffffffff600160a01b8204168286015260ff600160e01b82048116948301948552600160e81b909104811615156060830152600190920180546080830152958f905293909252928b9055915190911615158015611b365750604081015160ff808416911611155b15611b78578815611b73576040517fa0d64f8a00000000000000000000000000000000000000000000000000000000815260040160405180910390fd5b611c59565b60008a8152600e602052604080822080547fffffff00ffffffffffffffffffffffffffffffffffffffffffffffffffffffff16600160e01b60ff8d1602179055820151611bca9160ff90811691161490565b15611bd95760ff821660408201525b60008a8152600e6020908152604091829020825160a08101845281546001600160a01b038116825267ffffffffffffffff600160a01b8204169382019390935260ff600160e01b8404811694820194909452600160e81b909204909216151560608201526001909101546080820152611c53908290612a39565b90975095505b60005b8751811015611cb857611caf611c8a898381518110611c7d57611c7d614061565b6020026020010151612099565b60008a8481518110611c9e57611c9e614061565b602002602001015160200151611e1d565b50600101611c5c565b5060005b8651811015611d0b57611d02611cdd888381518110611c7d57611c7d614061565b888381518110611cef57611cef614061565b6020026020010151602001516000611e1d565b50600101611cbc565b50611d2881600001516001600160a01b03168a8360800151611e1d565b94505050611d3581612e4a565b505093509350939050565b611d48612523565b6001600160a01b038116611dc45760405162461bcd60e51b815260206004820152602660248201527f4f776e61626c653a206e6577206f776e657220697320746865207a65726f206160448201527f64647265737300000000000000000000000000000000000000000000000000006064820152608401610941565b611dcd8161257d565b50565b8054600090610a4790611dee906001906001600160801b03166142c4565b6001600160801b03167f760a9a962ae3d184e99c0483cf5684fb3170f47116ca4f445c50209da4f4f906015490565b6000818303611e2e57506000611965565b6000611e3a600a611dd0565b6001600160a01b0381166000908152600b6020908152604080832089845290915290205490915083851115611e7b57611e74848603612ea9565b9250611e8c565b611e86858503612ea9565b60000392505b6000611e9884836142eb565b905080600003611ece57600a80546000196001600160801b03600160801b80840482169290920181169091029116179055611efd565b81600003611efd57600a805460016001600160801b03600160801b808404821692909201811690910291161790555b6001600160a01b03929092166000908152600b6020908152604080832098835297905295909520559392505050565b60006001600160e01b031982167f80ac58cd000000000000000000000000000000000000000000000000000000001480611f8f57506001600160e01b031982167f5b5e139f00000000000000000000000000000000000000000000000000000000145b80610a4757507f01ffc9a7000000000000000000000000000000000000000000000000000000006001600160e01b0319831614610a47565b6000818152600260205260409020546001600160a01b0316611dcd5760405162461bcd60e51b815260206004820152601860248201527f4552433732313a20696e76616c696420746f6b656e20494400000000000000006044820152606401610941565b600081815260046020526040902080546001600160a01b0319166001600160a01b038416908117909155819061206082610ff0565b6001600160a01b03167f8c5be1e5ebec7d5bd14f71427d1e84f3dd0314c0f7b2291e5b200ac8c7c3b92560405160405180910390a45050565b80516020810151905160009160a01b01610a47565b6000806120ba83610ff0565b9050806001600160a01b0316846001600160a01b0316148061210157506001600160a01b0380821660009081526005602090815260408083209388168352929052205460ff165b806121255750836001600160a01b031661211a84610adf565b6001600160a01b0316145b949350505050565b826001600160a01b031661214082610ff0565b6001600160a01b0316146121a45760405162461bcd60e51b815260206004820152602560248201527f4552433732313a207472616e736665722066726f6d20696e636f72726563742060448201526437bbb732b960d91b6064820152608401610941565b6001600160a01b03821661221f5760405162461bcd60e51b8152602060048201526024808201527f4552433732313a207472616e7366657220746f20746865207a65726f2061646460448201527f72657373000000000000000000000000000000000000000000000000000000006064820152608401610941565b826001600160a01b031661223282610ff0565b6001600160a01b0316146122965760405162461bcd60e51b815260206004820152602560248201527f4552433732313a207472616e736665722066726f6d20696e636f72726563742060448201526437bbb732b960d91b6064820152608401610941565b600081815260046020908152604080832080546001600160a01b03199081169091556001600160a01b0387811680865260038552838620805460001901905590871680865283862080546001019055868652600290945282852080549092168417909155905184937fddf252ad1be2c89b69c2b068fc378daa952ba7f163c4a11628f55a4df523b3ef91a4505050565b604080516001600160a01b0385811660248301528416604482015260648082018490528251808303909101815260849091019091526020810180517bffffffffffffffffffffffffffffffffffffffffffffffffffffffff167f23b872dd00000000000000000000000000000000000000000000000000000000179052610e94908590612f45565b6000306001600160a01b037f00000000000000000000000000000000000000000000000000000000000000001614801561240757507f000000000000000000000000000000000000000000000000000000000000000046145b1561243157507f000000000000000000000000000000000000000000000000000000000000000090565b610ea4604080517f8b73c3c69bb8fe3d512ecc4cf759cc79239f7b179b0ffacaa9a75d522b39400f60208201527f0000000000000000000000000000000000000000000000000000000000000000918101919091527f000000000000000000000000000000000000000000000000000000000000000060608201524660808201523060a082015260009060c00160405160208183030381529060405280519060200120905090565b6124e3828261302d565b6000908152600e60205260409020805460ff60e81b1916905550600a8054600160801b8082046001600160801b0390811660010181169091029116179055565b600c546001600160a01b031633146112685760405162461bcd60e51b815260206004820181905260248201527f4f776e61626c653a2063616c6c6572206973206e6f7420746865206f776e65726044820152606401610941565b600c80546001600160a01b038381166001600160a01b0319831681179093556040519116919082907f8be0079c531659141344cd1fd0a4f28419497f9722a3daafe3b4186f6b6457e090600090a35050565b6000818152600e602052604081206125e6906131b8565b67ffffffffffffffff1692915050565b6000610a476126036123ae565b836040517f19010000000000000000000000000000000000000000000000000000000000008152600281019290925260228201526042902090565b600080600061264f87878787613207565b9150915061265c816132cb565b5095945050505050565b606060ff83146126805761267983613430565b9050610a47565b81805461268c9061402d565b80601f01602080910402602001604051908101604052809291908181526020018280546126b89061402d565b80156127055780601f106126da57610100808354040283529160200191612705565b820191906000526020600020905b8154815290600101906020018083116126e857829003601f168201915b50505050509050610a47565b816001600160a01b0316836001600160a01b0316036127725760405162461bcd60e51b815260206004820152601960248201527f4552433732313a20617070726f766520746f2063616c6c6572000000000000006044820152606401610941565b6001600160a01b03838116600081815260056020908152604080832094871680845294825291829020805460ff191686151590811790915591519182527f17307eab39ab6107e8899845ad3d59bd9653f200f220920489ca2b5937696c31910160405180910390a3505050565b6000818152600e6020526040902054600160e81b900460ff16156128005750565b6000818152600e60205260409020805460ff60e81b1916600160e81b17905550600a80546000196001600160801b03600160801b80840482169290920181169091029116179055565b600061285482610ff0565b905061285f82610ff0565b600083815260046020908152604080832080546001600160a01b03199081169091556001600160a01b0385168085526003845282852080546000190190558785526002909352818420805490911690555192935084927fddf252ad1be2c89b69c2b068fc378daa952ba7f163c4a11628f55a4df523b3ef908390a45050565b6000610ea44261346f565b6128f484848461212d565b6129008484848461355d565b610e945760405162461bcd60e51b815260206004820152603260248201527f4552433732313a207472616e7366657220746f206e6f6e20455243373231526560448201527f63656976657220696d706c656d656e74657200000000000000000000000000006064820152608401610941565b606060088054610a5c9061402d565b6060600061298e836136b1565b600101905060008167ffffffffffffffff8111156129ae576129ae613dec565b6040519080825280601f01601f1916602001820160405280156129d8576020820181803683370190505b5090508181016020015b600019017f3031323334353637383961626364656600000000000000000000000000000000600a86061a8153600a85049450846129e257509392505050565b6000610ea46001612a306128de565b60ff1690613793565b60608082600001516001600160a01b031684600001516001600160a01b0316148015612a805750826020015167ffffffffffffffff16846020015167ffffffffffffffff16145b612ab6576040517f84991e9500000000000000000000000000000000000000000000000000000000815260040160405180910390fd5b6000612ac0612a21565b9050612ad681856040015160ff90811691161190565b80612aeb5750604085015160ff908116908216115b15612b22576040517f47a5b25b00000000000000000000000000000000000000000000000000000000815260040160405180910390fd5b6040840151600090612b379060ff1683613793565b60ff1690506000612b5883886040015160ff1661379390919063ffffffff16565b60ff1690506000612b69838361379f565b9050876080015187608001511115612b85578082039150612baa565b876080015187608001511015612b9f578083039250612baa565b808303925080820391505b508167ffffffffffffffff811115612bc457612bc4613dec565b604051908082528060200260200182016040528015612c1857816020015b6040805160808101825260009181018281526060820183905281526020810191909152815260200190600190039081612be25790505b5094508067ffffffffffffffff811115612c3457612c34613dec565b604051908082528060200260200182016040528015612c8857816020015b6040805160808101825260009181018281526060820183905281526020810191909152815260200190600190039081612c525790505b50935060008080925081935050506000612cba84612a308a604001518a6040015160ff166137b590919063ffffffff16565b60ff1690508360005b82811015612e3d57612cd960ff831660016137ca565b91506000612cf18a604001518460ff90811691161090565b612cff578960800151612d02565b60005b90506000612d1a8c604001518560ff90811691161090565b612d28578b60800151612d2b565b60005b905080821115612db2578b51604080516080808201835260008284018181526060808501839052908452602093840191909152835191820184526001600160a01b0390941692810192835260ff881693810193909352908252828403908201528a5160018901988c918110612da257612da2614061565b6020026020010181905250612e33565b80821015612e33578b51604080516080808201835260008284018181526060808501839052908452602093840191909152835191820184526001600160a01b0390941692810192835260ff88169381019390935290825283830390820152895160018801978b918110612e2757612e27614061565b60200260200101819052505b5050600101612cc3565b5050505050509250929050565b6000818152600e6020526040902054600160e81b900460ff16612e6a5750565b6000908152600e60205260409020805460ff60e81b19169055600a8054600160801b8082046001600160801b0390811660010181169091029116179055565b60007f7fffffffffffffffffffffffffffffffffffffffffffffffffffffffffffffff821115612f415760405162461bcd60e51b815260206004820152602860248201527f53616665436173743a2076616c756520646f65736e27742066697420696e206160448201527f6e20696e743235360000000000000000000000000000000000000000000000006064820152608401610941565b5090565b6000612f9a826040518060400160405280602081526020017f5361666545524332303a206c6f772d6c6576656c2063616c6c206661696c6564815250856001600160a01b03166137d69092919063ffffffff16565b9050805160001480612fbb575080806020019051810190612fbb9190614329565b610c325760405162461bcd60e51b815260206004820152602a60248201527f5361666545524332303a204552433230206f7065726174696f6e20646964206e60448201527f6f742073756363656564000000000000000000000000000000000000000000006064820152608401610941565b6001600160a01b0382166130835760405162461bcd60e51b815260206004820181905260248201527f4552433732313a206d696e7420746f20746865207a65726f20616464726573736044820152606401610941565b6000818152600260205260409020546001600160a01b0316156130e85760405162461bcd60e51b815260206004820152601c60248201527f4552433732313a20746f6b656e20616c7265616479206d696e746564000000006044820152606401610941565b6000818152600260205260409020546001600160a01b03161561314d5760405162461bcd60e51b815260206004820152601c60248201527f4552433732313a20746f6b656e20616c7265616479206d696e746564000000006044820152606401610941565b6001600160a01b038216600081815260036020908152604080832080546001019055848352600290915280822080546001600160a01b0319168417905551839291907fddf252ad1be2c89b69c2b068fc378daa952ba7f163c4a11628f55a4df523b3ef908290a45050565b8054600090600160a01b900467ffffffffffffffff168260146131da83614346565b91906101000a81548167ffffffffffffffff021916908367ffffffffffffffff1602179055509050919050565b6000807f7fffffffffffffffffffffffffffffff5d576e7357a4501ddfe92f46681b20a083111561323e57506000905060036132c2565b6040805160008082526020820180845289905260ff881692820192909252606081018690526080810185905260019060a0016020604051602081039080840390855afa158015613292573d6000803e3d6000fd5b5050604051601f1901519150506001600160a01b0381166132bb576000600192509250506132c2565b9150600090505b94509492505050565b60008160048111156132df576132df61436d565b036132e75750565b60018160048111156132fb576132fb61436d565b036133485760405162461bcd60e51b815260206004820152601860248201527f45434453413a20696e76616c6964207369676e617475726500000000000000006044820152606401610941565b600281600481111561335c5761335c61436d565b036133a95760405162461bcd60e51b815260206004820152601f60248201527f45434453413a20696e76616c6964207369676e6174757265206c656e677468006044820152606401610941565b60038160048111156133bd576133bd61436d565b03611dcd5760405162461bcd60e51b815260206004820152602260248201527f45434453413a20696e76616c6964207369676e6174757265202773272076616c60448201527f75650000000000000000000000000000000000000000000000000000000000006064820152608401610941565b6060600061343d836137e5565b604080516020808252818301909252919250600091906020820181803683375050509182525060208101929092525090565b600080620151808304905080622649658101600062023ab1600483020590506004600362023ab18302010590910390600062164b09610fa0600185010205905060046105b58202058303601f019250600061098f84605002816134d4576134d4614313565b059050600b8105935083600c028160020103905083826031850360640201019150600060066001836107b28603600c0201038161351357613513614313565b04905060ff811115613551576040517f73cde75100000000000000000000000000000000000000000000000000000000815260040160405180910390fd5b98975050505050505050565b60006001600160a01b0384163b156136a957604051630a85bd0160e11b81526001600160a01b0385169063150b7a02906135a1903390899088908890600401614383565b6020604051808303816000875af19250505080156135dc575060408051601f3d908101601f191682019092526135d9918101906141e0565b60015b61368f573d80801561360a576040519150601f19603f3d011682016040523d82523d6000602084013e61360f565b606091505b5080516000036136875760405162461bcd60e51b815260206004820152603260248201527f4552433732313a207472616e7366657220746f206e6f6e20455243373231526560448201527f63656976657220696d706c656d656e74657200000000000000000000000000006064820152608401610941565b805181602001fd5b6001600160e01b031916630a85bd0160e11b149050612125565b506001612125565b6000807a184f03e93ff9f4daa797ed6e38ed64bf6a1f01000000000000000083106136fa577a184f03e93ff9f4daa797ed6e38ed64bf6a1f010000000000000000830492506040015b6d04ee2d6d415b85acef81000000008310613726576d04ee2d6d415b85acef8100000000830492506020015b662386f26fc10000831061374457662386f26fc10000830492506010015b6305f5e100831061375c576305f5e100830492506008015b612710831061377057612710830492506004015b60648310613782576064830492506002015b600a8310610a475760010192915050565b600061196582846143bf565b60008183106137ae5781611965565b5090919050565b600060ff808316908416116137ae5781611965565b600061196582846143d8565b60606121258484600085613826565b600060ff8216601f811115610a47576040517fb3512b0c00000000000000000000000000000000000000000000000000000000815260040160405180910390fd5b60608247101561389e5760405162461bcd60e51b815260206004820152602660248201527f416464726573733a20696e73756666696369656e742062616c616e636520666f60448201527f722063616c6c00000000000000000000000000000000000000000000000000006064820152608401610941565b600080866001600160a01b031685876040516138ba91906143f1565b60006040518083038185875af1925050503d80600081146138f7576040519150601f19603f3d011682016040523d82523d6000602084013e6138fc565b606091505b509150915061390d87838387613918565b979650505050505050565b60608315613987578251600003613980576001600160a01b0385163b6139805760405162461bcd60e51b815260206004820152601d60248201527f416464726573733a2063616c6c20746f206e6f6e2d636f6e74726163740000006044820152606401610941565b5081612125565b612125838381511561399c5781518083602001fd5b8060405162461bcd60e51b81526004016109419190613a91565b80356001600160a01b03811681146139cd57600080fd5b919050565b6000806000606084860312156139e757600080fd5b6139f0846139b6565b92506139fe602085016139b6565b9150604084013590509250925092565b6001600160e01b031981168114611dcd57600080fd5b600060208284031215613a3657600080fd5b813561196581613a0e565b60005b83811015613a5c578181015183820152602001613a44565b50506000910152565b60008151808452613a7d816020860160208601613a41565b601f01601f19169290920160200192915050565b6020815260006119656020830184613a65565b600060208284031215613ab657600080fd5b5035919050565b60008060408385031215613ad057600080fd5b613ad9836139b6565b946020939093013593505050565b60008083601f840112613af957600080fd5b50813567ffffffffffffffff811115613b1157600080fd5b602083019150836020606083028501011115613b2c57600080fd5b9250929050565b60008083601f840112613b4557600080fd5b50813567ffffffffffffffff811115613b5d57600080fd5b602083019150836020828501011115613b2c57600080fd5b600080600080600060608688031215613b8d57600080fd5b853567ffffffffffffffff80821115613ba557600080fd5b613bb189838a01613ae7565b9097509550859150613bc5602089016139b6565b94506040880135915080821115613bdb57600080fd5b50613be888828901613b33565b969995985093965092949392505050565b600060208284031215613c0b57600080fd5b611965826139b6565b60008060208385031215613c2757600080fd5b823567ffffffffffffffff811115613c3e57600080fd5b613c4a85828601613ae7565b90969095509350505050565b60ff81168114611dcd57600080fd5b60008060008060008060c08789031215613c7e57600080fd5b613c87876139b6565b955060208701359450604087013593506060870135613ca581613c56565b9598949750929560808101359460a0909101359350915050565b60008060208385031215613cd257600080fd5b823567ffffffffffffffff811115613ce957600080fd5b613c4a85828601613b33565b7fff00000000000000000000000000000000000000000000000000000000000000881681526000602060e081840152613d3160e084018a613a65565b8381036040850152613d43818a613a65565b606085018990526001600160a01b038816608086015260a0850187905284810360c0860152855180825283870192509083019060005b81811015613d9557835183529284019291840191600101613d79565b50909c9b505050505050505050505050565b8015158114611dcd57600080fd5b60008060408385031215613dc857600080fd5b613dd1836139b6565b91506020830135613de181613da7565b809150509250929050565b634e487b7160e01b600052604160045260246000fd5b6040805190810167ffffffffffffffff81118282101715613e2557613e25613dec565b60405290565b604051601f8201601f1916810167ffffffffffffffff81118282101715613e5457613e54613dec565b604052919050565b600067ffffffffffffffff821115613e7657613e76613dec565b50601f01601f191660200190565b60008060008060808587031215613e9a57600080fd5b613ea3856139b6565b9350613eb1602086016139b6565b925060408501359150606085013567ffffffffffffffff811115613ed457600080fd5b8501601f81018713613ee557600080fd5b8035613ef8613ef382613e5c565b613e2b565b818152886020838501011115613f0d57600080fd5b8160208401602083013760006020838301015280935050505092959194509250565b600080600060608486031215613f4457600080fd5b83359250602084013591506040840135613f5d81613c56565b809150509250925092565b600081518084526020808501945080840160005b83811015613fb9578151805180516001600160a01b0316895284015160ff1684890152830151604088015260609096019590820190600101613f7c565b509495945050505050565b606081526000613fd76060830186613f68565b8281036020840152613fe98186613f68565b915050826040830152949350505050565b6000806040838503121561400d57600080fd5b614016836139b6565b9150614024602084016139b6565b90509250929050565b600181811c9082168061404157607f821691505b60208210810361112857634e487b7160e01b600052602260045260246000fd5b634e487b7160e01b600052603260045260246000fd5b6000818303606081121561408a57600080fd5b614092613e02565b60408212156140a057600080fd5b6140a8613e02565b91506140b3846139b6565b825260208401356140c381613c56565b602083810191909152918152604093909301359083015250919050565b8183526000602080850194508260005b85811015613fb9576001600160a01b03614109836139b6565b1687528282013561411981613c56565b60ff168784015260408281013590880152606096870196909101906001016140f0565b81835281816020850137506000828201602090810191909152601f909101601f19169091010190565b6001600160a01b03861681526060602082015260006141886060830186886140e0565b828103604084015261355181858761413c565b6001600160a01b03841681526040602082015260006141be6040830184866140e0565b95945050505050565b8281526040602082015260006121256040830184613a65565b6000602082840312156141f257600080fd5b815161196581613a0e565b60208152600061212560208301848661413c565b60006020828403121561422357600080fd5b815167ffffffffffffffff81111561423a57600080fd5b8201601f8101841361424b57600080fd5b8051614259613ef382613e5c565b81815285602083850101111561426e57600080fd5b6141be826020830160208601613a41565b60008351614291818460208801613a41565b8351908301906142a5818360208801613a41565b01949350505050565b634e487b7160e01b600052601160045260246000fd5b6001600160801b038281168282160390808211156142e4576142e46142ae565b5092915050565b808201828112600083128015821682158216171561430b5761430b6142ae565b505092915050565b634e487b7160e01b600052601260045260246000fd5b60006020828403121561433b57600080fd5b815161196581613da7565b600067ffffffffffffffff808316818103614363576143636142ae565b6001019392505050565b634e487b7160e01b600052602160045260246000fd5b60006001600160a01b038087168352808616602084015250836040830152608060608301526143b56080830184613a65565b9695505050505050565b60ff8281168282160390811115610a4757610a476142ae565b60ff8181168382160190811115610a4757610a476142ae565b60008251614403818460208701613a41565b919091019291505056fea264697066735822122056022db6d0431e425503b640e6281ea373478fd9160c60c64c544df6118d348164736f6c63430008130033",
  "devdoc": {
    "events": {
      "Approval(address,address,uint256)": {
        "details": "Emitted when `owner` enables `approved` to manage the `tokenId` token."
      },
      "ApprovalForAll(address,address,bool)": {
        "details": "Emitted when `owner` enables or disables (`approved`) `operator` to manage all of its assets."
      },
      "EIP712DomainChanged()": {
        "details": "MAY be emitted to signal that the domain could have changed."
      },
      "Transfer(address,address,uint256)": {
        "details": "Emitted when `tokenId` token is transferred from `from` to `to`."
      }
    },
    "kind": "dev",
    "methods": {
      "approve(address,uint256)": {
        "details": "See {IERC721-approve}."
      },
      "balanceOf(address)": {
        "details": "See {IERC721-balanceOf}."
      },
      "eip712Domain()": {
        "details": "See {EIP-5267}. _Available since v4.9._"
      },
      "getApproved(uint256)": {
        "details": "See {IERC721-getApproved}."
      },
      "isApprovedForAll(address,address)": {
        "details": "See {IERC721-isApprovedForAll}."
      },
      "name()": {
        "details": "See {IERC721Metadata-name}."
      },
      "owner()": {
        "details": "Returns the address of the current owner."
      },
      "ownerOf(uint256)": {
        "details": "See {IERC721-ownerOf}."
      },
      "renounceOwnership()": {
        "details": "Leaves the contract without owner. It will not be possible to call `onlyOwner` functions. Can only be called by the current owner. NOTE: Renouncing ownership will leave the contract without an owner, thereby disabling any functionality that is only available to the owner."
      },
      "safeTransferFrom(address,address,uint256)": {
        "details": "See {IERC721-safeTransferFrom}."
      },
      "safeTransferFrom(address,address,uint256,bytes)": {
        "details": "See {IERC721-safeTransferFrom}."
      },
      "setApprovalForAll(address,bool)": {
        "details": "See {IERC721-setApprovalForAll}."
      },
      "symbol()": {
        "details": "See {IERC721Metadata-symbol}."
      },
      "tokenURI(uint256)": {
        "details": "See {IERC721Metadata-tokenURI}."
      },
      "transferFrom(address,address,uint256)": {
        "details": "See {IERC721-transferFrom}."
      },
      "transferOwnership(address)": {
        "details": "Transfers ownership of the contract to a new account (`newOwner`). Can only be called by the current owner."
      }
    },
    "version": 1
  },
  "userdoc": {
    "kind": "user",
    "methods": {},
    "version": 1
  },
  "storageLayout": {
    "storage": [
      {
        "astId": 3094,
        "contract": "contracts/BondPositionManager.sol:BondPositionManager",
        "label": "_name",
        "offset": 0,
        "slot": "0",
        "type": "t_string_storage"
      },
      {
        "astId": 3096,
        "contract": "contracts/BondPositionManager.sol:BondPositionManager",
        "label": "_symbol",
        "offset": 0,
        "slot": "1",
        "type": "t_string_storage"
      },
      {
        "astId": 3100,
        "contract": "contracts/BondPositionManager.sol:BondPositionManager",
        "label": "_owners",
        "offset": 0,
        "slot": "2",
        "type": "t_mapping(t_uint256,t_address)"
      },
      {
        "astId": 3104,
        "contract": "contracts/BondPositionManager.sol:BondPositionManager",
        "label": "_balances",
        "offset": 0,
        "slot": "3",
        "type": "t_mapping(t_address,t_uint256)"
      },
      {
        "astId": 3108,
        "contract": "contracts/BondPositionManager.sol:BondPositionManager",
        "label": "_tokenApprovals",
        "offset": 0,
        "slot": "4",
        "type": "t_mapping(t_uint256,t_address)"
      },
      {
        "astId": 3114,
        "contract": "contracts/BondPositionManager.sol:BondPositionManager",
        "label": "_operatorApprovals",
        "offset": 0,
        "slot": "5",
        "type": "t_mapping(t_address,t_mapping(t_address,t_bool))"
      },
      {
        "astId": 5536,
        "contract": "contracts/BondPositionManager.sol:BondPositionManager",
        "label": "_nameFallback",
        "offset": 0,
        "slot": "6",
        "type": "t_string_storage"
      },
      {
        "astId": 5538,
        "contract": "contracts/BondPositionManager.sol:BondPositionManager",
        "label": "_versionFallback",
        "offset": 0,
        "slot": "7",
        "type": "t_string_storage"
      },
      {
        "astId": 20672,
        "contract": "contracts/BondPositionManager.sol:BondPositionManager",
        "label": "baseURI",
        "offset": 0,
        "slot": "8",
        "type": "t_string_storage"
      },
      {
        "astId": 20676,
        "contract": "contracts/BondPositionManager.sol:BondPositionManager",
        "label": "nextId",
        "offset": 0,
        "slot": "9",
        "type": "t_uint256"
      },
      {
        "astId": 20679,
        "contract": "contracts/BondPositionManager.sol:BondPositionManager",
        "label": "_lockData",
        "offset": 0,
        "slot": "10",
        "type": "t_struct(LockData)20537_storage"
      },
      {
        "astId": 20686,
        "contract": "contracts/BondPositionManager.sol:BondPositionManager",
        "label": "assetDelta",
        "offset": 0,
        "slot": "11",
        "type": "t_mapping(t_address,t_mapping(t_uint256,t_int256))"
      },
      {
        "astId": 7,
        "contract": "contracts/BondPositionManager.sol:BondPositionManager",
        "label": "_owner",
        "offset": 0,
        "slot": "12",
        "type": "t_address"
      },
      {
        "astId": 8656,
        "contract": "contracts/BondPositionManager.sol:BondPositionManager",
        "label": "isAssetRegistered",
        "offset": 0,
        "slot": "13",
        "type": "t_mapping(t_address,t_bool)"
      },
      {
        "astId": 8661,
        "contract": "contracts/BondPositionManager.sol:BondPositionManager",
        "label": "_positionMap",
        "offset": 0,
        "slot": "14",
        "type": "t_mapping(t_uint256,t_struct(BondPosition)17915_storage)"
      }
    ],
    "types": {
      "t_address": {
        "encoding": "inplace",
        "label": "address",
        "numberOfBytes": "20"
      },
      "t_bool": {
        "encoding": "inplace",
        "label": "bool",
        "numberOfBytes": "1"
      },
      "t_int256": {
        "encoding": "inplace",
        "label": "int256",
        "numberOfBytes": "32"
      },
      "t_mapping(t_address,t_bool)": {
        "encoding": "mapping",
        "key": "t_address",
        "label": "mapping(address => bool)",
        "numberOfBytes": "32",
        "value": "t_bool"
      },
      "t_mapping(t_address,t_mapping(t_address,t_bool))": {
        "encoding": "mapping",
        "key": "t_address",
        "label": "mapping(address => mapping(address => bool))",
        "numberOfBytes": "32",
        "value": "t_mapping(t_address,t_bool)"
      },
      "t_mapping(t_address,t_mapping(t_uint256,t_int256))": {
        "encoding": "mapping",
        "key": "t_address",
        "label": "mapping(address => mapping(uint256 => int256))",
        "numberOfBytes": "32",
        "value": "t_mapping(t_uint256,t_int256)"
      },
      "t_mapping(t_address,t_uint256)": {
        "encoding": "mapping",
        "key": "t_address",
        "label": "mapping(address => uint256)",
        "numberOfBytes": "32",
        "value": "t_uint256"
      },
      "t_mapping(t_uint256,t_address)": {
        "encoding": "mapping",
        "key": "t_uint256",
        "label": "mapping(uint256 => address)",
        "numberOfBytes": "32",
        "value": "t_address"
      },
      "t_mapping(t_uint256,t_int256)": {
        "encoding": "mapping",
        "key": "t_uint256",
        "label": "mapping(uint256 => int256)",
        "numberOfBytes": "32",
        "value": "t_int256"
      },
      "t_mapping(t_uint256,t_struct(BondPosition)17915_storage)": {
        "encoding": "mapping",
        "key": "t_uint256",
        "label": "mapping(uint256 => struct BondPosition)",
        "numberOfBytes": "32",
        "value": "t_struct(BondPosition)17915_storage"
      },
      "t_string_storage": {
        "encoding": "bytes",
        "label": "string",
        "numberOfBytes": "32"
      },
      "t_struct(BondPosition)17915_storage": {
        "encoding": "inplace",
        "label": "struct BondPosition",
        "members": [
          {
            "astId": 17905,
            "contract": "contracts/BondPositionManager.sol:BondPositionManager",
            "label": "asset",
            "offset": 0,
            "slot": "0",
            "type": "t_address"
          },
          {
            "astId": 17907,
            "contract": "contracts/BondPositionManager.sol:BondPositionManager",
            "label": "nonce",
            "offset": 20,
            "slot": "0",
            "type": "t_uint64"
          },
          {
            "astId": 17910,
            "contract": "contracts/BondPositionManager.sol:BondPositionManager",
            "label": "expiredWith",
            "offset": 28,
            "slot": "0",
            "type": "t_userDefinedValueType(Epoch)19673"
          },
          {
            "astId": 17912,
            "contract": "contracts/BondPositionManager.sol:BondPositionManager",
            "label": "isSettled",
            "offset": 29,
            "slot": "0",
            "type": "t_bool"
          },
          {
            "astId": 17914,
            "contract": "contracts/BondPositionManager.sol:BondPositionManager",
            "label": "amount",
            "offset": 0,
            "slot": "1",
            "type": "t_uint256"
          }
        ],
        "numberOfBytes": "64"
      },
      "t_struct(LockData)20537_storage": {
        "encoding": "inplace",
        "label": "struct LockData",
        "members": [
          {
            "astId": 20533,
            "contract": "contracts/BondPositionManager.sol:BondPositionManager",
            "label": "length",
            "offset": 0,
            "slot": "0",
            "type": "t_uint128"
          },
          {
            "astId": 20536,
            "contract": "contracts/BondPositionManager.sol:BondPositionManager",
            "label": "nonzeroDeltaCount",
            "offset": 16,
            "slot": "0",
            "type": "t_uint128"
          }
        ],
        "numberOfBytes": "32"
      },
      "t_uint128": {
        "encoding": "inplace",
        "label": "uint128",
        "numberOfBytes": "16"
      },
      "t_uint256": {
        "encoding": "inplace",
        "label": "uint256",
        "numberOfBytes": "32"
      },
      "t_uint64": {
        "encoding": "inplace",
        "label": "uint64",
        "numberOfBytes": "8"
      },
      "t_userDefinedValueType(Epoch)19673": {
        "encoding": "inplace",
        "label": "Epoch",
        "numberOfBytes": "1"
      }
    }
  }
}