{
  "address": "0xD90710a840441D7249dEF543c4BA2d24DC62BecC",
  "abi": [
    {
      "inputs": [
        {
          "internalType": "address",
          "name": "coupon_",
          "type": "address"
        },
        {
          "internalType": "address",
          "name": "assetPool_",
          "type": "address"
        },
        {
          "internalType": "string",
          "name": "baseURI_",
          "type": "string"
        }
      ],
      "stateMutability": "nonpayable",
      "type": "constructor"
    },
    {
      "inputs": [],
      "name": "AlreadyExpired",
      "type": "error"
    },
    {
      "inputs": [],
      "name": "EpochOverflow",
      "type": "error"
    },
    {
      "inputs": [],
      "name": "InvalidAccess",
      "type": "error"
    },
    {
      "inputs": [],
      "name": "InvalidEpoch",
      "type": "error"
    },
    {
      "inputs": [],
      "name": "InvalidPositionEpoch",
      "type": "error"
    },
    {
      "inputs": [],
      "name": "InvalidShortString",
      "type": "error"
    },
    {
      "inputs": [],
      "name": "InvalidSignature",
      "type": "error"
    },
    {
      "inputs": [
        {
          "internalType": "address",
          "name": "locker",
          "type": "address"
        }
      ],
      "name": "LockedBy",
      "type": "error"
    },
    {
      "inputs": [],
      "name": "NotSettled",
      "type": "error"
    },
    {
      "inputs": [],
      "name": "PermitExpired",
      "type": "error"
    },
    {
      "inputs": [
        {
          "internalType": "string",
          "name": "str",
          "type": "string"
        }
      ],
      "name": "StringTooLong",
      "type": "error"
    },
    {
      "inputs": [],
      "name": "UnmatchedPosition",
      "type": "error"
    },
    {
      "inputs": [],
      "name": "UnregisteredAsset",
      "type": "error"
    },
    {
      "anonymous": false,
      "inputs": [
        {
          "indexed": true,
          "internalType": "address",
          "name": "owner",
          "type": "address"
        },
        {
          "indexed": true,
          "internalType": "address",
          "name": "approved",
          "type": "address"
        },
        {
          "indexed": true,
          "internalType": "uint256",
          "name": "tokenId",
          "type": "uint256"
        }
      ],
      "name": "Approval",
      "type": "event"
    },
    {
      "anonymous": false,
      "inputs": [
        {
          "indexed": true,
          "internalType": "address",
          "name": "owner",
          "type": "address"
        },
        {
          "indexed": true,
          "internalType": "address",
          "name": "operator",
          "type": "address"
        },
        {
          "indexed": false,
          "internalType": "bool",
          "name": "approved",
          "type": "bool"
        }
      ],
      "name": "ApprovalForAll",
      "type": "event"
    },
    {
      "anonymous": false,
      "inputs": [
        {
          "indexed": true,
          "internalType": "address",
          "name": "asset",
          "type": "address"
        }
      ],
      "name": "AssetRegistered",
      "type": "event"
    },
    {
      "anonymous": false,
      "inputs": [],
      "name": "EIP712DomainChanged",
      "type": "event"
    },
    {
      "anonymous": false,
      "inputs": [
        {
          "indexed": true,
          "internalType": "address",
          "name": "previousOwner",
          "type": "address"
        },
        {
          "indexed": true,
          "internalType": "address",
          "name": "newOwner",
          "type": "address"
        }
      ],
      "name": "OwnershipTransferred",
      "type": "event"
    },
    {
      "anonymous": false,
      "inputs": [
        {
          "indexed": true,
          "internalType": "uint256",
          "name": "tokenId",
          "type": "uint256"
        },
        {
          "indexed": false,
          "internalType": "uint256",
          "name": "amount",
          "type": "uint256"
        },
        {
          "indexed": false,
          "internalType": "Epoch",
          "name": "expiredWith",
          "type": "uint8"
        }
      ],
      "name": "PositionUpdated",
      "type": "event"
    },
    {
      "anonymous": false,
      "inputs": [
        {
          "indexed": true,
          "internalType": "address",
          "name": "from",
          "type": "address"
        },
        {
          "indexed": true,
          "internalType": "address",
          "name": "to",
          "type": "address"
        },
        {
          "indexed": true,
          "internalType": "uint256",
          "name": "tokenId",
          "type": "uint256"
        }
      ],
      "name": "Transfer",
      "type": "event"
    },
    {
      "inputs": [],
      "name": "DOMAIN_SEPARATOR",
      "outputs": [
        {
          "internalType": "bytes32",
          "name": "",
          "type": "bytes32"
        }
      ],
      "stateMutability": "view",
      "type": "function"
    },
    {
      "inputs": [],
      "name": "PERMIT_TYPEHASH",
      "outputs": [
        {
          "internalType": "bytes32",
          "name": "",
          "type": "bytes32"
        }
      ],
      "stateMutability": "view",
      "type": "function"
    },
    {
      "inputs": [
        {
          "internalType": "uint256",
          "name": "positionId",
          "type": "uint256"
        },
        {
          "internalType": "uint256",
          "name": "amount",
          "type": "uint256"
        },
        {
          "internalType": "Epoch",
          "name": "expiredWith",
          "type": "uint8"
        }
      ],
      "name": "adjustPosition",
      "outputs": [
        {
          "components": [
            {
              "components": [
                {
                  "internalType": "address",
                  "name": "asset",
                  "type": "address"
                },
                {
                  "internalType": "Epoch",
                  "name": "epoch",
                  "type": "uint8"
                }
              ],
              "internalType": "struct CouponKey",
              "name": "key",
              "type": "tuple"
            },
            {
              "internalType": "uint256",
              "name": "amount",
              "type": "uint256"
            }
          ],
          "internalType": "struct Coupon[]",
          "name": "couponsToMint",
          "type": "tuple[]"
        },
        {
          "components": [
            {
              "components": [
                {
                  "internalType": "address",
                  "name": "asset",
                  "type": "address"
                },
                {
                  "internalType": "Epoch",
                  "name": "epoch",
                  "type": "uint8"
                }
              ],
              "internalType": "struct CouponKey",
              "name": "key",
              "type": "tuple"
            },
            {
              "internalType": "uint256",
              "name": "amount",
              "type": "uint256"
            }
          ],
          "internalType": "struct Coupon[]",
          "name": "couponsToBurn",
          "type": "tuple[]"
        },
        {
          "internalType": "int256",
          "name": "amountDelta",
          "type": "int256"
        }
      ],
      "stateMutability": "nonpayable",
      "type": "function"
    },
    {
      "inputs": [
        {
          "internalType": "address",
          "name": "to",
          "type": "address"
        },
        {
          "internalType": "uint256",
          "name": "tokenId",
          "type": "uint256"
        }
      ],
      "name": "approve",
      "outputs": [],
      "stateMutability": "nonpayable",
      "type": "function"
    },
    {
      "inputs": [
        {
          "internalType": "address",
          "name": "locker",
          "type": "address"
        },
        {
          "internalType": "uint256",
          "name": "assetId",
          "type": "uint256"
        }
      ],
      "name": "assetDelta",
      "outputs": [
        {
          "internalType": "int256",
          "name": "delta",
          "type": "int256"
        }
      ],
      "stateMutability": "view",
      "type": "function"
    },
    {
      "inputs": [],
      "name": "assetPool",
      "outputs": [
        {
          "internalType": "address",
          "name": "",
          "type": "address"
        }
      ],
      "stateMutability": "view",
      "type": "function"
    },
    {
      "inputs": [
        {
          "internalType": "address",
          "name": "owner",
          "type": "address"
        }
      ],
      "name": "balanceOf",
      "outputs": [
        {
          "internalType": "uint256",
          "name": "",
          "type": "uint256"
        }
      ],
      "stateMutability": "view",
      "type": "function"
    },
    {
      "inputs": [],
      "name": "baseURI",
      "outputs": [
        {
          "internalType": "string",
          "name": "",
          "type": "string"
        }
      ],
      "stateMutability": "view",
      "type": "function"
    },
    {
      "inputs": [
        {
          "components": [
            {
              "components": [
                {
                  "internalType": "address",
                  "name": "asset",
                  "type": "address"
                },
                {
                  "internalType": "Epoch",
                  "name": "epoch",
                  "type": "uint8"
                }
              ],
              "internalType": "struct CouponKey",
              "name": "key",
              "type": "tuple"
            },
            {
              "internalType": "uint256",
              "name": "amount",
              "type": "uint256"
            }
          ],
          "internalType": "struct Coupon[]",
          "name": "coupons",
          "type": "tuple[]"
        }
      ],
      "name": "burnCoupons",
      "outputs": [],
      "stateMutability": "nonpayable",
      "type": "function"
    },
    {
      "inputs": [
        {
          "internalType": "address",
          "name": "token",
          "type": "address"
        },
        {
          "internalType": "uint256",
          "name": "amount",
          "type": "uint256"
        }
      ],
      "name": "depositToken",
      "outputs": [],
      "stateMutability": "nonpayable",
      "type": "function"
    },
    {
      "inputs": [],
      "name": "eip712Domain",
      "outputs": [
        {
          "internalType": "bytes1",
          "name": "fields",
          "type": "bytes1"
        },
        {
          "internalType": "string",
          "name": "name",
          "type": "string"
        },
        {
          "internalType": "string",
          "name": "version",
          "type": "string"
        },
        {
          "internalType": "uint256",
          "name": "chainId",
          "type": "uint256"
        },
        {
          "internalType": "address",
          "name": "verifyingContract",
          "type": "address"
        },
        {
          "internalType": "bytes32",
          "name": "salt",
          "type": "bytes32"
        },
        {
          "internalType": "uint256[]",
          "name": "extensions",
          "type": "uint256[]"
        }
      ],
      "stateMutability": "view",
      "type": "function"
    },
    {
      "inputs": [
        {
          "internalType": "uint256",
          "name": "tokenId",
          "type": "uint256"
        }
      ],
      "name": "getApproved",
      "outputs": [
        {
          "internalType": "address",
          "name": "",
          "type": "address"
        }
      ],
      "stateMutability": "view",
      "type": "function"
    },
    {
      "inputs": [],
      "name": "getMaxEpoch",
      "outputs": [
        {
          "internalType": "Epoch",
          "name": "maxEpoch",
          "type": "uint8"
        }
      ],
      "stateMutability": "pure",
      "type": "function"
    },
    {
      "inputs": [
        {
          "internalType": "uint256",
          "name": "positionId",
          "type": "uint256"
        }
      ],
      "name": "getPosition",
      "outputs": [
        {
          "components": [
            {
              "internalType": "address",
              "name": "asset",
              "type": "address"
            },
            {
              "internalType": "uint64",
              "name": "nonce",
              "type": "uint64"
            },
            {
              "internalType": "Epoch",
              "name": "expiredWith",
              "type": "uint8"
            },
            {
              "internalType": "bool",
              "name": "isSettled",
              "type": "bool"
            },
            {
              "internalType": "uint256",
              "name": "amount",
              "type": "uint256"
            }
          ],
          "internalType": "struct BondPosition",
          "name": "",
          "type": "tuple"
        }
      ],
      "stateMutability": "view",
      "type": "function"
    },
    {
      "inputs": [
        {
          "internalType": "address",
          "name": "owner",
          "type": "address"
        },
        {
          "internalType": "address",
          "name": "operator",
          "type": "address"
        }
      ],
      "name": "isApprovedForAll",
      "outputs": [
        {
          "internalType": "bool",
          "name": "",
          "type": "bool"
        }
      ],
      "stateMutability": "view",
      "type": "function"
    },
    {
      "inputs": [
        {
          "internalType": "address",
          "name": "asset",
          "type": "address"
        }
      ],
      "name": "isAssetRegistered",
      "outputs": [
        {
          "internalType": "bool",
          "name": "",
          "type": "bool"
        }
      ],
      "stateMutability": "view",
      "type": "function"
    },
    {
      "inputs": [
        {
          "internalType": "bytes",
          "name": "data",
          "type": "bytes"
        }
      ],
      "name": "lock",
      "outputs": [
        {
          "internalType": "bytes",
          "name": "result",
          "type": "bytes"
        }
      ],
      "stateMutability": "nonpayable",
      "type": "function"
    },
    {
      "inputs": [],
      "name": "lockData",
      "outputs": [
        {
          "internalType": "uint128",
          "name": "",
          "type": "uint128"
        },
        {
          "internalType": "uint128",
          "name": "",
          "type": "uint128"
        }
      ],
      "stateMutability": "view",
      "type": "function"
    },
    {
      "inputs": [
        {
          "internalType": "address",
          "name": "asset",
          "type": "address"
        }
      ],
      "name": "mint",
      "outputs": [
        {
          "internalType": "uint256",
          "name": "positionId",
          "type": "uint256"
        }
      ],
      "stateMutability": "nonpayable",
      "type": "function"
    },
    {
      "inputs": [
        {
          "components": [
            {
              "components": [
                {
                  "internalType": "address",
                  "name": "asset",
                  "type": "address"
                },
                {
                  "internalType": "Epoch",
                  "name": "epoch",
                  "type": "uint8"
                }
              ],
              "internalType": "struct CouponKey",
              "name": "key",
              "type": "tuple"
            },
            {
              "internalType": "uint256",
              "name": "amount",
              "type": "uint256"
            }
          ],
          "internalType": "struct Coupon[]",
          "name": "coupons",
          "type": "tuple[]"
        },
        {
          "internalType": "address",
          "name": "to",
          "type": "address"
        },
        {
          "internalType": "bytes",
          "name": "data",
          "type": "bytes"
        }
      ],
      "name": "mintCoupons",
      "outputs": [],
      "stateMutability": "nonpayable",
      "type": "function"
    },
    {
      "inputs": [],
      "name": "name",
      "outputs": [
        {
          "internalType": "string",
          "name": "",
          "type": "string"
        }
      ],
      "stateMutability": "view",
      "type": "function"
    },
    {
      "inputs": [],
      "name": "nextId",
      "outputs": [
        {
          "internalType": "uint256",
          "name": "",
          "type": "uint256"
        }
      ],
      "stateMutability": "view",
      "type": "function"
    },
    {
      "inputs": [
        {
          "internalType": "uint256",
          "name": "positionId",
          "type": "uint256"
        }
      ],
      "name": "nonces",
      "outputs": [
        {
          "internalType": "uint256",
          "name": "",
          "type": "uint256"
        }
      ],
      "stateMutability": "view",
      "type": "function"
    },
    {
      "inputs": [],
      "name": "owner",
      "outputs": [
        {
          "internalType": "address",
          "name": "",
          "type": "address"
        }
      ],
      "stateMutability": "view",
      "type": "function"
    },
    {
      "inputs": [
        {
          "internalType": "uint256",
          "name": "tokenId",
          "type": "uint256"
        }
      ],
      "name": "ownerOf",
      "outputs": [
        {
          "internalType": "address",
          "name": "",
          "type": "address"
        }
      ],
      "stateMutability": "view",
      "type": "function"
    },
    {
      "inputs": [
        {
          "internalType": "address",
          "name": "spender",
          "type": "address"
        },
        {
          "internalType": "uint256",
          "name": "tokenId",
          "type": "uint256"
        },
        {
          "internalType": "uint256",
          "name": "deadline",
          "type": "uint256"
        },
        {
          "internalType": "uint8",
          "name": "v",
          "type": "uint8"
        },
        {
          "internalType": "bytes32",
          "name": "r",
          "type": "bytes32"
        },
        {
          "internalType": "bytes32",
          "name": "s",
          "type": "bytes32"
        }
      ],
      "name": "permit",
      "outputs": [],
      "stateMutability": "payable",
      "type": "function"
    },
    {
      "inputs": [
        {
          "internalType": "address",
          "name": "asset",
          "type": "address"
        }
      ],
      "name": "registerAsset",
      "outputs": [],
      "stateMutability": "nonpayable",
      "type": "function"
    },
    {
      "inputs": [],
      "name": "renounceOwnership",
      "outputs": [],
      "stateMutability": "nonpayable",
      "type": "function"
    },
    {
      "inputs": [
        {
          "internalType": "address",
          "name": "from",
          "type": "address"
        },
        {
          "internalType": "address",
          "name": "to",
          "type": "address"
        },
        {
          "internalType": "uint256",
          "name": "tokenId",
          "type": "uint256"
        }
      ],
      "name": "safeTransferFrom",
      "outputs": [],
      "stateMutability": "nonpayable",
      "type": "function"
    },
    {
      "inputs": [
        {
          "internalType": "address",
          "name": "from",
          "type": "address"
        },
        {
          "internalType": "address",
          "name": "to",
          "type": "address"
        },
        {
          "internalType": "uint256",
          "name": "tokenId",
          "type": "uint256"
        },
        {
          "internalType": "bytes",
          "name": "data",
          "type": "bytes"
        }
      ],
      "name": "safeTransferFrom",
      "outputs": [],
      "stateMutability": "nonpayable",
      "type": "function"
    },
    {
      "inputs": [
        {
          "internalType": "address",
          "name": "operator",
          "type": "address"
        },
        {
          "internalType": "bool",
          "name": "approved",
          "type": "bool"
        }
      ],
      "name": "setApprovalForAll",
      "outputs": [],
      "stateMutability": "nonpayable",
      "type": "function"
    },
    {
      "inputs": [
        {
          "internalType": "uint256",
          "name": "positionId",
          "type": "uint256"
        }
      ],
      "name": "settlePosition",
      "outputs": [],
      "stateMutability": "nonpayable",
      "type": "function"
    },
    {
      "inputs": [
        {
          "internalType": "bytes4",
          "name": "interfaceId",
          "type": "bytes4"
        }
      ],
      "name": "supportsInterface",
      "outputs": [
        {
          "internalType": "bool",
          "name": "",
          "type": "bool"
        }
      ],
      "stateMutability": "view",
      "type": "function"
    },
    {
      "inputs": [],
      "name": "symbol",
      "outputs": [
        {
          "internalType": "string",
          "name": "",
          "type": "string"
        }
      ],
      "stateMutability": "view",
      "type": "function"
    },
    {
      "inputs": [
        {
          "internalType": "uint256",
          "name": "tokenId",
          "type": "uint256"
        }
      ],
      "name": "tokenURI",
      "outputs": [
        {
          "internalType": "string",
          "name": "",
          "type": "string"
        }
      ],
      "stateMutability": "view",
      "type": "function"
    },
    {
      "inputs": [
        {
          "internalType": "address",
          "name": "from",
          "type": "address"
        },
        {
          "internalType": "address",
          "name": "to",
          "type": "address"
        },
        {
          "internalType": "uint256",
          "name": "tokenId",
          "type": "uint256"
        }
      ],
      "name": "transferFrom",
      "outputs": [],
      "stateMutability": "nonpayable",
      "type": "function"
    },
    {
      "inputs": [
        {
          "internalType": "address",
          "name": "newOwner",
          "type": "address"
        }
      ],
      "name": "transferOwnership",
      "outputs": [],
      "stateMutability": "nonpayable",
      "type": "function"
    },
    {
      "inputs": [
        {
          "internalType": "address",
          "name": "token",
          "type": "address"
        },
        {
          "internalType": "address",
          "name": "to",
          "type": "address"
        },
        {
          "internalType": "uint256",
          "name": "amount",
          "type": "uint256"
        }
      ],
      "name": "withdrawToken",
      "outputs": [],
      "stateMutability": "nonpayable",
      "type": "function"
    }
  ],
  "transactionHash": "0x280967269564df33b15389c8342148748dad0196cf79080456f7c76b3b117339",
  "args": [
    "0x56F3907C71A0dcF4e354F9f5093Da0bE9AA050A4",
    "0xB9FF5F04BB7A9e83140DD315C66F5c56A4980CD7",
    "BOND_BASE_URI"
  ],
  "numDeployments": 1,
  "solcInputHash": "c4298eb6a2b23f63923e5d7505bf94bb",
  "bytecode": "0x6101a060405260016009553480156200001757600080fd5b5060405162004a9838038062004a988339810160408190526200003a91620002fb565b8282826040518060400160405280600d81526020016c2137b732102837b9b4ba34b7b760991b81525060405180604001604052806002815260200161042560f41b8152508181604051806040016040528060018152602001603160f81b815250828184848160009081620000af91906200046a565b506001620000be82826200046a565b50620000d091508390506006620001c7565b61012052620000e1816007620001c7565b61014052815160208084019190912060e052815190820120610100524660a0526200016f60e05161010051604080517f8b73c3c69bb8fe3d512ecc4cf759cc79239f7b179b0ffacaa9a75d522b39400f60208201529081019290925260608201524660808201523060a082015260009060c00160405160208183030381529060405280519060200120905090565b60805250503060c0525050506001600160a01b038581166101605284166101805260086200019e84826200046a565b505050505050620001be620001b86200020060201b60201c565b62000204565b50505062000590565b6000602083511015620001e757620001df8362000256565b9050620001fa565b81620001f484826200046a565b5060ff90505b92915050565b3390565b600c80546001600160a01b038381166001600160a01b0319831681179093556040519116919082907f8be0079c531659141344cd1fd0a4f28419497f9722a3daafe3b4186f6b6457e090600090a35050565b600080829050601f815111156200028d578260405163305a27a960e01b815260040162000284919062000536565b60405180910390fd5b80516200029a826200056b565b179392505050565b80516001600160a01b0381168114620002ba57600080fd5b919050565b634e487b7160e01b600052604160045260246000fd5b60005b83811015620002f2578181015183820152602001620002d8565b50506000910152565b6000806000606084860312156200031157600080fd5b6200031c84620002a2565b92506200032c60208501620002a2565b60408501519092506001600160401b03808211156200034a57600080fd5b818601915086601f8301126200035f57600080fd5b815181811115620003745762000374620002bf565b604051601f8201601f19908116603f011681019083821181831017156200039f576200039f620002bf565b81604052828152896020848701011115620003b957600080fd5b620003cc836020830160208801620002d5565b80955050505050509250925092565b600181811c90821680620003f057607f821691505b6020821081036200041157634e487b7160e01b600052602260045260246000fd5b50919050565b601f8211156200046557600081815260208120601f850160051c81016020861015620004405750805b601f850160051c820191505b8181101562000461578281556001016200044c565b5050505b505050565b81516001600160401b03811115620004865762000486620002bf565b6200049e81620004978454620003db565b8462000417565b602080601f831160018114620004d65760008415620004bd5750858301515b600019600386901b1c1916600185901b17855562000461565b600085815260208120601f198616915b828110156200050757888601518255948401946001909101908401620004e6565b5085821015620005265787850151600019600388901b60f8161c191681555b5050505050600190811b01905550565b602081526000825180602084015262000557816040850160208701620002d5565b601f01601f19169190910160400192915050565b80516020808301519190811015620004115760001960209190910360031b1b16919050565b60805160a05160c05160e051610100516101205161014051610160516101805161448262000616600039600081816104150152818161099c0152610e4f015260008181610d090152610f2b015260006116990152600061166e015260006124610152600061243901526000612394015260006123be015260006123e801526144826000f3fe6080604052600436106102855760003560e01c80636af6dbf411610153578063a22cb465116100cb578063e1869a431161007f578063eb02c30111610064578063eb02c3011461078e578063f2fde38b146108a1578063f8fcd156146108c157600080fd5b8063e1869a4314610716578063e985e9c51461074557600080fd5b8063b88d4fde116100b0578063b88d4fde146106b6578063c87b56dd146106d6578063d312998f146106f657600080fd5b8063a22cb46514610676578063aba5b4b31461069657600080fd5b80637ac2ff7b1161012257806384b0196e1161010757806384b0196e1461061b5780638da5cb5b1461064357806395d89b411461066157600080fd5b80637ac2ff7b146105e857806381548319146105fb57600080fd5b80636af6dbf4146105665780636c0360eb1461059e57806370a08231146105b3578063715018a6146105d357600080fd5b80632ec939f91161020157806342842e0e116101b557806361b8ce8c1161019a57806361b8ce8c146105105780636352211e146105265780636a6278421461054657600080fd5b806342842e0e146104d0578063430c114b146104f057600080fd5b8063332b2ee0116101e6578063332b2ee01461046b578063338b5dea1461049b5780633644e515146104bb57600080fd5b80632ec939f91461040357806330adf81f1461043757600080fd5b8063095ea7b311610258578063141a468c1161023d578063141a468c1461037b57806323b872dd146103c7578063295fac8d146103e757600080fd5b8063095ea7b31461033b5780630f0b07651461035b57600080fd5b806301e336671461028a57806301ffc9a7146102ac57806306fdde03146102e1578063081812fc14610303575b600080fd5b34801561029657600080fd5b506102aa6102a53660046139ff565b6108f8565b005b3480156102b857600080fd5b506102cc6102c7366004613a51565b6109fe565b60405190151581526020015b60405180910390f35b3480156102ed57600080fd5b506102f6610a42565b6040516102d89190613abe565b34801561030f57600080fd5b5061032361031e366004613ad1565b610ad4565b6040516001600160a01b0390911681526020016102d8565b34801561034757600080fd5b506102aa610356366004613aea565b610afb565b34801561036757600080fd5b506102aa610376366004613b9b565b610c2c565b34801561038757600080fd5b506103b9610396366004613ad1565b6000908152600e6020526040902054600160a01b900467ffffffffffffffff1690565b6040519081526020016102d8565b3480156103d357600080fd5b506102aa6103e23660046139ff565b610d80565b3480156103f357600080fd5b50604051609d81526020016102d8565b34801561040f57600080fd5b506103237f000000000000000000000000000000000000000000000000000000000000000081565b34801561044357600080fd5b506103b97f49ecf333e5b8c95c40fdafc95c1ad136e8914a8fb55e9dc8bb01eaa83a2df9ad81565b34801561047757600080fd5b506102cc610486366004613c1f565b600d6020526000908152604090205460ff1681565b3480156104a757600080fd5b506102aa6104b6366004613aea565b610df7565b3480156104c757600080fd5b506103b9610e8f565b3480156104dc57600080fd5b506102aa6104eb3660046139ff565b610e9e565b3480156104fc57600080fd5b506102aa61050b366004613c3a565b610eb9565b34801561051c57600080fd5b506103b960095481565b34801561053257600080fd5b50610323610541366004613ad1565b610fe5565b34801561055257600080fd5b506103b9610561366004613c1f565b61104a565b34801561057257600080fd5b506103b9610581366004613aea565b600b60209081526000928352604080842090915290825290205481565b3480156105aa57600080fd5b506102f6611123565b3480156105bf57600080fd5b506103b96105ce366004613c1f565b6111b1565b3480156105df57600080fd5b506102aa61124b565b6102aa6105f6366004613c8b565b61125f565b34801561060757600080fd5b506102f6610616366004613ce5565b6114e3565b34801561062757600080fd5b50610630611660565b6040516102d89796959493929190613d1b565b34801561064f57600080fd5b50600c546001600160a01b0316610323565b34801561066d57600080fd5b506102f6611705565b34801561068257600080fd5b506102aa610691366004613ddb565b611714565b3480156106a257600080fd5b506102aa6106b1366004613ad1565b611723565b3480156106c257600080fd5b506102aa6106d1366004613eaa565b611899565b3480156106e257600080fd5b506102f66106f1366004613ad1565b611911565b34801561070257600080fd5b506102aa610711366004613c1f565b611978565b34801561072257600080fd5b50610736610731366004613f55565b61198c565b6040516102d893929190613fea565b34801561075157600080fd5b506102cc610760366004614020565b6001600160a01b03918216600090815260056020908152604080832093909416825291909152205460ff1690565b34801561079a57600080fd5b506108476107a9366004613ad1565b6040805160a081018252600080825260208201819052918101829052606081018290526080810191909152506000908152600e6020908152604091829020825160a08101845281546001600160a01b038116825267ffffffffffffffff600160a01b8204169382019390935260ff600160e01b8404811694820194909452600160e81b90920490921615156060820152600190910154608082015290565b6040516102d89190600060a0820190506001600160a01b03835116825267ffffffffffffffff602084015116602083015260ff60408401511660408301526060830151151560608301526080830151608083015292915050565b3480156108ad57600080fd5b506102aa6108bc366004613c1f565b611d1c565b3480156108cd57600080fd5b50600a54604080516001600160801b038084168252600160801b9093049092166020830152016102d8565b6000610904600a611da9565b9050336001600160a01b0382161461093f576040516313d2c13360e21b81526001600160a01b03821660048201526024015b60405180910390fd5b610954846001600160a01b0316836000611df6565b506040517f69328dec0000000000000000000000000000000000000000000000000000000081526001600160a01b0385811660048301526024820184905284811660448301527f000000000000000000000000000000000000000000000000000000000000000016906369328dec90606401600060405180830381600087803b1580156109e057600080fd5b505af11580156109f4573d6000803e3d6000fd5b5050505050505050565b60006001600160e01b031982167f6831a4fd000000000000000000000000000000000000000000000000000000001480610a3c5750610a3c82611f05565b92915050565b606060008054610a5190614053565b80601f0160208091040260200160405190810160405280929190818152602001828054610a7d90614053565b8015610aca5780601f10610a9f57610100808354040283529160200191610aca565b820191906000526020600020905b815481529060010190602001808311610aad57829003601f168201915b5050505050905090565b6000610adf82611fa0565b506000908152600460205260409020546001600160a01b031690565b6000610b0682610fe5565b9050806001600160a01b0316836001600160a01b031603610b8f5760405162461bcd60e51b815260206004820152602160248201527f4552433732313a20617070726f76616c20746f2063757272656e74206f776e6560448201527f72000000000000000000000000000000000000000000000000000000000000006064820152608401610936565b336001600160a01b0382161480610bab5750610bab8133610760565b610c1d5760405162461bcd60e51b815260206004820152603d60248201527f4552433732313a20617070726f76652063616c6c6572206973206e6f7420746f60448201527f6b656e206f776e6572206f7220617070726f76656420666f7220616c6c0000006064820152608401610936565b610c278383612004565b505050565b6000610c38600a611da9565b9050336001600160a01b03821614610c6e576040516313d2c13360e21b81526001600160a01b0382166004820152602401610936565b60005b85811015610cd857610ccf610cac888884818110610c9157610c91614087565b905060600201803603810190610ca7919061409d565b612072565b888884818110610cbe57610cbe614087565b905060600201604001356000611df6565b50600101610c71565b506040517f3ee44b0f0000000000000000000000000000000000000000000000000000000081526001600160a01b037f00000000000000000000000000000000000000000000000000000000000000001690633ee44b0f90610d469087908a908a908990899060040161418b565b600060405180830381600087803b158015610d6057600080fd5b505af1158015610d74573d6000803e3d6000fd5b50505050505050505050565b610d8a3382612087565b610dec5760405162461bcd60e51b815260206004820152602d60248201527f4552433732313a2063616c6c6572206973206e6f7420746f6b656e206f776e6560448201526c1c881bdc88185c1c1c9bdd9959609a1b6064820152608401610936565b610c27838383612106565b6000610e03600a611da9565b9050336001600160a01b03821614610e39576040516313d2c13360e21b81526001600160a01b0382166004820152602401610936565b8115610c2757610e746001600160a01b038416337f0000000000000000000000000000000000000000000000000000000000000000856122ff565b610e89836001600160a01b0316600084611df6565b50505050565b6000610e99612387565b905090565b610c2783838360405180602001604052806000815250611899565b6000610ec5600a611da9565b9050336001600160a01b03821614610efb576040516313d2c13360e21b81526001600160a01b0382166004820152602401610936565b6040517fca6ce7ea0000000000000000000000000000000000000000000000000000000081526001600160a01b037f0000000000000000000000000000000000000000000000000000000000000000169063ca6ce7ea90610f64903390879087906004016141c1565b600060405180830381600087803b158015610f7e57600080fd5b505af1158015610f92573d6000803e3d6000fd5b5050505060005b82811015610e8957610fdc610fb9858584818110610c9157610c91614087565b6000868685818110610fcd57610fcd614087565b90506060020160400135611df6565b50600101610f99565b6000818152600260205260408120546001600160a01b031680610a3c5760405162461bcd60e51b815260206004820152601860248201527f4552433732313a20696e76616c696420746f6b656e20494400000000000000006044820152606401610936565b600080611057600a611da9565b9050336001600160a01b0382161461108d576040516313d2c13360e21b81526001600160a01b0382166004820152602401610936565b6001600160a01b0383166000908152600d602052604090205460ff166110df576040517fcea93bf200000000000000000000000000000000000000000000000000000000815260040160405180910390fd5b60098054600181019091556000818152600e6020526040902080546001600160a01b0319166001600160a01b038616179055915061111d33836124b2565b50919050565b6008805461113090614053565b80601f016020809104026020016040519081016040528092919081815260200182805461115c90614053565b80156111a95780601f1061117e576101008083540402835291602001916111a9565b820191906000526020600020905b81548152906001019060200180831161118c57829003601f168201915b505050505081565b60006001600160a01b03821661122f5760405162461bcd60e51b815260206004820152602960248201527f4552433732313a2061646472657373207a65726f206973206e6f74206120766160448201527f6c6964206f776e657200000000000000000000000000000000000000000000006064820152608401610936565b506001600160a01b031660009081526003602052604090205490565b6112536124fc565b61125d6000612556565b565b83421115611299576040517f1a15a3cc00000000000000000000000000000000000000000000000000000000815260040160405180910390fd5b60007f49ecf333e5b8c95c40fdafc95c1ad136e8914a8fb55e9dc8bb01eaa83a2df9ad87876112c7816125a8565b6040805160208101959095526001600160a01b03909316928401929092526060830152608082015260a0810186905260c001604051602081830303815290604052805190602001209050600061131c826125cf565b9050600061132988610fe5565b9050806001600160a01b0316896001600160a01b03160361135d57604051638baa579f60e01b815260040160405180910390fd5b6001600160a01b0381163b1561148a57604080516020810187905280820186905260f888901b7fff000000000000000000000000000000000000000000000000000000000000001660608201528151604181830301815260618201928390527f1626ba7e000000000000000000000000000000000000000000000000000000009092526001600160a01b03831691631626ba7e916113ff9186916065016141ed565b602060405180830381865afa15801561141c573d6000803e3d6000fd5b505050506040513d601f19601f820116820180604052508101906114409190614206565b7bffffffffffffffffffffffffffffffffffffffffffffffffffffffff1916631626ba7e60e01b1461148557604051638baa579f60e01b815260040160405180910390fd5b6114ce565b600061149883888888612617565b9050816001600160a01b0316816001600160a01b0316146114cc57604051638baa579f60e01b815260040160405180910390fd5b505b6114d88989612004565b505050505050505050565b606061153f600a3381546001600160801b039081167f760a9a962ae3d184e99c0483cf5684fb3170f47116ca4f445c50209da4f4f90681019290925582546fffffffffffffffffffffffffffffffff1916600190920116179055565b6040517f46a114e200000000000000000000000000000000000000000000000000000000815233906346a114e29061157d9086908690600401614223565b6000604051808303816000875af115801561159c573d6000803e3d6000fd5b505050506040513d6000823e601f3d908101601f191682016040526115c49190810190614237565b600a549091506001600160801b031660010361162e57600a54600160801b90046001600160801b031615611624576040517fba329a9b00000000000000000000000000000000000000000000000000000000815260040160405180910390fd5b6000600a55610a3c565b600a80546fffffffffffffffffffffffffffffffff1981166001600160801b0391821660001901909116179055610a3c565b6000606080828080836116947f0000000000000000000000000000000000000000000000000000000000000000600661263f565b6116bf7f0000000000000000000000000000000000000000000000000000000000000000600761263f565b604080516000808252602082019092527f0f000000000000000000000000000000000000000000000000000000000000009b939a50919850469750309650945092509050565b606060018054610a5190614053565b61171f3383836126ea565b5050565b600061172f600a611da9565b9050336001600160a01b03821614611765576040516313d2c13360e21b81526001600160a01b0382166004820152602401610936565b61176e826127b8565b6000828152600e6020908152604091829020825160a08101845281546001600160a01b038116825267ffffffffffffffff600160a01b8204169382019390935260ff600160e01b84048116948201859052600160e81b9093049092161515606083015260010154608082015290609d10156117fc5760405163d5b25b6360e01b815260040160405180910390fd5b80608001516000036118165761181183612822565b61184f565b61183181604001516118266128b7565b60ff90811691161090565b1561184f5760405163d5b25b6360e01b815260040160405180910390fd5b6080810151604080830151815192835260ff16602083015284917f8d513692422f2d88b6837b353fa00c5793f21d3650db6a7f3465923ea3cf485c910160405180910390a2505050565b6118a33383612087565b6119055760405162461bcd60e51b815260206004820152602d60248201527f4552433732313a2063616c6c6572206973206e6f7420746f6b656e206f776e6560448201526c1c881bdc88185c1c1c9bdd9959609a1b6064820152608401610936565b610e89848484846128c2565b606061191c82611fa0565b600061192661294b565b905060008151116119465760405180602001604052806000815250611971565b806119508461295a565b6040516020016119619291906142a5565b6040516020818303038152906040525b9392505050565b6119806124fc565b611989816129fa565b50565b60608060008061199c600a611da9565b9050336001600160a01b038216146119d2576040516313d2c13360e21b81526001600160a01b0382166004820152602401610936565b866119dd3389612087565b611a13576040517fc0185c6400000000000000000000000000000000000000000000000000000000815260040160405180910390fd5b6000611a1d612a46565b9050871580611a2d575060ff8716155b15611a3a57600097508096505b60ff8082169088161080611a51575060ff8716609d105b15611a6f5760405163d5b25b6360e01b815260040160405180910390fd5b6000898152600e60208181526040808420815160a08101835281546001600160a01b038116825267ffffffffffffffff600160a01b8204168286015260ff600160e01b82048116948301948552600160e81b909104811615156060830152600190920180546080830152958f905293909252928b9055915190911615158015611b025750604081015160ff808416911611155b15611b44578815611b3f576040517fa0d64f8a00000000000000000000000000000000000000000000000000000000815260040160405180910390fd5b611c25565b60008a8152600e602052604080822080547fffffff00ffffffffffffffffffffffffffffffffffffffffffffffffffffffff16600160e01b60ff8d1602179055820151611b969160ff90811691161490565b15611ba55760ff821660408201525b60008a8152600e6020908152604091829020825160a08101845281546001600160a01b038116825267ffffffffffffffff600160a01b8204169382019390935260ff600160e01b8404811694820194909452600160e81b909204909216151560608201526001909101546080820152611c1f908290612a5e565b90975095505b60005b8751811015611c8c57611c7b611c56898381518110611c4957611c49614087565b6020026020010151612072565b60008a8481518110611c6a57611c6a614087565b602002602001015160200151611df6565b50611c85816142ea565b9050611c28565b5060005b8651811015611ce757611cd6611cb1888381518110611c4957611c49614087565b888381518110611cc357611cc3614087565b6020026020010151602001516000611df6565b50611ce0816142ea565b9050611c90565b50611d0481600001516001600160a01b03168a8360800151611df6565b94505050611d1181612e77565b505093509350939050565b611d246124fc565b6001600160a01b038116611da05760405162461bcd60e51b815260206004820152602660248201527f4f776e61626c653a206e6577206f776e657220697320746865207a65726f206160448201527f64647265737300000000000000000000000000000000000000000000000000006064820152608401610936565b61198981612556565b8054600090610a3c90611dc7906001906001600160801b0316614303565b6001600160801b03167f760a9a962ae3d184e99c0483cf5684fb3170f47116ca4f445c50209da4f4f906015490565b6000818303611e0757506000611971565b6000611e13600a611da9565b6001600160a01b0381166000908152600b6020908152604080832089845290915290205490915083851115611e5457611e4d848603612ed6565b9250611e65565b611e5f858503612ed6565b60000392505b6000611e71848361432a565b905080600003611ea757600a80546000196001600160801b03600160801b80840482169290920181169091029116179055611ed6565b81600003611ed657600a805460016001600160801b03600160801b808404821692909201811690910291161790555b6001600160a01b03929092166000908152600b6020908152604080832098835297905295909520559392505050565b60006001600160e01b031982167f80ac58cd000000000000000000000000000000000000000000000000000000001480611f6857506001600160e01b031982167f5b5e139f00000000000000000000000000000000000000000000000000000000145b80610a3c57507f01ffc9a7000000000000000000000000000000000000000000000000000000006001600160e01b0319831614610a3c565b6000818152600260205260409020546001600160a01b03166119895760405162461bcd60e51b815260206004820152601860248201527f4552433732313a20696e76616c696420746f6b656e20494400000000000000006044820152606401610936565b600081815260046020526040902080546001600160a01b0319166001600160a01b038416908117909155819061203982610fe5565b6001600160a01b03167f8c5be1e5ebec7d5bd14f71427d1e84f3dd0314c0f7b2291e5b200ac8c7c3b92560405160405180910390a45050565b80516020810151905160009160a01b01610a3c565b60008061209383610fe5565b9050806001600160a01b0316846001600160a01b031614806120da57506001600160a01b0380821660009081526005602090815260408083209388168352929052205460ff165b806120fe5750836001600160a01b03166120f384610ad4565b6001600160a01b0316145b949350505050565b826001600160a01b031661211982610fe5565b6001600160a01b03161461217d5760405162461bcd60e51b815260206004820152602560248201527f4552433732313a207472616e736665722066726f6d20696e636f72726563742060448201526437bbb732b960d91b6064820152608401610936565b6001600160a01b0382166121f85760405162461bcd60e51b8152602060048201526024808201527f4552433732313a207472616e7366657220746f20746865207a65726f2061646460448201527f72657373000000000000000000000000000000000000000000000000000000006064820152608401610936565b826001600160a01b031661220b82610fe5565b6001600160a01b03161461226f5760405162461bcd60e51b815260206004820152602560248201527f4552433732313a207472616e736665722066726f6d20696e636f72726563742060448201526437bbb732b960d91b6064820152608401610936565b600081815260046020908152604080832080546001600160a01b03199081169091556001600160a01b0387811680865260038552838620805460001901905590871680865283862080546001019055868652600290945282852080549092168417909155905184937fddf252ad1be2c89b69c2b068fc378daa952ba7f163c4a11628f55a4df523b3ef91a4505050565b604080516001600160a01b0385811660248301528416604482015260648082018490528251808303909101815260849091019091526020810180517bffffffffffffffffffffffffffffffffffffffffffffffffffffffff167f23b872dd00000000000000000000000000000000000000000000000000000000179052610e89908590612f72565b6000306001600160a01b037f0000000000000000000000000000000000000000000000000000000000000000161480156123e057507f000000000000000000000000000000000000000000000000000000000000000046145b1561240a57507f000000000000000000000000000000000000000000000000000000000000000090565b610e99604080517f8b73c3c69bb8fe3d512ecc4cf759cc79239f7b179b0ffacaa9a75d522b39400f60208201527f0000000000000000000000000000000000000000000000000000000000000000918101919091527f000000000000000000000000000000000000000000000000000000000000000060608201524660808201523060a082015260009060c00160405160208183030381529060405280519060200120905090565b6124bc828261305a565b6000908152600e60205260409020805460ff60e81b1916905550600a8054600160801b8082046001600160801b0390811660010181169091029116179055565b600c546001600160a01b0316331461125d5760405162461bcd60e51b815260206004820181905260248201527f4f776e61626c653a2063616c6c6572206973206e6f7420746865206f776e65726044820152606401610936565b600c80546001600160a01b038381166001600160a01b0319831681179093556040519116919082907f8be0079c531659141344cd1fd0a4f28419497f9722a3daafe3b4186f6b6457e090600090a35050565b6000818152600e602052604081206125bf906131e5565b67ffffffffffffffff1692915050565b6000610a3c6125dc612387565b836040517f19010000000000000000000000000000000000000000000000000000000000008152600281019290925260228201526042902090565b600080600061262887878787613234565b91509150612635816132f8565b5095945050505050565b606060ff8314612659576126528361345d565b9050610a3c565b81805461266590614053565b80601f016020809104026020016040519081016040528092919081815260200182805461269190614053565b80156126de5780601f106126b3576101008083540402835291602001916126de565b820191906000526020600020905b8154815290600101906020018083116126c157829003601f168201915b50505050509050610a3c565b816001600160a01b0316836001600160a01b03160361274b5760405162461bcd60e51b815260206004820152601960248201527f4552433732313a20617070726f766520746f2063616c6c6572000000000000006044820152606401610936565b6001600160a01b03838116600081815260056020908152604080832094871680845294825291829020805460ff191686151590811790915591519182527f17307eab39ab6107e8899845ad3d59bd9653f200f220920489ca2b5937696c31910160405180910390a3505050565b6000818152600e6020526040902054600160e81b900460ff16156127d95750565b6000818152600e60205260409020805460ff60e81b1916600160e81b17905550600a80546000196001600160801b03600160801b80840482169290920181169091029116179055565b600061282d82610fe5565b905061283882610fe5565b600083815260046020908152604080832080546001600160a01b03199081169091556001600160a01b0385168085526003845282852080546000190190558785526002909352818420805490911690555192935084927fddf252ad1be2c89b69c2b068fc378daa952ba7f163c4a11628f55a4df523b3ef908390a45050565b6000610e994261349c565b6128cd848484612106565b6128d98484848461358a565b610e895760405162461bcd60e51b815260206004820152603260248201527f4552433732313a207472616e7366657220746f206e6f6e20455243373231526560448201527f63656976657220696d706c656d656e74657200000000000000000000000000006064820152608401610936565b606060088054610a5190614053565b60606000612967836136de565b600101905060008167ffffffffffffffff81111561298757612987613e12565b6040519080825280601f01601f1916602001820160405280156129b1576020820181803683370190505b5090508181016020015b600019017f3031323334353637383961626364656600000000000000000000000000000000600a86061a8153600a85049450846129bb57509392505050565b6001600160a01b0381166000818152600d6020526040808220805460ff19166001179055517f0700b0f4c19e631ed321192cfc0b71a83caa514675497afc74fe817d5f839dd59190a250565b6000610e996001612a556128b7565b60ff16906137c0565b60608082600001516001600160a01b031684600001516001600160a01b0316148015612aa55750826020015167ffffffffffffffff16846020015167ffffffffffffffff16145b612adb576040517f84991e9500000000000000000000000000000000000000000000000000000000815260040160405180910390fd5b6000612ae5612a46565b9050612afb81856040015160ff90811691161190565b80612b105750604085015160ff908116908216115b15612b47576040517f47a5b25b00000000000000000000000000000000000000000000000000000000815260040160405180910390fd5b6040840151600090612b5c9060ff16836137c0565b60ff1690506000612b7d83886040015160ff166137c090919063ffffffff16565b60ff1690506000612b8e83836137cc565b9050876080015187608001511115612baa578082039150612bcf565b876080015187608001511015612bc4578083039250612bcf565b808303925080820391505b5060008267ffffffffffffffff811115612beb57612beb613e12565b604051908082528060200260200182016040528015612c3f57816020015b6040805160808101825260009181018281526060820183905281526020810191909152815260200190600190039081612c095790505b50905060008267ffffffffffffffff811115612c5d57612c5d613e12565b604051908082528060200260200182016040528015612cb157816020015b6040805160808101825260009181018281526060820183905281526020810191909152815260200190600190039081612c7b5790505b50905060009350600092506000612ce086612a558c604001518c6040015160ff166137e290919063ffffffff16565b60ff1690508560005b82811015612e6357612cff60ff831660016137f7565b91506000612d178c604001518460ff90811691161090565b612d25578b60800151612d28565b60005b90506000612d408e604001518560ff90811691161090565b612d4e578d60800151612d51565b60005b905080821115612dd8578d51604080516080808201835260008284018181526060808501839052908452602093840191909152835191820184526001600160a01b0390941692810192835260ff88169381019390935290825282840390820152875160018b019a89918110612dc857612dc8614087565b6020026020010181905250612e59565b80821015612e59578d51604080516080808201835260008284018181526060808501839052908452602093840191909152835191820184526001600160a01b0390941692810192835260ff88169381019390935290825283830390820152865160018a019988918110612e4d57612e4d614087565b60200260200101819052505b5050600101612ce9565b5092975090955050505050505b9250929050565b6000818152600e6020526040902054600160e81b900460ff16612e975750565b6000908152600e60205260409020805460ff60e81b19169055600a8054600160801b8082046001600160801b0390811660010181169091029116179055565b60007f7fffffffffffffffffffffffffffffffffffffffffffffffffffffffffffffff821115612f6e5760405162461bcd60e51b815260206004820152602860248201527f53616665436173743a2076616c756520646f65736e27742066697420696e206160448201527f6e20696e743235360000000000000000000000000000000000000000000000006064820152608401610936565b5090565b6000612fc7826040518060400160405280602081526020017f5361666545524332303a206c6f772d6c6576656c2063616c6c206661696c6564815250856001600160a01b03166138039092919063ffffffff16565b9050805160001480612fe8575080806020019051810190612fe89190614368565b610c275760405162461bcd60e51b815260206004820152602a60248201527f5361666545524332303a204552433230206f7065726174696f6e20646964206e60448201527f6f742073756363656564000000000000000000000000000000000000000000006064820152608401610936565b6001600160a01b0382166130b05760405162461bcd60e51b815260206004820181905260248201527f4552433732313a206d696e7420746f20746865207a65726f20616464726573736044820152606401610936565b6000818152600260205260409020546001600160a01b0316156131155760405162461bcd60e51b815260206004820152601c60248201527f4552433732313a20746f6b656e20616c7265616479206d696e746564000000006044820152606401610936565b6000818152600260205260409020546001600160a01b03161561317a5760405162461bcd60e51b815260206004820152601c60248201527f4552433732313a20746f6b656e20616c7265616479206d696e746564000000006044820152606401610936565b6001600160a01b038216600081815260036020908152604080832080546001019055848352600290915280822080546001600160a01b0319168417905551839291907fddf252ad1be2c89b69c2b068fc378daa952ba7f163c4a11628f55a4df523b3ef908290a45050565b8054600090600160a01b900467ffffffffffffffff1682601461320783614385565b91906101000a81548167ffffffffffffffff021916908367ffffffffffffffff1602179055509050919050565b6000807f7fffffffffffffffffffffffffffffff5d576e7357a4501ddfe92f46681b20a083111561326b57506000905060036132ef565b6040805160008082526020820180845289905260ff881692820192909252606081018690526080810185905260019060a0016020604051602081039080840390855afa1580156132bf573d6000803e3d6000fd5b5050604051601f1901519150506001600160a01b0381166132e8576000600192509250506132ef565b9150600090505b94509492505050565b600081600481111561330c5761330c6143ac565b036133145750565b6001816004811115613328576133286143ac565b036133755760405162461bcd60e51b815260206004820152601860248201527f45434453413a20696e76616c6964207369676e617475726500000000000000006044820152606401610936565b6002816004811115613389576133896143ac565b036133d65760405162461bcd60e51b815260206004820152601f60248201527f45434453413a20696e76616c6964207369676e6174757265206c656e677468006044820152606401610936565b60038160048111156133ea576133ea6143ac565b036119895760405162461bcd60e51b815260206004820152602260248201527f45434453413a20696e76616c6964207369676e6174757265202773272076616c60448201527f75650000000000000000000000000000000000000000000000000000000000006064820152608401610936565b6060600061346a83613812565b604080516020808252818301909252919250600091906020820181803683375050509182525060208101929092525090565b600080620151808304905080622649658101600062023ab1600483020590506004600362023ab18302010590910390600062164b09610fa0600185010205905060046105b58202058303601f019250600061098f846050028161350157613501614352565b059050600b8105935083600c028160020103905083826031850360640201019150600060066001836107b28603600c0201038161354057613540614352565b04905060ff81111561357e576040517f73cde75100000000000000000000000000000000000000000000000000000000815260040160405180910390fd5b98975050505050505050565b60006001600160a01b0384163b156136d657604051630a85bd0160e11b81526001600160a01b0385169063150b7a02906135ce9033908990889088906004016143c2565b6020604051808303816000875af1925050508015613609575060408051601f3d908101601f1916820190925261360691810190614206565b60015b6136bc573d808015613637576040519150601f19603f3d011682016040523d82523d6000602084013e61363c565b606091505b5080516000036136b45760405162461bcd60e51b815260206004820152603260248201527f4552433732313a207472616e7366657220746f206e6f6e20455243373231526560448201527f63656976657220696d706c656d656e74657200000000000000000000000000006064820152608401610936565b805181602001fd5b6001600160e01b031916630a85bd0160e11b1490506120fe565b5060016120fe565b6000807a184f03e93ff9f4daa797ed6e38ed64bf6a1f0100000000000000008310613727577a184f03e93ff9f4daa797ed6e38ed64bf6a1f010000000000000000830492506040015b6d04ee2d6d415b85acef81000000008310613753576d04ee2d6d415b85acef8100000000830492506020015b662386f26fc10000831061377157662386f26fc10000830492506010015b6305f5e1008310613789576305f5e100830492506008015b612710831061379d57612710830492506004015b606483106137af576064830492506002015b600a8310610a3c5760010192915050565b600061197182846143fe565b60008183106137db5781611971565b5090919050565b600060ff808316908416116137db5781611971565b60006119718284614417565b60606120fe8484600085613853565b600060ff8216601f811115610a3c576040517fb3512b0c00000000000000000000000000000000000000000000000000000000815260040160405180910390fd5b6060824710156138cb5760405162461bcd60e51b815260206004820152602660248201527f416464726573733a20696e73756666696369656e742062616c616e636520666f60448201527f722063616c6c00000000000000000000000000000000000000000000000000006064820152608401610936565b600080866001600160a01b031685876040516138e79190614430565b60006040518083038185875af1925050503d8060008114613924576040519150601f19603f3d011682016040523d82523d6000602084013e613929565b606091505b509150915061393a87838387613945565b979650505050505050565b606083156139b45782516000036139ad576001600160a01b0385163b6139ad5760405162461bcd60e51b815260206004820152601d60248201527f416464726573733a2063616c6c20746f206e6f6e2d636f6e74726163740000006044820152606401610936565b50816120fe565b6120fe83838151156139c95781518083602001fd5b8060405162461bcd60e51b81526004016109369190613abe565b80356001600160a01b03811681146139fa57600080fd5b919050565b600080600060608486031215613a1457600080fd5b613a1d846139e3565b9250613a2b602085016139e3565b9150604084013590509250925092565b6001600160e01b03198116811461198957600080fd5b600060208284031215613a6357600080fd5b813561197181613a3b565b60005b83811015613a89578181015183820152602001613a71565b50506000910152565b60008151808452613aaa816020860160208601613a6e565b601f01601f19169290920160200192915050565b6020815260006119716020830184613a92565b600060208284031215613ae357600080fd5b5035919050565b60008060408385031215613afd57600080fd5b613b06836139e3565b946020939093013593505050565b60008083601f840112613b2657600080fd5b50813567ffffffffffffffff811115613b3e57600080fd5b602083019150836020606083028501011115612e7057600080fd5b60008083601f840112613b6b57600080fd5b50813567ffffffffffffffff811115613b8357600080fd5b602083019150836020828501011115612e7057600080fd5b600080600080600060608688031215613bb357600080fd5b853567ffffffffffffffff80821115613bcb57600080fd5b613bd789838a01613b14565b9097509550859150613beb602089016139e3565b94506040880135915080821115613c0157600080fd5b50613c0e88828901613b59565b969995985093965092949392505050565b600060208284031215613c3157600080fd5b611971826139e3565b60008060208385031215613c4d57600080fd5b823567ffffffffffffffff811115613c6457600080fd5b613c7085828601613b14565b90969095509350505050565b60ff8116811461198957600080fd5b60008060008060008060c08789031215613ca457600080fd5b613cad876139e3565b955060208701359450604087013593506060870135613ccb81613c7c565b9598949750929560808101359460a0909101359350915050565b60008060208385031215613cf857600080fd5b823567ffffffffffffffff811115613d0f57600080fd5b613c7085828601613b59565b7fff00000000000000000000000000000000000000000000000000000000000000881681526000602060e081840152613d5760e084018a613a92565b8381036040850152613d69818a613a92565b606085018990526001600160a01b038816608086015260a0850187905284810360c0860152855180825283870192509083019060005b81811015613dbb57835183529284019291840191600101613d9f565b50909c9b505050505050505050505050565b801515811461198957600080fd5b60008060408385031215613dee57600080fd5b613df7836139e3565b91506020830135613e0781613dcd565b809150509250929050565b634e487b7160e01b600052604160045260246000fd5b6040805190810167ffffffffffffffff81118282101715613e4b57613e4b613e12565b60405290565b604051601f8201601f1916810167ffffffffffffffff81118282101715613e7a57613e7a613e12565b604052919050565b600067ffffffffffffffff821115613e9c57613e9c613e12565b50601f01601f191660200190565b60008060008060808587031215613ec057600080fd5b613ec9856139e3565b9350613ed7602086016139e3565b925060408501359150606085013567ffffffffffffffff811115613efa57600080fd5b8501601f81018713613f0b57600080fd5b8035613f1e613f1982613e82565b613e51565b818152886020838501011115613f3357600080fd5b8160208401602083013760006020838301015280935050505092959194509250565b600080600060608486031215613f6a57600080fd5b83359250602084013591506040840135613f8381613c7c565b809150509250925092565b600081518084526020808501945080840160005b83811015613fdf578151805180516001600160a01b0316895284015160ff1684890152830151604088015260609096019590820190600101613fa2565b509495945050505050565b606081526000613ffd6060830186613f8e565b828103602084015261400f8186613f8e565b915050826040830152949350505050565b6000806040838503121561403357600080fd5b61403c836139e3565b915061404a602084016139e3565b90509250929050565b600181811c9082168061406757607f821691505b60208210810361111d57634e487b7160e01b600052602260045260246000fd5b634e487b7160e01b600052603260045260246000fd5b600081830360608112156140b057600080fd5b6140b8613e28565b60408212156140c657600080fd5b6140ce613e28565b91506140d9846139e3565b825260208401356140e981613c7c565b602083810191909152918152604093909301359083015250919050565b8183526000602080850194508260005b85811015613fdf576001600160a01b0361412f836139e3565b1687528282013561413f81613c7c565b60ff16878401526040828101359088015260609687019690910190600101614116565b81835281816020850137506000828201602090810191909152601f909101601f19169091010190565b6001600160a01b03861681526060602082015260006141ae606083018688614106565b828103604084015261357e818587614162565b6001600160a01b03841681526040602082015260006141e4604083018486614106565b95945050505050565b8281526040602082015260006120fe6040830184613a92565b60006020828403121561421857600080fd5b815161197181613a3b565b6020815260006120fe602083018486614162565b60006020828403121561424957600080fd5b815167ffffffffffffffff81111561426057600080fd5b8201601f8101841361427157600080fd5b805161427f613f1982613e82565b81815285602083850101111561429457600080fd5b6141e4826020830160208601613a6e565b600083516142b7818460208801613a6e565b8351908301906142cb818360208801613a6e565b01949350505050565b634e487b7160e01b600052601160045260246000fd5b6000600182016142fc576142fc6142d4565b5060010190565b6001600160801b03828116828216039080821115614323576143236142d4565b5092915050565b808201828112600083128015821682158216171561434a5761434a6142d4565b505092915050565b634e487b7160e01b600052601260045260246000fd5b60006020828403121561437a57600080fd5b815161197181613dcd565b600067ffffffffffffffff8083168181036143a2576143a26142d4565b6001019392505050565b634e487b7160e01b600052602160045260246000fd5b60006001600160a01b038087168352808616602084015250836040830152608060608301526143f46080830184613a92565b9695505050505050565b60ff8281168282160390811115610a3c57610a3c6142d4565b60ff8181168382160190811115610a3c57610a3c6142d4565b60008251614442818460208701613a6e565b919091019291505056fea2646970667358221220ba16ef7ea12b102d19c6a22a6a55d9cdea9c53f85f1ec45b1727aa85d681cb4d64736f6c63430008130033",
  "devdoc": {
    "events": {
      "Approval(address,address,uint256)": {
        "details": "Emitted when `owner` enables `approved` to manage the `tokenId` token."
      },
      "ApprovalForAll(address,address,bool)": {
        "details": "Emitted when `owner` enables or disables (`approved`) `operator` to manage all of its assets."
      },
      "EIP712DomainChanged()": {
        "details": "MAY be emitted to signal that the domain could have changed."
      },
      "Transfer(address,address,uint256)": {
        "details": "Emitted when `tokenId` token is transferred from `from` to `to`."
      }
    },
    "kind": "dev",
    "methods": {
      "approve(address,uint256)": {
        "details": "See {IERC721-approve}."
      },
      "balanceOf(address)": {
        "details": "See {IERC721-balanceOf}."
      },
      "eip712Domain()": {
        "details": "See {EIP-5267}. _Available since v4.9._"
      },
      "getApproved(uint256)": {
        "details": "See {IERC721-getApproved}."
      },
      "isApprovedForAll(address,address)": {
        "details": "See {IERC721-isApprovedForAll}."
      },
      "name()": {
        "details": "See {IERC721Metadata-name}."
      },
      "owner()": {
        "details": "Returns the address of the current owner."
      },
      "ownerOf(uint256)": {
        "details": "See {IERC721-ownerOf}."
      },
      "renounceOwnership()": {
        "details": "Leaves the contract without owner. It will not be possible to call `onlyOwner` functions. Can only be called by the current owner. NOTE: Renouncing ownership will leave the contract without an owner, thereby disabling any functionality that is only available to the owner."
      },
      "safeTransferFrom(address,address,uint256)": {
        "details": "See {IERC721-safeTransferFrom}."
      },
      "safeTransferFrom(address,address,uint256,bytes)": {
        "details": "See {IERC721-safeTransferFrom}."
      },
      "setApprovalForAll(address,bool)": {
        "details": "See {IERC721-setApprovalForAll}."
      },
      "symbol()": {
        "details": "See {IERC721Metadata-symbol}."
      },
      "tokenURI(uint256)": {
        "details": "See {IERC721Metadata-tokenURI}."
      },
      "transferFrom(address,address,uint256)": {
        "details": "See {IERC721-transferFrom}."
      },
      "transferOwnership(address)": {
        "details": "Transfers ownership of the contract to a new account (`newOwner`). Can only be called by the current owner."
      }
    },
    "version": 1
  },
  "userdoc": {
    "kind": "user",
    "methods": {},
    "version": 1
  },
  "storageLayout": {
    "storage": [
      {
        "astId": 3094,
        "contract": "contracts/BondPositionManager.sol:BondPositionManager",
        "label": "_name",
        "offset": 0,
        "slot": "0",
        "type": "t_string_storage"
      },
      {
        "astId": 3096,
        "contract": "contracts/BondPositionManager.sol:BondPositionManager",
        "label": "_symbol",
        "offset": 0,
        "slot": "1",
        "type": "t_string_storage"
      },
      {
        "astId": 3100,
        "contract": "contracts/BondPositionManager.sol:BondPositionManager",
        "label": "_owners",
        "offset": 0,
        "slot": "2",
        "type": "t_mapping(t_uint256,t_address)"
      },
      {
        "astId": 3104,
        "contract": "contracts/BondPositionManager.sol:BondPositionManager",
        "label": "_balances",
        "offset": 0,
        "slot": "3",
        "type": "t_mapping(t_address,t_uint256)"
      },
      {
        "astId": 3108,
        "contract": "contracts/BondPositionManager.sol:BondPositionManager",
        "label": "_tokenApprovals",
        "offset": 0,
        "slot": "4",
        "type": "t_mapping(t_uint256,t_address)"
      },
      {
        "astId": 3114,
        "contract": "contracts/BondPositionManager.sol:BondPositionManager",
        "label": "_operatorApprovals",
        "offset": 0,
        "slot": "5",
        "type": "t_mapping(t_address,t_mapping(t_address,t_bool))"
      },
      {
        "astId": 5536,
        "contract": "contracts/BondPositionManager.sol:BondPositionManager",
        "label": "_nameFallback",
        "offset": 0,
        "slot": "6",
        "type": "t_string_storage"
      },
      {
        "astId": 5538,
        "contract": "contracts/BondPositionManager.sol:BondPositionManager",
        "label": "_versionFallback",
        "offset": 0,
        "slot": "7",
        "type": "t_string_storage"
      },
      {
        "astId": 20831,
        "contract": "contracts/BondPositionManager.sol:BondPositionManager",
        "label": "baseURI",
        "offset": 0,
        "slot": "8",
        "type": "t_string_storage"
      },
      {
        "astId": 20835,
        "contract": "contracts/BondPositionManager.sol:BondPositionManager",
        "label": "nextId",
        "offset": 0,
        "slot": "9",
        "type": "t_uint256"
      },
      {
        "astId": 20838,
        "contract": "contracts/BondPositionManager.sol:BondPositionManager",
        "label": "_lockData",
        "offset": 0,
        "slot": "10",
        "type": "t_struct(LockData)20670_storage"
      },
      {
        "astId": 20845,
        "contract": "contracts/BondPositionManager.sol:BondPositionManager",
        "label": "assetDelta",
        "offset": 0,
        "slot": "11",
        "type": "t_mapping(t_address,t_mapping(t_uint256,t_int256))"
      },
      {
        "astId": 7,
        "contract": "contracts/BondPositionManager.sol:BondPositionManager",
        "label": "_owner",
        "offset": 0,
        "slot": "12",
        "type": "t_address"
      },
      {
        "astId": 8757,
        "contract": "contracts/BondPositionManager.sol:BondPositionManager",
        "label": "isAssetRegistered",
        "offset": 0,
        "slot": "13",
        "type": "t_mapping(t_address,t_bool)"
      },
      {
        "astId": 8762,
        "contract": "contracts/BondPositionManager.sol:BondPositionManager",
        "label": "_positionMap",
        "offset": 0,
        "slot": "14",
        "type": "t_mapping(t_uint256,t_struct(BondPosition)18012_storage)"
      }
    ],
    "types": {
      "t_address": {
        "encoding": "inplace",
        "label": "address",
        "numberOfBytes": "20"
      },
      "t_bool": {
        "encoding": "inplace",
        "label": "bool",
        "numberOfBytes": "1"
      },
      "t_int256": {
        "encoding": "inplace",
        "label": "int256",
        "numberOfBytes": "32"
      },
      "t_mapping(t_address,t_bool)": {
        "encoding": "mapping",
        "key": "t_address",
        "label": "mapping(address => bool)",
        "numberOfBytes": "32",
        "value": "t_bool"
      },
      "t_mapping(t_address,t_mapping(t_address,t_bool))": {
        "encoding": "mapping",
        "key": "t_address",
        "label": "mapping(address => mapping(address => bool))",
        "numberOfBytes": "32",
        "value": "t_mapping(t_address,t_bool)"
      },
      "t_mapping(t_address,t_mapping(t_uint256,t_int256))": {
        "encoding": "mapping",
        "key": "t_address",
        "label": "mapping(address => mapping(uint256 => int256))",
        "numberOfBytes": "32",
        "value": "t_mapping(t_uint256,t_int256)"
      },
      "t_mapping(t_address,t_uint256)": {
        "encoding": "mapping",
        "key": "t_address",
        "label": "mapping(address => uint256)",
        "numberOfBytes": "32",
        "value": "t_uint256"
      },
      "t_mapping(t_uint256,t_address)": {
        "encoding": "mapping",
        "key": "t_uint256",
        "label": "mapping(uint256 => address)",
        "numberOfBytes": "32",
        "value": "t_address"
      },
      "t_mapping(t_uint256,t_int256)": {
        "encoding": "mapping",
        "key": "t_uint256",
        "label": "mapping(uint256 => int256)",
        "numberOfBytes": "32",
        "value": "t_int256"
      },
      "t_mapping(t_uint256,t_struct(BondPosition)18012_storage)": {
        "encoding": "mapping",
        "key": "t_uint256",
        "label": "mapping(uint256 => struct BondPosition)",
        "numberOfBytes": "32",
        "value": "t_struct(BondPosition)18012_storage"
      },
      "t_string_storage": {
        "encoding": "bytes",
        "label": "string",
        "numberOfBytes": "32"
      },
      "t_struct(BondPosition)18012_storage": {
        "encoding": "inplace",
        "label": "struct BondPosition",
        "members": [
          {
            "astId": 18002,
            "contract": "contracts/BondPositionManager.sol:BondPositionManager",
            "label": "asset",
            "offset": 0,
            "slot": "0",
            "type": "t_address"
          },
          {
            "astId": 18004,
            "contract": "contracts/BondPositionManager.sol:BondPositionManager",
            "label": "nonce",
            "offset": 20,
            "slot": "0",
            "type": "t_uint64"
          },
          {
            "astId": 18007,
            "contract": "contracts/BondPositionManager.sol:BondPositionManager",
            "label": "expiredWith",
            "offset": 28,
            "slot": "0",
            "type": "t_userDefinedValueType(Epoch)19744"
          },
          {
            "astId": 18009,
            "contract": "contracts/BondPositionManager.sol:BondPositionManager",
            "label": "isSettled",
            "offset": 29,
            "slot": "0",
            "type": "t_bool"
          },
          {
            "astId": 18011,
            "contract": "contracts/BondPositionManager.sol:BondPositionManager",
            "label": "amount",
            "offset": 0,
            "slot": "1",
            "type": "t_uint256"
          }
        ],
        "numberOfBytes": "64"
      },
      "t_struct(LockData)20670_storage": {
        "encoding": "inplace",
        "label": "struct LockData",
        "members": [
          {
            "astId": 20666,
            "contract": "contracts/BondPositionManager.sol:BondPositionManager",
            "label": "length",
            "offset": 0,
            "slot": "0",
            "type": "t_uint128"
          },
          {
            "astId": 20669,
            "contract": "contracts/BondPositionManager.sol:BondPositionManager",
            "label": "nonzeroDeltaCount",
            "offset": 16,
            "slot": "0",
            "type": "t_uint128"
          }
        ],
        "numberOfBytes": "32"
      },
      "t_uint128": {
        "encoding": "inplace",
        "label": "uint128",
        "numberOfBytes": "16"
      },
      "t_uint256": {
        "encoding": "inplace",
        "label": "uint256",
        "numberOfBytes": "32"
      },
      "t_uint64": {
        "encoding": "inplace",
        "label": "uint64",
        "numberOfBytes": "8"
      },
      "t_userDefinedValueType(Epoch)19744": {
        "encoding": "inplace",
        "label": "Epoch",
        "numberOfBytes": "1"
      }
    }
  }
}