{
  "address": "0xa9c39C3B106023282F3E4da74B601585f15c3e0F",
  "abi": [
    {
      "inputs": [
        {
          "internalType": "address",
          "name": "wrapped1155Factory",
          "type": "address"
        },
        {
          "internalType": "address",
          "name": "cloberMarketFactory",
          "type": "address"
        },
        {
          "internalType": "address",
          "name": "couponManager",
          "type": "address"
        },
        {
          "internalType": "address",
          "name": "weth",
          "type": "address"
        },
        {
          "internalType": "address",
          "name": "loanManager",
          "type": "address"
        }
      ],
      "stateMutability": "nonpayable",
      "type": "constructor"
    },
    {
      "inputs": [
        {
          "internalType": "string",
          "name": "reason",
          "type": "string"
        }
      ],
      "name": "CollateralSwapFailed",
      "type": "error"
    },
    {
      "inputs": [],
      "name": "ControllerSlippage",
      "type": "error"
    },
    {
      "inputs": [],
      "name": "EpochOverflow",
      "type": "error"
    },
    {
      "inputs": [],
      "name": "InvalidAccess",
      "type": "error"
    },
    {
      "inputs": [],
      "name": "InvalidDebtAmount",
      "type": "error"
    },
    {
      "inputs": [],
      "name": "InvalidMarket",
      "type": "error"
    },
    {
      "inputs": [],
      "name": "Reentrancy",
      "type": "error"
    },
    {
      "inputs": [],
      "name": "ValueTransferFailed",
      "type": "error"
    },
    {
      "anonymous": false,
      "inputs": [
        {
          "indexed": true,
          "internalType": "address",
          "name": "previousOwner",
          "type": "address"
        },
        {
          "indexed": true,
          "internalType": "address",
          "name": "newOwner",
          "type": "address"
        }
      ],
      "name": "OwnershipTransferred",
      "type": "event"
    },
    {
      "inputs": [
        {
          "internalType": "uint256",
          "name": "positionId",
          "type": "uint256"
        },
        {
          "internalType": "uint256",
          "name": "amount",
          "type": "uint256"
        },
        {
          "components": [
            {
              "internalType": "uint256",
              "name": "deadline",
              "type": "uint256"
            },
            {
              "internalType": "uint8",
              "name": "v",
              "type": "uint8"
            },
            {
              "internalType": "bytes32",
              "name": "r",
              "type": "bytes32"
            },
            {
              "internalType": "bytes32",
              "name": "s",
              "type": "bytes32"
            }
          ],
          "internalType": "struct PermitParams",
          "name": "positionPermitParams",
          "type": "tuple"
        },
        {
          "components": [
            {
              "internalType": "uint256",
              "name": "deadline",
              "type": "uint256"
            },
            {
              "internalType": "uint8",
              "name": "v",
              "type": "uint8"
            },
            {
              "internalType": "bytes32",
              "name": "r",
              "type": "bytes32"
            },
            {
              "internalType": "bytes32",
              "name": "s",
              "type": "bytes32"
            }
          ],
          "internalType": "struct PermitParams",
          "name": "collateralPermitParams",
          "type": "tuple"
        }
      ],
      "name": "addCollateral",
      "outputs": [],
      "stateMutability": "payable",
      "type": "function"
    },
    {
      "inputs": [
        {
          "internalType": "address",
          "name": "collateralToken",
          "type": "address"
        },
        {
          "internalType": "address",
          "name": "debtToken",
          "type": "address"
        },
        {
          "internalType": "uint256",
          "name": "collateralAmount",
          "type": "uint256"
        },
        {
          "internalType": "uint256",
          "name": "borrowAmount",
          "type": "uint256"
        },
        {
          "internalType": "uint256",
          "name": "maxPayInterest",
          "type": "uint256"
        },
        {
          "internalType": "uint8",
          "name": "loanEpochs",
          "type": "uint8"
        },
        {
          "components": [
            {
              "internalType": "uint256",
              "name": "deadline",
              "type": "uint256"
            },
            {
              "internalType": "uint8",
              "name": "v",
              "type": "uint8"
            },
            {
              "internalType": "bytes32",
              "name": "r",
              "type": "bytes32"
            },
            {
              "internalType": "bytes32",
              "name": "s",
              "type": "bytes32"
            }
          ],
          "internalType": "struct PermitParams",
          "name": "collateralPermitParams",
          "type": "tuple"
        }
      ],
      "name": "borrow",
      "outputs": [],
      "stateMutability": "payable",
      "type": "function"
    },
    {
      "inputs": [
        {
          "internalType": "uint256",
          "name": "positionId",
          "type": "uint256"
        },
        {
          "internalType": "uint256",
          "name": "amount",
          "type": "uint256"
        },
        {
          "internalType": "uint256",
          "name": "maxPayInterest",
          "type": "uint256"
        },
        {
          "components": [
            {
              "internalType": "uint256",
              "name": "deadline",
              "type": "uint256"
            },
            {
              "internalType": "uint8",
              "name": "v",
              "type": "uint8"
            },
            {
              "internalType": "bytes32",
              "name": "r",
              "type": "bytes32"
            },
            {
              "internalType": "bytes32",
              "name": "s",
              "type": "bytes32"
            }
          ],
          "internalType": "struct PermitParams",
          "name": "positionPermitParams",
          "type": "tuple"
        }
      ],
      "name": "borrowMore",
      "outputs": [],
      "stateMutability": "nonpayable",
      "type": "function"
    },
    {
      "inputs": [
        {
          "internalType": "address",
          "name": "inputToken",
          "type": "address"
        },
        {
          "internalType": "address",
          "name": "",
          "type": "address"
        },
        {
          "internalType": "uint256",
          "name": "inputAmount",
          "type": "uint256"
        },
        {
          "internalType": "uint256",
          "name": "outputAmount",
          "type": "uint256"
        },
        {
          "internalType": "bytes",
          "name": "data",
          "type": "bytes"
        }
      ],
      "name": "cloberMarketSwapCallback",
      "outputs": [],
      "stateMutability": "payable",
      "type": "function"
    },
    {
      "inputs": [
        {
          "internalType": "uint256",
          "name": "positionId",
          "type": "uint256"
        },
        {
          "internalType": "uint8",
          "name": "epochs",
          "type": "uint8"
        },
        {
          "internalType": "uint256",
          "name": "maxPayInterest",
          "type": "uint256"
        },
        {
          "components": [
            {
              "internalType": "uint256",
              "name": "deadline",
              "type": "uint256"
            },
            {
              "internalType": "uint8",
              "name": "v",
              "type": "uint8"
            },
            {
              "internalType": "bytes32",
              "name": "r",
              "type": "bytes32"
            },
            {
              "internalType": "bytes32",
              "name": "s",
              "type": "bytes32"
            }
          ],
          "internalType": "struct PermitParams",
          "name": "positionPermitParams",
          "type": "tuple"
        },
        {
          "components": [
            {
              "internalType": "uint256",
              "name": "deadline",
              "type": "uint256"
            },
            {
              "internalType": "uint8",
              "name": "v",
              "type": "uint8"
            },
            {
              "internalType": "bytes32",
              "name": "r",
              "type": "bytes32"
            },
            {
              "internalType": "bytes32",
              "name": "s",
              "type": "bytes32"
            }
          ],
          "internalType": "struct PermitParams",
          "name": "debtPermitParams",
          "type": "tuple"
        }
      ],
      "name": "extendLoanDuration",
      "outputs": [],
      "stateMutability": "payable",
      "type": "function"
    },
    {
      "inputs": [
        {
          "components": [
            {
              "internalType": "address",
              "name": "asset",
              "type": "address"
            },
            {
              "internalType": "Epoch",
              "name": "epoch",
              "type": "uint8"
            }
          ],
          "internalType": "struct CouponKey",
          "name": "couponKey",
          "type": "tuple"
        }
      ],
      "name": "getCouponMarket",
      "outputs": [
        {
          "internalType": "address",
          "name": "",
          "type": "address"
        }
      ],
      "stateMutability": "view",
      "type": "function"
    },
    {
      "inputs": [
        {
          "internalType": "address",
          "name": "",
          "type": "address"
        },
        {
          "internalType": "address",
          "name": "",
          "type": "address"
        },
        {
          "internalType": "uint256[]",
          "name": "",
          "type": "uint256[]"
        },
        {
          "internalType": "uint256[]",
          "name": "",
          "type": "uint256[]"
        },
        {
          "internalType": "bytes",
          "name": "",
          "type": "bytes"
        }
      ],
      "name": "onERC1155BatchReceived",
      "outputs": [
        {
          "internalType": "bytes4",
          "name": "",
          "type": "bytes4"
        }
      ],
      "stateMutability": "nonpayable",
      "type": "function"
    },
    {
      "inputs": [
        {
          "internalType": "address",
          "name": "",
          "type": "address"
        },
        {
          "internalType": "address",
          "name": "",
          "type": "address"
        },
        {
          "internalType": "uint256",
          "name": "",
          "type": "uint256"
        },
        {
          "internalType": "uint256",
          "name": "",
          "type": "uint256"
        },
        {
          "internalType": "bytes",
          "name": "",
          "type": "bytes"
        }
      ],
      "name": "onERC1155Received",
      "outputs": [
        {
          "internalType": "bytes4",
          "name": "",
          "type": "bytes4"
        }
      ],
      "stateMutability": "nonpayable",
      "type": "function"
    },
    {
      "inputs": [],
      "name": "owner",
      "outputs": [
        {
          "internalType": "address",
          "name": "",
          "type": "address"
        }
      ],
      "stateMutability": "view",
      "type": "function"
    },
    {
      "inputs": [
        {
          "internalType": "bytes",
          "name": "data",
          "type": "bytes"
        }
      ],
      "name": "positionLockAcquired",
      "outputs": [
        {
          "internalType": "bytes",
          "name": "result",
          "type": "bytes"
        }
      ],
      "stateMutability": "nonpayable",
      "type": "function"
    },
    {
      "inputs": [
        {
          "internalType": "uint256",
          "name": "positionId",
          "type": "uint256"
        },
        {
          "internalType": "uint256",
          "name": "amount",
          "type": "uint256"
        },
        {
          "components": [
            {
              "internalType": "uint256",
              "name": "deadline",
              "type": "uint256"
            },
            {
              "internalType": "uint8",
              "name": "v",
              "type": "uint8"
            },
            {
              "internalType": "bytes32",
              "name": "r",
              "type": "bytes32"
            },
            {
              "internalType": "bytes32",
              "name": "s",
              "type": "bytes32"
            }
          ],
          "internalType": "struct PermitParams",
          "name": "positionPermitParams",
          "type": "tuple"
        }
      ],
      "name": "removeCollateral",
      "outputs": [],
      "stateMutability": "nonpayable",
      "type": "function"
    },
    {
      "inputs": [],
      "name": "renounceOwnership",
      "outputs": [],
      "stateMutability": "nonpayable",
      "type": "function"
    },
    {
      "inputs": [
        {
          "internalType": "uint256",
          "name": "positionId",
          "type": "uint256"
        },
        {
          "internalType": "uint256",
          "name": "amount",
          "type": "uint256"
        },
        {
          "internalType": "uint256",
          "name": "minEarnInterest",
          "type": "uint256"
        },
        {
          "components": [
            {
              "internalType": "uint256",
              "name": "deadline",
              "type": "uint256"
            },
            {
              "internalType": "uint8",
              "name": "v",
              "type": "uint8"
            },
            {
              "internalType": "bytes32",
              "name": "r",
              "type": "bytes32"
            },
            {
              "internalType": "bytes32",
              "name": "s",
              "type": "bytes32"
            }
          ],
          "internalType": "struct PermitParams",
          "name": "positionPermitParams",
          "type": "tuple"
        },
        {
          "components": [
            {
              "internalType": "uint256",
              "name": "deadline",
              "type": "uint256"
            },
            {
              "internalType": "uint8",
              "name": "v",
              "type": "uint8"
            },
            {
              "internalType": "bytes32",
              "name": "r",
              "type": "bytes32"
            },
            {
              "internalType": "bytes32",
              "name": "s",
              "type": "bytes32"
            }
          ],
          "internalType": "struct PermitParams",
          "name": "debtPermitParams",
          "type": "tuple"
        }
      ],
      "name": "repay",
      "outputs": [],
      "stateMutability": "payable",
      "type": "function"
    },
    {
      "inputs": [
        {
          "internalType": "uint256",
          "name": "positionId",
          "type": "uint256"
        },
        {
          "internalType": "uint256",
          "name": "maxDebtAmount",
          "type": "uint256"
        },
        {
          "components": [
            {
              "internalType": "address",
              "name": "swap",
              "type": "address"
            },
            {
              "internalType": "uint256",
              "name": "inAmount",
              "type": "uint256"
            },
            {
              "internalType": "uint256",
              "name": "minOutAmount",
              "type": "uint256"
            },
            {
              "internalType": "bytes",
              "name": "data",
              "type": "bytes"
            }
          ],
          "internalType": "struct IBorrowController.SwapData",
          "name": "swapData",
          "type": "tuple"
        },
        {
          "components": [
            {
              "internalType": "uint256",
              "name": "deadline",
              "type": "uint256"
            },
            {
              "internalType": "uint8",
              "name": "v",
              "type": "uint8"
            },
            {
              "internalType": "bytes32",
              "name": "r",
              "type": "bytes32"
            },
            {
              "internalType": "bytes32",
              "name": "s",
              "type": "bytes32"
            }
          ],
          "internalType": "struct PermitParams",
          "name": "positionPermitParams",
          "type": "tuple"
        }
      ],
      "name": "repayWithCollateral",
      "outputs": [],
      "stateMutability": "nonpayable",
      "type": "function"
    },
    {
      "inputs": [
        {
          "internalType": "address",
          "name": "collateralToken",
          "type": "address"
        }
      ],
      "name": "setCollateralAllowance",
      "outputs": [],
      "stateMutability": "nonpayable",
      "type": "function"
    },
    {
      "inputs": [
        {
          "components": [
            {
              "internalType": "address",
              "name": "asset",
              "type": "address"
            },
            {
              "internalType": "Epoch",
              "name": "epoch",
              "type": "uint8"
            }
          ],
          "internalType": "struct CouponKey",
          "name": "couponKey",
          "type": "tuple"
        },
        {
          "internalType": "address",
          "name": "cloberMarket",
          "type": "address"
        }
      ],
      "name": "setCouponMarket",
      "outputs": [],
      "stateMutability": "nonpayable",
      "type": "function"
    },
    {
      "inputs": [
        {
          "internalType": "uint256",
          "name": "positionId",
          "type": "uint256"
        },
        {
          "internalType": "uint8",
          "name": "epochs",
          "type": "uint8"
        },
        {
          "internalType": "uint256",
          "name": "minEarnInterest",
          "type": "uint256"
        },
        {
          "components": [
            {
              "internalType": "uint256",
              "name": "deadline",
              "type": "uint256"
            },
            {
              "internalType": "uint8",
              "name": "v",
              "type": "uint8"
            },
            {
              "internalType": "bytes32",
              "name": "r",
              "type": "bytes32"
            },
            {
              "internalType": "bytes32",
              "name": "s",
              "type": "bytes32"
            }
          ],
          "internalType": "struct PermitParams",
          "name": "positionPermitParams",
          "type": "tuple"
        }
      ],
      "name": "shortenLoanDuration",
      "outputs": [],
      "stateMutability": "nonpayable",
      "type": "function"
    },
    {
      "inputs": [
        {
          "internalType": "bytes4",
          "name": "interfaceId",
          "type": "bytes4"
        }
      ],
      "name": "supportsInterface",
      "outputs": [
        {
          "internalType": "bool",
          "name": "",
          "type": "bool"
        }
      ],
      "stateMutability": "view",
      "type": "function"
    },
    {
      "inputs": [
        {
          "internalType": "address",
          "name": "newOwner",
          "type": "address"
        }
      ],
      "name": "transferOwnership",
      "outputs": [],
      "stateMutability": "nonpayable",
      "type": "function"
    },
    {
      "stateMutability": "payable",
      "type": "receive"
    }
  ],
  "transactionHash": "0x061515828fee3d6aa2a2ba9d5478eab9956f35a216e8d0aba8114726614f09b6",
  "args": [
    "0xfcBE16BfD991E4949244E59d9b524e6964b8BB75",
    "0x24aC0938C010Fb520F1068e96d78E0458855111D",
    "0x56F3907C71A0dcF4e354F9f5093Da0bE9AA050A4",
    "0x82aF49447D8a07e3bd95BD0d56f35241523fBab1",
    "0xF4723F17a6CCb33cF7221636cc07ee7752F865FA"
  ],
  "numDeployments": 1,
  "solcInputHash": "c4298eb6a2b23f63923e5d7505bf94bb",
  "bytecode": "0x610120604052600180553480156200001657600080fd5b5060405162005e5938038062005e598339810160408190526200003991620000e3565b84848484620000483362000076565b6001600160a01b0393841660805291831660a052821660c052811660e0521661010052506200015392505050565b600080546001600160a01b038381166001600160a01b0319831681178455604051919092169283917f8be0079c531659141344cd1fd0a4f28419497f9722a3daafe3b4186f6b6457e09190a35050565b80516001600160a01b0381168114620000de57600080fd5b919050565b600080600080600060a08688031215620000fc57600080fd5b6200010786620000c6565b94506200011760208701620000c6565b93506200012760408701620000c6565b92506200013760608701620000c6565b91506200014760808701620000c6565b90509295509295909350565b60805160a05160c05160e05161010051615b4062000319600039600081816104df015281816105f101528181610630015281816106d9015281816107ec01528181610883015281816108c20152818161099d01528181610aa601528181610b3d01528181610b7c01528181610c1701528181610cec01528181610db101528181610e6001528181610f6701528181610feb015281816110e30152818161116e0152818161127b015281816112e5015281816113c0015281816114bc015281816115350152818161163a015281816116ac0152818161174a015281816118070152818161189e015281816118dd0152818161196d01528181611a0101528181611b1301528181611b5201528181611bf101528181611fb8015281816120ca01528181612109015281816121a80152818161223c015281816122d301528181612312015281816123a2015281816125f8015281816126bf01526127e601526000818161057901528181611a9b015281816120520152818161249901528181612e710152612f35015260008181611cb0015281816130a60152613d42015260008181611d6e01526128a0015260008181611c81015281816130d60152613d130152615b406000f3fe6080604052600436106101485760003560e01c806376c14af0116100c0578063c61bf29711610074578063f2fde38b11610059578063f2fde38b146103d9578063f89a919c146103f9578063fd235fda1461041957600080fd5b8063c61bf29714610381578063f23a6e611461039457600080fd5b8063968c279f116100a5578063968c279f146102f0578063afead2e314610303578063bc197c811461032357600080fd5b806376c14af0146102b25780638da5cb5b146102d257600080fd5b8063469ac35b116101175780636d3a8534116100fc5780636d3a85341461026a5780636e63fb991461028a578063715018a61461029d57600080fd5b8063469ac35b1461021d57806346a114e21461023d57600080fd5b806301ffc9a71461015457806314b324861461018957806323b1a965146101e857806341508b66146101fd57600080fd5b3661014f57005b600080fd5b34801561016057600080fd5b5061017461016f366004614664565b61042c565b60405190151581526020015b60405180910390f35b34801561019557600080fd5b506101d06101a43660046147aa565b602081810151915160a09290921b9091016000908152600290915260409020546001600160a01b031690565b6040516001600160a01b039091168152602001610180565b6101fb6101f63660046147d8565b610495565b005b34801561020957600080fd5b506101fb610218366004614834565b6107a2565b34801561022957600080fd5b506101fb610238366004614896565b610a5c565b34801561024957600080fd5b5061025d610258366004614952565b610cdf565b60405161018091906149d7565b34801561027657600080fd5b506101fb6102853660046149ea565b6117bd565b6101fb610298366004614a1f565b6119b7565b3480156102a957600080fd5b506101fb611c3b565b3480156102be57600080fd5b506101fb6102cd366004614a57565b611c4f565b3480156102de57600080fd5b506000546001600160a01b03166101d0565b6101fb6102fe366004614a8f565b611f6e565b34801561030f57600080fd5b506101fb61031e366004614acd565b6121f2565b34801561032f57600080fd5b5061036861033e366004614b8d565b7fbc197c810000000000000000000000000000000000000000000000000000000095945050505050565b6040516001600160e01b03199091168152602001610180565b6101fb61038f366004614c3b565b612469565b3480156103a057600080fd5b506103686103af366004614cb4565b7ff23a6e610000000000000000000000000000000000000000000000000000000095945050505050565b3480156103e557600080fd5b506101fb6103f4366004614d1d565b612732565b34801561040557600080fd5b506101fb610414366004614d1d565b6127c7565b6101fb610427366004614d3a565b612867565b60006001600160e01b031982167f4e2312e000000000000000000000000000000000000000000000000000000000148061048f57507f01ffc9a7000000000000000000000000000000000000000000000000000000006001600160e01b03198316145b92915050565b6001546001146104b85760405163558a1e0360e11b815260040160405180910390fd5b60026001556040516331a9108f60e11b815260048101869052859033906001600160a01b037f00000000000000000000000000000000000000000000000000000000000000001690636352211e90602401602060405180830381865afa158015610526573d6000803e3d6000fd5b505050506040513d601f19601f8201168201806040525081019061054a9190614df4565b6001600160a01b03161461057157604051633006171960e21b815260040160405180910390fd5b34156105ec577f00000000000000000000000000000000000000000000000000000000000000006001600160a01b031663d0e30db0346040518263ffffffff1660e01b81526004016000604051808303818588803b1580156105d257600080fd5b505af11580156105e6573d6000803e3d6000fd5b50505050505b6106177f00000000000000000000000000000000000000000000000000000000000000008785612a64565b60405163eb02c30160e01b8152600481018790526000907f00000000000000000000000000000000000000000000000000000000000000006001600160a01b03169063eb02c3019060240160e060405180830381865afa15801561067f573d6000803e3d6000fd5b505050506040513d601f19601f820116820180604052508101906106a39190614e2c565b90506106b481606001518685612b2d565b60208101516106c69060ff1687612c25565b816020019060ff16908160ff16815250507f00000000000000000000000000000000000000000000000000000000000000006001600160a01b03166381548319610723898489600060405180602001604052806000815250612c38565b6040518263ffffffff1660e01b815260040161073f91906149d7565b6000604051808303816000875af115801561075e573d6000803e3d6000fd5b505050506040513d6000823e601f3d908101601f191682016040526107869190810190614f12565b50610795816080015133612ca4565b5050600180555050505050565b6001546001146107c55760405163558a1e0360e11b815260040160405180910390fd5b60026001556040516331a9108f60e11b815260048101859052849033906001600160a01b037f00000000000000000000000000000000000000000000000000000000000000001690636352211e90602401602060405180830381865afa158015610833573d6000803e3d6000fd5b505050506040513d601f19601f820116820180604052508101906108579190614df4565b6001600160a01b03161461087e57604051633006171960e21b815260040160405180910390fd5b6108a97f00000000000000000000000000000000000000000000000000000000000000008684612a64565b60405163eb02c30160e01b8152600481018690526000907f00000000000000000000000000000000000000000000000000000000000000006001600160a01b03169063eb02c3019060240160e060405180830381865afa158015610911573d6000803e3d6000fd5b505050506040513d601f19601f820116820180604052508101906109359190614e2c565b90508060c001518510610974576040517f5aa57e2300000000000000000000000000000000000000000000000000000000815260040160405180910390fd5b83602001358160a00181815161098a9190614f5d565b91508181525050848160c00181815250507f00000000000000000000000000000000000000000000000000000000000000006001600160a01b031663815483196109f9888460001960008a6040516020016109e59190614f99565b604051602081830303815290604052612c38565b6040518263ffffffff1660e01b8152600401610a1591906149d7565b6000604051808303816000875af1158015610a34573d6000803e3d6000fd5b505050506040513d6000823e601f3d908101601f191682016040526107959190810190614f12565b600154600114610a7f5760405163558a1e0360e11b815260040160405180910390fd5b60026001556040516331a9108f60e11b815260048101859052849033906001600160a01b037f00000000000000000000000000000000000000000000000000000000000000001690636352211e90602401602060405180830381865afa158015610aed573d6000803e3d6000fd5b505050506040513d601f19601f82011682018060405250810190610b119190614df4565b6001600160a01b031614610b3857604051633006171960e21b815260040160405180910390fd5b610b637f00000000000000000000000000000000000000000000000000000000000000008684612a64565b60405163eb02c30160e01b8152600481018690526000907f00000000000000000000000000000000000000000000000000000000000000006001600160a01b03169063eb02c3019060240160e060405180830381865afa158015610bcb573d6000803e3d6000fd5b505050506040513d601f19601f82011682018060405250810190610bef9190614e2c565b6020810151909150610c049060ff1686613098565b816020019060ff16908160ff16815250507f00000000000000000000000000000000000000000000000000000000000000006001600160a01b03166381548319610c61888460008960405180602001604052806000815250612c38565b6040518263ffffffff1660e01b8152600401610c7d91906149d7565b6000604051808303816000875af1158015610c9c573d6000803e3d6000fd5b505050506040513d6000823e601f3d908101601f19168201604052610cc49190810190614f12565b50610cd3816080015133612ca4565b50506001805550505050565b6060336001600160a01b037f00000000000000000000000000000000000000000000000000000000000000001614610d2a57604051633006171960e21b815260040160405180910390fd5b60008083806020019051810190610d41919061502e565b955090925090506000829003610e475760008085806020019051810190610d689190615088565b6040517fee1fe2ad0000000000000000000000000000000000000000000000000000000081526001600160a01b03808516600483015280841660248301529199509294509092507f0000000000000000000000000000000000000000000000000000000000000000169063ee1fe2ad906044016020604051808303816000875af1158015610dfa573d6000803e3d6000fd5b505050506040513d601f19601f82011682018060405250810190610e1e91906150b9565b935083604051602001610e3391815260200190565b604051602081830303815290604052945050505b60405163eb02c30160e01b8152600481018390526000907f00000000000000000000000000000000000000000000000000000000000000006001600160a01b03169063eb02c3019060240160e060405180830381865afa158015610eaf573d6000803e3d6000fd5b505050506040513d601f19601f82011682018060405250810190610ed39190614e2c565b9050600080606087806020019051810190610eee91906150d2565b60ff90931660208a0181905260c08a0185905260a08a018690526040517fc18927c5000000000000000000000000000000000000000000000000000000008152600481018d9052602481019690965260448601949094526064850193909352955090935091506000908190819081906001600160a01b037f0000000000000000000000000000000000000000000000000000000000000000169063c18927c5906084016000604051808303816000875af1158015610fb0573d6000803e3d6000fd5b505050506040513d6000823e601f3d908101601f19168201604052610fd8919081019061520b565b93509350935093506000821215611090577f00000000000000000000000000000000000000000000000000000000000000006001600160a01b03166301e33667896060015130856110289061527f565b6040516001600160e01b031960e086901b1681526001600160a01b0393841660048201529290911660248301526044820152606401600060405180830381600087803b15801561107757600080fd5b505af115801561108b573d6000803e3d6000fd5b505050505b60008113156111425760808801516040517f01e336670000000000000000000000000000000000000000000000000000000081526001600160a01b039182166004820152306024820152604481018390527f0000000000000000000000000000000000000000000000000000000000000000909116906301e3366790606401600060405180830381600087803b15801561112957600080fd5b505af115801561113d573d6000803e3d6000fd5b505050505b8251156111e15760408051600081526020810191829052630f0b076560e01b9091526001600160a01b037f00000000000000000000000000000000000000000000000000000000000000001690630f0b0765906111a6908690309060248101615313565b600060405180830381600087803b1580156111c057600080fd5b505af11580156111d4573d6000803e3d6000fd5b505050506111e1836130a4565b84511561120e5761120e858060200190518101906111ff9190615351565b89606001518a6080015161314c565b611238898960800151868660008612611228576000611231565b6112318661527f565b8c8c613583565b60008213156112da5761125088606001518a8461398b565b60608801516040516319c5aef560e11b81526001600160a01b039182166004820152602481018490527f00000000000000000000000000000000000000000000000000000000000000009091169063338b5dea90604401600060405180830381600087803b1580156112c157600080fd5b505af11580156112d5573d6000803e3d6000fd5b505050505b6000811215611380577f00000000000000000000000000000000000000000000000000000000000000006001600160a01b031663338b5dea8960800151836113219061527f565b6040516001600160e01b031960e085901b1681526001600160a01b0390921660048301526024820152604401600060405180830381600087803b15801561136757600080fd5b505af115801561137b573d6000803e3d6000fd5b505050505b8351156114285761139084613be0565b6040517f430c114b0000000000000000000000000000000000000000000000000000000081526001600160a01b037f0000000000000000000000000000000000000000000000000000000000000000169063430c114b906113f59087906004016153e7565b600060405180830381600087803b15801561140f57600080fd5b505af1158015611423573d6000803e3d6000fd5b505050505b84511561171b5760808801516040516370a0823160e01b81523060048201526000916001600160a01b0316906370a0823190602401602060405180830381865afa15801561147a573d6000803e3d6000fd5b505050506040513d601f19601f8201168201806040525081019061149e91906150b9565b905080156117195760405163eb02c30160e01b8152600481018c90527f00000000000000000000000000000000000000000000000000000000000000006001600160a01b03169063eb02c3019060240160e060405180830381865afa15801561150b573d6000803e3d6000fd5b505050506040513d601f19601f8201168201806040525081019061152f9190614e2c565b985060007f00000000000000000000000000000000000000000000000000000000000000006001600160a01b031663c18927c58d8c60a00151858e60c001511161157a57600061158a565b858e60c0015161158a9190614f5d565b60208f01516040516001600160e01b031960e087901b16815260048101949094526024840192909252604483015260ff1660648201526084016000604051808303816000875af11580156115e2573d6000803e3d6000fd5b505050506040513d6000823e601f3d908101601f1916820160405261160a919081019061520b565b505060808c01516040516319c5aef560e11b81526001600160a01b039182166004820152602481018690529193507f000000000000000000000000000000000000000000000000000000000000000016915063338b5dea90604401600060405180830381600087803b15801561167f57600080fd5b505af1158015611693573d6000803e3d6000fd5b5050604051630f0b076560e01b81526001600160a01b037f0000000000000000000000000000000000000000000000000000000000000000169250630f0b076591506116e59084908f906004016153fa565b600060405180830381600087803b1580156116ff57600080fd5b505af1158015611713573d6000803e3d6000fd5b50505050505b505b6040517faba5b4b3000000000000000000000000000000000000000000000000000000008152600481018b90527f00000000000000000000000000000000000000000000000000000000000000006001600160a01b03169063aba5b4b390602401600060405180830381600087803b15801561179657600080fd5b505af11580156117aa573d6000803e3d6000fd5b5050505050505050505050505050919050565b6001546001146117e05760405163558a1e0360e11b815260040160405180910390fd5b60026001556040516331a9108f60e11b815260048101859052849033906001600160a01b037f00000000000000000000000000000000000000000000000000000000000000001690636352211e90602401602060405180830381865afa15801561184e573d6000803e3d6000fd5b505050506040513d601f19601f820116820180604052508101906118729190614df4565b6001600160a01b03161461189957604051633006171960e21b815260040160405180910390fd5b6118c47f00000000000000000000000000000000000000000000000000000000000000008684612a64565b60405163eb02c30160e01b8152600481018690526000907f00000000000000000000000000000000000000000000000000000000000000006001600160a01b03169063eb02c3019060240160e060405180830381865afa15801561192c573d6000803e3d6000fd5b505050506040513d601f19601f820116820180604052508101906119509190614e2c565b9050848160c0018181516119649190615436565b915081815250507f00000000000000000000000000000000000000000000000000000000000000006001600160a01b03166381548319610c61888488600060405180602001604052806000815250612c38565b6001546001146119da5760405163558a1e0360e11b815260040160405180910390fd5b60026001556040516331a9108f60e11b815260048101869052859033906001600160a01b037f00000000000000000000000000000000000000000000000000000000000000001690636352211e90602401602060405180830381865afa158015611a48573d6000803e3d6000fd5b505050506040513d601f19601f82011682018060405250810190611a6c9190614df4565b6001600160a01b031614611a9357604051633006171960e21b815260040160405180910390fd5b3415611b0e577f00000000000000000000000000000000000000000000000000000000000000006001600160a01b031663d0e30db0346040518263ffffffff1660e01b81526004016000604051808303818588803b158015611af457600080fd5b505af1158015611b08573d6000803e3d6000fd5b50505050505b611b397f00000000000000000000000000000000000000000000000000000000000000008785612a64565b60405163eb02c30160e01b8152600481018790526000907f00000000000000000000000000000000000000000000000000000000000000006001600160a01b03169063eb02c3019060240160e060405180830381865afa158015611ba1573d6000803e3d6000fd5b505050506040513d601f19601f82011682018060405250810190611bc59190614e2c565b9050611bd681608001518785612b2d565b858160c001818151611be89190614f5d565b915081815250507f00000000000000000000000000000000000000000000000000000000000000006001600160a01b03166381548319610723898460008a60405180602001604052806000815250612c38565b611c43613d8d565b611c4d6000613de7565b565b611c57613d8d565b6000611c6283613e44565b90506000611c7b846020810151905160a09190911b0190565b905060007f00000000000000000000000000000000000000000000000000000000000000006001600160a01b03166308b2ea5e7f000000000000000000000000000000000000000000000000000000000000000084866040518463ffffffff1660e01b8152600401611cef93929190615449565b602060405180830381865afa158015611d0c573d6000803e3d6000fd5b505050506040513d601f19601f82011682018060405250810190611d309190614df4565b6040517f0cf85bcc0000000000000000000000000000000000000000000000000000000081526001600160a01b0386811660048301529192506000917f00000000000000000000000000000000000000000000000000000000000000001690630cf85bcc9060240160a060405180830381865afa158015611db5573d6000803e3d6000fd5b505050506040513d601f19601f82011682018060405250810190611dd99190615491565b80519091506001600160a01b0316611e0457604051639db8d5b160e01b815260040160405180910390fd5b816001600160a01b0316856001600160a01b031663c55dae636040518163ffffffff1660e01b8152600401602060405180830381865afa158015611e4c573d6000803e3d6000fd5b505050506040513d601f19601f82011682018060405250810190611e709190614df4565b6001600160a01b031614611e9757604051639db8d5b160e01b815260040160405180910390fd5b85600001516001600160a01b0316856001600160a01b031663217a4b706040518163ffffffff1660e01b8152600401602060405180830381865afa158015611ee3573d6000803e3d6000fd5b505050506040513d601f19601f82011682018060405250810190611f079190614df4565b6001600160a01b031614611f2e57604051639db8d5b160e01b815260040160405180910390fd5b50506000908152600260205260409020805473ffffffffffffffffffffffffffffffffffffffff19166001600160a01b0393909316929092179091555050565b600154600114611f915760405163558a1e0360e11b815260040160405180910390fd5b60026001556040516331a9108f60e11b815260048101859052849033906001600160a01b037f00000000000000000000000000000000000000000000000000000000000000001690636352211e90602401602060405180830381865afa158015611fff573d6000803e3d6000fd5b505050506040513d601f19601f820116820180604052508101906120239190614df4565b6001600160a01b03161461204a57604051633006171960e21b815260040160405180910390fd5b34156120c5577f00000000000000000000000000000000000000000000000000000000000000006001600160a01b031663d0e30db0346040518263ffffffff1660e01b81526004016000604051808303818588803b1580156120ab57600080fd5b505af11580156120bf573d6000803e3d6000fd5b50505050505b6120f07f00000000000000000000000000000000000000000000000000000000000000008685612a64565b60405163eb02c30160e01b8152600481018690526000907f00000000000000000000000000000000000000000000000000000000000000006001600160a01b03169063eb02c3019060240160e060405180830381865afa158015612158573d6000803e3d6000fd5b505050506040513d601f19601f8201168201806040525081019061217c9190614e2c565b905061218d81606001518685612b2d565b848160a00181815161219f9190615436565b915081815250507f00000000000000000000000000000000000000000000000000000000000000006001600160a01b031663815483196109f9888460008060405180602001604052806000815250612c38565b6001546001146122155760405163558a1e0360e11b815260040160405180910390fd5b60026001556040516331a9108f60e11b815260048101849052839033906001600160a01b037f00000000000000000000000000000000000000000000000000000000000000001690636352211e90602401602060405180830381865afa158015612283573d6000803e3d6000fd5b505050506040513d601f19601f820116820180604052508101906122a79190614df4565b6001600160a01b0316146122ce57604051633006171960e21b815260040160405180910390fd5b6122f97f00000000000000000000000000000000000000000000000000000000000000008584612a64565b60405163eb02c30160e01b8152600481018590526000907f00000000000000000000000000000000000000000000000000000000000000006001600160a01b03169063eb02c3019060240160e060405180830381865afa158015612361573d6000803e3d6000fd5b505050506040513d601f19601f820116820180604052508101906123859190614e2c565b9050838160a0018181516123999190614f5d565b915081815250507f00000000000000000000000000000000000000000000000000000000000000006001600160a01b031663815483196123ec878460008060405180602001604052806000815250612c38565b6040518263ffffffff1660e01b815260040161240891906149d7565b6000604051808303816000875af1158015612427573d6000803e3d6000fd5b505050506040513d6000823e601f3d908101601f1916820160405261244f9190810190614f12565b5061245e816060015133612ca4565b505060018055505050565b60015460011461248c5760405163558a1e0360e11b815260040160405180910390fd5b6002600155341561250c577f00000000000000000000000000000000000000000000000000000000000000006001600160a01b031663d0e30db0346040518263ffffffff1660e01b81526004016000604051808303818588803b1580156124f257600080fd5b505af1158015612506573d6000803e3d6000fd5b50505050505b612517878683612b2d565b600080338989898961253e61252d60018b615529565b612535613ffe565b60ff1690612c25565b60408051602081019490945283019190915260ff16606082015260808101899052600060a0820181905260c08083015260e08201526101000160408051601f1981840301815290829052612596939291602001615542565b60408051601f19818403018152908290526125b593929160200161556e565b60408051601f19818403018152908290527f8154831900000000000000000000000000000000000000000000000000000000825291506000906001600160a01b037f0000000000000000000000000000000000000000000000000000000000000000169063815483199061262d9085906004016149d7565b6000604051808303816000875af115801561264c573d6000803e3d6000fd5b505050506040513d6000823e601f3d908101601f191682016040526126749190810190614f12565b80602001905181019061268791906150b9565b90506126938933612ca4565b61269d8833612ca4565b6040516323b872dd60e01b8152306004820152336024820152604481018290527f00000000000000000000000000000000000000000000000000000000000000006001600160a01b0316906323b872dd90606401600060405180830381600087803b15801561270b57600080fd5b505af115801561271f573d6000803e3d6000fd5b5050600180555050505050505050505050565b61273a613d8d565b6001600160a01b0381166127bb5760405162461bcd60e51b815260206004820152602660248201527f4f776e61626c653a206e6577206f776e657220697320746865207a65726f206160448201527f646472657373000000000000000000000000000000000000000000000000000060648201526084015b60405180910390fd5b6127c481613de7565b50565b6127cf613d8d565b60405163095ea7b360e01b81526001600160a01b037f000000000000000000000000000000000000000000000000000000000000000081166004830152600019602483015282169063095ea7b3906044016020604051808303816000875af115801561283f573d6000803e3d6000fd5b505050506040513d601f19601f820116820180604052508101906128639190615599565b5050565b6040517fafdd9edc0000000000000000000000000000000000000000000000000000000081523360048201526000906001600160a01b037f0000000000000000000000000000000000000000000000000000000000000000169063afdd9edc90602401602060405180830381865afa1580156128e7573d6000803e3d6000fd5b505050506040513d601f19601f8201168201806040525081019061290b9190614df4565b6001600160a01b03160361293257604051633006171960e21b815260040160405180910390fd5b600080808080806129458789018961563a565b9550955095509550955095506000336001600160a01b031663217a4b706040518163ffffffff1660e01b8152600401602060405180830381865afa158015612991573d6000803e3d6000fd5b505050506040513d601f19601f820116820180604052508101906129b59190614df4565b90508c6001600160a01b0316816001600160a01b031603612a0e578a8310156129f157604051630f271b5560e41b815260040160405180910390fd5b6129fb8b84614f5d565b9250612a078b85615436565b9350612a2c565b89821115612a2757612a208a83614f5d565b9150612a2c565b600091505b612a3b87828888888888613583565b8a15612a5557612a556001600160a01b038e16338d61400e565b50505050505050505050505050565b612a7b612a76368390038301836156cc565b511590565b612b28576001600160a01b038316637ac2ff7b30848435612aa2604087016020880161571a565b604080516001600160e01b031960e088901b1681526001600160a01b0390951660048601526024850193909352604484019190915260ff1660648301528401356084820152606084013560a482015260c4015b600060405180830381600087803b158015612b0f57600080fd5b505af1158015612b23573d6000803e3d6000fd5b505050505b505050565b612b3f612a76368390038301836156cc565b612b2857826001600160a01b0316632495a5996040518163ffffffff1660e01b8152600401602060405180830381865afa158015612b81573d6000803e3d6000fd5b505050506040513d601f19601f82011682018060405250810190612ba59190614df4565b6001600160a01b031663d505accf3330858535612bc8604088016020890161571a565b604080516001600160e01b031960e089901b1681526001600160a01b0396871660048201529590941660248601526044850192909252606484015260ff16608483015284013560a4820152606084013560c482015260e401612af5565b6000612c318284615737565b9392505050565b606060008560a001518660c001518760200151878787604051602001612c6396959493929190615750565b6040516020818303038152906040529050863382604051602001612c8993929190615784565b60405160208183030381529060405291505095945050505050565b6040516370a0823160e01b81523060048201526000906001600160a01b038416906370a0823190602401602060405180830381865afa158015612ceb573d6000803e3d6000fd5b505050506040513d601f19601f82011682018060405250810190612d0f91906150b9565b905080600003612d1e57505050565b6000836001600160a01b0316632495a5996040518163ffffffff1660e01b8152600401602060405180830381865afa158015612d5e573d6000803e3d6000fd5b505050506040513d601f19601f82011682018060405250810190612d829190614df4565b90506000846001600160a01b031663fab5ae746040518163ffffffff1660e01b8152600401602060405180830381865afa158015612dc4573d6000803e3d6000fd5b505050506040513d601f19601f82011682018060405250810190612de891906150b9565b905082811015612e6f576001600160a01b0385166305c77fa0612e0b8386614f5d565b6040516001600160e01b031960e084901b16815260048101919091526001600160a01b0387166024820152604401600060405180830381600087803b158015612e5357600080fd5b505af1158015612e67573d6000803e3d6000fd5b505050508092505b7f00000000000000000000000000000000000000000000000000000000000000006001600160a01b0316826001600160a01b03160361302e57604051633f34d4cf60e21b8152600481018490523060248201526001600160a01b0386169063fcd3533c90604401600060405180830381600087803b158015612ef057600080fd5b505af1158015612f04573d6000803e3d6000fd5b50506040517f2e1a7d4d000000000000000000000000000000000000000000000000000000008152600481018690527f00000000000000000000000000000000000000000000000000000000000000006001600160a01b03169250632e1a7d4d9150602401600060405180830381600087803b158015612f8357600080fd5b505af1158015612f97573d6000803e3d6000fd5b505050506000846001600160a01b03168460405160006040518083038185875af1925050503d8060008114612fe8576040519150601f19603f3d011682016040523d82523d6000602084013e612fed565b606091505b5050905080613028576040517fdd857fd000000000000000000000000000000000000000000000000000000000815260040160405180910390fd5b50613091565b604051633f34d4cf60e21b8152600481018490526001600160a01b03858116602483015286169063fcd3533c90604401600060405180830381600087803b15801561307857600080fd5b505af115801561308c573d6000803e3d6000fd5b505050505b5050505050565b6000612c318284615529565b7f00000000000000000000000000000000000000000000000000000000000000006001600160a01b031663100886cc307f0000000000000000000000000000000000000000000000000000000000000000846130ff8661409f565b6040518563ffffffff1660e01b815260040161311e94939291906157ac565b600060405180830381600087803b15801561313857600080fd5b505af1158015613091573d6000803e3d6000fd5b6020830151604051633f34d4cf60e21b815260048101919091523060248201526001600160a01b0383169063fcd3533c90604401600060405180830381600087803b15801561319a57600080fd5b505af11580156131ae573d6000803e3d6000fd5b50505050816001600160a01b0316632495a5996040518163ffffffff1660e01b8152600401602060405180830381865afa1580156131f0573d6000803e3d6000fd5b505050506040513d601f19601f820116820180604052508101906132149190614df4565b8351602085015160405163095ea7b360e01b81526001600160a01b039283166004820152602481019190915291169063095ea7b3906044016020604051808303816000875af115801561326b573d6000803e3d6000fd5b505050506040513d601f19601f8201168201806040525081019061328f9190615599565b506000816001600160a01b0316632495a5996040518163ffffffff1660e01b8152600401602060405180830381865afa1580156132d0573d6000803e3d6000fd5b505050506040513d601f19601f820116820180604052508101906132f49190614df4565b6040516370a0823160e01b81523060048201529091506000906001600160a01b038316906370a0823190602401602060405180830381865afa15801561333e573d6000803e3d6000fd5b505050506040513d601f19601f8201168201806040525081019061336291906150b9565b905060008086600001516001600160a01b0316876060015160405161338791906157ea565b6000604051808303816000865af19150503d80600081146133c4576040519150601f19603f3d011682016040523d82523d6000602084013e6133c9565b606091505b50915091508161340757806040517feff884140000000000000000000000000000000000000000000000000000000081526004016127b291906149d7565b6040516370a0823160e01b815230600482015260009084906001600160a01b038716906370a0823190602401602060405180830381865afa158015613450573d6000803e3d6000fd5b505050506040513d601f19601f8201168201806040525081019061347491906150b9565b61347e9190614f5d565b905080886040015111156134a557604051630f271b5560e41b815260040160405180910390fd5b60405163095ea7b360e01b81526001600160a01b0387811660048301526024820183905286169063095ea7b3906044016020604051808303816000875af11580156134f4573d6000803e3d6000fd5b505050506040513d601f19601f820116820180604052508101906135189190615599565b506040516394bf804d60e01b8152600481018290523060248201526001600160a01b038716906394bf804d90604401600060405180830381600087803b15801561356157600080fd5b505af1158015613575573d6000803e3d6000fd5b505050505050505050505050565b8451156137ee576000856001875161359b9190614f5d565b815181106135ab576135ab615806565b602002602001015190506001865103865260008887600067ffffffffffffffff8111156135da576135da61468e565b60405190808252806020026020018201604052801561362e57816020015b60408051608081018252600091810182815260608201839052815260208101919091528152602001906001900390816135f85790505b508787876040516020016136479695949392919061581c565b60405160208183030381529060405290506001875101875260006002600061366e85614112565b815260200190815260200160002060009054906101000a90046001600160a01b031690506000816001600160a01b031663c55dae636040518163ffffffff1660e01b8152600401602060405180830381865afa1580156136d2573d6000803e3d6000fd5b505050506040513d601f19601f820116820180604052508101906136f69190614df4565b6040516370a0823160e01b81523060048201526001600160a01b0391909116906370a0823190602401602060405180830381865afa15801561373c573d6000803e3d6000fd5b505050506040513d601f19601f8201168201806040525081019061376091906150b9565b846020015161376f9190614f5d565b60405163168da99d60e31b81529091506001600160a01b0383169063b46d4ce8906137b390309061ffff9067ffffffffffffffff9087906001908b9060040161586f565b600060405180830381600087803b1580156137cd57600080fd5b505af11580156137e1573d6000803e3d6000fd5b5050505050505050612b23565b83511561396557600084600186516138069190614f5d565b8151811061381657613816615806565b6020026020010151905060018551038552600088600067ffffffffffffffff8111156138445761384461468e565b60405190808252806020026020018201604052801561389857816020015b60408051608081018252600091810182815260608201839052815260208101919091528152602001906001900390816138625790505b50878787876040516020016138b29695949392919061581c565b6040516020818303038152906040529050600186510186526000600260006138d985614112565b8152602080820192909252604090810160009081205492860151915163168da99d60e31b81526001600160a01b039093169350839263b46d4ce89261392b923092909182916002908a9060040161586f565b600060405180830381600087803b15801561394557600080fd5b505af1158015613959573d6000803e3d6000fd5b50505050505050612b23565b801561398457604051630f271b5560e41b815260040160405180910390fd5b612b238688855b6000836001600160a01b0316632495a5996040518163ffffffff1660e01b8152600401602060405180830381865afa1580156139cb573d6000803e3d6000fd5b505050506040513d601f19601f820116820180604052508101906139ef9190614df4565b6040516370a0823160e01b81523060048201529091506000906001600160a01b038616906370a0823190602401602060405180830381865afa158015613a39573d6000803e3d6000fd5b505050506040513d601f19601f82011682018060405250810190613a5d91906150b9565b6040516370a0823160e01b81523060048201529091506000906001600160a01b038416906370a0823190602401602060405180830381865afa158015613aa7573d6000803e3d6000fd5b505050506040513d601f19601f82011682018060405250810190613acb91906150b9565b9050613ad78183615436565b841115613afd57613af86001600160a01b0384168630858803859003614127565b508083035b8015613bd85760405163095ea7b360e01b81526001600160a01b0387811660048301526024820183905284169063095ea7b3906044016020604051808303816000875af1158015613b52573d6000803e3d6000fd5b505050506040513d601f19601f82011682018060405250810190613b769190615599565b506040516394bf804d60e01b8152600481018290523060248201526001600160a01b038716906394bf804d90604401600060405180830381600087803b158015613bbf57600080fd5b505af1158015613bd3573d6000803e3d6000fd5b505050505b505050505050565b8051156127c4576000815167ffffffffffffffff811115613c0357613c0361468e565b604051908082528060200260200182016040528015613c2c578160200160208202803683370190505b5090506000825167ffffffffffffffff811115613c4b57613c4b61468e565b604051908082528060200260200182016040528015613c74578160200160208202803683370190505b50905060005b8351811015613d1057613ca5848281518110613c9857613c98615806565b6020026020010151614112565b838281518110613cb757613cb7615806565b602002602001018181525050838181518110613cd557613cd5615806565b602002602001015160200151828281518110613cf357613cf3615806565b602090810291909101015280613d08816158ba565b915050613c7a565b507f00000000000000000000000000000000000000000000000000000000000000006001600160a01b031663a7eaa1867f0000000000000000000000000000000000000000000000000000000000000000848430613d6d8961409f565b6040518663ffffffff1660e01b8152600401612af5959493929190615903565b6000546001600160a01b03163314611c4d5760405162461bcd60e51b815260206004820181905260248201527f4f776e61626c653a2063616c6c6572206973206e6f7420746865206f776e657260448201526064016127b2565b600080546001600160a01b0383811673ffffffffffffffffffffffffffffffffffffffff19831681178455604051919092169283917f8be0079c531659141344cd1fd0a4f28419497f9722a3daafe3b4186f6b6457e09190a35050565b6060600082600001516001600160a01b03166395d89b416040518163ffffffff1660e01b8152600401600060405180830381865afa158015613e8a573d6000803e3d6000fd5b505050506040513d6000823e601f3d908101601f19168201604052613eb29190810190615961565b90506000613ec6846020015160ff16614165565b905060008282604051602001613edd9291906159aa565b604051602081830303815290604052613ef590615a2c565b905060008383604051602001613f0c929190615a50565b604051602081830303815290604052613f2490615a2c565b9050825184510160020280601e0183019250806006018201915050600086600001516001600160a01b031663313ce5676040518163ffffffff1660e01b8152600401602060405180830381865afa158015613f83573d6000803e3d6000fd5b505050506040513d601f19601f82011682018060405250810190613fa79190615aa8565b6040805160208101959095528481019390935260f81b7fff00000000000000000000000000000000000000000000000000000000000000166060840152508051808303604101815260619092019052949350505050565b600061400942614205565b905090565b6040516001600160a01b038316602482015260448101829052612b289084907fa9059cbb00000000000000000000000000000000000000000000000000000000906064015b60408051601f198184030181529190526020810180517bffffffffffffffffffffffffffffffffffffffffffffffffffffffff166001600160e01b0319909316929092179091526142f3565b60408051600080825260208201909252905b825181101561410c57816140e18483815181106140d0576140d0615806565b602002602001015160000151613e44565b6040516020016140f2929190615ac5565b60408051601f1981840301815291905291506001016140b1565b50919050565b80516020810151905160009160a01b0161048f565b6040516001600160a01b038085166024830152831660448201526064810182905261415f9085906323b872dd60e01b90608401614053565b50505050565b60606000614172836143db565b600101905060008167ffffffffffffffff8111156141925761419261468e565b6040519080825280601f01601f1916602001820160405280156141bc576020820181803683370190505b5090508181016020015b600019017f3031323334353637383961626364656600000000000000000000000000000000600a86061a8153600a85049450846141c657509392505050565b600080620151808304905080622649658101600062023ab1600483020590506004600362023ab18302010590910390600062164b09610fa0600185010205905060046105b58202058303601f019250600061098f846050028161426a5761426a615af4565b059050600b8105935083600c028160020103905083826031850360640201019150600060066001836107b28603600c020103816142a9576142a9615af4565b04905060ff8111156142e7576040517f73cde75100000000000000000000000000000000000000000000000000000000815260040160405180910390fd5b98975050505050505050565b6000614348826040518060400160405280602081526020017f5361666545524332303a206c6f772d6c6576656c2063616c6c206661696c6564815250856001600160a01b03166144bd9092919063ffffffff16565b90508051600014806143695750808060200190518101906143699190615599565b612b285760405162461bcd60e51b815260206004820152602a60248201527f5361666545524332303a204552433230206f7065726174696f6e20646964206e60448201527f6f7420737563636565640000000000000000000000000000000000000000000060648201526084016127b2565b6000807a184f03e93ff9f4daa797ed6e38ed64bf6a1f0100000000000000008310614424577a184f03e93ff9f4daa797ed6e38ed64bf6a1f010000000000000000830492506040015b6d04ee2d6d415b85acef81000000008310614450576d04ee2d6d415b85acef8100000000830492506020015b662386f26fc10000831061446e57662386f26fc10000830492506010015b6305f5e1008310614486576305f5e100830492506008015b612710831061449a57612710830492506004015b606483106144ac576064830492506002015b600a831061048f5760010192915050565b60606144cc84846000856144d4565b949350505050565b60608247101561454c5760405162461bcd60e51b815260206004820152602660248201527f416464726573733a20696e73756666696369656e742062616c616e636520666f60448201527f722063616c6c000000000000000000000000000000000000000000000000000060648201526084016127b2565b600080866001600160a01b0316858760405161456891906157ea565b60006040518083038185875af1925050503d80600081146145a5576040519150601f19603f3d011682016040523d82523d6000602084013e6145aa565b606091505b50915091506145bb878383876145c6565b979650505050505050565b6060831561463557825160000361462e576001600160a01b0385163b61462e5760405162461bcd60e51b815260206004820152601d60248201527f416464726573733a2063616c6c20746f206e6f6e2d636f6e747261637400000060448201526064016127b2565b50816144cc565b6144cc838381511561464a5781518083602001fd5b8060405162461bcd60e51b81526004016127b291906149d7565b60006020828403121561467657600080fd5b81356001600160e01b031981168114612c3157600080fd5b634e487b7160e01b600052604160045260246000fd5b6040805190810167ffffffffffffffff811182821017156146c7576146c761468e565b60405290565b60405160e0810167ffffffffffffffff811182821017156146c7576146c761468e565b6040516080810167ffffffffffffffff811182821017156146c7576146c761468e565b604051601f8201601f1916810167ffffffffffffffff8111828210171561473c5761473c61468e565b604052919050565b6001600160a01b03811681146127c457600080fd5b60ff811681146127c457600080fd5b60006040828403121561477a57600080fd5b6147826146a4565b9050813561478f81614744565b8152602082013561479f81614759565b602082015292915050565b6000604082840312156147bc57600080fd5b612c318383614768565b60006080828403121561410c57600080fd5b600080600080600061016086880312156147f157600080fd5b85359450602086013561480381614759565b93506040860135925061481987606088016147c6565b91506148288760e088016147c6565b90509295509295909350565b60008060008060e0858703121561484a57600080fd5b8435935060208501359250604085013567ffffffffffffffff81111561486f57600080fd5b61487b878288016147c6565b92505061488b86606087016147c6565b905092959194509250565b60008060008060e085870312156148ac57600080fd5b8435935060208501356148be81614759565b92506040850135915061488b86606087016147c6565b600067ffffffffffffffff8211156148ee576148ee61468e565b50601f01601f191660200190565b600082601f83011261490d57600080fd5b813561492061491b826148d4565b614713565b81815284602083860101111561493557600080fd5b816020850160208301376000918101602001919091529392505050565b60006020828403121561496457600080fd5b813567ffffffffffffffff81111561497b57600080fd5b6144cc848285016148fc565b60005b838110156149a257818101518382015260200161498a565b50506000910152565b600081518084526149c3816020860160208601614987565b601f01601f19169290920160200192915050565b602081526000612c3160208301846149ab565b60008060008060e08587031215614a0057600080fd5b84359350602085013592506040850135915061488b86606087016147c6565b60008060008060006101608688031215614a3857600080fd5b85359450602086013593506040860135925061481987606088016147c6565b60008060608385031215614a6a57600080fd5b614a748484614768565b91506040830135614a8481614744565b809150509250929050565b6000806000806101408587031215614aa657600080fd5b8435935060208501359250614abe86604087016147c6565b915061488b8660c087016147c6565b600080600060c08486031215614ae257600080fd5b8335925060208401359150614afa85604086016147c6565b90509250925092565b600067ffffffffffffffff821115614b1d57614b1d61468e565b5060051b60200190565b600082601f830112614b3857600080fd5b81356020614b4861491b83614b03565b82815260059290921b84018101918181019086841115614b6757600080fd5b8286015b84811015614b825780358352918301918301614b6b565b509695505050505050565b600080600080600060a08688031215614ba557600080fd5b8535614bb081614744565b94506020860135614bc081614744565b9350604086013567ffffffffffffffff80821115614bdd57600080fd5b614be989838a01614b27565b94506060880135915080821115614bff57600080fd5b614c0b89838a01614b27565b93506080880135915080821115614c2157600080fd5b50614c2e888289016148fc565b9150509295509295909350565b6000806000806000806000610140888a031215614c5757600080fd5b8735614c6281614744565b96506020880135614c7281614744565b955060408801359450606088013593506080880135925060a0880135614c9781614759565b9150614ca68960c08a016147c6565b905092959891949750929550565b600080600080600060a08688031215614ccc57600080fd5b8535614cd781614744565b94506020860135614ce781614744565b93506040860135925060608601359150608086013567ffffffffffffffff811115614d1157600080fd5b614c2e888289016148fc565b600060208284031215614d2f57600080fd5b8135612c3181614744565b60008060008060008060a08789031215614d5357600080fd5b8635614d5e81614744565b95506020870135614d6e81614744565b94506040870135935060608701359250608087013567ffffffffffffffff80821115614d9957600080fd5b818901915089601f830112614dad57600080fd5b813581811115614dbc57600080fd5b8a6020828501011115614dce57600080fd5b6020830194508093505050509295509295509295565b8051614def81614744565b919050565b600060208284031215614e0657600080fd5b8151612c3181614744565b8051614def81614759565b80518015158114614def57600080fd5b600060e08284031215614e3e57600080fd5b614e466146cd565b825167ffffffffffffffff81168114614e5e57600080fd5b8152614e6c60208401614e11565b6020820152614e7d60408401614e1c565b6040820152614e8e60608401614de4565b6060820152614e9f60808401614de4565b608082015260a083015160a082015260c083015160c08201528091505092915050565b6000614ed061491b846148d4565b9050828152838383011115614ee457600080fd5b612c31836020830184614987565b600082601f830112614f0357600080fd5b612c3183835160208501614ec2565b600060208284031215614f2457600080fd5b815167ffffffffffffffff811115614f3b57600080fd5b6144cc84828501614ef2565b634e487b7160e01b600052601160045260246000fd5b8181038181111561048f5761048f614f47565b81835281816020850137506000828201602090810191909152601f909101601f19169091010190565b6020815260008235614faa81614744565b6001600160a01b03811660208401525060208301356040830152604083013560608301526060830135601e19843603018112614fe557600080fd5b830160208101903567ffffffffffffffff81111561500257600080fd5b80360382131561501157600080fd5b60808085015261502560a085018284614f70565b95945050505050565b60008060006060848603121561504357600080fd5b83519250602084015161505581614744565b604085015190925067ffffffffffffffff81111561507257600080fd5b61507e86828701614ef2565b9150509250925092565b60008060006060848603121561509d57600080fd5b83516150a881614744565b602085015190935061505581614744565b6000602082840312156150cb57600080fd5b5051919050565b60008060008060008060c087890312156150eb57600080fd5b8651955060208701519450604087015161510481614759565b80945050606087015192506080870151915060a087015167ffffffffffffffff81111561513057600080fd5b61513c89828a01614ef2565b9150509295509295509295565b600082601f83011261515a57600080fd5b8151602061516a61491b83614b03565b8281526060928302850182019282820191908785111561518957600080fd5b8387015b858110156151fe57808903828112156151a65760008081fd5b6151ae6146a4565b6040808312156151be5760008081fd5b6151c66146a4565b925083516151d381614744565b8352838801516151e281614759565b838901529181529082015181870152845292840192810161518d565b5090979650505050505050565b6000806000806080858703121561522157600080fd5b845167ffffffffffffffff8082111561523957600080fd5b61524588838901615149565b9550602087015191508082111561525b57600080fd5b5061526887828801615149565b604087015160609097015195989097509350505050565b60007f800000000000000000000000000000000000000000000000000000000000000082036152b0576152b0614f47565b5060000390565b600081518084526020808501945080840160005b83811015615308578151805180516001600160a01b0316895284015160ff16848901528301516040880152606090960195908201906001016152cb565b509495945050505050565b60608152600061532660608301866152b7565b6001600160a01b0385166020840152828103604084015261534781856149ab565b9695505050505050565b60006020828403121561536357600080fd5b815167ffffffffffffffff8082111561537b57600080fd5b908301906080828603121561538f57600080fd5b6153976146f0565b82516153a281614744565b8082525060208301516020820152604083015160408201526060830151828111156153cc57600080fd5b6153d887828601614ef2565b60608301525095945050505050565b602081526000612c3160208301846152b7565b60608152600061540d60608301856152b7565b6001600160a01b0384166020840152828103604084015260008152602081019150509392505050565b8082018082111561048f5761048f614f47565b6001600160a01b038416815282602082015260606040820152600061502560608301846149ab565b80516fffffffffffffffffffffffffffffffff81168114614def57600080fd5b600060a082840312156154a357600080fd5b60405160a0810181811067ffffffffffffffff821117156154c6576154c661468e565b60405282516154d481614744565b81526020830151600381106154e857600080fd5b60208201526154f960408401615471565b604082015261550a60608401615471565b6060820152608083015161551d81614744565b60808201529392505050565b60ff828116828216039081111561048f5761048f614f47565b60006001600160a01b0380861683528085166020840152506060604083015261502560608301846149ab565b60ff841681526001600160a01b038316602082015260606040820152600061502560608301846149ab565b6000602082840312156155ab57600080fd5b612c3182614e1c565b600082601f8301126155c557600080fd5b813560206155d561491b83614b03565b828152606092830285018201928282019190878511156155f457600080fd5b8387015b858110156151fe5781818a0312156156105760008081fd5b6156186146a4565b6156228a83614768565b815260408201358682015284529284019281016155f8565b60008060008060008060c0878903121561565357600080fd5b863561565e81614744565b9550602087013567ffffffffffffffff8082111561567b57600080fd5b6156878a838b016155b4565b9650604089013591508082111561569d57600080fd5b506156aa89828a016155b4565b945050606087013592506080870135915060a087013590509295509295509295565b6000608082840312156156de57600080fd5b6156e66146f0565b8235815260208301356156f881614759565b6020820152604083810135908201526060928301359281019290925250919050565b60006020828403121561572c57600080fd5b8135612c3181614759565b60ff818116838216019081111561048f5761048f614f47565b86815285602082015260ff8516604082015283606082015282608082015260c060a082015260006142e760c08301846149ab565b8381526001600160a01b038316602082015260606040820152600061502560608301846149ab565b60006001600160a01b038087168352808616602084015250608060408301526157d860808301856152b7565b82810360608401526145bb81856149ab565b600082516157fc818460208701614987565b9190910192915050565b634e487b7160e01b600052603260045260246000fd5b6001600160a01b038716815260c06020820152600061583e60c08301886152b7565b828103604084015261585081886152b7565b60608401969096525050608081019290925260a0909101529392505050565b6001600160a01b038716815261ffff8616602082015267ffffffffffffffff8516604082015283606082015260ff8316608082015260c060a082015260006142e760c08301846149ab565b6000600182016158cc576158cc614f47565b5060010190565b600081518084526020808501945080840160005b83811015615308578151875295820195908201906001016158e7565b60006001600160a01b03808816835260a0602084015261592660a08401886158d3565b838103604085015261593881886158d3565b90508186166060850152838103608085015261595481866149ab565b9998505050505050505050565b60006020828403121561597357600080fd5b815167ffffffffffffffff81111561598a57600080fd5b8201601f8101841361599b57600080fd5b6144cc84825160208401614ec2565b600083516159bc818460208801614987565b7f20426f6e6420436f75706f6e202800000000000000000000000000000000000090830190815283516159f681600e840160208801614987565b7f2900000000000000000000000000000000000000000000000000000000000000600e9290910191820152600f01949350505050565b8051602080830151919081101561410c5760001960209190910360031b1b16919050565b60008351615a62818460208801614987565b7f2d435000000000000000000000000000000000000000000000000000000000009083019081528351615a9c816003840160208801614987565b01600301949350505050565b600060208284031215615aba57600080fd5b8151612c3181614759565b60008351615ad7818460208801614987565b835190830190615aeb818360208801614987565b01949350505050565b634e487b7160e01b600052601260045260246000fdfea264697066735822122092cd6043073e5f242c1f7a453d574b91904b41e2f24e306dc8b014385581acbc64736f6c63430008130033",
  "devdoc": {
    "kind": "dev",
    "methods": {
      "owner()": {
        "details": "Returns the address of the current owner."
      },
      "renounceOwnership()": {
        "details": "Leaves the contract without owner. It will not be possible to call `onlyOwner` functions. Can only be called by the current owner. NOTE: Renouncing ownership will leave the contract without an owner, thereby disabling any functionality that is only available to the owner."
      },
      "supportsInterface(bytes4)": {
        "details": "See {IERC165-supportsInterface}."
      },
      "transferOwnership(address)": {
        "details": "Transfers ownership of the contract to a new account (`newOwner`). Can only be called by the current owner."
      }
    },
    "version": 1
  },
  "userdoc": {
    "kind": "user",
    "methods": {},
    "version": 1
  },
  "storageLayout": {
    "storage": [
      {
        "astId": 7,
        "contract": "contracts/BorrowController.sol:BorrowController",
        "label": "_owner",
        "offset": 0,
        "slot": "0",
        "type": "t_address"
      },
      {
        "astId": 21331,
        "contract": "contracts/BorrowController.sol:BorrowController",
        "label": "_locked",
        "offset": 0,
        "slot": "1",
        "type": "t_uint256"
      },
      {
        "astId": 18375,
        "contract": "contracts/BorrowController.sol:BorrowController",
        "label": "_couponMarkets",
        "offset": 0,
        "slot": "2",
        "type": "t_mapping(t_uint256,t_address)"
      }
    ],
    "types": {
      "t_address": {
        "encoding": "inplace",
        "label": "address",
        "numberOfBytes": "20"
      },
      "t_mapping(t_uint256,t_address)": {
        "encoding": "mapping",
        "key": "t_uint256",
        "label": "mapping(uint256 => address)",
        "numberOfBytes": "32",
        "value": "t_address"
      },
      "t_uint256": {
        "encoding": "inplace",
        "label": "uint256",
        "numberOfBytes": "32"
      }
    }
  }
}