{
  "address": "0x06ad1569cc3f430D16f906D21Cd2D1DA6eCA8e48",
  "abi": [
    {
      "inputs": [
        {
          "internalType": "address",
          "name": "wrapped1155Factory",
          "type": "address"
        },
        {
          "internalType": "address",
          "name": "cloberMarketFactory",
          "type": "address"
        },
        {
          "internalType": "address",
          "name": "couponManager",
          "type": "address"
        },
        {
          "internalType": "address",
          "name": "weth",
          "type": "address"
        },
        {
          "internalType": "address",
          "name": "loanManager",
          "type": "address"
        }
      ],
      "stateMutability": "nonpayable",
      "type": "constructor"
    },
    {
      "inputs": [
        {
          "internalType": "string",
          "name": "reason",
          "type": "string"
        }
      ],
      "name": "CollateralSwapFailed",
      "type": "error"
    },
    {
      "inputs": [],
      "name": "ControllerSlippage",
      "type": "error"
    },
    {
      "inputs": [],
      "name": "EpochOverflow",
      "type": "error"
    },
    {
      "inputs": [],
      "name": "InvalidAccess",
      "type": "error"
    },
    {
      "inputs": [],
      "name": "InvalidDebtAmount",
      "type": "error"
    },
    {
      "inputs": [],
      "name": "InvalidMarket",
      "type": "error"
    },
    {
      "inputs": [],
      "name": "Reentrancy",
      "type": "error"
    },
    {
      "inputs": [],
      "name": "ValueTransferFailed",
      "type": "error"
    },
    {
      "anonymous": false,
      "inputs": [
        {
          "indexed": true,
          "internalType": "address",
          "name": "previousOwner",
          "type": "address"
        },
        {
          "indexed": true,
          "internalType": "address",
          "name": "newOwner",
          "type": "address"
        }
      ],
      "name": "OwnershipTransferred",
      "type": "event"
    },
    {
      "inputs": [
        {
          "internalType": "uint256",
          "name": "positionId",
          "type": "uint256"
        },
        {
          "internalType": "uint256",
          "name": "amount",
          "type": "uint256"
        },
        {
          "components": [
            {
              "internalType": "uint256",
              "name": "deadline",
              "type": "uint256"
            },
            {
              "internalType": "uint8",
              "name": "v",
              "type": "uint8"
            },
            {
              "internalType": "bytes32",
              "name": "r",
              "type": "bytes32"
            },
            {
              "internalType": "bytes32",
              "name": "s",
              "type": "bytes32"
            }
          ],
          "internalType": "struct PermitParams",
          "name": "positionPermitParams",
          "type": "tuple"
        },
        {
          "components": [
            {
              "internalType": "uint256",
              "name": "deadline",
              "type": "uint256"
            },
            {
              "internalType": "uint8",
              "name": "v",
              "type": "uint8"
            },
            {
              "internalType": "bytes32",
              "name": "r",
              "type": "bytes32"
            },
            {
              "internalType": "bytes32",
              "name": "s",
              "type": "bytes32"
            }
          ],
          "internalType": "struct PermitParams",
          "name": "collateralPermitParams",
          "type": "tuple"
        }
      ],
      "name": "addCollateral",
      "outputs": [],
      "stateMutability": "payable",
      "type": "function"
    },
    {
      "inputs": [
        {
          "internalType": "address",
          "name": "collateralToken",
          "type": "address"
        },
        {
          "internalType": "address",
          "name": "debtToken",
          "type": "address"
        },
        {
          "internalType": "uint256",
          "name": "collateralAmount",
          "type": "uint256"
        },
        {
          "internalType": "uint256",
          "name": "borrowAmount",
          "type": "uint256"
        },
        {
          "internalType": "uint256",
          "name": "maxPayInterest",
          "type": "uint256"
        },
        {
          "internalType": "uint8",
          "name": "loanEpochs",
          "type": "uint8"
        },
        {
          "components": [
            {
              "internalType": "uint256",
              "name": "deadline",
              "type": "uint256"
            },
            {
              "internalType": "uint8",
              "name": "v",
              "type": "uint8"
            },
            {
              "internalType": "bytes32",
              "name": "r",
              "type": "bytes32"
            },
            {
              "internalType": "bytes32",
              "name": "s",
              "type": "bytes32"
            }
          ],
          "internalType": "struct PermitParams",
          "name": "collateralPermitParams",
          "type": "tuple"
        }
      ],
      "name": "borrow",
      "outputs": [],
      "stateMutability": "payable",
      "type": "function"
    },
    {
      "inputs": [
        {
          "internalType": "uint256",
          "name": "positionId",
          "type": "uint256"
        },
        {
          "internalType": "uint256",
          "name": "amount",
          "type": "uint256"
        },
        {
          "internalType": "uint256",
          "name": "maxPayInterest",
          "type": "uint256"
        },
        {
          "components": [
            {
              "internalType": "uint256",
              "name": "deadline",
              "type": "uint256"
            },
            {
              "internalType": "uint8",
              "name": "v",
              "type": "uint8"
            },
            {
              "internalType": "bytes32",
              "name": "r",
              "type": "bytes32"
            },
            {
              "internalType": "bytes32",
              "name": "s",
              "type": "bytes32"
            }
          ],
          "internalType": "struct PermitParams",
          "name": "positionPermitParams",
          "type": "tuple"
        }
      ],
      "name": "borrowMore",
      "outputs": [],
      "stateMutability": "nonpayable",
      "type": "function"
    },
    {
      "inputs": [
        {
          "internalType": "address",
          "name": "inputToken",
          "type": "address"
        },
        {
          "internalType": "address",
          "name": "",
          "type": "address"
        },
        {
          "internalType": "uint256",
          "name": "inputAmount",
          "type": "uint256"
        },
        {
          "internalType": "uint256",
          "name": "outputAmount",
          "type": "uint256"
        },
        {
          "internalType": "bytes",
          "name": "data",
          "type": "bytes"
        }
      ],
      "name": "cloberMarketSwapCallback",
      "outputs": [],
      "stateMutability": "payable",
      "type": "function"
    },
    {
      "inputs": [
        {
          "internalType": "uint256",
          "name": "positionId",
          "type": "uint256"
        },
        {
          "internalType": "uint8",
          "name": "epochs",
          "type": "uint8"
        },
        {
          "internalType": "uint256",
          "name": "maxPayInterest",
          "type": "uint256"
        },
        {
          "components": [
            {
              "internalType": "uint256",
              "name": "deadline",
              "type": "uint256"
            },
            {
              "internalType": "uint8",
              "name": "v",
              "type": "uint8"
            },
            {
              "internalType": "bytes32",
              "name": "r",
              "type": "bytes32"
            },
            {
              "internalType": "bytes32",
              "name": "s",
              "type": "bytes32"
            }
          ],
          "internalType": "struct PermitParams",
          "name": "positionPermitParams",
          "type": "tuple"
        },
        {
          "components": [
            {
              "internalType": "uint256",
              "name": "deadline",
              "type": "uint256"
            },
            {
              "internalType": "uint8",
              "name": "v",
              "type": "uint8"
            },
            {
              "internalType": "bytes32",
              "name": "r",
              "type": "bytes32"
            },
            {
              "internalType": "bytes32",
              "name": "s",
              "type": "bytes32"
            }
          ],
          "internalType": "struct PermitParams",
          "name": "debtPermitParams",
          "type": "tuple"
        }
      ],
      "name": "extendLoanDuration",
      "outputs": [],
      "stateMutability": "payable",
      "type": "function"
    },
    {
      "inputs": [
        {
          "components": [
            {
              "internalType": "address",
              "name": "asset",
              "type": "address"
            },
            {
              "internalType": "Epoch",
              "name": "epoch",
              "type": "uint8"
            }
          ],
          "internalType": "struct CouponKey",
          "name": "couponKey",
          "type": "tuple"
        }
      ],
      "name": "getCouponMarket",
      "outputs": [
        {
          "internalType": "address",
          "name": "",
          "type": "address"
        }
      ],
      "stateMutability": "view",
      "type": "function"
    },
    {
      "inputs": [
        {
          "internalType": "address",
          "name": "",
          "type": "address"
        },
        {
          "internalType": "address",
          "name": "",
          "type": "address"
        },
        {
          "internalType": "uint256[]",
          "name": "",
          "type": "uint256[]"
        },
        {
          "internalType": "uint256[]",
          "name": "",
          "type": "uint256[]"
        },
        {
          "internalType": "bytes",
          "name": "",
          "type": "bytes"
        }
      ],
      "name": "onERC1155BatchReceived",
      "outputs": [
        {
          "internalType": "bytes4",
          "name": "",
          "type": "bytes4"
        }
      ],
      "stateMutability": "nonpayable",
      "type": "function"
    },
    {
      "inputs": [
        {
          "internalType": "address",
          "name": "",
          "type": "address"
        },
        {
          "internalType": "address",
          "name": "",
          "type": "address"
        },
        {
          "internalType": "uint256",
          "name": "",
          "type": "uint256"
        },
        {
          "internalType": "uint256",
          "name": "",
          "type": "uint256"
        },
        {
          "internalType": "bytes",
          "name": "",
          "type": "bytes"
        }
      ],
      "name": "onERC1155Received",
      "outputs": [
        {
          "internalType": "bytes4",
          "name": "",
          "type": "bytes4"
        }
      ],
      "stateMutability": "nonpayable",
      "type": "function"
    },
    {
      "inputs": [],
      "name": "owner",
      "outputs": [
        {
          "internalType": "address",
          "name": "",
          "type": "address"
        }
      ],
      "stateMutability": "view",
      "type": "function"
    },
    {
      "inputs": [
        {
          "internalType": "bytes",
          "name": "data",
          "type": "bytes"
        }
      ],
      "name": "positionLockAcquired",
      "outputs": [
        {
          "internalType": "bytes",
          "name": "result",
          "type": "bytes"
        }
      ],
      "stateMutability": "nonpayable",
      "type": "function"
    },
    {
      "inputs": [
        {
          "internalType": "uint256",
          "name": "positionId",
          "type": "uint256"
        },
        {
          "internalType": "uint256",
          "name": "amount",
          "type": "uint256"
        },
        {
          "components": [
            {
              "internalType": "uint256",
              "name": "deadline",
              "type": "uint256"
            },
            {
              "internalType": "uint8",
              "name": "v",
              "type": "uint8"
            },
            {
              "internalType": "bytes32",
              "name": "r",
              "type": "bytes32"
            },
            {
              "internalType": "bytes32",
              "name": "s",
              "type": "bytes32"
            }
          ],
          "internalType": "struct PermitParams",
          "name": "positionPermitParams",
          "type": "tuple"
        }
      ],
      "name": "removeCollateral",
      "outputs": [],
      "stateMutability": "nonpayable",
      "type": "function"
    },
    {
      "inputs": [],
      "name": "renounceOwnership",
      "outputs": [],
      "stateMutability": "nonpayable",
      "type": "function"
    },
    {
      "inputs": [
        {
          "internalType": "uint256",
          "name": "positionId",
          "type": "uint256"
        },
        {
          "internalType": "uint256",
          "name": "amount",
          "type": "uint256"
        },
        {
          "internalType": "uint256",
          "name": "minEarnInterest",
          "type": "uint256"
        },
        {
          "components": [
            {
              "internalType": "uint256",
              "name": "deadline",
              "type": "uint256"
            },
            {
              "internalType": "uint8",
              "name": "v",
              "type": "uint8"
            },
            {
              "internalType": "bytes32",
              "name": "r",
              "type": "bytes32"
            },
            {
              "internalType": "bytes32",
              "name": "s",
              "type": "bytes32"
            }
          ],
          "internalType": "struct PermitParams",
          "name": "positionPermitParams",
          "type": "tuple"
        },
        {
          "components": [
            {
              "internalType": "uint256",
              "name": "deadline",
              "type": "uint256"
            },
            {
              "internalType": "uint8",
              "name": "v",
              "type": "uint8"
            },
            {
              "internalType": "bytes32",
              "name": "r",
              "type": "bytes32"
            },
            {
              "internalType": "bytes32",
              "name": "s",
              "type": "bytes32"
            }
          ],
          "internalType": "struct PermitParams",
          "name": "debtPermitParams",
          "type": "tuple"
        }
      ],
      "name": "repay",
      "outputs": [],
      "stateMutability": "payable",
      "type": "function"
    },
    {
      "inputs": [
        {
          "internalType": "uint256",
          "name": "positionId",
          "type": "uint256"
        },
        {
          "internalType": "uint256",
          "name": "maxDebtAmount",
          "type": "uint256"
        },
        {
          "components": [
            {
              "internalType": "address",
              "name": "swap",
              "type": "address"
            },
            {
              "internalType": "uint256",
              "name": "inAmount",
              "type": "uint256"
            },
            {
              "internalType": "uint256",
              "name": "minOutAmount",
              "type": "uint256"
            },
            {
              "internalType": "bytes",
              "name": "data",
              "type": "bytes"
            }
          ],
          "internalType": "struct IBorrowController.SwapData",
          "name": "swapData",
          "type": "tuple"
        },
        {
          "components": [
            {
              "internalType": "uint256",
              "name": "deadline",
              "type": "uint256"
            },
            {
              "internalType": "uint8",
              "name": "v",
              "type": "uint8"
            },
            {
              "internalType": "bytes32",
              "name": "r",
              "type": "bytes32"
            },
            {
              "internalType": "bytes32",
              "name": "s",
              "type": "bytes32"
            }
          ],
          "internalType": "struct PermitParams",
          "name": "positionPermitParams",
          "type": "tuple"
        }
      ],
      "name": "repayWithCollateral",
      "outputs": [],
      "stateMutability": "nonpayable",
      "type": "function"
    },
    {
      "inputs": [
        {
          "internalType": "address",
          "name": "collateralToken",
          "type": "address"
        }
      ],
      "name": "setCollateralAllowance",
      "outputs": [],
      "stateMutability": "nonpayable",
      "type": "function"
    },
    {
      "inputs": [
        {
          "components": [
            {
              "internalType": "address",
              "name": "asset",
              "type": "address"
            },
            {
              "internalType": "Epoch",
              "name": "epoch",
              "type": "uint8"
            }
          ],
          "internalType": "struct CouponKey",
          "name": "couponKey",
          "type": "tuple"
        },
        {
          "internalType": "address",
          "name": "cloberMarket",
          "type": "address"
        }
      ],
      "name": "setCouponMarket",
      "outputs": [],
      "stateMutability": "nonpayable",
      "type": "function"
    },
    {
      "inputs": [
        {
          "internalType": "uint256",
          "name": "positionId",
          "type": "uint256"
        },
        {
          "internalType": "uint8",
          "name": "epochs",
          "type": "uint8"
        },
        {
          "internalType": "uint256",
          "name": "minEarnInterest",
          "type": "uint256"
        },
        {
          "components": [
            {
              "internalType": "uint256",
              "name": "deadline",
              "type": "uint256"
            },
            {
              "internalType": "uint8",
              "name": "v",
              "type": "uint8"
            },
            {
              "internalType": "bytes32",
              "name": "r",
              "type": "bytes32"
            },
            {
              "internalType": "bytes32",
              "name": "s",
              "type": "bytes32"
            }
          ],
          "internalType": "struct PermitParams",
          "name": "positionPermitParams",
          "type": "tuple"
        }
      ],
      "name": "shortenLoanDuration",
      "outputs": [],
      "stateMutability": "nonpayable",
      "type": "function"
    },
    {
      "inputs": [
        {
          "internalType": "bytes4",
          "name": "interfaceId",
          "type": "bytes4"
        }
      ],
      "name": "supportsInterface",
      "outputs": [
        {
          "internalType": "bool",
          "name": "",
          "type": "bool"
        }
      ],
      "stateMutability": "view",
      "type": "function"
    },
    {
      "inputs": [
        {
          "internalType": "address",
          "name": "newOwner",
          "type": "address"
        }
      ],
      "name": "transferOwnership",
      "outputs": [],
      "stateMutability": "nonpayable",
      "type": "function"
    },
    {
      "stateMutability": "payable",
      "type": "receive"
    }
  ],
  "transactionHash": "0x625602b6477750733301c70349d552f8b1908dd3b7e67db8a98556d7140471b9",
  "args": [
    "0xfcBE16BfD991E4949244E59d9b524e6964b8BB75",
    "0x24aC0938C010Fb520F1068e96d78E0458855111D",
    "0x00644a534bDea310ee2FCCF1c2821Df769A0b12F",
    "0x82aF49447D8a07e3bd95BD0d56f35241523fBab1",
    "0xDbAb42F029333BF720814732Bb3e3D74c074B558"
  ],
  "numDeployments": 1,
  "solcInputHash": "8341a0300ed40a8c4fa0bc45c0cf56b3",
  "bytecode": "0x6101206040526001805534801562000015575f80fd5b5060405162005c0238038062005c028339810160408190526200003891620000e0565b84848484620000473362000075565b6001600160a01b0393841660805291831660a052821660c052811660e0521661010052506200014c92505050565b5f80546001600160a01b038381166001600160a01b0319831681178455604051919092169283917f8be0079c531659141344cd1fd0a4f28419497f9722a3daafe3b4186f6b6457e09190a35050565b80516001600160a01b0381168114620000db575f80fd5b919050565b5f805f805f60a08688031215620000f5575f80fd5b6200010086620000c4565b94506200011060208701620000c4565b93506200012060408701620000c4565b92506200013060608701620000c4565b91506200014060808701620000c4565b90509295509295909350565b60805160a05160c05160e051610100516158f76200030b5f395f81816104c5015281816105d10152818161060f015281816106b6015281816107c201528181610857015281816108950152818161096e01528181610a7001528181610b0501528181610b4301528181610bdc01528181610caa01528181610d6c01528181610e1701528181610f1a01528181610f980152818161108a0152818161110f01528181611214015281816112780152818161134e01528181611442015281816114b8015281816115b701528181611624015281816116bd015281816117750152818161180a01528181611848015281816118d60152818161196801528181611a7401528181611ab201528181611b4f01528181611f05015281816120110152818161204f015281816120ec0152818161217e0152818161221301528181612251015281816122df01528181612527015281816125e9015261270b01525f818161055d01528181611a0001528181611f9d015281816123cf01528181612d720152612e3101525f8181611c0801528181612f930152613bd701525f8181611cc301526127c001525f8181611bd901528181612fc30152613ba801526158f75ff3fe608060405260043610610140575f3560e01c806376c14af0116100bb578063c61bf29711610071578063f2fde38b11610057578063f2fde38b146103c2578063f89a919c146103e1578063fd235fda14610400575f80fd5b8063c61bf2971461036b578063f23a6e611461037e575f80fd5b8063968c279f116100a1578063968c279f146102dc578063afead2e3146102ef578063bc197c811461030e575f80fd5b806376c14af0146102a15780638da5cb5b146102c0575f80fd5b8063469ac35b116101105780636d3a8534116100f65780636d3a85341461025b5780636e63fb991461027a578063715018a61461028d575f80fd5b8063469ac35b1461021057806346a114e21461022f575f80fd5b806301ffc9a71461014b57806314b324861461017f57806323b1a965146101dc57806341508b66146101f1575f80fd5b3661014757005b5f80fd5b348015610156575f80fd5b5061016a6101653660046144d5565b610413565b60405190151581526020015b60405180910390f35b34801561018a575f80fd5b506101c4610199366004614612565b602081810151915160a09290921b9091015f908152600290915260409020546001600160a01b031690565b6040516001600160a01b039091168152602001610176565b6101ef6101ea36600461463c565b61047b565b005b3480156101fc575f80fd5b506101ef61020b366004614694565b610778565b34801561021b575f80fd5b506101ef61022a3660046146f2565b610a26565b34801561023a575f80fd5b5061024e6102493660046147a6565b610c9d565b6040516101769190614825565b348015610266575f80fd5b506101ef610275366004614837565b61172b565b6101ef610288366004614869565b61191e565b348015610298575f80fd5b506101ef611b97565b3480156102ac575f80fd5b506101ef6102bb36600461489d565b611baa565b3480156102cb575f80fd5b505f546001600160a01b03166101c4565b6101ef6102ea3660046148d3565b611ebb565b3480156102fa575f80fd5b506101ef61030936600461490e565b612134565b348015610319575f80fd5b506103526103283660046149c7565b7fbc197c810000000000000000000000000000000000000000000000000000000095945050505050565b6040516001600160e01b03199091168152602001610176565b6101ef610379366004614a6e565b61239f565b348015610389575f80fd5b50610352610398366004614ae2565b7ff23a6e610000000000000000000000000000000000000000000000000000000095945050505050565b3480156103cd575f80fd5b506101ef6103dc366004614b46565b612657565b3480156103ec575f80fd5b506101ef6103fb366004614b46565b6126ec565b6101ef61040e366004614b61565b612788565b5f6001600160e01b031982167f4e2312e000000000000000000000000000000000000000000000000000000000148061047557507f01ffc9a7000000000000000000000000000000000000000000000000000000006001600160e01b03198316145b92915050565b60015460011461049e5760405163558a1e0360e11b815260040160405180910390fd5b60026001556040516331a9108f60e11b815260048101869052859033906001600160a01b037f00000000000000000000000000000000000000000000000000000000000000001690636352211e90602401602060405180830381865afa15801561050a573d5f803e3d5ffd5b505050506040513d601f19601f8201168201806040525081019061052e9190614c13565b6001600160a01b03161461055557604051633006171960e21b815260040160405180910390fd5b34156105cc577f00000000000000000000000000000000000000000000000000000000000000006001600160a01b031663d0e30db0346040518263ffffffff1660e01b81526004015f604051808303818588803b1580156105b4575f80fd5b505af11580156105c6573d5f803e3d5ffd5b50505050505b6105f77f0000000000000000000000000000000000000000000000000000000000000000878561297d565b60405163eb02c30160e01b8152600481018790525f907f00000000000000000000000000000000000000000000000000000000000000006001600160a01b03169063eb02c3019060240160e060405180830381865afa15801561065c573d5f803e3d5ffd5b505050506040513d601f19601f820116820180604052508101906106809190614c48565b905061069181606001518685612a41565b60208101516106a39060ff1687612b37565b816020019060ff16908160ff16815250507f00000000000000000000000000000000000000000000000000000000000000006001600160a01b031663815483196106fe8984895f60405180602001604052805f815250612b49565b6040518263ffffffff1660e01b815260040161071a9190614825565b5f604051808303815f875af1158015610735573d5f803e3d5ffd5b505050506040513d5f823e601f3d908101601f1916820160405261075c9190810190614d27565b5061076b816080015133612bb4565b5050600180555050505050565b60015460011461079b5760405163558a1e0360e11b815260040160405180910390fd5b60026001556040516331a9108f60e11b815260048101859052849033906001600160a01b037f00000000000000000000000000000000000000000000000000000000000000001690636352211e90602401602060405180830381865afa158015610807573d5f803e3d5ffd5b505050506040513d601f19601f8201168201806040525081019061082b9190614c13565b6001600160a01b03161461085257604051633006171960e21b815260040160405180910390fd5b61087d7f0000000000000000000000000000000000000000000000000000000000000000868461297d565b60405163eb02c30160e01b8152600481018690525f907f00000000000000000000000000000000000000000000000000000000000000006001600160a01b03169063eb02c3019060240160e060405180830381865afa1580156108e2573d5f803e3d5ffd5b505050506040513d601f19601f820116820180604052508101906109069190614c48565b90508060c001518510610945576040517f5aa57e2300000000000000000000000000000000000000000000000000000000815260040160405180910390fd5b83602001358160a00181815161095b9190614d6d565b91508181525050848160c00181815250507f00000000000000000000000000000000000000000000000000000000000000006001600160a01b031663815483196109c888845f195f8a6040516020016109b49190614da8565b604051602081830303815290604052612b49565b6040518263ffffffff1660e01b81526004016109e49190614825565b5f604051808303815f875af11580156109ff573d5f803e3d5ffd5b505050506040513d5f823e601f3d908101601f1916820160405261076b9190810190614d27565b600154600114610a495760405163558a1e0360e11b815260040160405180910390fd5b60026001556040516331a9108f60e11b815260048101859052849033906001600160a01b037f00000000000000000000000000000000000000000000000000000000000000001690636352211e90602401602060405180830381865afa158015610ab5573d5f803e3d5ffd5b505050506040513d601f19601f82011682018060405250810190610ad99190614c13565b6001600160a01b031614610b0057604051633006171960e21b815260040160405180910390fd5b610b2b7f0000000000000000000000000000000000000000000000000000000000000000868461297d565b60405163eb02c30160e01b8152600481018690525f907f00000000000000000000000000000000000000000000000000000000000000006001600160a01b03169063eb02c3019060240160e060405180830381865afa158015610b90573d5f803e3d5ffd5b505050506040513d601f19601f82011682018060405250810190610bb49190614c48565b6020810151909150610bc99060ff1686612f86565b816020019060ff16908160ff16815250507f00000000000000000000000000000000000000000000000000000000000000006001600160a01b03166381548319610c2488845f8960405180602001604052805f815250612b49565b6040518263ffffffff1660e01b8152600401610c409190614825565b5f604051808303815f875af1158015610c5b573d5f803e3d5ffd5b505050506040513d5f823e601f3d908101601f19168201604052610c829190810190614d27565b50610c91816080015133612bb4565b50506001805550505050565b6060336001600160a01b037f00000000000000000000000000000000000000000000000000000000000000001614610ce857604051633006171960e21b815260040160405180910390fd5b5f8083806020019051810190610cfe9190614e39565b955090925090505f829003610dff575f8085806020019051810190610d239190614e8f565b6040517fee1fe2ad0000000000000000000000000000000000000000000000000000000081526001600160a01b03808516600483015280841660248301529199509294509092507f0000000000000000000000000000000000000000000000000000000000000000169063ee1fe2ad906044016020604051808303815f875af1158015610db2573d5f803e3d5ffd5b505050506040513d601f19601f82011682018060405250810190610dd69190614ebd565b935083604051602001610deb91815260200190565b604051602081830303815290604052945050505b60405163eb02c30160e01b8152600481018390525f907f00000000000000000000000000000000000000000000000000000000000000006001600160a01b03169063eb02c3019060240160e060405180830381865afa158015610e64573d5f803e3d5ffd5b505050506040513d601f19601f82011682018060405250810190610e889190614c48565b90505f80606087806020019051810190610ea29190614ed4565b60ff90931660208a0181905260c08a0185905260a08a018690526040517fc18927c5000000000000000000000000000000000000000000000000000000008152600481018d9052602481019690965260448601949094526064850193909352955090935091505f908190819081906001600160a01b037f0000000000000000000000000000000000000000000000000000000000000000169063c18927c5906084015f604051808303815f875af1158015610f5f573d5f803e3d5ffd5b505050506040513d5f823e601f3d908101601f19168201604052610f869190810190615003565b93509350935093505f821215611038577f00000000000000000000000000000000000000000000000000000000000000006001600160a01b03166301e3366789606001513085610fd590615072565b6040516001600160e01b031960e086901b1681526001600160a01b03938416600482015292909116602483015260448201526064015f604051808303815f87803b158015611021575f80fd5b505af1158015611033573d5f803e3d5ffd5b505050505b5f8113156110e45760808801516040517f01e336670000000000000000000000000000000000000000000000000000000081526001600160a01b039182166004820152306024820152604481018390527f0000000000000000000000000000000000000000000000000000000000000000909116906301e33667906064015f604051808303815f87803b1580156110cd575f80fd5b505af11580156110df573d5f803e3d5ffd5b505050505b82511561117d57604080515f81526020810191829052630f0b076560e01b9091526001600160a01b037f00000000000000000000000000000000000000000000000000000000000000001690630f0b076590611147908690309060248101615102565b5f604051808303815f87803b15801561115e575f80fd5b505af1158015611170573d5f803e3d5ffd5b5050505061117d83612f91565b8451156111aa576111aa8580602001905181019061119b919061513f565b89606001518a60800151613034565b6111d289896080015186865f86126111c2575f6111cb565b6111cb86615072565b8c8c61344a565b5f82131561126e576111e988606001518a84613834565b60608801516040516319c5aef560e11b81526001600160a01b039182166004820152602481018490527f00000000000000000000000000000000000000000000000000000000000000009091169063338b5dea906044015f604051808303815f87803b158015611257575f80fd5b505af1158015611269573d5f803e3d5ffd5b505050505b5f81121561130e577f00000000000000000000000000000000000000000000000000000000000000006001600160a01b031663338b5dea8960800151836112b490615072565b6040516001600160e01b031960e085901b1681526001600160a01b03909216600483015260248201526044015f604051808303815f87803b1580156112f7575f80fd5b505af1158015611309573d5f803e3d5ffd5b505050505b8351156113b15761131e84613a78565b6040517f430c114b0000000000000000000000000000000000000000000000000000000081526001600160a01b037f0000000000000000000000000000000000000000000000000000000000000000169063430c114b906113839087906004016151d0565b5f604051808303815f87803b15801561139a575f80fd5b505af11580156113ac573d5f803e3d5ffd5b505050505b84511561168e5760808801516040516370a0823160e01b81523060048201525f916001600160a01b0316906370a0823190602401602060405180830381865afa158015611400573d5f803e3d5ffd5b505050506040513d601f19601f820116820180604052508101906114249190614ebd565b9050801561168c5760405163eb02c30160e01b8152600481018c90527f00000000000000000000000000000000000000000000000000000000000000006001600160a01b03169063eb02c3019060240160e060405180830381865afa15801561148f573d5f803e3d5ffd5b505050506040513d601f19601f820116820180604052508101906114b39190614c48565b98505f7f00000000000000000000000000000000000000000000000000000000000000006001600160a01b031663c18927c58d8c60a00151858e60c00151116114fc575f61150c565b858e60c0015161150c9190614d6d565b60208f01516040516001600160e01b031960e087901b16815260048101949094526024840192909252604483015260ff1660648201526084015f604051808303815f875af1158015611560573d5f803e3d5ffd5b505050506040513d5f823e601f3d908101601f191682016040526115879190810190615003565b505060808c01516040516319c5aef560e11b81526001600160a01b039182166004820152602481018690529193507f000000000000000000000000000000000000000000000000000000000000000016915063338b5dea906044015f604051808303815f87803b1580156115f9575f80fd5b505af115801561160b573d5f803e3d5ffd5b5050604051630f0b076560e01b81526001600160a01b037f0000000000000000000000000000000000000000000000000000000000000000169250630f0b0765915061165d9084908f906004016151e2565b5f604051808303815f87803b158015611674575f80fd5b505af1158015611686573d5f803e3d5ffd5b50505050505b505b6040517faba5b4b3000000000000000000000000000000000000000000000000000000008152600481018b90527f00000000000000000000000000000000000000000000000000000000000000006001600160a01b03169063aba5b4b3906024015f604051808303815f87803b158015611706575f80fd5b505af1158015611718573d5f803e3d5ffd5b5050505050505050505050505050919050565b60015460011461174e5760405163558a1e0360e11b815260040160405180910390fd5b60026001556040516331a9108f60e11b815260048101859052849033906001600160a01b037f00000000000000000000000000000000000000000000000000000000000000001690636352211e90602401602060405180830381865afa1580156117ba573d5f803e3d5ffd5b505050506040513d601f19601f820116820180604052508101906117de9190614c13565b6001600160a01b03161461180557604051633006171960e21b815260040160405180910390fd5b6118307f0000000000000000000000000000000000000000000000000000000000000000868461297d565b60405163eb02c30160e01b8152600481018690525f907f00000000000000000000000000000000000000000000000000000000000000006001600160a01b03169063eb02c3019060240160e060405180830381865afa158015611895573d5f803e3d5ffd5b505050506040513d601f19601f820116820180604052508101906118b99190614c48565b9050848160c0018181516118cd919061521c565b915081815250507f00000000000000000000000000000000000000000000000000000000000000006001600160a01b03166381548319610c248884885f60405180602001604052805f815250612b49565b6001546001146119415760405163558a1e0360e11b815260040160405180910390fd5b60026001556040516331a9108f60e11b815260048101869052859033906001600160a01b037f00000000000000000000000000000000000000000000000000000000000000001690636352211e90602401602060405180830381865afa1580156119ad573d5f803e3d5ffd5b505050506040513d601f19601f820116820180604052508101906119d19190614c13565b6001600160a01b0316146119f857604051633006171960e21b815260040160405180910390fd5b3415611a6f577f00000000000000000000000000000000000000000000000000000000000000006001600160a01b031663d0e30db0346040518263ffffffff1660e01b81526004015f604051808303818588803b158015611a57575f80fd5b505af1158015611a69573d5f803e3d5ffd5b50505050505b611a9a7f0000000000000000000000000000000000000000000000000000000000000000878561297d565b60405163eb02c30160e01b8152600481018790525f907f00000000000000000000000000000000000000000000000000000000000000006001600160a01b03169063eb02c3019060240160e060405180830381865afa158015611aff573d5f803e3d5ffd5b505050506040513d601f19601f82011682018060405250810190611b239190614c48565b9050611b3481608001518785612a41565b858160c001818151611b469190614d6d565b915081815250507f00000000000000000000000000000000000000000000000000000000000000006001600160a01b031663815483196106fe89845f8a60405180602001604052805f815250612b49565b611b9f613c22565b611ba85f613c7b565b565b611bb2613c22565b5f611bbc83613cd7565b90505f611bd4846020810151905160a09190911b0190565b90505f7f00000000000000000000000000000000000000000000000000000000000000006001600160a01b03166308b2ea5e7f000000000000000000000000000000000000000000000000000000000000000084866040518463ffffffff1660e01b8152600401611c479392919061522f565b602060405180830381865afa158015611c62573d5f803e3d5ffd5b505050506040513d601f19601f82011682018060405250810190611c869190614c13565b6040517f0cf85bcc0000000000000000000000000000000000000000000000000000000081526001600160a01b0386811660048301529192505f917f00000000000000000000000000000000000000000000000000000000000000001690630cf85bcc9060240160a060405180830381865afa158015611d08573d5f803e3d5ffd5b505050506040513d601f19601f82011682018060405250810190611d2c9190615275565b80519091506001600160a01b0316611d5757604051639db8d5b160e01b815260040160405180910390fd5b816001600160a01b0316856001600160a01b031663c55dae636040518163ffffffff1660e01b8152600401602060405180830381865afa158015611d9d573d5f803e3d5ffd5b505050506040513d601f19601f82011682018060405250810190611dc19190614c13565b6001600160a01b031614611de857604051639db8d5b160e01b815260040160405180910390fd5b855f01516001600160a01b0316856001600160a01b031663217a4b706040518163ffffffff1660e01b8152600401602060405180830381865afa158015611e31573d5f803e3d5ffd5b505050506040513d601f19601f82011682018060405250810190611e559190614c13565b6001600160a01b031614611e7c57604051639db8d5b160e01b815260040160405180910390fd5b50505f908152600260205260409020805473ffffffffffffffffffffffffffffffffffffffff19166001600160a01b0393909316929092179091555050565b600154600114611ede5760405163558a1e0360e11b815260040160405180910390fd5b60026001556040516331a9108f60e11b815260048101859052849033906001600160a01b037f00000000000000000000000000000000000000000000000000000000000000001690636352211e90602401602060405180830381865afa158015611f4a573d5f803e3d5ffd5b505050506040513d601f19601f82011682018060405250810190611f6e9190614c13565b6001600160a01b031614611f9557604051633006171960e21b815260040160405180910390fd5b341561200c577f00000000000000000000000000000000000000000000000000000000000000006001600160a01b031663d0e30db0346040518263ffffffff1660e01b81526004015f604051808303818588803b158015611ff4575f80fd5b505af1158015612006573d5f803e3d5ffd5b50505050505b6120377f0000000000000000000000000000000000000000000000000000000000000000868561297d565b60405163eb02c30160e01b8152600481018690525f907f00000000000000000000000000000000000000000000000000000000000000006001600160a01b03169063eb02c3019060240160e060405180830381865afa15801561209c573d5f803e3d5ffd5b505050506040513d601f19601f820116820180604052508101906120c09190614c48565b90506120d181606001518685612a41565b848160a0018181516120e3919061521c565b915081815250507f00000000000000000000000000000000000000000000000000000000000000006001600160a01b031663815483196109c888845f8060405180602001604052805f815250612b49565b6001546001146121575760405163558a1e0360e11b815260040160405180910390fd5b60026001556040516331a9108f60e11b815260048101849052839033906001600160a01b037f00000000000000000000000000000000000000000000000000000000000000001690636352211e90602401602060405180830381865afa1580156121c3573d5f803e3d5ffd5b505050506040513d601f19601f820116820180604052508101906121e79190614c13565b6001600160a01b03161461220e57604051633006171960e21b815260040160405180910390fd5b6122397f0000000000000000000000000000000000000000000000000000000000000000858461297d565b60405163eb02c30160e01b8152600481018590525f907f00000000000000000000000000000000000000000000000000000000000000006001600160a01b03169063eb02c3019060240160e060405180830381865afa15801561229e573d5f803e3d5ffd5b505050506040513d601f19601f820116820180604052508101906122c29190614c48565b9050838160a0018181516122d69190614d6d565b915081815250507f00000000000000000000000000000000000000000000000000000000000000006001600160a01b0316638154831961232787845f8060405180602001604052805f815250612b49565b6040518263ffffffff1660e01b81526004016123439190614825565b5f604051808303815f875af115801561235e573d5f803e3d5ffd5b505050506040513d5f823e601f3d908101601f191682016040526123859190810190614d27565b50612394816060015133612bb4565b505060018055505050565b6001546001146123c25760405163558a1e0360e11b815260040160405180910390fd5b6002600155341561243e577f00000000000000000000000000000000000000000000000000000000000000006001600160a01b031663d0e30db0346040518263ffffffff1660e01b81526004015f604051808303818588803b158015612426575f80fd5b505af1158015612438573d5f803e3d5ffd5b50505050505b612449878683612a41565b5f80338989898961246f61245e60018b61530a565b612466613e84565b60ff1690612b37565b60408051602081019490945283019190915260ff166060820152608081018990525f60a0820181905260c08083015260e08201526101000160408051601f19818403018152908290526124c6939291602001615323565b60408051601f19818403018152908290526124e593929160200161534e565b60408051601f19818403018152908290527f8154831900000000000000000000000000000000000000000000000000000000825291505f906001600160a01b037f0000000000000000000000000000000000000000000000000000000000000000169063815483199061255c908590600401614825565b5f604051808303815f875af1158015612577573d5f803e3d5ffd5b505050506040513d5f823e601f3d908101601f1916820160405261259e9190810190614d27565b8060200190518101906125b19190614ebd565b90506125bd8933612bb4565b6125c78833612bb4565b6040516323b872dd60e01b8152306004820152336024820152604481018290527f00000000000000000000000000000000000000000000000000000000000000006001600160a01b0316906323b872dd906064015f604051808303815f87803b158015612632575f80fd5b505af1158015612644573d5f803e3d5ffd5b5050600180555050505050505050505050565b61265f613c22565b6001600160a01b0381166126e05760405162461bcd60e51b815260206004820152602660248201527f4f776e61626c653a206e6577206f776e657220697320746865207a65726f206160448201527f646472657373000000000000000000000000000000000000000000000000000060648201526084015b60405180910390fd5b6126e981613c7b565b50565b6126f4613c22565b60405163095ea7b360e01b81526001600160a01b037f0000000000000000000000000000000000000000000000000000000000000000811660048301525f19602483015282169063095ea7b3906044016020604051808303815f875af1158015612760573d5f803e3d5ffd5b505050506040513d601f19601f820116820180604052508101906127849190615378565b5050565b6040517fafdd9edc0000000000000000000000000000000000000000000000000000000081523360048201525f906001600160a01b037f0000000000000000000000000000000000000000000000000000000000000000169063afdd9edc90602401602060405180830381865afa158015612805573d5f803e3d5ffd5b505050506040513d601f19601f820116820180604052508101906128299190614c13565b6001600160a01b03160361285057604051633006171960e21b815260040160405180910390fd5b5f808080808061286287890189615413565b9550955095509550955095505f336001600160a01b031663217a4b706040518163ffffffff1660e01b8152600401602060405180830381865afa1580156128ab573d5f803e3d5ffd5b505050506040513d601f19601f820116820180604052508101906128cf9190614c13565b90508c6001600160a01b0316816001600160a01b031603612928578a83101561290b57604051630f271b5560e41b815260040160405180910390fd5b6129158b84614d6d565b92506129218b8561521c565b9350612945565b898211156129415761293a8a83614d6d565b9150612945565b5f91505b6129548782888888888861344a565b8a1561296e5761296e6001600160a01b038e16338d613e93565b50505050505050505050505050565b61299461298f3683900383018361549f565b511590565b612a3c576001600160a01b038316637ac2ff7b308484356129bb60408701602088016154eb565b604080516001600160e01b031960e088901b1681526001600160a01b0390951660048601526024850193909352604484019190915260ff1660648301528401356084820152606084013560a482015260c4015b5f604051808303815f87803b158015612a25575f80fd5b505af1158015612a37573d5f803e3d5ffd5b505050505b505050565b612a5361298f3683900383018361549f565b612a3c57826001600160a01b0316632495a5996040518163ffffffff1660e01b8152600401602060405180830381865afa158015612a93573d5f803e3d5ffd5b505050506040513d601f19601f82011682018060405250810190612ab79190614c13565b6001600160a01b031663d505accf3330858535612ada60408801602089016154eb565b604080516001600160e01b031960e089901b1681526001600160a01b0396871660048201529590941660248601526044850192909252606484015260ff16608483015284013560a4820152606084013560c482015260e401612a0e565b5f612b428284615506565b9392505050565b60605f8560a001518660c001518760200151878787604051602001612b739695949392919061551f565b6040516020818303038152906040529050863382604051602001612b9993929190615552565b60405160208183030381529060405291505095945050505050565b6040516370a0823160e01b81523060048201525f906001600160a01b038416906370a0823190602401602060405180830381865afa158015612bf8573d5f803e3d5ffd5b505050506040513d601f19601f82011682018060405250810190612c1c9190614ebd565b9050805f03612c2a57505050565b5f836001600160a01b0316632495a5996040518163ffffffff1660e01b8152600401602060405180830381865afa158015612c67573d5f803e3d5ffd5b505050506040513d601f19601f82011682018060405250810190612c8b9190614c13565b90505f846001600160a01b031663fab5ae746040518163ffffffff1660e01b8152600401602060405180830381865afa158015612cca573d5f803e3d5ffd5b505050506040513d601f19601f82011682018060405250810190612cee9190614ebd565b905082811015612d70576001600160a01b0385166305c77fa0612d118386614d6d565b6040516001600160e01b031960e084901b16815260048101919091526001600160a01b03871660248201526044015f604051808303815f87803b158015612d56575f80fd5b505af1158015612d68573d5f803e3d5ffd5b505050508092505b7f00000000000000000000000000000000000000000000000000000000000000006001600160a01b0316826001600160a01b031603612f2157604051633f34d4cf60e21b8152600481018490523060248201526001600160a01b0386169063fcd3533c906044015f604051808303815f87803b158015612dee575f80fd5b505af1158015612e00573d5f803e3d5ffd5b50506040517f2e1a7d4d000000000000000000000000000000000000000000000000000000008152600481018690527f00000000000000000000000000000000000000000000000000000000000000006001600160a01b03169250632e1a7d4d91506024015f604051808303815f87803b158015612e7c575f80fd5b505af1158015612e8e573d5f803e3d5ffd5b505050505f846001600160a01b0316846040515f6040518083038185875af1925050503d805f8114612edb576040519150601f19603f3d011682016040523d82523d5f602084013e612ee0565b606091505b5050905080612f1b576040517fdd857fd000000000000000000000000000000000000000000000000000000000815260040160405180910390fd5b50612f7f565b604051633f34d4cf60e21b8152600481018490526001600160a01b03858116602483015286169063fcd3533c906044015f604051808303815f87803b158015612f68575f80fd5b505af1158015612f7a573d5f803e3d5ffd5b505050505b5050505050565b5f612b42828461530a565b7f00000000000000000000000000000000000000000000000000000000000000006001600160a01b031663100886cc307f000000000000000000000000000000000000000000000000000000000000000084612fec86613f24565b6040518563ffffffff1660e01b815260040161300b9493929190615579565b5f604051808303815f87803b158015613022575f80fd5b505af1158015612f7f573d5f803e3d5ffd5b6020830151604051633f34d4cf60e21b815260048101919091523060248201526001600160a01b0383169063fcd3533c906044015f604051808303815f87803b15801561307f575f80fd5b505af1158015613091573d5f803e3d5ffd5b50505050816001600160a01b0316632495a5996040518163ffffffff1660e01b8152600401602060405180830381865afa1580156130d1573d5f803e3d5ffd5b505050506040513d601f19601f820116820180604052508101906130f59190614c13565b8351602085015160405163095ea7b360e01b81526001600160a01b039283166004820152602481019190915291169063095ea7b3906044016020604051808303815f875af1158015613149573d5f803e3d5ffd5b505050506040513d601f19601f8201168201806040525081019061316d9190615378565b505f816001600160a01b0316632495a5996040518163ffffffff1660e01b8152600401602060405180830381865afa1580156131ab573d5f803e3d5ffd5b505050506040513d601f19601f820116820180604052508101906131cf9190614c13565b6040516370a0823160e01b81523060048201529091505f906001600160a01b038316906370a0823190602401602060405180830381865afa158015613216573d5f803e3d5ffd5b505050506040513d601f19601f8201168201806040525081019061323a9190614ebd565b90505f80865f01516001600160a01b0316876060015160405161325d91906155b6565b5f604051808303815f865af19150503d805f8114613296576040519150601f19603f3d011682016040523d82523d5f602084013e61329b565b606091505b5091509150816132d957806040517feff884140000000000000000000000000000000000000000000000000000000081526004016126d79190614825565b6040516370a0823160e01b81523060048201525f9084906001600160a01b038716906370a0823190602401602060405180830381865afa15801561331f573d5f803e3d5ffd5b505050506040513d601f19601f820116820180604052508101906133439190614ebd565b61334d9190614d6d565b9050808860400151111561337457604051630f271b5560e41b815260040160405180910390fd5b60405163095ea7b360e01b81526001600160a01b0387811660048301526024820183905286169063095ea7b3906044016020604051808303815f875af11580156133c0573d5f803e3d5ffd5b505050506040513d601f19601f820116820180604052508101906133e49190615378565b506040516394bf804d60e01b8152600481018290523060248201526001600160a01b038716906394bf804d906044015f604051808303815f87803b15801561342a575f80fd5b505af115801561343c573d5f803e3d5ffd5b505050505050505050505050565b8451156136a3575f85600187516134619190614d6d565b81518110613471576134716155d1565b60200260200101519050600186510386525f88875f67ffffffffffffffff81111561349e5761349e6144fc565b6040519080825280602002602001820160405280156134f157816020015b604080516080810182525f91810182815260608201839052815260208101919091528152602001906001900390816134bc5790505b5087878760405160200161350a969594939291906155e5565b6040516020818303038152906040529050600187510187525f60025f61352f85613f95565b81526020019081526020015f205f9054906101000a90046001600160a01b031690505f816001600160a01b031663c55dae636040518163ffffffff1660e01b8152600401602060405180830381865afa15801561358e573d5f803e3d5ffd5b505050506040513d601f19601f820116820180604052508101906135b29190614c13565b6040516370a0823160e01b81523060048201526001600160a01b0391909116906370a0823190602401602060405180830381865afa1580156135f6573d5f803e3d5ffd5b505050506040513d601f19601f8201168201806040525081019061361a9190614ebd565b84602001516136299190614d6d565b60405163168da99d60e31b81529091506001600160a01b0383169063b46d4ce89061366d90309061ffff9067ffffffffffffffff9087906001908b90600401615637565b5f604051808303815f87803b158015613684575f80fd5b505af1158015613696573d5f803e3d5ffd5b5050505050505050612a37565b83511561380e575f84600186516136ba9190614d6d565b815181106136ca576136ca6155d1565b60200260200101519050600185510385525f885f67ffffffffffffffff8111156136f6576136f66144fc565b60405190808252806020026020018201604052801561374957816020015b604080516080810182525f91810182815260608201839052815260208101919091528152602001906001900390816137145790505b5087878787604051602001613763969594939291906155e5565b6040516020818303038152906040529050600186510186525f60025f61378885613f95565b815260208082019290925260409081015f9081205492860151915163168da99d60e31b81526001600160a01b039093169350839263b46d4ce8926137d9923092909182916002908a90600401615637565b5f604051808303815f87803b1580156137f0575f80fd5b505af1158015613802573d5f803e3d5ffd5b50505050505050612a37565b801561382d57604051630f271b5560e41b815260040160405180910390fd5b612a378688855b5f836001600160a01b0316632495a5996040518163ffffffff1660e01b8152600401602060405180830381865afa158015613871573d5f803e3d5ffd5b505050506040513d601f19601f820116820180604052508101906138959190614c13565b6040516370a0823160e01b81523060048201529091505f906001600160a01b038616906370a0823190602401602060405180830381865afa1580156138dc573d5f803e3d5ffd5b505050506040513d601f19601f820116820180604052508101906139009190614ebd565b6040516370a0823160e01b81523060048201529091505f906001600160a01b038416906370a0823190602401602060405180830381865afa158015613947573d5f803e3d5ffd5b505050506040513d601f19601f8201168201806040525081019061396b9190614ebd565b9050613977818361521c565b84111561399d576139986001600160a01b0384168630858803859003613fa9565b508083035b8015613a705760405163095ea7b360e01b81526001600160a01b0387811660048301526024820183905284169063095ea7b3906044016020604051808303815f875af11580156139ef573d5f803e3d5ffd5b505050506040513d601f19601f82011682018060405250810190613a139190615378565b506040516394bf804d60e01b8152600481018290523060248201526001600160a01b038716906394bf804d906044015f604051808303815f87803b158015613a59575f80fd5b505af1158015613a6b573d5f803e3d5ffd5b505050505b505050505050565b8051156126e9575f815167ffffffffffffffff811115613a9a57613a9a6144fc565b604051908082528060200260200182016040528015613ac3578160200160208202803683370190505b5090505f825167ffffffffffffffff811115613ae157613ae16144fc565b604051908082528060200260200182016040528015613b0a578160200160208202803683370190505b5090505f5b8351811015613ba557613b3a848281518110613b2d57613b2d6155d1565b6020026020010151613f95565b838281518110613b4c57613b4c6155d1565b602002602001018181525050838181518110613b6a57613b6a6155d1565b602002602001015160200151828281518110613b8857613b886155d1565b602090810291909101015280613b9d81615681565b915050613b0f565b507f00000000000000000000000000000000000000000000000000000000000000006001600160a01b031663a7eaa1867f0000000000000000000000000000000000000000000000000000000000000000848430613c0289613f24565b6040518663ffffffff1660e01b8152600401612a0e9594939291906156c7565b5f546001600160a01b03163314611ba85760405162461bcd60e51b815260206004820181905260248201527f4f776e61626c653a2063616c6c6572206973206e6f7420746865206f776e657260448201526064016126d7565b5f80546001600160a01b0383811673ffffffffffffffffffffffffffffffffffffffff19831681178455604051919092169283917f8be0079c531659141344cd1fd0a4f28419497f9722a3daafe3b4186f6b6457e09190a35050565b60605f825f01516001600160a01b03166395d89b416040518163ffffffff1660e01b81526004015f60405180830381865afa158015613d18573d5f803e3d5ffd5b505050506040513d5f823e601f3d908101601f19168201604052613d3f9190810190615724565b90505f613d52846020015160ff16613fe7565b90505f8282604051602001613d68929190615769565b604051602081830303815290604052613d80906157ea565b90505f8383604051602001613d9692919061580d565b604051602081830303815290604052613dae906157ea565b9050825184510160020280601e01830192508060060182019150505f865f01516001600160a01b031663313ce5676040518163ffffffff1660e01b8152600401602060405180830381865afa158015613e09573d5f803e3d5ffd5b505050506040513d601f19601f82011682018060405250810190613e2d9190615864565b6040805160208101959095528481019390935260f81b7fff00000000000000000000000000000000000000000000000000000000000000166060840152508051808303604101815260619092019052949350505050565b5f613e8e42614084565b905090565b6040516001600160a01b038316602482015260448101829052612a3c9084907fa9059cbb00000000000000000000000000000000000000000000000000000000906064015b60408051601f198184030181529190526020810180517bffffffffffffffffffffffffffffffffffffffffffffffffffffffff166001600160e01b03199093169290921790915261416d565b604080515f80825260208201909252905b8251811015613f8f5781613f64848381518110613f5457613f546155d1565b60200260200101515f0151613cd7565b604051602001613f7592919061587f565b60408051601f198184030181529190529150600101613f35565b50919050565b8051602081015190515f9160a01b01610475565b6040516001600160a01b0380851660248301528316604482015260648101829052613fe19085906323b872dd60e01b90608401613ed8565b50505050565b60605f613ff383614253565b60010190505f8167ffffffffffffffff811115614012576140126144fc565b6040519080825280601f01601f19166020018201604052801561403c576020820181803683370190505b5090508181016020015b5f19017f3031323334353637383961626364656600000000000000000000000000000000600a86061a8153600a850494508461404657509392505050565b5f806201518083049050806226496581015f62023ab1600483020590506004600362023ab183020105909103905f62164b09610fa0600185010205905060046105b58202058303601f0192505f61098f84605002816140e5576140e56158ad565b059050600b8105935083600c0281600201039050838260318503606402010191505f60066001836107b28603600c02010381614123576141236158ad565b04905060ff811115614161576040517f73cde75100000000000000000000000000000000000000000000000000000000815260040160405180910390fd5b98975050505050505050565b5f6141c1826040518060400160405280602081526020017f5361666545524332303a206c6f772d6c6576656c2063616c6c206661696c6564815250856001600160a01b03166143349092919063ffffffff16565b905080515f14806141e15750808060200190518101906141e19190615378565b612a3c5760405162461bcd60e51b815260206004820152602a60248201527f5361666545524332303a204552433230206f7065726174696f6e20646964206e60448201527f6f7420737563636565640000000000000000000000000000000000000000000060648201526084016126d7565b5f807a184f03e93ff9f4daa797ed6e38ed64bf6a1f010000000000000000831061429b577a184f03e93ff9f4daa797ed6e38ed64bf6a1f010000000000000000830492506040015b6d04ee2d6d415b85acef810000000083106142c7576d04ee2d6d415b85acef8100000000830492506020015b662386f26fc1000083106142e557662386f26fc10000830492506010015b6305f5e10083106142fd576305f5e100830492506008015b612710831061431157612710830492506004015b60648310614323576064830492506002015b600a83106104755760010192915050565b606061434284845f8561434a565b949350505050565b6060824710156143c25760405162461bcd60e51b815260206004820152602660248201527f416464726573733a20696e73756666696369656e742062616c616e636520666f60448201527f722063616c6c000000000000000000000000000000000000000000000000000060648201526084016126d7565b5f80866001600160a01b031685876040516143dd91906155b6565b5f6040518083038185875af1925050503d805f8114614417576040519150601f19603f3d011682016040523d82523d5f602084013e61441c565b606091505b509150915061442d87838387614438565b979650505050505050565b606083156144a65782515f0361449f576001600160a01b0385163b61449f5760405162461bcd60e51b815260206004820152601d60248201527f416464726573733a2063616c6c20746f206e6f6e2d636f6e747261637400000060448201526064016126d7565b5081614342565b61434283838151156144bb5781518083602001fd5b8060405162461bcd60e51b81526004016126d79190614825565b5f602082840312156144e5575f80fd5b81356001600160e01b031981168114612b42575f80fd5b634e487b7160e01b5f52604160045260245ffd5b6040805190810167ffffffffffffffff81118282101715614533576145336144fc565b60405290565b60405160e0810167ffffffffffffffff81118282101715614533576145336144fc565b6040516080810167ffffffffffffffff81118282101715614533576145336144fc565b604051601f8201601f1916810167ffffffffffffffff811182821017156145a8576145a86144fc565b604052919050565b6001600160a01b03811681146126e9575f80fd5b60ff811681146126e9575f80fd5b5f604082840312156145e2575f80fd5b6145ea614510565b905081356145f7816145b0565b81526020820135614607816145c4565b602082015292915050565b5f60408284031215614622575f80fd5b612b4283836145d2565b5f60808284031215613f8f575f80fd5b5f805f805f6101608688031215614651575f80fd5b853594506020860135614663816145c4565b935060408601359250614679876060880161462c565b91506146888760e0880161462c565b90509295509295909350565b5f805f8060e085870312156146a7575f80fd5b8435935060208501359250604085013567ffffffffffffffff8111156146cb575f80fd5b6146d78782880161462c565b9250506146e7866060870161462c565b905092959194509250565b5f805f8060e08587031215614705575f80fd5b843593506020850135614717816145c4565b9250604085013591506146e7866060870161462c565b5f67ffffffffffffffff821115614746576147466144fc565b50601f01601f191660200190565b5f82601f830112614763575f80fd5b81356147766147718261472d565b61457f565b81815284602083860101111561478a575f80fd5b816020850160208301375f918101602001919091529392505050565b5f602082840312156147b6575f80fd5b813567ffffffffffffffff8111156147cc575f80fd5b61434284828501614754565b5f5b838110156147f25781810151838201526020016147da565b50505f910152565b5f81518084526148118160208601602086016147d8565b601f01601f19169290920160200192915050565b602081525f612b4260208301846147fa565b5f805f8060e0858703121561484a575f80fd5b8435935060208501359250604085013591506146e7866060870161462c565b5f805f805f610160868803121561487e575f80fd5b853594506020860135935060408601359250614679876060880161462c565b5f80606083850312156148ae575f80fd5b6148b884846145d2565b915060408301356148c8816145b0565b809150509250929050565b5f805f8061014085870312156148e7575f80fd5b84359350602085013592506148ff866040870161462c565b91506146e78660c0870161462c565b5f805f60c08486031215614920575f80fd5b8335925060208401359150614938856040860161462c565b90509250925092565b5f67ffffffffffffffff82111561495a5761495a6144fc565b5060051b60200190565b5f82601f830112614973575f80fd5b8135602061498361477183614941565b82815260059290921b840181019181810190868411156149a1575f80fd5b8286015b848110156149bc57803583529183019183016149a5565b509695505050505050565b5f805f805f60a086880312156149db575f80fd5b85356149e6816145b0565b945060208601356149f6816145b0565b9350604086013567ffffffffffffffff80821115614a12575f80fd5b614a1e89838a01614964565b94506060880135915080821115614a33575f80fd5b614a3f89838a01614964565b93506080880135915080821115614a54575f80fd5b50614a6188828901614754565b9150509295509295909350565b5f805f805f805f610140888a031215614a85575f80fd5b8735614a90816145b0565b96506020880135614aa0816145b0565b955060408801359450606088013593506080880135925060a0880135614ac5816145c4565b9150614ad48960c08a0161462c565b905092959891949750929550565b5f805f805f60a08688031215614af6575f80fd5b8535614b01816145b0565b94506020860135614b11816145b0565b93506040860135925060608601359150608086013567ffffffffffffffff811115614b3a575f80fd5b614a6188828901614754565b5f60208284031215614b56575f80fd5b8135612b42816145b0565b5f805f805f8060a08789031215614b76575f80fd5b8635614b81816145b0565b95506020870135614b91816145b0565b94506040870135935060608701359250608087013567ffffffffffffffff80821115614bbb575f80fd5b818901915089601f830112614bce575f80fd5b813581811115614bdc575f80fd5b8a6020828501011115614bed575f80fd5b6020830194508093505050509295509295509295565b8051614c0e816145b0565b919050565b5f60208284031215614c23575f80fd5b8151612b42816145b0565b8051614c0e816145c4565b80518015158114614c0e575f80fd5b5f60e08284031215614c58575f80fd5b614c60614539565b825167ffffffffffffffff81168114614c77575f80fd5b8152614c8560208401614c2e565b6020820152614c9660408401614c39565b6040820152614ca760608401614c03565b6060820152614cb860808401614c03565b608082015260a083015160a082015260c083015160c08201528091505092915050565b5f614ce86147718461472d565b9050828152838383011115614cfb575f80fd5b612b428360208301846147d8565b5f82601f830112614d18575f80fd5b612b4283835160208501614cdb565b5f60208284031215614d37575f80fd5b815167ffffffffffffffff811115614d4d575f80fd5b61434284828501614d09565b634e487b7160e01b5f52601160045260245ffd5b8181038181111561047557610475614d59565b81835281816020850137505f828201602090810191909152601f909101601f19169091010190565b602081525f8235614db8816145b0565b6001600160a01b03811660208401525060208301356040830152604083013560608301526060830135601e19843603018112614df2575f80fd5b830160208101903567ffffffffffffffff811115614e0e575f80fd5b803603821315614e1c575f80fd5b608080850152614e3060a085018284614d80565b95945050505050565b5f805f60608486031215614e4b575f80fd5b835192506020840151614e5d816145b0565b604085015190925067ffffffffffffffff811115614e79575f80fd5b614e8586828701614d09565b9150509250925092565b5f805f60608486031215614ea1575f80fd5b8351614eac816145b0565b6020850151909350614e5d816145b0565b5f60208284031215614ecd575f80fd5b5051919050565b5f805f805f8060c08789031215614ee9575f80fd5b86519550602087015194506040870151614f02816145c4565b80945050606087015192506080870151915060a087015167ffffffffffffffff811115614f2d575f80fd5b614f3989828a01614d09565b9150509295509295509295565b5f82601f830112614f55575f80fd5b81516020614f6561477183614941565b82815260609283028501820192828201919087851115614f83575f80fd5b8387015b85811015614ff65780890382811215614f9f575f8081fd5b614fa7614510565b604080831215614fb6575f8081fd5b614fbe614510565b92508351614fcb816145b0565b835283880151614fda816145c4565b8389015291815290820151818701528452928401928101614f87565b5090979650505050505050565b5f805f8060808587031215615016575f80fd5b845167ffffffffffffffff8082111561502d575f80fd5b61503988838901614f46565b9550602087015191508082111561504e575f80fd5b5061505b87828801614f46565b604087015160609097015195989097509350505050565b5f7f800000000000000000000000000000000000000000000000000000000000000082036150a2576150a2614d59565b505f0390565b5f8151808452602080850194508084015f5b838110156150f7578151805180516001600160a01b0316895284015160ff16848901528301516040880152606090960195908201906001016150ba565b509495945050505050565b606081525f61511460608301866150a8565b6001600160a01b0385166020840152828103604084015261513581856147fa565b9695505050505050565b5f6020828403121561514f575f80fd5b815167ffffffffffffffff80821115615166575f80fd5b9083019060808286031215615179575f80fd5b61518161455c565b825161518c816145b0565b8082525060208301516020820152604083015160408201526060830151828111156151b5575f80fd5b6151c187828601614d09565b60608301525095945050505050565b602081525f612b4260208301846150a8565b606081525f6151f460608301856150a8565b6001600160a01b038416602084015282810360408401525f8152602081019150509392505050565b8082018082111561047557610475614d59565b6001600160a01b0384168152826020820152606060408201525f614e3060608301846147fa565b80516fffffffffffffffffffffffffffffffff81168114614c0e575f80fd5b5f60a08284031215615285575f80fd5b60405160a0810181811067ffffffffffffffff821117156152a8576152a86144fc565b60405282516152b6816145b0565b81526020830151600381106152c9575f80fd5b60208201526152da60408401615256565b60408201526152eb60608401615256565b606082015260808301516152fe816145b0565b60808201529392505050565b60ff828116828216039081111561047557610475614d59565b5f6001600160a01b03808616835280851660208401525060606040830152614e3060608301846147fa565b60ff841681526001600160a01b0383166020820152606060408201525f614e3060608301846147fa565b5f60208284031215615388575f80fd5b612b4282614c39565b5f82601f8301126153a0575f80fd5b813560206153b061477183614941565b828152606092830285018201928282019190878511156153ce575f80fd5b8387015b85811015614ff65781818a0312156153e9575f8081fd5b6153f1614510565b6153fb8a836145d2565b815260408201358682015284529284019281016153d2565b5f805f805f8060c08789031215615428575f80fd5b8635615433816145b0565b9550602087013567ffffffffffffffff8082111561544f575f80fd5b61545b8a838b01615391565b96506040890135915080821115615470575f80fd5b5061547d89828a01615391565b945050606087013592506080870135915060a087013590509295509295509295565b5f608082840312156154af575f80fd5b6154b761455c565b8235815260208301356154c9816145c4565b6020820152604083810135908201526060928301359281019290925250919050565b5f602082840312156154fb575f80fd5b8135612b42816145c4565b60ff818116838216019081111561047557610475614d59565b86815285602082015260ff8516604082015283606082015282608082015260c060a08201525f61416160c08301846147fa565b8381526001600160a01b0383166020820152606060408201525f614e3060608301846147fa565b5f6001600160a01b038087168352808616602084015250608060408301526155a460808301856150a8565b828103606084015261442d81856147fa565b5f82516155c78184602087016147d8565b9190910192915050565b634e487b7160e01b5f52603260045260245ffd5b6001600160a01b038716815260c060208201525f61560660c08301886150a8565b828103604084015261561881886150a8565b60608401969096525050608081019290925260a0909101529392505050565b6001600160a01b038716815261ffff8616602082015267ffffffffffffffff8516604082015283606082015260ff8316608082015260c060a08201525f61416160c08301846147fa565b5f6001820161569257615692614d59565b5060010190565b5f8151808452602080850194508084015f5b838110156150f7578151875295820195908201906001016156ab565b5f6001600160a01b03808816835260a060208401526156e960a0840188615699565b83810360408501526156fb8188615699565b90508186166060850152838103608085015261571781866147fa565b9998505050505050505050565b5f60208284031215615734575f80fd5b815167ffffffffffffffff81111561574a575f80fd5b8201601f8101841361575a575f80fd5b61434284825160208401614cdb565b5f835161577a8184602088016147d8565b7f20426f6e6420436f75706f6e202800000000000000000000000000000000000090830190815283516157b481600e8401602088016147d8565b7f2900000000000000000000000000000000000000000000000000000000000000600e9290910191820152600f01949350505050565b80516020808301519190811015613f8f575f1960209190910360031b1b16919050565b5f835161581e8184602088016147d8565b7f2d4350000000000000000000000000000000000000000000000000000000000090830190815283516158588160038401602088016147d8565b01600301949350505050565b5f60208284031215615874575f80fd5b8151612b42816145c4565b5f83516158908184602088016147d8565b8351908301906158a48183602088016147d8565b01949350505050565b634e487b7160e01b5f52601260045260245ffdfea26469706673582212201b3aebd40858d55397183058a06aed81bfdae2feec38a71dfeaa8cceb07053c064736f6c63430008140033",
  "devdoc": {
    "kind": "dev",
    "methods": {
      "owner()": {
        "details": "Returns the address of the current owner."
      },
      "renounceOwnership()": {
        "details": "Leaves the contract without owner. It will not be possible to call `onlyOwner` functions. Can only be called by the current owner. NOTE: Renouncing ownership will leave the contract without an owner, thereby disabling any functionality that is only available to the owner."
      },
      "supportsInterface(bytes4)": {
        "details": "See {IERC165-supportsInterface}."
      },
      "transferOwnership(address)": {
        "details": "Transfers ownership of the contract to a new account (`newOwner`). Can only be called by the current owner."
      }
    },
    "version": 1
  },
  "userdoc": {
    "kind": "user",
    "methods": {},
    "version": 1
  },
  "storageLayout": {
    "storage": [
      {
        "astId": 7,
        "contract": "contracts/BorrowController.sol:BorrowController",
        "label": "_owner",
        "offset": 0,
        "slot": "0",
        "type": "t_address"
      },
      {
        "astId": 21320,
        "contract": "contracts/BorrowController.sol:BorrowController",
        "label": "_locked",
        "offset": 0,
        "slot": "1",
        "type": "t_uint256"
      },
      {
        "astId": 18363,
        "contract": "contracts/BorrowController.sol:BorrowController",
        "label": "_couponMarkets",
        "offset": 0,
        "slot": "2",
        "type": "t_mapping(t_uint256,t_address)"
      }
    ],
    "types": {
      "t_address": {
        "encoding": "inplace",
        "label": "address",
        "numberOfBytes": "20"
      },
      "t_mapping(t_uint256,t_address)": {
        "encoding": "mapping",
        "key": "t_uint256",
        "label": "mapping(uint256 => address)",
        "numberOfBytes": "32",
        "value": "t_address"
      },
      "t_uint256": {
        "encoding": "inplace",
        "label": "uint256",
        "numberOfBytes": "32"
      }
    }
  }
}