{
  "address": "0xb523dFFc24220A18eB035A50b17Da69E4daea480",
  "abi": [
    {
      "inputs": [
        {
          "internalType": "address",
          "name": "sequencerOracle_",
          "type": "address"
        },
        {
          "internalType": "uint256",
          "name": "timeout_",
          "type": "uint256"
        },
        {
          "internalType": "uint256",
          "name": "gracePeriod_",
          "type": "uint256"
        }
      ],
      "stateMutability": "nonpayable",
      "type": "constructor"
    },
    {
      "inputs": [],
      "name": "AssetFeedAlreadySet",
      "type": "error"
    },
    {
      "inputs": [],
      "name": "InvalidGracePeriod",
      "type": "error"
    },
    {
      "inputs": [],
      "name": "InvalidTimeout",
      "type": "error"
    },
    {
      "inputs": [],
      "name": "LengthMismatch",
      "type": "error"
    },
    {
      "anonymous": false,
      "inputs": [
        {
          "indexed": true,
          "internalType": "address",
          "name": "previousOwner",
          "type": "address"
        },
        {
          "indexed": true,
          "internalType": "address",
          "name": "newOwner",
          "type": "address"
        }
      ],
      "name": "OwnershipTransferStarted",
      "type": "event"
    },
    {
      "anonymous": false,
      "inputs": [
        {
          "indexed": true,
          "internalType": "address",
          "name": "previousOwner",
          "type": "address"
        },
        {
          "indexed": true,
          "internalType": "address",
          "name": "newOwner",
          "type": "address"
        }
      ],
      "name": "OwnershipTransferred",
      "type": "event"
    },
    {
      "anonymous": false,
      "inputs": [
        {
          "indexed": true,
          "internalType": "address",
          "name": "newFallbackOracle",
          "type": "address"
        }
      ],
      "name": "SetFallbackOracle",
      "type": "event"
    },
    {
      "anonymous": false,
      "inputs": [
        {
          "indexed": true,
          "internalType": "address",
          "name": "asset",
          "type": "address"
        },
        {
          "indexed": false,
          "internalType": "address[]",
          "name": "feeds",
          "type": "address[]"
        }
      ],
      "name": "SetFeed",
      "type": "event"
    },
    {
      "anonymous": false,
      "inputs": [
        {
          "indexed": false,
          "internalType": "uint256",
          "name": "newGracePeriod",
          "type": "uint256"
        }
      ],
      "name": "SetGracePeriod",
      "type": "event"
    },
    {
      "anonymous": false,
      "inputs": [
        {
          "indexed": true,
          "internalType": "address",
          "name": "newSequencerOracle",
          "type": "address"
        }
      ],
      "name": "SetSequencerOracle",
      "type": "event"
    },
    {
      "anonymous": false,
      "inputs": [
        {
          "indexed": false,
          "internalType": "uint256",
          "name": "newTimeout",
          "type": "uint256"
        }
      ],
      "name": "SetTimeout",
      "type": "event"
    },
    {
      "inputs": [],
      "name": "acceptOwnership",
      "outputs": [],
      "stateMutability": "nonpayable",
      "type": "function"
    },
    {
      "inputs": [],
      "name": "decimals",
      "outputs": [
        {
          "internalType": "uint8",
          "name": "",
          "type": "uint8"
        }
      ],
      "stateMutability": "pure",
      "type": "function"
    },
    {
      "inputs": [],
      "name": "fallbackOracle",
      "outputs": [
        {
          "internalType": "address",
          "name": "",
          "type": "address"
        }
      ],
      "stateMutability": "view",
      "type": "function"
    },
    {
      "inputs": [
        {
          "internalType": "address",
          "name": "asset",
          "type": "address"
        }
      ],
      "name": "getAssetPrice",
      "outputs": [
        {
          "internalType": "uint256",
          "name": "",
          "type": "uint256"
        }
      ],
      "stateMutability": "view",
      "type": "function"
    },
    {
      "inputs": [
        {
          "internalType": "address[]",
          "name": "assets",
          "type": "address[]"
        }
      ],
      "name": "getAssetsPrices",
      "outputs": [
        {
          "internalType": "uint256[]",
          "name": "prices",
          "type": "uint256[]"
        }
      ],
      "stateMutability": "view",
      "type": "function"
    },
    {
      "inputs": [
        {
          "internalType": "address",
          "name": "asset",
          "type": "address"
        }
      ],
      "name": "getFeeds",
      "outputs": [
        {
          "internalType": "address[]",
          "name": "",
          "type": "address[]"
        }
      ],
      "stateMutability": "view",
      "type": "function"
    },
    {
      "inputs": [],
      "name": "gracePeriod",
      "outputs": [
        {
          "internalType": "uint256",
          "name": "",
          "type": "uint256"
        }
      ],
      "stateMutability": "view",
      "type": "function"
    },
    {
      "inputs": [],
      "name": "isSequencerValid",
      "outputs": [
        {
          "internalType": "bool",
          "name": "",
          "type": "bool"
        }
      ],
      "stateMutability": "view",
      "type": "function"
    },
    {
      "inputs": [],
      "name": "owner",
      "outputs": [
        {
          "internalType": "address",
          "name": "",
          "type": "address"
        }
      ],
      "stateMutability": "view",
      "type": "function"
    },
    {
      "inputs": [],
      "name": "pendingOwner",
      "outputs": [
        {
          "internalType": "address",
          "name": "",
          "type": "address"
        }
      ],
      "stateMutability": "view",
      "type": "function"
    },
    {
      "inputs": [],
      "name": "renounceOwnership",
      "outputs": [],
      "stateMutability": "nonpayable",
      "type": "function"
    },
    {
      "inputs": [],
      "name": "sequencerOracle",
      "outputs": [
        {
          "internalType": "address",
          "name": "",
          "type": "address"
        }
      ],
      "stateMutability": "view",
      "type": "function"
    },
    {
      "inputs": [
        {
          "internalType": "address",
          "name": "newFallbackOracle",
          "type": "address"
        }
      ],
      "name": "setFallbackOracle",
      "outputs": [],
      "stateMutability": "nonpayable",
      "type": "function"
    },
    {
      "inputs": [
        {
          "internalType": "address[]",
          "name": "assets",
          "type": "address[]"
        },
        {
          "internalType": "address[][]",
          "name": "feeds",
          "type": "address[][]"
        }
      ],
      "name": "setFeeds",
      "outputs": [],
      "stateMutability": "nonpayable",
      "type": "function"
    },
    {
      "inputs": [
        {
          "internalType": "uint256",
          "name": "newGracePeriod",
          "type": "uint256"
        }
      ],
      "name": "setGracePeriod",
      "outputs": [],
      "stateMutability": "nonpayable",
      "type": "function"
    },
    {
      "inputs": [
        {
          "internalType": "address",
          "name": "newSequencerOracle",
          "type": "address"
        }
      ],
      "name": "setSequencerOracle",
      "outputs": [],
      "stateMutability": "nonpayable",
      "type": "function"
    },
    {
      "inputs": [
        {
          "internalType": "uint256",
          "name": "newTimeout",
          "type": "uint256"
        }
      ],
      "name": "setTimeout",
      "outputs": [],
      "stateMutability": "nonpayable",
      "type": "function"
    },
    {
      "inputs": [],
      "name": "timeout",
      "outputs": [
        {
          "internalType": "uint256",
          "name": "",
          "type": "uint256"
        }
      ],
      "stateMutability": "view",
      "type": "function"
    },
    {
      "inputs": [
        {
          "internalType": "address",
          "name": "newOwner",
          "type": "address"
        }
      ],
      "name": "transferOwnership",
      "outputs": [],
      "stateMutability": "nonpayable",
      "type": "function"
    }
  ],
  "transactionHash": "0x5b1a3368045d3bf4b02935f88dac9b4dda93da5796ba53c717dcc842f452fbde",
  "args": [
    "0xFdB631F5EE196F0ed6FAa767959853A9F217697D",
    86400,
    3600
  ],
  "numDeployments": 1,
  "solcInputHash": "e6002e1fad1776de7b48b3e19860cf28",
  "bytecode": "0x60806040523480156200001157600080fd5b50604051620015dd380380620015dd8339810160408190526200003491620001f7565b6200003f3362000069565b6200004a8362000087565b6200005582620000d1565b62000060816200013f565b5050506200023c565b600180546001600160a01b03191690556200008481620001a7565b50565b600380546001600160a01b0319166001600160a01b0383169081179091556040517f73ae4ce26eec2f4ea96b861b67192be67911288f8eb274c2fa6630e8deefab8e90600090a250565b6104b0811080620000e457506201518081115b156200010357604051631ffb86f160e21b815260040160405180910390fd5b60028190556040518181527f9a3851f0de50087a4045a25c045b5b3db04b32773b44996506ff6dca26c783af906020015b60405180910390a150565b6104b08110806200015257506201518081115b15620001715760405163d7c43e0f60e01b815260040160405180910390fd5b60048190556040518181527f848ba7852320e491d84ddc22f1f12fe48672aa22757fc4452703c9046d9982d79060200162000134565b600080546001600160a01b038381166001600160a01b0319831681178455604051919092169283917f8be0079c531659141344cd1fd0a4f28419497f9722a3daafe3b4186f6b6457e09190a35050565b6000806000606084860312156200020d57600080fd5b83516001600160a01b03811681146200022557600080fd5b602085015160409095015190969495509392505050565b611391806200024c6000396000f3fe608060405234801561001057600080fd5b50600436106101515760003560e01c80639d23d9f2116100cd578063c58a34cc11610081578063f0aef31c11610066578063f0aef31c146102a0578063f2f65960146102b3578063f2fde38b146102c657600080fd5b8063c58a34cc1461027c578063e30c39781461028f57600080fd5b8063ac77f572116100b2578063ac77f57214610236578063acbb4c1e14610256578063b3596f071461026957600080fd5b80639d23d9f21461020d578063a06db7dc1461022d57600080fd5b8063715018a61161012457806379ba50971161010957806379ba5097146101e15780638da5cb5b146101e95780638fadac78146101fa57600080fd5b8063715018a6146101c15780637194ed42146101c957600080fd5b8063170aee7314610156578063313ce5671461016b578063629838e51461017f57806370dea79a146101aa575b600080fd5b610169610164366004610e39565b6102d9565b005b604051600881526020015b60405180910390f35b600554610192906001600160a01b031681565b6040516001600160a01b039091168152602001610176565b6101b360025481565b604051908152602001610176565b61016961032b565b6101d161033f565b6040519015158152602001610176565b61016961034e565b6000546001600160a01b0316610192565b610169610208366004610ea0565b6103e1565b61022061021b366004610f22565b6106a2565b6040516101769190610fe7565b6101b360045481565b610249610244366004610e39565b610743565b604051610176919061102b565b600354610192906001600160a01b031681565b6101b3610277366004610e39565b6107b9565b61016961028a36600461106c565b610ac5565b6001546001600160a01b0316610192565b6101696102ae366004610e39565b610ad6565b6101696102c136600461106c565b610ae7565b6101696102d4366004610e39565b610af8565b6102e1610b69565b600580546001600160a01b0319166001600160a01b0383169081179091556040517f9a248ffd42eb7f1580b27272ef0a5911b2835eb6fb9951d6fd1b6e3264b9e6e090600090a250565b610333610b69565b61033d6000610bc3565b565b6000610349610bdc565b905090565b60015433906001600160a01b031681146103d55760405162461bcd60e51b815260206004820152602960248201527f4f776e61626c6532537465703a2063616c6c6572206973206e6f74207468652060448201527f6e6577206f776e6572000000000000000000000000000000000000000000000060648201526084015b60405180910390fd5b6103de81610bc3565b50565b6103e9610b69565b828114610422576040517fff633a3800000000000000000000000000000000000000000000000000000000815260040160405180910390fd5b60005b8381101561069b5760006006600087878581811061044557610445611085565b905060200201602081019061045a9190610e39565b6001600160a01b0316815260208101919091526040016000205411156104ac576040517faeb417e100000000000000000000000000000000000000000000000000000000815260040160405180910390fd5b8282828181106104be576104be611085565b90506020028101906104d0919061109b565b905060000361050b576040517fff633a3800000000000000000000000000000000000000000000000000000000815260040160405180910390fd5b60005b83838381811061052057610520611085565b9050602002810190610532919061109b565b9050811015610607576006600087878581811061055157610551611085565b90506020020160208101906105669190610e39565b6001600160a01b03166001600160a01b0316815260200190815260200160002084848481811061059857610598611085565b90506020028101906105aa919061109b565b838181106105ba576105ba611085565b90506020020160208101906105cf9190610e39565b815460018082018455600093845260209093200180546001600160a01b0319166001600160a01b03929092169190911790550161050e565b5084848281811061061a5761061a611085565b905060200201602081019061062f9190610e39565b6001600160a01b03167fcbf64f4858c251e8a5e4b58489643fd6e0255b237e6e022318293b7fc43bb4f884848481811061066b5761066b611085565b905060200281019061067d919061109b565b60405161068b9291906110e5565b60405180910390a2600101610425565b5050505050565b6060815167ffffffffffffffff8111156106be576106be610f0c565b6040519080825280602002602001820160405280156106e7578160200160208202803683370190505b50905060005b825181101561073d5761071883828151811061070b5761070b611085565b60200260200101516107b9565b82828151811061072a5761072a611085565b60209081029190910101526001016106ed565b50919050565b6001600160a01b0381166000908152600660209081526040918290208054835181840281018401909452808452606093928301828280156107ad57602002820191906000526020600020905b81546001600160a01b0316815260019091019060200180831161078f575b50505050509050919050565b6001600160a01b03811660009081526006602090815260408083208054825181850281018501909352808352849383018282801561082057602002820191906000526020600020905b81546001600160a01b03168152600190910190602001808311610802575b5050505050905080516000036108a55760055460405163b3596f0760e01b81526001600160a01b0385811660048301529091169063b3596f0790602401602060405180830381865afa15801561087a573d6000803e3d6000fd5b505050506040513d601f19601f8201168201806040525081019061089e9190611131565b9392505050565b6305f5e10060005b8251811015610abd578281815181106108c8576108c8611085565b60200260200101516001600160a01b031663feaf968c6040518163ffffffff1660e01b815260040160a060405180830381865afa925050508015610929575060408051601f3d908101601f1916820190925261092691810190611164565b60015b15610a365769ffffffffffffffffffff85161580159061094a575060008412155b80156109565750428211155b801561096e575060025461096a90836111ca565b4211155b801561097d575061097d610bdc565b15610a3057600088878151811061099657610996611085565b60200260200101516001600160a01b031663313ce5676040518163ffffffff1660e01b8152600401602060405180830381865afa1580156109db573d6000803e3d6000fd5b505050506040513d601f19601f820116820180604052508101906109ff91906111e3565b60ff169050610a0f81600a6112ea565b610a19868a6112f6565b610a23919061130d565b9750505050505050610aad565b50505050505b60055460405163b3596f0760e01b81526001600160a01b0387811660048301529091169063b3596f0790602401602060405180830381865afa158015610a80573d6000803e3d6000fd5b505050506040513d601f19601f82011682018060405250810190610aa49190611131565b95945050505050565b610ab68161132f565b90506108ad565b509392505050565b610acd610b69565b6103de81610c80565b610ade610b69565b6103de81610d05565b610aef610b69565b6103de81610d4f565b610b00610b69565b600180546001600160a01b0383166001600160a01b03199091168117909155610b316000546001600160a01b031690565b6001600160a01b03167f38d16b8cac22d99fc7c124b9cd0de2d3fa1faef420bfe791d8c362d765e2270060405160405180910390a350565b6000546001600160a01b0316331461033d5760405162461bcd60e51b815260206004820181905260248201527f4f776e61626c653a2063616c6c6572206973206e6f7420746865206f776e657260448201526064016103cc565b600180546001600160a01b03191690556103de81610dcd565b6000806000600360009054906101000a90046001600160a01b03166001600160a01b031663feaf968c6040518163ffffffff1660e01b815260040160a060405180830381865afa158015610c34573d6000803e3d6000fd5b505050506040513d601f19601f82011682018060405250810190610c589190611164565b50935050925050816000148015610c795750600454610c778242611348565b115b9250505090565b6104b0811080610c9257506201518081115b15610cc9576040517f7fee1bc400000000000000000000000000000000000000000000000000000000815260040160405180910390fd5b60028190556040518181527f9a3851f0de50087a4045a25c045b5b3db04b32773b44996506ff6dca26c783af906020015b60405180910390a150565b600380546001600160a01b0319166001600160a01b0383169081179091556040517f73ae4ce26eec2f4ea96b861b67192be67911288f8eb274c2fa6630e8deefab8e90600090a250565b6104b0811080610d6157506201518081115b15610d98576040517fd7c43e0f00000000000000000000000000000000000000000000000000000000815260040160405180910390fd5b60048190556040518181527f848ba7852320e491d84ddc22f1f12fe48672aa22757fc4452703c9046d9982d790602001610cfa565b600080546001600160a01b038381166001600160a01b0319831681178455604051919092169283917f8be0079c531659141344cd1fd0a4f28419497f9722a3daafe3b4186f6b6457e09190a35050565b80356001600160a01b0381168114610e3457600080fd5b919050565b600060208284031215610e4b57600080fd5b61089e82610e1d565b60008083601f840112610e6657600080fd5b50813567ffffffffffffffff811115610e7e57600080fd5b6020830191508360208260051b8501011115610e9957600080fd5b9250929050565b60008060008060408587031215610eb657600080fd5b843567ffffffffffffffff80821115610ece57600080fd5b610eda88838901610e54565b90965094506020870135915080821115610ef357600080fd5b50610f0087828801610e54565b95989497509550505050565b634e487b7160e01b600052604160045260246000fd5b60006020808385031215610f3557600080fd5b823567ffffffffffffffff80821115610f4d57600080fd5b818501915085601f830112610f6157600080fd5b813581811115610f7357610f73610f0c565b8060051b604051601f19603f83011681018181108582111715610f9857610f98610f0c565b604052918252848201925083810185019188831115610fb657600080fd5b938501935b82851015610fdb57610fcc85610e1d565b84529385019392850192610fbb565b98975050505050505050565b6020808252825182820181905260009190848201906040850190845b8181101561101f57835183529284019291840191600101611003565b50909695505050505050565b6020808252825182820181905260009190848201906040850190845b8181101561101f5783516001600160a01b031683529284019291840191600101611047565b60006020828403121561107e57600080fd5b5035919050565b634e487b7160e01b600052603260045260246000fd5b6000808335601e198436030181126110b257600080fd5b83018035915067ffffffffffffffff8211156110cd57600080fd5b6020019150600581901b3603821315610e9957600080fd5b60208082528181018390526000908460408401835b86811015611126576001600160a01b0361111384610e1d565b16825291830191908301906001016110fa565b509695505050505050565b60006020828403121561114357600080fd5b5051919050565b805169ffffffffffffffffffff81168114610e3457600080fd5b600080600080600060a0868803121561117c57600080fd5b6111858661114a565b94506020860151935060408601519250606086015191506111a86080870161114a565b90509295509295909350565b634e487b7160e01b600052601160045260246000fd5b808201808211156111dd576111dd6111b4565b92915050565b6000602082840312156111f557600080fd5b815160ff8116811461089e57600080fd5b600181815b80851115611241578160001904821115611227576112276111b4565b8085161561123457918102915b93841c939080029061120b565b509250929050565b600082611258575060016111dd565b81611265575060006111dd565b816001811461127b5760028114611285576112a1565b60019150506111dd565b60ff841115611296576112966111b4565b50506001821b6111dd565b5060208310610133831016604e8410600b84101617156112c4575081810a6111dd565b6112ce8383611206565b80600019048211156112e2576112e26111b4565b029392505050565b600061089e8383611249565b80820281158282048414176111dd576111dd6111b4565b60008261132a57634e487b7160e01b600052601260045260246000fd5b500490565b600060018201611341576113416111b4565b5060010190565b818103818111156111dd576111dd6111b456fea26469706673582212200f6f6153dbaeb34c8c6e0fee8ffe384c7a59a83626f7bb6f6f40877b0af96db764736f6c63430008130033",
  "devdoc": {
    "kind": "dev",
    "methods": {
      "acceptOwnership()": {
        "details": "The new owner accepts the ownership transfer."
      },
      "owner()": {
        "details": "Returns the address of the current owner."
      },
      "pendingOwner()": {
        "details": "Returns the address of the pending owner."
      },
      "renounceOwnership()": {
        "details": "Leaves the contract without owner. It will not be possible to call `onlyOwner` functions. Can only be called by the current owner. NOTE: Renouncing ownership will leave the contract without an owner, thereby disabling any functionality that is only available to the owner."
      },
      "transferOwnership(address)": {
        "details": "Starts the ownership transfer of the contract to a new account. Replaces the pending transfer if there is one. Can only be called by the current owner."
      }
    },
    "version": 1
  },
  "userdoc": {
    "kind": "user",
    "methods": {},
    "version": 1
  },
  "storageLayout": {
    "storage": [
      {
        "astId": 7,
        "contract": "contracts/CouponOracle.sol:CouponOracle",
        "label": "_owner",
        "offset": 0,
        "slot": "0",
        "type": "t_address"
      },
      {
        "astId": 120,
        "contract": "contracts/CouponOracle.sol:CouponOracle",
        "label": "_pendingOwner",
        "offset": 0,
        "slot": "1",
        "type": "t_address"
      },
      {
        "astId": 10985,
        "contract": "contracts/CouponOracle.sol:CouponOracle",
        "label": "timeout",
        "offset": 0,
        "slot": "2",
        "type": "t_uint256"
      },
      {
        "astId": 10988,
        "contract": "contracts/CouponOracle.sol:CouponOracle",
        "label": "sequencerOracle",
        "offset": 0,
        "slot": "3",
        "type": "t_address"
      },
      {
        "astId": 10991,
        "contract": "contracts/CouponOracle.sol:CouponOracle",
        "label": "gracePeriod",
        "offset": 0,
        "slot": "4",
        "type": "t_uint256"
      },
      {
        "astId": 10994,
        "contract": "contracts/CouponOracle.sol:CouponOracle",
        "label": "fallbackOracle",
        "offset": 0,
        "slot": "5",
        "type": "t_address"
      },
      {
        "astId": 10999,
        "contract": "contracts/CouponOracle.sol:CouponOracle",
        "label": "_feeds",
        "offset": 0,
        "slot": "6",
        "type": "t_mapping(t_address,t_array(t_address)dyn_storage)"
      }
    ],
    "types": {
      "t_address": {
        "encoding": "inplace",
        "label": "address",
        "numberOfBytes": "20"
      },
      "t_array(t_address)dyn_storage": {
        "base": "t_address",
        "encoding": "dynamic_array",
        "label": "address[]",
        "numberOfBytes": "32"
      },
      "t_mapping(t_address,t_array(t_address)dyn_storage)": {
        "encoding": "mapping",
        "key": "t_address",
        "label": "mapping(address => address[])",
        "numberOfBytes": "32",
        "value": "t_array(t_address)dyn_storage"
      },
      "t_uint256": {
        "encoding": "inplace",
        "label": "uint256",
        "numberOfBytes": "32"
      }
    }
  }
}