{
  "address": "0x00644a534bDea310ee2FCCF1c2821Df769A0b12F",
  "abi": [
    {
      "inputs": [
        {
          "internalType": "address[]",
          "name": "minters",
          "type": "address[]"
        },
        {
          "internalType": "string",
          "name": "uri_",
          "type": "string"
        }
      ],
      "stateMutability": "nonpayable",
      "type": "constructor"
    },
    {
      "inputs": [],
      "name": "EpochOverflow",
      "type": "error"
    },
    {
      "inputs": [],
      "name": "InvalidAccess",
      "type": "error"
    },
    {
      "inputs": [],
      "name": "InvalidShortString",
      "type": "error"
    },
    {
      "inputs": [],
      "name": "InvalidSignature",
      "type": "error"
    },
    {
      "inputs": [],
      "name": "PermitExpired",
      "type": "error"
    },
    {
      "inputs": [
        {
          "internalType": "string",
          "name": "str",
          "type": "string"
        }
      ],
      "name": "StringTooLong",
      "type": "error"
    },
    {
      "anonymous": false,
      "inputs": [
        {
          "indexed": true,
          "internalType": "address",
          "name": "account",
          "type": "address"
        },
        {
          "indexed": true,
          "internalType": "address",
          "name": "operator",
          "type": "address"
        },
        {
          "indexed": false,
          "internalType": "bool",
          "name": "approved",
          "type": "bool"
        }
      ],
      "name": "ApprovalForAll",
      "type": "event"
    },
    {
      "anonymous": false,
      "inputs": [],
      "name": "EIP712DomainChanged",
      "type": "event"
    },
    {
      "anonymous": false,
      "inputs": [
        {
          "indexed": true,
          "internalType": "address",
          "name": "operator",
          "type": "address"
        },
        {
          "indexed": true,
          "internalType": "address",
          "name": "from",
          "type": "address"
        },
        {
          "indexed": true,
          "internalType": "address",
          "name": "to",
          "type": "address"
        },
        {
          "indexed": false,
          "internalType": "uint256[]",
          "name": "ids",
          "type": "uint256[]"
        },
        {
          "indexed": false,
          "internalType": "uint256[]",
          "name": "values",
          "type": "uint256[]"
        }
      ],
      "name": "TransferBatch",
      "type": "event"
    },
    {
      "anonymous": false,
      "inputs": [
        {
          "indexed": true,
          "internalType": "address",
          "name": "operator",
          "type": "address"
        },
        {
          "indexed": true,
          "internalType": "address",
          "name": "from",
          "type": "address"
        },
        {
          "indexed": true,
          "internalType": "address",
          "name": "to",
          "type": "address"
        },
        {
          "indexed": false,
          "internalType": "uint256",
          "name": "id",
          "type": "uint256"
        },
        {
          "indexed": false,
          "internalType": "uint256",
          "name": "value",
          "type": "uint256"
        }
      ],
      "name": "TransferSingle",
      "type": "event"
    },
    {
      "anonymous": false,
      "inputs": [
        {
          "indexed": false,
          "internalType": "string",
          "name": "value",
          "type": "string"
        },
        {
          "indexed": true,
          "internalType": "uint256",
          "name": "id",
          "type": "uint256"
        }
      ],
      "name": "URI",
      "type": "event"
    },
    {
      "inputs": [],
      "name": "DOMAIN_SEPARATOR",
      "outputs": [
        {
          "internalType": "bytes32",
          "name": "",
          "type": "bytes32"
        }
      ],
      "stateMutability": "view",
      "type": "function"
    },
    {
      "inputs": [],
      "name": "PERMIT_TYPEHASH",
      "outputs": [
        {
          "internalType": "bytes32",
          "name": "",
          "type": "bytes32"
        }
      ],
      "stateMutability": "view",
      "type": "function"
    },
    {
      "inputs": [
        {
          "internalType": "address",
          "name": "account",
          "type": "address"
        },
        {
          "internalType": "uint256",
          "name": "id",
          "type": "uint256"
        }
      ],
      "name": "balanceOf",
      "outputs": [
        {
          "internalType": "uint256",
          "name": "",
          "type": "uint256"
        }
      ],
      "stateMutability": "view",
      "type": "function"
    },
    {
      "inputs": [
        {
          "internalType": "address[]",
          "name": "accounts",
          "type": "address[]"
        },
        {
          "internalType": "uint256[]",
          "name": "ids",
          "type": "uint256[]"
        }
      ],
      "name": "balanceOfBatch",
      "outputs": [
        {
          "internalType": "uint256[]",
          "name": "",
          "type": "uint256[]"
        }
      ],
      "stateMutability": "view",
      "type": "function"
    },
    {
      "inputs": [],
      "name": "baseURI",
      "outputs": [
        {
          "internalType": "string",
          "name": "",
          "type": "string"
        }
      ],
      "stateMutability": "view",
      "type": "function"
    },
    {
      "inputs": [
        {
          "internalType": "address",
          "name": "user",
          "type": "address"
        },
        {
          "components": [
            {
              "components": [
                {
                  "internalType": "address",
                  "name": "asset",
                  "type": "address"
                },
                {
                  "internalType": "Epoch",
                  "name": "epoch",
                  "type": "uint8"
                }
              ],
              "internalType": "struct CouponKey",
              "name": "key",
              "type": "tuple"
            },
            {
              "internalType": "uint256",
              "name": "amount",
              "type": "uint256"
            }
          ],
          "internalType": "struct Coupon[]",
          "name": "coupons",
          "type": "tuple[]"
        }
      ],
      "name": "burnBatch",
      "outputs": [],
      "stateMutability": "nonpayable",
      "type": "function"
    },
    {
      "inputs": [
        {
          "components": [
            {
              "internalType": "address",
              "name": "asset",
              "type": "address"
            },
            {
              "internalType": "Epoch",
              "name": "epoch",
              "type": "uint8"
            }
          ],
          "internalType": "struct CouponKey[]",
          "name": "couponKeys",
          "type": "tuple[]"
        }
      ],
      "name": "burnExpiredCoupons",
      "outputs": [],
      "stateMutability": "nonpayable",
      "type": "function"
    },
    {
      "inputs": [],
      "name": "currentEpoch",
      "outputs": [
        {
          "internalType": "Epoch",
          "name": "",
          "type": "uint8"
        }
      ],
      "stateMutability": "view",
      "type": "function"
    },
    {
      "inputs": [],
      "name": "eip712Domain",
      "outputs": [
        {
          "internalType": "bytes1",
          "name": "fields",
          "type": "bytes1"
        },
        {
          "internalType": "string",
          "name": "name",
          "type": "string"
        },
        {
          "internalType": "string",
          "name": "version",
          "type": "string"
        },
        {
          "internalType": "uint256",
          "name": "chainId",
          "type": "uint256"
        },
        {
          "internalType": "address",
          "name": "verifyingContract",
          "type": "address"
        },
        {
          "internalType": "bytes32",
          "name": "salt",
          "type": "bytes32"
        },
        {
          "internalType": "uint256[]",
          "name": "extensions",
          "type": "uint256[]"
        }
      ],
      "stateMutability": "view",
      "type": "function"
    },
    {
      "inputs": [
        {
          "internalType": "Epoch",
          "name": "epoch",
          "type": "uint8"
        }
      ],
      "name": "epochEndTime",
      "outputs": [
        {
          "internalType": "uint256",
          "name": "",
          "type": "uint256"
        }
      ],
      "stateMutability": "pure",
      "type": "function"
    },
    {
      "inputs": [
        {
          "internalType": "uint256",
          "name": "id",
          "type": "uint256"
        }
      ],
      "name": "exists",
      "outputs": [
        {
          "internalType": "bool",
          "name": "",
          "type": "bool"
        }
      ],
      "stateMutability": "view",
      "type": "function"
    },
    {
      "inputs": [
        {
          "internalType": "address",
          "name": "account",
          "type": "address"
        },
        {
          "internalType": "address",
          "name": "operator",
          "type": "address"
        }
      ],
      "name": "isApprovedForAll",
      "outputs": [
        {
          "internalType": "bool",
          "name": "",
          "type": "bool"
        }
      ],
      "stateMutability": "view",
      "type": "function"
    },
    {
      "inputs": [
        {
          "internalType": "address",
          "name": "",
          "type": "address"
        }
      ],
      "name": "isMinter",
      "outputs": [
        {
          "internalType": "bool",
          "name": "",
          "type": "bool"
        }
      ],
      "stateMutability": "view",
      "type": "function"
    },
    {
      "inputs": [
        {
          "internalType": "address",
          "name": "to",
          "type": "address"
        },
        {
          "components": [
            {
              "components": [
                {
                  "internalType": "address",
                  "name": "asset",
                  "type": "address"
                },
                {
                  "internalType": "Epoch",
                  "name": "epoch",
                  "type": "uint8"
                }
              ],
              "internalType": "struct CouponKey",
              "name": "key",
              "type": "tuple"
            },
            {
              "internalType": "uint256",
              "name": "amount",
              "type": "uint256"
            }
          ],
          "internalType": "struct Coupon[]",
          "name": "coupons",
          "type": "tuple[]"
        },
        {
          "internalType": "bytes",
          "name": "data",
          "type": "bytes"
        }
      ],
      "name": "mintBatch",
      "outputs": [],
      "stateMutability": "nonpayable",
      "type": "function"
    },
    {
      "inputs": [
        {
          "internalType": "address",
          "name": "",
          "type": "address"
        }
      ],
      "name": "nonces",
      "outputs": [
        {
          "internalType": "uint256",
          "name": "",
          "type": "uint256"
        }
      ],
      "stateMutability": "view",
      "type": "function"
    },
    {
      "inputs": [
        {
          "internalType": "address",
          "name": "owner",
          "type": "address"
        },
        {
          "internalType": "address",
          "name": "operator",
          "type": "address"
        },
        {
          "internalType": "bool",
          "name": "approved",
          "type": "bool"
        },
        {
          "internalType": "uint256",
          "name": "deadline",
          "type": "uint256"
        },
        {
          "internalType": "uint8",
          "name": "v",
          "type": "uint8"
        },
        {
          "internalType": "bytes32",
          "name": "r",
          "type": "bytes32"
        },
        {
          "internalType": "bytes32",
          "name": "s",
          "type": "bytes32"
        }
      ],
      "name": "permit",
      "outputs": [],
      "stateMutability": "nonpayable",
      "type": "function"
    },
    {
      "inputs": [
        {
          "internalType": "address",
          "name": "from",
          "type": "address"
        },
        {
          "internalType": "address",
          "name": "to",
          "type": "address"
        },
        {
          "components": [
            {
              "components": [
                {
                  "internalType": "address",
                  "name": "asset",
                  "type": "address"
                },
                {
                  "internalType": "Epoch",
                  "name": "epoch",
                  "type": "uint8"
                }
              ],
              "internalType": "struct CouponKey",
              "name": "key",
              "type": "tuple"
            },
            {
              "internalType": "uint256",
              "name": "amount",
              "type": "uint256"
            }
          ],
          "internalType": "struct Coupon[]",
          "name": "coupons",
          "type": "tuple[]"
        },
        {
          "internalType": "bytes",
          "name": "data",
          "type": "bytes"
        }
      ],
      "name": "safeBatchTransferFrom",
      "outputs": [],
      "stateMutability": "nonpayable",
      "type": "function"
    },
    {
      "inputs": [
        {
          "internalType": "address",
          "name": "from",
          "type": "address"
        },
        {
          "internalType": "address",
          "name": "to",
          "type": "address"
        },
        {
          "internalType": "uint256[]",
          "name": "ids",
          "type": "uint256[]"
        },
        {
          "internalType": "uint256[]",
          "name": "amounts",
          "type": "uint256[]"
        },
        {
          "internalType": "bytes",
          "name": "data",
          "type": "bytes"
        }
      ],
      "name": "safeBatchTransferFrom",
      "outputs": [],
      "stateMutability": "nonpayable",
      "type": "function"
    },
    {
      "inputs": [
        {
          "internalType": "address",
          "name": "from",
          "type": "address"
        },
        {
          "internalType": "address",
          "name": "to",
          "type": "address"
        },
        {
          "internalType": "uint256",
          "name": "id",
          "type": "uint256"
        },
        {
          "internalType": "uint256",
          "name": "amount",
          "type": "uint256"
        },
        {
          "internalType": "bytes",
          "name": "data",
          "type": "bytes"
        }
      ],
      "name": "safeTransferFrom",
      "outputs": [],
      "stateMutability": "nonpayable",
      "type": "function"
    },
    {
      "inputs": [
        {
          "internalType": "address",
          "name": "operator",
          "type": "address"
        },
        {
          "internalType": "bool",
          "name": "approved",
          "type": "bool"
        }
      ],
      "name": "setApprovalForAll",
      "outputs": [],
      "stateMutability": "nonpayable",
      "type": "function"
    },
    {
      "inputs": [
        {
          "internalType": "bytes4",
          "name": "interfaceId",
          "type": "bytes4"
        }
      ],
      "name": "supportsInterface",
      "outputs": [
        {
          "internalType": "bool",
          "name": "",
          "type": "bool"
        }
      ],
      "stateMutability": "view",
      "type": "function"
    },
    {
      "inputs": [
        {
          "internalType": "uint256",
          "name": "id",
          "type": "uint256"
        }
      ],
      "name": "totalSupply",
      "outputs": [
        {
          "internalType": "uint256",
          "name": "",
          "type": "uint256"
        }
      ],
      "stateMutability": "view",
      "type": "function"
    },
    {
      "inputs": [
        {
          "internalType": "uint256",
          "name": "id",
          "type": "uint256"
        }
      ],
      "name": "uri",
      "outputs": [
        {
          "internalType": "string",
          "name": "",
          "type": "string"
        }
      ],
      "stateMutability": "view",
      "type": "function"
    }
  ],
  "transactionHash": "0x8a3ef8781185943f6e02c83e2a547a76fc47e2147a360f2d7499d1a6032e5c8b",
  "args": [
    [
      "0xe0dbcb42ccac63c949ce3ef879a647ddb662916d",
      "0xdbab42f029333bf720814732bb3e3d74c074b558"
    ],
    "COUPON_BASE_URI"
  ],
  "numDeployments": 1,
  "solcInputHash": "8341a0300ed40a8c4fa0bc45c0cf56b3",
  "bytecode": "0x61016060405234801562000011575f80fd5b50604051620038743803806200387483398101604081905262000034916200032e565b806040518060400160405280600681526020016521b7bab837b760d11b815250604051806040016040528060018152602001603160f81b8152508181846200008281620001bd60201b60201c565b5062000090826003620001cf565b61012052620000a1816004620001cf565b61014052815160208084019190912060e052815190820120610100524660a0526200012e60e05161010051604080517f8b73c3c69bb8fe3d512ecc4cf759cc79239f7b179b0ffacaa9a75d522b39400f60208201529081019290925260608201524660808201523060a08201525f9060c00160405160208183030381529060405280519060200120905090565b60805250503060c052505f9150505b8251811015620001a557600160075f85848151811062000161576200016162000419565b6020908102919091018101516001600160a01b031682528101919091526040015f20805460ff19169115159190911790556200019d816200042d565b90506200013d565b506008620001b48282620004de565b505050620005fe565b6002620001cb8282620004de565b5050565b5f602083511015620001ee57620001e68362000207565b905062000201565b81620001fb8482620004de565b5060ff90505b92915050565b5f80829050601f815111156200023d578260405163305a27a960e01b8152600401620002349190620005a6565b60405180910390fd5b80516200024a82620005da565b179392505050565b634e487b7160e01b5f52604160045260245ffd5b604051601f8201601f191681016001600160401b038111828210171562000291576200029162000252565b604052919050565b5f5b83811015620002b55781810151838201526020016200029b565b50505f910152565b5f82601f830112620002cd575f80fd5b81516001600160401b03811115620002e957620002e962000252565b620002fe601f8201601f191660200162000266565b81815284602083860101111562000313575f80fd5b6200032682602083016020870162000299565b949350505050565b5f806040838503121562000340575f80fd5b82516001600160401b038082111562000357575f80fd5b818501915085601f8301126200036b575f80fd5b815160208282111562000382576200038262000252565b8160051b6200039382820162000266565b928352848101820192828101908a851115620003ad575f80fd5b958301955b84871015620003e657865192506001600160a01b0383168314620003d5575f8081fd5b8282529583019590830190620003b2565b928901519297509194505050508082111562000400575f80fd5b506200040f85828601620002bd565b9150509250929050565b634e487b7160e01b5f52603260045260245ffd5b5f600182016200044b57634e487b7160e01b5f52601160045260245ffd5b5060010190565b600181811c908216806200046757607f821691505b6020821081036200048657634e487b7160e01b5f52602260045260245ffd5b50919050565b601f821115620004d9575f81815260208120601f850160051c81016020861015620004b45750805b601f850160051c820191505b81811015620004d557828155600101620004c0565b5050505b505050565b81516001600160401b03811115620004fa57620004fa62000252565b62000512816200050b845462000452565b846200048c565b602080601f83116001811462000548575f8415620005305750858301515b5f19600386901b1c1916600185901b178555620004d5565b5f85815260208120601f198616915b82811015620005785788860151825594840194600190910190840162000557565b50858210156200059657878501515f19600388901b60f8161c191681555b5050505050600190811b01905550565b602081525f8251806020840152620005c681604085016020870162000299565b601f01601f19169190910160400192915050565b8051602080830151919081101562000486575f1960209190910360031b1b16919050565b60805160a05160c05160e051610100516101205161014051613224620006505f395f61086701525f61083c01525f61146201525f61143a01525f61139501525f6113bf01525f6113e901526132245ff3fe608060405234801561000f575f80fd5b5060043610610183575f3560e01c80636c0360eb116100dd578063bd85b03911610088578063f242432a11610063578063f242432a14610392578063f2c53601146103a5578063f51cc7dd146103b8575f80fd5b8063bd85b03914610331578063ca6ce7ea14610344578063e985e9c514610357575f80fd5b806384b0196e116100b857806384b0196e146102e1578063a22cb465146102fc578063aa271e1a1461030f575f80fd5b80636c0360eb146102a057806376671808146102a85780637ecebe00146102c2575f80fd5b80632eb2c2d61161013d5780633ee44b0f116101185780633ee44b0f1461025a5780634e1273f41461026d5780634f558e791461028d575f80fd5b80632eb2c2d61461021857806330adf81f1461022b5780633644e51514610252575f80fd5b80630c5ee49e1161016d5780630c5ee49e146101d05780630e89341c146101e3578063100886cc14610203575f80fd5b8062fdd58e1461018757806301ffc9a7146101ad575b5f80fd5b61019a61019536600461266b565b6103cb565b6040519081526020015b60405180910390f35b6101c06101bb3660046126a8565b610475565b60405190151581526020016101a4565b61019a6101de3660046126d1565b61047f565b6101f66101f13660046126ec565b61048c565b6040516101a49190612750565b6102166102113660046127aa565b6104ea565b005b6102166102263660046129a0565b610546565b61019a7f7bf72c3e57bc00556754c7454ead7d72d1c0e263909e7c643fbc0d1e0f3c3e7481565b61019a6105e8565b610216610268366004612a43565b6105f6565b61028061027b366004612ab8565b610649565b6040516101a49190612bb6565b6101c061029b3660046126ec565b610785565b6101f661079a565b6102b0610826565b60405160ff90911681526020016101a4565b61019a6102d0366004612bc8565b60056020525f908152604090205481565b6102e961082f565b6040516101a49796959493929190612be1565b61021661030a366004612c79565b6108d2565b6101c061031d366004612bc8565b60076020525f908152604090205460ff1681565b61019a61033f3660046126ec565b6108e1565b610216610352366004612caa565b6108f4565b6101c0610365366004612cf9565b6001600160a01b039182165f90815260016020908152604080832093909416825291909152205460ff1690565b6102166103a0366004612d21565b61093e565b6102166103b3366004612d81565b6109d9565b6102166103c6366004612df0565b610b82565b5f6001600160a01b03831661044d5760405162461bcd60e51b815260206004820152602a60248201527f455243313135353a2061646472657373207a65726f206973206e6f742061207660448201527f616c6964206f776e65720000000000000000000000000000000000000000000060648201526084015b60405180910390fd5b505f818152602081815260408083206001600160a01b03861684529091529020545b92915050565b5f61046f82610dd7565b5f61046f8260ff16610e14565b60605f6008805461049c90612e5f565b9050116104b75760405180602001604052805f81525061046f565b60086104c4836020610e1e565b6040516020016104d5929190612eb2565b60405160208183030381529060405292915050565b5f806104f68686611000565b9150915061053c8888848488888080601f0160208091040260200160405190810160405280939291908181526020018383808284375f9201919091525061054692505050565b5050505050505050565b6001600160a01b03851633148061056257506105628533610365565b6105d45760405162461bcd60e51b815260206004820152602e60248201527f455243313135353a2063616c6c6572206973206e6f7420746f6b656e206f776e60448201527f6572206f7220617070726f7665640000000000000000000000000000000000006064820152608401610444565b6105e1858585858561112a565b5050505050565b5f6105f1611389565b905090565b335f9081526007602052604090205460ff1661062557604051633006171960e21b815260040160405180910390fd5b5f806106318585611000565b91509150610641868383866114b5565b505050505050565b606081518351146106c25760405162461bcd60e51b815260206004820152602960248201527f455243313135353a206163636f756e747320616e6420696473206c656e67746860448201527f206d69736d6174636800000000000000000000000000000000000000000000006064820152608401610444565b5f835167ffffffffffffffff8111156106dd576106dd61285e565b604051908082528060200260200182016040528015610706578160200160208202803683370190505b5090505f5b845181101561077d5761075085828151811061072957610729612f59565b602002602001015185838151811061074357610743612f59565b60200260200101516103cb565b82828151811061076257610762612f59565b602090810291909101015261077681612f81565b905061070b565b509392505050565b5f81815260066020526040812054151561046f565b600880546107a790612e5f565b80601f01602080910402602001604051908101604052809291908181526020018280546107d390612e5f565b801561081e5780601f106107f55761010080835404028352916020019161081e565b820191905f5260205f20905b81548152906001019060200180831161080157829003601f168201915b505050505081565b5f6105f161169d565b5f606080828080836108627f000000000000000000000000000000000000000000000000000000000000000060036116a7565b61088d7f000000000000000000000000000000000000000000000000000000000000000060046116a7565b604080515f808252602082019092527f0f000000000000000000000000000000000000000000000000000000000000009b939a50919850469750309650945092509050565b6108dd338383611750565b5050565b5f8181526006602052604081205461046f565b335f9081526007602052604090205460ff1661092357604051633006171960e21b815260040160405180910390fd5b5f8061092f8484611000565b915091506105e1858383611843565b6001600160a01b03851633148061095a575061095a8533610365565b6109cc5760405162461bcd60e51b815260206004820152602e60248201527f455243313135353a2063616c6c6572206973206e6f7420746f6b656e206f776e60448201527f6572206f7220617070726f7665640000000000000000000000000000000000006064820152608401610444565b6105e18585858585611ac2565b5f8167ffffffffffffffff8111156109f3576109f361285e565b604051908082528060200260200182016040528015610a1c578160200160208202803683370190505b5090505f8267ffffffffffffffff811115610a3957610a3961285e565b604051908082528060200260200182016040528015610a62578160200160208202803683370190505b5090505f610a6e61169d565b90505f805b85811015610b7057610ab4878783818110610a9057610a90612f59565b9050604002016020016020810190610aa891906126d1565b60ff8086169116101590565b610b60575f610af5888884818110610ace57610ace612f59565b905060400201803603810190610ae49190612f99565b6020810151905160a09190911b0190565b90505f610b0233836103cb565b9050805f03610b12575050610b60565b83610b1c81612f81565b94505081878481518110610b3257610b32612f59565b60200260200101818152505080868481518110610b5157610b51612f59565b60200260200101818152505050505b610b6981612f81565b9050610a73565b50808452808352610641338585611843565b83421115610bbc576040517f1a15a3cc00000000000000000000000000000000000000000000000000000000815260040160405180910390fd5b6001600160a01b038781165f81815260056020908152604080832080546001810190915581517f7bf72c3e57bc00556754c7454ead7d72d1c0e263909e7c643fbc0d1e0f3c3e748185015280830195909552948b166060850152891515608085015260a084019490945260c08084018990528451808503909101815260e09093019093528151919092012090610c5182611c6c565b90506001600160a01b0389163b15610d7e57604080516020810186905280820185905260f887901b7fff000000000000000000000000000000000000000000000000000000000000001660608201528151604181830301815260618201928390527f1626ba7e000000000000000000000000000000000000000000000000000000009092526001600160a01b038b1691631626ba7e91610cf5918591606501612ff4565b602060405180830381865afa158015610d10573d5f803e3d5ffd5b505050506040513d601f19601f82011682018060405250810190610d349190613014565b7bffffffffffffffffffffffffffffffffffffffffffffffffffffffff1916631626ba7e60e01b14610d7957604051638baa579f60e01b815260040160405180910390fd5b610dc1565b5f610d8b82878787611cb3565b9050896001600160a01b0316816001600160a01b031614610dbf57604051638baa579f60e01b815260040160405180910390fd5b505b610dcc898989611750565b505050505050505050565b5f6001600160e01b031982167f8d3b64d700000000000000000000000000000000000000000000000000000000148061046f575061046f82611cd9565b5f61046f82611d73565b60605f610e2c83600261302f565b610e37906002613046565b67ffffffffffffffff811115610e4f57610e4f61285e565b6040519080825280601f01601f191660200182016040528015610e79576020820181803683370190505b5090507f3000000000000000000000000000000000000000000000000000000000000000815f81518110610eaf57610eaf612f59565b60200101906001600160f81b03191690815f1a9053507f780000000000000000000000000000000000000000000000000000000000000081600181518110610ef957610ef9612f59565b60200101906001600160f81b03191690815f1a9053505f610f1b84600261302f565b610f26906001613046565b90505b6001811115610faa577f303132333435363738396162636465660000000000000000000000000000000085600f1660108110610f6757610f67612f59565b1a60f81b828281518110610f7d57610f7d612f59565b60200101906001600160f81b03191690815f1a90535060049490941c93610fa381613059565b9050610f29565b508315610ff95760405162461bcd60e51b815260206004820181905260248201527f537472696e67733a20686578206c656e67746820696e73756666696369656e746044820152606401610444565b9392505050565b6060808267ffffffffffffffff81111561101c5761101c61285e565b604051908082528060200260200182016040528015611045578160200160208202803683370190505b5091508267ffffffffffffffff8111156110615761106161285e565b60405190808252806020026020018201604052801561108a578160200160208202803683370190505b5090505f5b83811015611122576110c38585838181106110ac576110ac612f59565b610ae4926060909102013681900381019150612f99565b8382815181106110d5576110d5612f59565b6020026020010181815250508484828181106110f3576110f3612f59565b9050606002016040013582828151811061110f5761110f612f59565b602090810291909101015260010161108f565b509250929050565b815183511461118c5760405162461bcd60e51b815260206004820152602860248201527f455243313135353a2069647320616e6420616d6f756e7473206c656e677468206044820152670dad2e6dac2e8c6d60c31b6064820152608401610444565b6001600160a01b0384166111f05760405162461bcd60e51b815260206004820152602560248201527f455243313135353a207472616e7366657220746f20746865207a65726f206164604482015264647265737360d81b6064820152608401610444565b336111ff818787878787611e44565b5f5b8451811015611323575f85828151811061121d5761121d612f59565b602002602001015190505f85838151811061123a5761123a612f59565b6020908102919091018101515f84815280835260408082206001600160a01b038e1683529093529190912054909150818110156112cc5760405162461bcd60e51b815260206004820152602a60248201527f455243313135353a20696e73756666696369656e742062616c616e636520666f60448201526939103a3930b739b332b960b11b6064820152608401610444565b5f838152602081815260408083206001600160a01b038e8116855292528083208585039055908b16825281208054849290611308908490613046565b925050819055505050508061131c90612f81565b9050611201565b50846001600160a01b0316866001600160a01b0316826001600160a01b03167f4a39dc06d4c0dbc64b70af90fd698a233a518aa5d07e595d983b8c0526c8f7fb878760405161137392919061306e565b60405180910390a4610641818787878787611e52565b5f306001600160a01b037f0000000000000000000000000000000000000000000000000000000000000000161480156113e157507f000000000000000000000000000000000000000000000000000000000000000046145b1561140b57507f000000000000000000000000000000000000000000000000000000000000000090565b6105f1604080517f8b73c3c69bb8fe3d512ecc4cf759cc79239f7b179b0ffacaa9a75d522b39400f60208201527f0000000000000000000000000000000000000000000000000000000000000000918101919091527f000000000000000000000000000000000000000000000000000000000000000060608201524660808201523060a08201525f9060c00160405160208183030381529060405280519060200120905090565b90565b6001600160a01b0384166115315760405162461bcd60e51b815260206004820152602160248201527f455243313135353a206d696e7420746f20746865207a65726f2061646472657360448201527f73000000000000000000000000000000000000000000000000000000000000006064820152608401610444565b81518351146115935760405162461bcd60e51b815260206004820152602860248201527f455243313135353a2069647320616e6420616d6f756e7473206c656e677468206044820152670dad2e6dac2e8c6d60c31b6064820152608401610444565b336115a2815f87878787611e44565b5f5b8451811015611637578381815181106115bf576115bf612f59565b60200260200101515f808784815181106115db576115db612f59565b602002602001015181526020019081526020015f205f886001600160a01b03166001600160a01b031681526020019081526020015f205f82825461161f9190613046565b9091555081905061162f81612f81565b9150506115a4565b50846001600160a01b03165f6001600160a01b0316826001600160a01b03167f4a39dc06d4c0dbc64b70af90fd698a233a518aa5d07e595d983b8c0526c8f7fb878760405161168792919061306e565b60405180910390a46105e1815f87878787611e52565b5f6105f142611fff565b606060ff83146116c1576116ba836120e8565b905061046f565b8180546116cd90612e5f565b80601f01602080910402602001604051908101604052809291908181526020018280546116f990612e5f565b80156117445780601f1061171b57610100808354040283529160200191611744565b820191905f5260205f20905b81548152906001019060200180831161172757829003601f168201915b5050505050905061046f565b816001600160a01b0316836001600160a01b0316036117d75760405162461bcd60e51b815260206004820152602960248201527f455243313135353a2073657474696e6720617070726f76616c2073746174757360448201527f20666f722073656c6600000000000000000000000000000000000000000000006064820152608401610444565b6001600160a01b038381165f81815260016020908152604080832094871680845294825291829020805460ff191686151590811790915591519182527f17307eab39ab6107e8899845ad3d59bd9653f200f220920489ca2b5937696c31910160405180910390a3505050565b6001600160a01b0383166118bf5760405162461bcd60e51b815260206004820152602360248201527f455243313135353a206275726e2066726f6d20746865207a65726f206164647260448201527f65737300000000000000000000000000000000000000000000000000000000006064820152608401610444565b80518251146119215760405162461bcd60e51b815260206004820152602860248201527f455243313135353a2069647320616e6420616d6f756e7473206c656e677468206044820152670dad2e6dac2e8c6d60c31b6064820152608401610444565b5f33905061194181855f868660405180602001604052805f815250611e44565b5f5b8351811015611a56575f84828151811061195f5761195f612f59565b602002602001015190505f84838151811061197c5761197c612f59565b6020908102919091018101515f84815280835260408082206001600160a01b038c168352909352919091205490915081811015611a205760405162461bcd60e51b8152602060048201526024808201527f455243313135353a206275726e20616d6f756e7420657863656564732062616c60448201527f616e6365000000000000000000000000000000000000000000000000000000006064820152608401610444565b5f928352602083815260408085206001600160a01b038b1686529091529092209103905580611a4e81612f81565b915050611943565b505f6001600160a01b0316846001600160a01b0316826001600160a01b03167f4a39dc06d4c0dbc64b70af90fd698a233a518aa5d07e595d983b8c0526c8f7fb8686604051611aa692919061306e565b60405180910390a460408051602081019091525f905250505050565b6001600160a01b038416611b265760405162461bcd60e51b815260206004820152602560248201527f455243313135353a207472616e7366657220746f20746865207a65726f206164604482015264647265737360d81b6064820152608401610444565b335f611b3185612125565b90505f611b3d85612125565b9050611b4d838989858589611e44565b5f868152602081815260408083206001600160a01b038c16845290915290205485811015611bd05760405162461bcd60e51b815260206004820152602a60248201527f455243313135353a20696e73756666696369656e742062616c616e636520666f60448201526939103a3930b739b332b960b11b6064820152608401610444565b5f878152602081815260408083206001600160a01b038d8116855292528083208985039055908a16825281208054889290611c0c908490613046565b909155505060408051888152602081018890526001600160a01b03808b16928c821692918816917fc3d58168c5ae7397731d063d5bbf3d657854427343f4c083240f7aacaa2d0f62910160405180910390a4610dcc848a8a8a8a8a61216e565b5f61046f611c78611389565b836040517f19010000000000000000000000000000000000000000000000000000000000008152600281019290925260228201526042902090565b5f805f611cc287878787612269565b91509150611ccf81612326565b5095945050505050565b5f6001600160e01b031982167fd9b67a26000000000000000000000000000000000000000000000000000000001480611d3b57506001600160e01b031982167f0e89341c00000000000000000000000000000000000000000000000000000000145b8061046f57507f01ffc9a7000000000000000000000000000000000000000000000000000000006001600160e01b031983161461046f565b5f600660ff831681020181600c82046107b20190506004600c8381611d9a57611d9a613092565b06901b915060048106158015611db257506064810615155b80611dbf57506101908106155b15611de85779016e014f0131011200f400d500b600980079005b003c001f000090911c90611e08565b79016d014e0130011100f300d400b500970078005a003b001f000090911c905b6201518061019061064019830104606461076c1984010460046107b0198501046107b2850361016d028661ffff16010103010292505050919050565b61064186868686868661248d565b6001600160a01b0384163b156106415760405163bc197c8160e01b81526001600160a01b0385169063bc197c8190611e9690899089908890889088906004016130a6565b6020604051808303815f875af1925050508015611ed0575060408051601f3d908101601f19168201909252611ecd91810190613014565b60015b611f8557611edc6130f7565b806308c379a003611f155750611ef061310f565b80611efb5750611f17565b8060405162461bcd60e51b81526004016104449190612750565b505b60405162461bcd60e51b815260206004820152603460248201527f455243313135353a207472616e7366657220746f206e6f6e2d4552433131353560448201527f526563656976657220696d706c656d656e7465720000000000000000000000006064820152608401610444565b6001600160e01b0319811663bc197c8160e01b14611ff65760405162461bcd60e51b815260206004820152602860248201527f455243313135353a204552433131353552656365697665722072656a656374656044820152676420746f6b656e7360c01b6064820152608401610444565b50505050505050565b5f806201518083049050806226496581015f62023ab1600483020590506004600362023ab183020105909103905f62164b09610fa0600185010205905060046105b58202058303601f0192505f61098f846050028161206057612060613092565b059050600b8105935083600c0281600201039050838260318503606402010191505f60066001836107b28603600c0201038161209e5761209e613092565b04905060ff8111156120dc576040517f73cde75100000000000000000000000000000000000000000000000000000000815260040160405180910390fd5b98975050505050505050565b60605f6120f483612610565b6040805160208082528183019092529192505f91906020820181803683375050509182525060208101929092525090565b6040805160018082528183019092526060915f91906020808301908036833701905050905082815f8151811061215d5761215d612f59565b602090810291909101015292915050565b6001600160a01b0384163b156106415760405163f23a6e6160e01b81526001600160a01b0385169063f23a6e61906121b29089908990889088908890600401613198565b6020604051808303815f875af19250505080156121ec575060408051601f3d908101601f191682019092526121e991810190613014565b60015b6121f857611edc6130f7565b6001600160e01b0319811663f23a6e6160e01b14611ff65760405162461bcd60e51b815260206004820152602860248201527f455243313135353a204552433131353552656365697665722072656a656374656044820152676420746f6b656e7360c01b6064820152608401610444565b5f807f7fffffffffffffffffffffffffffffff5d576e7357a4501ddfe92f46681b20a083111561229e57505f9050600361231d565b604080515f8082526020820180845289905260ff881692820192909252606081018690526080810185905260019060a0016020604051602081039080840390855afa1580156122ef573d5f803e3d5ffd5b5050604051601f1901519150506001600160a01b038116612317575f6001925092505061231d565b91505f90505b94509492505050565b5f816004811115612339576123396131da565b036123415750565b6001816004811115612355576123556131da565b036123a25760405162461bcd60e51b815260206004820152601860248201527f45434453413a20696e76616c6964207369676e617475726500000000000000006044820152606401610444565b60028160048111156123b6576123b66131da565b036124035760405162461bcd60e51b815260206004820152601f60248201527f45434453413a20696e76616c6964207369676e6174757265206c656e677468006044820152606401610444565b6003816004811115612417576124176131da565b0361248a5760405162461bcd60e51b815260206004820152602260248201527f45434453413a20696e76616c6964207369676e6174757265202773272076616c60448201527f75650000000000000000000000000000000000000000000000000000000000006064820152608401610444565b50565b6001600160a01b038516612510575f5b835181101561250e578281815181106124b8576124b8612f59565b602002602001015160065f8684815181106124d5576124d5612f59565b602002602001015181526020019081526020015f205f8282546124f89190613046565b90915550612507905081612f81565b905061249d565b505b6001600160a01b038416610641575f5b8351811015611ff6575f84828151811061253c5761253c612f59565b602002602001015190505f84838151811061255957612559612f59565b602002602001015190505f60065f8481526020019081526020015f20549050818110156125ee5760405162461bcd60e51b815260206004820152602860248201527f455243313135353a206275726e20616d6f756e74206578636565647320746f7460448201527f616c537570706c790000000000000000000000000000000000000000000000006064820152608401610444565b5f928352600660205260409092209103905561260981612f81565b9050612520565b5f60ff8216601f81111561046f576040517fb3512b0c00000000000000000000000000000000000000000000000000000000815260040160405180910390fd5b80356001600160a01b0381168114612666575f80fd5b919050565b5f806040838503121561267c575f80fd5b61268583612650565b946020939093013593505050565b6001600160e01b03198116811461248a575f80fd5b5f602082840312156126b8575f80fd5b8135610ff981612693565b60ff8116811461248a575f80fd5b5f602082840312156126e1575f80fd5b8135610ff9816126c3565b5f602082840312156126fc575f80fd5b5035919050565b5f5b8381101561271d578181015183820152602001612705565b50505f910152565b5f815180845261273c816020860160208601612703565b601f01601f19169290920160200192915050565b602081525f610ff96020830184612725565b5f8083601f840112612772575f80fd5b50813567ffffffffffffffff811115612789575f80fd5b6020830191508360206060830285010111156127a3575f80fd5b9250929050565b5f805f805f80608087890312156127bf575f80fd5b6127c887612650565b95506127d660208801612650565b9450604087013567ffffffffffffffff808211156127f2575f80fd5b6127fe8a838b01612762565b90965094506060890135915080821115612816575f80fd5b818901915089601f830112612829575f80fd5b813581811115612837575f80fd5b8a6020828501011115612848575f80fd5b6020830194508093505050509295509295509295565b634e487b7160e01b5f52604160045260245ffd5b601f8201601f1916810167ffffffffffffffff811182821017156128985761289861285e565b6040525050565b5f67ffffffffffffffff8211156128b8576128b861285e565b5060051b60200190565b5f82601f8301126128d1575f80fd5b813560206128de8261289f565b6040516128eb8282612872565b83815260059390931b850182019282810191508684111561290a575f80fd5b8286015b84811015612925578035835291830191830161290e565b509695505050505050565b5f82601f83011261293f575f80fd5b813567ffffffffffffffff8111156129595761295961285e565b604051612970601f8301601f191660200182612872565b818152846020838601011115612984575f80fd5b816020850160208301375f918101602001919091529392505050565b5f805f805f60a086880312156129b4575f80fd5b6129bd86612650565b94506129cb60208701612650565b9350604086013567ffffffffffffffff808211156129e7575f80fd5b6129f389838a016128c2565b94506060880135915080821115612a08575f80fd5b612a1489838a016128c2565b93506080880135915080821115612a29575f80fd5b50612a3688828901612930565b9150509295509295909350565b5f805f8060608587031215612a56575f80fd5b612a5f85612650565b9350602085013567ffffffffffffffff80821115612a7b575f80fd5b612a8788838901612762565b90955093506040870135915080821115612a9f575f80fd5b50612aac87828801612930565b91505092959194509250565b5f8060408385031215612ac9575f80fd5b823567ffffffffffffffff80821115612ae0575f80fd5b818501915085601f830112612af3575f80fd5b81356020612b008261289f565b604051612b0d8282612872565b83815260059390931b8501820192828101915089841115612b2c575f80fd5b948201945b83861015612b5157612b4286612650565b82529482019490820190612b31565b96505086013592505080821115612b66575f80fd5b50612b73858286016128c2565b9150509250929050565b5f8151808452602080850194508084015f5b83811015612bab57815187529582019590820190600101612b8f565b509495945050505050565b602081525f610ff96020830184612b7d565b5f60208284031215612bd8575f80fd5b610ff982612650565b7fff000000000000000000000000000000000000000000000000000000000000008816815260e060208201525f612c1b60e0830189612725565b8281036040840152612c2d8189612725565b90508660608401526001600160a01b03861660808401528460a084015282810360c0840152612c5c8185612b7d565b9a9950505050505050505050565b80358015158114612666575f80fd5b5f8060408385031215612c8a575f80fd5b612c9383612650565b9150612ca160208401612c6a565b90509250929050565b5f805f60408486031215612cbc575f80fd5b612cc584612650565b9250602084013567ffffffffffffffff811115612ce0575f80fd5b612cec86828701612762565b9497909650939450505050565b5f8060408385031215612d0a575f80fd5b612d1383612650565b9150612ca160208401612650565b5f805f805f60a08688031215612d35575f80fd5b612d3e86612650565b9450612d4c60208701612650565b93506040860135925060608601359150608086013567ffffffffffffffff811115612d75575f80fd5b612a3688828901612930565b5f8060208385031215612d92575f80fd5b823567ffffffffffffffff80821115612da9575f80fd5b818501915085601f830112612dbc575f80fd5b813581811115612dca575f80fd5b8660208260061b8501011115612dde575f80fd5b60209290920196919550909350505050565b5f805f805f805f60e0888a031215612e06575f80fd5b612e0f88612650565b9650612e1d60208901612650565b9550612e2b60408901612c6a565b9450606088013593506080880135612e42816126c3565b9699959850939692959460a0840135945060c09093013592915050565b600181811c90821680612e7357607f821691505b602082108103612e9157634e487b7160e01b5f52602260045260245ffd5b50919050565b5f8151612ea8818560208601612703565b9290920192915050565b5f80845481600182811c915080831680612ecd57607f831692505b60208084108203612eec57634e487b7160e01b86526022600452602486fd5b818015612f005760018114612f1557612f40565b60ff1986168952841515850289019650612f40565b5f8b8152602090205f5b86811015612f385781548b820152908501908301612f1f565b505084890196505b505050505050612f508185612e97565b95945050505050565b634e487b7160e01b5f52603260045260245ffd5b634e487b7160e01b5f52601160045260245ffd5b5f60018201612f9257612f92612f6d565b5060010190565b5f60408284031215612fa9575f80fd5b6040516040810181811067ffffffffffffffff82111715612fcc57612fcc61285e565b604052612fd883612650565b81526020830135612fe8816126c3565b60208201529392505050565b828152604060208201525f61300c6040830184612725565b949350505050565b5f60208284031215613024575f80fd5b8151610ff981612693565b808202811582820484141761046f5761046f612f6d565b8082018082111561046f5761046f612f6d565b5f8161306757613067612f6d565b505f190190565b604081525f6130806040830185612b7d565b8281036020840152612f508185612b7d565b634e487b7160e01b5f52601260045260245ffd5b5f6001600160a01b03808816835280871660208401525060a060408301526130d160a0830186612b7d565b82810360608401526130e38186612b7d565b905082810360808401526120dc8185612725565b5f60033d11156114b25760045f803e505f5160e01c90565b5f60443d101561311c5790565b6040516003193d81016004833e81513d67ffffffffffffffff816024840111818411171561314c57505050505090565b82850191508151818111156131645750505050505090565b843d870101602082850101111561317e5750505050505090565b61318d60208286010187612872565b509095945050505050565b5f6001600160a01b03808816835280871660208401525084604083015283606083015260a060808301526131cf60a0830184612725565b979650505050505050565b634e487b7160e01b5f52602160045260245ffdfea26469706673582212208123b2c3f4e38302ce8dcfe71a10bc239215d6764aaa56f8c7f22a9a3a36d13a64736f6c63430008140033",
  "devdoc": {
    "events": {
      "ApprovalForAll(address,address,bool)": {
        "details": "Emitted when `account` grants or revokes permission to `operator` to transfer their tokens, according to `approved`."
      },
      "EIP712DomainChanged()": {
        "details": "MAY be emitted to signal that the domain could have changed."
      },
      "TransferBatch(address,address,address,uint256[],uint256[])": {
        "details": "Equivalent to multiple {TransferSingle} events, where `operator`, `from` and `to` are the same for all transfers."
      },
      "TransferSingle(address,address,address,uint256,uint256)": {
        "details": "Emitted when `value` tokens of token type `id` are transferred from `from` to `to` by `operator`."
      },
      "URI(string,uint256)": {
        "details": "Emitted when the URI for token type `id` changes to `value`, if it is a non-programmatic URI. If an {URI} event was emitted for `id`, the standard https://eips.ethereum.org/EIPS/eip-1155#metadata-extensions[guarantees] that `value` will equal the value returned by {IERC1155MetadataURI-uri}."
      }
    },
    "kind": "dev",
    "methods": {
      "balanceOf(address,uint256)": {
        "details": "See {IERC1155-balanceOf}. Requirements: - `account` cannot be the zero address."
      },
      "balanceOfBatch(address[],uint256[])": {
        "details": "See {IERC1155-balanceOfBatch}. Requirements: - `accounts` and `ids` must have the same length."
      },
      "eip712Domain()": {
        "details": "See {EIP-5267}. _Available since v4.9._"
      },
      "isApprovedForAll(address,address)": {
        "details": "See {IERC1155-isApprovedForAll}."
      },
      "safeBatchTransferFrom(address,address,uint256[],uint256[],bytes)": {
        "details": "See {IERC1155-safeBatchTransferFrom}."
      },
      "safeTransferFrom(address,address,uint256,uint256,bytes)": {
        "details": "See {IERC1155-safeTransferFrom}."
      },
      "setApprovalForAll(address,bool)": {
        "details": "See {IERC1155-setApprovalForAll}."
      }
    },
    "version": 1
  },
  "userdoc": {
    "kind": "user",
    "methods": {},
    "version": 1
  },
  "storageLayout": {
    "storage": [
      {
        "astId": 177,
        "contract": "contracts/CouponManager.sol:CouponManager",
        "label": "_balances",
        "offset": 0,
        "slot": "0",
        "type": "t_mapping(t_uint256,t_mapping(t_address,t_uint256))"
      },
      {
        "astId": 183,
        "contract": "contracts/CouponManager.sol:CouponManager",
        "label": "_operatorApprovals",
        "offset": 0,
        "slot": "1",
        "type": "t_mapping(t_address,t_mapping(t_address,t_bool))"
      },
      {
        "astId": 185,
        "contract": "contracts/CouponManager.sol:CouponManager",
        "label": "_uri",
        "offset": 0,
        "slot": "2",
        "type": "t_string_storage"
      },
      {
        "astId": 5536,
        "contract": "contracts/CouponManager.sol:CouponManager",
        "label": "_nameFallback",
        "offset": 0,
        "slot": "3",
        "type": "t_string_storage"
      },
      {
        "astId": 5538,
        "contract": "contracts/CouponManager.sol:CouponManager",
        "label": "_versionFallback",
        "offset": 0,
        "slot": "4",
        "type": "t_string_storage"
      },
      {
        "astId": 19372,
        "contract": "contracts/CouponManager.sol:CouponManager",
        "label": "nonces",
        "offset": 0,
        "slot": "5",
        "type": "t_mapping(t_address,t_uint256)"
      },
      {
        "astId": 1547,
        "contract": "contracts/CouponManager.sol:CouponManager",
        "label": "_totalSupply",
        "offset": 0,
        "slot": "6",
        "type": "t_mapping(t_uint256,t_uint256)"
      },
      {
        "astId": 10477,
        "contract": "contracts/CouponManager.sol:CouponManager",
        "label": "isMinter",
        "offset": 0,
        "slot": "7",
        "type": "t_mapping(t_address,t_bool)"
      },
      {
        "astId": 10480,
        "contract": "contracts/CouponManager.sol:CouponManager",
        "label": "baseURI",
        "offset": 0,
        "slot": "8",
        "type": "t_string_storage"
      }
    ],
    "types": {
      "t_address": {
        "encoding": "inplace",
        "label": "address",
        "numberOfBytes": "20"
      },
      "t_bool": {
        "encoding": "inplace",
        "label": "bool",
        "numberOfBytes": "1"
      },
      "t_mapping(t_address,t_bool)": {
        "encoding": "mapping",
        "key": "t_address",
        "label": "mapping(address => bool)",
        "numberOfBytes": "32",
        "value": "t_bool"
      },
      "t_mapping(t_address,t_mapping(t_address,t_bool))": {
        "encoding": "mapping",
        "key": "t_address",
        "label": "mapping(address => mapping(address => bool))",
        "numberOfBytes": "32",
        "value": "t_mapping(t_address,t_bool)"
      },
      "t_mapping(t_address,t_uint256)": {
        "encoding": "mapping",
        "key": "t_address",
        "label": "mapping(address => uint256)",
        "numberOfBytes": "32",
        "value": "t_uint256"
      },
      "t_mapping(t_uint256,t_mapping(t_address,t_uint256))": {
        "encoding": "mapping",
        "key": "t_uint256",
        "label": "mapping(uint256 => mapping(address => uint256))",
        "numberOfBytes": "32",
        "value": "t_mapping(t_address,t_uint256)"
      },
      "t_mapping(t_uint256,t_uint256)": {
        "encoding": "mapping",
        "key": "t_uint256",
        "label": "mapping(uint256 => uint256)",
        "numberOfBytes": "32",
        "value": "t_uint256"
      },
      "t_string_storage": {
        "encoding": "bytes",
        "label": "string",
        "numberOfBytes": "32"
      },
      "t_uint256": {
        "encoding": "inplace",
        "label": "uint256",
        "numberOfBytes": "32"
      }
    }
  }
}