{
  "address": "0x84935D96838Ec5a12D7226D8f69AC5B7ab74522e",
  "abi": [
    {
      "inputs": [
        {
          "internalType": "address[]",
          "name": "minters",
          "type": "address[]"
        },
        {
          "internalType": "string",
          "name": "uri_",
          "type": "string"
        }
      ],
      "stateMutability": "nonpayable",
      "type": "constructor"
    },
    {
      "inputs": [],
      "name": "EpochOverflow",
      "type": "error"
    },
    {
      "inputs": [],
      "name": "InvalidAccess",
      "type": "error"
    },
    {
      "inputs": [],
      "name": "InvalidShortString",
      "type": "error"
    },
    {
      "inputs": [],
      "name": "InvalidSignature",
      "type": "error"
    },
    {
      "inputs": [],
      "name": "PermitExpired",
      "type": "error"
    },
    {
      "inputs": [
        {
          "internalType": "string",
          "name": "str",
          "type": "string"
        }
      ],
      "name": "StringTooLong",
      "type": "error"
    },
    {
      "anonymous": false,
      "inputs": [
        {
          "indexed": true,
          "internalType": "address",
          "name": "account",
          "type": "address"
        },
        {
          "indexed": true,
          "internalType": "address",
          "name": "operator",
          "type": "address"
        },
        {
          "indexed": false,
          "internalType": "bool",
          "name": "approved",
          "type": "bool"
        }
      ],
      "name": "ApprovalForAll",
      "type": "event"
    },
    {
      "anonymous": false,
      "inputs": [],
      "name": "EIP712DomainChanged",
      "type": "event"
    },
    {
      "anonymous": false,
      "inputs": [
        {
          "indexed": true,
          "internalType": "address",
          "name": "operator",
          "type": "address"
        },
        {
          "indexed": true,
          "internalType": "address",
          "name": "from",
          "type": "address"
        },
        {
          "indexed": true,
          "internalType": "address",
          "name": "to",
          "type": "address"
        },
        {
          "indexed": false,
          "internalType": "uint256[]",
          "name": "ids",
          "type": "uint256[]"
        },
        {
          "indexed": false,
          "internalType": "uint256[]",
          "name": "values",
          "type": "uint256[]"
        }
      ],
      "name": "TransferBatch",
      "type": "event"
    },
    {
      "anonymous": false,
      "inputs": [
        {
          "indexed": true,
          "internalType": "address",
          "name": "operator",
          "type": "address"
        },
        {
          "indexed": true,
          "internalType": "address",
          "name": "from",
          "type": "address"
        },
        {
          "indexed": true,
          "internalType": "address",
          "name": "to",
          "type": "address"
        },
        {
          "indexed": false,
          "internalType": "uint256",
          "name": "id",
          "type": "uint256"
        },
        {
          "indexed": false,
          "internalType": "uint256",
          "name": "value",
          "type": "uint256"
        }
      ],
      "name": "TransferSingle",
      "type": "event"
    },
    {
      "anonymous": false,
      "inputs": [
        {
          "indexed": false,
          "internalType": "string",
          "name": "value",
          "type": "string"
        },
        {
          "indexed": true,
          "internalType": "uint256",
          "name": "id",
          "type": "uint256"
        }
      ],
      "name": "URI",
      "type": "event"
    },
    {
      "inputs": [],
      "name": "DOMAIN_SEPARATOR",
      "outputs": [
        {
          "internalType": "bytes32",
          "name": "",
          "type": "bytes32"
        }
      ],
      "stateMutability": "view",
      "type": "function"
    },
    {
      "inputs": [],
      "name": "PERMIT_TYPEHASH",
      "outputs": [
        {
          "internalType": "bytes32",
          "name": "",
          "type": "bytes32"
        }
      ],
      "stateMutability": "view",
      "type": "function"
    },
    {
      "inputs": [
        {
          "internalType": "address",
          "name": "account",
          "type": "address"
        },
        {
          "internalType": "uint256",
          "name": "id",
          "type": "uint256"
        }
      ],
      "name": "balanceOf",
      "outputs": [
        {
          "internalType": "uint256",
          "name": "",
          "type": "uint256"
        }
      ],
      "stateMutability": "view",
      "type": "function"
    },
    {
      "inputs": [
        {
          "internalType": "address[]",
          "name": "accounts",
          "type": "address[]"
        },
        {
          "internalType": "uint256[]",
          "name": "ids",
          "type": "uint256[]"
        }
      ],
      "name": "balanceOfBatch",
      "outputs": [
        {
          "internalType": "uint256[]",
          "name": "",
          "type": "uint256[]"
        }
      ],
      "stateMutability": "view",
      "type": "function"
    },
    {
      "inputs": [],
      "name": "baseURI",
      "outputs": [
        {
          "internalType": "string",
          "name": "",
          "type": "string"
        }
      ],
      "stateMutability": "view",
      "type": "function"
    },
    {
      "inputs": [
        {
          "internalType": "address",
          "name": "user",
          "type": "address"
        },
        {
          "components": [
            {
              "components": [
                {
                  "internalType": "address",
                  "name": "asset",
                  "type": "address"
                },
                {
                  "internalType": "Epoch",
                  "name": "epoch",
                  "type": "uint16"
                }
              ],
              "internalType": "struct CouponKey",
              "name": "key",
              "type": "tuple"
            },
            {
              "internalType": "uint256",
              "name": "amount",
              "type": "uint256"
            }
          ],
          "internalType": "struct Coupon[]",
          "name": "coupons",
          "type": "tuple[]"
        }
      ],
      "name": "burnBatch",
      "outputs": [],
      "stateMutability": "nonpayable",
      "type": "function"
    },
    {
      "inputs": [
        {
          "components": [
            {
              "internalType": "address",
              "name": "asset",
              "type": "address"
            },
            {
              "internalType": "Epoch",
              "name": "epoch",
              "type": "uint16"
            }
          ],
          "internalType": "struct CouponKey[]",
          "name": "couponKeys",
          "type": "tuple[]"
        }
      ],
      "name": "burnExpiredCoupons",
      "outputs": [],
      "stateMutability": "nonpayable",
      "type": "function"
    },
    {
      "inputs": [],
      "name": "currentEpoch",
      "outputs": [
        {
          "internalType": "Epoch",
          "name": "",
          "type": "uint16"
        }
      ],
      "stateMutability": "view",
      "type": "function"
    },
    {
      "inputs": [],
      "name": "eip712Domain",
      "outputs": [
        {
          "internalType": "bytes1",
          "name": "fields",
          "type": "bytes1"
        },
        {
          "internalType": "string",
          "name": "name",
          "type": "string"
        },
        {
          "internalType": "string",
          "name": "version",
          "type": "string"
        },
        {
          "internalType": "uint256",
          "name": "chainId",
          "type": "uint256"
        },
        {
          "internalType": "address",
          "name": "verifyingContract",
          "type": "address"
        },
        {
          "internalType": "bytes32",
          "name": "salt",
          "type": "bytes32"
        },
        {
          "internalType": "uint256[]",
          "name": "extensions",
          "type": "uint256[]"
        }
      ],
      "stateMutability": "view",
      "type": "function"
    },
    {
      "inputs": [
        {
          "internalType": "Epoch",
          "name": "epoch",
          "type": "uint16"
        }
      ],
      "name": "epochEndTime",
      "outputs": [
        {
          "internalType": "uint256",
          "name": "",
          "type": "uint256"
        }
      ],
      "stateMutability": "pure",
      "type": "function"
    },
    {
      "inputs": [
        {
          "internalType": "uint256",
          "name": "id",
          "type": "uint256"
        }
      ],
      "name": "exists",
      "outputs": [
        {
          "internalType": "bool",
          "name": "",
          "type": "bool"
        }
      ],
      "stateMutability": "view",
      "type": "function"
    },
    {
      "inputs": [
        {
          "internalType": "address",
          "name": "account",
          "type": "address"
        },
        {
          "internalType": "address",
          "name": "operator",
          "type": "address"
        }
      ],
      "name": "isApprovedForAll",
      "outputs": [
        {
          "internalType": "bool",
          "name": "",
          "type": "bool"
        }
      ],
      "stateMutability": "view",
      "type": "function"
    },
    {
      "inputs": [
        {
          "internalType": "address",
          "name": "",
          "type": "address"
        }
      ],
      "name": "isMinter",
      "outputs": [
        {
          "internalType": "bool",
          "name": "",
          "type": "bool"
        }
      ],
      "stateMutability": "view",
      "type": "function"
    },
    {
      "inputs": [
        {
          "internalType": "address",
          "name": "to",
          "type": "address"
        },
        {
          "components": [
            {
              "components": [
                {
                  "internalType": "address",
                  "name": "asset",
                  "type": "address"
                },
                {
                  "internalType": "Epoch",
                  "name": "epoch",
                  "type": "uint16"
                }
              ],
              "internalType": "struct CouponKey",
              "name": "key",
              "type": "tuple"
            },
            {
              "internalType": "uint256",
              "name": "amount",
              "type": "uint256"
            }
          ],
          "internalType": "struct Coupon[]",
          "name": "coupons",
          "type": "tuple[]"
        },
        {
          "internalType": "bytes",
          "name": "data",
          "type": "bytes"
        }
      ],
      "name": "mintBatch",
      "outputs": [],
      "stateMutability": "nonpayable",
      "type": "function"
    },
    {
      "inputs": [
        {
          "internalType": "address",
          "name": "",
          "type": "address"
        }
      ],
      "name": "nonces",
      "outputs": [
        {
          "internalType": "uint256",
          "name": "",
          "type": "uint256"
        }
      ],
      "stateMutability": "view",
      "type": "function"
    },
    {
      "inputs": [
        {
          "internalType": "address",
          "name": "owner",
          "type": "address"
        },
        {
          "internalType": "address",
          "name": "operator",
          "type": "address"
        },
        {
          "internalType": "bool",
          "name": "approved",
          "type": "bool"
        },
        {
          "internalType": "uint256",
          "name": "deadline",
          "type": "uint256"
        },
        {
          "internalType": "uint8",
          "name": "v",
          "type": "uint8"
        },
        {
          "internalType": "bytes32",
          "name": "r",
          "type": "bytes32"
        },
        {
          "internalType": "bytes32",
          "name": "s",
          "type": "bytes32"
        }
      ],
      "name": "permit",
      "outputs": [],
      "stateMutability": "nonpayable",
      "type": "function"
    },
    {
      "inputs": [
        {
          "internalType": "address",
          "name": "from",
          "type": "address"
        },
        {
          "internalType": "address",
          "name": "to",
          "type": "address"
        },
        {
          "internalType": "uint256[]",
          "name": "ids",
          "type": "uint256[]"
        },
        {
          "internalType": "uint256[]",
          "name": "amounts",
          "type": "uint256[]"
        },
        {
          "internalType": "bytes",
          "name": "data",
          "type": "bytes"
        }
      ],
      "name": "safeBatchTransferFrom",
      "outputs": [],
      "stateMutability": "nonpayable",
      "type": "function"
    },
    {
      "inputs": [
        {
          "internalType": "address",
          "name": "from",
          "type": "address"
        },
        {
          "internalType": "address",
          "name": "to",
          "type": "address"
        },
        {
          "components": [
            {
              "components": [
                {
                  "internalType": "address",
                  "name": "asset",
                  "type": "address"
                },
                {
                  "internalType": "Epoch",
                  "name": "epoch",
                  "type": "uint16"
                }
              ],
              "internalType": "struct CouponKey",
              "name": "key",
              "type": "tuple"
            },
            {
              "internalType": "uint256",
              "name": "amount",
              "type": "uint256"
            }
          ],
          "internalType": "struct Coupon[]",
          "name": "coupons",
          "type": "tuple[]"
        },
        {
          "internalType": "bytes",
          "name": "data",
          "type": "bytes"
        }
      ],
      "name": "safeBatchTransferFrom",
      "outputs": [],
      "stateMutability": "nonpayable",
      "type": "function"
    },
    {
      "inputs": [
        {
          "internalType": "address",
          "name": "from",
          "type": "address"
        },
        {
          "internalType": "address",
          "name": "to",
          "type": "address"
        },
        {
          "internalType": "uint256",
          "name": "id",
          "type": "uint256"
        },
        {
          "internalType": "uint256",
          "name": "amount",
          "type": "uint256"
        },
        {
          "internalType": "bytes",
          "name": "data",
          "type": "bytes"
        }
      ],
      "name": "safeTransferFrom",
      "outputs": [],
      "stateMutability": "nonpayable",
      "type": "function"
    },
    {
      "inputs": [
        {
          "internalType": "address",
          "name": "operator",
          "type": "address"
        },
        {
          "internalType": "bool",
          "name": "approved",
          "type": "bool"
        }
      ],
      "name": "setApprovalForAll",
      "outputs": [],
      "stateMutability": "nonpayable",
      "type": "function"
    },
    {
      "inputs": [
        {
          "internalType": "bytes4",
          "name": "id",
          "type": "bytes4"
        }
      ],
      "name": "supportsInterface",
      "outputs": [
        {
          "internalType": "bool",
          "name": "",
          "type": "bool"
        }
      ],
      "stateMutability": "view",
      "type": "function"
    },
    {
      "inputs": [
        {
          "internalType": "uint256",
          "name": "id",
          "type": "uint256"
        }
      ],
      "name": "totalSupply",
      "outputs": [
        {
          "internalType": "uint256",
          "name": "",
          "type": "uint256"
        }
      ],
      "stateMutability": "view",
      "type": "function"
    },
    {
      "inputs": [
        {
          "internalType": "uint256",
          "name": "id",
          "type": "uint256"
        }
      ],
      "name": "uri",
      "outputs": [
        {
          "internalType": "string",
          "name": "",
          "type": "string"
        }
      ],
      "stateMutability": "view",
      "type": "function"
    }
  ],
  "transactionHash": "0x41c72937eb94c710c7a832d3c5dea91d223a08adac4fcd9718a158d0d31de9c7",
  "args": [
    [
      "0x3a2e22044b0d86ddb59b1baf4cd1c047c4bf99d9",
      "0xa0d476c6a39bea239749c566a02343e5584ec200"
    ],
    "COUPON_BASE_URI"
  ],
  "numDeployments": 1,
  "solcInputHash": "4fa23e56ddc62d158e3b99a3c585a5b2",
  "bytecode": "0x6101606040523480156200001257600080fd5b50604051620039a9380380620039a983398101604081905262000035916200033c565b806040518060400160405280600681526020016521b7bab837b760d11b815250604051806040016040528060018152602001603160f81b8152508181846200008381620001c260201b60201c565b5062000091826003620001d4565b61012052620000a2816004620001d4565b61014052815160208084019190912060e052815190820120610100524660a0526200013060e05161010051604080517f8b73c3c69bb8fe3d512ecc4cf759cc79239f7b179b0ffacaa9a75d522b39400f60208201529081019290925260608201524660808201523060a082015260009060c00160405160208183030381529060405280519060200120905090565b60805250503060c0525060009150505b8251811015620001aa576001600760008584815181106200016557620001656200042e565b6020908102919091018101516001600160a01b03168252810191909152604001600020805460ff1916911515919091179055620001a28162000444565b905062000140565b506008620001b98282620004fb565b50505062000621565b6002620001d08282620004fb565b5050565b6000602083511015620001f457620001ec836200020d565b905062000207565b81620002018482620004fb565b5060ff90505b92915050565b600080829050601f8151111562000244578260405163305a27a960e01b81526004016200023b9190620005c7565b60405180910390fd5b80516200025182620005fc565b179392505050565b634e487b7160e01b600052604160045260246000fd5b604051601f8201601f191681016001600160401b03811182821017156200029a576200029a62000259565b604052919050565b60005b83811015620002bf578181015183820152602001620002a5565b50506000910152565b600082601f830112620002da57600080fd5b81516001600160401b03811115620002f657620002f662000259565b6200030b601f8201601f19166020016200026f565b8181528460208386010111156200032157600080fd5b62000334826020830160208701620002a2565b949350505050565b600080604083850312156200035057600080fd5b82516001600160401b03808211156200036857600080fd5b818501915085601f8301126200037d57600080fd5b815160208282111562000394576200039462000259565b8160051b620003a58282016200026f565b928352848101820192828101908a851115620003c057600080fd5b958301955b84871015620003fa57865192506001600160a01b0383168314620003e95760008081fd5b8282529583019590830190620003c5565b92890151929750919450505050808211156200041557600080fd5b506200042485828601620002c8565b9150509250929050565b634e487b7160e01b600052603260045260246000fd5b6000600182016200046557634e487b7160e01b600052601160045260246000fd5b5060010190565b600181811c908216806200048157607f821691505b602082108103620004a257634e487b7160e01b600052602260045260246000fd5b50919050565b601f821115620004f657600081815260208120601f850160051c81016020861015620004d15750805b601f850160051c820191505b81811015620004f257828155600101620004dd565b5050505b505050565b81516001600160401b0381111562000517576200051762000259565b6200052f816200052884546200046c565b84620004a8565b602080601f8311600181146200056757600084156200054e5750858301515b600019600386901b1c1916600185901b178555620004f2565b600085815260208120601f198616915b82811015620005985788860151825594840194600190910190840162000577565b5085821015620005b75787850151600019600388901b60f8161c191681555b5050505050600190811b01905550565b6020815260008251806020840152620005e8816040850160208701620002a2565b601f01601f19169190910160400192915050565b80516020808301519190811015620004a25760001960209190910360031b1b16919050565b60805160a05160c05160e05161010051610120516101405161332d6200067c6000396000610821015260006107f6015260006113770152600061134f015260006112aa015260006112d4015260006112fe015261332d6000f3fe608060405234801561001057600080fd5b506004361061018c5760003560e01c80637ecebe00116100e3578063aa271e1a1161008c578063e985e9c511610066578063e985e9c514610377578063f242432a146103b3578063f51cc7dd146103c657600080fd5b8063aa271e1a1461032e578063b546ac4f14610351578063bd85b0391461036457600080fd5b80638f29525a116100bd5780638f29525a146102f5578063a22cb46514610308578063a50e72321461031b57600080fd5b80637ecebe00146102a757806384a3d824146102c757806384b0196e146102da57600080fd5b806330adf81f116101455780634f558e791161011f5780634f558e79146102715780636c0360eb14610284578063766718081461028c57600080fd5b806330adf81f146102225780633644e515146102495780634e1273f41461025157600080fd5b80630e89341c116101765780630e89341c146101da57806314751af4146101fa5780632eb2c2d61461020d57600080fd5b8062fdd58e1461019157806301ffc9a7146101b7575b600080fd5b6101a461019f366004612703565b6103d9565b6040519081526020015b60405180910390f35b6101ca6101c5366004612743565b610485565b60405190151581526020016101ae565b6101ed6101e8366004612760565b610490565b6040516101ae91906127c9565b6101a46102083660046127ee565b6104f0565b61022061021b366004612955565b6104ff565b005b6101a47f7bf72c3e57bc00556754c7454ead7d72d1c0e263909e7c643fbc0d1e0f3c3e7481565b6101a46105a1565b61026461025f3660046129ff565b6105b0565b6040516101ae9190612b05565b6101ca61027f366004612760565b6106ee565b6101ed610704565b610294610792565b60405161ffff90911681526020016101ae565b6101a46102b5366004612b18565b60056020526000908152604090205481565b6102206102d5366004612b78565b61079c565b6102e26107e8565b6040516101ae9796959493929190612bcb565b610220610303366004612c55565b61088d565b610220610316366004612cda565b610a45565b610220610329366004612d0d565b610a54565b6101ca61033c366004612b18565b60076020526000908152604090205460ff1681565b61022061035f366004612dca565b610ab2565b6101a4610372366004612760565b610aff565b6101ca610385366004612e44565b6001600160a01b03918216600090815260016020908152604080832093909416825291909152205460ff1690565b6102206103c1366004612e6e565b610b13565b6102206103d4366004612ed3565b610bae565b60006001600160a01b03831661045c5760405162461bcd60e51b815260206004820152602a60248201527f455243313135353a2061646472657373207a65726f206973206e6f742061207660448201527f616c6964206f776e65720000000000000000000000000000000000000000000060648201526084015b60405180910390fd5b506000818152602081815260408083206001600160a01b03861684529091529020545b92915050565b600061047f82610e08565b60606000600880546104a190612f4d565b9050116104bd576040518060200160405280600081525061047f565b60086104ca836020610e46565b6040516020016104db929190612fa3565b60405160208183030381529060405292915050565b600061047f8261ffff1661102e565b6001600160a01b03851633148061051b575061051b8533610385565b61058d5760405162461bcd60e51b815260206004820152602e60248201527f455243313135353a2063616c6c6572206973206e6f7420746f6b656e206f776e60448201527f6572206f7220617070726f7665640000000000000000000000000000000000006064820152608401610453565b61059a8585858585611039565b5050505050565b60006105ab61129d565b905090565b606081518351146106295760405162461bcd60e51b815260206004820152602960248201527f455243313135353a206163636f756e747320616e6420696473206c656e67746860448201527f206d69736d6174636800000000000000000000000000000000000000000000006064820152608401610453565b6000835167ffffffffffffffff81111561064557610645612809565b60405190808252806020026020018201604052801561066e578160200160208202803683370190505b50905060005b84518110156106e6576106b98582815181106106925761069261304d565b60200260200101518583815181106106ac576106ac61304d565b60200260200101516103d9565b8282815181106106cb576106cb61304d565b60209081029190910101526106df81613079565b9050610674565b509392505050565b600081815260066020526040812054151561047f565b6008805461071190612f4d565b80601f016020809104026020016040519081016040528092919081815260200182805461073d90612f4d565b801561078a5780601f1061075f5761010080835404028352916020019161078a565b820191906000526020600020905b81548152906001019060200180831161076d57829003601f168201915b505050505081565b60006105ab6113cb565b3360009081526007602052604090205460ff166107cc57604051633006171960e21b815260040160405180910390fd5b6000806107d984846113d6565b9150915061059a85838361150b565b60006060808280808361081c7f00000000000000000000000000000000000000000000000000000000000000006003611794565b6108477f00000000000000000000000000000000000000000000000000000000000000006004611794565b604080516000808252602082019092527f0f000000000000000000000000000000000000000000000000000000000000009b939a50919850469750309650945092509050565b60008167ffffffffffffffff8111156108a8576108a8612809565b6040519080825280602002602001820160405280156108d1578160200160208202803683370190505b50905060008267ffffffffffffffff8111156108ef576108ef612809565b604051908082528060200260200182016040528015610918578160200160208202803683370190505b50905060006109256113cb565b90506000805b85811015610a2b5761096d8787838181106109485761094861304d565b905060400201602001602081019061096091906127ee565b61ffff8086169116101590565b610a1b5760006109af8888848181106109885761098861304d565b90506040020180360381019061099e9190613092565b6020810151905160a09190911b0190565b905060006109bd33836103d9565b9050806000036109ce575050610a1b565b818785815181106109e1576109e161304d565b60200260200101818152505080868581518110610a0057610a0061304d565b602090810291909101015283610a1581613079565b94505050505b610a2481613079565b905061092b565b50808452808352610a3d33858561150b565b505050505050565b610a5033838361183f565b5050565b600080610a6186866113d6565b91509150610aa88888848488888080601f0160208091040260200160405190810160405280939291908181526020018383808284376000920191909152506104ff92505050565b5050505050505050565b3360009081526007602052604090205460ff16610ae257604051633006171960e21b815260040160405180910390fd5b600080610aef85856113d6565b91509150610a3d86838386611933565b60008181526006602052604081205461047f565b6001600160a01b038516331480610b2f5750610b2f8533610385565b610ba15760405162461bcd60e51b815260206004820152602e60248201527f455243313135353a2063616c6c6572206973206e6f7420746f6b656e206f776e60448201527f6572206f7220617070726f7665640000000000000000000000000000000000006064820152608401610453565b61059a8585858585611b24565b83421115610be8576040517f1a15a3cc00000000000000000000000000000000000000000000000000000000815260040160405180910390fd5b6001600160a01b03871660009081526005602052604081208054610c91917f7bf72c3e57bc00556754c7454ead7d72d1c0e263909e7c643fbc0d1e0f3c3e74918b918b918b9187610c3883613079565b909155506040805160208101969096526001600160a01b03948516908601529290911660608401521515608083015260a082015260c0810187905260e00160405160208183030381529060405280519060200120611cdd565b90506001600160a01b0388163b15610dc057604080516020810185905280820184905260f886901b7fff000000000000000000000000000000000000000000000000000000000000001660608201528151604181830301815260618201928390527f1626ba7e000000000000000000000000000000000000000000000000000000009092526001600160a01b038a1691631626ba7e91610d359185916065016130ed565b602060405180830381865afa158015610d52573d6000803e3d6000fd5b505050506040513d601f19601f82011682018060405250810190610d76919061310e565b7bffffffffffffffffffffffffffffffffffffffffffffffffffffffff1916631626ba7e60e01b14610dbb57604051638baa579f60e01b815260040160405180910390fd5b610dfd565b876001600160a01b0316610dd682868686611d25565b6001600160a01b031614610dfd57604051638baa579f60e01b815260040160405180910390fd5b610aa888888861183f565b60006001600160e01b031982167f8d3b64d700000000000000000000000000000000000000000000000000000000148061047f575061047f82611d4d565b60606000610e5583600261312b565b610e60906002613142565b67ffffffffffffffff811115610e7857610e78612809565b6040519080825280601f01601f191660200182016040528015610ea2576020820181803683370190505b5090507f300000000000000000000000000000000000000000000000000000000000000081600081518110610ed957610ed961304d565b60200101906001600160f81b031916908160001a9053507f780000000000000000000000000000000000000000000000000000000000000081600181518110610f2457610f2461304d565b60200101906001600160f81b031916908160001a9053506000610f4884600261312b565b610f53906001613142565b90505b6001811115610fd8577f303132333435363738396162636465660000000000000000000000000000000085600f1660108110610f9457610f9461304d565b1a60f81b828281518110610faa57610faa61304d565b60200101906001600160f81b031916908160001a90535060049490941c93610fd181613155565b9050610f56565b5083156110275760405162461bcd60e51b815260206004820181905260248201527f537472696e67733a20686578206c656e67746820696e73756666696369656e746044820152606401610453565b9392505050565b600061047f82611de8565b815183511461109b5760405162461bcd60e51b815260206004820152602860248201527f455243313135353a2069647320616e6420616d6f756e7473206c656e677468206044820152670dad2e6dac2e8c6d60c31b6064820152608401610453565b6001600160a01b0384166110ff5760405162461bcd60e51b815260206004820152602560248201527f455243313135353a207472616e7366657220746f20746865207a65726f206164604482015264647265737360d81b6064820152608401610453565b3361110e818787878787611ebc565b60005b845181101561123757600085828151811061112e5761112e61304d565b60200260200101519050600085838151811061114c5761114c61304d565b602090810291909101810151600084815280835260408082206001600160a01b038e1683529093529190912054909150818110156111df5760405162461bcd60e51b815260206004820152602a60248201527f455243313135353a20696e73756666696369656e742062616c616e636520666f60448201526939103a3930b739b332b960b11b6064820152608401610453565b6000838152602081815260408083206001600160a01b038e8116855292528083208585039055908b1682528120805484929061121c908490613142565b925050819055505050508061123090613079565b9050611111565b50846001600160a01b0316866001600160a01b0316826001600160a01b03167f4a39dc06d4c0dbc64b70af90fd698a233a518aa5d07e595d983b8c0526c8f7fb878760405161128792919061316c565b60405180910390a4610a3d818787878787611eca565b6000306001600160a01b037f0000000000000000000000000000000000000000000000000000000000000000161480156112f657507f000000000000000000000000000000000000000000000000000000000000000046145b1561132057507f000000000000000000000000000000000000000000000000000000000000000090565b6105ab604080517f8b73c3c69bb8fe3d512ecc4cf759cc79239f7b179b0ffacaa9a75d522b39400f60208201527f0000000000000000000000000000000000000000000000000000000000000000918101919091527f000000000000000000000000000000000000000000000000000000000000000060608201524660808201523060a082015260009060c00160405160208183030381529060405280519060200120905090565b90565b60006105ab42612078565b60608060008367ffffffffffffffff8111156113f4576113f4612809565b60405190808252806020026020018201604052801561141d578160200160208202803683370190505b50905060008467ffffffffffffffff81111561143b5761143b612809565b604051908082528060200260200182016040528015611464578160200160208202803683370190505b50905060005b858110156114fd5761149e8787838181106114875761148761304d565b61099e926060909102013681900381019150613092565b8382815181106114b0576114b061304d565b6020026020010181815250508686828181106114ce576114ce61304d565b905060600201604001358282815181106114ea576114ea61304d565b602090810291909101015260010161146a565b5090925090505b9250929050565b6001600160a01b0383166115875760405162461bcd60e51b815260206004820152602360248201527f455243313135353a206275726e2066726f6d20746865207a65726f206164647260448201527f65737300000000000000000000000000000000000000000000000000000000006064820152608401610453565b80518251146115e95760405162461bcd60e51b815260206004820152602860248201527f455243313135353a2069647320616e6420616d6f756e7473206c656e677468206044820152670dad2e6dac2e8c6d60c31b6064820152608401610453565b600033905061160c81856000868660405180602001604052806000815250611ebc565b60005b835181101561172657600084828151811061162c5761162c61304d565b60200260200101519050600084838151811061164a5761164a61304d565b602090810291909101810151600084815280835260408082206001600160a01b038c1683529093529190912054909150818110156116ef5760405162461bcd60e51b8152602060048201526024808201527f455243313135353a206275726e20616d6f756e7420657863656564732062616c60448201527f616e6365000000000000000000000000000000000000000000000000000000006064820152608401610453565b6000928352602083815260408085206001600160a01b038b168652909152909220910390558061171e81613079565b91505061160f565b5060006001600160a01b0316846001600160a01b0316826001600160a01b03167f4a39dc06d4c0dbc64b70af90fd698a233a518aa5d07e595d983b8c0526c8f7fb868660405161177792919061316c565b60405180910390a460408051602081019091526000905250505050565b606060ff83146117ae576117a783612166565b905061047f565b8180546117ba90612f4d565b80601f01602080910402602001604051908101604052809291908181526020018280546117e690612f4d565b80156118335780601f1061180857610100808354040283529160200191611833565b820191906000526020600020905b81548152906001019060200180831161181657829003601f168201915b5050505050905061047f565b816001600160a01b0316836001600160a01b0316036118c65760405162461bcd60e51b815260206004820152602960248201527f455243313135353a2073657474696e6720617070726f76616c2073746174757360448201527f20666f722073656c6600000000000000000000000000000000000000000000006064820152608401610453565b6001600160a01b03838116600081815260016020908152604080832094871680845294825291829020805460ff191686151590811790915591519182527f17307eab39ab6107e8899845ad3d59bd9653f200f220920489ca2b5937696c31910160405180910390a3505050565b6001600160a01b0384166119af5760405162461bcd60e51b815260206004820152602160248201527f455243313135353a206d696e7420746f20746865207a65726f2061646472657360448201527f73000000000000000000000000000000000000000000000000000000000000006064820152608401610453565b8151835114611a115760405162461bcd60e51b815260206004820152602860248201527f455243313135353a2069647320616e6420616d6f756e7473206c656e677468206044820152670dad2e6dac2e8c6d60c31b6064820152608401610453565b33611a2181600087878787611ebc565b60005b8451811015611abc57838181518110611a3f57611a3f61304d565b6020026020010151600080878481518110611a5c57611a5c61304d565b602002602001015181526020019081526020016000206000886001600160a01b03166001600160a01b031681526020019081526020016000206000828254611aa49190613142565b90915550819050611ab481613079565b915050611a24565b50846001600160a01b031660006001600160a01b0316826001600160a01b03167f4a39dc06d4c0dbc64b70af90fd698a233a518aa5d07e595d983b8c0526c8f7fb8787604051611b0d92919061316c565b60405180910390a461059a81600087878787611eca565b6001600160a01b038416611b885760405162461bcd60e51b815260206004820152602560248201527f455243313135353a207472616e7366657220746f20746865207a65726f206164604482015264647265737360d81b6064820152608401610453565b336000611b94856121a5565b90506000611ba1856121a5565b9050611bb1838989858589611ebc565b6000868152602081815260408083206001600160a01b038c16845290915290205485811015611c355760405162461bcd60e51b815260206004820152602a60248201527f455243313135353a20696e73756666696369656e742062616c616e636520666f60448201526939103a3930b739b332b960b11b6064820152608401610453565b6000878152602081815260408083206001600160a01b038d8116855292528083208985039055908a16825281208054889290611c72908490613142565b909155505060408051888152602081018890526001600160a01b03808b16928c821692918816917fc3d58168c5ae7397731d063d5bbf3d657854427343f4c083240f7aacaa2d0f62910160405180910390a4611cd2848a8a8a8a8a6121f0565b505050505050505050565b600061047f611cea61129d565b836040517f19010000000000000000000000000000000000000000000000000000000000008152600281019290925260228201526042902090565b6000806000611d36878787876122ec565b91509150611d43816123b0565b5095945050505050565b60006001600160e01b031982167fd9b67a26000000000000000000000000000000000000000000000000000000001480611db057506001600160e01b031982167f0e89341c00000000000000000000000000000000000000000000000000000000145b8061047f57507f01ffc9a7000000000000000000000000000000000000000000000000000000006001600160e01b031983161461047f565b6000600161ffff83160181600c82046107b20190506004600c8381611e0f57611e0f613191565b06901b915060048106158015611e2757506064810615155b80611e3457506101908106155b15611e5d5779016e014f0131011200f400d500b600980079005b003c001f000090911c90611e7d565b79016d014e0130011100f300d400b500970078005a003b001f000090911c905b60016201518061019061064019840104606461076c1985010460046107b0198601046107b2860361016d028761ffff1601010301020392505050919050565b610a3d868686868686612518565b6001600160a01b0384163b15610a3d5760405163bc197c8160e01b81526001600160a01b0385169063bc197c8190611f0e90899089908890889088906004016131a7565b6020604051808303816000875af1925050508015611f49575060408051601f3d908101601f19168201909252611f469181019061310e565b60015b611ffe57611f556131f9565b806308c379a003611f8e5750611f69613214565b80611f745750611f90565b8060405162461bcd60e51b815260040161045391906127c9565b505b60405162461bcd60e51b815260206004820152603460248201527f455243313135353a207472616e7366657220746f206e6f6e2d4552433131353560448201527f526563656976657220696d706c656d656e7465720000000000000000000000006064820152608401610453565b6001600160e01b0319811663bc197c8160e01b1461206f5760405162461bcd60e51b815260206004820152602860248201527f455243313135353a204552433131353552656365697665722072656a656374656044820152676420746f6b656e7360c01b6064820152608401610453565b50505050505050565b600080620151808304905080622649658101600062023ab1600483020590506004600362023ab18302010590910390600062164b09610fa0600185010205905060046105b58202058303601f019250600061098f84605002816120dd576120dd613191565b059050600b8105935083600c0281600201039050838260318503606402010191506000600180836107b28603600c0201038161211b5761211b613191565b04905061ffff81111561215a576040517f73cde75100000000000000000000000000000000000000000000000000000000815260040160405180910390fd5b98975050505050505050565b60606000612173836126a6565b604080516020808252818301909252919250600091906020820181803683375050509182525060208101929092525090565b604080516001808252818301909252606091600091906020808301908036833701905050905082816000815181106121df576121df61304d565b602090810291909101015292915050565b6001600160a01b0384163b15610a3d5760405163f23a6e6160e01b81526001600160a01b0385169063f23a6e6190612234908990899088908890889060040161329e565b6020604051808303816000875af192505050801561226f575060408051601f3d908101601f1916820190925261226c9181019061310e565b60015b61227b57611f556131f9565b6001600160e01b0319811663f23a6e6160e01b1461206f5760405162461bcd60e51b815260206004820152602860248201527f455243313135353a204552433131353552656365697665722072656a656374656044820152676420746f6b656e7360c01b6064820152608401610453565b6000807f7fffffffffffffffffffffffffffffff5d576e7357a4501ddfe92f46681b20a083111561232357506000905060036123a7565b6040805160008082526020820180845289905260ff881692820192909252606081018690526080810185905260019060a0016020604051602081039080840390855afa158015612377573d6000803e3d6000fd5b5050604051601f1901519150506001600160a01b0381166123a0576000600192509250506123a7565b9150600090505b94509492505050565b60008160048111156123c4576123c46132e1565b036123cc5750565b60018160048111156123e0576123e06132e1565b0361242d5760405162461bcd60e51b815260206004820152601860248201527f45434453413a20696e76616c6964207369676e617475726500000000000000006044820152606401610453565b6002816004811115612441576124416132e1565b0361248e5760405162461bcd60e51b815260206004820152601f60248201527f45434453413a20696e76616c6964207369676e6174757265206c656e677468006044820152606401610453565b60038160048111156124a2576124a26132e1565b036125155760405162461bcd60e51b815260206004820152602260248201527f45434453413a20696e76616c6964207369676e6174757265202773272076616c60448201527f75650000000000000000000000000000000000000000000000000000000000006064820152608401610453565b50565b6001600160a01b03851661259f5760005b835181101561259d578281815181106125445761254461304d565b6020026020010151600660008684815181106125625761256261304d565b6020026020010151815260200190815260200160002060008282546125879190613142565b90915550612596905081613079565b9050612529565b505b6001600160a01b038416610a3d5760005b835181101561206f5760008482815181106125cd576125cd61304d565b6020026020010151905060008483815181106125eb576125eb61304d565b60200260200101519050600060066000848152602001908152602001600020549050818110156126835760405162461bcd60e51b815260206004820152602860248201527f455243313135353a206275726e20616d6f756e74206578636565647320746f7460448201527f616c537570706c790000000000000000000000000000000000000000000000006064820152608401610453565b6000928352600660205260409092209103905561269f81613079565b90506125b0565b600060ff8216601f81111561047f576040517fb3512b0c00000000000000000000000000000000000000000000000000000000815260040160405180910390fd5b80356001600160a01b03811681146126fe57600080fd5b919050565b6000806040838503121561271657600080fd5b61271f836126e7565b946020939093013593505050565b6001600160e01b03198116811461251557600080fd5b60006020828403121561275557600080fd5b81356110278161272d565b60006020828403121561277257600080fd5b5035919050565b60005b8381101561279457818101518382015260200161277c565b50506000910152565b600081518084526127b5816020860160208601612779565b601f01601f19169290920160200192915050565b602081526000611027602083018461279d565b803561ffff811681146126fe57600080fd5b60006020828403121561280057600080fd5b611027826127dc565b634e487b7160e01b600052604160045260246000fd5b601f8201601f1916810167ffffffffffffffff8111828210171561284557612845612809565b6040525050565b600067ffffffffffffffff82111561286657612866612809565b5060051b60200190565b600082601f83011261288157600080fd5b8135602061288e8261284c565b60405161289b828261281f565b83815260059390931b85018201928281019150868411156128bb57600080fd5b8286015b848110156128d657803583529183019183016128bf565b509695505050505050565b600082601f8301126128f257600080fd5b813567ffffffffffffffff81111561290c5761290c612809565b604051612923601f8301601f19166020018261281f565b81815284602083860101111561293857600080fd5b816020850160208301376000918101602001919091529392505050565b600080600080600060a0868803121561296d57600080fd5b612976866126e7565b9450612984602087016126e7565b9350604086013567ffffffffffffffff808211156129a157600080fd5b6129ad89838a01612870565b945060608801359150808211156129c357600080fd5b6129cf89838a01612870565b935060808801359150808211156129e557600080fd5b506129f2888289016128e1565b9150509295509295909350565b60008060408385031215612a1257600080fd5b823567ffffffffffffffff80821115612a2a57600080fd5b818501915085601f830112612a3e57600080fd5b81356020612a4b8261284c565b604051612a58828261281f565b83815260059390931b8501820192828101915089841115612a7857600080fd5b948201945b83861015612a9d57612a8e866126e7565b82529482019490820190612a7d565b96505086013592505080821115612ab357600080fd5b50612ac085828601612870565b9150509250929050565b600081518084526020808501945080840160005b83811015612afa57815187529582019590820190600101612ade565b509495945050505050565b6020815260006110276020830184612aca565b600060208284031215612b2a57600080fd5b611027826126e7565b60008083601f840112612b4557600080fd5b50813567ffffffffffffffff811115612b5d57600080fd5b60208301915083602060608302850101111561150457600080fd5b600080600060408486031215612b8d57600080fd5b612b96846126e7565b9250602084013567ffffffffffffffff811115612bb257600080fd5b612bbe86828701612b33565b9497909650939450505050565b7fff000000000000000000000000000000000000000000000000000000000000008816815260e060208201526000612c0660e083018961279d565b8281036040840152612c18818961279d565b90508660608401526001600160a01b03861660808401528460a084015282810360c0840152612c478185612aca565b9a9950505050505050505050565b60008060208385031215612c6857600080fd5b823567ffffffffffffffff80821115612c8057600080fd5b818501915085601f830112612c9457600080fd5b813581811115612ca357600080fd5b8660208260061b8501011115612cb857600080fd5b60209290920196919550909350505050565b803580151581146126fe57600080fd5b60008060408385031215612ced57600080fd5b612cf6836126e7565b9150612d0460208401612cca565b90509250929050565b60008060008060008060808789031215612d2657600080fd5b612d2f876126e7565b9550612d3d602088016126e7565b9450604087013567ffffffffffffffff80821115612d5a57600080fd5b612d668a838b01612b33565b90965094506060890135915080821115612d7f57600080fd5b818901915089601f830112612d9357600080fd5b813581811115612da257600080fd5b8a6020828501011115612db457600080fd5b6020830194508093505050509295509295509295565b60008060008060608587031215612de057600080fd5b612de9856126e7565b9350602085013567ffffffffffffffff80821115612e0657600080fd5b612e1288838901612b33565b90955093506040870135915080821115612e2b57600080fd5b50612e38878288016128e1565b91505092959194509250565b60008060408385031215612e5757600080fd5b612e60836126e7565b9150612d04602084016126e7565b600080600080600060a08688031215612e8657600080fd5b612e8f866126e7565b9450612e9d602087016126e7565b93506040860135925060608601359150608086013567ffffffffffffffff811115612ec757600080fd5b6129f2888289016128e1565b600080600080600080600060e0888a031215612eee57600080fd5b612ef7886126e7565b9650612f05602089016126e7565b9550612f1360408901612cca565b945060608801359350608088013560ff81168114612f3057600080fd5b9699959850939692959460a0840135945060c09093013592915050565b600181811c90821680612f6157607f821691505b602082108103612f8157634e487b7160e01b600052602260045260246000fd5b50919050565b60008151612f99818560208601612779565b9290920192915050565b600080845481600182811c915080831680612fbf57607f831692505b60208084108203612fde57634e487b7160e01b86526022600452602486fd5b818015612ff2576001811461300757613034565b60ff1986168952841515850289019650613034565b60008b81526020902060005b8681101561302c5781548b820152908501908301613013565b505084890196505b5050505050506130448185612f87565b95945050505050565b634e487b7160e01b600052603260045260246000fd5b634e487b7160e01b600052601160045260246000fd5b60006001820161308b5761308b613063565b5060010190565b6000604082840312156130a457600080fd5b6040516040810181811067ffffffffffffffff821117156130c7576130c7612809565b6040526130d3836126e7565b81526130e1602084016127dc565b60208201529392505050565b828152604060208201526000613106604083018461279d565b949350505050565b60006020828403121561312057600080fd5b81516110278161272d565b808202811582820484141761047f5761047f613063565b8082018082111561047f5761047f613063565b60008161316457613164613063565b506000190190565b60408152600061317f6040830185612aca565b82810360208401526130448185612aca565b634e487b7160e01b600052601260045260246000fd5b60006001600160a01b03808816835280871660208401525060a060408301526131d360a0830186612aca565b82810360608401526131e58186612aca565b9050828103608084015261215a818561279d565b600060033d11156113c85760046000803e5060005160e01c90565b600060443d10156132225790565b6040516003193d81016004833e81513d67ffffffffffffffff816024840111818411171561325257505050505090565b828501915081518181111561326a5750505050505090565b843d87010160208285010111156132845750505050505090565b6132936020828601018761281f565b509095945050505050565b60006001600160a01b03808816835280871660208401525084604083015283606083015260a060808301526132d660a083018461279d565b979650505050505050565b634e487b7160e01b600052602160045260246000fdfea26469706673582212209acd93b3e448991e0291f6a433f4f719b8f99743fbfff240fe91300076f2c90e64736f6c63430008130033",
  "devdoc": {
    "events": {
      "ApprovalForAll(address,address,bool)": {
        "details": "Emitted when `account` grants or revokes permission to `operator` to transfer their tokens, according to `approved`."
      },
      "EIP712DomainChanged()": {
        "details": "MAY be emitted to signal that the domain could have changed."
      },
      "TransferBatch(address,address,address,uint256[],uint256[])": {
        "details": "Equivalent to multiple {TransferSingle} events, where `operator`, `from` and `to` are the same for all transfers."
      },
      "TransferSingle(address,address,address,uint256,uint256)": {
        "details": "Emitted when `value` tokens of token type `id` are transferred from `from` to `to` by `operator`."
      },
      "URI(string,uint256)": {
        "details": "Emitted when the URI for token type `id` changes to `value`, if it is a non-programmatic URI. If an {URI} event was emitted for `id`, the standard https://eips.ethereum.org/EIPS/eip-1155#metadata-extensions[guarantees] that `value` will equal the value returned by {IERC1155MetadataURI-uri}."
      }
    },
    "kind": "dev",
    "methods": {
      "balanceOf(address,uint256)": {
        "details": "See {IERC1155-balanceOf}. Requirements: - `account` cannot be the zero address."
      },
      "balanceOfBatch(address[],uint256[])": {
        "details": "See {IERC1155-balanceOfBatch}. Requirements: - `accounts` and `ids` must have the same length."
      },
      "eip712Domain()": {
        "details": "See {EIP-5267}. _Available since v4.9._"
      },
      "isApprovedForAll(address,address)": {
        "details": "See {IERC1155-isApprovedForAll}."
      },
      "safeBatchTransferFrom(address,address,uint256[],uint256[],bytes)": {
        "details": "See {IERC1155-safeBatchTransferFrom}."
      },
      "safeTransferFrom(address,address,uint256,uint256,bytes)": {
        "details": "See {IERC1155-safeTransferFrom}."
      },
      "setApprovalForAll(address,bool)": {
        "details": "See {IERC1155-setApprovalForAll}."
      }
    },
    "version": 1
  },
  "userdoc": {
    "kind": "user",
    "methods": {},
    "version": 1
  },
  "storageLayout": {
    "storage": [
      {
        "astId": 260,
        "contract": "contracts/CouponManager.sol:CouponManager",
        "label": "_balances",
        "offset": 0,
        "slot": "0",
        "type": "t_mapping(t_uint256,t_mapping(t_address,t_uint256))"
      },
      {
        "astId": 266,
        "contract": "contracts/CouponManager.sol:CouponManager",
        "label": "_operatorApprovals",
        "offset": 0,
        "slot": "1",
        "type": "t_mapping(t_address,t_mapping(t_address,t_bool))"
      },
      {
        "astId": 268,
        "contract": "contracts/CouponManager.sol:CouponManager",
        "label": "_uri",
        "offset": 0,
        "slot": "2",
        "type": "t_string_storage"
      },
      {
        "astId": 4786,
        "contract": "contracts/CouponManager.sol:CouponManager",
        "label": "_nameFallback",
        "offset": 0,
        "slot": "3",
        "type": "t_string_storage"
      },
      {
        "astId": 4788,
        "contract": "contracts/CouponManager.sol:CouponManager",
        "label": "_versionFallback",
        "offset": 0,
        "slot": "4",
        "type": "t_string_storage"
      },
      {
        "astId": 16852,
        "contract": "contracts/CouponManager.sol:CouponManager",
        "label": "nonces",
        "offset": 0,
        "slot": "5",
        "type": "t_mapping(t_address,t_uint256)"
      },
      {
        "astId": 1630,
        "contract": "contracts/CouponManager.sol:CouponManager",
        "label": "_totalSupply",
        "offset": 0,
        "slot": "6",
        "type": "t_mapping(t_uint256,t_uint256)"
      },
      {
        "astId": 9334,
        "contract": "contracts/CouponManager.sol:CouponManager",
        "label": "isMinter",
        "offset": 0,
        "slot": "7",
        "type": "t_mapping(t_address,t_bool)"
      },
      {
        "astId": 9337,
        "contract": "contracts/CouponManager.sol:CouponManager",
        "label": "baseURI",
        "offset": 0,
        "slot": "8",
        "type": "t_string_storage"
      }
    ],
    "types": {
      "t_address": {
        "encoding": "inplace",
        "label": "address",
        "numberOfBytes": "20"
      },
      "t_bool": {
        "encoding": "inplace",
        "label": "bool",
        "numberOfBytes": "1"
      },
      "t_mapping(t_address,t_bool)": {
        "encoding": "mapping",
        "key": "t_address",
        "label": "mapping(address => bool)",
        "numberOfBytes": "32",
        "value": "t_bool"
      },
      "t_mapping(t_address,t_mapping(t_address,t_bool))": {
        "encoding": "mapping",
        "key": "t_address",
        "label": "mapping(address => mapping(address => bool))",
        "numberOfBytes": "32",
        "value": "t_mapping(t_address,t_bool)"
      },
      "t_mapping(t_address,t_uint256)": {
        "encoding": "mapping",
        "key": "t_address",
        "label": "mapping(address => uint256)",
        "numberOfBytes": "32",
        "value": "t_uint256"
      },
      "t_mapping(t_uint256,t_mapping(t_address,t_uint256))": {
        "encoding": "mapping",
        "key": "t_uint256",
        "label": "mapping(uint256 => mapping(address => uint256))",
        "numberOfBytes": "32",
        "value": "t_mapping(t_address,t_uint256)"
      },
      "t_mapping(t_uint256,t_uint256)": {
        "encoding": "mapping",
        "key": "t_uint256",
        "label": "mapping(uint256 => uint256)",
        "numberOfBytes": "32",
        "value": "t_uint256"
      },
      "t_string_storage": {
        "encoding": "bytes",
        "label": "string",
        "numberOfBytes": "32"
      },
      "t_uint256": {
        "encoding": "inplace",
        "label": "uint256",
        "numberOfBytes": "32"
      }
    }
  }
}