{
  "address": "0x110FE0aAEa38A682732ec185E114Ae44114D13EF",
  "abi": [
    {
      "inputs": [
        {
          "internalType": "address",
          "name": "wrapped1155Factory",
          "type": "address"
        },
        {
          "internalType": "address",
          "name": "cloberMarketFactory",
          "type": "address"
        },
        {
          "internalType": "address",
          "name": "couponManager",
          "type": "address"
        },
        {
          "internalType": "address",
          "name": "weth",
          "type": "address"
        },
        {
          "internalType": "address",
          "name": "bondPositionManager",
          "type": "address"
        }
      ],
      "stateMutability": "nonpayable",
      "type": "constructor"
    },
    {
      "inputs": [],
      "name": "ControllerSlippage",
      "type": "error"
    },
    {
      "inputs": [],
      "name": "EpochOverflow",
      "type": "error"
    },
    {
      "inputs": [],
      "name": "InvalidAccess",
      "type": "error"
    },
    {
      "inputs": [],
      "name": "InvalidMarket",
      "type": "error"
    },
    {
      "inputs": [],
      "name": "NotExpired",
      "type": "error"
    },
    {
      "inputs": [],
      "name": "Reentrancy",
      "type": "error"
    },
    {
      "anonymous": false,
      "inputs": [
        {
          "indexed": true,
          "internalType": "address",
          "name": "previousOwner",
          "type": "address"
        },
        {
          "indexed": true,
          "internalType": "address",
          "name": "newOwner",
          "type": "address"
        }
      ],
      "name": "OwnershipTransferStarted",
      "type": "event"
    },
    {
      "anonymous": false,
      "inputs": [
        {
          "indexed": true,
          "internalType": "address",
          "name": "previousOwner",
          "type": "address"
        },
        {
          "indexed": true,
          "internalType": "address",
          "name": "newOwner",
          "type": "address"
        }
      ],
      "name": "OwnershipTransferred",
      "type": "event"
    },
    {
      "anonymous": false,
      "inputs": [
        {
          "indexed": true,
          "internalType": "address",
          "name": "asset",
          "type": "address"
        },
        {
          "indexed": true,
          "internalType": "Epoch",
          "name": "epoch",
          "type": "uint8"
        },
        {
          "indexed": true,
          "internalType": "address",
          "name": "cloberMarket",
          "type": "address"
        }
      ],
      "name": "SetCouponMarket",
      "type": "event"
    },
    {
      "inputs": [],
      "name": "acceptOwnership",
      "outputs": [],
      "stateMutability": "nonpayable",
      "type": "function"
    },
    {
      "inputs": [
        {
          "internalType": "address",
          "name": "inputToken",
          "type": "address"
        },
        {
          "internalType": "address",
          "name": "",
          "type": "address"
        },
        {
          "internalType": "uint256",
          "name": "inputAmount",
          "type": "uint256"
        },
        {
          "internalType": "uint256",
          "name": "outputAmount",
          "type": "uint256"
        },
        {
          "internalType": "bytes",
          "name": "data",
          "type": "bytes"
        }
      ],
      "name": "cloberMarketSwapCallback",
      "outputs": [],
      "stateMutability": "payable",
      "type": "function"
    },
    {
      "inputs": [
        {
          "internalType": "uint256",
          "name": "positionId",
          "type": "uint256"
        },
        {
          "components": [
            {
              "internalType": "uint256",
              "name": "deadline",
              "type": "uint256"
            },
            {
              "internalType": "uint8",
              "name": "v",
              "type": "uint8"
            },
            {
              "internalType": "bytes32",
              "name": "r",
              "type": "bytes32"
            },
            {
              "internalType": "bytes32",
              "name": "s",
              "type": "bytes32"
            }
          ],
          "internalType": "struct IController.PermitSignature",
          "name": "positionPermitParams",
          "type": "tuple"
        }
      ],
      "name": "collect",
      "outputs": [],
      "stateMutability": "nonpayable",
      "type": "function"
    },
    {
      "inputs": [
        {
          "internalType": "address",
          "name": "asset",
          "type": "address"
        },
        {
          "internalType": "uint256",
          "name": "amount",
          "type": "uint256"
        },
        {
          "internalType": "uint8",
          "name": "lockEpochs",
          "type": "uint8"
        },
        {
          "internalType": "uint256",
          "name": "minEarnInterest",
          "type": "uint256"
        },
        {
          "components": [
            {
              "internalType": "uint256",
              "name": "permitAmount",
              "type": "uint256"
            },
            {
              "components": [
                {
                  "internalType": "uint256",
                  "name": "deadline",
                  "type": "uint256"
                },
                {
                  "internalType": "uint8",
                  "name": "v",
                  "type": "uint8"
                },
                {
                  "internalType": "bytes32",
                  "name": "r",
                  "type": "bytes32"
                },
                {
                  "internalType": "bytes32",
                  "name": "s",
                  "type": "bytes32"
                }
              ],
              "internalType": "struct IController.PermitSignature",
              "name": "signature",
              "type": "tuple"
            }
          ],
          "internalType": "struct IController.ERC20PermitParams",
          "name": "tokenPermitParams",
          "type": "tuple"
        }
      ],
      "name": "deposit",
      "outputs": [],
      "stateMutability": "payable",
      "type": "function"
    },
    {
      "inputs": [
        {
          "components": [
            {
              "internalType": "address",
              "name": "asset",
              "type": "address"
            },
            {
              "internalType": "Epoch",
              "name": "epoch",
              "type": "uint8"
            }
          ],
          "internalType": "struct CouponKey",
          "name": "couponKey",
          "type": "tuple"
        }
      ],
      "name": "getCouponMarket",
      "outputs": [
        {
          "internalType": "address",
          "name": "",
          "type": "address"
        }
      ],
      "stateMutability": "view",
      "type": "function"
    },
    {
      "inputs": [
        {
          "internalType": "address",
          "name": "",
          "type": "address"
        },
        {
          "internalType": "address",
          "name": "",
          "type": "address"
        },
        {
          "internalType": "uint256[]",
          "name": "",
          "type": "uint256[]"
        },
        {
          "internalType": "uint256[]",
          "name": "",
          "type": "uint256[]"
        },
        {
          "internalType": "bytes",
          "name": "",
          "type": "bytes"
        }
      ],
      "name": "onERC1155BatchReceived",
      "outputs": [
        {
          "internalType": "bytes4",
          "name": "",
          "type": "bytes4"
        }
      ],
      "stateMutability": "nonpayable",
      "type": "function"
    },
    {
      "inputs": [
        {
          "internalType": "address",
          "name": "",
          "type": "address"
        },
        {
          "internalType": "address",
          "name": "",
          "type": "address"
        },
        {
          "internalType": "uint256",
          "name": "",
          "type": "uint256"
        },
        {
          "internalType": "uint256",
          "name": "",
          "type": "uint256"
        },
        {
          "internalType": "bytes",
          "name": "",
          "type": "bytes"
        }
      ],
      "name": "onERC1155Received",
      "outputs": [
        {
          "internalType": "bytes4",
          "name": "",
          "type": "bytes4"
        }
      ],
      "stateMutability": "nonpayable",
      "type": "function"
    },
    {
      "inputs": [],
      "name": "owner",
      "outputs": [
        {
          "internalType": "address",
          "name": "",
          "type": "address"
        }
      ],
      "stateMutability": "view",
      "type": "function"
    },
    {
      "inputs": [],
      "name": "pendingOwner",
      "outputs": [
        {
          "internalType": "address",
          "name": "",
          "type": "address"
        }
      ],
      "stateMutability": "view",
      "type": "function"
    },
    {
      "inputs": [
        {
          "internalType": "bytes",
          "name": "data",
          "type": "bytes"
        }
      ],
      "name": "positionLockAcquired",
      "outputs": [
        {
          "internalType": "bytes",
          "name": "result",
          "type": "bytes"
        }
      ],
      "stateMutability": "nonpayable",
      "type": "function"
    },
    {
      "inputs": [],
      "name": "renounceOwnership",
      "outputs": [],
      "stateMutability": "nonpayable",
      "type": "function"
    },
    {
      "inputs": [
        {
          "components": [
            {
              "internalType": "address",
              "name": "asset",
              "type": "address"
            },
            {
              "internalType": "Epoch",
              "name": "epoch",
              "type": "uint8"
            }
          ],
          "internalType": "struct CouponKey",
          "name": "couponKey",
          "type": "tuple"
        },
        {
          "internalType": "address",
          "name": "cloberMarket",
          "type": "address"
        }
      ],
      "name": "setCouponMarket",
      "outputs": [],
      "stateMutability": "nonpayable",
      "type": "function"
    },
    {
      "inputs": [
        {
          "internalType": "bytes4",
          "name": "interfaceId",
          "type": "bytes4"
        }
      ],
      "name": "supportsInterface",
      "outputs": [
        {
          "internalType": "bool",
          "name": "",
          "type": "bool"
        }
      ],
      "stateMutability": "view",
      "type": "function"
    },
    {
      "inputs": [
        {
          "internalType": "address",
          "name": "newOwner",
          "type": "address"
        }
      ],
      "name": "transferOwnership",
      "outputs": [],
      "stateMutability": "nonpayable",
      "type": "function"
    },
    {
      "inputs": [
        {
          "internalType": "uint256",
          "name": "positionId",
          "type": "uint256"
        },
        {
          "internalType": "uint256",
          "name": "withdrawAmount",
          "type": "uint256"
        },
        {
          "internalType": "uint256",
          "name": "maxPayInterest",
          "type": "uint256"
        },
        {
          "components": [
            {
              "internalType": "uint256",
              "name": "deadline",
              "type": "uint256"
            },
            {
              "internalType": "uint8",
              "name": "v",
              "type": "uint8"
            },
            {
              "internalType": "bytes32",
              "name": "r",
              "type": "bytes32"
            },
            {
              "internalType": "bytes32",
              "name": "s",
              "type": "bytes32"
            }
          ],
          "internalType": "struct IController.PermitSignature",
          "name": "positionPermitParams",
          "type": "tuple"
        }
      ],
      "name": "withdraw",
      "outputs": [],
      "stateMutability": "nonpayable",
      "type": "function"
    },
    {
      "stateMutability": "payable",
      "type": "receive"
    }
  ],
  "transactionHash": "0xa3c3daefe915cd9133f197d4aaacc0a24a6c596a67340ef3f72deab2019e3858",
  "args": [
    "0xfcBE16BfD991E4949244E59d9b524e6964b8BB75",
    "0x24aC0938C010Fb520F1068e96d78E0458855111D",
    "0x8dD2584AeD158156882e18E200BD7eA9c85EEfc7",
    "0x82aF49447D8a07e3bd95BD0d56f35241523fBab1",
    "0x98C0a86096b508Fae31Ba2aF94E4EDcc29D8001E"
  ],
  "numDeployments": 1,
  "solcInputHash": "1a04249fd895e76e0e80528593c6ca0b",
  "bytecode": "0x61012060405260016002553480156200001757600080fd5b5060405162004274380380620042748339810160408190526200003a9162000102565b84848484620000493362000077565b6001600160a01b0393841660805291831660a052821660c052811660e0521661010052506200017292505050565b600180546001600160a01b0319169055620000928162000095565b50565b600080546001600160a01b038381166001600160a01b0319831681178455604051919092169283917f8be0079c531659141344cd1fd0a4f28419497f9722a3daafe3b4186f6b6457e09190a35050565b80516001600160a01b0381168114620000fd57600080fd5b919050565b600080600080600060a086880312156200011b57600080fd5b6200012686620000e5565b94506200013660208701620000e5565b93506200014660408701620000e5565b92506200015660608701620000e5565b91506200016660808701620000e5565b90509295509295909350565b60805160a05160c05160e051610100516140076200026d6000396000818161041c015281816104b3015281816104f2015281816105b40152818161069001528181610749015281816107f7015281816108dd0152818161097101528181610a4101528181610af801528181610bb701528181610c5601528181610ced01528181610da701528181610e3e01528181610e7d01528181610f820152818161154701526116610152600061146d0152600081816110c001528181611a2801528181611c9901526121e901526000818161117e015261178b015260008181611091015281816119f901528181611cc801526121bc01526140076000f3fe6080604052600436106100ec5760003560e01c806379ba50971161008a578063e4b3227811610059578063e4b32278146102df578063f23a6e61146102f2578063f2fde38b14610337578063fd235fda1461035757600080fd5b806379ba5097146102305780638da5cb5b14610245578063bc197c8114610263578063e30c3978146102c157600080fd5b806346a114e2116100c657806346a114e2146101ae57806355d36499146101db578063715018a6146101fb57806376c14af01461021057600080fd5b806301ffc9a7146100f857806314b324861461012d5780631dc8ef1d1461018c57600080fd5b366100f357005b600080fd5b34801561010457600080fd5b50610118610113366004612ed3565b61036a565b60405190151581526020015b60405180910390f35b34801561013957600080fd5b50610174610148366004612ff6565b602081810151915160a09290921b9091016000908152600390915260409020546001600160a01b031690565b6040516001600160a01b039091168152602001610124565b34801561019857600080fd5b506101ac6101a7366004613024565b6103d3565b005b3480156101ba57600080fd5b506101ce6101c93660046130e2565b610683565b6040516101249190613167565b3480156101e757600080fd5b506101ac6101f636600461317a565b610d5e565b34801561020757600080fd5b506101ac61104b565b34801561021c57600080fd5b506101ac61022b3660046131a7565b61105f565b34801561023c57600080fd5b506101ac6113ab565b34801561025157600080fd5b506000546001600160a01b0316610174565b34801561026f57600080fd5b506102a861027e366004613269565b7fbc197c810000000000000000000000000000000000000000000000000000000095945050505050565b6040516001600160e01b03199091168152602001610124565b3480156102cd57600080fd5b506001546001600160a01b0316610174565b6101ac6102ed366004613317565b61143e565b3480156102fe57600080fd5b506102a861030d36600461337f565b7ff23a6e610000000000000000000000000000000000000000000000000000000095945050505050565b34801561034357600080fd5b506101ac6103523660046133e8565b6116d4565b6101ac610365366004613405565b611752565b60006001600160e01b031982167f4e2312e00000000000000000000000000000000000000000000000000000000014806103cd57507f01ffc9a7000000000000000000000000000000000000000000000000000000006001600160e01b03198316145b92915050565b6002546001146103f65760405163558a1e0360e11b815260040160405180910390fd5b600280556040516331a9108f60e11b815260048101859052849033906001600160a01b037f00000000000000000000000000000000000000000000000000000000000000001690636352211e90602401602060405180830381865afa158015610463573d6000803e3d6000fd5b505050506040513d601f19601f8201168201806040525081019061048791906134af565b6001600160a01b0316146104ae57604051633006171960e21b815260040160405180910390fd5b6104d97f00000000000000000000000000000000000000000000000000000000000000008684611ab3565b60405163eb02c30160e01b8152600481018690526000907f00000000000000000000000000000000000000000000000000000000000000006001600160a01b03169063eb02c3019060240160a060405180830381865afa158015610541573d6000803e3d6000fd5b505050506040513d601f19601f8201168201806040525081019061056591906134e1565b905060008582608001516105799190613576565b6040808401518151602081019390935260ff1690820152606081018690526000608082015260a00160405160208183030381529060405290507f00000000000000000000000000000000000000000000000000000000000000006001600160a01b031663815483198833846040516020016105f693929190613589565b6040516020818303038152906040526040518263ffffffff1660e01b81526004016106219190613167565b6000604051808303816000875af1158015610640573d6000803e3d6000fd5b505050506040513d6000823e601f3d908101601f19168201604052610668919081019061360a565b5081516106759033611b61565b505060016002555050505050565b6060336001600160a01b037f000000000000000000000000000000000000000000000000000000000000000016146106ce57604051633006171960e21b815260040160405180910390fd5b600080838060200190518101906106e5919061363f565b9550909250905060008290036107de5760008480602001905181019061070b9190613699565b6040517f6a6278420000000000000000000000000000000000000000000000000000000081526001600160a01b0380841660048301529197509192507f00000000000000000000000000000000000000000000000000000000000000001690636a627842906024016020604051808303816000875af1158015610792573d6000803e3d6000fd5b505050506040513d601f19601f820116820180604052508101906107b691906136ea565b9250826040516020016107cb91815260200190565b6040516020818303038152906040529350505b60405163eb02c30160e01b8152600481018390526000907f00000000000000000000000000000000000000000000000000000000000000006001600160a01b03169063eb02c3019060240160a060405180830381865afa158015610846573d6000803e3d6000fd5b505050506040513d601f19601f8201168201806040525081019061086a91906134e1565b9050600080868060200190518101906108839190613703565b60ff92909216604087810182905260808801859052517fe1869a43000000000000000000000000000000000000000000000000000000008152600481018a90526024810194909452604484015293509150600090819081907f00000000000000000000000000000000000000000000000000000000000000006001600160a01b03169063e1869a43906064016000604051808303816000875af115801561092e573d6000803e3d6000fd5b505050506040513d6000823e601f3d908101601f191682016040526109569190810190613803565b9250925092506000811215610a0a5785516001600160a01b037f000000000000000000000000000000000000000000000000000000000000000016906301e3366790306109a285613870565b6040516001600160e01b031960e086901b1681526001600160a01b0393841660048201529290911660248301526044820152606401600060405180830381600087803b1580156109f157600080fd5b505af1158015610a05573d6000803e3d6000fd5b505050505b825115610ab3576040517f0f0b07650000000000000000000000000000000000000000000000000000000081526001600160a01b037f00000000000000000000000000000000000000000000000000000000000000001690630f0b076590610a789086903090600401613906565b600060405180830381600087803b158015610a9257600080fd5b505af1158015610aa6573d6000803e3d6000fd5b50505050610ab383611c5b565b610ad6878760000151858560008613610acd576000610acf565b855b8a8a611d2a565b6000811315610c1657855160405163095ea7b360e01b81526001600160a01b037f000000000000000000000000000000000000000000000000000000000000000081166004830152602482018490529091169063095ea7b3906044016020604051808303816000875af1158015610b51573d6000803e3d6000fd5b505050506040513d601f19601f82011682018060405250810190610b759190613942565b5085516040517f338b5dea0000000000000000000000000000000000000000000000000000000081526001600160a01b039182166004820152602481018390527f00000000000000000000000000000000000000000000000000000000000000009091169063338b5dea90604401600060405180830381600087803b158015610bfd57600080fd5b505af1158015610c11573d6000803e3d6000fd5b505050505b815115610cbe57610c268261205e565b6040517f430c114b0000000000000000000000000000000000000000000000000000000081526001600160a01b037f0000000000000000000000000000000000000000000000000000000000000000169063430c114b90610c8b90859060040161395d565b600060405180830381600087803b158015610ca557600080fd5b505af1158015610cb9573d6000803e3d6000fd5b505050505b6040517faba5b4b3000000000000000000000000000000000000000000000000000000008152600481018990527f00000000000000000000000000000000000000000000000000000000000000006001600160a01b03169063aba5b4b390602401600060405180830381600087803b158015610d3957600080fd5b505af1158015610d4d573d6000803e3d6000fd5b505050505050505050505050919050565b600254600114610d815760405163558a1e0360e11b815260040160405180910390fd5b600280556040516331a9108f60e11b815260048101839052829033906001600160a01b037f00000000000000000000000000000000000000000000000000000000000000001690636352211e90602401602060405180830381865afa158015610dee573d6000803e3d6000fd5b505050506040513d601f19601f82011682018060405250810190610e1291906134af565b6001600160a01b031614610e3957604051633006171960e21b815260040160405180910390fd5b610e647f00000000000000000000000000000000000000000000000000000000000000008484611ab3565b60405163eb02c30160e01b8152600481018490526000907f00000000000000000000000000000000000000000000000000000000000000006001600160a01b03169063eb02c3019060240160a060405180830381865afa158015610ecc573d6000803e3d6000fd5b505050506040513d601f19601f82011682018060405250810190610ef091906134e1565b9050610f0e8160400151610f02612251565b60ff9081169116101590565b15610f45576040517fd0404f8500000000000000000000000000000000000000000000000000000000815260040160405180910390fd5b604081810151815160006020820181905260ff90921681840152606081018290526080808201929092528251808203909201825260a081019092527f00000000000000000000000000000000000000000000000000000000000000006001600160a01b031691638154831991610fc1918891339160c001613589565b6040516020818303038152906040526040518263ffffffff1660e01b8152600401610fec9190613167565b6000604051808303816000875af115801561100b573d6000803e3d6000fd5b505050506040513d6000823e601f3d908101601f19168201604052611033919081019061360a565b5080516110409033611b61565b505060016002555050565b611053612261565b61105d60006122bb565b565b611067612261565b6000611072836122e1565b9050600061108b846020810151905160a09190911b0190565b905060007f00000000000000000000000000000000000000000000000000000000000000006001600160a01b03166308b2ea5e7f000000000000000000000000000000000000000000000000000000000000000084866040518463ffffffff1660e01b81526004016110ff93929190613970565b602060405180830381865afa15801561111c573d6000803e3d6000fd5b505050506040513d601f19601f8201168201806040525081019061114091906134af565b6040517f0cf85bcc0000000000000000000000000000000000000000000000000000000081526001600160a01b0386811660048301529192506000917f00000000000000000000000000000000000000000000000000000000000000001690630cf85bcc9060240160a060405180830381865afa1580156111c5573d6000803e3d6000fd5b505050506040513d601f19601f820116820180604052508101906111e991906139b8565b80519091506001600160a01b031615806112765750816001600160a01b0316856001600160a01b031663c55dae636040518163ffffffff1660e01b8152600401602060405180830381865afa158015611246573d6000803e3d6000fd5b505050506040513d601f19601f8201168201806040525081019061126a91906134af565b6001600160a01b031614155b806112f8575085600001516001600160a01b0316856001600160a01b031663217a4b706040518163ffffffff1660e01b8152600401602060405180830381865afa1580156112c8573d6000803e3d6000fd5b505050506040513d601f19601f820116820180604052508101906112ec91906134af565b6001600160a01b031614155b1561132f576040517f9db8d5b100000000000000000000000000000000000000000000000000000000815260040160405180910390fd5b6000838152600360209081526040808320805473ffffffffffffffffffffffffffffffffffffffff19166001600160a01b038a8116918217909255928a01518a519251939460ff9091169392909116917f1af2ab3fb32011f944cdc84227bb94082408e31deffe0f50b60dbfe9540d92d99190a4505050505050565b60015433906001600160a01b031681146114325760405162461bcd60e51b815260206004820152602960248201527f4f776e61626c6532537465703a2063616c6c6572206973206e6f74207468652060448201527f6e6577206f776e6572000000000000000000000000000000000000000000000060648201526084015b60405180910390fd5b61143b816122bb565b50565b6002546001146114615760405163558a1e0360e11b815260040160405180910390fd5b6002805547156114e0577f00000000000000000000000000000000000000000000000000000000000000006001600160a01b031663d0e30db0476040518263ffffffff1660e01b81526004016000604051808303818588803b1580156114c657600080fd5b505af11580156114da573d6000803e3d6000fd5b50505050505b6114ea85826124a6565b60008461150c6114fb600187613a32565b611503612251565b60ff16906125bf565b60408051602081019390935260ff90911690820152600060608201526080810184905260a001604051602081830303815290604052905060007f00000000000000000000000000000000000000000000000000000000000000006001600160a01b031663815483196000338a8660405160200161158a929190613a4b565b60408051601f19818403018152908290526115a9939291602001613a6d565b6040516020818303038152906040526040518263ffffffff1660e01b81526004016115d49190613167565b6000604051808303816000875af11580156115f3573d6000803e3d6000fd5b505050506040513d6000823e601f3d908101601f1916820160405261161b919081019061360a565b905060008180602001905181019061163391906136ea565b905061163f8833611b61565b6040516323b872dd60e01b8152306004820152336024820152604481018290527f00000000000000000000000000000000000000000000000000000000000000006001600160a01b0316906323b872dd90606401600060405180830381600087803b1580156116ad57600080fd5b505af11580156116c1573d6000803e3d6000fd5b5050600160025550505050505050505050565b6116dc612261565b600180546001600160a01b03831673ffffffffffffffffffffffffffffffffffffffff19909116811790915561171a6000546001600160a01b031690565b6001600160a01b03167f38d16b8cac22d99fc7c124b9cd0de2d3fa1faef420bfe791d8c362d765e2270060405160405180910390a350565b6040517fafdd9edc0000000000000000000000000000000000000000000000000000000081523360048201526000906001600160a01b037f0000000000000000000000000000000000000000000000000000000000000000169063afdd9edc90602401602060405180830381865afa1580156117d2573d6000803e3d6000fd5b505050506040513d601f19601f820116820180604052508101906117f691906134af565b6001600160a01b03160361181d57604051633006171960e21b815260040160405180910390fd5b6000336001600160a01b031663217a4b706040518163ffffffff1660e01b8152600401602060405180830381865afa15801561185d573d6000803e3d6000fd5b505050506040513d601f19601f8201168201806040525081019061188191906134af565b6040805160808101825260009181018281526060820183905281526020810182905291925090606080600080806118ba898b018b613b33565b959c50939a5091985096509450925090506001600160a01b03808f169089160361190d578b8210156118ff57604051630f271b5560e41b815260040160405180910390fd5b918b0191908b900390611921565b8a81111561191d578a9003611921565b5060005b61193087898787878787611d2a565b50505050506000871115611952576119526001600160a01b038a1633896125d2565b6040516370a0823160e01b81523060048201526000906001600160a01b038b16906370a0823190602401602060405180830381865afa158015611999573d6000803e3d6000fd5b505050506040513d601f19601f820116820180604052508101906119bd91906136ea565b9050896001600160a01b0316846001600160a01b0316141580156119e15750600081115b15611aa75760006119f583600001516122e1565b90507f00000000000000000000000000000000000000000000000000000000000000006001600160a01b03166352aecb247f0000000000000000000000000000000000000000000000000000000000000000611a5086612663565b8588866040518663ffffffff1660e01b8152600401611a73959493929190613bd8565b600060405180830381600087803b158015611a8d57600080fd5b505af1158015611aa1573d6000803e3d6000fd5b50505050505b50505050505050505050565b803515611b5c576001600160a01b038316637ac2ff7b30848435611add6040870160208801613c10565b604080516001600160e01b031960e088901b1681526001600160a01b0390951660048601526024850193909352604484019190915260ff1660648301528401356084820152606084013560a482015260c401600060405180830381600087803b158015611b4957600080fd5b505af1925050508015611b5a575060015b505b505050565b6040516370a0823160e01b81523060048201526000906001600160a01b038416906370a0823190602401602060405180830381865afa158015611ba8573d6000803e3d6000fd5b505050506040513d601f19601f82011682018060405250810190611bcc91906136ea565b905080600003611bdb57505050565b6040517ffcd3533c000000000000000000000000000000000000000000000000000000008152600481018290526001600160a01b03838116602483015284169063fcd3533c90604401600060405180830381600087803b158015611c3e57600080fd5b505af1158015611c52573d6000803e3d6000fd5b50505050505050565b6000611c6682612678565b6040517f100886cc0000000000000000000000000000000000000000000000000000000081529091506001600160a01b037f0000000000000000000000000000000000000000000000000000000000000000169063100886cc90611cf49030907f00000000000000000000000000000000000000000000000000000000000000009087908790600401613c2d565b600060405180830381600087803b158015611d0e57600080fd5b505af1158015611d22573d6000803e3d6000fd5b505050505050565b835115611f295760008460018651611d429190613576565b81518110611d5257611d52613c6b565b6020026020010151905060018551038552600088828888888888604051602001611d829796959493929190613c81565b604051602081830303815290604052905060018651018652600060036000611da985612663565b815260200190815260200160002060009054906101000a90046001600160a01b031690506000816001600160a01b031663c55dae636040518163ffffffff1660e01b8152600401602060405180830381865afa158015611e0d573d6000803e3d6000fd5b505050506040513d601f19601f82011682018060405250810190611e3191906134af565b6040516370a0823160e01b81523060048201526001600160a01b0391909116906370a0823190602401602060405180830381865afa158015611e77573d6000803e3d6000fd5b505050506040513d601f19601f82011682018060405250810190611e9b91906136ea565b8460200151611eaa9190613576565b60405163168da99d60e31b81529091506001600160a01b0383169063b46d4ce890611eee90309061ffff9067ffffffffffffffff9087906001908b90600401613d07565b600060405180830381600087803b158015611f0857600080fd5b505af1158015611f1c573d6000803e3d6000fd5b5050505050505050611c52565b8451156120345760008560018751611f419190613576565b81518110611f5157611f51613c6b565b6020026020010151905060018651038652600088828888888888604051602001611f819796959493929190613c81565b604051602081830303815290604052905060018751018752600060036000611fa885612663565b8152602080820192909252604090810160009081205492860151915163168da99d60e31b81526001600160a01b039093169350839263b46d4ce892611ffa923092909182916002908a90600401613d07565b600060405180830381600087803b15801561201457600080fd5b505af1158015612028573d6000803e3d6000fd5b50505050505050611c52565b801561205357604051630f271b5560e41b815260040160405180910390fd5b611c528688856126de565b6000815167ffffffffffffffff81111561207a5761207a612efd565b6040519080825280602002602001820160405280156120a3578160200160208202803683370190505b5090506000825167ffffffffffffffff8111156120c2576120c2612efd565b6040519080825280602002602001820160405280156120eb578160200160208202803683370190505b50905060005b835181101561217d5761211c84828151811061210f5761210f613c6b565b6020026020010151612663565b83828151811061212e5761212e613c6b565b60200260200101818152505083818151811061214c5761214c613c6b565b60200260200101516020015182828151811061216a5761216a613c6b565b60209081029190910101526001016120f1565b50600061218984612678565b6040517fa7eaa1860000000000000000000000000000000000000000000000000000000081529091506001600160a01b037f0000000000000000000000000000000000000000000000000000000000000000169063a7eaa18690612219907f0000000000000000000000000000000000000000000000000000000000000000908790879030908890600401613d82565b600060405180830381600087803b15801561223357600080fd5b505af1158015612247573d6000803e3d6000fd5b5050505050505050565b600061225c4261293f565b905090565b6000546001600160a01b0316331461105d5760405162461bcd60e51b815260206004820181905260248201527f4f776e61626c653a2063616c6c6572206973206e6f7420746865206f776e65726044820152606401611429565b6001805473ffffffffffffffffffffffffffffffffffffffff1916905561143b81612a2d565b6060600082600001516001600160a01b03166395d89b416040518163ffffffff1660e01b8152600401600060405180830381865afa158015612327573d6000803e3d6000fd5b505050506040513d6000823e601f3d908101601f1916820160405261234f9190810190613de0565b90506000612363846020015160ff16612a8a565b90506000828260405160200161237a929190613e29565b60405160208183030381529060405261239290613eab565b9050600083836040516020016123a9929190613ecf565b6040516020818303038152906040526123c190613eab565b9050825184510160020280601e0183019250806006018201915050818187600001516001600160a01b031663313ce5676040518163ffffffff1660e01b8152600401602060405180830381865afa158015612420573d6000803e3d6000fd5b505050506040513d601f19601f820116820180604052508101906124449190613f27565b60f81b60405160200161248c9392919092835260208301919091527fff0000000000000000000000000000000000000000000000000000000000000016604082015260410190565b604051602081830303815290604052945050505050919050565b6020810135156125bb57816001600160a01b0316632495a5996040518163ffffffff1660e01b8152600401602060405180830381865afa1580156124ee573d6000803e3d6000fd5b505050506040513d601f19601f8201168201806040525081019061251291906134af565b6001600160a01b031663d505accf3330843560208601356125396060880160408901613c10565b60405160e087901b6001600160e01b03191681526001600160a01b0395861660048201529490931660248501526044840191909152606483015260ff166084820152606084013560a4820152608084013560c482015260e401600060405180830381600087803b1580156125ac57600080fd5b505af1925050508015611b5c57505b5050565b60006125cb8284613f44565b9392505050565b6040516001600160a01b038316602482015260448101829052611b5c9084907fa9059cbb00000000000000000000000000000000000000000000000000000000906064015b60408051601f198184030181529190526020810180517bffffffffffffffffffffffffffffffffffffffffffffffffffffffff166001600160e01b031990931692909217909152612b2a565b80516020810151905160009160a01b016103cd565b606060005b82518110156126d857816126ad84838151811061269c5761269c613c6b565b6020026020010151600001516122e1565b6040516020016126be929190613f5d565b60408051601f19818403018152919052915060010161267d565b50919050565b6000836001600160a01b0316632495a5996040518163ffffffff1660e01b8152600401602060405180830381865afa15801561271e573d6000803e3d6000fd5b505050506040513d601f19601f8201168201806040525081019061274291906134af565b6040516370a0823160e01b81523060048201529091506000906001600160a01b038616906370a0823190602401602060405180830381865afa15801561278c573d6000803e3d6000fd5b505050506040513d601f19601f820116820180604052508101906127b091906136ea565b6040516370a0823160e01b81523060048201529091506000906001600160a01b038416906370a0823190602401602060405180830381865afa1580156127fa573d6000803e3d6000fd5b505050506040513d601f19601f8201168201806040525081019061281e91906136ea565b905061282a8183613f8c565b8411156128505761284b6001600160a01b0384168630858803859003612c12565b508083035b8015611d225760405163095ea7b360e01b81526001600160a01b0387811660048301526024820183905284169063095ea7b3906044016020604051808303816000875af11580156128a5573d6000803e3d6000fd5b505050506040513d601f19601f820116820180604052508101906128c99190613942565b506040517f94bf804d000000000000000000000000000000000000000000000000000000008152600481018290523060248201526001600160a01b038716906394bf804d90604401600060405180830381600087803b15801561292b57600080fd5b505af1158015611aa7573d6000803e3d6000fd5b600080620151808304905080622649658101600062023ab1600483020590506004600362023ab18302010590910390600062164b09610fa0600185010205905060046105b58202058303601f019250600061098f84605002816129a4576129a4613f9f565b059050600b8105935083600c028160020103905083826031850360640201019150600060066001836107b28603600c020103816129e3576129e3613f9f565b04905060ff811115612a21576040517f73cde75100000000000000000000000000000000000000000000000000000000815260040160405180910390fd5b98975050505050505050565b600080546001600160a01b0383811673ffffffffffffffffffffffffffffffffffffffff19831681178455604051919092169283917f8be0079c531659141344cd1fd0a4f28419497f9722a3daafe3b4186f6b6457e09190a35050565b60606000612a9783612c4a565b600101905060008167ffffffffffffffff811115612ab757612ab7612efd565b6040519080825280601f01601f191660200182016040528015612ae1576020820181803683370190505b5090508181016020015b600019017f3031323334353637383961626364656600000000000000000000000000000000600a86061a8153600a8504945084612aeb57509392505050565b6000612b7f826040518060400160405280602081526020017f5361666545524332303a206c6f772d6c6576656c2063616c6c206661696c6564815250856001600160a01b0316612d2c9092919063ffffffff16565b9050805160001480612ba0575080806020019051810190612ba09190613942565b611b5c5760405162461bcd60e51b815260206004820152602a60248201527f5361666545524332303a204552433230206f7065726174696f6e20646964206e60448201527f6f742073756363656564000000000000000000000000000000000000000000006064820152608401611429565b6040516001600160a01b0380851660248301528316604482015260648101829052611b5a9085906323b872dd60e01b90608401612617565b6000807a184f03e93ff9f4daa797ed6e38ed64bf6a1f0100000000000000008310612c93577a184f03e93ff9f4daa797ed6e38ed64bf6a1f010000000000000000830492506040015b6d04ee2d6d415b85acef81000000008310612cbf576d04ee2d6d415b85acef8100000000830492506020015b662386f26fc100008310612cdd57662386f26fc10000830492506010015b6305f5e1008310612cf5576305f5e100830492506008015b6127108310612d0957612710830492506004015b60648310612d1b576064830492506002015b600a83106103cd5760010192915050565b6060612d3b8484600085612d43565b949350505050565b606082471015612dbb5760405162461bcd60e51b815260206004820152602660248201527f416464726573733a20696e73756666696369656e742062616c616e636520666f60448201527f722063616c6c00000000000000000000000000000000000000000000000000006064820152608401611429565b600080866001600160a01b03168587604051612dd79190613fb5565b60006040518083038185875af1925050503d8060008114612e14576040519150601f19603f3d011682016040523d82523d6000602084013e612e19565b606091505b5091509150612e2a87838387612e35565b979650505050505050565b60608315612ea4578251600003612e9d576001600160a01b0385163b612e9d5760405162461bcd60e51b815260206004820152601d60248201527f416464726573733a2063616c6c20746f206e6f6e2d636f6e74726163740000006044820152606401611429565b5081612d3b565b612d3b8383815115612eb95781518083602001fd5b8060405162461bcd60e51b81526004016114299190613167565b600060208284031215612ee557600080fd5b81356001600160e01b0319811681146125cb57600080fd5b634e487b7160e01b600052604160045260246000fd5b6040805190810167ffffffffffffffff81118282101715612f3657612f36612efd565b60405290565b60405160a0810167ffffffffffffffff81118282101715612f3657612f36612efd565b604051601f8201601f1916810167ffffffffffffffff81118282101715612f8857612f88612efd565b604052919050565b6001600160a01b038116811461143b57600080fd5b60ff8116811461143b57600080fd5b600060408284031215612fc657600080fd5b612fce612f13565b90508135612fdb81612f90565b81526020820135612feb81612fa5565b602082015292915050565b60006040828403121561300857600080fd5b6125cb8383612fb4565b6000608082840312156126d857600080fd5b60008060008060e0858703121561303a57600080fd5b8435935060208501359250604085013591506130598660608701613012565b905092959194509250565b600067ffffffffffffffff82111561307e5761307e612efd565b50601f01601f191660200190565b600082601f83011261309d57600080fd5b81356130b06130ab82613064565b612f5f565b8181528460208386010111156130c557600080fd5b816020850160208301376000918101602001919091529392505050565b6000602082840312156130f457600080fd5b813567ffffffffffffffff81111561310b57600080fd5b612d3b8482850161308c565b60005b8381101561313257818101518382015260200161311a565b50506000910152565b60008151808452613153816020860160208601613117565b601f01601f19169290920160200192915050565b6020815260006125cb602083018461313b565b60008060a0838503121561318d57600080fd5b8235915061319e8460208501613012565b90509250929050565b600080606083850312156131ba57600080fd5b6131c48484612fb4565b915060408301356131d481612f90565b809150509250929050565b600067ffffffffffffffff8211156131f9576131f9612efd565b5060051b60200190565b600082601f83011261321457600080fd5b813560206132246130ab836131df565b82815260059290921b8401810191818101908684111561324357600080fd5b8286015b8481101561325e5780358352918301918301613247565b509695505050505050565b600080600080600060a0868803121561328157600080fd5b853561328c81612f90565b9450602086013561329c81612f90565b9350604086013567ffffffffffffffff808211156132b957600080fd5b6132c589838a01613203565b945060608801359150808211156132db57600080fd5b6132e789838a01613203565b935060808801359150808211156132fd57600080fd5b5061330a8882890161308c565b9150509295509295909350565b600080600080600085870361012081121561333157600080fd5b863561333c81612f90565b955060208701359450604087013561335381612fa5565b93506060870135925060a0607f198201121561336e57600080fd5b506080860190509295509295909350565b600080600080600060a0868803121561339757600080fd5b85356133a281612f90565b945060208601356133b281612f90565b93506040860135925060608601359150608086013567ffffffffffffffff8111156133dc57600080fd5b61330a8882890161308c565b6000602082840312156133fa57600080fd5b81356125cb81612f90565b60008060008060008060a0878903121561341e57600080fd5b863561342981612f90565b9550602087013561343981612f90565b94506040870135935060608701359250608087013567ffffffffffffffff8082111561346457600080fd5b818901915089601f83011261347857600080fd5b81358181111561348757600080fd5b8a602082850101111561349957600080fd5b6020830194508093505050509295509295509295565b6000602082840312156134c157600080fd5b81516125cb81612f90565b805180151581146134dc57600080fd5b919050565b600060a082840312156134f357600080fd5b6134fb612f3c565b825161350681612f90565b8152602083015167ffffffffffffffff8116811461352357600080fd5b6020820152604083015161353681612fa5565b6040820152613547606084016134cc565b6060820152608083015160808201528091505092915050565b634e487b7160e01b600052601160045260246000fd5b818103818111156103cd576103cd613560565b8381526001600160a01b03831660208201526060604082015260006135b1606083018461313b565b95945050505050565b60006135c86130ab84613064565b90508281528383830111156135dc57600080fd5b6125cb836020830184613117565b600082601f8301126135fb57600080fd5b6125cb838351602085016135ba565b60006020828403121561361c57600080fd5b815167ffffffffffffffff81111561363357600080fd5b612d3b848285016135ea565b60008060006060848603121561365457600080fd5b83519250602084015161366681612f90565b604085015190925067ffffffffffffffff81111561368357600080fd5b61368f868287016135ea565b9150509250925092565b600080604083850312156136ac57600080fd5b82516136b781612f90565b602084015190925067ffffffffffffffff8111156136d457600080fd5b6136e0858286016135ea565b9150509250929050565b6000602082840312156136fc57600080fd5b5051919050565b6000806000806080858703121561371957600080fd5b84519350602085015161372b81612fa5565b6040860151606090960151949790965092505050565b600082601f83011261375257600080fd5b815160206137626130ab836131df565b8281526060928302850182019282820191908785111561378157600080fd5b8387015b858110156137f6578089038281121561379e5760008081fd5b6137a6612f13565b6040808312156137b65760008081fd5b6137be612f13565b925083516137cb81612f90565b8352838801516137da81612fa5565b8389015291815290820151818701528452928401928101613785565b5090979650505050505050565b60008060006060848603121561381857600080fd5b835167ffffffffffffffff8082111561383057600080fd5b61383c87838801613741565b9450602086015191508082111561385257600080fd5b5061385f86828701613741565b925050604084015190509250925092565b60007f800000000000000000000000000000000000000000000000000000000000000082036138a1576138a1613560565b5060000390565b600081518084526020808501945080840160005b838110156138fb578151805180516001600160a01b0316895260209081015160ff16818a015201516040880152606090960195908201906001016138bc565b509495945050505050565b60608152600061391960608301856138a8565b6001600160a01b0384166020840152828103604084015260008152602081019150509392505050565b60006020828403121561395457600080fd5b6125cb826134cc565b6020815260006125cb60208301846138a8565b6001600160a01b03841681528260208201526060604082015260006135b1606083018461313b565b80516fffffffffffffffffffffffffffffffff811681146134dc57600080fd5b600060a082840312156139ca57600080fd5b6139d2612f3c565b82516139dd81612f90565b81526020830151600381106139f157600080fd5b6020820152613a0260408401613998565b6040820152613a1360608401613998565b60608201526080830151613a2681612f90565b60808201529392505050565b60ff82811682821603908111156103cd576103cd613560565b6001600160a01b0383168152604060208201526000612d3b604083018461313b565b60ff841681526001600160a01b03831660208201526060604082015260006135b1606083018461313b565b600060608284031215613aaa57600080fd5b613ab2612f13565b9050613abe8383612fb4565b81526040820135602082015292915050565b600082601f830112613ae157600080fd5b81356020613af16130ab836131df565b82815260609283028501820192828201919087851115613b1057600080fd5b8387015b858110156137f657613b268982613a98565b8452928401928101613b14565b6000806000806000806000610120888a031215613b4f57600080fd5b8735613b5a81612f90565b9650613b698960208a01613a98565b9550608088013567ffffffffffffffff80821115613b8657600080fd5b613b928b838c01613ad0565b965060a08a0135915080821115613ba857600080fd5b50613bb58a828b01613ad0565b979a969950949760c08101359660e0820135965061010090910135945092505050565b60006001600160a01b03808816835286602084015285604084015280851660608401525060a06080830152612e2a60a083018461313b565b600060208284031215613c2257600080fd5b81356125cb81612fa5565b60006001600160a01b03808716835280861660208401525060806040830152613c5960808301856138a8565b8281036060840152612e2a818561313b565b634e487b7160e01b600052603260045260246000fd5b60006101206001600160a01b038a168352613cc0602084018a805180516001600160a01b0316835260209081015160ff16818401520151604090910152565b806080840152613cd2818401896138a8565b905082810360a0840152613ce681886138a8565b60c0840196909652505060e081019290925261010090910152949350505050565b6001600160a01b038716815261ffff8616602082015267ffffffffffffffff8516604082015283606082015260ff8316608082015260c060a08201526000612a2160c083018461313b565b600081518084526020808501945080840160005b838110156138fb57815187529582019590820190600101613d66565b60006001600160a01b03808816835260a06020840152613da560a0840188613d52565b8381036040850152613db78188613d52565b905081861660608501528381036080850152613dd3818661313b565b9998505050505050505050565b600060208284031215613df257600080fd5b815167ffffffffffffffff811115613e0957600080fd5b8201601f81018413613e1a57600080fd5b612d3b848251602084016135ba565b60008351613e3b818460208801613117565b7f20426f6e6420436f75706f6e20280000000000000000000000000000000000009083019081528351613e7581600e840160208801613117565b7f2900000000000000000000000000000000000000000000000000000000000000600e9290910191820152600f01949350505050565b805160208083015191908110156126d85760001960209190910360031b1b16919050565b60008351613ee1818460208801613117565b7f2d435000000000000000000000000000000000000000000000000000000000009083019081528351613f1b816003840160208801613117565b01600301949350505050565b600060208284031215613f3957600080fd5b81516125cb81612fa5565b60ff81811683821601908111156103cd576103cd613560565b60008351613f6f818460208801613117565b835190830190613f83818360208801613117565b01949350505050565b808201808211156103cd576103cd613560565b634e487b7160e01b600052601260045260246000fd5b60008251613fc7818460208701613117565b919091019291505056fea264697066735822122015c315d3d1379a79cd1b9a049cb8fa452237cef61547625d135eb53b996cd9ab64736f6c63430008130033",
  "devdoc": {
    "kind": "dev",
    "methods": {
      "acceptOwnership()": {
        "details": "The new owner accepts the ownership transfer."
      },
      "owner()": {
        "details": "Returns the address of the current owner."
      },
      "pendingOwner()": {
        "details": "Returns the address of the pending owner."
      },
      "renounceOwnership()": {
        "details": "Leaves the contract without owner. It will not be possible to call `onlyOwner` functions. Can only be called by the current owner. NOTE: Renouncing ownership will leave the contract without an owner, thereby disabling any functionality that is only available to the owner."
      },
      "supportsInterface(bytes4)": {
        "details": "See {IERC165-supportsInterface}."
      },
      "transferOwnership(address)": {
        "details": "Starts the ownership transfer of the contract to a new account. Replaces the pending transfer if there is one. Can only be called by the current owner."
      }
    },
    "version": 1
  },
  "userdoc": {
    "kind": "user",
    "methods": {},
    "version": 1
  },
  "storageLayout": {
    "storage": [
      {
        "astId": 7,
        "contract": "contracts/DepositController.sol:DepositController",
        "label": "_owner",
        "offset": 0,
        "slot": "0",
        "type": "t_address"
      },
      {
        "astId": 120,
        "contract": "contracts/DepositController.sol:DepositController",
        "label": "_pendingOwner",
        "offset": 0,
        "slot": "1",
        "type": "t_address"
      },
      {
        "astId": 10173,
        "contract": "contracts/DepositController.sol:DepositController",
        "label": "_locked",
        "offset": 0,
        "slot": "2",
        "type": "t_uint256"
      },
      {
        "astId": 8308,
        "contract": "contracts/DepositController.sol:DepositController",
        "label": "_couponMarkets",
        "offset": 0,
        "slot": "3",
        "type": "t_mapping(t_uint256,t_address)"
      }
    ],
    "types": {
      "t_address": {
        "encoding": "inplace",
        "label": "address",
        "numberOfBytes": "20"
      },
      "t_mapping(t_uint256,t_address)": {
        "encoding": "mapping",
        "key": "t_uint256",
        "label": "mapping(uint256 => address)",
        "numberOfBytes": "32",
        "value": "t_address"
      },
      "t_uint256": {
        "encoding": "inplace",
        "label": "uint256",
        "numberOfBytes": "32"
      }
    }
  }
}