{
  "address": "0x242552D7AF567c2Ce1c403D13908d7dC1e0eEfB9",
  "abi": [
    {
      "inputs": [
        {
          "internalType": "address",
          "name": "wrapped1155Factory",
          "type": "address"
        },
        {
          "internalType": "address",
          "name": "cloberMarketFactory",
          "type": "address"
        },
        {
          "internalType": "address",
          "name": "couponManager",
          "type": "address"
        },
        {
          "internalType": "address",
          "name": "weth",
          "type": "address"
        },
        {
          "internalType": "address",
          "name": "bondManager",
          "type": "address"
        }
      ],
      "stateMutability": "nonpayable",
      "type": "constructor"
    },
    {
      "inputs": [],
      "name": "ControllerSlippage",
      "type": "error"
    },
    {
      "inputs": [],
      "name": "EpochOverflow",
      "type": "error"
    },
    {
      "inputs": [],
      "name": "InvalidAccess",
      "type": "error"
    },
    {
      "inputs": [],
      "name": "InvalidMarket",
      "type": "error"
    },
    {
      "inputs": [],
      "name": "Reentrancy",
      "type": "error"
    },
    {
      "inputs": [],
      "name": "ValueTransferFailed",
      "type": "error"
    },
    {
      "anonymous": false,
      "inputs": [
        {
          "indexed": true,
          "internalType": "address",
          "name": "previousOwner",
          "type": "address"
        },
        {
          "indexed": true,
          "internalType": "address",
          "name": "newOwner",
          "type": "address"
        }
      ],
      "name": "OwnershipTransferred",
      "type": "event"
    },
    {
      "inputs": [
        {
          "internalType": "address",
          "name": "inputToken",
          "type": "address"
        },
        {
          "internalType": "address",
          "name": "",
          "type": "address"
        },
        {
          "internalType": "uint256",
          "name": "inputAmount",
          "type": "uint256"
        },
        {
          "internalType": "uint256",
          "name": "outputAmount",
          "type": "uint256"
        },
        {
          "internalType": "bytes",
          "name": "data",
          "type": "bytes"
        }
      ],
      "name": "cloberMarketSwapCallback",
      "outputs": [],
      "stateMutability": "payable",
      "type": "function"
    },
    {
      "inputs": [
        {
          "internalType": "uint256",
          "name": "positionId",
          "type": "uint256"
        },
        {
          "components": [
            {
              "internalType": "uint256",
              "name": "deadline",
              "type": "uint256"
            },
            {
              "internalType": "uint8",
              "name": "v",
              "type": "uint8"
            },
            {
              "internalType": "bytes32",
              "name": "r",
              "type": "bytes32"
            },
            {
              "internalType": "bytes32",
              "name": "s",
              "type": "bytes32"
            }
          ],
          "internalType": "struct PermitParams",
          "name": "positionPermitParams",
          "type": "tuple"
        }
      ],
      "name": "collect",
      "outputs": [],
      "stateMutability": "nonpayable",
      "type": "function"
    },
    {
      "inputs": [
        {
          "internalType": "address",
          "name": "asset",
          "type": "address"
        },
        {
          "internalType": "uint256",
          "name": "amount",
          "type": "uint256"
        },
        {
          "internalType": "uint8",
          "name": "lockEpochs",
          "type": "uint8"
        },
        {
          "internalType": "uint256",
          "name": "minEarnInterest",
          "type": "uint256"
        },
        {
          "components": [
            {
              "internalType": "uint256",
              "name": "deadline",
              "type": "uint256"
            },
            {
              "internalType": "uint8",
              "name": "v",
              "type": "uint8"
            },
            {
              "internalType": "bytes32",
              "name": "r",
              "type": "bytes32"
            },
            {
              "internalType": "bytes32",
              "name": "s",
              "type": "bytes32"
            }
          ],
          "internalType": "struct PermitParams",
          "name": "tokenPermitParams",
          "type": "tuple"
        }
      ],
      "name": "deposit",
      "outputs": [],
      "stateMutability": "payable",
      "type": "function"
    },
    {
      "inputs": [
        {
          "components": [
            {
              "internalType": "address",
              "name": "asset",
              "type": "address"
            },
            {
              "internalType": "Epoch",
              "name": "epoch",
              "type": "uint8"
            }
          ],
          "internalType": "struct CouponKey",
          "name": "couponKey",
          "type": "tuple"
        }
      ],
      "name": "getCouponMarket",
      "outputs": [
        {
          "internalType": "address",
          "name": "",
          "type": "address"
        }
      ],
      "stateMutability": "view",
      "type": "function"
    },
    {
      "inputs": [
        {
          "internalType": "address",
          "name": "",
          "type": "address"
        },
        {
          "internalType": "address",
          "name": "",
          "type": "address"
        },
        {
          "internalType": "uint256[]",
          "name": "",
          "type": "uint256[]"
        },
        {
          "internalType": "uint256[]",
          "name": "",
          "type": "uint256[]"
        },
        {
          "internalType": "bytes",
          "name": "",
          "type": "bytes"
        }
      ],
      "name": "onERC1155BatchReceived",
      "outputs": [
        {
          "internalType": "bytes4",
          "name": "",
          "type": "bytes4"
        }
      ],
      "stateMutability": "nonpayable",
      "type": "function"
    },
    {
      "inputs": [
        {
          "internalType": "address",
          "name": "",
          "type": "address"
        },
        {
          "internalType": "address",
          "name": "",
          "type": "address"
        },
        {
          "internalType": "uint256",
          "name": "",
          "type": "uint256"
        },
        {
          "internalType": "uint256",
          "name": "",
          "type": "uint256"
        },
        {
          "internalType": "bytes",
          "name": "",
          "type": "bytes"
        }
      ],
      "name": "onERC1155Received",
      "outputs": [
        {
          "internalType": "bytes4",
          "name": "",
          "type": "bytes4"
        }
      ],
      "stateMutability": "nonpayable",
      "type": "function"
    },
    {
      "inputs": [],
      "name": "owner",
      "outputs": [
        {
          "internalType": "address",
          "name": "",
          "type": "address"
        }
      ],
      "stateMutability": "view",
      "type": "function"
    },
    {
      "inputs": [
        {
          "internalType": "bytes",
          "name": "data",
          "type": "bytes"
        }
      ],
      "name": "positionLockAcquired",
      "outputs": [
        {
          "internalType": "bytes",
          "name": "result",
          "type": "bytes"
        }
      ],
      "stateMutability": "nonpayable",
      "type": "function"
    },
    {
      "inputs": [],
      "name": "renounceOwnership",
      "outputs": [],
      "stateMutability": "nonpayable",
      "type": "function"
    },
    {
      "inputs": [
        {
          "components": [
            {
              "internalType": "address",
              "name": "asset",
              "type": "address"
            },
            {
              "internalType": "Epoch",
              "name": "epoch",
              "type": "uint8"
            }
          ],
          "internalType": "struct CouponKey",
          "name": "couponKey",
          "type": "tuple"
        },
        {
          "internalType": "address",
          "name": "cloberMarket",
          "type": "address"
        }
      ],
      "name": "setCouponMarket",
      "outputs": [],
      "stateMutability": "nonpayable",
      "type": "function"
    },
    {
      "inputs": [
        {
          "internalType": "bytes4",
          "name": "interfaceId",
          "type": "bytes4"
        }
      ],
      "name": "supportsInterface",
      "outputs": [
        {
          "internalType": "bool",
          "name": "",
          "type": "bool"
        }
      ],
      "stateMutability": "view",
      "type": "function"
    },
    {
      "inputs": [
        {
          "internalType": "address",
          "name": "newOwner",
          "type": "address"
        }
      ],
      "name": "transferOwnership",
      "outputs": [],
      "stateMutability": "nonpayable",
      "type": "function"
    },
    {
      "inputs": [
        {
          "internalType": "uint256",
          "name": "positionId",
          "type": "uint256"
        },
        {
          "internalType": "uint256",
          "name": "withdrawAmount",
          "type": "uint256"
        },
        {
          "internalType": "uint256",
          "name": "maxPayInterest",
          "type": "uint256"
        },
        {
          "components": [
            {
              "internalType": "uint256",
              "name": "deadline",
              "type": "uint256"
            },
            {
              "internalType": "uint8",
              "name": "v",
              "type": "uint8"
            },
            {
              "internalType": "bytes32",
              "name": "r",
              "type": "bytes32"
            },
            {
              "internalType": "bytes32",
              "name": "s",
              "type": "bytes32"
            }
          ],
          "internalType": "struct PermitParams",
          "name": "positionPermitParams",
          "type": "tuple"
        }
      ],
      "name": "withdraw",
      "outputs": [],
      "stateMutability": "nonpayable",
      "type": "function"
    },
    {
      "stateMutability": "payable",
      "type": "receive"
    }
  ],
  "transactionHash": "0xd498d3275db0a8d54922077ae7dd7608bf3b17d032bbed133ca0c5b632d95455",
  "args": [
    "0xfcBE16BfD991E4949244E59d9b524e6964b8BB75",
    "0x24aC0938C010Fb520F1068e96d78E0458855111D",
    "0x00644a534bDea310ee2FCCF1c2821Df769A0b12F",
    "0x82aF49447D8a07e3bd95BD0d56f35241523fBab1",
    "0xE0dBCB42CCAc63C949cE3EF879A647DDb662916d"
  ],
  "numDeployments": 1,
  "solcInputHash": "8341a0300ed40a8c4fa0bc45c0cf56b3",
  "bytecode": "0x6101206040526001805534801562000015575f80fd5b5060405162004166380380620041668339810160408190526200003891620000e0565b84848484620000473362000075565b6001600160a01b0393841660805291831660a052821660c052811660e0521661010052506200014c92505050565b5f80546001600160a01b038381166001600160a01b0319831681178455604051919092169283917f8be0079c531659141344cd1fd0a4f28419497f9722a3daafe3b4186f6b6457e09190a35050565b80516001600160a01b0381168114620000db575f80fd5b919050565b5f805f805f60a08688031215620000f5575f80fd5b6200010086620000c4565b94506200011060208701620000c4565b93506200012060408701620000c4565b92506200013060608701620000c4565b91506200014060808701620000c4565b90509295509295909350565b60805160a05160c05160e05161010051613f26620002405f395f81816103c001528181610455015281816104930152818161050801528181610620015281816106d60152818161078001528181610862015281816108f0015281816109c801528181610a9f01528181610b3901528181610bcb01528181610c8101528181610d1601528181610d5401528181610dfa01528181610eff015281816110fa01526111b201525f8181610fb80152818161172a01526117e901525f818161194001528181611f2e015261208c01525f81816112eb015261214701525f818161197001528181611eff015261205d0152613f265ff3fe6080604052600436106100d1575f3560e01c806376c14af01161007c578063bc197c8111610057578063bc197c811461023b578063f23a6e6114610298578063f2fde38b146102dc578063fd235fda146102fb575f80fd5b806376c14af0146101ed5780638da5cb5b1461020c57806399656d4614610228575f80fd5b806346a114e2116100ac57806346a114e21461018e57806355d36499146101ba578063715018a6146101d9575f80fd5b806301ffc9a7146100dc57806314b32486146101105780631dc8ef1d1461016d575f80fd5b366100d857005b5f80fd5b3480156100e7575f80fd5b506100fb6100f6366004612ea2565b61030e565b60405190151581526020015b60405180910390f35b34801561011b575f80fd5b5061015561012a366004612fbc565b602081810151915160a09290921b9091015f908152600290915260409020546001600160a01b031690565b6040516001600160a01b039091168152602001610107565b348015610178575f80fd5b5061018c610187366004612fe6565b610376565b005b348015610199575f80fd5b506101ad6101a836600461309c565b610613565b604051610107919061311b565b3480156101c5575f80fd5b5061018c6101d436600461312d565b610c37565b3480156101e4575f80fd5b5061018c610ecb565b3480156101f8575f80fd5b5061018c610207366004613158565b610ede565b348015610217575f80fd5b505f546001600160a01b0316610155565b61018c61023636600461318e565b610f88565b348015610246575f80fd5b5061027f61025536600461326d565b7fbc197c810000000000000000000000000000000000000000000000000000000095945050505050565b6040516001600160e01b03199091168152602001610107565b3480156102a3575f80fd5b5061027f6102b2366004613314565b7ff23a6e610000000000000000000000000000000000000000000000000000000095945050505050565b3480156102e7575f80fd5b5061018c6102f6366004613378565b61121e565b61018c610309366004613393565b6112b3565b5f6001600160e01b031982167f4e2312e000000000000000000000000000000000000000000000000000000000148061037057507f01ffc9a7000000000000000000000000000000000000000000000000000000006001600160e01b03198316145b92915050565b6001546001146103995760405163558a1e0360e11b815260040160405180910390fd5b60026001556040516331a9108f60e11b815260048101859052849033906001600160a01b037f00000000000000000000000000000000000000000000000000000000000000001690636352211e90602401602060405180830381865afa158015610405573d5f803e3d5ffd5b505050506040513d601f19601f820116820180604052508101906104299190613435565b6001600160a01b03161461045057604051633006171960e21b815260040160405180910390fd5b61047b7f000000000000000000000000000000000000000000000000000000000000000086846114a8565b60405163eb02c30160e01b8152600481018690525f907f00000000000000000000000000000000000000000000000000000000000000006001600160a01b03169063eb02c3019060240160a060405180830381865afa1580156104e0573d5f803e3d5ffd5b505050506040513d601f19601f820116820180604052508101906105049190613464565b90507f00000000000000000000000000000000000000000000000000000000000000006001600160a01b03166381548319873388856080015161054791906134f4565b6040808701518151602081019390935260ff1690820152606081018990525f608082015260a00160408051601f198184030181529082905261058d939291602001613507565b6040516020818303038152906040526040518263ffffffff1660e01b81526004016105b8919061311b565b5f604051808303815f875af11580156105d3573d5f803e3d5ffd5b505050506040513d5f823e601f3d908101601f191682016040526105fa9190810190613583565b508051610607903361156c565b50506001805550505050565b6060336001600160a01b037f0000000000000000000000000000000000000000000000000000000000000000161461065e57604051633006171960e21b815260040160405180910390fd5b5f808380602001905181019061067491906135b5565b955090925090505f829003610768575f84806020019051810190610698919061360b565b6040517f6a6278420000000000000000000000000000000000000000000000000000000081526001600160a01b0380841660048301529197509192507f00000000000000000000000000000000000000000000000000000000000000001690636a627842906024016020604051808303815f875af115801561071c573d5f803e3d5ffd5b505050506040513d601f19601f820116820180604052508101906107409190613659565b92508260405160200161075591815260200190565b6040516020818303038152906040529350505b60405163eb02c30160e01b8152600481018390525f907f00000000000000000000000000000000000000000000000000000000000000006001600160a01b03169063eb02c3019060240160a060405180830381865afa1580156107cd573d5f803e3d5ffd5b505050506040513d601f19601f820116820180604052508101906107f19190613464565b90505f80868060200190518101906108099190613670565b60ff92909216604087810182905260808801859052517fe1869a43000000000000000000000000000000000000000000000000000000008152600481018a905260248101949094526044840152935091505f90819081907f00000000000000000000000000000000000000000000000000000000000000006001600160a01b03169063e1869a43906064015f604051808303815f875af11580156108af573d5f803e3d5ffd5b505050506040513d5f823e601f3d908101601f191682016040526108d69190810190613768565b9250925092505f8112156109845785516001600160a01b037f000000000000000000000000000000000000000000000000000000000000000016906301e336679030610921856137d0565b6040516001600160e01b031960e086901b1681526001600160a01b03938416600482015292909116602483015260448201526064015f604051808303815f87803b15801561096d575f80fd5b505af115801561097f573d5f803e3d5ffd5b505050505b825115610a3657604080515f815260208101918290527f0f0b0765000000000000000000000000000000000000000000000000000000009091526001600160a01b037f00000000000000000000000000000000000000000000000000000000000000001690630f0b076590610a00908690309060248101613860565b5f604051808303815f87803b158015610a17575f80fd5b505af1158015610a29573d5f803e3d5ffd5b50505050610a368361193e565b610a5687875f015184865f8613610a4d575f610a4f565b855b8a8a6119e1565b5f811315610af95785516040517f338b5dea0000000000000000000000000000000000000000000000000000000081526001600160a01b039182166004820152602481018390527f00000000000000000000000000000000000000000000000000000000000000009091169063338b5dea906044015f604051808303815f87803b158015610ae2575f80fd5b505af1158015610af4573d5f803e3d5ffd5b505050505b815115610b9c57610b0982611dcf565b6040517f430c114b0000000000000000000000000000000000000000000000000000000081526001600160a01b037f0000000000000000000000000000000000000000000000000000000000000000169063430c114b90610b6e90859060040161389d565b5f604051808303815f87803b158015610b85575f80fd5b505af1158015610b97573d5f803e3d5ffd5b505050505b6040517faba5b4b3000000000000000000000000000000000000000000000000000000008152600481018990527f00000000000000000000000000000000000000000000000000000000000000006001600160a01b03169063aba5b4b3906024015f604051808303815f87803b158015610c14575f80fd5b505af1158015610c26573d5f803e3d5ffd5b505050505050505050505050919050565b600154600114610c5a5760405163558a1e0360e11b815260040160405180910390fd5b60026001556040516331a9108f60e11b815260048101839052829033906001600160a01b037f00000000000000000000000000000000000000000000000000000000000000001690636352211e90602401602060405180830381865afa158015610cc6573d5f803e3d5ffd5b505050506040513d601f19601f82011682018060405250810190610cea9190613435565b6001600160a01b031614610d1157604051633006171960e21b815260040160405180910390fd5b610d3c7f000000000000000000000000000000000000000000000000000000000000000084846114a8565b60405163eb02c30160e01b8152600481018490525f907f00000000000000000000000000000000000000000000000000000000000000006001600160a01b03169063eb02c3019060240160a060405180830381865afa158015610da1573d5f803e3d5ffd5b505050506040513d601f19601f82011682018060405250810190610dc59190613464565b60408082015181515f6020820181905260ff909216928101929092526060820181905260808201529091506001600160a01b037f000000000000000000000000000000000000000000000000000000000000000016906381548319908690339060a00160408051601f1981840301815290829052610e47939291602001613507565b6040516020818303038152906040526040518263ffffffff1660e01b8152600401610e72919061311b565b5f604051808303815f875af1158015610e8d573d5f803e3d5ffd5b505050506040513d5f823e601f3d908101601f19168201604052610eb49190810190613583565b508051610ec1903361156c565b5050600180555050565b610ed3611f79565b610edc5f611fd2565b565b610ee6611f79565b815160405163095ea7b360e01b81526001600160a01b037f0000000000000000000000000000000000000000000000000000000000000000811660048301525f1960248301529091169063095ea7b3906044016020604051808303815f875af1158015610f55573d5f803e3d5ffd5b505050506040513d601f19601f82011682018060405250810190610f7991906138af565b50610f84828261202e565b5050565b600154600114610fab5760405163558a1e0360e11b815260040160405180910390fd5b60026001553415611027577f00000000000000000000000000000000000000000000000000000000000000006001600160a01b031663d0e30db0346040518263ffffffff1660e01b81526004015f604051808303818588803b15801561100f575f80fd5b505af1158015611021573d5f803e3d5ffd5b50505050505b61103285858361233f565b5f8033878761105661104560018a6138c8565b61104d612435565b60ff1690612444565b60408051602081019390935260ff909116908201525f60608201526080810187905260a00160408051601f198184030181529082905261109992916020016138e1565b60408051601f19818403018152908290526110b8939291602001613902565b60408051601f19818403018152908290527f8154831900000000000000000000000000000000000000000000000000000000825291505f906001600160a01b037f0000000000000000000000000000000000000000000000000000000000000000169063815483199061112f90859060040161311b565b5f604051808303815f875af115801561114a573d5f803e3d5ffd5b505050506040513d5f823e601f3d908101601f191682016040526111719190810190613583565b8060200190518101906111849190613659565b9050611190873361156c565b6040516323b872dd60e01b8152306004820152336024820152604481018290527f00000000000000000000000000000000000000000000000000000000000000006001600160a01b0316906323b872dd906064015f604051808303815f87803b1580156111fb575f80fd5b505af115801561120d573d5f803e3d5ffd5b505060018055505050505050505050565b611226611f79565b6001600160a01b0381166112a75760405162461bcd60e51b815260206004820152602660248201527f4f776e61626c653a206e6577206f776e657220697320746865207a65726f206160448201527f646472657373000000000000000000000000000000000000000000000000000060648201526084015b60405180910390fd5b6112b081611fd2565b50565b6040517fafdd9edc0000000000000000000000000000000000000000000000000000000081523360048201525f906001600160a01b037f0000000000000000000000000000000000000000000000000000000000000000169063afdd9edc90602401602060405180830381865afa158015611330573d5f803e3d5ffd5b505050506040513d601f19601f820116820180604052508101906113549190613435565b6001600160a01b03160361137b57604051633006171960e21b815260040160405180910390fd5b5f808080808061138d878901896139ae565b9550955095509550955095505f336001600160a01b031663217a4b706040518163ffffffff1660e01b8152600401602060405180830381865afa1580156113d6573d5f803e3d5ffd5b505050506040513d601f19601f820116820180604052508101906113fa9190613435565b90508c6001600160a01b0316816001600160a01b031603611453578a83101561143657604051630f271b5560e41b815260040160405180910390fd5b6114408b846134f4565b925061144c8b85613a3a565b9350611470565b8982111561146c576114658a836134f4565b9150611470565b5f91505b61147f878288888888886119e1565b8a15611499576114996001600160a01b038e16338d612456565b50505050505050505050505050565b6114bf6114ba36839003830183613a4d565b511590565b611567576001600160a01b038316637ac2ff7b308484356114e66040870160208801613ab7565b604080516001600160e01b031960e088901b1681526001600160a01b0390951660048601526024850193909352604484019190915260ff1660648301528401356084820152606084013560a482015260c4015b5f604051808303815f87803b158015611550575f80fd5b505af1158015611562573d5f803e3d5ffd5b505050505b505050565b6040516370a0823160e01b81523060048201525f906001600160a01b038416906370a0823190602401602060405180830381865afa1580156115b0573d5f803e3d5ffd5b505050506040513d601f19601f820116820180604052508101906115d49190613659565b9050805f036115e257505050565b5f836001600160a01b0316632495a5996040518163ffffffff1660e01b8152600401602060405180830381865afa15801561161f573d5f803e3d5ffd5b505050506040513d601f19601f820116820180604052508101906116439190613435565b90505f846001600160a01b031663fab5ae746040518163ffffffff1660e01b8152600401602060405180830381865afa158015611682573d5f803e3d5ffd5b505050506040513d601f19601f820116820180604052508101906116a69190613659565b905082811015611728576001600160a01b0385166305c77fa06116c983866134f4565b6040516001600160e01b031960e084901b16815260048101919091526001600160a01b03871660248201526044015f604051808303815f87803b15801561170e575f80fd5b505af1158015611720573d5f803e3d5ffd5b505050508092505b7f00000000000000000000000000000000000000000000000000000000000000006001600160a01b0316826001600160a01b0316036118d957604051633f34d4cf60e21b8152600481018490523060248201526001600160a01b0386169063fcd3533c906044015f604051808303815f87803b1580156117a6575f80fd5b505af11580156117b8573d5f803e3d5ffd5b50506040517f2e1a7d4d000000000000000000000000000000000000000000000000000000008152600481018690527f00000000000000000000000000000000000000000000000000000000000000006001600160a01b03169250632e1a7d4d91506024015f604051808303815f87803b158015611834575f80fd5b505af1158015611846573d5f803e3d5ffd5b505050505f846001600160a01b0316846040515f6040518083038185875af1925050503d805f8114611893576040519150601f19603f3d011682016040523d82523d5f602084013e611898565b606091505b50509050806118d3576040517fdd857fd000000000000000000000000000000000000000000000000000000000815260040160405180910390fd5b50611937565b604051633f34d4cf60e21b8152600481018490526001600160a01b03858116602483015286169063fcd3533c906044015f604051808303815f87803b158015611920575f80fd5b505af1158015611932573d5f803e3d5ffd5b505050505b5050505050565b7f00000000000000000000000000000000000000000000000000000000000000006001600160a01b031663100886cc307f000000000000000000000000000000000000000000000000000000000000000084611999866124e7565b6040518563ffffffff1660e01b81526004016119b89493929190613ad2565b5f604051808303815f87803b1580156119cf575f80fd5b505af1158015611937573d5f803e3d5ffd5b845115611c3a575f85600187516119f891906134f4565b81518110611a0857611a08613b0f565b60200260200101519050600186510386525f88875f67ffffffffffffffff811115611a3557611a35612ec9565b604051908082528060200260200182016040528015611a8857816020015b604080516080810182525f9181018281526060820183905281526020810191909152815260200190600190039081611a535790505b50878787604051602001611aa196959493929190613b23565b6040516020818303038152906040529050600187510187525f60025f611ac685612558565b81526020019081526020015f205f9054906101000a90046001600160a01b031690505f816001600160a01b031663c55dae636040518163ffffffff1660e01b8152600401602060405180830381865afa158015611b25573d5f803e3d5ffd5b505050506040513d601f19601f82011682018060405250810190611b499190613435565b6040516370a0823160e01b81523060048201526001600160a01b0391909116906370a0823190602401602060405180830381865afa158015611b8d573d5f803e3d5ffd5b505050506040513d601f19601f82011682018060405250810190611bb19190613659565b8460200151611bc091906134f4565b60405163168da99d60e31b81529091506001600160a01b0383169063b46d4ce890611c0490309061ffff9067ffffffffffffffff9087906001908b90600401613b75565b5f604051808303815f87803b158015611c1b575f80fd5b505af1158015611c2d573d5f803e3d5ffd5b5050505050505050611562565b835115611da5575f8460018651611c5191906134f4565b81518110611c6157611c61613b0f565b60200260200101519050600185510385525f885f67ffffffffffffffff811115611c8d57611c8d612ec9565b604051908082528060200260200182016040528015611ce057816020015b604080516080810182525f9181018281526060820183905281526020810191909152815260200190600190039081611cab5790505b5087878787604051602001611cfa96959493929190613b23565b6040516020818303038152906040529050600186510186525f60025f611d1f85612558565b815260208082019290925260409081015f9081205492860151915163168da99d60e31b81526001600160a01b039093169350839263b46d4ce892611d70923092909182916002908a90600401613b75565b5f604051808303815f87803b158015611d87575f80fd5b505af1158015611d99573d5f803e3d5ffd5b50505050505050611562565b8015611dc457604051630f271b5560e41b815260040160405180910390fd5b61156286888561256c565b8051156112b0575f815167ffffffffffffffff811115611df157611df1612ec9565b604051908082528060200260200182016040528015611e1a578160200160208202803683370190505b5090505f825167ffffffffffffffff811115611e3857611e38612ec9565b604051908082528060200260200182016040528015611e61578160200160208202803683370190505b5090505f5b8351811015611efc57611e91848281518110611e8457611e84613b0f565b6020026020010151612558565b838281518110611ea357611ea3613b0f565b602002602001018181525050838181518110611ec157611ec1613b0f565b602002602001015160200151828281518110611edf57611edf613b0f565b602090810291909101015280611ef481613bbf565b915050611e66565b507f00000000000000000000000000000000000000000000000000000000000000006001600160a01b031663a7eaa1867f0000000000000000000000000000000000000000000000000000000000000000848430611f59896124e7565b6040518663ffffffff1660e01b8152600401611539959493929190613c05565b5f546001600160a01b03163314610edc5760405162461bcd60e51b815260206004820181905260248201527f4f776e61626c653a2063616c6c6572206973206e6f7420746865206f776e6572604482015260640161129e565b5f80546001600160a01b0383811673ffffffffffffffffffffffffffffffffffffffff19831681178455604051919092169283917f8be0079c531659141344cd1fd0a4f28419497f9722a3daafe3b4186f6b6457e09190a35050565b612036611f79565b5f612040836127c9565b90505f612058846020810151905160a09190911b0190565b90505f7f00000000000000000000000000000000000000000000000000000000000000006001600160a01b03166308b2ea5e7f000000000000000000000000000000000000000000000000000000000000000084866040518463ffffffff1660e01b81526004016120cb93929190613c62565b602060405180830381865afa1580156120e6573d5f803e3d5ffd5b505050506040513d601f19601f8201168201806040525081019061210a9190613435565b6040517f0cf85bcc0000000000000000000000000000000000000000000000000000000081526001600160a01b0386811660048301529192505f917f00000000000000000000000000000000000000000000000000000000000000001690630cf85bcc9060240160a060405180830381865afa15801561218c573d5f803e3d5ffd5b505050506040513d601f19601f820116820180604052508101906121b09190613ca8565b80519091506001600160a01b03166121db57604051639db8d5b160e01b815260040160405180910390fd5b816001600160a01b0316856001600160a01b031663c55dae636040518163ffffffff1660e01b8152600401602060405180830381865afa158015612221573d5f803e3d5ffd5b505050506040513d601f19601f820116820180604052508101906122459190613435565b6001600160a01b03161461226c57604051639db8d5b160e01b815260040160405180910390fd5b855f01516001600160a01b0316856001600160a01b031663217a4b706040518163ffffffff1660e01b8152600401602060405180830381865afa1580156122b5573d5f803e3d5ffd5b505050506040513d601f19601f820116820180604052508101906122d99190613435565b6001600160a01b03161461230057604051639db8d5b160e01b815260040160405180910390fd5b50505f908152600260205260409020805473ffffffffffffffffffffffffffffffffffffffff19166001600160a01b0393909316929092179091555050565b6123516114ba36839003830183613a4d565b61156757826001600160a01b0316632495a5996040518163ffffffff1660e01b8152600401602060405180830381865afa158015612391573d5f803e3d5ffd5b505050506040513d601f19601f820116820180604052508101906123b59190613435565b6001600160a01b031663d505accf33308585356123d86040880160208901613ab7565b604080516001600160e01b031960e089901b1681526001600160a01b0396871660048201529590941660248601526044850192909252606484015260ff16608483015284013560a4820152606084013560c482015260e401611539565b5f61243f42612976565b905090565b5f61244f8284613d1f565b9392505050565b6040516001600160a01b0383166024820152604481018290526115679084907fa9059cbb00000000000000000000000000000000000000000000000000000000906064015b60408051601f198184030181529190526020810180517bffffffffffffffffffffffffffffffffffffffffffffffffffffffff166001600160e01b031990931692909217909152612a5f565b604080515f80825260208201909252905b8251811015612552578161252784838151811061251757612517613b0f565b60200260200101515f01516127c9565b604051602001612538929190613d38565b60408051601f1981840301815291905291506001016124f8565b50919050565b8051602081015190515f9160a01b01610370565b5f836001600160a01b0316632495a5996040518163ffffffff1660e01b8152600401602060405180830381865afa1580156125a9573d5f803e3d5ffd5b505050506040513d601f19601f820116820180604052508101906125cd9190613435565b6040516370a0823160e01b81523060048201529091505f906001600160a01b038616906370a0823190602401602060405180830381865afa158015612614573d5f803e3d5ffd5b505050506040513d601f19601f820116820180604052508101906126389190613659565b6040516370a0823160e01b81523060048201529091505f906001600160a01b038416906370a0823190602401602060405180830381865afa15801561267f573d5f803e3d5ffd5b505050506040513d601f19601f820116820180604052508101906126a39190613659565b90506126af8183613a3a565b8411156126d5576126d06001600160a01b0384168630858803859003612b45565b508083035b80156127c15760405163095ea7b360e01b81526001600160a01b0387811660048301526024820183905284169063095ea7b3906044016020604051808303815f875af1158015612727573d5f803e3d5ffd5b505050506040513d601f19601f8201168201806040525081019061274b91906138af565b506040517f94bf804d000000000000000000000000000000000000000000000000000000008152600481018290523060248201526001600160a01b038716906394bf804d906044015f604051808303815f87803b1580156127aa575f80fd5b505af11580156127bc573d5f803e3d5ffd5b505050505b505050505050565b60605f825f01516001600160a01b03166395d89b416040518163ffffffff1660e01b81526004015f60405180830381865afa15801561280a573d5f803e3d5ffd5b505050506040513d5f823e601f3d908101601f191682016040526128319190810190613d66565b90505f612844846020015160ff16612b83565b90505f828260405160200161285a929190613dab565b60405160208183030381529060405261287290613e2c565b90505f8383604051602001612888929190613e4f565b6040516020818303038152906040526128a090613e2c565b9050825184510160020280601e01830192508060060182019150505f865f01516001600160a01b031663313ce5676040518163ffffffff1660e01b8152600401602060405180830381865afa1580156128fb573d5f803e3d5ffd5b505050506040513d601f19601f8201168201806040525081019061291f9190613ea6565b6040805160208101959095528481019390935260f81b7fff00000000000000000000000000000000000000000000000000000000000000166060840152508051808303604101815260619092019052949350505050565b5f806201518083049050806226496581015f62023ab1600483020590506004600362023ab183020105909103905f62164b09610fa0600185010205905060046105b58202058303601f0192505f61098f84605002816129d7576129d7613ec1565b059050600b8105935083600c0281600201039050838260318503606402010191505f60066001836107b28603600c02010381612a1557612a15613ec1565b04905060ff811115612a53576040517f73cde75100000000000000000000000000000000000000000000000000000000815260040160405180910390fd5b98975050505050505050565b5f612ab3826040518060400160405280602081526020017f5361666545524332303a206c6f772d6c6576656c2063616c6c206661696c6564815250856001600160a01b0316612c209092919063ffffffff16565b905080515f1480612ad3575080806020019051810190612ad391906138af565b6115675760405162461bcd60e51b815260206004820152602a60248201527f5361666545524332303a204552433230206f7065726174696f6e20646964206e60448201527f6f74207375636365656400000000000000000000000000000000000000000000606482015260840161129e565b6040516001600160a01b0380851660248301528316604482015260648101829052612b7d9085906323b872dd60e01b9060840161249b565b50505050565b60605f612b8f83612c36565b60010190505f8167ffffffffffffffff811115612bae57612bae612ec9565b6040519080825280601f01601f191660200182016040528015612bd8576020820181803683370190505b5090508181016020015b5f19017f3031323334353637383961626364656600000000000000000000000000000000600a86061a8153600a8504945084612be257509392505050565b6060612c2e84845f85612d17565b949350505050565b5f807a184f03e93ff9f4daa797ed6e38ed64bf6a1f0100000000000000008310612c7e577a184f03e93ff9f4daa797ed6e38ed64bf6a1f010000000000000000830492506040015b6d04ee2d6d415b85acef81000000008310612caa576d04ee2d6d415b85acef8100000000830492506020015b662386f26fc100008310612cc857662386f26fc10000830492506010015b6305f5e1008310612ce0576305f5e100830492506008015b6127108310612cf457612710830492506004015b60648310612d06576064830492506002015b600a83106103705760010192915050565b606082471015612d8f5760405162461bcd60e51b815260206004820152602660248201527f416464726573733a20696e73756666696369656e742062616c616e636520666f60448201527f722063616c6c0000000000000000000000000000000000000000000000000000606482015260840161129e565b5f80866001600160a01b03168587604051612daa9190613ed5565b5f6040518083038185875af1925050503d805f8114612de4576040519150601f19603f3d011682016040523d82523d5f602084013e612de9565b606091505b5091509150612dfa87838387612e05565b979650505050505050565b60608315612e735782515f03612e6c576001600160a01b0385163b612e6c5760405162461bcd60e51b815260206004820152601d60248201527f416464726573733a2063616c6c20746f206e6f6e2d636f6e7472616374000000604482015260640161129e565b5081612c2e565b612c2e8383815115612e885781518083602001fd5b8060405162461bcd60e51b815260040161129e919061311b565b5f60208284031215612eb2575f80fd5b81356001600160e01b03198116811461244f575f80fd5b634e487b7160e01b5f52604160045260245ffd5b6040805190810167ffffffffffffffff81118282101715612f0057612f00612ec9565b60405290565b60405160a0810167ffffffffffffffff81118282101715612f0057612f00612ec9565b604051601f8201601f1916810167ffffffffffffffff81118282101715612f5257612f52612ec9565b604052919050565b6001600160a01b03811681146112b0575f80fd5b60ff811681146112b0575f80fd5b5f60408284031215612f8c575f80fd5b612f94612edd565b90508135612fa181612f5a565b81526020820135612fb181612f6e565b602082015292915050565b5f60408284031215612fcc575f80fd5b61244f8383612f7c565b5f60808284031215612552575f80fd5b5f805f8060e08587031215612ff9575f80fd5b8435935060208501359250604085013591506130188660608701612fd6565b905092959194509250565b5f67ffffffffffffffff82111561303c5761303c612ec9565b50601f01601f191660200190565b5f82601f830112613059575f80fd5b813561306c61306782613023565b612f29565b818152846020838601011115613080575f80fd5b816020850160208301375f918101602001919091529392505050565b5f602082840312156130ac575f80fd5b813567ffffffffffffffff8111156130c2575f80fd5b612c2e8482850161304a565b5f5b838110156130e85781810151838201526020016130d0565b50505f910152565b5f81518084526131078160208601602086016130ce565b601f01601f19169290920160200192915050565b602081525f61244f60208301846130f0565b5f8060a0838503121561313e575f80fd5b8235915061314f8460208501612fd6565b90509250929050565b5f8060608385031215613169575f80fd5b6131738484612f7c565b9150604083013561318381612f5a565b809150509250929050565b5f805f805f61010086880312156131a3575f80fd5b85356131ae81612f5a565b94506020860135935060408601356131c581612f6e565b9250606086013591506131db8760808801612fd6565b90509295509295909350565b5f67ffffffffffffffff82111561320057613200612ec9565b5060051b60200190565b5f82601f830112613219575f80fd5b81356020613229613067836131e7565b82815260059290921b84018101918181019086841115613247575f80fd5b8286015b84811015613262578035835291830191830161324b565b509695505050505050565b5f805f805f60a08688031215613281575f80fd5b853561328c81612f5a565b9450602086013561329c81612f5a565b9350604086013567ffffffffffffffff808211156132b8575f80fd5b6132c489838a0161320a565b945060608801359150808211156132d9575f80fd5b6132e589838a0161320a565b935060808801359150808211156132fa575f80fd5b506133078882890161304a565b9150509295509295909350565b5f805f805f60a08688031215613328575f80fd5b853561333381612f5a565b9450602086013561334381612f5a565b93506040860135925060608601359150608086013567ffffffffffffffff81111561336c575f80fd5b6133078882890161304a565b5f60208284031215613388575f80fd5b813561244f81612f5a565b5f805f805f8060a087890312156133a8575f80fd5b86356133b381612f5a565b955060208701356133c381612f5a565b94506040870135935060608701359250608087013567ffffffffffffffff808211156133ed575f80fd5b818901915089601f830112613400575f80fd5b81358181111561340e575f80fd5b8a602082850101111561341f575f80fd5b6020830194508093505050509295509295509295565b5f60208284031215613445575f80fd5b815161244f81612f5a565b8051801515811461345f575f80fd5b919050565b5f60a08284031215613474575f80fd5b61347c612f06565b825161348781612f5a565b8152602083015167ffffffffffffffff811681146134a3575f80fd5b602082015260408301516134b681612f6e565b60408201526134c760608401613450565b6060820152608083015160808201528091505092915050565b634e487b7160e01b5f52601160045260245ffd5b81810381811115610370576103706134e0565b8381526001600160a01b0383166020820152606060408201525f61352e60608301846130f0565b95945050505050565b5f61354461306784613023565b9050828152838383011115613557575f80fd5b61244f8360208301846130ce565b5f82601f830112613574575f80fd5b61244f83835160208501613537565b5f60208284031215613593575f80fd5b815167ffffffffffffffff8111156135a9575f80fd5b612c2e84828501613565565b5f805f606084860312156135c7575f80fd5b8351925060208401516135d981612f5a565b604085015190925067ffffffffffffffff8111156135f5575f80fd5b61360186828701613565565b9150509250925092565b5f806040838503121561361c575f80fd5b825161362781612f5a565b602084015190925067ffffffffffffffff811115613643575f80fd5b61364f85828601613565565b9150509250929050565b5f60208284031215613669575f80fd5b5051919050565b5f805f8060808587031215613683575f80fd5b84519350602085015161369581612f6e565b6040860151606090960151949790965092505050565b5f82601f8301126136ba575f80fd5b815160206136ca613067836131e7565b828152606092830285018201928282019190878511156136e8575f80fd5b8387015b8581101561375b5780890382811215613704575f8081fd5b61370c612edd565b60408083121561371b575f8081fd5b613723612edd565b9250835161373081612f5a565b83528388015161373f81612f6e565b83890152918152908201518187015284529284019281016136ec565b5090979650505050505050565b5f805f6060848603121561377a575f80fd5b835167ffffffffffffffff80821115613791575f80fd5b61379d878388016136ab565b945060208601519150808211156137b2575f80fd5b506137bf868287016136ab565b925050604084015190509250925092565b5f7f80000000000000000000000000000000000000000000000000000000000000008203613800576138006134e0565b505f0390565b5f8151808452602080850194508084015f5b83811015613855578151805180516001600160a01b0316895284015160ff1684890152830151604088015260609096019590820190600101613818565b509495945050505050565b606081525f6138726060830186613806565b6001600160a01b0385166020840152828103604084015261389381856130f0565b9695505050505050565b602081525f61244f6020830184613806565b5f602082840312156138bf575f80fd5b61244f82613450565b60ff8281168282160390811115610370576103706134e0565b6001600160a01b0383168152604060208201525f612c2e60408301846130f0565b60ff841681526001600160a01b0383166020820152606060408201525f61352e60608301846130f0565b5f82601f83011261393b575f80fd5b8135602061394b613067836131e7565b82815260609283028501820192828201919087851115613969575f80fd5b8387015b8581101561375b5781818a031215613984575f8081fd5b61398c612edd565b6139968a83612f7c565b8152604082013586820152845292840192810161396d565b5f805f805f8060c087890312156139c3575f80fd5b86356139ce81612f5a565b9550602087013567ffffffffffffffff808211156139ea575f80fd5b6139f68a838b0161392c565b96506040890135915080821115613a0b575f80fd5b50613a1889828a0161392c565b945050606087013592506080870135915060a087013590509295509295509295565b80820180821115610370576103706134e0565b5f60808284031215613a5d575f80fd5b6040516080810181811067ffffffffffffffff82111715613a8057613a80612ec9565b604052823581526020830135613a9581612f6e565b6020820152604083810135908201526060928301359281019290925250919050565b5f60208284031215613ac7575f80fd5b813561244f81612f6e565b5f6001600160a01b03808716835280861660208401525060806040830152613afd6080830185613806565b8281036060840152612dfa81856130f0565b634e487b7160e01b5f52603260045260245ffd5b6001600160a01b038716815260c060208201525f613b4460c0830188613806565b8281036040840152613b568188613806565b60608401969096525050608081019290925260a0909101529392505050565b6001600160a01b038716815261ffff8616602082015267ffffffffffffffff8516604082015283606082015260ff8316608082015260c060a08201525f612a5360c08301846130f0565b5f60018201613bd057613bd06134e0565b5060010190565b5f8151808452602080850194508084015f5b8381101561385557815187529582019590820190600101613be9565b5f6001600160a01b03808816835260a06020840152613c2760a0840188613bd7565b8381036040850152613c398188613bd7565b905081861660608501528381036080850152613c5581866130f0565b9998505050505050505050565b6001600160a01b0384168152826020820152606060408201525f61352e60608301846130f0565b80516fffffffffffffffffffffffffffffffff8116811461345f575f80fd5b5f60a08284031215613cb8575f80fd5b613cc0612f06565b8251613ccb81612f5a565b8152602083015160038110613cde575f80fd5b6020820152613cef60408401613c89565b6040820152613d0060608401613c89565b60608201526080830151613d1381612f5a565b60808201529392505050565b60ff8181168382160190811115610370576103706134e0565b5f8351613d498184602088016130ce565b835190830190613d5d8183602088016130ce565b01949350505050565b5f60208284031215613d76575f80fd5b815167ffffffffffffffff811115613d8c575f80fd5b8201601f81018413613d9c575f80fd5b612c2e84825160208401613537565b5f8351613dbc8184602088016130ce565b7f20426f6e6420436f75706f6e20280000000000000000000000000000000000009083019081528351613df681600e8401602088016130ce565b7f2900000000000000000000000000000000000000000000000000000000000000600e9290910191820152600f01949350505050565b80516020808301519190811015612552575f1960209190910360031b1b16919050565b5f8351613e608184602088016130ce565b7f2d435000000000000000000000000000000000000000000000000000000000009083019081528351613e9a8160038401602088016130ce565b01600301949350505050565b5f60208284031215613eb6575f80fd5b815161244f81612f6e565b634e487b7160e01b5f52601260045260245ffd5b5f8251613ee68184602087016130ce565b919091019291505056fea2646970667358221220ca674168523b40a3fceca43da1236efcbe9c51e0f810b90c1cdcc6f5809d0cdf64736f6c63430008140033",
  "devdoc": {
    "kind": "dev",
    "methods": {
      "owner()": {
        "details": "Returns the address of the current owner."
      },
      "renounceOwnership()": {
        "details": "Leaves the contract without owner. It will not be possible to call `onlyOwner` functions. Can only be called by the current owner. NOTE: Renouncing ownership will leave the contract without an owner, thereby disabling any functionality that is only available to the owner."
      },
      "supportsInterface(bytes4)": {
        "details": "See {IERC165-supportsInterface}."
      },
      "transferOwnership(address)": {
        "details": "Transfers ownership of the contract to a new account (`newOwner`). Can only be called by the current owner."
      }
    },
    "version": 1
  },
  "userdoc": {
    "kind": "user",
    "methods": {},
    "version": 1
  },
  "storageLayout": {
    "storage": [
      {
        "astId": 7,
        "contract": "contracts/DepositController.sol:DepositController",
        "label": "_owner",
        "offset": 0,
        "slot": "0",
        "type": "t_address"
      },
      {
        "astId": 21320,
        "contract": "contracts/DepositController.sol:DepositController",
        "label": "_locked",
        "offset": 0,
        "slot": "1",
        "type": "t_uint256"
      },
      {
        "astId": 18363,
        "contract": "contracts/DepositController.sol:DepositController",
        "label": "_couponMarkets",
        "offset": 0,
        "slot": "2",
        "type": "t_mapping(t_uint256,t_address)"
      }
    ],
    "types": {
      "t_address": {
        "encoding": "inplace",
        "label": "address",
        "numberOfBytes": "20"
      },
      "t_mapping(t_uint256,t_address)": {
        "encoding": "mapping",
        "key": "t_uint256",
        "label": "mapping(uint256 => address)",
        "numberOfBytes": "32",
        "value": "t_address"
      },
      "t_uint256": {
        "encoding": "inplace",
        "label": "uint256",
        "numberOfBytes": "32"
      }
    }
  }
}