{
  "address": "0x9ef962bC0EacCe2aCf85Bd2456Af65B63d0746Fb",
  "abi": [
    {
      "inputs": [
        {
          "internalType": "address",
          "name": "wrapped1155Factory",
          "type": "address"
        },
        {
          "internalType": "address",
          "name": "cloberMarketFactory",
          "type": "address"
        },
        {
          "internalType": "address",
          "name": "couponManager",
          "type": "address"
        },
        {
          "internalType": "address",
          "name": "weth",
          "type": "address"
        },
        {
          "internalType": "address",
          "name": "bondManager",
          "type": "address"
        }
      ],
      "stateMutability": "nonpayable",
      "type": "constructor"
    },
    {
      "inputs": [],
      "name": "ControllerSlippage",
      "type": "error"
    },
    {
      "inputs": [],
      "name": "EpochOverflow",
      "type": "error"
    },
    {
      "inputs": [],
      "name": "InvalidAccess",
      "type": "error"
    },
    {
      "inputs": [],
      "name": "InvalidMarket",
      "type": "error"
    },
    {
      "inputs": [],
      "name": "Reentrancy",
      "type": "error"
    },
    {
      "inputs": [],
      "name": "ValueTransferFailed",
      "type": "error"
    },
    {
      "anonymous": false,
      "inputs": [
        {
          "indexed": true,
          "internalType": "address",
          "name": "previousOwner",
          "type": "address"
        },
        {
          "indexed": true,
          "internalType": "address",
          "name": "newOwner",
          "type": "address"
        }
      ],
      "name": "OwnershipTransferred",
      "type": "event"
    },
    {
      "inputs": [
        {
          "internalType": "address",
          "name": "inputToken",
          "type": "address"
        },
        {
          "internalType": "address",
          "name": "",
          "type": "address"
        },
        {
          "internalType": "uint256",
          "name": "inputAmount",
          "type": "uint256"
        },
        {
          "internalType": "uint256",
          "name": "outputAmount",
          "type": "uint256"
        },
        {
          "internalType": "bytes",
          "name": "data",
          "type": "bytes"
        }
      ],
      "name": "cloberMarketSwapCallback",
      "outputs": [],
      "stateMutability": "payable",
      "type": "function"
    },
    {
      "inputs": [
        {
          "internalType": "uint256",
          "name": "positionId",
          "type": "uint256"
        },
        {
          "components": [
            {
              "internalType": "uint256",
              "name": "deadline",
              "type": "uint256"
            },
            {
              "internalType": "uint8",
              "name": "v",
              "type": "uint8"
            },
            {
              "internalType": "bytes32",
              "name": "r",
              "type": "bytes32"
            },
            {
              "internalType": "bytes32",
              "name": "s",
              "type": "bytes32"
            }
          ],
          "internalType": "struct PermitParams",
          "name": "positionPermitParams",
          "type": "tuple"
        }
      ],
      "name": "collect",
      "outputs": [],
      "stateMutability": "nonpayable",
      "type": "function"
    },
    {
      "inputs": [
        {
          "internalType": "address",
          "name": "asset",
          "type": "address"
        },
        {
          "internalType": "uint256",
          "name": "amount",
          "type": "uint256"
        },
        {
          "internalType": "uint8",
          "name": "lockEpochs",
          "type": "uint8"
        },
        {
          "internalType": "uint256",
          "name": "minEarnInterest",
          "type": "uint256"
        },
        {
          "components": [
            {
              "internalType": "uint256",
              "name": "deadline",
              "type": "uint256"
            },
            {
              "internalType": "uint8",
              "name": "v",
              "type": "uint8"
            },
            {
              "internalType": "bytes32",
              "name": "r",
              "type": "bytes32"
            },
            {
              "internalType": "bytes32",
              "name": "s",
              "type": "bytes32"
            }
          ],
          "internalType": "struct PermitParams",
          "name": "tokenPermitParams",
          "type": "tuple"
        }
      ],
      "name": "deposit",
      "outputs": [],
      "stateMutability": "payable",
      "type": "function"
    },
    {
      "inputs": [
        {
          "components": [
            {
              "internalType": "address",
              "name": "asset",
              "type": "address"
            },
            {
              "internalType": "Epoch",
              "name": "epoch",
              "type": "uint8"
            }
          ],
          "internalType": "struct CouponKey",
          "name": "couponKey",
          "type": "tuple"
        }
      ],
      "name": "getCouponMarket",
      "outputs": [
        {
          "internalType": "address",
          "name": "",
          "type": "address"
        }
      ],
      "stateMutability": "view",
      "type": "function"
    },
    {
      "inputs": [
        {
          "internalType": "address",
          "name": "",
          "type": "address"
        },
        {
          "internalType": "address",
          "name": "",
          "type": "address"
        },
        {
          "internalType": "uint256[]",
          "name": "",
          "type": "uint256[]"
        },
        {
          "internalType": "uint256[]",
          "name": "",
          "type": "uint256[]"
        },
        {
          "internalType": "bytes",
          "name": "",
          "type": "bytes"
        }
      ],
      "name": "onERC1155BatchReceived",
      "outputs": [
        {
          "internalType": "bytes4",
          "name": "",
          "type": "bytes4"
        }
      ],
      "stateMutability": "nonpayable",
      "type": "function"
    },
    {
      "inputs": [
        {
          "internalType": "address",
          "name": "",
          "type": "address"
        },
        {
          "internalType": "address",
          "name": "",
          "type": "address"
        },
        {
          "internalType": "uint256",
          "name": "",
          "type": "uint256"
        },
        {
          "internalType": "uint256",
          "name": "",
          "type": "uint256"
        },
        {
          "internalType": "bytes",
          "name": "",
          "type": "bytes"
        }
      ],
      "name": "onERC1155Received",
      "outputs": [
        {
          "internalType": "bytes4",
          "name": "",
          "type": "bytes4"
        }
      ],
      "stateMutability": "nonpayable",
      "type": "function"
    },
    {
      "inputs": [],
      "name": "owner",
      "outputs": [
        {
          "internalType": "address",
          "name": "",
          "type": "address"
        }
      ],
      "stateMutability": "view",
      "type": "function"
    },
    {
      "inputs": [
        {
          "internalType": "bytes",
          "name": "data",
          "type": "bytes"
        }
      ],
      "name": "positionLockAcquired",
      "outputs": [
        {
          "internalType": "bytes",
          "name": "result",
          "type": "bytes"
        }
      ],
      "stateMutability": "nonpayable",
      "type": "function"
    },
    {
      "inputs": [],
      "name": "renounceOwnership",
      "outputs": [],
      "stateMutability": "nonpayable",
      "type": "function"
    },
    {
      "inputs": [
        {
          "components": [
            {
              "internalType": "address",
              "name": "asset",
              "type": "address"
            },
            {
              "internalType": "Epoch",
              "name": "epoch",
              "type": "uint8"
            }
          ],
          "internalType": "struct CouponKey",
          "name": "couponKey",
          "type": "tuple"
        },
        {
          "internalType": "address",
          "name": "cloberMarket",
          "type": "address"
        }
      ],
      "name": "setCouponMarket",
      "outputs": [],
      "stateMutability": "nonpayable",
      "type": "function"
    },
    {
      "inputs": [
        {
          "internalType": "bytes4",
          "name": "interfaceId",
          "type": "bytes4"
        }
      ],
      "name": "supportsInterface",
      "outputs": [
        {
          "internalType": "bool",
          "name": "",
          "type": "bool"
        }
      ],
      "stateMutability": "view",
      "type": "function"
    },
    {
      "inputs": [
        {
          "internalType": "address",
          "name": "newOwner",
          "type": "address"
        }
      ],
      "name": "transferOwnership",
      "outputs": [],
      "stateMutability": "nonpayable",
      "type": "function"
    },
    {
      "inputs": [
        {
          "internalType": "uint256",
          "name": "positionId",
          "type": "uint256"
        },
        {
          "internalType": "uint256",
          "name": "withdrawAmount",
          "type": "uint256"
        },
        {
          "internalType": "uint256",
          "name": "maxPayInterest",
          "type": "uint256"
        },
        {
          "components": [
            {
              "internalType": "uint256",
              "name": "deadline",
              "type": "uint256"
            },
            {
              "internalType": "uint8",
              "name": "v",
              "type": "uint8"
            },
            {
              "internalType": "bytes32",
              "name": "r",
              "type": "bytes32"
            },
            {
              "internalType": "bytes32",
              "name": "s",
              "type": "bytes32"
            }
          ],
          "internalType": "struct PermitParams",
          "name": "positionPermitParams",
          "type": "tuple"
        }
      ],
      "name": "withdraw",
      "outputs": [],
      "stateMutability": "nonpayable",
      "type": "function"
    },
    {
      "stateMutability": "payable",
      "type": "receive"
    }
  ],
  "transactionHash": "0xd48fb36f301500c58072a79ab6eefdb3910a304b10d7b40b8261ef14758c1f81",
  "args": [
    "0xfcBE16BfD991E4949244E59d9b524e6964b8BB75",
    "0x24aC0938C010Fb520F1068e96d78E0458855111D",
    "0x56F3907C71A0dcF4e354F9f5093Da0bE9AA050A4",
    "0x82aF49447D8a07e3bd95BD0d56f35241523fBab1",
    "0xD90710a840441D7249dEF543c4BA2d24DC62BecC"
  ],
  "numDeployments": 1,
  "solcInputHash": "c4298eb6a2b23f63923e5d7505bf94bb",
  "bytecode": "0x610120604052600180553480156200001657600080fd5b5060405162004315380380620043158339810160408190526200003991620000e3565b84848484620000483362000076565b6001600160a01b0393841660805291831660a052821660c052811660e0521661010052506200015392505050565b600080546001600160a01b038381166001600160a01b0319831681178455604051919092169283917f8be0079c531659141344cd1fd0a4f28419497f9722a3daafe3b4186f6b6457e09190a35050565b80516001600160a01b0381168114620000de57600080fd5b919050565b600080600080600060a08688031215620000fc57600080fd5b6200010786620000c6565b94506200011760208701620000c6565b93506200012760408701620000c6565b92506200013760608701620000c6565b91506200014760808701620000c6565b90509295509295909350565b60805160a05160c05160e051610100516140c76200024e600039600081816103d40152818161046b015281816104aa015281816105210152818161063f015281816106f8015281816107a60152818161088c01528181610920015281816109fe01528181610ade01528181610b7d01528181610c1401528181610ccf01528181610d6601528181610da501528181610e4e01528181610f590152818161115f015261121c015260008181611016015281816117b501526118790152600081816119de01528181611ff2015261215501526000818161135b0152612213015260008181611a0e01528181611fc3015261212601526140c76000f3fe6080604052600436106100d65760003560e01c806376c14af01161007f578063bc197c8111610059578063bc197c811461024b578063f23a6e61146102a9578063f2fde38b146102ee578063fd235fda1461030e57600080fd5b806376c14af0146101fa5780638da5cb5b1461021a57806399656d461461023857600080fd5b806346a114e2116100b057806346a114e21461019857806355d36499146101c5578063715018a6146101e557600080fd5b806301ffc9a7146100e257806314b32486146101175780631dc8ef1d1461017657600080fd5b366100dd57005b600080fd5b3480156100ee57600080fd5b506101026100fd366004612fac565b610321565b60405190151581526020015b60405180910390f35b34801561012357600080fd5b5061015e6101323660046130cf565b602081810151915160a09290921b9091016000908152600290915260409020546001600160a01b031690565b6040516001600160a01b03909116815260200161010e565b34801561018257600080fd5b506101966101913660046130fd565b61038a565b005b3480156101a457600080fd5b506101b86101b33660046131bb565b610632565b60405161010e9190613240565b3480156101d157600080fd5b506101966101e0366004613253565b610c85565b3480156101f157600080fd5b50610196610f24565b34801561020657600080fd5b50610196610215366004613280565b610f38565b34801561022657600080fd5b506000546001600160a01b031661015e565b6101966102463660046132b8565b610fe6565b34801561025757600080fd5b5061029061026636600461339f565b7fbc197c810000000000000000000000000000000000000000000000000000000095945050505050565b6040516001600160e01b0319909116815260200161010e565b3480156102b557600080fd5b506102906102c436600461344d565b7ff23a6e610000000000000000000000000000000000000000000000000000000095945050505050565b3480156102fa57600080fd5b506101966103093660046134b6565b61128d565b61019661031c3660046134d3565b611322565b60006001600160e01b031982167f4e2312e000000000000000000000000000000000000000000000000000000000148061038457507f01ffc9a7000000000000000000000000000000000000000000000000000000006001600160e01b03198316145b92915050565b6001546001146103ad5760405163558a1e0360e11b815260040160405180910390fd5b60026001556040516331a9108f60e11b815260048101859052849033906001600160a01b037f00000000000000000000000000000000000000000000000000000000000000001690636352211e90602401602060405180830381865afa15801561041b573d6000803e3d6000fd5b505050506040513d601f19601f8201168201806040525081019061043f919061357d565b6001600160a01b03161461046657604051633006171960e21b815260040160405180910390fd5b6104917f0000000000000000000000000000000000000000000000000000000000000000868461151f565b60405163eb02c30160e01b8152600481018690526000907f00000000000000000000000000000000000000000000000000000000000000006001600160a01b03169063eb02c3019060240160a060405180830381865afa1580156104f9573d6000803e3d6000fd5b505050506040513d601f19601f8201168201806040525081019061051d91906135af565b90507f00000000000000000000000000000000000000000000000000000000000000006001600160a01b0316638154831987338885608001516105609190613644565b6040808701518151602081019390935260ff1690820152606081018990526000608082015260a00160408051601f19818403018152908290526105a7939291602001613657565b6040516020818303038152906040526040518263ffffffff1660e01b81526004016105d29190613240565b6000604051808303816000875af11580156105f1573d6000803e3d6000fd5b505050506040513d6000823e601f3d908101601f1916820160405261061991908101906136d8565b50805161062690336115e8565b50506001805550505050565b6060336001600160a01b037f0000000000000000000000000000000000000000000000000000000000000000161461067d57604051633006171960e21b815260040160405180910390fd5b60008083806020019051810190610694919061370d565b95509092509050600082900361078d576000848060200190518101906106ba9190613767565b6040517f6a6278420000000000000000000000000000000000000000000000000000000081526001600160a01b0380841660048301529197509192507f00000000000000000000000000000000000000000000000000000000000000001690636a627842906024016020604051808303816000875af1158015610741573d6000803e3d6000fd5b505050506040513d601f19601f8201168201806040525081019061076591906137b8565b92508260405160200161077a91815260200190565b6040516020818303038152906040529350505b60405163eb02c30160e01b8152600481018390526000907f00000000000000000000000000000000000000000000000000000000000000006001600160a01b03169063eb02c3019060240160a060405180830381865afa1580156107f5573d6000803e3d6000fd5b505050506040513d601f19601f8201168201806040525081019061081991906135af565b90506000808680602001905181019061083291906137d1565b60ff92909216604087810182905260808801859052517fe1869a43000000000000000000000000000000000000000000000000000000008152600481018a90526024810194909452604484015293509150600090819081907f00000000000000000000000000000000000000000000000000000000000000006001600160a01b03169063e1869a43906064016000604051808303816000875af11580156108dd573d6000803e3d6000fd5b505050506040513d6000823e601f3d908101601f1916820160405261090591908101906138d1565b92509250925060008112156109b95785516001600160a01b037f000000000000000000000000000000000000000000000000000000000000000016906301e3366790306109518561393e565b6040516001600160e01b031960e086901b1681526001600160a01b0393841660048201529290911660248301526044820152606401600060405180830381600087803b1580156109a057600080fd5b505af11580156109b4573d6000803e3d6000fd5b505050505b825115610a7157604080516000815260208101918290527f0f0b0765000000000000000000000000000000000000000000000000000000009091526001600160a01b037f00000000000000000000000000000000000000000000000000000000000000001690630f0b076590610a369086903090602481016139d2565b600060405180830381600087803b158015610a5057600080fd5b505af1158015610a64573d6000803e3d6000fd5b50505050610a71836119dc565b610a94878760000151848660008613610a8b576000610a8d565b855b8a8a611a84565b6000811315610b3d5785516040517f338b5dea0000000000000000000000000000000000000000000000000000000081526001600160a01b039182166004820152602481018390527f00000000000000000000000000000000000000000000000000000000000000009091169063338b5dea90604401600060405180830381600087803b158015610b2457600080fd5b505af1158015610b38573d6000803e3d6000fd5b505050505b815115610be557610b4d82611e90565b6040517f430c114b0000000000000000000000000000000000000000000000000000000081526001600160a01b037f0000000000000000000000000000000000000000000000000000000000000000169063430c114b90610bb2908590600401613a10565b600060405180830381600087803b158015610bcc57600080fd5b505af1158015610be0573d6000803e3d6000fd5b505050505b6040517faba5b4b3000000000000000000000000000000000000000000000000000000008152600481018990527f00000000000000000000000000000000000000000000000000000000000000006001600160a01b03169063aba5b4b390602401600060405180830381600087803b158015610c6057600080fd5b505af1158015610c74573d6000803e3d6000fd5b505050505050505050505050919050565b600154600114610ca85760405163558a1e0360e11b815260040160405180910390fd5b60026001556040516331a9108f60e11b815260048101839052829033906001600160a01b037f00000000000000000000000000000000000000000000000000000000000000001690636352211e90602401602060405180830381865afa158015610d16573d6000803e3d6000fd5b505050506040513d601f19601f82011682018060405250810190610d3a919061357d565b6001600160a01b031614610d6157604051633006171960e21b815260040160405180910390fd5b610d8c7f0000000000000000000000000000000000000000000000000000000000000000848461151f565b60405163eb02c30160e01b8152600481018490526000907f00000000000000000000000000000000000000000000000000000000000000006001600160a01b03169063eb02c3019060240160a060405180830381865afa158015610df4573d6000803e3d6000fd5b505050506040513d601f19601f82011682018060405250810190610e1891906135af565b604080820151815160006020820181905260ff909216928101929092526060820181905260808201529091506001600160a01b037f000000000000000000000000000000000000000000000000000000000000000016906381548319908690339060a00160408051601f1981840301815290829052610e9b939291602001613657565b6040516020818303038152906040526040518263ffffffff1660e01b8152600401610ec69190613240565b6000604051808303816000875af1158015610ee5573d6000803e3d6000fd5b505050506040513d6000823e601f3d908101601f19168201604052610f0d91908101906136d8565b508051610f1a90336115e8565b5050600180555050565b610f2c61203d565b610f366000612097565b565b610f4061203d565b815160405163095ea7b360e01b81526001600160a01b037f00000000000000000000000000000000000000000000000000000000000000008116600483015260001960248301529091169063095ea7b3906044016020604051808303816000875af1158015610fb3573d6000803e3d6000fd5b505050506040513d601f19601f82011682018060405250810190610fd79190613a23565b50610fe282826120f4565b5050565b6001546001146110095760405163558a1e0360e11b815260040160405180910390fd5b60026001553415611089577f00000000000000000000000000000000000000000000000000000000000000006001600160a01b031663d0e30db0346040518263ffffffff1660e01b81526004016000604051808303818588803b15801561106f57600080fd5b505af1158015611083573d6000803e3d6000fd5b50505050505b611094858583612413565b6000803387876110b96110a860018a613a3e565b6110b061250b565b60ff169061251b565b60408051602081019390935260ff90911690820152600060608201526080810187905260a00160408051601f19818403018152908290526110fd9291602001613a57565b60408051601f198184030181529082905261111c939291602001613a79565b60408051601f19818403018152908290527f8154831900000000000000000000000000000000000000000000000000000000825291506000906001600160a01b037f00000000000000000000000000000000000000000000000000000000000000001690638154831990611194908590600401613240565b6000604051808303816000875af11580156111b3573d6000803e3d6000fd5b505050506040513d6000823e601f3d908101601f191682016040526111db91908101906136d8565b8060200190518101906111ee91906137b8565b90506111fa87336115e8565b6040516323b872dd60e01b8152306004820152336024820152604481018290527f00000000000000000000000000000000000000000000000000000000000000006001600160a01b0316906323b872dd90606401600060405180830381600087803b15801561126857600080fd5b505af115801561127c573d6000803e3d6000fd5b505060018055505050505050505050565b61129561203d565b6001600160a01b0381166113165760405162461bcd60e51b815260206004820152602660248201527f4f776e61626c653a206e6577206f776e657220697320746865207a65726f206160448201527f646472657373000000000000000000000000000000000000000000000000000060648201526084015b60405180910390fd5b61131f81612097565b50565b6040517fafdd9edc0000000000000000000000000000000000000000000000000000000081523360048201526000906001600160a01b037f0000000000000000000000000000000000000000000000000000000000000000169063afdd9edc90602401602060405180830381865afa1580156113a2573d6000803e3d6000fd5b505050506040513d601f19601f820116820180604052508101906113c6919061357d565b6001600160a01b0316036113ed57604051633006171960e21b815260040160405180910390fd5b6000808080808061140087890189613b2a565b9550955095509550955095506000336001600160a01b031663217a4b706040518163ffffffff1660e01b8152600401602060405180830381865afa15801561144c573d6000803e3d6000fd5b505050506040513d601f19601f82011682018060405250810190611470919061357d565b90508c6001600160a01b0316816001600160a01b0316036114c9578a8310156114ac57604051630f271b5560e41b815260040160405180910390fd5b6114b68b84613644565b92506114c28b85613bbc565b93506114e7565b898211156114e2576114db8a83613644565b91506114e7565b600091505b6114f687828888888888611a84565b8a15611510576115106001600160a01b038e16338d61252e565b50505050505050505050505050565b61153661153136839003830183613bcf565b511590565b6115e3576001600160a01b038316637ac2ff7b3084843561155d6040870160208801613c3b565b604080516001600160e01b031960e088901b1681526001600160a01b0390951660048601526024850193909352604484019190915260ff1660648301528401356084820152606084013560a482015260c4015b600060405180830381600087803b1580156115ca57600080fd5b505af11580156115de573d6000803e3d6000fd5b505050505b505050565b6040516370a0823160e01b81523060048201526000906001600160a01b038416906370a0823190602401602060405180830381865afa15801561162f573d6000803e3d6000fd5b505050506040513d601f19601f8201168201806040525081019061165391906137b8565b90508060000361166257505050565b6000836001600160a01b0316632495a5996040518163ffffffff1660e01b8152600401602060405180830381865afa1580156116a2573d6000803e3d6000fd5b505050506040513d601f19601f820116820180604052508101906116c6919061357d565b90506000846001600160a01b031663fab5ae746040518163ffffffff1660e01b8152600401602060405180830381865afa158015611708573d6000803e3d6000fd5b505050506040513d601f19601f8201168201806040525081019061172c91906137b8565b9050828110156117b3576001600160a01b0385166305c77fa061174f8386613644565b6040516001600160e01b031960e084901b16815260048101919091526001600160a01b0387166024820152604401600060405180830381600087803b15801561179757600080fd5b505af11580156117ab573d6000803e3d6000fd5b505050508092505b7f00000000000000000000000000000000000000000000000000000000000000006001600160a01b0316826001600160a01b03160361197257604051633f34d4cf60e21b8152600481018490523060248201526001600160a01b0386169063fcd3533c90604401600060405180830381600087803b15801561183457600080fd5b505af1158015611848573d6000803e3d6000fd5b50506040517f2e1a7d4d000000000000000000000000000000000000000000000000000000008152600481018690527f00000000000000000000000000000000000000000000000000000000000000006001600160a01b03169250632e1a7d4d9150602401600060405180830381600087803b1580156118c757600080fd5b505af11580156118db573d6000803e3d6000fd5b505050506000846001600160a01b03168460405160006040518083038185875af1925050503d806000811461192c576040519150601f19603f3d011682016040523d82523d6000602084013e611931565b606091505b505090508061196c576040517fdd857fd000000000000000000000000000000000000000000000000000000000815260040160405180910390fd5b506119d5565b604051633f34d4cf60e21b8152600481018490526001600160a01b03858116602483015286169063fcd3533c90604401600060405180830381600087803b1580156119bc57600080fd5b505af11580156119d0573d6000803e3d6000fd5b505050505b5050505050565b7f00000000000000000000000000000000000000000000000000000000000000006001600160a01b031663100886cc307f000000000000000000000000000000000000000000000000000000000000000084611a37866125bf565b6040518563ffffffff1660e01b8152600401611a569493929190613c58565b600060405180830381600087803b158015611a7057600080fd5b505af11580156119d5573d6000803e3d6000fd5b845115611cef5760008560018751611a9c9190613644565b81518110611aac57611aac613c96565b602002602001015190506001865103865260008887600067ffffffffffffffff811115611adb57611adb612fd6565b604051908082528060200260200182016040528015611b2f57816020015b6040805160808101825260009181018281526060820183905281526020810191909152815260200190600190039081611af95790505b50878787604051602001611b4896959493929190613cac565b604051602081830303815290604052905060018751018752600060026000611b6f85612632565b815260200190815260200160002060009054906101000a90046001600160a01b031690506000816001600160a01b031663c55dae636040518163ffffffff1660e01b8152600401602060405180830381865afa158015611bd3573d6000803e3d6000fd5b505050506040513d601f19601f82011682018060405250810190611bf7919061357d565b6040516370a0823160e01b81523060048201526001600160a01b0391909116906370a0823190602401602060405180830381865afa158015611c3d573d6000803e3d6000fd5b505050506040513d601f19601f82011682018060405250810190611c6191906137b8565b8460200151611c709190613644565b60405163168da99d60e31b81529091506001600160a01b0383169063b46d4ce890611cb490309061ffff9067ffffffffffffffff9087906001908b90600401613cff565b600060405180830381600087803b158015611cce57600080fd5b505af1158015611ce2573d6000803e3d6000fd5b50505050505050506115de565b835115611e665760008460018651611d079190613644565b81518110611d1757611d17613c96565b6020026020010151905060018551038552600088600067ffffffffffffffff811115611d4557611d45612fd6565b604051908082528060200260200182016040528015611d9957816020015b6040805160808101825260009181018281526060820183905281526020810191909152815260200190600190039081611d635790505b5087878787604051602001611db396959493929190613cac565b604051602081830303815290604052905060018651018652600060026000611dda85612632565b8152602080820192909252604090810160009081205492860151915163168da99d60e31b81526001600160a01b039093169350839263b46d4ce892611e2c923092909182916002908a90600401613cff565b600060405180830381600087803b158015611e4657600080fd5b505af1158015611e5a573d6000803e3d6000fd5b505050505050506115de565b8015611e8557604051630f271b5560e41b815260040160405180910390fd5b6115de868885612647565b80511561131f576000815167ffffffffffffffff811115611eb357611eb3612fd6565b604051908082528060200260200182016040528015611edc578160200160208202803683370190505b5090506000825167ffffffffffffffff811115611efb57611efb612fd6565b604051908082528060200260200182016040528015611f24578160200160208202803683370190505b50905060005b8351811015611fc057611f55848281518110611f4857611f48613c96565b6020026020010151612632565b838281518110611f6757611f67613c96565b602002602001018181525050838181518110611f8557611f85613c96565b602002602001015160200151828281518110611fa357611fa3613c96565b602090810291909101015280611fb881613d4a565b915050611f2a565b507f00000000000000000000000000000000000000000000000000000000000000006001600160a01b031663a7eaa1867f000000000000000000000000000000000000000000000000000000000000000084843061201d896125bf565b6040518663ffffffff1660e01b81526004016115b0959493929190613d93565b6000546001600160a01b03163314610f365760405162461bcd60e51b815260206004820181905260248201527f4f776e61626c653a2063616c6c6572206973206e6f7420746865206f776e6572604482015260640161130d565b600080546001600160a01b0383811673ffffffffffffffffffffffffffffffffffffffff19831681178455604051919092169283917f8be0079c531659141344cd1fd0a4f28419497f9722a3daafe3b4186f6b6457e09190a35050565b6120fc61203d565b6000612107836128b5565b90506000612120846020810151905160a09190911b0190565b905060007f00000000000000000000000000000000000000000000000000000000000000006001600160a01b03166308b2ea5e7f000000000000000000000000000000000000000000000000000000000000000084866040518463ffffffff1660e01b815260040161219493929190613df1565b602060405180830381865afa1580156121b1573d6000803e3d6000fd5b505050506040513d601f19601f820116820180604052508101906121d5919061357d565b6040517f0cf85bcc0000000000000000000000000000000000000000000000000000000081526001600160a01b0386811660048301529192506000917f00000000000000000000000000000000000000000000000000000000000000001690630cf85bcc9060240160a060405180830381865afa15801561225a573d6000803e3d6000fd5b505050506040513d601f19601f8201168201806040525081019061227e9190613e39565b80519091506001600160a01b03166122a957604051639db8d5b160e01b815260040160405180910390fd5b816001600160a01b0316856001600160a01b031663c55dae636040518163ffffffff1660e01b8152600401602060405180830381865afa1580156122f1573d6000803e3d6000fd5b505050506040513d601f19601f82011682018060405250810190612315919061357d565b6001600160a01b03161461233c57604051639db8d5b160e01b815260040160405180910390fd5b85600001516001600160a01b0316856001600160a01b031663217a4b706040518163ffffffff1660e01b8152600401602060405180830381865afa158015612388573d6000803e3d6000fd5b505050506040513d601f19601f820116820180604052508101906123ac919061357d565b6001600160a01b0316146123d357604051639db8d5b160e01b815260040160405180910390fd5b50506000908152600260205260409020805473ffffffffffffffffffffffffffffffffffffffff19166001600160a01b0393909316929092179091555050565b61242561153136839003830183613bcf565b6115e357826001600160a01b0316632495a5996040518163ffffffff1660e01b8152600401602060405180830381865afa158015612467573d6000803e3d6000fd5b505050506040513d601f19601f8201168201806040525081019061248b919061357d565b6001600160a01b031663d505accf33308585356124ae6040880160208901613c3b565b604080516001600160e01b031960e089901b1681526001600160a01b0396871660048201529590941660248601526044850192909252606484015260ff16608483015284013560a4820152606084013560c482015260e4016115b0565b600061251642612a6f565b905090565b60006125278284613eb3565b9392505050565b6040516001600160a01b0383166024820152604481018290526115e39084907fa9059cbb00000000000000000000000000000000000000000000000000000000906064015b60408051601f198184030181529190526020810180517bffffffffffffffffffffffffffffffffffffffffffffffffffffffff166001600160e01b031990931692909217909152612b5d565b60408051600080825260208201909252905b825181101561262c57816126018483815181106125f0576125f0613c96565b6020026020010151600001516128b5565b604051602001612612929190613ecc565b60408051601f1981840301815291905291506001016125d1565b50919050565b80516020810151905160009160a01b01610384565b6000836001600160a01b0316632495a5996040518163ffffffff1660e01b8152600401602060405180830381865afa158015612687573d6000803e3d6000fd5b505050506040513d601f19601f820116820180604052508101906126ab919061357d565b6040516370a0823160e01b81523060048201529091506000906001600160a01b038616906370a0823190602401602060405180830381865afa1580156126f5573d6000803e3d6000fd5b505050506040513d601f19601f8201168201806040525081019061271991906137b8565b6040516370a0823160e01b81523060048201529091506000906001600160a01b038416906370a0823190602401602060405180830381865afa158015612763573d6000803e3d6000fd5b505050506040513d601f19601f8201168201806040525081019061278791906137b8565b90506127938183613bbc565b8411156127b9576127b46001600160a01b0384168630858803859003612c45565b508083035b80156128ad5760405163095ea7b360e01b81526001600160a01b0387811660048301526024820183905284169063095ea7b3906044016020604051808303816000875af115801561280e573d6000803e3d6000fd5b505050506040513d601f19601f820116820180604052508101906128329190613a23565b506040517f94bf804d000000000000000000000000000000000000000000000000000000008152600481018290523060248201526001600160a01b038716906394bf804d90604401600060405180830381600087803b15801561289457600080fd5b505af11580156128a8573d6000803e3d6000fd5b505050505b505050505050565b6060600082600001516001600160a01b03166395d89b416040518163ffffffff1660e01b8152600401600060405180830381865afa1580156128fb573d6000803e3d6000fd5b505050506040513d6000823e601f3d908101601f191682016040526129239190810190613efb565b90506000612937846020015160ff16612c83565b90506000828260405160200161294e929190613f44565b60405160208183030381529060405261296690613fc6565b90506000838360405160200161297d929190613fea565b60405160208183030381529060405261299590613fc6565b9050825184510160020280601e0183019250806006018201915050600086600001516001600160a01b031663313ce5676040518163ffffffff1660e01b8152600401602060405180830381865afa1580156129f4573d6000803e3d6000fd5b505050506040513d601f19601f82011682018060405250810190612a189190614042565b6040805160208101959095528481019390935260f81b7fff00000000000000000000000000000000000000000000000000000000000000166060840152508051808303604101815260619092019052949350505050565b600080620151808304905080622649658101600062023ab1600483020590506004600362023ab18302010590910390600062164b09610fa0600185010205905060046105b58202058303601f019250600061098f8460500281612ad457612ad461405f565b059050600b8105935083600c028160020103905083826031850360640201019150600060066001836107b28603600c02010381612b1357612b1361405f565b04905060ff811115612b51576040517f73cde75100000000000000000000000000000000000000000000000000000000815260040160405180910390fd5b98975050505050505050565b6000612bb2826040518060400160405280602081526020017f5361666545524332303a206c6f772d6c6576656c2063616c6c206661696c6564815250856001600160a01b0316612d239092919063ffffffff16565b9050805160001480612bd3575080806020019051810190612bd39190613a23565b6115e35760405162461bcd60e51b815260206004820152602a60248201527f5361666545524332303a204552433230206f7065726174696f6e20646964206e60448201527f6f74207375636365656400000000000000000000000000000000000000000000606482015260840161130d565b6040516001600160a01b0380851660248301528316604482015260648101829052612c7d9085906323b872dd60e01b90608401612573565b50505050565b60606000612c9083612d3a565b600101905060008167ffffffffffffffff811115612cb057612cb0612fd6565b6040519080825280601f01601f191660200182016040528015612cda576020820181803683370190505b5090508181016020015b600019017f3031323334353637383961626364656600000000000000000000000000000000600a86061a8153600a8504945084612ce457509392505050565b6060612d328484600085612e1c565b949350505050565b6000807a184f03e93ff9f4daa797ed6e38ed64bf6a1f0100000000000000008310612d83577a184f03e93ff9f4daa797ed6e38ed64bf6a1f010000000000000000830492506040015b6d04ee2d6d415b85acef81000000008310612daf576d04ee2d6d415b85acef8100000000830492506020015b662386f26fc100008310612dcd57662386f26fc10000830492506010015b6305f5e1008310612de5576305f5e100830492506008015b6127108310612df957612710830492506004015b60648310612e0b576064830492506002015b600a83106103845760010192915050565b606082471015612e945760405162461bcd60e51b815260206004820152602660248201527f416464726573733a20696e73756666696369656e742062616c616e636520666f60448201527f722063616c6c0000000000000000000000000000000000000000000000000000606482015260840161130d565b600080866001600160a01b03168587604051612eb09190614075565b60006040518083038185875af1925050503d8060008114612eed576040519150601f19603f3d011682016040523d82523d6000602084013e612ef2565b606091505b5091509150612f0387838387612f0e565b979650505050505050565b60608315612f7d578251600003612f76576001600160a01b0385163b612f765760405162461bcd60e51b815260206004820152601d60248201527f416464726573733a2063616c6c20746f206e6f6e2d636f6e7472616374000000604482015260640161130d565b5081612d32565b612d328383815115612f925781518083602001fd5b8060405162461bcd60e51b815260040161130d9190613240565b600060208284031215612fbe57600080fd5b81356001600160e01b03198116811461252757600080fd5b634e487b7160e01b600052604160045260246000fd5b6040805190810167ffffffffffffffff8111828210171561300f5761300f612fd6565b60405290565b60405160a0810167ffffffffffffffff8111828210171561300f5761300f612fd6565b604051601f8201601f1916810167ffffffffffffffff8111828210171561306157613061612fd6565b604052919050565b6001600160a01b038116811461131f57600080fd5b60ff8116811461131f57600080fd5b60006040828403121561309f57600080fd5b6130a7612fec565b905081356130b481613069565b815260208201356130c48161307e565b602082015292915050565b6000604082840312156130e157600080fd5b612527838361308d565b60006080828403121561262c57600080fd5b60008060008060e0858703121561311357600080fd5b84359350602085013592506040850135915061313286606087016130eb565b905092959194509250565b600067ffffffffffffffff82111561315757613157612fd6565b50601f01601f191660200190565b600082601f83011261317657600080fd5b81356131896131848261313d565b613038565b81815284602083860101111561319e57600080fd5b816020850160208301376000918101602001919091529392505050565b6000602082840312156131cd57600080fd5b813567ffffffffffffffff8111156131e457600080fd5b612d3284828501613165565b60005b8381101561320b5781810151838201526020016131f3565b50506000910152565b6000815180845261322c8160208601602086016131f0565b601f01601f19169290920160200192915050565b6020815260006125276020830184613214565b60008060a0838503121561326657600080fd5b8235915061327784602085016130eb565b90509250929050565b6000806060838503121561329357600080fd5b61329d848461308d565b915060408301356132ad81613069565b809150509250929050565b600080600080600061010086880312156132d157600080fd5b85356132dc81613069565b94506020860135935060408601356132f38161307e565b92506060860135915061330987608088016130eb565b90509295509295909350565b600067ffffffffffffffff82111561332f5761332f612fd6565b5060051b60200190565b600082601f83011261334a57600080fd5b8135602061335a61318483613315565b82815260059290921b8401810191818101908684111561337957600080fd5b8286015b84811015613394578035835291830191830161337d565b509695505050505050565b600080600080600060a086880312156133b757600080fd5b85356133c281613069565b945060208601356133d281613069565b9350604086013567ffffffffffffffff808211156133ef57600080fd5b6133fb89838a01613339565b9450606088013591508082111561341157600080fd5b61341d89838a01613339565b9350608088013591508082111561343357600080fd5b5061344088828901613165565b9150509295509295909350565b600080600080600060a0868803121561346557600080fd5b853561347081613069565b9450602086013561348081613069565b93506040860135925060608601359150608086013567ffffffffffffffff8111156134aa57600080fd5b61344088828901613165565b6000602082840312156134c857600080fd5b813561252781613069565b60008060008060008060a087890312156134ec57600080fd5b86356134f781613069565b9550602087013561350781613069565b94506040870135935060608701359250608087013567ffffffffffffffff8082111561353257600080fd5b818901915089601f83011261354657600080fd5b81358181111561355557600080fd5b8a602082850101111561356757600080fd5b6020830194508093505050509295509295509295565b60006020828403121561358f57600080fd5b815161252781613069565b805180151581146135aa57600080fd5b919050565b600060a082840312156135c157600080fd5b6135c9613015565b82516135d481613069565b8152602083015167ffffffffffffffff811681146135f157600080fd5b602082015260408301516136048161307e565b60408201526136156060840161359a565b6060820152608083015160808201528091505092915050565b634e487b7160e01b600052601160045260246000fd5b818103818111156103845761038461362e565b8381526001600160a01b038316602082015260606040820152600061367f6060830184613214565b95945050505050565b60006136966131848461313d565b90508281528383830111156136aa57600080fd5b6125278360208301846131f0565b600082601f8301126136c957600080fd5b61252783835160208501613688565b6000602082840312156136ea57600080fd5b815167ffffffffffffffff81111561370157600080fd5b612d32848285016136b8565b60008060006060848603121561372257600080fd5b83519250602084015161373481613069565b604085015190925067ffffffffffffffff81111561375157600080fd5b61375d868287016136b8565b9150509250925092565b6000806040838503121561377a57600080fd5b825161378581613069565b602084015190925067ffffffffffffffff8111156137a257600080fd5b6137ae858286016136b8565b9150509250929050565b6000602082840312156137ca57600080fd5b5051919050565b600080600080608085870312156137e757600080fd5b8451935060208501516137f98161307e565b6040860151606090960151949790965092505050565b600082601f83011261382057600080fd5b8151602061383061318483613315565b8281526060928302850182019282820191908785111561384f57600080fd5b8387015b858110156138c4578089038281121561386c5760008081fd5b613874612fec565b6040808312156138845760008081fd5b61388c612fec565b9250835161389981613069565b8352838801516138a88161307e565b8389015291815290820151818701528452928401928101613853565b5090979650505050505050565b6000806000606084860312156138e657600080fd5b835167ffffffffffffffff808211156138fe57600080fd5b61390a8783880161380f565b9450602086015191508082111561392057600080fd5b5061392d8682870161380f565b925050604084015190509250925092565b60007f8000000000000000000000000000000000000000000000000000000000000000820361396f5761396f61362e565b5060000390565b600081518084526020808501945080840160005b838110156139c7578151805180516001600160a01b0316895284015160ff168489015283015160408801526060909601959082019060010161398a565b509495945050505050565b6060815260006139e56060830186613976565b6001600160a01b03851660208401528281036040840152613a068185613214565b9695505050505050565b6020815260006125276020830184613976565b600060208284031215613a3557600080fd5b6125278261359a565b60ff82811682821603908111156103845761038461362e565b6001600160a01b0383168152604060208201526000612d326040830184613214565b60ff841681526001600160a01b038316602082015260606040820152600061367f6060830184613214565b600082601f830112613ab557600080fd5b81356020613ac561318483613315565b82815260609283028501820192828201919087851115613ae457600080fd5b8387015b858110156138c45781818a031215613b005760008081fd5b613b08612fec565b613b128a8361308d565b81526040820135868201528452928401928101613ae8565b60008060008060008060c08789031215613b4357600080fd5b8635613b4e81613069565b9550602087013567ffffffffffffffff80821115613b6b57600080fd5b613b778a838b01613aa4565b96506040890135915080821115613b8d57600080fd5b50613b9a89828a01613aa4565b945050606087013592506080870135915060a087013590509295509295509295565b808201808211156103845761038461362e565b600060808284031215613be157600080fd5b6040516080810181811067ffffffffffffffff82111715613c0457613c04612fd6565b604052823581526020830135613c198161307e565b6020820152604083810135908201526060928301359281019290925250919050565b600060208284031215613c4d57600080fd5b81356125278161307e565b60006001600160a01b03808716835280861660208401525060806040830152613c846080830185613976565b8281036060840152612f038185613214565b634e487b7160e01b600052603260045260246000fd5b6001600160a01b038716815260c060208201526000613cce60c0830188613976565b8281036040840152613ce08188613976565b60608401969096525050608081019290925260a0909101529392505050565b6001600160a01b038716815261ffff8616602082015267ffffffffffffffff8516604082015283606082015260ff8316608082015260c060a08201526000612b5160c0830184613214565b600060018201613d5c57613d5c61362e565b5060010190565b600081518084526020808501945080840160005b838110156139c757815187529582019590820190600101613d77565b60006001600160a01b03808816835260a06020840152613db660a0840188613d63565b8381036040850152613dc88188613d63565b905081861660608501528381036080850152613de48186613214565b9998505050505050505050565b6001600160a01b038416815282602082015260606040820152600061367f6060830184613214565b80516fffffffffffffffffffffffffffffffff811681146135aa57600080fd5b600060a08284031215613e4b57600080fd5b613e53613015565b8251613e5e81613069565b8152602083015160038110613e7257600080fd5b6020820152613e8360408401613e19565b6040820152613e9460608401613e19565b60608201526080830151613ea781613069565b60808201529392505050565b60ff81811683821601908111156103845761038461362e565b60008351613ede8184602088016131f0565b835190830190613ef28183602088016131f0565b01949350505050565b600060208284031215613f0d57600080fd5b815167ffffffffffffffff811115613f2457600080fd5b8201601f81018413613f3557600080fd5b612d3284825160208401613688565b60008351613f568184602088016131f0565b7f20426f6e6420436f75706f6e20280000000000000000000000000000000000009083019081528351613f9081600e8401602088016131f0565b7f2900000000000000000000000000000000000000000000000000000000000000600e9290910191820152600f01949350505050565b8051602080830151919081101561262c5760001960209190910360031b1b16919050565b60008351613ffc8184602088016131f0565b7f2d4350000000000000000000000000000000000000000000000000000000000090830190815283516140368160038401602088016131f0565b01600301949350505050565b60006020828403121561405457600080fd5b81516125278161307e565b634e487b7160e01b600052601260045260246000fd5b600082516140878184602087016131f0565b919091019291505056fea2646970667358221220e59003e875521567afaf820a1f99d3042521ff6f844e8561b5ff58132db5184164736f6c63430008130033",
  "devdoc": {
    "kind": "dev",
    "methods": {
      "owner()": {
        "details": "Returns the address of the current owner."
      },
      "renounceOwnership()": {
        "details": "Leaves the contract without owner. It will not be possible to call `onlyOwner` functions. Can only be called by the current owner. NOTE: Renouncing ownership will leave the contract without an owner, thereby disabling any functionality that is only available to the owner."
      },
      "supportsInterface(bytes4)": {
        "details": "See {IERC165-supportsInterface}."
      },
      "transferOwnership(address)": {
        "details": "Transfers ownership of the contract to a new account (`newOwner`). Can only be called by the current owner."
      }
    },
    "version": 1
  },
  "userdoc": {
    "kind": "user",
    "methods": {},
    "version": 1
  },
  "storageLayout": {
    "storage": [
      {
        "astId": 7,
        "contract": "contracts/DepositController.sol:DepositController",
        "label": "_owner",
        "offset": 0,
        "slot": "0",
        "type": "t_address"
      },
      {
        "astId": 21331,
        "contract": "contracts/DepositController.sol:DepositController",
        "label": "_locked",
        "offset": 0,
        "slot": "1",
        "type": "t_uint256"
      },
      {
        "astId": 18375,
        "contract": "contracts/DepositController.sol:DepositController",
        "label": "_couponMarkets",
        "offset": 0,
        "slot": "2",
        "type": "t_mapping(t_uint256,t_address)"
      }
    ],
    "types": {
      "t_address": {
        "encoding": "inplace",
        "label": "address",
        "numberOfBytes": "20"
      },
      "t_mapping(t_uint256,t_address)": {
        "encoding": "mapping",
        "key": "t_uint256",
        "label": "mapping(uint256 => address)",
        "numberOfBytes": "32",
        "value": "t_address"
      },
      "t_uint256": {
        "encoding": "inplace",
        "label": "uint256",
        "numberOfBytes": "32"
      }
    }
  }
}