{
  "address": "0xa87224d1F96cA183CE119f94b6e48035c93B05Fb",
  "abi": [
    {
      "inputs": [
        {
          "internalType": "address",
          "name": "couponManager_",
          "type": "address"
        },
        {
          "internalType": "address",
          "name": "assetPool_",
          "type": "address"
        },
        {
          "internalType": "address",
          "name": "oracle_",
          "type": "address"
        },
        {
          "internalType": "address",
          "name": "treasury_",
          "type": "address"
        },
        {
          "internalType": "uint256",
          "name": "minDebtValueInEth_",
          "type": "uint256"
        },
        {
          "internalType": "string",
          "name": "baseURI_",
          "type": "string"
        },
        {
          "internalType": "string",
          "name": "contractURI_",
          "type": "string"
        }
      ],
      "stateMutability": "nonpayable",
      "type": "constructor"
    },
    {
      "inputs": [],
      "name": "EpochOverflow",
      "type": "error"
    },
    {
      "inputs": [],
      "name": "FullRepaymentRequired",
      "type": "error"
    },
    {
      "inputs": [],
      "name": "InvalidAccess",
      "type": "error"
    },
    {
      "inputs": [],
      "name": "InvalidConfiguration",
      "type": "error"
    },
    {
      "inputs": [],
      "name": "InvalidPair",
      "type": "error"
    },
    {
      "inputs": [],
      "name": "InvalidPositionEpoch",
      "type": "error"
    },
    {
      "inputs": [],
      "name": "InvalidShortString",
      "type": "error"
    },
    {
      "inputs": [],
      "name": "InvalidSignature",
      "type": "error"
    },
    {
      "inputs": [],
      "name": "LiquidationThreshold",
      "type": "error"
    },
    {
      "inputs": [
        {
          "internalType": "address",
          "name": "locker",
          "type": "address"
        }
      ],
      "name": "LockedBy",
      "type": "error"
    },
    {
      "inputs": [],
      "name": "NotSettled",
      "type": "error"
    },
    {
      "inputs": [],
      "name": "PermitExpired",
      "type": "error"
    },
    {
      "inputs": [
        {
          "internalType": "string",
          "name": "str",
          "type": "string"
        }
      ],
      "name": "StringTooLong",
      "type": "error"
    },
    {
      "inputs": [],
      "name": "TooSmallDebtLeft",
      "type": "error"
    },
    {
      "inputs": [],
      "name": "UnableToLiquidate",
      "type": "error"
    },
    {
      "inputs": [],
      "name": "UnmatchedPosition",
      "type": "error"
    },
    {
      "anonymous": false,
      "inputs": [
        {
          "indexed": true,
          "internalType": "address",
          "name": "owner",
          "type": "address"
        },
        {
          "indexed": true,
          "internalType": "address",
          "name": "approved",
          "type": "address"
        },
        {
          "indexed": true,
          "internalType": "uint256",
          "name": "tokenId",
          "type": "uint256"
        }
      ],
      "name": "Approval",
      "type": "event"
    },
    {
      "anonymous": false,
      "inputs": [
        {
          "indexed": true,
          "internalType": "address",
          "name": "owner",
          "type": "address"
        },
        {
          "indexed": true,
          "internalType": "address",
          "name": "operator",
          "type": "address"
        },
        {
          "indexed": false,
          "internalType": "bool",
          "name": "approved",
          "type": "bool"
        }
      ],
      "name": "ApprovalForAll",
      "type": "event"
    },
    {
      "anonymous": false,
      "inputs": [],
      "name": "EIP712DomainChanged",
      "type": "event"
    },
    {
      "anonymous": false,
      "inputs": [
        {
          "indexed": true,
          "internalType": "uint256",
          "name": "positionId",
          "type": "uint256"
        },
        {
          "indexed": true,
          "internalType": "address",
          "name": "liquidator",
          "type": "address"
        },
        {
          "indexed": false,
          "internalType": "uint256",
          "name": "liquidationAmount",
          "type": "uint256"
        },
        {
          "indexed": false,
          "internalType": "uint256",
          "name": "repayAmount",
          "type": "uint256"
        },
        {
          "indexed": false,
          "internalType": "uint256",
          "name": "protocolFeeAmount",
          "type": "uint256"
        }
      ],
      "name": "LiquidatePosition",
      "type": "event"
    },
    {
      "anonymous": false,
      "inputs": [
        {
          "indexed": true,
          "internalType": "address",
          "name": "previousOwner",
          "type": "address"
        },
        {
          "indexed": true,
          "internalType": "address",
          "name": "newOwner",
          "type": "address"
        }
      ],
      "name": "OwnershipTransferStarted",
      "type": "event"
    },
    {
      "anonymous": false,
      "inputs": [
        {
          "indexed": true,
          "internalType": "address",
          "name": "previousOwner",
          "type": "address"
        },
        {
          "indexed": true,
          "internalType": "address",
          "name": "newOwner",
          "type": "address"
        }
      ],
      "name": "OwnershipTransferred",
      "type": "event"
    },
    {
      "anonymous": false,
      "inputs": [
        {
          "indexed": true,
          "internalType": "address",
          "name": "collateral",
          "type": "address"
        },
        {
          "indexed": true,
          "internalType": "address",
          "name": "debt",
          "type": "address"
        },
        {
          "indexed": false,
          "internalType": "uint32",
          "name": "liquidationThreshold",
          "type": "uint32"
        },
        {
          "indexed": false,
          "internalType": "uint32",
          "name": "liquidationFee",
          "type": "uint32"
        },
        {
          "indexed": false,
          "internalType": "uint32",
          "name": "liquidationProtocolFee",
          "type": "uint32"
        },
        {
          "indexed": false,
          "internalType": "uint32",
          "name": "liquidationTargetLtv",
          "type": "uint32"
        },
        {
          "indexed": false,
          "internalType": "address",
          "name": "hook",
          "type": "address"
        }
      ],
      "name": "SetLoanConfiguration",
      "type": "event"
    },
    {
      "anonymous": false,
      "inputs": [
        {
          "indexed": true,
          "internalType": "address",
          "name": "newTreasury",
          "type": "address"
        }
      ],
      "name": "SetTreasury",
      "type": "event"
    },
    {
      "anonymous": false,
      "inputs": [
        {
          "indexed": true,
          "internalType": "address",
          "name": "from",
          "type": "address"
        },
        {
          "indexed": true,
          "internalType": "address",
          "name": "to",
          "type": "address"
        },
        {
          "indexed": true,
          "internalType": "uint256",
          "name": "tokenId",
          "type": "uint256"
        }
      ],
      "name": "Transfer",
      "type": "event"
    },
    {
      "anonymous": false,
      "inputs": [
        {
          "indexed": true,
          "internalType": "uint256",
          "name": "positionId",
          "type": "uint256"
        },
        {
          "indexed": false,
          "internalType": "uint256",
          "name": "collateralAmount",
          "type": "uint256"
        },
        {
          "indexed": false,
          "internalType": "uint256",
          "name": "debtAmount",
          "type": "uint256"
        },
        {
          "indexed": false,
          "internalType": "Epoch",
          "name": "unlockedAt",
          "type": "uint8"
        }
      ],
      "name": "UpdatePosition",
      "type": "event"
    },
    {
      "inputs": [],
      "name": "DOMAIN_SEPARATOR",
      "outputs": [
        {
          "internalType": "bytes32",
          "name": "",
          "type": "bytes32"
        }
      ],
      "stateMutability": "view",
      "type": "function"
    },
    {
      "inputs": [],
      "name": "PERMIT_TYPEHASH",
      "outputs": [
        {
          "internalType": "bytes32",
          "name": "",
          "type": "bytes32"
        }
      ],
      "stateMutability": "view",
      "type": "function"
    },
    {
      "inputs": [],
      "name": "acceptOwnership",
      "outputs": [],
      "stateMutability": "nonpayable",
      "type": "function"
    },
    {
      "inputs": [
        {
          "internalType": "uint256",
          "name": "positionId",
          "type": "uint256"
        },
        {
          "internalType": "uint256",
          "name": "collateralAmount",
          "type": "uint256"
        },
        {
          "internalType": "uint256",
          "name": "debtAmount",
          "type": "uint256"
        },
        {
          "internalType": "Epoch",
          "name": "expiredWith",
          "type": "uint8"
        }
      ],
      "name": "adjustPosition",
      "outputs": [
        {
          "components": [
            {
              "components": [
                {
                  "internalType": "address",
                  "name": "asset",
                  "type": "address"
                },
                {
                  "internalType": "Epoch",
                  "name": "epoch",
                  "type": "uint8"
                }
              ],
              "internalType": "struct CouponKey",
              "name": "key",
              "type": "tuple"
            },
            {
              "internalType": "uint256",
              "name": "amount",
              "type": "uint256"
            }
          ],
          "internalType": "struct Coupon[]",
          "name": "couponsToMint",
          "type": "tuple[]"
        },
        {
          "components": [
            {
              "components": [
                {
                  "internalType": "address",
                  "name": "asset",
                  "type": "address"
                },
                {
                  "internalType": "Epoch",
                  "name": "epoch",
                  "type": "uint8"
                }
              ],
              "internalType": "struct CouponKey",
              "name": "key",
              "type": "tuple"
            },
            {
              "internalType": "uint256",
              "name": "amount",
              "type": "uint256"
            }
          ],
          "internalType": "struct Coupon[]",
          "name": "couponsToBurn",
          "type": "tuple[]"
        },
        {
          "internalType": "int256",
          "name": "collateralDelta",
          "type": "int256"
        },
        {
          "internalType": "int256",
          "name": "debtDelta",
          "type": "int256"
        }
      ],
      "stateMutability": "nonpayable",
      "type": "function"
    },
    {
      "inputs": [
        {
          "internalType": "address",
          "name": "to",
          "type": "address"
        },
        {
          "internalType": "uint256",
          "name": "tokenId",
          "type": "uint256"
        }
      ],
      "name": "approve",
      "outputs": [],
      "stateMutability": "nonpayable",
      "type": "function"
    },
    {
      "inputs": [
        {
          "internalType": "address",
          "name": "locker",
          "type": "address"
        },
        {
          "internalType": "uint256",
          "name": "assetId",
          "type": "uint256"
        }
      ],
      "name": "assetDelta",
      "outputs": [
        {
          "internalType": "int256",
          "name": "delta",
          "type": "int256"
        }
      ],
      "stateMutability": "view",
      "type": "function"
    },
    {
      "inputs": [],
      "name": "assetPool",
      "outputs": [
        {
          "internalType": "address",
          "name": "",
          "type": "address"
        }
      ],
      "stateMutability": "view",
      "type": "function"
    },
    {
      "inputs": [
        {
          "internalType": "address",
          "name": "owner",
          "type": "address"
        }
      ],
      "name": "balanceOf",
      "outputs": [
        {
          "internalType": "uint256",
          "name": "",
          "type": "uint256"
        }
      ],
      "stateMutability": "view",
      "type": "function"
    },
    {
      "inputs": [],
      "name": "baseURI",
      "outputs": [
        {
          "internalType": "string",
          "name": "",
          "type": "string"
        }
      ],
      "stateMutability": "view",
      "type": "function"
    },
    {
      "inputs": [
        {
          "components": [
            {
              "components": [
                {
                  "internalType": "address",
                  "name": "asset",
                  "type": "address"
                },
                {
                  "internalType": "Epoch",
                  "name": "epoch",
                  "type": "uint8"
                }
              ],
              "internalType": "struct CouponKey",
              "name": "key",
              "type": "tuple"
            },
            {
              "internalType": "uint256",
              "name": "amount",
              "type": "uint256"
            }
          ],
          "internalType": "struct Coupon[]",
          "name": "coupons",
          "type": "tuple[]"
        }
      ],
      "name": "burnCoupons",
      "outputs": [],
      "stateMutability": "nonpayable",
      "type": "function"
    },
    {
      "inputs": [
        {
          "components": [
            {
              "internalType": "address",
              "name": "asset",
              "type": "address"
            },
            {
              "internalType": "Epoch",
              "name": "epoch",
              "type": "uint8"
            }
          ],
          "internalType": "struct CouponKey[]",
          "name": "couponKeys",
          "type": "tuple[]"
        },
        {
          "internalType": "bytes",
          "name": "data",
          "type": "bytes"
        }
      ],
      "name": "claimOwedCoupons",
      "outputs": [],
      "stateMutability": "nonpayable",
      "type": "function"
    },
    {
      "inputs": [],
      "name": "contractURI",
      "outputs": [
        {
          "internalType": "string",
          "name": "",
          "type": "string"
        }
      ],
      "stateMutability": "view",
      "type": "function"
    },
    {
      "inputs": [
        {
          "internalType": "address",
          "name": "token",
          "type": "address"
        },
        {
          "internalType": "uint256",
          "name": "amount",
          "type": "uint256"
        }
      ],
      "name": "depositToken",
      "outputs": [],
      "stateMutability": "nonpayable",
      "type": "function"
    },
    {
      "inputs": [],
      "name": "eip712Domain",
      "outputs": [
        {
          "internalType": "bytes1",
          "name": "fields",
          "type": "bytes1"
        },
        {
          "internalType": "string",
          "name": "name",
          "type": "string"
        },
        {
          "internalType": "string",
          "name": "version",
          "type": "string"
        },
        {
          "internalType": "uint256",
          "name": "chainId",
          "type": "uint256"
        },
        {
          "internalType": "address",
          "name": "verifyingContract",
          "type": "address"
        },
        {
          "internalType": "bytes32",
          "name": "salt",
          "type": "bytes32"
        },
        {
          "internalType": "uint256[]",
          "name": "extensions",
          "type": "uint256[]"
        }
      ],
      "stateMutability": "view",
      "type": "function"
    },
    {
      "inputs": [
        {
          "internalType": "uint256",
          "name": "tokenId",
          "type": "uint256"
        }
      ],
      "name": "getApproved",
      "outputs": [
        {
          "internalType": "address",
          "name": "",
          "type": "address"
        }
      ],
      "stateMutability": "view",
      "type": "function"
    },
    {
      "inputs": [
        {
          "internalType": "uint256",
          "name": "positionId",
          "type": "uint256"
        },
        {
          "internalType": "uint256",
          "name": "maxRepayAmount",
          "type": "uint256"
        }
      ],
      "name": "getLiquidationStatus",
      "outputs": [
        {
          "internalType": "uint256",
          "name": "",
          "type": "uint256"
        },
        {
          "internalType": "uint256",
          "name": "",
          "type": "uint256"
        },
        {
          "internalType": "uint256",
          "name": "",
          "type": "uint256"
        }
      ],
      "stateMutability": "view",
      "type": "function"
    },
    {
      "inputs": [
        {
          "internalType": "address",
          "name": "collateral",
          "type": "address"
        },
        {
          "internalType": "address",
          "name": "debt",
          "type": "address"
        }
      ],
      "name": "getLoanConfiguration",
      "outputs": [
        {
          "components": [
            {
              "internalType": "uint32",
              "name": "collateralDecimal",
              "type": "uint32"
            },
            {
              "internalType": "uint32",
              "name": "debtDecimal",
              "type": "uint32"
            },
            {
              "internalType": "uint32",
              "name": "liquidationThreshold",
              "type": "uint32"
            },
            {
              "internalType": "uint32",
              "name": "liquidationFee",
              "type": "uint32"
            },
            {
              "internalType": "uint32",
              "name": "liquidationProtocolFee",
              "type": "uint32"
            },
            {
              "internalType": "uint32",
              "name": "liquidationTargetLtv",
              "type": "uint32"
            }
          ],
          "internalType": "struct ILoanPositionManagerTypes.LoanConfiguration",
          "name": "",
          "type": "tuple"
        }
      ],
      "stateMutability": "view",
      "type": "function"
    },
    {
      "inputs": [
        {
          "internalType": "address",
          "name": "user",
          "type": "address"
        },
        {
          "internalType": "uint256",
          "name": "couponId",
          "type": "uint256"
        }
      ],
      "name": "getOwedCouponAmount",
      "outputs": [
        {
          "internalType": "uint256",
          "name": "",
          "type": "uint256"
        }
      ],
      "stateMutability": "view",
      "type": "function"
    },
    {
      "inputs": [
        {
          "internalType": "uint256",
          "name": "positionId",
          "type": "uint256"
        }
      ],
      "name": "getPosition",
      "outputs": [
        {
          "components": [
            {
              "internalType": "uint64",
              "name": "nonce",
              "type": "uint64"
            },
            {
              "internalType": "Epoch",
              "name": "expiredWith",
              "type": "uint8"
            },
            {
              "internalType": "bool",
              "name": "isSettled",
              "type": "bool"
            },
            {
              "internalType": "address",
              "name": "collateralToken",
              "type": "address"
            },
            {
              "internalType": "address",
              "name": "debtToken",
              "type": "address"
            },
            {
              "internalType": "uint256",
              "name": "collateralAmount",
              "type": "uint256"
            },
            {
              "internalType": "uint256",
              "name": "debtAmount",
              "type": "uint256"
            }
          ],
          "internalType": "struct LoanPosition",
          "name": "",
          "type": "tuple"
        }
      ],
      "stateMutability": "view",
      "type": "function"
    },
    {
      "inputs": [
        {
          "internalType": "address",
          "name": "owner",
          "type": "address"
        },
        {
          "internalType": "address",
          "name": "operator",
          "type": "address"
        }
      ],
      "name": "isApprovedForAll",
      "outputs": [
        {
          "internalType": "bool",
          "name": "",
          "type": "bool"
        }
      ],
      "stateMutability": "view",
      "type": "function"
    },
    {
      "inputs": [
        {
          "internalType": "address",
          "name": "collateral",
          "type": "address"
        },
        {
          "internalType": "address",
          "name": "debt",
          "type": "address"
        }
      ],
      "name": "isPairRegistered",
      "outputs": [
        {
          "internalType": "bool",
          "name": "",
          "type": "bool"
        }
      ],
      "stateMutability": "view",
      "type": "function"
    },
    {
      "inputs": [
        {
          "internalType": "uint256",
          "name": "positionId",
          "type": "uint256"
        },
        {
          "internalType": "uint256",
          "name": "maxRepayAmount",
          "type": "uint256"
        }
      ],
      "name": "liquidate",
      "outputs": [
        {
          "internalType": "uint256",
          "name": "liquidationAmount",
          "type": "uint256"
        },
        {
          "internalType": "uint256",
          "name": "repayAmount",
          "type": "uint256"
        },
        {
          "internalType": "uint256",
          "name": "protocolFeeAmount",
          "type": "uint256"
        }
      ],
      "stateMutability": "nonpayable",
      "type": "function"
    },
    {
      "inputs": [
        {
          "internalType": "bytes",
          "name": "data",
          "type": "bytes"
        }
      ],
      "name": "lock",
      "outputs": [
        {
          "internalType": "bytes",
          "name": "result",
          "type": "bytes"
        }
      ],
      "stateMutability": "nonpayable",
      "type": "function"
    },
    {
      "inputs": [],
      "name": "lockData",
      "outputs": [
        {
          "internalType": "uint128",
          "name": "",
          "type": "uint128"
        },
        {
          "internalType": "uint128",
          "name": "",
          "type": "uint128"
        }
      ],
      "stateMutability": "view",
      "type": "function"
    },
    {
      "inputs": [],
      "name": "minDebtValueInEth",
      "outputs": [
        {
          "internalType": "uint256",
          "name": "",
          "type": "uint256"
        }
      ],
      "stateMutability": "view",
      "type": "function"
    },
    {
      "inputs": [
        {
          "internalType": "address",
          "name": "collateralToken",
          "type": "address"
        },
        {
          "internalType": "address",
          "name": "debtToken",
          "type": "address"
        }
      ],
      "name": "mint",
      "outputs": [
        {
          "internalType": "uint256",
          "name": "positionId",
          "type": "uint256"
        }
      ],
      "stateMutability": "nonpayable",
      "type": "function"
    },
    {
      "inputs": [
        {
          "components": [
            {
              "components": [
                {
                  "internalType": "address",
                  "name": "asset",
                  "type": "address"
                },
                {
                  "internalType": "Epoch",
                  "name": "epoch",
                  "type": "uint8"
                }
              ],
              "internalType": "struct CouponKey",
              "name": "key",
              "type": "tuple"
            },
            {
              "internalType": "uint256",
              "name": "amount",
              "type": "uint256"
            }
          ],
          "internalType": "struct Coupon[]",
          "name": "coupons",
          "type": "tuple[]"
        },
        {
          "internalType": "address",
          "name": "to",
          "type": "address"
        },
        {
          "internalType": "bytes",
          "name": "data",
          "type": "bytes"
        }
      ],
      "name": "mintCoupons",
      "outputs": [],
      "stateMutability": "nonpayable",
      "type": "function"
    },
    {
      "inputs": [],
      "name": "name",
      "outputs": [
        {
          "internalType": "string",
          "name": "",
          "type": "string"
        }
      ],
      "stateMutability": "view",
      "type": "function"
    },
    {
      "inputs": [],
      "name": "nextId",
      "outputs": [
        {
          "internalType": "uint256",
          "name": "",
          "type": "uint256"
        }
      ],
      "stateMutability": "view",
      "type": "function"
    },
    {
      "inputs": [
        {
          "internalType": "uint256",
          "name": "positionId",
          "type": "uint256"
        }
      ],
      "name": "nonces",
      "outputs": [
        {
          "internalType": "uint256",
          "name": "",
          "type": "uint256"
        }
      ],
      "stateMutability": "view",
      "type": "function"
    },
    {
      "inputs": [],
      "name": "oracle",
      "outputs": [
        {
          "internalType": "address",
          "name": "",
          "type": "address"
        }
      ],
      "stateMutability": "view",
      "type": "function"
    },
    {
      "inputs": [],
      "name": "owner",
      "outputs": [
        {
          "internalType": "address",
          "name": "",
          "type": "address"
        }
      ],
      "stateMutability": "view",
      "type": "function"
    },
    {
      "inputs": [
        {
          "internalType": "uint256",
          "name": "tokenId",
          "type": "uint256"
        }
      ],
      "name": "ownerOf",
      "outputs": [
        {
          "internalType": "address",
          "name": "",
          "type": "address"
        }
      ],
      "stateMutability": "view",
      "type": "function"
    },
    {
      "inputs": [],
      "name": "pendingOwner",
      "outputs": [
        {
          "internalType": "address",
          "name": "",
          "type": "address"
        }
      ],
      "stateMutability": "view",
      "type": "function"
    },
    {
      "inputs": [
        {
          "internalType": "address",
          "name": "spender",
          "type": "address"
        },
        {
          "internalType": "uint256",
          "name": "tokenId",
          "type": "uint256"
        },
        {
          "internalType": "uint256",
          "name": "deadline",
          "type": "uint256"
        },
        {
          "internalType": "uint8",
          "name": "v",
          "type": "uint8"
        },
        {
          "internalType": "bytes32",
          "name": "r",
          "type": "bytes32"
        },
        {
          "internalType": "bytes32",
          "name": "s",
          "type": "bytes32"
        }
      ],
      "name": "permit",
      "outputs": [],
      "stateMutability": "nonpayable",
      "type": "function"
    },
    {
      "inputs": [],
      "name": "renounceOwnership",
      "outputs": [],
      "stateMutability": "nonpayable",
      "type": "function"
    },
    {
      "inputs": [
        {
          "internalType": "address",
          "name": "from",
          "type": "address"
        },
        {
          "internalType": "address",
          "name": "to",
          "type": "address"
        },
        {
          "internalType": "uint256",
          "name": "tokenId",
          "type": "uint256"
        }
      ],
      "name": "safeTransferFrom",
      "outputs": [],
      "stateMutability": "nonpayable",
      "type": "function"
    },
    {
      "inputs": [
        {
          "internalType": "address",
          "name": "from",
          "type": "address"
        },
        {
          "internalType": "address",
          "name": "to",
          "type": "address"
        },
        {
          "internalType": "uint256",
          "name": "tokenId",
          "type": "uint256"
        },
        {
          "internalType": "bytes",
          "name": "data",
          "type": "bytes"
        }
      ],
      "name": "safeTransferFrom",
      "outputs": [],
      "stateMutability": "nonpayable",
      "type": "function"
    },
    {
      "inputs": [
        {
          "internalType": "address",
          "name": "operator",
          "type": "address"
        },
        {
          "internalType": "bool",
          "name": "approved",
          "type": "bool"
        }
      ],
      "name": "setApprovalForAll",
      "outputs": [],
      "stateMutability": "nonpayable",
      "type": "function"
    },
    {
      "inputs": [
        {
          "internalType": "address",
          "name": "collateral",
          "type": "address"
        },
        {
          "internalType": "address",
          "name": "debt",
          "type": "address"
        },
        {
          "internalType": "uint32",
          "name": "liquidationThreshold",
          "type": "uint32"
        },
        {
          "internalType": "uint32",
          "name": "liquidationFee",
          "type": "uint32"
        },
        {
          "internalType": "uint32",
          "name": "liquidationProtocolFee",
          "type": "uint32"
        },
        {
          "internalType": "uint32",
          "name": "liquidationTargetLtv",
          "type": "uint32"
        },
        {
          "internalType": "address",
          "name": "hook",
          "type": "address"
        }
      ],
      "name": "setLoanConfiguration",
      "outputs": [],
      "stateMutability": "nonpayable",
      "type": "function"
    },
    {
      "inputs": [
        {
          "internalType": "address",
          "name": "newTreasury",
          "type": "address"
        }
      ],
      "name": "setTreasury",
      "outputs": [],
      "stateMutability": "nonpayable",
      "type": "function"
    },
    {
      "inputs": [
        {
          "internalType": "uint256",
          "name": "positionId",
          "type": "uint256"
        }
      ],
      "name": "settlePosition",
      "outputs": [],
      "stateMutability": "nonpayable",
      "type": "function"
    },
    {
      "inputs": [
        {
          "internalType": "bytes4",
          "name": "interfaceId",
          "type": "bytes4"
        }
      ],
      "name": "supportsInterface",
      "outputs": [
        {
          "internalType": "bool",
          "name": "",
          "type": "bool"
        }
      ],
      "stateMutability": "view",
      "type": "function"
    },
    {
      "inputs": [],
      "name": "symbol",
      "outputs": [
        {
          "internalType": "string",
          "name": "",
          "type": "string"
        }
      ],
      "stateMutability": "view",
      "type": "function"
    },
    {
      "inputs": [
        {
          "internalType": "uint256",
          "name": "tokenId",
          "type": "uint256"
        }
      ],
      "name": "tokenURI",
      "outputs": [
        {
          "internalType": "string",
          "name": "",
          "type": "string"
        }
      ],
      "stateMutability": "view",
      "type": "function"
    },
    {
      "inputs": [
        {
          "internalType": "address",
          "name": "from",
          "type": "address"
        },
        {
          "internalType": "address",
          "name": "to",
          "type": "address"
        },
        {
          "internalType": "uint256",
          "name": "tokenId",
          "type": "uint256"
        }
      ],
      "name": "transferFrom",
      "outputs": [],
      "stateMutability": "nonpayable",
      "type": "function"
    },
    {
      "inputs": [
        {
          "internalType": "address",
          "name": "newOwner",
          "type": "address"
        }
      ],
      "name": "transferOwnership",
      "outputs": [],
      "stateMutability": "nonpayable",
      "type": "function"
    },
    {
      "inputs": [],
      "name": "treasury",
      "outputs": [
        {
          "internalType": "address",
          "name": "",
          "type": "address"
        }
      ],
      "stateMutability": "view",
      "type": "function"
    },
    {
      "inputs": [
        {
          "internalType": "address",
          "name": "token",
          "type": "address"
        },
        {
          "internalType": "address",
          "name": "to",
          "type": "address"
        },
        {
          "internalType": "uint256",
          "name": "amount",
          "type": "uint256"
        }
      ],
      "name": "withdrawToken",
      "outputs": [],
      "stateMutability": "nonpayable",
      "type": "function"
    }
  ],
  "transactionHash": "0xf28c8fe3a6c4f868b95d80037df25b15663e54b609637cd0ec68370325c5d023",
  "args": [
    "0x8dD2584AeD158156882e18E200BD7eA9c85EEfc7",
    "0x86464743AD6df9321cB3797BAdD6367E0F710a94",
    "0xbaF0FF012884917b1FCb2222d6e6D75Eb795D23B",
    "0x000000000000000000000000000000000000dEaD",
    "1000000000000000",
    "LOAN_BASE_URI",
    "LOAN_CONTRACT_URI"
  ],
  "numDeployments": 1,
  "solcInputHash": "acc9b8b9386f4a4528fc256e3b0f1a50",
  "bytecode": "0x6101e06040526001600a553480156200001757600080fd5b506040516200665f3803806200665f8339810160408190526200003a9162000413565b868683836040518060400160405280600d81526020016c2637b0b7102837b9b4ba34b7b760991b8152506040518060400160405280600281526020016104c560f41b8152508181604051806040016040528060018152602001603160f81b815250828184848160009081620000b0919062000561565b506001620000bf828262000561565b50620000d19150839050600662000230565b61012052620000e281600762000230565b61014052815160208084019190912060e052815190820120610100524660a0526200017060e05161010051604080517f8b73c3c69bb8fe3d512ecc4cf759cc79239f7b179b0ffacaa9a75d522b39400f60208201529081019290925260608201524660808201523060a082015260009060c00160405160208183030381529060405280519060200120905090565b60805250503060c0525050506001600160a01b038681166101605285166101805260086200019f858262000561565b506009620001ae848262000561565b50505050505050620001cf620001c96200026960201b60201c565b6200026d565b6001600160a01b038581166101a0526101c0849052601380546001600160a01b03191691861691821790556040517fcb7ef3e545f5cdb893f5c568ba710fe08f336375a2d9fd66e161033f8fc09ef390600090a25050505050505062000687565b6000602083511015620002505762000248836200028b565b905062000263565b816200025d848262000561565b5060ff90505b92915050565b3390565b600e80546001600160a01b03191690556200028881620002d7565b50565b600080829050601f81511115620002c2578260405163305a27a960e01b8152600401620002b991906200062d565b60405180910390fd5b8051620002cf8262000662565b179392505050565b600d80546001600160a01b038381166001600160a01b0319831681179093556040519116919082907f8be0079c531659141344cd1fd0a4f28419497f9722a3daafe3b4186f6b6457e090600090a35050565b80516001600160a01b03811681146200034157600080fd5b919050565b634e487b7160e01b600052604160045260246000fd5b60005b83811015620003795781810151838201526020016200035f565b50506000910152565b600082601f8301126200039457600080fd5b81516001600160401b0380821115620003b157620003b162000346565b604051601f8301601f19908116603f01168101908282118183101715620003dc57620003dc62000346565b81604052838152866020858801011115620003f657600080fd5b620004098460208301602089016200035c565b9695505050505050565b600080600080600080600060e0888a0312156200042f57600080fd5b6200043a8862000329565b96506200044a6020890162000329565b95506200045a6040890162000329565b94506200046a6060890162000329565b608089015160a08a015191955093506001600160401b03808211156200048f57600080fd5b6200049d8b838c0162000382565b935060c08a0151915080821115620004b457600080fd5b50620004c38a828b0162000382565b91505092959891949750929550565b600181811c90821680620004e757607f821691505b6020821081036200050857634e487b7160e01b600052602260045260246000fd5b50919050565b601f8211156200055c57600081815260208120601f850160051c81016020861015620005375750805b601f850160051c820191505b81811015620005585782815560010162000543565b5050505b505050565b81516001600160401b038111156200057d576200057d62000346565b62000595816200058e8454620004d2565b846200050e565b602080601f831160018114620005cd5760008415620005b45750858301515b600019600386901b1c1916600185901b17855562000558565b600085815260208120601f198616915b82811015620005fe57888601518255948401946001909101908401620005dd565b50858210156200061d5787850151600019600388901b60f8161c191681555b5050505050600190811b01905550565b60208152600082518060208401526200064e8160408501602087016200035c565b601f01601f19169190910160400192915050565b80516020808301519190811015620005085760001960209190910360031b1b16919050565b60805160a05160c05160e05161010051610120516101405161016051610180516101a0516101c051615f2e620007316000396000818161074801526138f60152600081816105e1015261385d015260008181610449015281816113a00152612ddf015260008181611576015261304d01526000611c7301526000611c48015260006134600152600061343801526000613393015260006133bd015260006133e70152615f2e6000f3fe608060405234801561001057600080fd5b506004361061032b5760003560e01c806379ba5097116101b2578063c18927c5116100f9578063e8a3d485116100a2578063ee1fe2ad1161007c578063ee1fe2ad14610903578063f0f4426014610916578063f2fde38b14610929578063f8fcd1561461093c57600080fd5b8063e8a3d4851461077b578063e985e9c514610783578063eb02c301146107bf57600080fd5b8063d296d1f1116100d3578063d296d1f114610730578063de0bb93314610743578063e30c39781461076a57600080fd5b8063c18927c5146106e7578063c1f486761461070a578063c87b56dd1461071d57600080fd5b806395d89b411161015b578063af2b68c511610135578063af2b68c514610670578063b88d4fde146106a6578063bb4c831e146106b957600080fd5b806395d89b4114610642578063a22cb4651461064a578063aba5b4b31461065d57600080fd5b8063815483191161018c578063815483191461060357806384b0196e146106165780638da5cb5b1461063157600080fd5b806379ba5097146105c15780637ac2ff7b146105c95780637dc0d1d0146105dc57600080fd5b8063338b5dea1161027657806361d027b31161021f5780636c0360eb116101f95780636c0360eb1461059e57806370a08231146105a6578063715018a6146105b957600080fd5b806361d027b31461054d5780636352211e146105605780636af6dbf41461057357600080fd5b806342842e0e1161025057806342842e0e1461051e578063430c114b1461053157806361b8ce8c1461054457600080fd5b8063338b5dea14610492578063350a951a146104a55780633644e5151461051657600080fd5b80630f0b0765116102d857806323b872dd116102b257806323b872dd146104315780632ec939f91461044457806330adf81f1461046b57600080fd5b80630f0b0765146103d3578063141a468c146103e65780631ad4fbb81461041e57600080fd5b8063075aaa6211610309578063075aaa6214610382578063081812fc14610395578063095ea7b3146103c057600080fd5b806301e336671461033057806301ffc9a71461034557806306fdde031461036d575b600080fd5b61034361033e3660046151c7565b610966565b005b610358610353366004615219565b6109d4565b60405190151581526020015b60405180910390f35b610375610a18565b6040516103649190615286565b6103436103903660046152ad565b610aaa565b6103a86103a3366004615333565b610e93565b6040516001600160a01b039091168152602001610364565b6103436103ce36600461534c565b610eba565b6103436103e1366004615404565b610feb565b6104106103f4366004615333565b60009081526011602052604090205467ffffffffffffffff1690565b604051908152602001610364565b61034361042c366004615488565b611133565b61034361043f3660046151c7565b6112d1565b6103a87f000000000000000000000000000000000000000000000000000000000000000081565b6104107f49ecf333e5b8c95c40fdafc95c1ad136e8914a8fb55e9dc8bb01eaa83a2df9ad81565b6103436104a036600461534c565b611348565b6104b86104b3366004615522565b6113da565b6040516103649190600060c08201905063ffffffff8084511683528060208501511660208401528060408501511660408401528060608501511660608401528060808501511660808401528060a08501511660a08401525092915050565b6104106114da565b61034361052c3660046151c7565b6114e9565b61034361053f366004615555565b611504565b610410600a5481565b6013546103a8906001600160a01b031681565b6103a861056e366004615333565b611630565b61041061058136600461534c565b600c60209081526000928352604080842090915290825290205481565b610375611695565b6104106105b4366004615597565b611723565b6103436117bd565b6103436117d1565b6103436105d73660046155c1565b61185f565b6103a87f000000000000000000000000000000000000000000000000000000000000000081565b61037561061136600461561b565b611ad6565b61061e611c3a565b6040516103649796959493929190615651565b600d546001600160a01b03166103a8565b610375611cdf565b610343610658366004615711565b611cee565b61034361066b366004615333565b611cfd565b61041061067e36600461534c565b6001600160a01b03919091166000908152600f60209081526040808320938352929052205490565b6103436106b43660046157e0565b61205e565b6106cc6106c736600461588b565b6120d6565b60408051938452602084019290925290820152606001610364565b6106fa6106f53660046158ad565b612185565b604051610364949392919061594a565b610358610718366004615522565b6124c3565b61037561072b366004615333565b6124d7565b6106cc61073e36600461588b565b61253e565b6104107f000000000000000000000000000000000000000000000000000000000000000081565b600e546001600160a01b03166103a8565b610375612a7e565b610358610791366004615522565b6001600160a01b03918216600090815260056020908152604080832093909416825291909152205460ff1690565b61088f6107cd366004615333565b6040805160e081018252600080825260208201819052918101829052606081018290526080810182905260a0810182905260c081019190915250600090815260116020908152604091829020825160e081018452815467ffffffffffffffff8116825260ff600160401b8204811694830194909452600160481b81049093161515938101939093526001600160a01b03600160501b9092048216606084015260018101549091166080830152600281015460a08301526003015460c082015290565b6040516103649190600060e08201905067ffffffffffffffff835116825260ff602084015116602083015260408301511515604083015260608301516001600160a01b038082166060850152806080860151166080850152505060a083015160a083015260c083015160c083015292915050565b610410610911366004615522565b612a8b565b610343610924366004615597565b612b79565b610343610937366004615597565b612bcb565b600b54604080516001600160801b038084168252600160801b909304909216602083015201610364565b6000610972600b612c3c565b9050336001600160a01b038216146109ad576040516313d2c13360e21b81526001600160a01b03821660048201526024015b60405180910390fd5b6109c2846001600160a01b0316836000612c89565b506109ce848385612d98565b50505050565b60006001600160e01b031982167f6831a4fd000000000000000000000000000000000000000000000000000000001480610a125750610a1282612e41565b92915050565b606060008054610a2790615983565b80601f0160208091040260200160405190810160405280929190818152602001828054610a5390615983565b8015610aa05780601f10610a7557610100808354040283529160200191610aa0565b820191906000526020600020905b815481529060010190602001808311610a8357829003601f168201915b5050505050905090565b610ab2612edc565b620f42408563ffffffff16101580610adc5750620f4240610ad383866159d3565b63ffffffff1610155b80610af357508463ffffffff168263ffffffff1610155b15610b2a576040517fc52a9bd300000000000000000000000000000000000000000000000000000000815260040160405180910390fd5b60408051606089811b6bffffffffffffffffffffffff19908116602080850191909152918a901b1660348301528251602881840301815260489092019092528051910120600090600081815260106020526040902054909150600160401b900463ffffffff1615610bae57604051630793df6360e21b815260040160405180910390fd5b816012600083815260200190815260200160002060006101000a8154816001600160a01b0302191690836001600160a01b031602179055506040518060c00160405280896001600160a01b031663313ce5676040518163ffffffff1660e01b8152600401602060405180830381865afa158015610c2f573d6000803e3d6000fd5b505050506040513d601f19601f82011682018060405250810190610c5391906159f0565b60ff1663ffffffff168152602001886001600160a01b031663313ce5676040518163ffffffff1660e01b8152600401602060405180830381865afa158015610c9f573d6000803e3d6000fd5b505050506040513d601f19601f82011682018060405250810190610cc391906159f0565b60ff16815263ffffffff888116602080840191909152888216604080850191909152888316606080860191909152888416608095860152600087815260108452829020865181549488015188850151938901519789015160a0909901518716600160a01b027fffffffffffffffff00000000ffffffffffffffffffffffffffffffffffffffff998816600160801b02999099167fffffffffffffffff0000000000000000ffffffffffffffffffffffffffffffff988816600160601b027fffffffffffffffffffffffffffffffff00000000ffffffffffffffffffffffff958916600160401b02959095167fffffffffffffffffffffffffffffffff0000000000000000ffffffffffffffff9289166401000000000267ffffffffffffffff19909816939098169290921795909517949094169490941717939093161792909217909155516001600160a01b0380891691908a16907fac5d333887643cf799bd5e52f7ad502d3a3ec0530ebbf57361247cf9385923a090610e81908a908a908a908a908a9063ffffffff95861681529385166020850152918416604084015290921660608201526001600160a01b0391909116608082015260a00190565b60405180910390a35050505050505050565b6000610e9e82612f36565b506000908152600460205260409020546001600160a01b031690565b6000610ec582611630565b9050806001600160a01b0316836001600160a01b031603610f4e5760405162461bcd60e51b815260206004820152602160248201527f4552433732313a20617070726f76616c20746f2063757272656e74206f776e6560448201527f720000000000000000000000000000000000000000000000000000000000000060648201526084016109a4565b336001600160a01b0382161480610f6a5750610f6a8133610791565b610fdc5760405162461bcd60e51b815260206004820152603d60248201527f4552433732313a20617070726f76652063616c6c6572206973206e6f7420746f60448201527f6b656e206f776e6572206f7220617070726f76656420666f7220616c6c00000060648201526084016109a4565b610fe68383612f9a565b505050565b6000610ff7600b612c3c565b9050336001600160a01b0382161461102d576040516313d2c13360e21b81526001600160a01b03821660048201526024016109a4565b60005b858110156110975761108e61106b88888481811061105057611050615a0d565b9050606002018036038101906110669190615a63565b613008565b88888481811061107d5761107d615a0d565b905060600201604001356000612c89565b50600101611030565b5061112b848787808060200260200160405190810160405280939291908181526020016000905b828210156110ea576110db60608302860136819003810190615a63565b815260200190600101906110be565b505050505085858080601f01602080910402602001604051908101604052809392919081815260200183838082843760009201919091525061301d92505050565b505050505050565b60008367ffffffffffffffff81111561114e5761114e615748565b6040519080825280602002602001820160405280156111a257816020015b604080516080810182526000918101828152606082018390528152602081019190915281526020019060019003908161116c5790505b50905060005b848110156112885760006111ee8787848181106111c7576111c7615a0d565b9050604002018036038101906111dd9190615a9b565b6020810151905160a09190911b0190565b9050604051806040016040528088888581811061120d5761120d615a0d565b9050604002018036038101906112239190615a9b565b8152336000908152600f60209081526040808320868452825290912054910152835184908490811061125757611257615a0d565b602090810291909101810191909152336000908152600f8252604080822093825292909152908120556001016111a8565b506112ca338285858080601f01602080910402602001604051908101604052809392919081815260200183838082843760009201919091525061301d92505050565b5050505050565b6112db3382613086565b61133d5760405162461bcd60e51b815260206004820152602d60248201527f4552433732313a2063616c6c6572206973206e6f7420746f6b656e206f776e6560448201526c1c881bdc88185c1c1c9bdd9959609a1b60648201526084016109a4565b610fe6838383613105565b6000611354600b612c3c565b9050336001600160a01b0382161461138a576040516313d2c13360e21b81526001600160a01b03821660048201526024016109a4565b8115610fe6576113c56001600160a01b038416337f0000000000000000000000000000000000000000000000000000000000000000856132fe565b6109ce836001600160a01b0316600084612c89565b6040805160c081018252600080825260208201819052918101829052606081018290526080810182905260a08101919091526010600061145f85856040516bffffffffffffffffffffffff19606084811b8216602084015283901b16603482015260009060480160405160208183030381529060405280519060200120905092915050565b81526020808201929092526040908101600020815160c081018352905463ffffffff80821683526401000000008204811694830194909452600160401b8104841692820192909252600160601b820483166060820152600160801b820483166080820152600160a01b90910490911660a08201529392505050565b60006114e4613386565b905090565b610fe68383836040518060200160405280600081525061205e565b6000611510600b612c3c565b9050336001600160a01b03821614611546576040516313d2c13360e21b81526001600160a01b03821660048201526024016109a4565b6040517fca6ce7ea0000000000000000000000000000000000000000000000000000000081526001600160a01b037f0000000000000000000000000000000000000000000000000000000000000000169063ca6ce7ea906115af90339087908790600401615ab7565b600060405180830381600087803b1580156115c957600080fd5b505af11580156115dd573d6000803e3d6000fd5b5050505060005b828110156109ce5761162761160485858481811061105057611050615a0d565b600086868581811061161857611618615a0d565b90506060020160400135612c89565b506001016115e4565b6000818152600260205260408120546001600160a01b031680610a125760405162461bcd60e51b815260206004820152601860248201527f4552433732313a20696e76616c696420746f6b656e204944000000000000000060448201526064016109a4565b600880546116a290615983565b80601f01602080910402602001604051908101604052809291908181526020018280546116ce90615983565b801561171b5780601f106116f05761010080835404028352916020019161171b565b820191906000526020600020905b8154815290600101906020018083116116fe57829003601f168201915b505050505081565b60006001600160a01b0382166117a15760405162461bcd60e51b815260206004820152602960248201527f4552433732313a2061646472657373207a65726f206973206e6f74206120766160448201527f6c6964206f776e6572000000000000000000000000000000000000000000000060648201526084016109a4565b506001600160a01b031660009081526003602052604090205490565b6117c5612edc565b6117cf60006134b1565b565b600e5433906001600160a01b031681146118535760405162461bcd60e51b815260206004820152602960248201527f4f776e61626c6532537465703a2063616c6c6572206973206e6f74207468652060448201527f6e6577206f776e6572000000000000000000000000000000000000000000000060648201526084016109a4565b61185c816134b1565b50565b83421115611899576040517f1a15a3cc00000000000000000000000000000000000000000000000000000000815260040160405180910390fd5b60006119177f49ecf333e5b8c95c40fdafc95c1ad136e8914a8fb55e9dc8bb01eaa83a2df9ad88886118ca816134ca565b6040805160208101959095526001600160a01b03909316928401929092526060830152608082015260a0810187905260c001604051602081830303815290604052805190602001206134f1565b9050600061192487611630565b9050806001600160a01b0316886001600160a01b03160361195857604051638baa579f60e01b815260040160405180910390fd5b6001600160a01b0381163b15611a8557604080516020810186905280820185905260f887901b7fff000000000000000000000000000000000000000000000000000000000000001660608201528151604181830301815260618201928390527f1626ba7e000000000000000000000000000000000000000000000000000000009092526001600160a01b03831691631626ba7e916119fa918691606501615b31565b602060405180830381865afa158015611a17573d6000803e3d6000fd5b505050506040513d601f19601f82011682018060405250810190611a3b9190615b4a565b7bffffffffffffffffffffffffffffffffffffffffffffffffffffffff1916631626ba7e60e01b14611a8057604051638baa579f60e01b815260040160405180910390fd5b611ac2565b806001600160a01b0316611a9b83878787613539565b6001600160a01b031614611ac257604051638baa579f60e01b815260040160405180910390fd5b611acc8888612f9a565b5050505050505050565b6060611b32600b3381546001600160801b039081167f760a9a962ae3d184e99c0483cf5684fb3170f47116ca4f445c50209da4f4f90681019290925582546fffffffffffffffffffffffffffffffff1916600190920116179055565b6040517f46a114e200000000000000000000000000000000000000000000000000000000815233906346a114e290611b709086908690600401615b67565b6000604051808303816000875af1158015611b8f573d6000803e3d6000fd5b505050506040513d6000823e601f3d908101601f19168201604052611bb79190810190615b96565b600b549091506001600160801b0316600103611c0857600b54600160801b90046001600160801b031615611bfe5760405163ba329a9b60e01b815260040160405180910390fd5b6000600b55610a12565b600b80546fffffffffffffffffffffffffffffffff1981166001600160801b0391821660001901909116179055610a12565b600060608082808083611c6e7f00000000000000000000000000000000000000000000000000000000000000006006613561565b611c997f00000000000000000000000000000000000000000000000000000000000000006007613561565b604080516000808252602082019092527f0f000000000000000000000000000000000000000000000000000000000000009b939a50919850469750309650945092509050565b606060018054610a2790615983565b611cf933838361360c565b5050565b6000611d09600b612c3c565b9050336001600160a01b03821614611d3f576040516313d2c13360e21b81526001600160a01b03821660048201526024016109a4565b611d48826136da565b600082815260116020908152604091829020825160e081018452815467ffffffffffffffff8116825260ff600160401b8204811694830194909452600160481b81049093161515938101939093526001600160a01b03600160501b9092048216606084015260018101549091166080830152600281015460a08301526003015460c0820181905215801590611df45750611df48160200151611de861374a565b60ff9081169116111590565b15611e2b576040517f3ec7b15c00000000000000000000000000000000000000000000000000000000815260040160405180910390fd5b600060106000611e88846060015185608001516040516bffffffffffffffffffffffff19606084811b8216602084015283901b16603482015260009060480160405160208183030381529060405280519060200120905092915050565b815260208082019290925260409081016000908120825160c081018452905463ffffffff80821683526401000000008204811695830195909552600160401b8104851693820193909352600160601b83048416606080830191909152600160801b84048516608080840191909152600160a01b90940490941660a082015292850151918501519293509182918291611f21919086613762565b92509250925060008560c00151118015611f3e57508460c0015181115b15611f5c57604051633be901a360e21b815260040160405180910390fd5b620f4240828660c00151611f709190615c0d565b611f7a9190615c0d565b846040015163ffffffff16848760a00151611f959190615c0d565b611f9f9190615c0d565b1015611fd7576040517f828d924c00000000000000000000000000000000000000000000000000000000815260040160405180910390fd5b60c0850151158015611feb575060a0850151155b15611ff957611ff9876139df565b867f6909f75c94ff7a7648004afe5da77344ce9bbe4de5bdc77cf17cef5319e9eba98660a001518760c00151886020015160405161204d93929190928352602083019190915260ff16604082015260600190565b60405180910390a250505050505050565b6120683383613086565b6120ca5760405162461bcd60e51b815260206004820152602d60248201527f4552433732313a2063616c6c6572206973206e6f7420746f6b656e206f776e6560448201526c1c881bdc88185c1c1c9bdd9959609a1b60648201526084016109a4565b6109ce84848484613a74565b6000828152601160209081526040808320815160e081018352815467ffffffffffffffff8116825260ff600160401b8204811695830195909552600160481b81049094161515928101929092526001600160a01b03600160501b9093048316606083015260018101549092166080820152600282015460a082015260039091015460c082015281908190612177908561217157600019613afd565b85613afd565b9250925092505b9250925092565b6060806000806000612197600b612c3c565b9050336001600160a01b038216146121cd576040516313d2c13360e21b81526001600160a01b03821660048201526024016109a4565b886121d8338b613086565b61220e576040517fc0185c6400000000000000000000000000000000000000000000000000000000815260040160405180910390fd5b600061221861374a565b60008c815260116020908152604091829020825160e081018452815467ffffffffffffffff8116825260ff600160401b82048116948301859052600160481b820481161515958301959095526001600160a01b03600160501b909104811660608301526001830154166080820152600282015460a082015260039091015460c0820152929350908316106122b05760ff821660208201525b896000036122bc578198505b6122d28c826060015183608001518e8e8e613e20565b60008c815260116020908152604091829020600281018e9055600381018d9055805460ff808e16600160401b90810268ff00000000000000001984168117808655875160e08101895267ffffffffffffffff92831692909516919091178452908104821694830194909452600160481b8404161515938101939093526001600160a01b03600160501b909204821660608401526001015416608082015260a081018c905260c081018b9052612388908290613f2a565b909850965060005b88518110156123ec576123e36123be8a83815181106123b1576123b1615a0d565b6020026020010151613008565b60008b84815181106123d2576123d2615a0d565b602002602001015160200151612c89565b50600101612390565b5060005b875181101561243f576124366124118983815181106123b1576123b1615a0d565b89838151811061242357612423615a0d565b6020026020010151602001516000612c89565b506001016123f0565b5061245c81606001516001600160a01b03168c8360a00151612c89565b955061247a81608001516001600160a01b03168260c001518c612c89565b60000394507f800000000000000000000000000000000000000000000000000000000000000085036124ab57600080fd5b50506124b681614353565b5050945094509450949050565b60006124cf83836143b8565b159392505050565b60606124e282612f36565b60006124ec614433565b9050600081511161250c5760405180602001604052806000815250612537565b8061251684614442565b604051602001612527929190615c24565b6040516020818303038152906040525b9392505050565b60008060008061254e600b612c3c565b9050336001600160a01b03821614612584576040516313d2c13360e21b81526001600160a01b03821660048201526024016109a4565b600086815260116020526040902054600160481b900460ff166125ba5760405163ba329a9b60e01b815260040160405180910390fd5b600086815260116020908152604091829020825160e081018452815467ffffffffffffffff8116825260ff600160401b8204811694830194909452600160481b81049093161515938101939093526001600160a01b03600160501b9092048216606084015260018101549091166080830152600281015460a08301526003015460c0820152612656818761265057600019613afd565b87613afd565b919650945092506000859003612698576040517f6992224600000000000000000000000000000000000000000000000000000000815260040160405180910390fd5b60006126a26144e2565b905060006126bb83602001518360ff9081169116101590565b6126c65760006126dc565b60208301516126d89060ff16836144ed565b6001015b60a084018051899003905260c0840180518890039081905260ff91909116915060000361271a5761271160ff831660016144ed565b60ff1660208401525b61273c89846060015185608001518660a001518760c001518860200151613e20565b60a083015160008a8152601160209081526040909120600281019290925560c08501516003830155840151815460ff909116600160401b0268ff000000000000000019909116179055606083015161279e906001600160a01b03168689612c89565b5060608301516013546127bc919087906001600160a01b0316612d98565b6127d583608001516001600160a01b0316876000612c89565b5080156129b05760006127e78a611630565b905060008267ffffffffffffffff81111561280457612804615748565b60405190808252806020026020018201604052801561285857816020015b60408051608081018252600091810182815260608201839052815260208101919091528152602001906001900390816128225790505b50905060005b838110156128f85760808601516128d39061287c60ff8816846144f9565b8b604080516080810182526000918101828152606082018390528152602081019190915250604080516080810182526001600160a01b039490941690840190815260ff929092166060840152908252602082015290565b8282815181106128e5576128e5615a0d565b602090810291909101015260010161285e565b506001600160a01b0382163b156129935760005b8381101561298d5781818151811061292657612926615a0d565b602002602001015160200151600f6000856001600160a01b03166001600160a01b03168152602001908152602001600020600061296e8585815181106123b1576123b1615a0d565b815260208101919091526040016000208054909101905560010161290c565b506129ad565b6129ad82826040518060200160405280600081525061301d565b50505b60c08301511580156129c4575060a0830151155b156129d2576129d2896139df565b604080518881526020810188905290810186905233908a907fe5fa9a508c78f7cf1e7d0fb90c4b5aae238aa0e336c5ca713d86f74d008b397f9060600160405180910390a3887f6909f75c94ff7a7648004afe5da77344ce9bbe4de5bdc77cf17cef5319e9eba98460a001518560c001518660200151604051612a6b93929190928352602083019190915260ff16604082015260600190565b60405180910390a2505050509250925092565b600980546116a290615983565b600080612a98600b612c3c565b9050336001600160a01b03821614612ace576040516313d2c13360e21b81526001600160a01b03821660048201526024016109a4565b612ad884846143b8565b15612af657604051630793df6360e21b815260040160405180910390fd5b600a80546001808201909255600081815260116020526040902080547fffff0000000000000000000000000000000000000000ffffffffffffffffffff16600160501b6001600160a01b0389811691909102919091178255920180546001600160a01b031916928616929092179091559150612b723383614505565b5092915050565b612b81612edc565b601380546001600160a01b0319166001600160a01b0383169081179091556040517fcb7ef3e545f5cdb893f5c568ba710fe08f336375a2d9fd66e161033f8fc09ef390600090a250565b612bd3612edc565b600e80546001600160a01b0383166001600160a01b03199091168117909155612c04600d546001600160a01b031690565b6001600160a01b03167f38d16b8cac22d99fc7c124b9cd0de2d3fa1faef420bfe791d8c362d765e2270060405160405180910390a350565b8054600090610a1290612c5a906001906001600160801b0316615c53565b6001600160801b03167f760a9a962ae3d184e99c0483cf5684fb3170f47116ca4f445c50209da4f4f906015490565b6000818303612c9a57506000612537565b6000612ca6600b612c3c565b6001600160a01b0381166000908152600c6020908152604080832089845290915290205490915083851115612ce757612ce0848603614555565b9250612cf8565b612cf2858503614555565b60000392505b6000612d048483615c73565b905080600003612d3a57600b80546000196001600160801b03600160801b80840482169290920181169091029116179055612d69565b81600003612d6957600b805460016001600160801b03600160801b808404821692909201811690910291161790555b6001600160a01b03929092166000908152600c6020908152604080832098835297905295909520559392505050565b6040517f69328dec0000000000000000000000000000000000000000000000000000000081526001600160a01b0384811660048301526024820184905282811660448301527f000000000000000000000000000000000000000000000000000000000000000016906369328dec906064015b600060405180830381600087803b158015612e2457600080fd5b505af1158015612e38573d6000803e3d6000fd5b50505050505050565b60006001600160e01b031982167f80ac58cd000000000000000000000000000000000000000000000000000000001480612ea457506001600160e01b031982167f5b5e139f00000000000000000000000000000000000000000000000000000000145b80610a1257507f01ffc9a7000000000000000000000000000000000000000000000000000000006001600160e01b0319831614610a12565b600d546001600160a01b031633146117cf5760405162461bcd60e51b815260206004820181905260248201527f4f776e61626c653a2063616c6c6572206973206e6f7420746865206f776e657260448201526064016109a4565b6000818152600260205260409020546001600160a01b031661185c5760405162461bcd60e51b815260206004820152601860248201527f4552433732313a20696e76616c696420746f6b656e204944000000000000000060448201526064016109a4565b600081815260046020526040902080546001600160a01b0319166001600160a01b0384169081179091558190612fcf82611630565b6001600160a01b03167f8c5be1e5ebec7d5bd14f71427d1e84f3dd0314c0f7b2291e5b200ac8c7c3b92560405160405180910390a45050565b80516020810151905160009160a01b01610a12565b6040517f3ee44b0f0000000000000000000000000000000000000000000000000000000081526001600160a01b037f00000000000000000000000000000000000000000000000000000000000000001690633ee44b0f90612e0a90869086908690600401615c9b565b60008061309283611630565b9050806001600160a01b0316846001600160a01b031614806130d957506001600160a01b0380821660009081526005602090815260408083209388168352929052205460ff165b806130fd5750836001600160a01b03166130f284610e93565b6001600160a01b0316145b949350505050565b826001600160a01b031661311882611630565b6001600160a01b03161461317c5760405162461bcd60e51b815260206004820152602560248201527f4552433732313a207472616e736665722066726f6d20696e636f72726563742060448201526437bbb732b960d91b60648201526084016109a4565b6001600160a01b0382166131f75760405162461bcd60e51b8152602060048201526024808201527f4552433732313a207472616e7366657220746f20746865207a65726f2061646460448201527f726573730000000000000000000000000000000000000000000000000000000060648201526084016109a4565b826001600160a01b031661320a82611630565b6001600160a01b03161461326e5760405162461bcd60e51b815260206004820152602560248201527f4552433732313a207472616e736665722066726f6d20696e636f72726563742060448201526437bbb732b960d91b60648201526084016109a4565b600081815260046020908152604080832080546001600160a01b03199081169091556001600160a01b0387811680865260038552838620805460001901905590871680865283862080546001019055868652600290945282852080549092168417909155905184937fddf252ad1be2c89b69c2b068fc378daa952ba7f163c4a11628f55a4df523b3ef91a4505050565b604080516001600160a01b0385811660248301528416604482015260648082018490528251808303909101815260849091019091526020810180517bffffffffffffffffffffffffffffffffffffffffffffffffffffffff167f23b872dd000000000000000000000000000000000000000000000000000000001790526109ce9085906145f1565b6000306001600160a01b037f0000000000000000000000000000000000000000000000000000000000000000161480156133df57507f000000000000000000000000000000000000000000000000000000000000000046145b1561340957507f000000000000000000000000000000000000000000000000000000000000000090565b6114e4604080517f8b73c3c69bb8fe3d512ecc4cf759cc79239f7b179b0ffacaa9a75d522b39400f60208201527f0000000000000000000000000000000000000000000000000000000000000000918101919091527f000000000000000000000000000000000000000000000000000000000000000060608201524660808201523060a082015260009060c00160405160208183030381529060405280519060200120905090565b600e80546001600160a01b031916905561185c816146d9565b60008181526011602052604081206134e19061472b565b67ffffffffffffffff1692915050565b6000610a126134fe613386565b836040517f19010000000000000000000000000000000000000000000000000000000000008152600281019290925260228201526042902090565b600080600061354a87878787614772565b9150915061355781614836565b5095945050505050565b606060ff831461357b576135748361499b565b9050610a12565b81805461358790615983565b80601f01602080910402602001604051908101604052809291908181526020018280546135b390615983565b80156136005780601f106135d557610100808354040283529160200191613600565b820191906000526020600020905b8154815290600101906020018083116135e357829003601f168201915b50505050509050610a12565b816001600160a01b0316836001600160a01b03160361366d5760405162461bcd60e51b815260206004820152601960248201527f4552433732313a20617070726f766520746f2063616c6c65720000000000000060448201526064016109a4565b6001600160a01b03838116600081815260056020908152604080832094871680845294825291829020805460ff191686151590811790915591519182527f17307eab39ab6107e8899845ad3d59bd9653f200f220920489ca2b5937696c31910160405180910390a3505050565b600081815260116020526040902054600160481b900460ff16156136fb5750565b6000818152601160205260409020805469ff0000000000000000001916600160481b17905550600b80546000196001600160801b03600160801b80840482169290920181169091029116179055565b60006114e460016137596144e2565b60ff16906144ed565b8051602080830151604080516003808252608082019092526000948594859463ffffffff9283169492169285929091820160608036833701905050905088816000815181106137b3576137b3615a0d565b60200260200101906001600160a01b031690816001600160a01b03168152505087816001815181106137e7576137e7615a0d565b60200260200101906001600160a01b031690816001600160a01b03168152505060008160028151811061381c5761381c615a0d565b6001600160a01b0392831660209182029290920101526040517f9d23d9f20000000000000000000000000000000000000000000000000000000081526000917f00000000000000000000000000000000000000000000000000000000000000001690639d23d9f290613892908590600401615cd9565b600060405180830381865afa1580156138af573d6000803e3d6000fd5b505050506040513d6000823e601f3d908101601f191682016040526138d79190810190615d26565b9050806002815181106138ec576138ec615a0d565b60200260200101517f00000000000000000000000000000000000000000000000000000000000000000294508060008151811061392b5761392b615a0d565b602002602001015196508060018151811061394857613948615a0d565b60200260200101519550601283111561396b5760128303600a0a85029450613984565b82601203600a0a858161398057613980615dc0565b0494505b8060018151811061399757613997615a0d565b602002602001015185816139ad576139ad615dc0565b049450838311156139c757838303600a0a870296506139d2565b828403600a0a860295505b5050505093509350939050565b60006139ea82611630565b90506139f582611630565b600083815260046020908152604080832080546001600160a01b03199081169091556001600160a01b0385168085526003845282852080546000190190558785526002909352818420805490911690555192935084927fddf252ad1be2c89b69c2b068fc378daa952ba7f163c4a11628f55a4df523b3ef908390a45050565b613a7f848484613105565b613a8b848484846149da565b6109ce5760405162461bcd60e51b815260206004820152603260248201527f4552433732313a207472616e7366657220746f206e6f6e20455243373231526560448201527f63656976657220696d706c656d656e746572000000000000000000000000000060648201526084016109a4565b60008060008060106000613b5e886060015189608001516040516bffffffffffffffffffffffff19606084811b8216602084015283901b16603482015260009060480160405160208183030381529060405280519060200120905092915050565b815260208082019290925260409081016000908120825160c081018452905463ffffffff80821683526401000000008204811695830195909552600160401b8104851693820193909352600160601b83048416606080830191909152600160801b84048516608080840191909152600160a01b90940490941660a082015292890151918901519293509182918291613bf7919086613762565b92509250925042613c0e8a6020015160ff16614b2e565b1015613c99578860c001518810613c2b578860c001519550613c70565b8860c001518189011115613c6c57808960c001511015613c5e57604051633be901a360e21b815260040160405180910390fd5b808960c00151039550613c70565b8795505b613c92620f424083880202856060015163ffffffff16620f4240038502614b39565b9650613de0565b60a089015160c08a0151604086015191850291908402620f4240029063ffffffff1682028111613cd957600080600098509850985050505050505061217e565b613d0e8660a0015163ffffffff16830282038760a0015163ffffffff16886060015163ffffffff16620f424003038702614b39565b9850620f424084876060015163ffffffff16620f424003878c020281613d3657613d36615dc0565b0481613d4457613d44615dc0565b60c08d01519190049850838111613d7b57808b1015613d7657604051633be901a360e21b815260040160405180910390fd5b613dad565b888401811015613da057808b1015613d7657613d998b858303614b70565b9050613dad565b613daa8b8a614b70565b90505b888114613ddc57613dd6620f424086830202886060015163ffffffff16620f4240038802614b39565b99508098505b5050505b8860a00151871115613df4578860a0015196505b620f4240846080015163ffffffff16880281613e1257613e12615dc0565b049450505050509250925092565b600060126000613e7588886040516bffffffffffffffffffffffff19606084811b8216602084015283901b16603482015260009060480160405160208183030381529060405280519060200120905092915050565b81526020810191909152604001600020546001600160a01b031690508015612e38576040517f8f45dd3f00000000000000000000000000000000000000000000000000000000815260048101889052602481018590526044810184905260ff831660648201526001600160a01b03821690638f45dd3f90608401600060405180830381600087803b158015613f0957600080fd5b505af1158015613f1d573d6000803e3d6000fd5b5050505050505050505050565b60608082606001516001600160a01b031684606001516001600160a01b0316148015613f6f575082608001516001600160a01b031684608001516001600160a01b0316145b8015613f8a57508251845167ffffffffffffffff9081169116145b613fc0576040517f84991e9500000000000000000000000000000000000000000000000000000000815260040160405180910390fd5b6000613fca61374a565b9050613fe081856020015160ff90811691161190565b80613ff55750602085015160ff908116908216115b1561402c576040517f47a5b25b00000000000000000000000000000000000000000000000000000000815260040160405180910390fd5b60208501516000906140419060ff16836144ed565b60ff169050600061406283876020015160ff166144ed90919063ffffffff16565b60ff16905060006140738383614b70565b90508760c001518760c00151111561408f5780830392506140b4565b8760c001518760c0015110156140a95780820391506140b4565b808203915080830392505b508167ffffffffffffffff8111156140ce576140ce615748565b60405190808252806020026020018201604052801561412257816020015b60408051608081018252600091810182815260608201839052815260208101919091528152602001906001900390816140ec5790505b5094508067ffffffffffffffff81111561413e5761413e615748565b60405190808252806020026020018201604052801561419257816020015b604080516080810182526000918101828152606082018390528152602081019190915281526020019060019003908161415c5790505b509350600091506000905060006141c1846137598a602001518a6020015160ff16614b8690919063ffffffff16565b60ff1690508360005b82811015614346576141e060ff831660016144f9565b915060006141f88a602001518460ff90811691161090565b614206578960c00151614209565b60005b905060006142218c602001518560ff90811691161090565b61422f578b60c00151614232565b60005b9050808211156142ba576080808d015160408051808401825260008183018181526060808401839052908352602092830191909152825194850183526001600160a01b0390931691840191825260ff881692840192909252825282840390820152895160018801978b9181106142aa576142aa615a0d565b602002602001018190525061433c565b8082101561433c576080808d015160408051808401825260008183018181526060808401839052908352602092830191909152825194850183526001600160a01b0390931691840191825260ff8816928401929092528252838303908201528a5160018901988c91811061433057614330615a0d565b60200260200101819052505b50506001016141ca565b5050505050509250929050565b600081815260116020526040902054600160481b900460ff166143735750565b6000908152601160205260409020805469ff00000000000000000019169055600b8054600160801b8082046001600160801b0390811660010181169091029116179055565b60006010600061440d85856040516bffffffffffffffffffffffff19606084811b8216602084015283901b16603482015260009060480160405160208183030381529060405280519060200120905092915050565b8152602081019190915260400160002054600160401b900463ffffffff16159392505050565b606060088054610a2790615983565b6060600061444f83614b9b565b600101905060008167ffffffffffffffff81111561446f5761446f615748565b6040519080825280601f01601f191660200182016040528015614499576020820181803683370190505b5090508181016020015b600019017f3031323334353637383961626364656600000000000000000000000000000000600a86061a8153600a85049450846144a357509392505050565b60006114e442614c7d565b60006125378284615dd6565b60006125378284615def565b61450f8282614d6b565b6000908152601160205260409020805469ff0000000000000000001916905550600b8054600160801b8082046001600160801b0390811660010181169091029116179055565b60007f7fffffffffffffffffffffffffffffffffffffffffffffffffffffffffffffff8211156145ed5760405162461bcd60e51b815260206004820152602860248201527f53616665436173743a2076616c756520646f65736e27742066697420696e206160448201527f6e20696e7432353600000000000000000000000000000000000000000000000060648201526084016109a4565b5090565b6000614646826040518060400160405280602081526020017f5361666545524332303a206c6f772d6c6576656c2063616c6c206661696c6564815250856001600160a01b0316614ef69092919063ffffffff16565b90508051600014806146675750808060200190518101906146679190615e08565b610fe65760405162461bcd60e51b815260206004820152602a60248201527f5361666545524332303a204552433230206f7065726174696f6e20646964206e60448201527f6f7420737563636565640000000000000000000000000000000000000000000060648201526084016109a4565b600d80546001600160a01b038381166001600160a01b0319831681179093556040519116919082907f8be0079c531659141344cd1fd0a4f28419497f9722a3daafe3b4186f6b6457e090600090a35050565b805460009067ffffffffffffffff16828261474583615e25565b91906101000a81548167ffffffffffffffff021916908367ffffffffffffffff1602179055509050919050565b6000807f7fffffffffffffffffffffffffffffff5d576e7357a4501ddfe92f46681b20a08311156147a9575060009050600361482d565b6040805160008082526020820180845289905260ff881692820192909252606081018690526080810185905260019060a0016020604051602081039080840390855afa1580156147fd573d6000803e3d6000fd5b5050604051601f1901519150506001600160a01b0381166148265760006001925092505061482d565b9150600090505b94509492505050565b600081600481111561484a5761484a615e4c565b036148525750565b600181600481111561486657614866615e4c565b036148b35760405162461bcd60e51b815260206004820152601860248201527f45434453413a20696e76616c6964207369676e6174757265000000000000000060448201526064016109a4565b60028160048111156148c7576148c7615e4c565b036149145760405162461bcd60e51b815260206004820152601f60248201527f45434453413a20696e76616c6964207369676e6174757265206c656e6774680060448201526064016109a4565b600381600481111561492857614928615e4c565b0361185c5760405162461bcd60e51b815260206004820152602260248201527f45434453413a20696e76616c6964207369676e6174757265202773272076616c60448201527f756500000000000000000000000000000000000000000000000000000000000060648201526084016109a4565b606060006149a883614f05565b604080516020808252818301909252919250600091906020820181803683375050509182525060208101929092525090565b60006001600160a01b0384163b15614b2657604051630a85bd0160e11b81526001600160a01b0385169063150b7a0290614a1e903390899088908890600401615e62565b6020604051808303816000875af1925050508015614a59575060408051601f3d908101601f19168201909252614a5691810190615b4a565b60015b614b0c573d808015614a87576040519150601f19603f3d011682016040523d82523d6000602084013e614a8c565b606091505b508051600003614b045760405162461bcd60e51b815260206004820152603260248201527f4552433732313a207472616e7366657220746f206e6f6e20455243373231526560448201527f63656976657220696d706c656d656e746572000000000000000000000000000060648201526084016109a4565b805181602001fd5b6001600160e01b031916630a85bd0160e11b1490506130fd565b5060016130fd565b6000610a1282614f46565b60008215614b675781614b4d600185615e94565b614b579190615ea7565b614b62906001615ec9565b612537565b50600092915050565b6000818310614b7f5781612537565b5090919050565b600060ff80831690841611614b7f5781612537565b6000807a184f03e93ff9f4daa797ed6e38ed64bf6a1f0100000000000000008310614be4577a184f03e93ff9f4daa797ed6e38ed64bf6a1f010000000000000000830492506040015b6d04ee2d6d415b85acef81000000008310614c10576d04ee2d6d415b85acef8100000000830492506020015b662386f26fc100008310614c2e57662386f26fc10000830492506010015b6305f5e1008310614c46576305f5e100830492506008015b6127108310614c5a57612710830492506004015b60648310614c6c576064830492506002015b600a8310610a125760010192915050565b600080620151808304905080622649658101600062023ab1600483020590506004600362023ab18302010590910390600062164b09610fa0600185010205905060046105b58202058303601f019250600061098f8460500281614ce257614ce2615dc0565b059050600b8105935083600c028160020103905083826031850360640201019150600060066001836107b28603600c02010381614d2157614d21615dc0565b04905060ff811115614d5f576040517f73cde75100000000000000000000000000000000000000000000000000000000815260040160405180910390fd5b98975050505050505050565b6001600160a01b038216614dc15760405162461bcd60e51b815260206004820181905260248201527f4552433732313a206d696e7420746f20746865207a65726f206164647265737360448201526064016109a4565b6000818152600260205260409020546001600160a01b031615614e265760405162461bcd60e51b815260206004820152601c60248201527f4552433732313a20746f6b656e20616c7265616479206d696e7465640000000060448201526064016109a4565b6000818152600260205260409020546001600160a01b031615614e8b5760405162461bcd60e51b815260206004820152601c60248201527f4552433732313a20746f6b656e20616c7265616479206d696e7465640000000060448201526064016109a4565b6001600160a01b038216600081815260036020908152604080832080546001019055848352600290915280822080546001600160a01b0319168417905551839291907fddf252ad1be2c89b69c2b068fc378daa952ba7f163c4a11628f55a4df523b3ef908290a45050565b60606130fd848460008561501b565b600060ff8216601f811115610a12576040517fb3512b0c00000000000000000000000000000000000000000000000000000000815260040160405180910390fd5b6000600660ff831681020181600c82046107b20190506004600c8381614f6e57614f6e615dc0565b06901b915060048106158015614f8657506064810615155b80614f9357506101908106155b15614fbc5779016e014f0131011200f400d500b600980079005b003c001f000090911c90614fdc565b79016d014e0130011100f300d400b500970078005a003b001f000090911c905b60016201518061019061064019840104606461076c1985010460046107b0198601046107b2860361016d028761ffff1601010301020392505050919050565b6060824710156150935760405162461bcd60e51b815260206004820152602660248201527f416464726573733a20696e73756666696369656e742062616c616e636520666f60448201527f722063616c6c000000000000000000000000000000000000000000000000000060648201526084016109a4565b600080866001600160a01b031685876040516150af9190615edc565b60006040518083038185875af1925050503d80600081146150ec576040519150601f19603f3d011682016040523d82523d6000602084013e6150f1565b606091505b50915091506151028783838761510d565b979650505050505050565b6060831561517c578251600003615175576001600160a01b0385163b6151755760405162461bcd60e51b815260206004820152601d60248201527f416464726573733a2063616c6c20746f206e6f6e2d636f6e747261637400000060448201526064016109a4565b50816130fd565b6130fd83838151156151915781518083602001fd5b8060405162461bcd60e51b81526004016109a49190615286565b80356001600160a01b03811681146151c257600080fd5b919050565b6000806000606084860312156151dc57600080fd5b6151e5846151ab565b92506151f3602085016151ab565b9150604084013590509250925092565b6001600160e01b03198116811461185c57600080fd5b60006020828403121561522b57600080fd5b813561253781615203565b60005b83811015615251578181015183820152602001615239565b50506000910152565b60008151808452615272816020860160208601615236565b601f01601f19169290920160200192915050565b602081526000612537602083018461525a565b803563ffffffff811681146151c257600080fd5b600080600080600080600060e0888a0312156152c857600080fd5b6152d1886151ab565b96506152df602089016151ab565b95506152ed60408901615299565b94506152fb60608901615299565b935061530960808901615299565b925061531760a08901615299565b915061532560c089016151ab565b905092959891949750929550565b60006020828403121561534557600080fd5b5035919050565b6000806040838503121561535f57600080fd5b615368836151ab565b946020939093013593505050565b60008083601f84011261538857600080fd5b50813567ffffffffffffffff8111156153a057600080fd5b6020830191508360206060830285010111156153bb57600080fd5b9250929050565b60008083601f8401126153d457600080fd5b50813567ffffffffffffffff8111156153ec57600080fd5b6020830191508360208285010111156153bb57600080fd5b60008060008060006060868803121561541c57600080fd5b853567ffffffffffffffff8082111561543457600080fd5b61544089838a01615376565b9097509550859150615454602089016151ab565b9450604088013591508082111561546a57600080fd5b50615477888289016153c2565b969995985093965092949392505050565b6000806000806040858703121561549e57600080fd5b843567ffffffffffffffff808211156154b657600080fd5b818701915087601f8301126154ca57600080fd5b8135818111156154d957600080fd5b8860208260061b85010111156154ee57600080fd5b60209283019650945090860135908082111561550957600080fd5b50615516878288016153c2565b95989497509550505050565b6000806040838503121561553557600080fd5b61553e836151ab565b915061554c602084016151ab565b90509250929050565b6000806020838503121561556857600080fd5b823567ffffffffffffffff81111561557f57600080fd5b61558b85828601615376565b90969095509350505050565b6000602082840312156155a957600080fd5b612537826151ab565b60ff8116811461185c57600080fd5b60008060008060008060c087890312156155da57600080fd5b6155e3876151ab565b955060208701359450604087013593506060870135615601816155b2565b9598949750929560808101359460a0909101359350915050565b6000806020838503121561562e57600080fd5b823567ffffffffffffffff81111561564557600080fd5b61558b858286016153c2565b7fff00000000000000000000000000000000000000000000000000000000000000881681526000602060e08184015261568d60e084018a61525a565b838103604085015261569f818a61525a565b606085018990526001600160a01b038816608086015260a0850187905284810360c0860152855180825283870192509083019060005b818110156156f1578351835292840192918401916001016156d5565b50909c9b505050505050505050505050565b801515811461185c57600080fd5b6000806040838503121561572457600080fd5b61572d836151ab565b9150602083013561573d81615703565b809150509250929050565b634e487b7160e01b600052604160045260246000fd5b6040805190810167ffffffffffffffff8111828210171561578157615781615748565b60405290565b604051601f8201601f1916810167ffffffffffffffff811182821017156157b0576157b0615748565b604052919050565b600067ffffffffffffffff8211156157d2576157d2615748565b50601f01601f191660200190565b600080600080608085870312156157f657600080fd5b6157ff856151ab565b935061580d602086016151ab565b925060408501359150606085013567ffffffffffffffff81111561583057600080fd5b8501601f8101871361584157600080fd5b803561585461584f826157b8565b615787565b81815288602083850101111561586957600080fd5b8160208401602083013760006020838301015280935050505092959194509250565b6000806040838503121561589e57600080fd5b50508035926020909101359150565b600080600080608085870312156158c357600080fd5b84359350602085013592506040850135915060608501356158e3816155b2565b939692955090935050565b600081518084526020808501945080840160005b8381101561593f578151805180516001600160a01b0316895284015160ff1684890152830151604088015260609096019590820190600101615902565b509495945050505050565b60808152600061595d60808301876158ee565b828103602084015261596f81876158ee565b604084019590955250506060015292915050565b600181811c9082168061599757607f821691505b6020821081036159b757634e487b7160e01b600052602260045260246000fd5b50919050565b634e487b7160e01b600052601160045260246000fd5b63ffffffff818116838216019080821115612b7257612b726159bd565b600060208284031215615a0257600080fd5b8151612537816155b2565b634e487b7160e01b600052603260045260246000fd5b600060408284031215615a3557600080fd5b615a3d61575e565b9050615a48826151ab565b81526020820135615a58816155b2565b602082015292915050565b600060608284031215615a7557600080fd5b615a7d61575e565b615a878484615a23565b815260409290920135602083015250919050565b600060408284031215615aad57600080fd5b6125378383615a23565b6001600160a01b0384811682526040602080840182905283820185905260009260609182860188865b89811015615b215784615af2836151ab565b16835283820135615b02816155b2565b60ff168385015281870135878401529185019190850190600101615ae0565b50909a9950505050505050505050565b8281526040602082015260006130fd604083018461525a565b600060208284031215615b5c57600080fd5b815161253781615203565b60208152816020820152818360408301376000818301604090810191909152601f909201601f19160101919050565b600060208284031215615ba857600080fd5b815167ffffffffffffffff811115615bbf57600080fd5b8201601f81018413615bd057600080fd5b8051615bde61584f826157b8565b818152856020838501011115615bf357600080fd5b615c04826020830160208601615236565b95945050505050565b8082028115828204841417610a1257610a126159bd565b60008351615c36818460208801615236565b835190830190615c4a818360208801615236565b01949350505050565b6001600160801b03828116828216039080821115612b7257612b726159bd565b8082018281126000831280158216821582161715615c9357615c936159bd565b505092915050565b6001600160a01b0384168152606060208201526000615cbd60608301856158ee565b8281036040840152615ccf818561525a565b9695505050505050565b6020808252825182820181905260009190848201906040850190845b81811015615d1a5783516001600160a01b031683529284019291840191600101615cf5565b50909695505050505050565b60006020808385031215615d3957600080fd5b825167ffffffffffffffff80821115615d5157600080fd5b818501915085601f830112615d6557600080fd5b815181811115615d7757615d77615748565b8060051b9150615d88848301615787565b8181529183018401918481019088841115615da257600080fd5b938501935b83851015614d5f57845182529385019390850190615da7565b634e487b7160e01b600052601260045260246000fd5b60ff8281168282160390811115610a1257610a126159bd565b60ff8181168382160190811115610a1257610a126159bd565b600060208284031215615e1a57600080fd5b815161253781615703565b600067ffffffffffffffff808316818103615e4257615e426159bd565b6001019392505050565b634e487b7160e01b600052602160045260246000fd5b60006001600160a01b03808716835280861660208401525083604083015260806060830152615ccf608083018461525a565b81810381811115610a1257610a126159bd565b600082615ec457634e487b7160e01b600052601260045260246000fd5b500490565b80820180821115610a1257610a126159bd565b60008251615eee818460208701615236565b919091019291505056fea2646970667358221220164da83f366cc36e16fc6f70cad30f8fadff42cd78fb2c4517f04fe2dbdef95364736f6c63430008130033",
  "devdoc": {
    "events": {
      "Approval(address,address,uint256)": {
        "details": "Emitted when `owner` enables `approved` to manage the `tokenId` token."
      },
      "ApprovalForAll(address,address,bool)": {
        "details": "Emitted when `owner` enables or disables (`approved`) `operator` to manage all of its assets."
      },
      "EIP712DomainChanged()": {
        "details": "MAY be emitted to signal that the domain could have changed."
      },
      "Transfer(address,address,uint256)": {
        "details": "Emitted when `tokenId` token is transferred from `from` to `to`."
      }
    },
    "kind": "dev",
    "methods": {
      "acceptOwnership()": {
        "details": "The new owner accepts the ownership transfer."
      },
      "approve(address,uint256)": {
        "details": "See {IERC721-approve}."
      },
      "balanceOf(address)": {
        "details": "See {IERC721-balanceOf}."
      },
      "eip712Domain()": {
        "details": "See {EIP-5267}. _Available since v4.9._"
      },
      "getApproved(uint256)": {
        "details": "See {IERC721-getApproved}."
      },
      "isApprovedForAll(address,address)": {
        "details": "See {IERC721-isApprovedForAll}."
      },
      "name()": {
        "details": "See {IERC721Metadata-name}."
      },
      "owner()": {
        "details": "Returns the address of the current owner."
      },
      "ownerOf(uint256)": {
        "details": "See {IERC721-ownerOf}."
      },
      "pendingOwner()": {
        "details": "Returns the address of the pending owner."
      },
      "renounceOwnership()": {
        "details": "Leaves the contract without owner. It will not be possible to call `onlyOwner` functions. Can only be called by the current owner. NOTE: Renouncing ownership will leave the contract without an owner, thereby disabling any functionality that is only available to the owner."
      },
      "safeTransferFrom(address,address,uint256)": {
        "details": "See {IERC721-safeTransferFrom}."
      },
      "safeTransferFrom(address,address,uint256,bytes)": {
        "details": "See {IERC721-safeTransferFrom}."
      },
      "setApprovalForAll(address,bool)": {
        "details": "See {IERC721-setApprovalForAll}."
      },
      "symbol()": {
        "details": "See {IERC721Metadata-symbol}."
      },
      "tokenURI(uint256)": {
        "details": "See {IERC721Metadata-tokenURI}."
      },
      "transferFrom(address,address,uint256)": {
        "details": "See {IERC721-transferFrom}."
      },
      "transferOwnership(address)": {
        "details": "Starts the ownership transfer of the contract to a new account. Replaces the pending transfer if there is one. Can only be called by the current owner."
      }
    },
    "version": 1
  },
  "userdoc": {
    "kind": "user",
    "methods": {},
    "version": 1
  },
  "storageLayout": {
    "storage": [
      {
        "astId": 912,
        "contract": "contracts/LoanPositionManager.sol:LoanPositionManager",
        "label": "_name",
        "offset": 0,
        "slot": "0",
        "type": "t_string_storage"
      },
      {
        "astId": 914,
        "contract": "contracts/LoanPositionManager.sol:LoanPositionManager",
        "label": "_symbol",
        "offset": 0,
        "slot": "1",
        "type": "t_string_storage"
      },
      {
        "astId": 918,
        "contract": "contracts/LoanPositionManager.sol:LoanPositionManager",
        "label": "_owners",
        "offset": 0,
        "slot": "2",
        "type": "t_mapping(t_uint256,t_address)"
      },
      {
        "astId": 922,
        "contract": "contracts/LoanPositionManager.sol:LoanPositionManager",
        "label": "_balances",
        "offset": 0,
        "slot": "3",
        "type": "t_mapping(t_address,t_uint256)"
      },
      {
        "astId": 926,
        "contract": "contracts/LoanPositionManager.sol:LoanPositionManager",
        "label": "_tokenApprovals",
        "offset": 0,
        "slot": "4",
        "type": "t_mapping(t_uint256,t_address)"
      },
      {
        "astId": 932,
        "contract": "contracts/LoanPositionManager.sol:LoanPositionManager",
        "label": "_operatorApprovals",
        "offset": 0,
        "slot": "5",
        "type": "t_mapping(t_address,t_mapping(t_address,t_bool))"
      },
      {
        "astId": 3280,
        "contract": "contracts/LoanPositionManager.sol:LoanPositionManager",
        "label": "_nameFallback",
        "offset": 0,
        "slot": "6",
        "type": "t_string_storage"
      },
      {
        "astId": 3282,
        "contract": "contracts/LoanPositionManager.sol:LoanPositionManager",
        "label": "_versionFallback",
        "offset": 0,
        "slot": "7",
        "type": "t_string_storage"
      },
      {
        "astId": 10456,
        "contract": "contracts/LoanPositionManager.sol:LoanPositionManager",
        "label": "baseURI",
        "offset": 0,
        "slot": "8",
        "type": "t_string_storage"
      },
      {
        "astId": 10459,
        "contract": "contracts/LoanPositionManager.sol:LoanPositionManager",
        "label": "contractURI",
        "offset": 0,
        "slot": "9",
        "type": "t_string_storage"
      },
      {
        "astId": 10463,
        "contract": "contracts/LoanPositionManager.sol:LoanPositionManager",
        "label": "nextId",
        "offset": 0,
        "slot": "10",
        "type": "t_uint256"
      },
      {
        "astId": 10466,
        "contract": "contracts/LoanPositionManager.sol:LoanPositionManager",
        "label": "_lockData",
        "offset": 0,
        "slot": "11",
        "type": "t_struct(LockData)10321_storage"
      },
      {
        "astId": 10473,
        "contract": "contracts/LoanPositionManager.sol:LoanPositionManager",
        "label": "assetDelta",
        "offset": 0,
        "slot": "12",
        "type": "t_mapping(t_address,t_mapping(t_uint256,t_int256))"
      },
      {
        "astId": 7,
        "contract": "contracts/LoanPositionManager.sol:LoanPositionManager",
        "label": "_owner",
        "offset": 0,
        "slot": "13",
        "type": "t_address"
      },
      {
        "astId": 120,
        "contract": "contracts/LoanPositionManager.sol:LoanPositionManager",
        "label": "_pendingOwner",
        "offset": 0,
        "slot": "14",
        "type": "t_address"
      },
      {
        "astId": 6546,
        "contract": "contracts/LoanPositionManager.sol:LoanPositionManager",
        "label": "_couponOwed",
        "offset": 0,
        "slot": "15",
        "type": "t_mapping(t_address,t_mapping(t_uint256,t_uint256))"
      },
      {
        "astId": 6551,
        "contract": "contracts/LoanPositionManager.sol:LoanPositionManager",
        "label": "_loanConfiguration",
        "offset": 0,
        "slot": "16",
        "type": "t_mapping(t_bytes32,t_struct(LoanConfiguration)8545_storage)"
      },
      {
        "astId": 6556,
        "contract": "contracts/LoanPositionManager.sol:LoanPositionManager",
        "label": "_positionMap",
        "offset": 0,
        "slot": "17",
        "type": "t_mapping(t_uint256,t_struct(LoanPosition)10045_storage)"
      },
      {
        "astId": 6560,
        "contract": "contracts/LoanPositionManager.sol:LoanPositionManager",
        "label": "_hooks",
        "offset": 0,
        "slot": "18",
        "type": "t_mapping(t_bytes32,t_address)"
      },
      {
        "astId": 6563,
        "contract": "contracts/LoanPositionManager.sol:LoanPositionManager",
        "label": "treasury",
        "offset": 0,
        "slot": "19",
        "type": "t_address"
      }
    ],
    "types": {
      "t_address": {
        "encoding": "inplace",
        "label": "address",
        "numberOfBytes": "20"
      },
      "t_bool": {
        "encoding": "inplace",
        "label": "bool",
        "numberOfBytes": "1"
      },
      "t_bytes32": {
        "encoding": "inplace",
        "label": "bytes32",
        "numberOfBytes": "32"
      },
      "t_int256": {
        "encoding": "inplace",
        "label": "int256",
        "numberOfBytes": "32"
      },
      "t_mapping(t_address,t_bool)": {
        "encoding": "mapping",
        "key": "t_address",
        "label": "mapping(address => bool)",
        "numberOfBytes": "32",
        "value": "t_bool"
      },
      "t_mapping(t_address,t_mapping(t_address,t_bool))": {
        "encoding": "mapping",
        "key": "t_address",
        "label": "mapping(address => mapping(address => bool))",
        "numberOfBytes": "32",
        "value": "t_mapping(t_address,t_bool)"
      },
      "t_mapping(t_address,t_mapping(t_uint256,t_int256))": {
        "encoding": "mapping",
        "key": "t_address",
        "label": "mapping(address => mapping(uint256 => int256))",
        "numberOfBytes": "32",
        "value": "t_mapping(t_uint256,t_int256)"
      },
      "t_mapping(t_address,t_mapping(t_uint256,t_uint256))": {
        "encoding": "mapping",
        "key": "t_address",
        "label": "mapping(address => mapping(uint256 => uint256))",
        "numberOfBytes": "32",
        "value": "t_mapping(t_uint256,t_uint256)"
      },
      "t_mapping(t_address,t_uint256)": {
        "encoding": "mapping",
        "key": "t_address",
        "label": "mapping(address => uint256)",
        "numberOfBytes": "32",
        "value": "t_uint256"
      },
      "t_mapping(t_bytes32,t_address)": {
        "encoding": "mapping",
        "key": "t_bytes32",
        "label": "mapping(bytes32 => address)",
        "numberOfBytes": "32",
        "value": "t_address"
      },
      "t_mapping(t_bytes32,t_struct(LoanConfiguration)8545_storage)": {
        "encoding": "mapping",
        "key": "t_bytes32",
        "label": "mapping(bytes32 => struct ILoanPositionManagerTypes.LoanConfiguration)",
        "numberOfBytes": "32",
        "value": "t_struct(LoanConfiguration)8545_storage"
      },
      "t_mapping(t_uint256,t_address)": {
        "encoding": "mapping",
        "key": "t_uint256",
        "label": "mapping(uint256 => address)",
        "numberOfBytes": "32",
        "value": "t_address"
      },
      "t_mapping(t_uint256,t_int256)": {
        "encoding": "mapping",
        "key": "t_uint256",
        "label": "mapping(uint256 => int256)",
        "numberOfBytes": "32",
        "value": "t_int256"
      },
      "t_mapping(t_uint256,t_struct(LoanPosition)10045_storage)": {
        "encoding": "mapping",
        "key": "t_uint256",
        "label": "mapping(uint256 => struct LoanPosition)",
        "numberOfBytes": "32",
        "value": "t_struct(LoanPosition)10045_storage"
      },
      "t_mapping(t_uint256,t_uint256)": {
        "encoding": "mapping",
        "key": "t_uint256",
        "label": "mapping(uint256 => uint256)",
        "numberOfBytes": "32",
        "value": "t_uint256"
      },
      "t_string_storage": {
        "encoding": "bytes",
        "label": "string",
        "numberOfBytes": "32"
      },
      "t_struct(LoanConfiguration)8545_storage": {
        "encoding": "inplace",
        "label": "struct ILoanPositionManagerTypes.LoanConfiguration",
        "members": [
          {
            "astId": 8534,
            "contract": "contracts/LoanPositionManager.sol:LoanPositionManager",
            "label": "collateralDecimal",
            "offset": 0,
            "slot": "0",
            "type": "t_uint32"
          },
          {
            "astId": 8536,
            "contract": "contracts/LoanPositionManager.sol:LoanPositionManager",
            "label": "debtDecimal",
            "offset": 4,
            "slot": "0",
            "type": "t_uint32"
          },
          {
            "astId": 8538,
            "contract": "contracts/LoanPositionManager.sol:LoanPositionManager",
            "label": "liquidationThreshold",
            "offset": 8,
            "slot": "0",
            "type": "t_uint32"
          },
          {
            "astId": 8540,
            "contract": "contracts/LoanPositionManager.sol:LoanPositionManager",
            "label": "liquidationFee",
            "offset": 12,
            "slot": "0",
            "type": "t_uint32"
          },
          {
            "astId": 8542,
            "contract": "contracts/LoanPositionManager.sol:LoanPositionManager",
            "label": "liquidationProtocolFee",
            "offset": 16,
            "slot": "0",
            "type": "t_uint32"
          },
          {
            "astId": 8544,
            "contract": "contracts/LoanPositionManager.sol:LoanPositionManager",
            "label": "liquidationTargetLtv",
            "offset": 20,
            "slot": "0",
            "type": "t_uint32"
          }
        ],
        "numberOfBytes": "32"
      },
      "t_struct(LoanPosition)10045_storage": {
        "encoding": "inplace",
        "label": "struct LoanPosition",
        "members": [
          {
            "astId": 10031,
            "contract": "contracts/LoanPositionManager.sol:LoanPositionManager",
            "label": "nonce",
            "offset": 0,
            "slot": "0",
            "type": "t_uint64"
          },
          {
            "astId": 10034,
            "contract": "contracts/LoanPositionManager.sol:LoanPositionManager",
            "label": "expiredWith",
            "offset": 8,
            "slot": "0",
            "type": "t_userDefinedValueType(Epoch)9440"
          },
          {
            "astId": 10036,
            "contract": "contracts/LoanPositionManager.sol:LoanPositionManager",
            "label": "isSettled",
            "offset": 9,
            "slot": "0",
            "type": "t_bool"
          },
          {
            "astId": 10038,
            "contract": "contracts/LoanPositionManager.sol:LoanPositionManager",
            "label": "collateralToken",
            "offset": 10,
            "slot": "0",
            "type": "t_address"
          },
          {
            "astId": 10040,
            "contract": "contracts/LoanPositionManager.sol:LoanPositionManager",
            "label": "debtToken",
            "offset": 0,
            "slot": "1",
            "type": "t_address"
          },
          {
            "astId": 10042,
            "contract": "contracts/LoanPositionManager.sol:LoanPositionManager",
            "label": "collateralAmount",
            "offset": 0,
            "slot": "2",
            "type": "t_uint256"
          },
          {
            "astId": 10044,
            "contract": "contracts/LoanPositionManager.sol:LoanPositionManager",
            "label": "debtAmount",
            "offset": 0,
            "slot": "3",
            "type": "t_uint256"
          }
        ],
        "numberOfBytes": "128"
      },
      "t_struct(LockData)10321_storage": {
        "encoding": "inplace",
        "label": "struct LockData",
        "members": [
          {
            "astId": 10317,
            "contract": "contracts/LoanPositionManager.sol:LoanPositionManager",
            "label": "length",
            "offset": 0,
            "slot": "0",
            "type": "t_uint128"
          },
          {
            "astId": 10320,
            "contract": "contracts/LoanPositionManager.sol:LoanPositionManager",
            "label": "nonzeroDeltaCount",
            "offset": 16,
            "slot": "0",
            "type": "t_uint128"
          }
        ],
        "numberOfBytes": "32"
      },
      "t_uint128": {
        "encoding": "inplace",
        "label": "uint128",
        "numberOfBytes": "16"
      },
      "t_uint256": {
        "encoding": "inplace",
        "label": "uint256",
        "numberOfBytes": "32"
      },
      "t_uint32": {
        "encoding": "inplace",
        "label": "uint32",
        "numberOfBytes": "4"
      },
      "t_uint64": {
        "encoding": "inplace",
        "label": "uint64",
        "numberOfBytes": "8"
      },
      "t_userDefinedValueType(Epoch)9440": {
        "encoding": "inplace",
        "label": "Epoch",
        "numberOfBytes": "1"
      }
    }
  }
}