{
  "address": "0xE0dBCB42CCAc63C949cE3EF879A647DDb662916d",
  "abi": [
    {
      "inputs": [
        {
          "internalType": "address",
          "name": "couponManager_",
          "type": "address"
        },
        {
          "internalType": "address",
          "name": "assetPool_",
          "type": "address"
        },
        {
          "internalType": "address",
          "name": "oracle_",
          "type": "address"
        },
        {
          "internalType": "address",
          "name": "treasury_",
          "type": "address"
        },
        {
          "internalType": "uint256",
          "name": "minDebtValueInEth_",
          "type": "uint256"
        },
        {
          "internalType": "string",
          "name": "baseURI_",
          "type": "string"
        }
      ],
      "stateMutability": "nonpayable",
      "type": "constructor"
    },
    {
      "inputs": [],
      "name": "AlreadyExpired",
      "type": "error"
    },
    {
      "inputs": [],
      "name": "EpochOverflow",
      "type": "error"
    },
    {
      "inputs": [],
      "name": "InvalidAccess",
      "type": "error"
    },
    {
      "inputs": [],
      "name": "InvalidPair",
      "type": "error"
    },
    {
      "inputs": [],
      "name": "InvalidPositionEpoch",
      "type": "error"
    },
    {
      "inputs": [],
      "name": "InvalidShortString",
      "type": "error"
    },
    {
      "inputs": [],
      "name": "InvalidSignature",
      "type": "error"
    },
    {
      "inputs": [],
      "name": "LiquidationThreshold",
      "type": "error"
    },
    {
      "inputs": [
        {
          "internalType": "address",
          "name": "locker",
          "type": "address"
        }
      ],
      "name": "LockedBy",
      "type": "error"
    },
    {
      "inputs": [],
      "name": "NotSettled",
      "type": "error"
    },
    {
      "inputs": [],
      "name": "PermitExpired",
      "type": "error"
    },
    {
      "inputs": [
        {
          "internalType": "string",
          "name": "str",
          "type": "string"
        }
      ],
      "name": "StringTooLong",
      "type": "error"
    },
    {
      "inputs": [],
      "name": "TooSmallDebt",
      "type": "error"
    },
    {
      "inputs": [],
      "name": "UnableToLiquidate",
      "type": "error"
    },
    {
      "inputs": [],
      "name": "UnmatchedPosition",
      "type": "error"
    },
    {
      "inputs": [],
      "name": "UnpaidDebt",
      "type": "error"
    },
    {
      "anonymous": false,
      "inputs": [
        {
          "indexed": true,
          "internalType": "address",
          "name": "owner",
          "type": "address"
        },
        {
          "indexed": true,
          "internalType": "address",
          "name": "approved",
          "type": "address"
        },
        {
          "indexed": true,
          "internalType": "uint256",
          "name": "tokenId",
          "type": "uint256"
        }
      ],
      "name": "Approval",
      "type": "event"
    },
    {
      "anonymous": false,
      "inputs": [
        {
          "indexed": true,
          "internalType": "address",
          "name": "owner",
          "type": "address"
        },
        {
          "indexed": true,
          "internalType": "address",
          "name": "operator",
          "type": "address"
        },
        {
          "indexed": false,
          "internalType": "bool",
          "name": "approved",
          "type": "bool"
        }
      ],
      "name": "ApprovalForAll",
      "type": "event"
    },
    {
      "anonymous": false,
      "inputs": [],
      "name": "EIP712DomainChanged",
      "type": "event"
    },
    {
      "anonymous": false,
      "inputs": [
        {
          "indexed": true,
          "internalType": "uint256",
          "name": "positionId",
          "type": "uint256"
        },
        {
          "indexed": true,
          "internalType": "address",
          "name": "liquidator",
          "type": "address"
        },
        {
          "indexed": false,
          "internalType": "uint256",
          "name": "liquidationAmount",
          "type": "uint256"
        },
        {
          "indexed": false,
          "internalType": "uint256",
          "name": "repayAmount",
          "type": "uint256"
        },
        {
          "indexed": false,
          "internalType": "uint256",
          "name": "protocolFeeAmount",
          "type": "uint256"
        }
      ],
      "name": "LiquidatePosition",
      "type": "event"
    },
    {
      "anonymous": false,
      "inputs": [
        {
          "indexed": true,
          "internalType": "address",
          "name": "previousOwner",
          "type": "address"
        },
        {
          "indexed": true,
          "internalType": "address",
          "name": "newOwner",
          "type": "address"
        }
      ],
      "name": "OwnershipTransferred",
      "type": "event"
    },
    {
      "anonymous": false,
      "inputs": [
        {
          "indexed": true,
          "internalType": "address",
          "name": "collateral",
          "type": "address"
        },
        {
          "indexed": true,
          "internalType": "address",
          "name": "debt",
          "type": "address"
        },
        {
          "indexed": false,
          "internalType": "uint32",
          "name": "liquidationThreshold",
          "type": "uint32"
        },
        {
          "indexed": false,
          "internalType": "uint32",
          "name": "liquidationFee",
          "type": "uint32"
        },
        {
          "indexed": false,
          "internalType": "uint32",
          "name": "liquidationProtocolFee",
          "type": "uint32"
        },
        {
          "indexed": false,
          "internalType": "uint32",
          "name": "liquidationTargetLtv",
          "type": "uint32"
        }
      ],
      "name": "SetLoanConfiguration",
      "type": "event"
    },
    {
      "anonymous": false,
      "inputs": [
        {
          "indexed": true,
          "internalType": "address",
          "name": "from",
          "type": "address"
        },
        {
          "indexed": true,
          "internalType": "address",
          "name": "to",
          "type": "address"
        },
        {
          "indexed": true,
          "internalType": "uint256",
          "name": "tokenId",
          "type": "uint256"
        }
      ],
      "name": "Transfer",
      "type": "event"
    },
    {
      "anonymous": false,
      "inputs": [
        {
          "indexed": true,
          "internalType": "uint256",
          "name": "positionId",
          "type": "uint256"
        },
        {
          "indexed": false,
          "internalType": "uint256",
          "name": "collateralAmount",
          "type": "uint256"
        },
        {
          "indexed": false,
          "internalType": "uint256",
          "name": "debtAmount",
          "type": "uint256"
        },
        {
          "indexed": false,
          "internalType": "Epoch",
          "name": "unlockedAt",
          "type": "uint8"
        }
      ],
      "name": "UpdatePosition",
      "type": "event"
    },
    {
      "inputs": [],
      "name": "DOMAIN_SEPARATOR",
      "outputs": [
        {
          "internalType": "bytes32",
          "name": "",
          "type": "bytes32"
        }
      ],
      "stateMutability": "view",
      "type": "function"
    },
    {
      "inputs": [],
      "name": "PERMIT_TYPEHASH",
      "outputs": [
        {
          "internalType": "bytes32",
          "name": "",
          "type": "bytes32"
        }
      ],
      "stateMutability": "view",
      "type": "function"
    },
    {
      "inputs": [
        {
          "internalType": "uint256",
          "name": "positionId",
          "type": "uint256"
        },
        {
          "internalType": "uint256",
          "name": "collateralAmount",
          "type": "uint256"
        },
        {
          "internalType": "uint256",
          "name": "debtAmount",
          "type": "uint256"
        },
        {
          "internalType": "Epoch",
          "name": "expiredWith",
          "type": "uint8"
        }
      ],
      "name": "adjustPosition",
      "outputs": [
        {
          "components": [
            {
              "components": [
                {
                  "internalType": "address",
                  "name": "asset",
                  "type": "address"
                },
                {
                  "internalType": "Epoch",
                  "name": "epoch",
                  "type": "uint8"
                }
              ],
              "internalType": "struct CouponKey",
              "name": "key",
              "type": "tuple"
            },
            {
              "internalType": "uint256",
              "name": "amount",
              "type": "uint256"
            }
          ],
          "internalType": "struct Coupon[]",
          "name": "couponsToBurn",
          "type": "tuple[]"
        },
        {
          "components": [
            {
              "components": [
                {
                  "internalType": "address",
                  "name": "asset",
                  "type": "address"
                },
                {
                  "internalType": "Epoch",
                  "name": "epoch",
                  "type": "uint8"
                }
              ],
              "internalType": "struct CouponKey",
              "name": "key",
              "type": "tuple"
            },
            {
              "internalType": "uint256",
              "name": "amount",
              "type": "uint256"
            }
          ],
          "internalType": "struct Coupon[]",
          "name": "couponsToMint",
          "type": "tuple[]"
        },
        {
          "internalType": "int256",
          "name": "collateralDelta",
          "type": "int256"
        },
        {
          "internalType": "int256",
          "name": "debtDelta",
          "type": "int256"
        }
      ],
      "stateMutability": "nonpayable",
      "type": "function"
    },
    {
      "inputs": [
        {
          "internalType": "address",
          "name": "to",
          "type": "address"
        },
        {
          "internalType": "uint256",
          "name": "tokenId",
          "type": "uint256"
        }
      ],
      "name": "approve",
      "outputs": [],
      "stateMutability": "nonpayable",
      "type": "function"
    },
    {
      "inputs": [
        {
          "internalType": "address",
          "name": "locker",
          "type": "address"
        },
        {
          "internalType": "uint256",
          "name": "assetId",
          "type": "uint256"
        }
      ],
      "name": "assetDelta",
      "outputs": [
        {
          "internalType": "int256",
          "name": "delta",
          "type": "int256"
        }
      ],
      "stateMutability": "view",
      "type": "function"
    },
    {
      "inputs": [],
      "name": "assetPool",
      "outputs": [
        {
          "internalType": "address",
          "name": "",
          "type": "address"
        }
      ],
      "stateMutability": "view",
      "type": "function"
    },
    {
      "inputs": [
        {
          "internalType": "address",
          "name": "owner",
          "type": "address"
        }
      ],
      "name": "balanceOf",
      "outputs": [
        {
          "internalType": "uint256",
          "name": "",
          "type": "uint256"
        }
      ],
      "stateMutability": "view",
      "type": "function"
    },
    {
      "inputs": [],
      "name": "baseURI",
      "outputs": [
        {
          "internalType": "string",
          "name": "",
          "type": "string"
        }
      ],
      "stateMutability": "view",
      "type": "function"
    },
    {
      "inputs": [
        {
          "components": [
            {
              "components": [
                {
                  "internalType": "address",
                  "name": "asset",
                  "type": "address"
                },
                {
                  "internalType": "Epoch",
                  "name": "epoch",
                  "type": "uint8"
                }
              ],
              "internalType": "struct CouponKey",
              "name": "key",
              "type": "tuple"
            },
            {
              "internalType": "uint256",
              "name": "amount",
              "type": "uint256"
            }
          ],
          "internalType": "struct Coupon[]",
          "name": "coupons",
          "type": "tuple[]"
        }
      ],
      "name": "burnCoupons",
      "outputs": [],
      "stateMutability": "nonpayable",
      "type": "function"
    },
    {
      "inputs": [
        {
          "components": [
            {
              "internalType": "address",
              "name": "asset",
              "type": "address"
            },
            {
              "internalType": "Epoch",
              "name": "epoch",
              "type": "uint8"
            }
          ],
          "internalType": "struct CouponKey[]",
          "name": "couponKeys",
          "type": "tuple[]"
        },
        {
          "internalType": "bytes",
          "name": "data",
          "type": "bytes"
        }
      ],
      "name": "claimOwedCoupons",
      "outputs": [],
      "stateMutability": "nonpayable",
      "type": "function"
    },
    {
      "inputs": [
        {
          "internalType": "address",
          "name": "token",
          "type": "address"
        },
        {
          "internalType": "uint256",
          "name": "amount",
          "type": "uint256"
        }
      ],
      "name": "depositToken",
      "outputs": [],
      "stateMutability": "nonpayable",
      "type": "function"
    },
    {
      "inputs": [],
      "name": "eip712Domain",
      "outputs": [
        {
          "internalType": "bytes1",
          "name": "fields",
          "type": "bytes1"
        },
        {
          "internalType": "string",
          "name": "name",
          "type": "string"
        },
        {
          "internalType": "string",
          "name": "version",
          "type": "string"
        },
        {
          "internalType": "uint256",
          "name": "chainId",
          "type": "uint256"
        },
        {
          "internalType": "address",
          "name": "verifyingContract",
          "type": "address"
        },
        {
          "internalType": "bytes32",
          "name": "salt",
          "type": "bytes32"
        },
        {
          "internalType": "uint256[]",
          "name": "extensions",
          "type": "uint256[]"
        }
      ],
      "stateMutability": "view",
      "type": "function"
    },
    {
      "inputs": [
        {
          "internalType": "uint256",
          "name": "tokenId",
          "type": "uint256"
        }
      ],
      "name": "getApproved",
      "outputs": [
        {
          "internalType": "address",
          "name": "",
          "type": "address"
        }
      ],
      "stateMutability": "view",
      "type": "function"
    },
    {
      "inputs": [
        {
          "internalType": "uint256",
          "name": "positionId",
          "type": "uint256"
        },
        {
          "internalType": "uint256",
          "name": "maxRepayAmount",
          "type": "uint256"
        }
      ],
      "name": "getLiquidationStatus",
      "outputs": [
        {
          "internalType": "uint256",
          "name": "",
          "type": "uint256"
        },
        {
          "internalType": "uint256",
          "name": "",
          "type": "uint256"
        },
        {
          "internalType": "uint256",
          "name": "",
          "type": "uint256"
        }
      ],
      "stateMutability": "view",
      "type": "function"
    },
    {
      "inputs": [
        {
          "internalType": "address",
          "name": "collateral",
          "type": "address"
        },
        {
          "internalType": "address",
          "name": "debt",
          "type": "address"
        }
      ],
      "name": "getLoanConfiguration",
      "outputs": [
        {
          "components": [
            {
              "internalType": "uint32",
              "name": "collateralDecimal",
              "type": "uint32"
            },
            {
              "internalType": "uint32",
              "name": "debtDecimal",
              "type": "uint32"
            },
            {
              "internalType": "uint32",
              "name": "liquidationThreshold",
              "type": "uint32"
            },
            {
              "internalType": "uint32",
              "name": "liquidationFee",
              "type": "uint32"
            },
            {
              "internalType": "uint32",
              "name": "liquidationProtocolFee",
              "type": "uint32"
            },
            {
              "internalType": "uint32",
              "name": "liquidationTargetLtv",
              "type": "uint32"
            }
          ],
          "internalType": "struct ILoanPositionManagerTypes.LoanConfiguration",
          "name": "",
          "type": "tuple"
        }
      ],
      "stateMutability": "view",
      "type": "function"
    },
    {
      "inputs": [
        {
          "internalType": "address",
          "name": "user",
          "type": "address"
        },
        {
          "internalType": "uint256",
          "name": "couponId",
          "type": "uint256"
        }
      ],
      "name": "getOwedCouponAmount",
      "outputs": [
        {
          "internalType": "uint256",
          "name": "",
          "type": "uint256"
        }
      ],
      "stateMutability": "view",
      "type": "function"
    },
    {
      "inputs": [
        {
          "internalType": "uint256",
          "name": "positionId",
          "type": "uint256"
        }
      ],
      "name": "getPosition",
      "outputs": [
        {
          "components": [
            {
              "internalType": "uint64",
              "name": "nonce",
              "type": "uint64"
            },
            {
              "internalType": "Epoch",
              "name": "expiredWith",
              "type": "uint8"
            },
            {
              "internalType": "bool",
              "name": "isSettled",
              "type": "bool"
            },
            {
              "internalType": "address",
              "name": "collateralToken",
              "type": "address"
            },
            {
              "internalType": "address",
              "name": "debtToken",
              "type": "address"
            },
            {
              "internalType": "uint256",
              "name": "collateralAmount",
              "type": "uint256"
            },
            {
              "internalType": "uint256",
              "name": "debtAmount",
              "type": "uint256"
            }
          ],
          "internalType": "struct LoanPosition",
          "name": "",
          "type": "tuple"
        }
      ],
      "stateMutability": "view",
      "type": "function"
    },
    {
      "inputs": [
        {
          "internalType": "address",
          "name": "owner",
          "type": "address"
        },
        {
          "internalType": "address",
          "name": "operator",
          "type": "address"
        }
      ],
      "name": "isApprovedForAll",
      "outputs": [
        {
          "internalType": "bool",
          "name": "",
          "type": "bool"
        }
      ],
      "stateMutability": "view",
      "type": "function"
    },
    {
      "inputs": [
        {
          "internalType": "address",
          "name": "collateral",
          "type": "address"
        },
        {
          "internalType": "address",
          "name": "debt",
          "type": "address"
        }
      ],
      "name": "isPairRegistered",
      "outputs": [
        {
          "internalType": "bool",
          "name": "",
          "type": "bool"
        }
      ],
      "stateMutability": "view",
      "type": "function"
    },
    {
      "inputs": [
        {
          "internalType": "uint256",
          "name": "positionId",
          "type": "uint256"
        },
        {
          "internalType": "uint256",
          "name": "maxRepayAmount",
          "type": "uint256"
        }
      ],
      "name": "liquidate",
      "outputs": [
        {
          "internalType": "uint256",
          "name": "liquidationAmount",
          "type": "uint256"
        },
        {
          "internalType": "uint256",
          "name": "repayAmount",
          "type": "uint256"
        },
        {
          "internalType": "uint256",
          "name": "protocolFeeAmount",
          "type": "uint256"
        }
      ],
      "stateMutability": "nonpayable",
      "type": "function"
    },
    {
      "inputs": [
        {
          "internalType": "bytes",
          "name": "data",
          "type": "bytes"
        }
      ],
      "name": "lock",
      "outputs": [
        {
          "internalType": "bytes",
          "name": "result",
          "type": "bytes"
        }
      ],
      "stateMutability": "nonpayable",
      "type": "function"
    },
    {
      "inputs": [],
      "name": "lockData",
      "outputs": [
        {
          "internalType": "uint128",
          "name": "",
          "type": "uint128"
        },
        {
          "internalType": "uint128",
          "name": "",
          "type": "uint128"
        }
      ],
      "stateMutability": "view",
      "type": "function"
    },
    {
      "inputs": [],
      "name": "minDebtValueInEth",
      "outputs": [
        {
          "internalType": "uint256",
          "name": "",
          "type": "uint256"
        }
      ],
      "stateMutability": "view",
      "type": "function"
    },
    {
      "inputs": [
        {
          "internalType": "address",
          "name": "collateralToken",
          "type": "address"
        },
        {
          "internalType": "address",
          "name": "debtToken",
          "type": "address"
        }
      ],
      "name": "mint",
      "outputs": [
        {
          "internalType": "uint256",
          "name": "positionId",
          "type": "uint256"
        }
      ],
      "stateMutability": "nonpayable",
      "type": "function"
    },
    {
      "inputs": [
        {
          "components": [
            {
              "components": [
                {
                  "internalType": "address",
                  "name": "asset",
                  "type": "address"
                },
                {
                  "internalType": "Epoch",
                  "name": "epoch",
                  "type": "uint8"
                }
              ],
              "internalType": "struct CouponKey",
              "name": "key",
              "type": "tuple"
            },
            {
              "internalType": "uint256",
              "name": "amount",
              "type": "uint256"
            }
          ],
          "internalType": "struct Coupon[]",
          "name": "coupons",
          "type": "tuple[]"
        },
        {
          "internalType": "address",
          "name": "to",
          "type": "address"
        },
        {
          "internalType": "bytes",
          "name": "data",
          "type": "bytes"
        }
      ],
      "name": "mintCoupons",
      "outputs": [],
      "stateMutability": "nonpayable",
      "type": "function"
    },
    {
      "inputs": [],
      "name": "name",
      "outputs": [
        {
          "internalType": "string",
          "name": "",
          "type": "string"
        }
      ],
      "stateMutability": "view",
      "type": "function"
    },
    {
      "inputs": [],
      "name": "nextId",
      "outputs": [
        {
          "internalType": "uint256",
          "name": "",
          "type": "uint256"
        }
      ],
      "stateMutability": "view",
      "type": "function"
    },
    {
      "inputs": [
        {
          "internalType": "uint256",
          "name": "positionId",
          "type": "uint256"
        }
      ],
      "name": "nonces",
      "outputs": [
        {
          "internalType": "uint256",
          "name": "",
          "type": "uint256"
        }
      ],
      "stateMutability": "view",
      "type": "function"
    },
    {
      "inputs": [],
      "name": "oracle",
      "outputs": [
        {
          "internalType": "address",
          "name": "",
          "type": "address"
        }
      ],
      "stateMutability": "view",
      "type": "function"
    },
    {
      "inputs": [],
      "name": "owner",
      "outputs": [
        {
          "internalType": "address",
          "name": "",
          "type": "address"
        }
      ],
      "stateMutability": "view",
      "type": "function"
    },
    {
      "inputs": [
        {
          "internalType": "uint256",
          "name": "tokenId",
          "type": "uint256"
        }
      ],
      "name": "ownerOf",
      "outputs": [
        {
          "internalType": "address",
          "name": "",
          "type": "address"
        }
      ],
      "stateMutability": "view",
      "type": "function"
    },
    {
      "inputs": [
        {
          "internalType": "address",
          "name": "spender",
          "type": "address"
        },
        {
          "internalType": "uint256",
          "name": "tokenId",
          "type": "uint256"
        },
        {
          "internalType": "uint256",
          "name": "deadline",
          "type": "uint256"
        },
        {
          "internalType": "uint8",
          "name": "v",
          "type": "uint8"
        },
        {
          "internalType": "bytes32",
          "name": "r",
          "type": "bytes32"
        },
        {
          "internalType": "bytes32",
          "name": "s",
          "type": "bytes32"
        }
      ],
      "name": "permit",
      "outputs": [],
      "stateMutability": "payable",
      "type": "function"
    },
    {
      "inputs": [],
      "name": "renounceOwnership",
      "outputs": [],
      "stateMutability": "nonpayable",
      "type": "function"
    },
    {
      "inputs": [
        {
          "internalType": "address",
          "name": "from",
          "type": "address"
        },
        {
          "internalType": "address",
          "name": "to",
          "type": "address"
        },
        {
          "internalType": "uint256",
          "name": "tokenId",
          "type": "uint256"
        }
      ],
      "name": "safeTransferFrom",
      "outputs": [],
      "stateMutability": "nonpayable",
      "type": "function"
    },
    {
      "inputs": [
        {
          "internalType": "address",
          "name": "from",
          "type": "address"
        },
        {
          "internalType": "address",
          "name": "to",
          "type": "address"
        },
        {
          "internalType": "uint256",
          "name": "tokenId",
          "type": "uint256"
        },
        {
          "internalType": "bytes",
          "name": "data",
          "type": "bytes"
        }
      ],
      "name": "safeTransferFrom",
      "outputs": [],
      "stateMutability": "nonpayable",
      "type": "function"
    },
    {
      "inputs": [
        {
          "internalType": "address",
          "name": "operator",
          "type": "address"
        },
        {
          "internalType": "bool",
          "name": "approved",
          "type": "bool"
        }
      ],
      "name": "setApprovalForAll",
      "outputs": [],
      "stateMutability": "nonpayable",
      "type": "function"
    },
    {
      "inputs": [
        {
          "internalType": "address",
          "name": "collateral",
          "type": "address"
        },
        {
          "internalType": "address",
          "name": "debt",
          "type": "address"
        },
        {
          "internalType": "uint32",
          "name": "liquidationThreshold",
          "type": "uint32"
        },
        {
          "internalType": "uint32",
          "name": "liquidationFee",
          "type": "uint32"
        },
        {
          "internalType": "uint32",
          "name": "liquidationProtocolFee",
          "type": "uint32"
        },
        {
          "internalType": "uint32",
          "name": "liquidationTargetLtv",
          "type": "uint32"
        }
      ],
      "name": "setLoanConfiguration",
      "outputs": [],
      "stateMutability": "nonpayable",
      "type": "function"
    },
    {
      "inputs": [
        {
          "internalType": "uint256",
          "name": "positionId",
          "type": "uint256"
        }
      ],
      "name": "settlePosition",
      "outputs": [],
      "stateMutability": "nonpayable",
      "type": "function"
    },
    {
      "inputs": [
        {
          "internalType": "bytes4",
          "name": "interfaceId",
          "type": "bytes4"
        }
      ],
      "name": "supportsInterface",
      "outputs": [
        {
          "internalType": "bool",
          "name": "",
          "type": "bool"
        }
      ],
      "stateMutability": "view",
      "type": "function"
    },
    {
      "inputs": [],
      "name": "symbol",
      "outputs": [
        {
          "internalType": "string",
          "name": "",
          "type": "string"
        }
      ],
      "stateMutability": "view",
      "type": "function"
    },
    {
      "inputs": [
        {
          "internalType": "uint256",
          "name": "tokenId",
          "type": "uint256"
        }
      ],
      "name": "tokenURI",
      "outputs": [
        {
          "internalType": "string",
          "name": "",
          "type": "string"
        }
      ],
      "stateMutability": "view",
      "type": "function"
    },
    {
      "inputs": [
        {
          "internalType": "address",
          "name": "from",
          "type": "address"
        },
        {
          "internalType": "address",
          "name": "to",
          "type": "address"
        },
        {
          "internalType": "uint256",
          "name": "tokenId",
          "type": "uint256"
        }
      ],
      "name": "transferFrom",
      "outputs": [],
      "stateMutability": "nonpayable",
      "type": "function"
    },
    {
      "inputs": [
        {
          "internalType": "address",
          "name": "newOwner",
          "type": "address"
        }
      ],
      "name": "transferOwnership",
      "outputs": [],
      "stateMutability": "nonpayable",
      "type": "function"
    },
    {
      "inputs": [],
      "name": "treasury",
      "outputs": [
        {
          "internalType": "address",
          "name": "",
          "type": "address"
        }
      ],
      "stateMutability": "view",
      "type": "function"
    },
    {
      "inputs": [
        {
          "internalType": "address",
          "name": "token",
          "type": "address"
        },
        {
          "internalType": "address",
          "name": "to",
          "type": "address"
        },
        {
          "internalType": "uint256",
          "name": "amount",
          "type": "uint256"
        }
      ],
      "name": "withdrawToken",
      "outputs": [],
      "stateMutability": "nonpayable",
      "type": "function"
    }
  ],
  "transactionHash": "0x8b94c8efaee4b76e1c66f528da0b00156640e80bc485ade706d07605ece38e4d",
  "args": [
    "0x929075bdc8cf2e43cA7FB4BF1a189130b6014Cc1",
    "0x92bb5C37868C5B34B163FeFAb4e20b1179853eB9",
    "0x8831c769874fF23ED5DF0daacfD84Cc147335506",
    "0x000000000000000000000000000000000000dEaD",
    "1000000000000000",
    "LOAN_BASE_URI"
  ],
  "numDeployments": 1,
  "solcInputHash": "7479731586e5356f66333c5929b137f8",
  "bytecode": "0x61020060405260016009553480156200001757600080fd5b50604051620066a4380380620066a48339810160408190526200003a9162000315565b8585826040518060400160405280600d81526020016c2637b0b7102837b9b4ba34b7b760991b8152506040518060400160405280600281526020016104c560f41b8152508181604051806040016040528060018152602001603160f81b815250828184848160009081620000af9190620004b2565b506001620000be8282620004b2565b50620000d091508390506006620001e1565b61012052620000e1816007620001e1565b61014052815160208084019190912060e052815190820120610100524660a0526200016f60e05161010051604080517f8b73c3c69bb8fe3d512ecc4cf759cc79239f7b179b0ffacaa9a75d522b39400f60208201529081019290925260608201524660808201523060a082015260009060c00160405160208183030381529060405280519060200120905090565b60805250503060c0525050506001600160a01b038581166101605284166101805260086200019e8482620004b2565b505050505050620001be620001b86200021a60201b60201c565b6200021e565b506001600160a01b039283166101a05291166101c0526101e05250620005d89050565b60006020835110156200020157620001f98362000270565b905062000214565b816200020e8482620004b2565b5060ff90505b92915050565b3390565b600c80546001600160a01b038381166001600160a01b0319831681179093556040519116919082907f8be0079c531659141344cd1fd0a4f28419497f9722a3daafe3b4186f6b6457e090600090a35050565b600080829050601f81511115620002a7578260405163305a27a960e01b81526004016200029e91906200057e565b60405180910390fd5b8051620002b482620005b3565b179392505050565b80516001600160a01b0381168114620002d457600080fd5b919050565b634e487b7160e01b600052604160045260246000fd5b60005b838110156200030c578181015183820152602001620002f2565b50506000910152565b60008060008060008060c087890312156200032f57600080fd5b6200033a87620002bc565b95506200034a60208801620002bc565b94506200035a60408801620002bc565b93506200036a60608801620002bc565b608088015160a089015191945092506001600160401b03808211156200038f57600080fd5b818901915089601f830112620003a457600080fd5b815181811115620003b957620003b9620002d9565b604051601f8201601f19908116603f01168101908382118183101715620003e457620003e4620002d9565b816040528281528c6020848701011115620003fe57600080fd5b62000411836020830160208801620002ef565b80955050505050509295509295509295565b600181811c908216806200043857607f821691505b6020821081036200045957634e487b7160e01b600052602260045260246000fd5b50919050565b601f821115620004ad57600081815260208120601f850160051c81016020861015620004885750805b601f850160051c820191505b81811015620004a95782815560010162000494565b5050505b505050565b81516001600160401b03811115620004ce57620004ce620002d9565b620004e681620004df845462000423565b846200045f565b602080601f8311600181146200051e5760008415620005055750858301515b600019600386901b1c1916600185901b178555620004a9565b600085815260208120601f198616915b828110156200054f578886015182559484019460019091019084016200052e565b50858210156200056e5787850151600019600388901b60f8161c191681555b5050505050600190811b01905550565b60208152600082518060208401526200059f816040850160208701620002ef565b601f01601f19169190910160400192915050565b80516020808301519190811015620004595760001960209190910360031b1b16919050565b60805160a05160c05160e05161010051610120516101405161016051610180516101a0516101c0516101e051615ffb620006a9600039600081816109160152613acc01526000818161061001526129d60152600081816106f90152613a1101526000818161049f01528181610bd40152818161157401526129fe01526000818161124d01528181611431015281816117500152612bb001526000611db501526000611d8a015260006135db015260006135b30152600061350e01526000613538015260006135620152615ffb6000f3fe6080604052600436106102f25760003560e01c806370a082311161018f578063b88d4fde116100e1578063de0bb9331161008a578063ee1fe2ad11610064578063ee1fe2ad14610ad2578063f2fde38b14610af2578063f8fcd15614610b1257600080fd5b8063de0bb93314610904578063e985e9c514610938578063eb02c3011461098157600080fd5b8063c1f48676116100bb578063c1f48676146108a4578063c87b56dd146108c4578063d296d1f1146108e457600080fd5b8063b88d4fde14610819578063bb4c831e14610839578063c18927c51461087457600080fd5b806384b0196e11610143578063a22cb4651161011d578063a22cb46514610796578063aba5b4b3146107b6578063af2b68c5146107d657600080fd5b806384b0196e1461073b5780638da5cb5b1461076357806395d89b411461078157600080fd5b80637ac2ff7b116101745780637ac2ff7b146106d45780637dc0d1d0146106e7578063815483191461071b57600080fd5b806370a082311461069f578063715018a6146106bf57600080fd5b806330adf81f11610248578063430c114b116101fc5780636352211e116101d65780636352211e146106325780636af6dbf4146106525780636c0360eb1461068a57600080fd5b8063430c114b146105c857806361b8ce8c146105e857806361d027b3146105fe57600080fd5b8063350a951a1161022d578063350a951a146105155780633644e5151461059357806342842e0e146105a857600080fd5b806330adf81f146104c1578063338b5dea146104f557600080fd5b80630a5a9a5a116102aa5780631ad4fbb8116102845780631ad4fbb81461044d57806323b872dd1461046d5780632ec939f91461048d57600080fd5b80630a5a9a5a146103c85780630f0b0765146103e8578063141a468c1461040857600080fd5b806306fdde03116102db57806306fdde031461034e578063081812fc14610370578063095ea7b3146103a857600080fd5b806301e33667146102f757806301ffc9a714610319575b600080fd5b34801561030357600080fd5b50610317610312366004615244565b610b49565b005b34801561032557600080fd5b50610339610334366004615296565b610c36565b60405190151581526020015b60405180910390f35b34801561035a57600080fd5b50610363610c7a565b6040516103459190615303565b34801561037c57600080fd5b5061039061038b366004615316565b610d0c565b6040516001600160a01b039091168152602001610345565b3480156103b457600080fd5b506103176103c336600461532f565b610d33565b3480156103d457600080fd5b506103176103e336600461536d565b610e64565b3480156103f457600080fd5b50610317610403366004615468565b611189565b34801561041457600080fd5b5061043f610423366004615316565b6000908152600f602052604090205467ffffffffffffffff1690565b604051908152602001610345565b34801561045957600080fd5b506103176104683660046154ec565b6112c4565b34801561047957600080fd5b50610317610488366004615244565b6114a5565b34801561049957600080fd5b506103907f000000000000000000000000000000000000000000000000000000000000000081565b3480156104cd57600080fd5b5061043f7f49ecf333e5b8c95c40fdafc95c1ad136e8914a8fb55e9dc8bb01eaa83a2df9ad81565b34801561050157600080fd5b5061031761051036600461532f565b61151c565b34801561052157600080fd5b50610535610530366004615586565b6115b4565b6040516103459190600060c08201905063ffffffff8084511683528060208501511660208401528060408501511660408401528060608501511660608401528060808501511660808401528060a08501511660a08401525092915050565b34801561059f57600080fd5b5061043f6116b4565b3480156105b457600080fd5b506103176105c3366004615244565b6116c3565b3480156105d457600080fd5b506103176105e33660046155b9565b6116de565b3480156105f457600080fd5b5061043f60095481565b34801561060a57600080fd5b506103907f000000000000000000000000000000000000000000000000000000000000000081565b34801561063e57600080fd5b5061039061064d366004615316565b61180a565b34801561065e57600080fd5b5061043f61066d36600461532f565b600b60209081526000928352604080842090915290825290205481565b34801561069657600080fd5b5061036361186f565b3480156106ab57600080fd5b5061043f6106ba3660046155fb565b6118fd565b3480156106cb57600080fd5b50610317611997565b6103176106e2366004615625565b6119ab565b3480156106f357600080fd5b506103907f000000000000000000000000000000000000000000000000000000000000000081565b34801561072757600080fd5b5061036361073636600461567f565b611c18565b34801561074757600080fd5b50610750611d7c565b60405161034597969594939291906156b5565b34801561076f57600080fd5b50600c546001600160a01b0316610390565b34801561078d57600080fd5b50610363611e21565b3480156107a257600080fd5b506103176107b1366004615775565b611e30565b3480156107c257600080fd5b506103176107d1366004615316565b611e3f565b3480156107e257600080fd5b5061043f6107f136600461532f565b6001600160a01b03919091166000908152600d60209081526040808320938352929052205490565b34801561082557600080fd5b50610317610834366004615844565b6121a0565b34801561084557600080fd5b506108596108543660046158ef565b612218565b60408051938452602084019290925290820152606001610345565b34801561088057600080fd5b5061089461088f366004615911565b6122c7565b60405161034594939291906159ae565b3480156108b057600080fd5b506103396108bf366004615586565b6126df565b3480156108d057600080fd5b506103636108df366004615316565b6126f3565b3480156108f057600080fd5b506108596108ff3660046158ef565b61275a565b34801561091057600080fd5b5061043f7f000000000000000000000000000000000000000000000000000000000000000081565b34801561094457600080fd5b50610339610953366004615586565b6001600160a01b03918216600090815260056020908152604080832093909416825291909152205460ff1690565b34801561098d57600080fd5b50610a5e61099c366004615316565b6040805160e081018252600080825260208201819052918101829052606081018290526080810182905260a0810182905260c0810191909152506000908152600f6020908152604091829020825160e081018452815467ffffffffffffffff8116825260ff600160401b8204811694830194909452600160481b81049093161515938101939093526001600160a01b03600160501b9092048216606084015260018101549091166080830152600281015460a08301526003015460c082015290565b6040516103459190600060e08201905067ffffffffffffffff835116825260ff602084015116602083015260408301511515604083015260608301516001600160a01b038082166060850152806080860151166080850152505060a083015160a083015260c083015160c083015292915050565b348015610ade57600080fd5b5061043f610aed366004615586565b612d4b565b348015610afe57600080fd5b50610317610b0d3660046155fb565b612e39565b348015610b1e57600080fd5b50600a54604080516001600160801b038084168252600160801b909304909216602083015201610345565b6000610b55600a612ec9565b9050336001600160a01b03821614610b90576040516313d2c13360e21b81526001600160a01b03821660048201526024015b60405180910390fd5b610ba5846001600160a01b0316836000612f16565b50604051631a4ca37b60e21b81526001600160a01b0385811660048301526024820184905284811660448301527f000000000000000000000000000000000000000000000000000000000000000016906369328dec90606401600060405180830381600087803b158015610c1857600080fd5b505af1158015610c2c573d6000803e3d6000fd5b5050505050505050565b60006001600160e01b031982167f6831a4fd000000000000000000000000000000000000000000000000000000001480610c745750610c7482613025565b92915050565b606060008054610c89906159e7565b80601f0160208091040260200160405190810160405280929190818152602001828054610cb5906159e7565b8015610d025780601f10610cd757610100808354040283529160200191610d02565b820191906000526020600020905b815481529060010190602001808311610ce557829003601f168201915b5050505050905090565b6000610d17826130c0565b506000908152600460205260409020546001600160a01b031690565b6000610d3e8261180a565b9050806001600160a01b0316836001600160a01b031603610dc75760405162461bcd60e51b815260206004820152602160248201527f4552433732313a20617070726f76616c20746f2063757272656e74206f776e6560448201527f72000000000000000000000000000000000000000000000000000000000000006064820152608401610b87565b336001600160a01b0382161480610de35750610de38133610953565b610e555760405162461bcd60e51b815260206004820152603d60248201527f4552433732313a20617070726f76652063616c6c6572206973206e6f7420746f60448201527f6b656e206f776e6572206f7220617070726f76656420666f7220616c6c0000006064820152608401610b87565b610e5f8383613124565b505050565b610e6c613192565b60408051606088811b6bffffffffffffffffffffffff199081166020808501919091529189901b16603483015282516028818403018152604890920190925280519101206000906000818152600e6020526040902054909150600160401b900463ffffffff1615610ef057604051630793df6360e21b815260040160405180910390fd5b6040518060c00160405280886001600160a01b031663313ce5676040518163ffffffff1660e01b8152600401602060405180830381865afa158015610f39573d6000803e3d6000fd5b505050506040513d601f19601f82011682018060405250810190610f5d9190615a21565b60ff1663ffffffff168152602001876001600160a01b031663313ce5676040518163ffffffff1660e01b8152600401602060405180830381865afa158015610fa9573d6000803e3d6000fd5b505050506040513d601f19601f82011682018060405250810190610fcd9190615a21565b60ff16815263ffffffff8781166020808401919091528782166040808501919091528783166060808601919091528784166080958601526000878152600e8452829020865181549488015188850151938901519789015160a0909901518716600160a01b027fffffffffffffffff00000000ffffffffffffffffffffffffffffffffffffffff998816600160801b02999099167fffffffffffffffff0000000000000000ffffffffffffffffffffffffffffffff988816600160601b027fffffffffffffffffffffffffffffffff00000000ffffffffffffffffffffffff958916600160401b02959095167fffffffffffffffffffffffffffffffff0000000000000000ffffffffffffffff9289166401000000000267ffffffffffffffff19909816939098169290921795909517949094169490941717939093161792909217909155516001600160a01b0380881691908916907ff603a35b218903704c6a49441ff6b83ae5faeba8f4377ed380cb006c34824d649061117890899089908990899063ffffffff948516815292841660208401529083166040830152909116606082015260800190565b60405180910390a350505050505050565b6000611195600a612ec9565b9050336001600160a01b038216146111cb576040516313d2c13360e21b81526001600160a01b0382166004820152602401610b87565b60005b858110156112355761122c6112098888848181106111ee576111ee615a3e565b9050606002018036038101906112049190615a94565b6131ec565b88888481811061121b5761121b615a3e565b905060600201604001356000612f16565b506001016111ce565b50604051633ee44b0f60e01b81526001600160a01b037f00000000000000000000000000000000000000000000000000000000000000001690633ee44b0f9061128a9087908a908a9089908990600401615b51565b600060405180830381600087803b1580156112a457600080fd5b505af11580156112b8573d6000803e3d6000fd5b50505050505050505050565b60008367ffffffffffffffff8111156112df576112df6157ac565b60405190808252806020026020018201604052801561133357816020015b60408051608081018252600091810182815260608201839052815260208101919091528152602001906001900390816112fd5790505b50905060005b8481101561141957600061137f87878481811061135857611358615a3e565b90506040020180360381019061136e9190615b87565b6020810151905160a09190911b0190565b9050604051806040016040528088888581811061139e5761139e615a3e565b9050604002018036038101906113b49190615b87565b8152336000908152600d6020908152604080832086845282529091205491015283518490849081106113e8576113e8615a3e565b602090810291909101810191909152336000908152600d825260408082209382529290915290812055600101611339565b50604051633ee44b0f60e01b81526001600160a01b037f00000000000000000000000000000000000000000000000000000000000000001690633ee44b0f9061146c903390859088908890600401615ba3565b600060405180830381600087803b15801561148657600080fd5b505af115801561149a573d6000803e3d6000fd5b505050505050505050565b6114af3382613201565b6115115760405162461bcd60e51b815260206004820152602d60248201527f4552433732313a2063616c6c6572206973206e6f7420746f6b656e206f776e6560448201526c1c881bdc88185c1c1c9bdd9959609a1b6064820152608401610b87565b610e5f838383613280565b6000611528600a612ec9565b9050336001600160a01b0382161461155e576040516313d2c13360e21b81526001600160a01b0382166004820152602401610b87565b8115610e5f576115996001600160a01b038416337f000000000000000000000000000000000000000000000000000000000000000085613479565b6115ae836001600160a01b0316600084612f16565b50505050565b6040805160c081018252600080825260208201819052918101829052606081018290526080810182905260a0810191909152600e600061163985856040516bffffffffffffffffffffffff19606084811b8216602084015283901b16603482015260009060480160405160208183030381529060405280519060200120905092915050565b81526020808201929092526040908101600020815160c081018352905463ffffffff80821683526401000000008204811694830194909452600160401b8104841692820192909252600160601b820483166060820152600160801b820483166080820152600160a01b90910490911660a08201529392505050565b60006116be613501565b905090565b610e5f838383604051806020016040528060008152506121a0565b60006116ea600a612ec9565b9050336001600160a01b03821614611720576040516313d2c13360e21b81526001600160a01b0382166004820152602401610b87565b6040517fca6ce7ea0000000000000000000000000000000000000000000000000000000081526001600160a01b037f0000000000000000000000000000000000000000000000000000000000000000169063ca6ce7ea9061178990339087908790600401615bd8565b600060405180830381600087803b1580156117a357600080fd5b505af11580156117b7573d6000803e3d6000fd5b5050505060005b828110156115ae576118016117de8585848181106111ee576111ee615a3e565b60008686858181106117f2576117f2615a3e565b90506060020160400135612f16565b506001016117be565b6000818152600260205260408120546001600160a01b031680610c745760405162461bcd60e51b815260206004820152601860248201527f4552433732313a20696e76616c696420746f6b656e20494400000000000000006044820152606401610b87565b6008805461187c906159e7565b80601f01602080910402602001604051908101604052809291908181526020018280546118a8906159e7565b80156118f55780601f106118ca576101008083540402835291602001916118f5565b820191906000526020600020905b8154815290600101906020018083116118d857829003601f168201915b505050505081565b60006001600160a01b03821661197b5760405162461bcd60e51b815260206004820152602960248201527f4552433732313a2061646472657373207a65726f206973206e6f74206120766160448201527f6c6964206f776e657200000000000000000000000000000000000000000000006064820152608401610b87565b506001600160a01b031660009081526003602052604090205490565b61199f613192565b6119a9600061362c565b565b834211156119e5576040517f1a15a3cc00000000000000000000000000000000000000000000000000000000815260040160405180910390fd5b6000611a637f49ecf333e5b8c95c40fdafc95c1ad136e8914a8fb55e9dc8bb01eaa83a2df9ad8888611a168161367e565b6040805160208101959095526001600160a01b03909316928401929092526060830152608082015260a0810187905260c001604051602081830303815290604052805190602001206136a5565b90506000611a708761180a565b9050806001600160a01b0316886001600160a01b031603611aa457604051638baa579f60e01b815260040160405180910390fd5b6001600160a01b0381163b15611bd157604080516020810186905280820185905260f887901b7fff000000000000000000000000000000000000000000000000000000000000001660608201528151604181830301815260618201928390527f1626ba7e000000000000000000000000000000000000000000000000000000009092526001600160a01b03831691631626ba7e91611b46918691606501615c04565b602060405180830381865afa158015611b63573d6000803e3d6000fd5b505050506040513d601f19601f82011682018060405250810190611b879190615c1d565b7bffffffffffffffffffffffffffffffffffffffffffffffffffffffff1916631626ba7e60e01b14611bcc57604051638baa579f60e01b815260040160405180910390fd5b611c0e565b806001600160a01b0316611be7838787876136ed565b6001600160a01b031614611c0e57604051638baa579f60e01b815260040160405180910390fd5b610c2c8888613124565b6060611c74600a3381546001600160801b039081167f760a9a962ae3d184e99c0483cf5684fb3170f47116ca4f445c50209da4f4f90681019290925582546fffffffffffffffffffffffffffffffff1916600190920116179055565b6040517f46a114e200000000000000000000000000000000000000000000000000000000815233906346a114e290611cb29086908690600401615c3a565b6000604051808303816000875af1158015611cd1573d6000803e3d6000fd5b505050506040513d6000823e601f3d908101601f19168201604052611cf99190810190615c4e565b600a549091506001600160801b0316600103611d4a57600a54600160801b90046001600160801b031615611d405760405163ba329a9b60e01b815260040160405180910390fd5b6000600a55610c74565b600a80546fffffffffffffffffffffffffffffffff1981166001600160801b0391821660001901909116179055610c74565b600060608082808083611db07f00000000000000000000000000000000000000000000000000000000000000006006613715565b611ddb7f00000000000000000000000000000000000000000000000000000000000000006007613715565b604080516000808252602082019092527f0f000000000000000000000000000000000000000000000000000000000000009b939a50919850469750309650945092509050565b606060018054610c89906159e7565b611e3b3383836137c0565b5050565b6000611e4b600a612ec9565b9050336001600160a01b03821614611e81576040516313d2c13360e21b81526001600160a01b0382166004820152602401610b87565b611e8a8261388e565b6000828152600f6020908152604091829020825160e081018452815467ffffffffffffffff8116825260ff600160401b8204811694830194909452600160481b81049093161515938101939093526001600160a01b03600160501b9092048216606084015260018101549091166080830152600281015460a08301526003015460c0820181905215801590611f365750611f368160200151611f2a6138fe565b60ff9081169116111590565b15611f6d576040517f04aec73b00000000000000000000000000000000000000000000000000000000815260040160405180910390fd5b6000600e6000611fca846060015185608001516040516bffffffffffffffffffffffff19606084811b8216602084015283901b16603482015260009060480160405160208183030381529060405280519060200120905092915050565b815260208082019290925260409081016000908120825160c081018452905463ffffffff80821683526401000000008204811695830195909552600160401b8104851693820193909352600160601b83048416606080830191909152600160801b84048516608080840191909152600160a01b90940490941660a082015292850151918501519293509182918291612063919086613916565b92509250925060008560c0015111801561208057508460c0015181115b1561209e5760405163c985f1b360e01b815260040160405180910390fd5b620f4240828660c001516120b29190615cd2565b6120bc9190615cd2565b846040015163ffffffff16848760a001516120d79190615cd2565b6120e19190615cd2565b1015612119576040517f828d924c00000000000000000000000000000000000000000000000000000000815260040160405180910390fd5b60c085015115801561212d575060a0850151155b1561213b5761213b87613ba7565b867f6909f75c94ff7a7648004afe5da77344ce9bbe4de5bdc77cf17cef5319e9eba98660a001518760c00151886020015160405161218f93929190928352602083019190915260ff16604082015260600190565b60405180910390a250505050505050565b6121aa3383613201565b61220c5760405162461bcd60e51b815260206004820152602d60248201527f4552433732313a2063616c6c6572206973206e6f7420746f6b656e206f776e6560448201526c1c881bdc88185c1c1c9bdd9959609a1b6064820152608401610b87565b6115ae84848484613c3c565b6000828152600f60209081526040808320815160e081018352815467ffffffffffffffff8116825260ff600160401b8204811695830195909552600160481b81049094161515928101929092526001600160a01b03600160501b9093048316606083015260018101549092166080820152600282015460a082015260039091015460c0820152819081906122b990856122b357600019613cc5565b85613cc5565b9250925092505b9250925092565b60608060008060006122d9600a612ec9565b9050336001600160a01b0382161461230f576040516313d2c13360e21b81526001600160a01b0382166004820152602401610b87565b8861231a338b613201565b612350576040517fc0185c6400000000000000000000000000000000000000000000000000000000815260040160405180910390fd5b600061235a6138fe565b90506000600f60008d81526020019081526020016000206040518060e00160405290816000820160009054906101000a900467ffffffffffffffff1667ffffffffffffffff1667ffffffffffffffff1681526020016000820160089054906101000a900460ff1660ff1660ff1681526020016000820160099054906101000a900460ff1615151515815260200160008201600a9054906101000a90046001600160a01b03166001600160a01b03166001600160a01b031681526020016001820160009054906101000a90046001600160a01b03166001600160a01b03166001600160a01b031681526020016002820154815260200160038201548152505090508a600f60008e81526020019081526020016000206002018190555061248a6000826020015160ff90811691161090565b80156124a05750602081015160ff808416911611155b156124e757898160c00151146124e2576040517fa0d64f8a00000000000000000000000000000000000000000000000000000000815260040160405180910390fd5b6125d5565b602081015160ff166124fd5760ff821660208201525b60008c8152600f602052604090206003018a9055891561251d578861251f565b815b60008d8152600f6020908152604091829020805460ff948516600160401b90810268ff00000000000000001983168117808555865160e08101885267ffffffffffffffff92831692909416919091178352908104861693820193909352600160481b83049094161515928401929092526001600160a01b03600160501b909104811660608401526001820154166080830152600281015460a08301526003015460c08201526125cf908290613ff1565b90985096505b60005b87518110156126345761262b6126068983815181106125f9576125f9615a3e565b60200260200101516131ec565b60008a848151811061261a5761261a615a3e565b602002602001015160200151612f16565b506001016125d8565b5060005b88518110156126875761267e6126598a83815181106125f9576125f9615a3e565b8a838151811061266b5761266b615a3e565b6020026020010151602001516000612f16565b50600101612638565b506126a481606001516001600160a01b03168c8360a00151612f16565b95506126c281608001516001600160a01b03168260c001518c612f16565b600003945050506126d281614425565b5050945094509450949050565b60006126eb838361448a565b159392505050565b60606126fe826130c0565b6000612708614505565b905060008151116127285760405180602001604052806000815250612753565b8061273284614514565b604051602001612743929190615ce9565b6040516020818303038152906040525b9392505050565b60008060008061276a600a612ec9565b9050336001600160a01b038216146127a0576040516313d2c13360e21b81526001600160a01b0382166004820152602401610b87565b6000868152600f6020526040902054600160481b900460ff166127d65760405163ba329a9b60e01b815260040160405180910390fd5b6000868152600f6020908152604091829020825160e081018452815467ffffffffffffffff8116825260ff600160401b8204811694830194909452600160481b81049093161515938101939093526001600160a01b03600160501b9092048216606084015260018101549091166080830152600281015460a08301526003015460c0820152612872818761286c57600019613cc5565b87613cc5565b9196509450925084158015612885575083155b156128bc576040517f6992224600000000000000000000000000000000000000000000000000000000815260040160405180910390fd5b60006128c66145b4565b905060006128df83602001518360ff9081169116101590565b6128ea576000612900565b60208301516128fc9060ff16836145bf565b6001015b60a084018051899003905260c0840180518890039081905260ff91909116915060000361296b5761293560ff831660016145bf565b60ff16602084810182905260008b8152600f90915260409020805468ff00000000000000001916600160401b9092029190911790555b60a083015160008a8152600f60205260409020600281019190915560c084015160039091015560608301516129aa906001600160a01b03168689612f16565b506060830151604051631a4ca37b60e21b81526001600160a01b039182166004820152602481018790527f0000000000000000000000000000000000000000000000000000000000000000821660448201527f0000000000000000000000000000000000000000000000000000000000000000909116906369328dec90606401600060405180830381600087803b158015612a4457600080fd5b505af1158015612a58573d6000803e3d6000fd5b50505050612a7583608001516001600160a01b0316876000612f16565b508015612c9f576000612a878a61180a565b905060008267ffffffffffffffff811115612aa457612aa46157ac565b604051908082528060200260200182016040528015612af857816020015b6040805160808101825260009181018281526060820183905281526020810191909152815260200190600190039081612ac25790505b50905060005b83811015612b98576080860151612b7390612b1c60ff8816846145cb565b8b604080516080810182526000918101828152606082018390528152602081019190915250604080516080810182526001600160a01b039490941690840190815260ff929092166060840152908252602082015290565b828281518110612b8557612b85615a3e565b6020908102919091010152600101612afe565b50604051633ee44b0f60e01b81526001600160a01b037f00000000000000000000000000000000000000000000000000000000000000001690633ee44b0f90612be79085908590600401615d18565b600060405180830381600087803b158015612c0157600080fd5b505af1925050508015612c12575060015b612c9c5760005b83811015612c9a57818181518110612c3357612c33615a3e565b602002602001015160200151600d6000856001600160a01b03166001600160a01b031681526020019081526020016000206000612c7b8585815181106125f9576125f9615a3e565b8152602081019190915260400160002080549091019055600101612c19565b505b50505b604080518881526020810188905290810186905233908a907fe5fa9a508c78f7cf1e7d0fb90c4b5aae238aa0e336c5ca713d86f74d008b397f9060600160405180910390a3887f6909f75c94ff7a7648004afe5da77344ce9bbe4de5bdc77cf17cef5319e9eba98460a001518560c001518660200151604051612d3893929190928352602083019190915260ff16604082015260600190565b60405180910390a2505050509250925092565b600080612d58600a612ec9565b9050336001600160a01b03821614612d8e576040516313d2c13360e21b81526001600160a01b0382166004820152602401610b87565b612d98848461448a565b15612db657604051630793df6360e21b815260040160405180910390fd5b6009805460018082019092556000818152600f6020526040902080547fffff0000000000000000000000000000000000000000ffffffffffffffffffff16600160501b6001600160a01b0389811691909102919091178255920180546001600160a01b031916928616929092179091559150612e3233836145d7565b5092915050565b612e41613192565b6001600160a01b038116612ebd5760405162461bcd60e51b815260206004820152602660248201527f4f776e61626c653a206e6577206f776e657220697320746865207a65726f206160448201527f64647265737300000000000000000000000000000000000000000000000000006064820152608401610b87565b612ec68161362c565b50565b8054600090610c7490612ee7906001906001600160801b0316615d54565b6001600160801b03167f760a9a962ae3d184e99c0483cf5684fb3170f47116ca4f445c50209da4f4f906015490565b6000818303612f2757506000612753565b6000612f33600a612ec9565b6001600160a01b0381166000908152600b6020908152604080832089845290915290205490915083851115612f7457612f6d848603614627565b9250612f85565b612f7f858503614627565b60000392505b6000612f918483615d74565b905080600003612fc757600a80546000196001600160801b03600160801b80840482169290920181169091029116179055612ff6565b81600003612ff657600a805460016001600160801b03600160801b808404821692909201811690910291161790555b6001600160a01b03929092166000908152600b6020908152604080832098835297905295909520559392505050565b60006001600160e01b031982167f80ac58cd00000000000000000000000000000000000000000000000000000000148061308857506001600160e01b031982167f5b5e139f00000000000000000000000000000000000000000000000000000000145b80610c7457507f01ffc9a7000000000000000000000000000000000000000000000000000000006001600160e01b0319831614610c74565b6000818152600260205260409020546001600160a01b0316612ec65760405162461bcd60e51b815260206004820152601860248201527f4552433732313a20696e76616c696420746f6b656e20494400000000000000006044820152606401610b87565b600081815260046020526040902080546001600160a01b0319166001600160a01b03841690811790915581906131598261180a565b6001600160a01b03167f8c5be1e5ebec7d5bd14f71427d1e84f3dd0314c0f7b2291e5b200ac8c7c3b92560405160405180910390a45050565b600c546001600160a01b031633146119a95760405162461bcd60e51b815260206004820181905260248201527f4f776e61626c653a2063616c6c6572206973206e6f7420746865206f776e65726044820152606401610b87565b80516020810151905160009160a01b01610c74565b60008061320d8361180a565b9050806001600160a01b0316846001600160a01b0316148061325457506001600160a01b0380821660009081526005602090815260408083209388168352929052205460ff165b806132785750836001600160a01b031661326d84610d0c565b6001600160a01b0316145b949350505050565b826001600160a01b03166132938261180a565b6001600160a01b0316146132f75760405162461bcd60e51b815260206004820152602560248201527f4552433732313a207472616e736665722066726f6d20696e636f72726563742060448201526437bbb732b960d91b6064820152608401610b87565b6001600160a01b0382166133725760405162461bcd60e51b8152602060048201526024808201527f4552433732313a207472616e7366657220746f20746865207a65726f2061646460448201527f72657373000000000000000000000000000000000000000000000000000000006064820152608401610b87565b826001600160a01b03166133858261180a565b6001600160a01b0316146133e95760405162461bcd60e51b815260206004820152602560248201527f4552433732313a207472616e736665722066726f6d20696e636f72726563742060448201526437bbb732b960d91b6064820152608401610b87565b600081815260046020908152604080832080546001600160a01b03199081169091556001600160a01b0387811680865260038552838620805460001901905590871680865283862080546001019055868652600290945282852080549092168417909155905184937fddf252ad1be2c89b69c2b068fc378daa952ba7f163c4a11628f55a4df523b3ef91a4505050565b604080516001600160a01b0385811660248301528416604482015260648082018490528251808303909101815260849091019091526020810180517bffffffffffffffffffffffffffffffffffffffffffffffffffffffff167f23b872dd000000000000000000000000000000000000000000000000000000001790526115ae9085906146c3565b6000306001600160a01b037f00000000000000000000000000000000000000000000000000000000000000001614801561355a57507f000000000000000000000000000000000000000000000000000000000000000046145b1561358457507f000000000000000000000000000000000000000000000000000000000000000090565b6116be604080517f8b73c3c69bb8fe3d512ecc4cf759cc79239f7b179b0ffacaa9a75d522b39400f60208201527f0000000000000000000000000000000000000000000000000000000000000000918101919091527f000000000000000000000000000000000000000000000000000000000000000060608201524660808201523060a082015260009060c00160405160208183030381529060405280519060200120905090565b600c80546001600160a01b038381166001600160a01b0319831681179093556040519116919082907f8be0079c531659141344cd1fd0a4f28419497f9722a3daafe3b4186f6b6457e090600090a35050565b6000818152600f60205260408120613695906147ab565b67ffffffffffffffff1692915050565b6000610c746136b2613501565b836040517f19010000000000000000000000000000000000000000000000000000000000008152600281019290925260228201526042902090565b60008060006136fe878787876147f2565b9150915061370b816148b6565b5095945050505050565b606060ff831461372f5761372883614a1b565b9050610c74565b81805461373b906159e7565b80601f0160208091040260200160405190810160405280929190818152602001828054613767906159e7565b80156137b45780601f10613789576101008083540402835291602001916137b4565b820191906000526020600020905b81548152906001019060200180831161379757829003601f168201915b50505050509050610c74565b816001600160a01b0316836001600160a01b0316036138215760405162461bcd60e51b815260206004820152601960248201527f4552433732313a20617070726f766520746f2063616c6c6572000000000000006044820152606401610b87565b6001600160a01b03838116600081815260056020908152604080832094871680845294825291829020805460ff191686151590811790915591519182527f17307eab39ab6107e8899845ad3d59bd9653f200f220920489ca2b5937696c31910160405180910390a3505050565b6000818152600f6020526040902054600160481b900460ff16156138af5750565b6000818152600f60205260409020805469ff0000000000000000001916600160481b17905550600a80546000196001600160801b03600160801b80840482169290920181169091029116179055565b60006116be600161390d6145b4565b60ff16906145bf565b8051602080830151604080516003808252608082019092526000948594859463ffffffff92831694921692859290918201606080368337019050509050888160008151811061396757613967615a3e565b60200260200101906001600160a01b031690816001600160a01b031681525050878160018151811061399b5761399b615a3e565b60200260200101906001600160a01b031690816001600160a01b0316815250506000816002815181106139d0576139d0615a3e565b6001600160a01b0392831660209182029290920101526040517f9d23d9f20000000000000000000000000000000000000000000000000000000081526000917f00000000000000000000000000000000000000000000000000000000000000001690639d23d9f290613a46908590600401615d9c565b600060405180830381865afa158015613a63573d6000803e3d6000fd5b505050506040513d6000823e601f3d908101601f19168201604052613a8b9190810190615de9565b905080600181518110613aa057613aa0615a3e565b602002602001015183601203600a0a82600281518110613ac257613ac2615a3e565b60200260200101517f00000000000000000000000000000000000000000000000000000000000000000281613af957613af9615e83565b0481613b0757613b07615e83565b04945083831115613b5857838303600a0a81600081518110613b2b57613b2b615a3e565b602002602001015102965080600181518110613b4957613b49615a3e565b60200260200101519550613b9a565b80600081518110613b6b57613b6b615a3e565b60200260200101519650828403600a0a81600181518110613b8e57613b8e615a3e565b60200260200101510295505b5050505093509350939050565b6000613bb28261180a565b9050613bbd8261180a565b600083815260046020908152604080832080546001600160a01b03199081169091556001600160a01b0385168085526003845282852080546000190190558785526002909352818420805490911690555192935084927fddf252ad1be2c89b69c2b068fc378daa952ba7f163c4a11628f55a4df523b3ef908390a45050565b613c47848484613280565b613c5384848484614a5a565b6115ae5760405162461bcd60e51b815260206004820152603260248201527f4552433732313a207472616e7366657220746f206e6f6e20455243373231526560448201527f63656976657220696d706c656d656e74657200000000000000000000000000006064820152608401610b87565b600080600080600e6000613d26886060015189608001516040516bffffffffffffffffffffffff19606084811b8216602084015283901b16603482015260009060480160405160208183030381529060405280519060200120905092915050565b815260208082019290925260409081016000908120825160c081018452905463ffffffff80821683526401000000008204811695830195909552600160401b8104851693820193909352600160601b83048416606080830191909152600160801b84048516608080840191909152600160a01b90940490941660a082015292890151918901519293509182918291613dbf919086613916565b92509250925042613dd68a6020015160ff16614bae565b11613e60578860c001518810613df2578860c001519550613e37565b8860c001518189011115613e3357808960c001511015613e255760405163c985f1b360e01b815260040160405180910390fd5b808960c00151039550613e37565b8795505b613e59620f424083880202856060015163ffffffff16620f4240038502614bb9565b9650613fc5565b60a089015160c08a0151604086015191850291908402620f4240029063ffffffff1682028111613ea05760008060009850985098505050505050506122c0565b613ed58660a0015163ffffffff16830282038760a0015163ffffffff16886060015163ffffffff16620f424003038702614bb9565b9850620f424084876060015163ffffffff16620f424003878c020281613efd57613efd615e83565b0481613f0b57613f0b615e83565b60c08d01519190049850838111613f4257808b1015613f3d5760405163c985f1b360e01b815260040160405180910390fd5b613f7e565b80891180613f51575088840181105b15613f7157808b1015613f3d57613f6a8b858303614bf0565b9050613f7e565b613f7b8b8a614bf0565b90505b888114613fad57613fa7620f424086830202886060015163ffffffff16620f4240038802614bb9565b99508098505b8b60a001518a1115613fc1578b60a0015199505b5050505b620f4240846080015163ffffffff16880281613fe357613fe3615e83565b049450505050509250925092565b60608082606001516001600160a01b031684606001516001600160a01b0316148015614036575082608001516001600160a01b031684608001516001600160a01b0316145b801561405157508251845167ffffffffffffffff9081169116145b614087576040517f84991e9500000000000000000000000000000000000000000000000000000000815260040160405180910390fd5b60006140916138fe565b90506140a781856020015160ff90811691161190565b806140bc5750602085015160ff908116908216115b156140f3576040517f47a5b25b00000000000000000000000000000000000000000000000000000000815260040160405180910390fd5b60208401516000906141089060ff16836145bf565b60ff169050600061412983886020015160ff166145bf90919063ffffffff16565b60ff169050600061413a8383614bf0565b90508760c001518760c00151111561415657808203915061417b565b8760c001518760c00151101561417057808303925061417b565b808303925080820391505b5060008267ffffffffffffffff811115614197576141976157ac565b6040519080825280602002602001820160405280156141eb57816020015b60408051608081018252600091810182815260608201839052815260208101919091528152602001906001900390816141b55790505b50905060008267ffffffffffffffff811115614209576142096157ac565b60405190808252806020026020018201604052801561425d57816020015b60408051608081018252600091810182815260608201839052815260208101919091528152602001906001900390816142275790505b5090506000935060009250600061428c8661390d8c602001518c6020015160ff16614c0690919063ffffffff16565b60ff1690508560005b82811015614411576142ab60ff831660016145cb565b915060006142c38c602001518460ff90811691161090565b6142d1578b60c001516142d4565b60005b905060006142ec8e602001518560ff90811691161090565b6142fa578d60c001516142fd565b60005b905080821115614385576080808f015160408051808401825260008183018181526060808401839052908352602092830191909152825194850183526001600160a01b0390931691840191825260ff881692840192909252825282840390820152875160018b019a8991811061437557614375615a3e565b6020026020010181905250614407565b80821015614407576080808f015160408051808401825260008183018181526060808401839052908352602092830191909152825194850183526001600160a01b0390931691840191825260ff881692840192909252825283830390820152865160018a0199889181106143fb576143fb615a3e565b60200260200101819052505b5050600101614295565b5092975090955050505050505b9250929050565b6000818152600f6020526040902054600160481b900460ff166144455750565b6000908152600f60205260409020805469ff00000000000000000019169055600a8054600160801b8082046001600160801b0390811660010181169091029116179055565b6000600e60006144df85856040516bffffffffffffffffffffffff19606084811b8216602084015283901b16603482015260009060480160405160208183030381529060405280519060200120905092915050565b8152602081019190915260400160002054600160401b900463ffffffff16159392505050565b606060088054610c89906159e7565b6060600061452183614c1b565b600101905060008167ffffffffffffffff811115614541576145416157ac565b6040519080825280601f01601f19166020018201604052801561456b576020820181803683370190505b5090508181016020015b600019017f3031323334353637383961626364656600000000000000000000000000000000600a86061a8153600a850494508461457557509392505050565b60006116be42614cfd565b60006127538284615e99565b60006127538284615eb2565b6145e18282614deb565b6000908152600f60205260409020805469ff0000000000000000001916905550600a8054600160801b8082046001600160801b0390811660010181169091029116179055565b60007f7fffffffffffffffffffffffffffffffffffffffffffffffffffffffffffffff8211156146bf5760405162461bcd60e51b815260206004820152602860248201527f53616665436173743a2076616c756520646f65736e27742066697420696e206160448201527f6e20696e743235360000000000000000000000000000000000000000000000006064820152608401610b87565b5090565b6000614718826040518060400160405280602081526020017f5361666545524332303a206c6f772d6c6576656c2063616c6c206661696c6564815250856001600160a01b0316614f769092919063ffffffff16565b90508051600014806147395750808060200190518101906147399190615ecb565b610e5f5760405162461bcd60e51b815260206004820152602a60248201527f5361666545524332303a204552433230206f7065726174696f6e20646964206e60448201527f6f742073756363656564000000000000000000000000000000000000000000006064820152608401610b87565b805460009067ffffffffffffffff1682826147c583615ee8565b91906101000a81548167ffffffffffffffff021916908367ffffffffffffffff1602179055509050919050565b6000807f7fffffffffffffffffffffffffffffff5d576e7357a4501ddfe92f46681b20a083111561482957506000905060036148ad565b6040805160008082526020820180845289905260ff881692820192909252606081018690526080810185905260019060a0016020604051602081039080840390855afa15801561487d573d6000803e3d6000fd5b5050604051601f1901519150506001600160a01b0381166148a6576000600192509250506148ad565b9150600090505b94509492505050565b60008160048111156148ca576148ca615f0f565b036148d25750565b60018160048111156148e6576148e6615f0f565b036149335760405162461bcd60e51b815260206004820152601860248201527f45434453413a20696e76616c6964207369676e617475726500000000000000006044820152606401610b87565b600281600481111561494757614947615f0f565b036149945760405162461bcd60e51b815260206004820152601f60248201527f45434453413a20696e76616c6964207369676e6174757265206c656e677468006044820152606401610b87565b60038160048111156149a8576149a8615f0f565b03612ec65760405162461bcd60e51b815260206004820152602260248201527f45434453413a20696e76616c6964207369676e6174757265202773272076616c60448201527f75650000000000000000000000000000000000000000000000000000000000006064820152608401610b87565b60606000614a2883614f85565b604080516020808252818301909252919250600091906020820181803683375050509182525060208101929092525090565b60006001600160a01b0384163b15614ba657604051630a85bd0160e11b81526001600160a01b0385169063150b7a0290614a9e903390899088908890600401615f25565b6020604051808303816000875af1925050508015614ad9575060408051601f3d908101601f19168201909252614ad691810190615c1d565b60015b614b8c573d808015614b07576040519150601f19603f3d011682016040523d82523d6000602084013e614b0c565b606091505b508051600003614b845760405162461bcd60e51b815260206004820152603260248201527f4552433732313a207472616e7366657220746f206e6f6e20455243373231526560448201527f63656976657220696d706c656d656e74657200000000000000000000000000006064820152608401610b87565b805181602001fd5b6001600160e01b031916630a85bd0160e11b149050613278565b506001613278565b6000610c7482614fc6565b60008215614be75781614bcd600185615f61565b614bd79190615f74565b614be2906001615f96565b612753565b50600092915050565b6000818310614bff5781612753565b5090919050565b600060ff80831690841611614bff5781612753565b6000807a184f03e93ff9f4daa797ed6e38ed64bf6a1f0100000000000000008310614c64577a184f03e93ff9f4daa797ed6e38ed64bf6a1f010000000000000000830492506040015b6d04ee2d6d415b85acef81000000008310614c90576d04ee2d6d415b85acef8100000000830492506020015b662386f26fc100008310614cae57662386f26fc10000830492506010015b6305f5e1008310614cc6576305f5e100830492506008015b6127108310614cda57612710830492506004015b60648310614cec576064830492506002015b600a8310610c745760010192915050565b600080620151808304905080622649658101600062023ab1600483020590506004600362023ab18302010590910390600062164b09610fa0600185010205905060046105b58202058303601f019250600061098f8460500281614d6257614d62615e83565b059050600b8105935083600c028160020103905083826031850360640201019150600060066001836107b28603600c02010381614da157614da1615e83565b04905060ff811115614ddf576040517f73cde75100000000000000000000000000000000000000000000000000000000815260040160405180910390fd5b98975050505050505050565b6001600160a01b038216614e415760405162461bcd60e51b815260206004820181905260248201527f4552433732313a206d696e7420746f20746865207a65726f20616464726573736044820152606401610b87565b6000818152600260205260409020546001600160a01b031615614ea65760405162461bcd60e51b815260206004820152601c60248201527f4552433732313a20746f6b656e20616c7265616479206d696e746564000000006044820152606401610b87565b6000818152600260205260409020546001600160a01b031615614f0b5760405162461bcd60e51b815260206004820152601c60248201527f4552433732313a20746f6b656e20616c7265616479206d696e746564000000006044820152606401610b87565b6001600160a01b038216600081815260036020908152604080832080546001019055848352600290915280822080546001600160a01b0319168417905551839291907fddf252ad1be2c89b69c2b068fc378daa952ba7f163c4a11628f55a4df523b3ef908290a45050565b60606132788484600085615098565b600060ff8216601f811115610c74576040517fb3512b0c00000000000000000000000000000000000000000000000000000000815260040160405180910390fd5b6000600660ff831681020181600c82046107b20190506004600c8381614fee57614fee615e83565b06901b91506004810615801561500657506064810615155b8061501357506101908106155b1561503c5779016e014f0131011200f400d500b600980079005b003c001f000090911c9061505c565b79016d014e0130011100f300d400b500970078005a003b001f000090911c905b6201518061019061064019830104606461076c1984010460046107b0198501046107b2850361016d028661ffff16010103010292505050919050565b6060824710156151105760405162461bcd60e51b815260206004820152602660248201527f416464726573733a20696e73756666696369656e742062616c616e636520666f60448201527f722063616c6c00000000000000000000000000000000000000000000000000006064820152608401610b87565b600080866001600160a01b0316858760405161512c9190615fa9565b60006040518083038185875af1925050503d8060008114615169576040519150601f19603f3d011682016040523d82523d6000602084013e61516e565b606091505b509150915061517f8783838761518a565b979650505050505050565b606083156151f95782516000036151f2576001600160a01b0385163b6151f25760405162461bcd60e51b815260206004820152601d60248201527f416464726573733a2063616c6c20746f206e6f6e2d636f6e74726163740000006044820152606401610b87565b5081613278565b613278838381511561520e5781518083602001fd5b8060405162461bcd60e51b8152600401610b879190615303565b80356001600160a01b038116811461523f57600080fd5b919050565b60008060006060848603121561525957600080fd5b61526284615228565b925061527060208501615228565b9150604084013590509250925092565b6001600160e01b031981168114612ec657600080fd5b6000602082840312156152a857600080fd5b813561275381615280565b60005b838110156152ce5781810151838201526020016152b6565b50506000910152565b600081518084526152ef8160208601602086016152b3565b601f01601f19169290920160200192915050565b60208152600061275360208301846152d7565b60006020828403121561532857600080fd5b5035919050565b6000806040838503121561534257600080fd5b61534b83615228565b946020939093013593505050565b803563ffffffff8116811461523f57600080fd5b60008060008060008060c0878903121561538657600080fd5b61538f87615228565b955061539d60208801615228565b94506153ab60408801615359565b93506153b960608801615359565b92506153c760808801615359565b91506153d560a08801615359565b90509295509295509295565b60008083601f8401126153f357600080fd5b50813567ffffffffffffffff81111561540b57600080fd5b60208301915083602060608302850101111561441e57600080fd5b60008083601f84011261543857600080fd5b50813567ffffffffffffffff81111561545057600080fd5b60208301915083602082850101111561441e57600080fd5b60008060008060006060868803121561548057600080fd5b853567ffffffffffffffff8082111561549857600080fd5b6154a489838a016153e1565b90975095508591506154b860208901615228565b945060408801359150808211156154ce57600080fd5b506154db88828901615426565b969995985093965092949392505050565b6000806000806040858703121561550257600080fd5b843567ffffffffffffffff8082111561551a57600080fd5b818701915087601f83011261552e57600080fd5b81358181111561553d57600080fd5b8860208260061b850101111561555257600080fd5b60209283019650945090860135908082111561556d57600080fd5b5061557a87828801615426565b95989497509550505050565b6000806040838503121561559957600080fd5b6155a283615228565b91506155b060208401615228565b90509250929050565b600080602083850312156155cc57600080fd5b823567ffffffffffffffff8111156155e357600080fd5b6155ef858286016153e1565b90969095509350505050565b60006020828403121561560d57600080fd5b61275382615228565b60ff81168114612ec657600080fd5b60008060008060008060c0878903121561563e57600080fd5b61564787615228565b95506020870135945060408701359350606087013561566581615616565b9598949750929560808101359460a0909101359350915050565b6000806020838503121561569257600080fd5b823567ffffffffffffffff8111156156a957600080fd5b6155ef85828601615426565b7fff00000000000000000000000000000000000000000000000000000000000000881681526000602060e0818401526156f160e084018a6152d7565b8381036040850152615703818a6152d7565b606085018990526001600160a01b038816608086015260a0850187905284810360c0860152855180825283870192509083019060005b8181101561575557835183529284019291840191600101615739565b50909c9b505050505050505050505050565b8015158114612ec657600080fd5b6000806040838503121561578857600080fd5b61579183615228565b915060208301356157a181615767565b809150509250929050565b634e487b7160e01b600052604160045260246000fd5b6040805190810167ffffffffffffffff811182821017156157e5576157e56157ac565b60405290565b604051601f8201601f1916810167ffffffffffffffff81118282101715615814576158146157ac565b604052919050565b600067ffffffffffffffff821115615836576158366157ac565b50601f01601f191660200190565b6000806000806080858703121561585a57600080fd5b61586385615228565b935061587160208601615228565b925060408501359150606085013567ffffffffffffffff81111561589457600080fd5b8501601f810187136158a557600080fd5b80356158b86158b38261581c565b6157eb565b8181528860208385010111156158cd57600080fd5b8160208401602083013760006020838301015280935050505092959194509250565b6000806040838503121561590257600080fd5b50508035926020909101359150565b6000806000806080858703121561592757600080fd5b843593506020850135925060408501359150606085013561594781615616565b939692955090935050565b600081518084526020808501945080840160005b838110156159a3578151805180516001600160a01b0316895284015160ff1684890152830151604088015260609096019590820190600101615966565b509495945050505050565b6080815260006159c16080830187615952565b82810360208401526159d38187615952565b604084019590955250506060015292915050565b600181811c908216806159fb57607f821691505b602082108103615a1b57634e487b7160e01b600052602260045260246000fd5b50919050565b600060208284031215615a3357600080fd5b815161275381615616565b634e487b7160e01b600052603260045260246000fd5b600060408284031215615a6657600080fd5b615a6e6157c2565b9050615a7982615228565b81526020820135615a8981615616565b602082015292915050565b600060608284031215615aa657600080fd5b615aae6157c2565b615ab88484615a54565b815260409290920135602083015250919050565b8183526000602080850194508260005b858110156159a3576001600160a01b03615af583615228565b16875282820135615b0581615616565b60ff16878401526040828101359088015260609687019690910190600101615adc565b81835281816020850137506000828201602090810191909152601f909101601f19169091010190565b6001600160a01b0386168152606060208201526000615b74606083018688615acc565b8281036040840152614ddf818587615b28565b600060408284031215615b9957600080fd5b6127538383615a54565b6001600160a01b0385168152606060208201526000615bc56060830186615952565b828103604084015261517f818587615b28565b6001600160a01b0384168152604060208201526000615bfb604083018486615acc565b95945050505050565b82815260406020820152600061327860408301846152d7565b600060208284031215615c2f57600080fd5b815161275381615280565b602081526000613278602083018486615b28565b600060208284031215615c6057600080fd5b815167ffffffffffffffff811115615c7757600080fd5b8201601f81018413615c8857600080fd5b8051615c966158b38261581c565b818152856020838501011115615cab57600080fd5b615bfb8260208301602086016152b3565b634e487b7160e01b600052601160045260246000fd5b8082028115828204841417610c7457610c74615cbc565b60008351615cfb8184602088016152b3565b835190830190615d0f8183602088016152b3565b01949350505050565b6001600160a01b0383168152606060208201526000615d3a6060830184615952565b828103604084015260008152602081019150509392505050565b6001600160801b03828116828216039080821115612e3257612e32615cbc565b8082018281126000831280158216821582161715615d9457615d94615cbc565b505092915050565b6020808252825182820181905260009190848201906040850190845b81811015615ddd5783516001600160a01b031683529284019291840191600101615db8565b50909695505050505050565b60006020808385031215615dfc57600080fd5b825167ffffffffffffffff80821115615e1457600080fd5b818501915085601f830112615e2857600080fd5b815181811115615e3a57615e3a6157ac565b8060051b9150615e4b8483016157eb565b8181529183018401918481019088841115615e6557600080fd5b938501935b83851015614ddf57845182529385019390850190615e6a565b634e487b7160e01b600052601260045260246000fd5b60ff8281168282160390811115610c7457610c74615cbc565b60ff8181168382160190811115610c7457610c74615cbc565b600060208284031215615edd57600080fd5b815161275381615767565b600067ffffffffffffffff808316818103615f0557615f05615cbc565b6001019392505050565b634e487b7160e01b600052602160045260246000fd5b60006001600160a01b03808716835280861660208401525083604083015260806060830152615f5760808301846152d7565b9695505050505050565b81810381811115610c7457610c74615cbc565b600082615f9157634e487b7160e01b600052601260045260246000fd5b500490565b80820180821115610c7457610c74615cbc565b60008251615fbb8184602087016152b3565b919091019291505056fea26469706673582212209048132fa59b170ab434aa5f45b56d0157fb5d5a73f04f46aca942668ce3e7f064736f6c63430008130033",
  "devdoc": {
    "events": {
      "Approval(address,address,uint256)": {
        "details": "Emitted when `owner` enables `approved` to manage the `tokenId` token."
      },
      "ApprovalForAll(address,address,bool)": {
        "details": "Emitted when `owner` enables or disables (`approved`) `operator` to manage all of its assets."
      },
      "EIP712DomainChanged()": {
        "details": "MAY be emitted to signal that the domain could have changed."
      },
      "Transfer(address,address,uint256)": {
        "details": "Emitted when `tokenId` token is transferred from `from` to `to`."
      }
    },
    "kind": "dev",
    "methods": {
      "approve(address,uint256)": {
        "details": "See {IERC721-approve}."
      },
      "balanceOf(address)": {
        "details": "See {IERC721-balanceOf}."
      },
      "eip712Domain()": {
        "details": "See {EIP-5267}. _Available since v4.9._"
      },
      "getApproved(uint256)": {
        "details": "See {IERC721-getApproved}."
      },
      "isApprovedForAll(address,address)": {
        "details": "See {IERC721-isApprovedForAll}."
      },
      "name()": {
        "details": "See {IERC721Metadata-name}."
      },
      "owner()": {
        "details": "Returns the address of the current owner."
      },
      "ownerOf(uint256)": {
        "details": "See {IERC721-ownerOf}."
      },
      "renounceOwnership()": {
        "details": "Leaves the contract without owner. It will not be possible to call `onlyOwner` functions. Can only be called by the current owner. NOTE: Renouncing ownership will leave the contract without an owner, thereby disabling any functionality that is only available to the owner."
      },
      "safeTransferFrom(address,address,uint256)": {
        "details": "See {IERC721-safeTransferFrom}."
      },
      "safeTransferFrom(address,address,uint256,bytes)": {
        "details": "See {IERC721-safeTransferFrom}."
      },
      "setApprovalForAll(address,bool)": {
        "details": "See {IERC721-setApprovalForAll}."
      },
      "symbol()": {
        "details": "See {IERC721Metadata-symbol}."
      },
      "tokenURI(uint256)": {
        "details": "See {IERC721Metadata-tokenURI}."
      },
      "transferFrom(address,address,uint256)": {
        "details": "See {IERC721-transferFrom}."
      },
      "transferOwnership(address)": {
        "details": "Transfers ownership of the contract to a new account (`newOwner`). Can only be called by the current owner."
      }
    },
    "version": 1
  },
  "userdoc": {
    "kind": "user",
    "methods": {},
    "version": 1
  },
  "storageLayout": {
    "storage": [
      {
        "astId": 3094,
        "contract": "contracts/LoanPositionManager.sol:LoanPositionManager",
        "label": "_name",
        "offset": 0,
        "slot": "0",
        "type": "t_string_storage"
      },
      {
        "astId": 3096,
        "contract": "contracts/LoanPositionManager.sol:LoanPositionManager",
        "label": "_symbol",
        "offset": 0,
        "slot": "1",
        "type": "t_string_storage"
      },
      {
        "astId": 3100,
        "contract": "contracts/LoanPositionManager.sol:LoanPositionManager",
        "label": "_owners",
        "offset": 0,
        "slot": "2",
        "type": "t_mapping(t_uint256,t_address)"
      },
      {
        "astId": 3104,
        "contract": "contracts/LoanPositionManager.sol:LoanPositionManager",
        "label": "_balances",
        "offset": 0,
        "slot": "3",
        "type": "t_mapping(t_address,t_uint256)"
      },
      {
        "astId": 3108,
        "contract": "contracts/LoanPositionManager.sol:LoanPositionManager",
        "label": "_tokenApprovals",
        "offset": 0,
        "slot": "4",
        "type": "t_mapping(t_uint256,t_address)"
      },
      {
        "astId": 3114,
        "contract": "contracts/LoanPositionManager.sol:LoanPositionManager",
        "label": "_operatorApprovals",
        "offset": 0,
        "slot": "5",
        "type": "t_mapping(t_address,t_mapping(t_address,t_bool))"
      },
      {
        "astId": 5536,
        "contract": "contracts/LoanPositionManager.sol:LoanPositionManager",
        "label": "_nameFallback",
        "offset": 0,
        "slot": "6",
        "type": "t_string_storage"
      },
      {
        "astId": 5538,
        "contract": "contracts/LoanPositionManager.sol:LoanPositionManager",
        "label": "_versionFallback",
        "offset": 0,
        "slot": "7",
        "type": "t_string_storage"
      },
      {
        "astId": 20672,
        "contract": "contracts/LoanPositionManager.sol:LoanPositionManager",
        "label": "baseURI",
        "offset": 0,
        "slot": "8",
        "type": "t_string_storage"
      },
      {
        "astId": 20676,
        "contract": "contracts/LoanPositionManager.sol:LoanPositionManager",
        "label": "nextId",
        "offset": 0,
        "slot": "9",
        "type": "t_uint256"
      },
      {
        "astId": 20679,
        "contract": "contracts/LoanPositionManager.sol:LoanPositionManager",
        "label": "_lockData",
        "offset": 0,
        "slot": "10",
        "type": "t_struct(LockData)20537_storage"
      },
      {
        "astId": 20686,
        "contract": "contracts/LoanPositionManager.sol:LoanPositionManager",
        "label": "assetDelta",
        "offset": 0,
        "slot": "11",
        "type": "t_mapping(t_address,t_mapping(t_uint256,t_int256))"
      },
      {
        "astId": 7,
        "contract": "contracts/LoanPositionManager.sol:LoanPositionManager",
        "label": "_owner",
        "offset": 0,
        "slot": "12",
        "type": "t_address"
      },
      {
        "astId": 11330,
        "contract": "contracts/LoanPositionManager.sol:LoanPositionManager",
        "label": "_couponOwed",
        "offset": 0,
        "slot": "13",
        "type": "t_mapping(t_address,t_mapping(t_uint256,t_uint256))"
      },
      {
        "astId": 11335,
        "contract": "contracts/LoanPositionManager.sol:LoanPositionManager",
        "label": "_loanConfiguration",
        "offset": 0,
        "slot": "14",
        "type": "t_mapping(t_bytes32,t_struct(LoanConfiguration)17523_storage)"
      },
      {
        "astId": 11340,
        "contract": "contracts/LoanPositionManager.sol:LoanPositionManager",
        "label": "_positionMap",
        "offset": 0,
        "slot": "15",
        "type": "t_mapping(t_uint256,t_struct(LoanPosition)20251_storage)"
      }
    ],
    "types": {
      "t_address": {
        "encoding": "inplace",
        "label": "address",
        "numberOfBytes": "20"
      },
      "t_bool": {
        "encoding": "inplace",
        "label": "bool",
        "numberOfBytes": "1"
      },
      "t_bytes32": {
        "encoding": "inplace",
        "label": "bytes32",
        "numberOfBytes": "32"
      },
      "t_int256": {
        "encoding": "inplace",
        "label": "int256",
        "numberOfBytes": "32"
      },
      "t_mapping(t_address,t_bool)": {
        "encoding": "mapping",
        "key": "t_address",
        "label": "mapping(address => bool)",
        "numberOfBytes": "32",
        "value": "t_bool"
      },
      "t_mapping(t_address,t_mapping(t_address,t_bool))": {
        "encoding": "mapping",
        "key": "t_address",
        "label": "mapping(address => mapping(address => bool))",
        "numberOfBytes": "32",
        "value": "t_mapping(t_address,t_bool)"
      },
      "t_mapping(t_address,t_mapping(t_uint256,t_int256))": {
        "encoding": "mapping",
        "key": "t_address",
        "label": "mapping(address => mapping(uint256 => int256))",
        "numberOfBytes": "32",
        "value": "t_mapping(t_uint256,t_int256)"
      },
      "t_mapping(t_address,t_mapping(t_uint256,t_uint256))": {
        "encoding": "mapping",
        "key": "t_address",
        "label": "mapping(address => mapping(uint256 => uint256))",
        "numberOfBytes": "32",
        "value": "t_mapping(t_uint256,t_uint256)"
      },
      "t_mapping(t_address,t_uint256)": {
        "encoding": "mapping",
        "key": "t_address",
        "label": "mapping(address => uint256)",
        "numberOfBytes": "32",
        "value": "t_uint256"
      },
      "t_mapping(t_bytes32,t_struct(LoanConfiguration)17523_storage)": {
        "encoding": "mapping",
        "key": "t_bytes32",
        "label": "mapping(bytes32 => struct ILoanPositionManagerTypes.LoanConfiguration)",
        "numberOfBytes": "32",
        "value": "t_struct(LoanConfiguration)17523_storage"
      },
      "t_mapping(t_uint256,t_address)": {
        "encoding": "mapping",
        "key": "t_uint256",
        "label": "mapping(uint256 => address)",
        "numberOfBytes": "32",
        "value": "t_address"
      },
      "t_mapping(t_uint256,t_int256)": {
        "encoding": "mapping",
        "key": "t_uint256",
        "label": "mapping(uint256 => int256)",
        "numberOfBytes": "32",
        "value": "t_int256"
      },
      "t_mapping(t_uint256,t_struct(LoanPosition)20251_storage)": {
        "encoding": "mapping",
        "key": "t_uint256",
        "label": "mapping(uint256 => struct LoanPosition)",
        "numberOfBytes": "32",
        "value": "t_struct(LoanPosition)20251_storage"
      },
      "t_mapping(t_uint256,t_uint256)": {
        "encoding": "mapping",
        "key": "t_uint256",
        "label": "mapping(uint256 => uint256)",
        "numberOfBytes": "32",
        "value": "t_uint256"
      },
      "t_string_storage": {
        "encoding": "bytes",
        "label": "string",
        "numberOfBytes": "32"
      },
      "t_struct(LoanConfiguration)17523_storage": {
        "encoding": "inplace",
        "label": "struct ILoanPositionManagerTypes.LoanConfiguration",
        "members": [
          {
            "astId": 17512,
            "contract": "contracts/LoanPositionManager.sol:LoanPositionManager",
            "label": "collateralDecimal",
            "offset": 0,
            "slot": "0",
            "type": "t_uint32"
          },
          {
            "astId": 17514,
            "contract": "contracts/LoanPositionManager.sol:LoanPositionManager",
            "label": "debtDecimal",
            "offset": 4,
            "slot": "0",
            "type": "t_uint32"
          },
          {
            "astId": 17516,
            "contract": "contracts/LoanPositionManager.sol:LoanPositionManager",
            "label": "liquidationThreshold",
            "offset": 8,
            "slot": "0",
            "type": "t_uint32"
          },
          {
            "astId": 17518,
            "contract": "contracts/LoanPositionManager.sol:LoanPositionManager",
            "label": "liquidationFee",
            "offset": 12,
            "slot": "0",
            "type": "t_uint32"
          },
          {
            "astId": 17520,
            "contract": "contracts/LoanPositionManager.sol:LoanPositionManager",
            "label": "liquidationProtocolFee",
            "offset": 16,
            "slot": "0",
            "type": "t_uint32"
          },
          {
            "astId": 17522,
            "contract": "contracts/LoanPositionManager.sol:LoanPositionManager",
            "label": "liquidationTargetLtv",
            "offset": 20,
            "slot": "0",
            "type": "t_uint32"
          }
        ],
        "numberOfBytes": "32"
      },
      "t_struct(LoanPosition)20251_storage": {
        "encoding": "inplace",
        "label": "struct LoanPosition",
        "members": [
          {
            "astId": 20237,
            "contract": "contracts/LoanPositionManager.sol:LoanPositionManager",
            "label": "nonce",
            "offset": 0,
            "slot": "0",
            "type": "t_uint64"
          },
          {
            "astId": 20240,
            "contract": "contracts/LoanPositionManager.sol:LoanPositionManager",
            "label": "expiredWith",
            "offset": 8,
            "slot": "0",
            "type": "t_userDefinedValueType(Epoch)19673"
          },
          {
            "astId": 20242,
            "contract": "contracts/LoanPositionManager.sol:LoanPositionManager",
            "label": "isSettled",
            "offset": 9,
            "slot": "0",
            "type": "t_bool"
          },
          {
            "astId": 20244,
            "contract": "contracts/LoanPositionManager.sol:LoanPositionManager",
            "label": "collateralToken",
            "offset": 10,
            "slot": "0",
            "type": "t_address"
          },
          {
            "astId": 20246,
            "contract": "contracts/LoanPositionManager.sol:LoanPositionManager",
            "label": "debtToken",
            "offset": 0,
            "slot": "1",
            "type": "t_address"
          },
          {
            "astId": 20248,
            "contract": "contracts/LoanPositionManager.sol:LoanPositionManager",
            "label": "collateralAmount",
            "offset": 0,
            "slot": "2",
            "type": "t_uint256"
          },
          {
            "astId": 20250,
            "contract": "contracts/LoanPositionManager.sol:LoanPositionManager",
            "label": "debtAmount",
            "offset": 0,
            "slot": "3",
            "type": "t_uint256"
          }
        ],
        "numberOfBytes": "128"
      },
      "t_struct(LockData)20537_storage": {
        "encoding": "inplace",
        "label": "struct LockData",
        "members": [
          {
            "astId": 20533,
            "contract": "contracts/LoanPositionManager.sol:LoanPositionManager",
            "label": "length",
            "offset": 0,
            "slot": "0",
            "type": "t_uint128"
          },
          {
            "astId": 20536,
            "contract": "contracts/LoanPositionManager.sol:LoanPositionManager",
            "label": "nonzeroDeltaCount",
            "offset": 16,
            "slot": "0",
            "type": "t_uint128"
          }
        ],
        "numberOfBytes": "32"
      },
      "t_uint128": {
        "encoding": "inplace",
        "label": "uint128",
        "numberOfBytes": "16"
      },
      "t_uint256": {
        "encoding": "inplace",
        "label": "uint256",
        "numberOfBytes": "32"
      },
      "t_uint32": {
        "encoding": "inplace",
        "label": "uint32",
        "numberOfBytes": "4"
      },
      "t_uint64": {
        "encoding": "inplace",
        "label": "uint64",
        "numberOfBytes": "8"
      },
      "t_userDefinedValueType(Epoch)19673": {
        "encoding": "inplace",
        "label": "Epoch",
        "numberOfBytes": "1"
      }
    }
  }
}