{
  "address": "0xc8112f1084168d8168dcef5543FE7a4C3ed21aD6",
  "abi": [
    {
      "inputs": [
        {
          "internalType": "address",
          "name": "wrapped1155Factory",
          "type": "address"
        },
        {
          "internalType": "address",
          "name": "cloberMarketFactory",
          "type": "address"
        },
        {
          "internalType": "address",
          "name": "couponManager",
          "type": "address"
        },
        {
          "internalType": "address",
          "name": "weth",
          "type": "address"
        },
        {
          "internalType": "address",
          "name": "loanPositionManager",
          "type": "address"
        },
        {
          "internalType": "address",
          "name": "router",
          "type": "address"
        }
      ],
      "stateMutability": "nonpayable",
      "type": "constructor"
    },
    {
      "inputs": [
        {
          "internalType": "string",
          "name": "reason",
          "type": "string"
        }
      ],
      "name": "CollateralSwapFailed",
      "type": "error"
    },
    {
      "inputs": [],
      "name": "ControllerSlippage",
      "type": "error"
    },
    {
      "inputs": [],
      "name": "EpochOverflow",
      "type": "error"
    },
    {
      "inputs": [],
      "name": "InvalidAccess",
      "type": "error"
    },
    {
      "inputs": [],
      "name": "InvalidMarket",
      "type": "error"
    },
    {
      "inputs": [],
      "name": "Reentrancy",
      "type": "error"
    },
    {
      "anonymous": false,
      "inputs": [
        {
          "indexed": true,
          "internalType": "address",
          "name": "previousOwner",
          "type": "address"
        },
        {
          "indexed": true,
          "internalType": "address",
          "name": "newOwner",
          "type": "address"
        }
      ],
      "name": "OwnershipTransferStarted",
      "type": "event"
    },
    {
      "anonymous": false,
      "inputs": [
        {
          "indexed": true,
          "internalType": "address",
          "name": "previousOwner",
          "type": "address"
        },
        {
          "indexed": true,
          "internalType": "address",
          "name": "newOwner",
          "type": "address"
        }
      ],
      "name": "OwnershipTransferred",
      "type": "event"
    },
    {
      "anonymous": false,
      "inputs": [
        {
          "indexed": true,
          "internalType": "address",
          "name": "asset",
          "type": "address"
        },
        {
          "indexed": true,
          "internalType": "Epoch",
          "name": "epoch",
          "type": "uint8"
        },
        {
          "indexed": true,
          "internalType": "address",
          "name": "cloberMarket",
          "type": "address"
        }
      ],
      "name": "SetCouponMarket",
      "type": "event"
    },
    {
      "inputs": [],
      "name": "acceptOwnership",
      "outputs": [],
      "stateMutability": "nonpayable",
      "type": "function"
    },
    {
      "inputs": [
        {
          "internalType": "address",
          "name": "inputToken",
          "type": "address"
        },
        {
          "internalType": "address",
          "name": "",
          "type": "address"
        },
        {
          "internalType": "uint256",
          "name": "inputAmount",
          "type": "uint256"
        },
        {
          "internalType": "uint256",
          "name": "outputAmount",
          "type": "uint256"
        },
        {
          "internalType": "bytes",
          "name": "data",
          "type": "bytes"
        }
      ],
      "name": "cloberMarketSwapCallback",
      "outputs": [],
      "stateMutability": "payable",
      "type": "function"
    },
    {
      "inputs": [
        {
          "components": [
            {
              "internalType": "address",
              "name": "asset",
              "type": "address"
            },
            {
              "internalType": "Epoch",
              "name": "epoch",
              "type": "uint8"
            }
          ],
          "internalType": "struct CouponKey",
          "name": "couponKey",
          "type": "tuple"
        }
      ],
      "name": "getCouponMarket",
      "outputs": [
        {
          "internalType": "address",
          "name": "",
          "type": "address"
        }
      ],
      "stateMutability": "view",
      "type": "function"
    },
    {
      "inputs": [
        {
          "internalType": "address",
          "name": "",
          "type": "address"
        },
        {
          "internalType": "address",
          "name": "",
          "type": "address"
        },
        {
          "internalType": "uint256[]",
          "name": "",
          "type": "uint256[]"
        },
        {
          "internalType": "uint256[]",
          "name": "",
          "type": "uint256[]"
        },
        {
          "internalType": "bytes",
          "name": "",
          "type": "bytes"
        }
      ],
      "name": "onERC1155BatchReceived",
      "outputs": [
        {
          "internalType": "bytes4",
          "name": "",
          "type": "bytes4"
        }
      ],
      "stateMutability": "nonpayable",
      "type": "function"
    },
    {
      "inputs": [
        {
          "internalType": "address",
          "name": "",
          "type": "address"
        },
        {
          "internalType": "address",
          "name": "",
          "type": "address"
        },
        {
          "internalType": "uint256",
          "name": "",
          "type": "uint256"
        },
        {
          "internalType": "uint256",
          "name": "",
          "type": "uint256"
        },
        {
          "internalType": "bytes",
          "name": "",
          "type": "bytes"
        }
      ],
      "name": "onERC1155Received",
      "outputs": [
        {
          "internalType": "bytes4",
          "name": "",
          "type": "bytes4"
        }
      ],
      "stateMutability": "nonpayable",
      "type": "function"
    },
    {
      "inputs": [],
      "name": "owner",
      "outputs": [
        {
          "internalType": "address",
          "name": "",
          "type": "address"
        }
      ],
      "stateMutability": "view",
      "type": "function"
    },
    {
      "inputs": [],
      "name": "pendingOwner",
      "outputs": [
        {
          "internalType": "address",
          "name": "",
          "type": "address"
        }
      ],
      "stateMutability": "view",
      "type": "function"
    },
    {
      "inputs": [
        {
          "internalType": "bytes",
          "name": "data",
          "type": "bytes"
        }
      ],
      "name": "positionLockAcquired",
      "outputs": [
        {
          "internalType": "bytes",
          "name": "",
          "type": "bytes"
        }
      ],
      "stateMutability": "nonpayable",
      "type": "function"
    },
    {
      "inputs": [],
      "name": "renounceOwnership",
      "outputs": [],
      "stateMutability": "nonpayable",
      "type": "function"
    },
    {
      "inputs": [
        {
          "internalType": "uint256",
          "name": "positionId",
          "type": "uint256"
        },
        {
          "internalType": "uint256",
          "name": "sellCollateralAmount",
          "type": "uint256"
        },
        {
          "internalType": "uint256",
          "name": "minRepayAmount",
          "type": "uint256"
        },
        {
          "internalType": "bytes",
          "name": "swapData",
          "type": "bytes"
        },
        {
          "components": [
            {
              "internalType": "uint256",
              "name": "deadline",
              "type": "uint256"
            },
            {
              "internalType": "uint8",
              "name": "v",
              "type": "uint8"
            },
            {
              "internalType": "bytes32",
              "name": "r",
              "type": "bytes32"
            },
            {
              "internalType": "bytes32",
              "name": "s",
              "type": "bytes32"
            }
          ],
          "internalType": "struct IController.PermitSignature",
          "name": "positionPermitParams",
          "type": "tuple"
        }
      ],
      "name": "repayWithCollateral",
      "outputs": [],
      "stateMutability": "nonpayable",
      "type": "function"
    },
    {
      "inputs": [
        {
          "components": [
            {
              "internalType": "address",
              "name": "asset",
              "type": "address"
            },
            {
              "internalType": "Epoch",
              "name": "epoch",
              "type": "uint8"
            }
          ],
          "internalType": "struct CouponKey",
          "name": "couponKey",
          "type": "tuple"
        },
        {
          "internalType": "address",
          "name": "cloberMarket",
          "type": "address"
        }
      ],
      "name": "setCouponMarket",
      "outputs": [],
      "stateMutability": "nonpayable",
      "type": "function"
    },
    {
      "inputs": [
        {
          "internalType": "bytes4",
          "name": "interfaceId",
          "type": "bytes4"
        }
      ],
      "name": "supportsInterface",
      "outputs": [
        {
          "internalType": "bool",
          "name": "",
          "type": "bool"
        }
      ],
      "stateMutability": "view",
      "type": "function"
    },
    {
      "inputs": [
        {
          "internalType": "address",
          "name": "newOwner",
          "type": "address"
        }
      ],
      "name": "transferOwnership",
      "outputs": [],
      "stateMutability": "nonpayable",
      "type": "function"
    },
    {
      "stateMutability": "payable",
      "type": "receive"
    }
  ],
  "transactionHash": "0xe0b8fc71a5c90794653d034fbbfc4a7d8dffbf9139c2950cd651d16d43d0ea37",
  "args": [
    "0xfcBE16BfD991E4949244E59d9b524e6964b8BB75",
    "0x24aC0938C010Fb520F1068e96d78E0458855111D",
    "0x8dD2584AeD158156882e18E200BD7eA9c85EEfc7",
    "0x82aF49447D8a07e3bd95BD0d56f35241523fBab1",
    "0xa87224d1F96cA183CE119f94b6e48035c93B05Fb",
    "0x14ebF62788361C17A9Fd44f222ecfF1DC75398F4"
  ],
  "numDeployments": 1,
  "solcInputHash": "1a04249fd895e76e0e80528593c6ca0b",
  "bytecode": "0x61014060405260016002553480156200001757600080fd5b50604051620046b6380380620046b68339810160408190526200003a9162000109565b8585858562000049336200007e565b6001600160a01b0393841660805291831660a052821660c052811660e052918216610100521661012052506200018a92505050565b600180546001600160a01b031916905562000099816200009c565b50565b600080546001600160a01b038381166001600160a01b0319831681178455604051919092169283917f8be0079c531659141344cd1fd0a4f28419497f9722a3daafe3b4186f6b6457e09190a35050565b80516001600160a01b03811681146200010457600080fd5b919050565b60008060008060008060c087890312156200012357600080fd5b6200012e87620000ec565b95506200013e60208801620000ec565b94506200014e60408801620000ec565b93506200015e60608801620000ec565b92506200016e60808801620000ec565b91506200017e60a08801620000ec565b90509295509295509295565b60805160a05160c05160e051610100516101205161441f62000297600039600081816118f90152818161197b0152611a48015260008181610397015281816103ff015281816104ed0152818161057c0152818161062c01528181610703015281816107eb0152818161096201528181610a1001528181610a8701528181610b5a01528181610c0601528181610cab015281816111a0015281816112370152818161125f01528181611e6e0152611f7d015260008181611836015261186f015260008181610da701528181611679015281816120a301526125fc015260008181610e6501526113dc015260008181610d780152818161164a015281816120d201526125cf015261441f6000f3fe6080604052600436106100d65760003560e01c80638da5cb5b1161007f578063ee7b3b9b11610059578063ee7b3b9b14610289578063f23a6e61146102a9578063f2fde38b146102ee578063fd235fda1461030e57600080fd5b80638da5cb5b146101ef578063bc197c811461020d578063e30c39781461026b57600080fd5b8063715018a6116100b0578063715018a6146101a357806376c14af0146101ba57806379ba5097146101da57600080fd5b806301ffc9a7146100e257806314b324861461011757806346a114e21461017657600080fd5b366100dd57005b600080fd5b3480156100ee57600080fd5b506101026100fd36600461334e565b610321565b60405190151581526020015b60405180910390f35b34801561012357600080fd5b5061015e610132366004613471565b602081810151915160a09290921b9091016000908152600390915260409020546001600160a01b031690565b6040516001600160a01b03909116815260200161010e565b34801561018257600080fd5b5061019661019136600461350b565b61038a565b60405161010e9190613590565b3480156101af57600080fd5b506101b8610d32565b005b3480156101c657600080fd5b506101b86101d53660046135a3565b610d46565b3480156101e657600080fd5b506101b8611092565b3480156101fb57600080fd5b506000546001600160a01b031661015e565b34801561021957600080fd5b50610252610228366004613665565b7fbc197c810000000000000000000000000000000000000000000000000000000095945050505050565b6040516001600160e01b0319909116815260200161010e565b34801561027757600080fd5b506001546001600160a01b031661015e565b34801561029557600080fd5b506101b86102a4366004613713565b611125565b3480156102b557600080fd5b506102526102c436600461378b565b7ff23a6e610000000000000000000000000000000000000000000000000000000095945050505050565b3480156102fa57600080fd5b506101b86103093660046137f4565b611325565b6101b861031c366004613811565b6113a3565b60006001600160e01b031982167f4e2312e000000000000000000000000000000000000000000000000000000000148061038457507f01ffc9a7000000000000000000000000000000000000000000000000000000006001600160e01b03198316145b92915050565b6060336001600160a01b037f000000000000000000000000000000000000000000000000000000000000000016146103d557604051633006171960e21b815260040160405180910390fd5b6000806000806000868060200190518101906103f1919061390b565b9450945094509450945060007f00000000000000000000000000000000000000000000000000000000000000006001600160a01b031663eb02c301876040518263ffffffff1660e01b815260040161044b91815260200190565b60e060405180830381865afa158015610468573d6000803e3d6000fd5b505050506040513d601f19601f8201168201806040525081019061048c9190613998565b90506000838260c001516104a09190613a44565b60608301516040517f01e336670000000000000000000000000000000000000000000000000000000081526001600160a01b039182166004820152306024820152604481018890529192507f000000000000000000000000000000000000000000000000000000000000000016906301e3366790606401600060405180830381600087803b15801561053157600080fd5b505af1158015610545573d6000803e3d6000fd5b50505050600080610560846060015185608001518988611704565b606086015160405163095ea7b360e01b81526001600160a01b037f00000000000000000000000000000000000000000000000000000000000000008116600483015260248201859052939550919350919091169063095ea7b3906044016020604051808303816000875af11580156105dc573d6000803e3d6000fd5b505050506040513d601f19601f820116820180604052508101906106009190613a57565b5060608401516040516319c5aef560e11b81526001600160a01b039182166004820152602481018490527f00000000000000000000000000000000000000000000000000000000000000009091169063338b5dea90604401600060405180830381600087803b15801561067257600080fd5b505af1158015610686573d6000803e3d6000fd5b5050505086828560a0015161069b9190613a72565b6106a59190613a44565b60a085015260006106b4611d56565b9050606080838760c0015110156106cd578660c0015193505b6000848860c0015103905060006106e78960800151611d73565b90508160001080156106f857508082105b15610701578091505b7f00000000000000000000000000000000000000000000000000000000000000006001600160a01b031663c18927c58f8b60a001518586600014610749578d6020015161074b565b895b6040516001600160e01b031960e087901b16815260048101949094526024840192909252604483015260ff1660648201526084016000604051808303816000875af115801561079e573d6000803e3d6000fd5b505050506040513d6000823e601f3d908101601f191682016040526107c69190810190613b47565b5050815191955093501561085d57604051630f0b076560e01b81526001600160a01b037f00000000000000000000000000000000000000000000000000000000000000001690630f0b0765906108229087903090600401613c19565b600060405180830381600087803b15801561083c57600080fd5b505af1158015610850573d6000803e3d6000fd5b5050505061085d84612065565b6108738d8a6080015186868a6000196000612134565b60808901516040516370a0823160e01b81523060048201526000916001600160a01b0316906370a0823190602401602060405180830381865afa1580156108be573d6000803e3d6000fd5b505050506040513d601f19601f820116820180604052508101906108e29190613c55565b9050808a60c00151116108fe575060c089015160009250610908565b808a60c001510392505b60008311801561091757508183105b15610920578192505b8289101561094157604051630f271b5560e41b815260040160405180910390fd5b60c08a015160808b015160405163095ea7b360e01b81526001600160a01b037f0000000000000000000000000000000000000000000000000000000000000000811660048301529286900360248201819052929091169063095ea7b3906044016020604051808303816000875af11580156109c0573d6000803e3d6000fd5b505050506040513d601f19601f820116820180604052508101906109e49190613a57565b5060808b01516040516319c5aef560e11b81526001600160a01b039182166004820152602481018390527f00000000000000000000000000000000000000000000000000000000000000009091169063338b5dea90604401600060405180830381600087803b158015610a5657600080fd5b505af1158015610a6a573d6000803e3d6000fd5b5050505060c08b0184905250505060a08801516001600160a01b037f0000000000000000000000000000000000000000000000000000000000000000169163c18927c5918f918015610ac0578b60200151610ac2565b875b6040516001600160e01b031960e087901b16815260048101949094526024840192909252604483015260ff1660648201526084016000604051808303816000875af1158015610b15573d6000803e3d6000fd5b505050506040513d6000823e601f3d908101601f19168201604052610b3d9190810190613b47565b5050604051630f0b076560e01b8152919350506001600160a01b037f00000000000000000000000000000000000000000000000000000000000000001690630f0b076590610b919085908f90600401613c19565b600060405180830381600087803b158015610bab57600080fd5b505af1158015610bbf573d6000803e3d6000fd5b50505050600081511115610c6e57610bd681612471565b6040517f430c114b0000000000000000000000000000000000000000000000000000000081526001600160a01b037f0000000000000000000000000000000000000000000000000000000000000000169063430c114b90610c3b908490600401613c6e565b600060405180830381600087803b158015610c5557600080fd5b505af1158015610c69573d6000803e3d6000fd5b505050505b610c7c87608001518c612664565b6040517faba5b4b3000000000000000000000000000000000000000000000000000000008152600481018d90527f00000000000000000000000000000000000000000000000000000000000000006001600160a01b03169063aba5b4b390602401600060405180830381600087803b158015610cf757600080fd5b505af1158015610d0b573d6000803e3d6000fd5b50505050604051806020016040528060008152509c50505050505050505050505050919050565b610d3a61273c565b610d446000612796565b565b610d4e61273c565b6000610d59836127bc565b90506000610d72846020810151905160a09190911b0190565b905060007f00000000000000000000000000000000000000000000000000000000000000006001600160a01b03166308b2ea5e7f000000000000000000000000000000000000000000000000000000000000000084866040518463ffffffff1660e01b8152600401610de693929190613c81565b602060405180830381865afa158015610e03573d6000803e3d6000fd5b505050506040513d601f19601f82011682018060405250810190610e279190613cb2565b6040517f0cf85bcc0000000000000000000000000000000000000000000000000000000081526001600160a01b0386811660048301529192506000917f00000000000000000000000000000000000000000000000000000000000000001690630cf85bcc9060240160a060405180830381865afa158015610eac573d6000803e3d6000fd5b505050506040513d601f19601f82011682018060405250810190610ed09190613cef565b80519091506001600160a01b03161580610f5d5750816001600160a01b0316856001600160a01b031663c55dae636040518163ffffffff1660e01b8152600401602060405180830381865afa158015610f2d573d6000803e3d6000fd5b505050506040513d601f19601f82011682018060405250810190610f519190613cb2565b6001600160a01b031614155b80610fdf575085600001516001600160a01b0316856001600160a01b031663217a4b706040518163ffffffff1660e01b8152600401602060405180830381865afa158015610faf573d6000803e3d6000fd5b505050506040513d601f19601f82011682018060405250810190610fd39190613cb2565b6001600160a01b031614155b15611016576040517f9db8d5b100000000000000000000000000000000000000000000000000000000815260040160405180910390fd5b6000838152600360209081526040808320805473ffffffffffffffffffffffffffffffffffffffff19166001600160a01b038a8116918217909255928a01518a519251939460ff9091169392909116917f1af2ab3fb32011f944cdc84227bb94082408e31deffe0f50b60dbfe9540d92d99190a4505050505050565b60015433906001600160a01b031681146111195760405162461bcd60e51b815260206004820152602960248201527f4f776e61626c6532537465703a2063616c6c6572206973206e6f74207468652060448201527f6e6577206f776e6572000000000000000000000000000000000000000000000060648201526084015b60405180910390fd5b61112281612796565b50565b600254600114611161576040517fab143c0600000000000000000000000000000000000000000000000000000000815260040160405180910390fd5b600280556040517f6352211e00000000000000000000000000000000000000000000000000000000815260048101869052859033906001600160a01b037f00000000000000000000000000000000000000000000000000000000000000001690636352211e90602401602060405180830381865afa1580156111e7573d6000803e3d6000fd5b505050506040513d601f19601f8201168201806040525081019061120b9190613cb2565b6001600160a01b03161461123257604051633006171960e21b815260040160405180910390fd5b61125d7f00000000000000000000000000000000000000000000000000000000000000008784612981565b7f00000000000000000000000000000000000000000000000000000000000000006001600160a01b0316638154831987338888886040516020016112a5959493929190613d87565b6040516020818303038152906040526040518263ffffffff1660e01b81526004016112d09190613590565b6000604051808303816000875af11580156112ef573d6000803e3d6000fd5b505050506040513d6000823e601f3d908101601f191682016040526113179190810190613dbb565b505060016002555050505050565b61132d61273c565b600180546001600160a01b03831673ffffffffffffffffffffffffffffffffffffffff19909116811790915561136b6000546001600160a01b031690565b6001600160a01b03167f38d16b8cac22d99fc7c124b9cd0de2d3fa1faef420bfe791d8c362d765e2270060405160405180910390a350565b6040517fafdd9edc0000000000000000000000000000000000000000000000000000000081523360048201526000906001600160a01b037f0000000000000000000000000000000000000000000000000000000000000000169063afdd9edc90602401602060405180830381865afa158015611423573d6000803e3d6000fd5b505050506040513d601f19601f820116820180604052508101906114479190613cb2565b6001600160a01b03160361146e57604051633006171960e21b815260040160405180910390fd5b6000336001600160a01b031663217a4b706040518163ffffffff1660e01b8152600401602060405180830381865afa1580156114ae573d6000803e3d6000fd5b505050506040513d601f19601f820116820180604052508101906114d29190613cb2565b60408051608081018252600091810182815260608201839052815260208101829052919250906060806000808061150b898b018b613e8b565b959c50939a5091985096509450925090506001600160a01b03808f169089160361155e578b82101561155057604051630f271b5560e41b815260040160405180910390fd5b918b0191908b900390611572565b8a81111561156e578a9003611572565b5060005b61158187898787878787612134565b505050505060008711156115a3576115a36001600160a01b038a163389612a2f565b6040516370a0823160e01b81523060048201526000906001600160a01b038b16906370a0823190602401602060405180830381865afa1580156115ea573d6000803e3d6000fd5b505050506040513d601f19601f8201168201806040525081019061160e9190613c55565b9050896001600160a01b0316846001600160a01b0316141580156116325750600081115b156116f857600061164683600001516127bc565b90507f00000000000000000000000000000000000000000000000000000000000000006001600160a01b03166352aecb247f00000000000000000000000000000000000000000000000000000000000000006116a186612ac0565b8588866040518663ffffffff1660e01b81526004016116c4959493929190613f30565b600060405180830381600087803b1580156116de57600080fd5b505af11580156116f2573d6000803e3d6000fd5b50505050505b50505050505050505050565b6000806000866001600160a01b0316632495a5996040518163ffffffff1660e01b8152600401602060405180830381865afa158015611747573d6000803e3d6000fd5b505050506040513d601f19601f8201168201806040525081019061176b9190613cb2565b90506000866001600160a01b0316632495a5996040518163ffffffff1660e01b8152600401602060405180830381865afa1580156117ad573d6000803e3d6000fd5b505050506040513d601f19601f820116820180604052508101906117d19190613cb2565b604051633f34d4cf60e21b8152600481018890523060248201529091506001600160a01b0389169063fcd3533c90604401600060405180830381600087803b15801561181c57600080fd5b505af1158015611830573d6000803e3d6000fd5b505050507f00000000000000000000000000000000000000000000000000000000000000006001600160a01b0316826001600160a01b0316036118e2577f00000000000000000000000000000000000000000000000000000000000000006001600160a01b031663d0e30db0876040518263ffffffff1660e01b81526004016000604051808303818588803b1580156118c857600080fd5b505af11580156118dc573d6000803e3d6000fd5b50505050505b60405163095ea7b360e01b81526001600160a01b037f0000000000000000000000000000000000000000000000000000000000000000811660048301526024820188905283169063095ea7b3906044016020604051808303816000875af1158015611951573d6000803e3d6000fd5b505050506040513d601f19601f820116820180604052508101906119759190613a57565b506000807f00000000000000000000000000000000000000000000000000000000000000006001600160a01b0316876040516119b19190613f68565b6000604051808303816000865af19150503d80600081146119ee576040519150601f19603f3d011682016040523d82523d6000602084013e6119f3565b606091505b509150915081611a3157806040517feff884140000000000000000000000000000000000000000000000000000000081526004016111109190613590565b60405163095ea7b360e01b81526001600160a01b037f0000000000000000000000000000000000000000000000000000000000000000811660048301526000602483015285169063095ea7b3906044016020604051808303816000875af1158015611aa0573d6000803e3d6000fd5b505050506040513d601f19601f82011682018060405250810190611ac49190613a57565b506040516370a0823160e01b81523060048201526001600160a01b038416906370a0823190602401602060405180830381865afa158015611b09573d6000803e3d6000fd5b505050506040513d601f19601f82011682018060405250810190611b2d9190613c55565b6040516370a0823160e01b81523060048201529095506001600160a01b038516906370a0823190602401602060405180830381865afa158015611b74573d6000803e3d6000fd5b505050506040513d601f19601f82011682018060405250810190611b989190613c55565b95508515611c755760405163095ea7b360e01b81526001600160a01b038b811660048301526024820188905285169063095ea7b3906044016020604051808303816000875af1158015611bef573d6000803e3d6000fd5b505050506040513d601f19601f82011682018060405250810190611c139190613a57565b506040516394bf804d60e01b8152600481018790523060248201526001600160a01b038b16906394bf804d90604401600060405180830381600087803b158015611c5c57600080fd5b505af1158015611c70573d6000803e3d6000fd5b505050505b60405163095ea7b360e01b81526001600160a01b038a811660048301526024820187905284169063095ea7b3906044016020604051808303816000875af1158015611cc4573d6000803e3d6000fd5b505050506040513d601f19601f82011682018060405250810190611ce89190613a57565b506040516394bf804d60e01b8152600481018690523060248201526001600160a01b038a16906394bf804d90604401600060405180830381600087803b158015611d3157600080fd5b505af1158015611d45573d6000803e3d6000fd5b505050505050505094509492505050565b6000611d6e6001611d65612ad5565b60ff1690612ae0565b905090565b604080516002808252606082018352600092839291906020830190803683370190505090508281600081518110611dac57611dac613f84565b60200260200101906001600160a01b031690816001600160a01b031681525050600081600181518110611de157611de1613f84565b60200260200101906001600160a01b031690816001600160a01b0316815250506000836001600160a01b031663313ce5676040518163ffffffff1660e01b8152600401602060405180830381865afa158015611e41573d6000803e3d6000fd5b505050506040513d601f19601f82011682018060405250810190611e659190613f9a565b60ff16905060007f00000000000000000000000000000000000000000000000000000000000000006001600160a01b0316637dc0d1d06040518163ffffffff1660e01b8152600401602060405180830381865afa158015611eca573d6000803e3d6000fd5b505050506040513d601f19601f82011682018060405250810190611eee9190613cb2565b6001600160a01b0316639d23d9f2846040518263ffffffff1660e01b8152600401611f199190613fb7565b600060405180830381865afa158015611f36573d6000803e3d6000fd5b505050506040513d6000823e601f3d908101601f19168201604052611f5e9190810190614004565b905080600181518110611f7357611f73613f84565b60200260200101517f00000000000000000000000000000000000000000000000000000000000000006001600160a01b031663de0bb9336040518163ffffffff1660e01b8152600401602060405180830381865afa158015611fd9573d6000803e3d6000fd5b505050506040513d601f19601f82011682018060405250810190611ffd9190613c55565b02935060128211156120195760128203600a0a84029350612032565b81601203600a0a848161202e5761202e61408a565b0493505b8060008151811061204557612045613f84565b6020026020010151848161205b5761205b61408a565b0495945050505050565b600061207082612af3565b6040517f100886cc0000000000000000000000000000000000000000000000000000000081529091506001600160a01b037f0000000000000000000000000000000000000000000000000000000000000000169063100886cc906120fe9030907f000000000000000000000000000000000000000000000000000000000000000090879087906004016140a0565b600060405180830381600087803b15801561211857600080fd5b505af115801561212c573d6000803e3d6000fd5b505050505050565b835115612333576000846001865161214c9190613a44565b8151811061215c5761215c613f84565b602002602001015190506001855103855260008882888888888860405160200161218c97969594939291906140de565b6040516020818303038152906040529050600186510186526000600360006121b385612ac0565b815260200190815260200160002060009054906101000a90046001600160a01b031690506000816001600160a01b031663c55dae636040518163ffffffff1660e01b8152600401602060405180830381865afa158015612217573d6000803e3d6000fd5b505050506040513d601f19601f8201168201806040525081019061223b9190613cb2565b6040516370a0823160e01b81523060048201526001600160a01b0391909116906370a0823190602401602060405180830381865afa158015612281573d6000803e3d6000fd5b505050506040513d601f19601f820116820180604052508101906122a59190613c55565b84602001516122b49190613a44565b60405163168da99d60e31b81529091506001600160a01b0383169063b46d4ce8906122f890309061ffff9067ffffffffffffffff9087906001908b90600401614164565b600060405180830381600087803b15801561231257600080fd5b505af1158015612326573d6000803e3d6000fd5b5050505050505050612468565b84511561243e576000856001875161234b9190613a44565b8151811061235b5761235b613f84565b602002602001015190506001865103865260008882888888888860405160200161238b97969594939291906140de565b6040516020818303038152906040529050600187510187526000600360006123b285612ac0565b8152602080820192909252604090810160009081205492860151915163168da99d60e31b81526001600160a01b039093169350839263b46d4ce892612404923092909182916002908a90600401614164565b600060405180830381600087803b15801561241e57600080fd5b505af1158015612432573d6000803e3d6000fd5b50505050505050612468565b801561245d57604051630f271b5560e41b815260040160405180910390fd5b612468868885612b59565b50505050505050565b6000815167ffffffffffffffff81111561248d5761248d613378565b6040519080825280602002602001820160405280156124b6578160200160208202803683370190505b5090506000825167ffffffffffffffff8111156124d5576124d5613378565b6040519080825280602002602001820160405280156124fe578160200160208202803683370190505b50905060005b83518110156125905761252f84828151811061252257612522613f84565b6020026020010151612ac0565b83828151811061254157612541613f84565b60200260200101818152505083818151811061255f5761255f613f84565b60200260200101516020015182828151811061257d5761257d613f84565b6020908102919091010152600101612504565b50600061259c84612af3565b6040517fa7eaa1860000000000000000000000000000000000000000000000000000000081529091506001600160a01b037f0000000000000000000000000000000000000000000000000000000000000000169063a7eaa1869061262c907f00000000000000000000000000000000000000000000000000000000000000009087908790309088906004016141df565b600060405180830381600087803b15801561264657600080fd5b505af115801561265a573d6000803e3d6000fd5b5050505050505050565b6040516370a0823160e01b81523060048201526000906001600160a01b038416906370a0823190602401602060405180830381865afa1580156126ab573d6000803e3d6000fd5b505050506040513d601f19601f820116820180604052508101906126cf9190613c55565b9050806000036126de57505050565b604051633f34d4cf60e21b8152600481018290526001600160a01b03838116602483015284169063fcd3533c90604401600060405180830381600087803b15801561272857600080fd5b505af1158015612468573d6000803e3d6000fd5b6000546001600160a01b03163314610d445760405162461bcd60e51b815260206004820181905260248201527f4f776e61626c653a2063616c6c6572206973206e6f7420746865206f776e65726044820152606401611110565b6001805473ffffffffffffffffffffffffffffffffffffffff1916905561112281612da1565b6060600082600001516001600160a01b03166395d89b416040518163ffffffff1660e01b8152600401600060405180830381865afa158015612802573d6000803e3d6000fd5b505050506040513d6000823e601f3d908101601f1916820160405261282a919081019061423d565b9050600061283e846020015160ff16612dfe565b905060008282604051602001612855929190614286565b60405160208183030381529060405261286d90614308565b90506000838360405160200161288492919061432c565b60405160208183030381529060405261289c90614308565b9050825184510160020280601e0183019250806006018201915050818187600001516001600160a01b031663313ce5676040518163ffffffff1660e01b8152600401602060405180830381865afa1580156128fb573d6000803e3d6000fd5b505050506040513d601f19601f8201168201806040525081019061291f9190613f9a565b60f81b6040516020016129679392919092835260208301919091527fff0000000000000000000000000000000000000000000000000000000000000016604082015260410190565b604051602081830303815290604052945050505050919050565b803515612a2a576001600160a01b038316637ac2ff7b308484356129ab6040870160208801614384565b604080516001600160e01b031960e088901b1681526001600160a01b0390951660048601526024850193909352604484019190915260ff1660648301528401356084820152606084013560a482015260c401600060405180830381600087803b158015612a1757600080fd5b505af1925050508015612a28575060015b505b505050565b6040516001600160a01b038316602482015260448101829052612a2a9084907fa9059cbb00000000000000000000000000000000000000000000000000000000906064015b60408051601f198184030181529190526020810180517bffffffffffffffffffffffffffffffffffffffffffffffffffffffff166001600160e01b031990931692909217909152612e9e565b80516020810151905160009160a01b01610384565b6000611d6e42612f86565b6000612aec82846143a1565b9392505050565b606060005b8251811015612b535781612b28848381518110612b1757612b17613f84565b6020026020010151600001516127bc565b604051602001612b399291906143ba565b60408051601f198184030181529190529150600101612af8565b50919050565b6000836001600160a01b0316632495a5996040518163ffffffff1660e01b8152600401602060405180830381865afa158015612b99573d6000803e3d6000fd5b505050506040513d601f19601f82011682018060405250810190612bbd9190613cb2565b6040516370a0823160e01b81523060048201529091506000906001600160a01b038616906370a0823190602401602060405180830381865afa158015612c07573d6000803e3d6000fd5b505050506040513d601f19601f82011682018060405250810190612c2b9190613c55565b6040516370a0823160e01b81523060048201529091506000906001600160a01b038416906370a0823190602401602060405180830381865afa158015612c75573d6000803e3d6000fd5b505050506040513d601f19601f82011682018060405250810190612c999190613c55565b9050612ca58183613a72565b841115612ccb57612cc66001600160a01b0384168630858803859003613074565b508083035b801561212c5760405163095ea7b360e01b81526001600160a01b0387811660048301526024820183905284169063095ea7b3906044016020604051808303816000875af1158015612d20573d6000803e3d6000fd5b505050506040513d601f19601f82011682018060405250810190612d449190613a57565b506040516394bf804d60e01b8152600481018290523060248201526001600160a01b038716906394bf804d90604401600060405180830381600087803b158015612d8d57600080fd5b505af11580156116f8573d6000803e3d6000fd5b600080546001600160a01b0383811673ffffffffffffffffffffffffffffffffffffffff19831681178455604051919092169283917f8be0079c531659141344cd1fd0a4f28419497f9722a3daafe3b4186f6b6457e09190a35050565b60606000612e0b836130c5565b600101905060008167ffffffffffffffff811115612e2b57612e2b613378565b6040519080825280601f01601f191660200182016040528015612e55576020820181803683370190505b5090508181016020015b600019017f3031323334353637383961626364656600000000000000000000000000000000600a86061a8153600a8504945084612e5f57509392505050565b6000612ef3826040518060400160405280602081526020017f5361666545524332303a206c6f772d6c6576656c2063616c6c206661696c6564815250856001600160a01b03166131a79092919063ffffffff16565b9050805160001480612f14575080806020019051810190612f149190613a57565b612a2a5760405162461bcd60e51b815260206004820152602a60248201527f5361666545524332303a204552433230206f7065726174696f6e20646964206e60448201527f6f742073756363656564000000000000000000000000000000000000000000006064820152608401611110565b600080620151808304905080622649658101600062023ab1600483020590506004600362023ab18302010590910390600062164b09610fa0600185010205905060046105b58202058303601f019250600061098f8460500281612feb57612feb61408a565b059050600b8105935083600c028160020103905083826031850360640201019150600060066001836107b28603600c0201038161302a5761302a61408a565b04905060ff811115613068576040517f73cde75100000000000000000000000000000000000000000000000000000000815260040160405180910390fd5b98975050505050505050565b6040516001600160a01b0380851660248301528316604482015260648101829052612a289085907f23b872dd0000000000000000000000000000000000000000000000000000000090608401612a74565b6000807a184f03e93ff9f4daa797ed6e38ed64bf6a1f010000000000000000831061310e577a184f03e93ff9f4daa797ed6e38ed64bf6a1f010000000000000000830492506040015b6d04ee2d6d415b85acef8100000000831061313a576d04ee2d6d415b85acef8100000000830492506020015b662386f26fc10000831061315857662386f26fc10000830492506010015b6305f5e1008310613170576305f5e100830492506008015b612710831061318457612710830492506004015b60648310613196576064830492506002015b600a83106103845760010192915050565b60606131b684846000856131be565b949350505050565b6060824710156132365760405162461bcd60e51b815260206004820152602660248201527f416464726573733a20696e73756666696369656e742062616c616e636520666f60448201527f722063616c6c00000000000000000000000000000000000000000000000000006064820152608401611110565b600080866001600160a01b031685876040516132529190613f68565b60006040518083038185875af1925050503d806000811461328f576040519150601f19603f3d011682016040523d82523d6000602084013e613294565b606091505b50915091506132a5878383876132b0565b979650505050505050565b6060831561331f578251600003613318576001600160a01b0385163b6133185760405162461bcd60e51b815260206004820152601d60248201527f416464726573733a2063616c6c20746f206e6f6e2d636f6e74726163740000006044820152606401611110565b50816131b6565b6131b683838151156133345781518083602001fd5b8060405162461bcd60e51b81526004016111109190613590565b60006020828403121561336057600080fd5b81356001600160e01b031981168114612aec57600080fd5b634e487b7160e01b600052604160045260246000fd5b6040805190810167ffffffffffffffff811182821017156133b1576133b1613378565b60405290565b60405160e0810167ffffffffffffffff811182821017156133b1576133b1613378565b604051601f8201601f1916810167ffffffffffffffff8111828210171561340357613403613378565b604052919050565b6001600160a01b038116811461112257600080fd5b60ff8116811461112257600080fd5b60006040828403121561344157600080fd5b61344961338e565b905081356134568161340b565b8152602082013561346681613420565b602082015292915050565b60006040828403121561348357600080fd5b612aec838361342f565b600067ffffffffffffffff8211156134a7576134a7613378565b50601f01601f191660200190565b600082601f8301126134c657600080fd5b81356134d96134d48261348d565b6133da565b8181528460208386010111156134ee57600080fd5b816020850160208301376000918101602001919091529392505050565b60006020828403121561351d57600080fd5b813567ffffffffffffffff81111561353457600080fd5b6131b6848285016134b5565b60005b8381101561355b578181015183820152602001613543565b50506000910152565b6000815180845261357c816020860160208601613540565b601f01601f19169290920160200192915050565b602081526000612aec6020830184613564565b600080606083850312156135b657600080fd5b6135c0848461342f565b915060408301356135d08161340b565b809150509250929050565b600067ffffffffffffffff8211156135f5576135f5613378565b5060051b60200190565b600082601f83011261361057600080fd5b813560206136206134d4836135db565b82815260059290921b8401810191818101908684111561363f57600080fd5b8286015b8481101561365a5780358352918301918301613643565b509695505050505050565b600080600080600060a0868803121561367d57600080fd5b85356136888161340b565b945060208601356136988161340b565b9350604086013567ffffffffffffffff808211156136b557600080fd5b6136c189838a016135ff565b945060608801359150808211156136d757600080fd5b6136e389838a016135ff565b935060808801359150808211156136f957600080fd5b50613706888289016134b5565b9150509295509295909350565b600080600080600085870361010081121561372d57600080fd5b863595506020870135945060408701359350606087013567ffffffffffffffff81111561375957600080fd5b61376589828a016134b5565b9350506080607f198201121561377a57600080fd5b506080860190509295509295909350565b600080600080600060a086880312156137a357600080fd5b85356137ae8161340b565b945060208601356137be8161340b565b93506040860135925060608601359150608086013567ffffffffffffffff8111156137e857600080fd5b613706888289016134b5565b60006020828403121561380657600080fd5b8135612aec8161340b565b60008060008060008060a0878903121561382a57600080fd5b86356138358161340b565b955060208701356138458161340b565b94506040870135935060608701359250608087013567ffffffffffffffff8082111561387057600080fd5b818901915089601f83011261388457600080fd5b81358181111561389357600080fd5b8a60208285010111156138a557600080fd5b6020830194508093505050509295509295509295565b60006138c96134d48461348d565b90508281528383830111156138dd57600080fd5b612aec836020830184613540565b600082601f8301126138fc57600080fd5b612aec838351602085016138bb565b600080600080600060a0868803121561392357600080fd5b8551945060208601516139358161340b565b809450506040860151925060608601519150608086015167ffffffffffffffff81111561396157600080fd5b613706888289016138eb565b805161397881613420565b919050565b8051801515811461397857600080fd5b80516139788161340b565b600060e082840312156139aa57600080fd5b6139b26133b7565b825167ffffffffffffffff811681146139ca57600080fd5b81526139d86020840161396d565b60208201526139e96040840161397d565b60408201526139fa6060840161398d565b6060820152613a0b6080840161398d565b608082015260a083015160a082015260c083015160c08201528091505092915050565b634e487b7160e01b600052601160045260246000fd5b8181038181111561038457610384613a2e565b600060208284031215613a6957600080fd5b612aec8261397d565b8082018082111561038457610384613a2e565b600082601f830112613a9657600080fd5b81516020613aa66134d4836135db565b82815260609283028501820192828201919087851115613ac557600080fd5b8387015b85811015613b3a5780890382811215613ae25760008081fd5b613aea61338e565b604080831215613afa5760008081fd5b613b0261338e565b92508351613b0f8161340b565b835283880151613b1e81613420565b8389015291815290820151818701528452928401928101613ac9565b5090979650505050505050565b60008060008060808587031215613b5d57600080fd5b845167ffffffffffffffff80821115613b7557600080fd5b613b8188838901613a85565b95506020870151915080821115613b9757600080fd5b50613ba487828801613a85565b604087015160609097015195989097509350505050565b600081518084526020808501945080840160005b83811015613c0e578151805180516001600160a01b0316895260209081015160ff16818a01520151604088015260609096019590820190600101613bcf565b509495945050505050565b606081526000613c2c6060830185613bbb565b6001600160a01b0384166020840152828103604084015260008152602081019150509392505050565b600060208284031215613c6757600080fd5b5051919050565b602081526000612aec6020830184613bbb565b6001600160a01b0384168152826020820152606060408201526000613ca96060830184613564565b95945050505050565b600060208284031215613cc457600080fd5b8151612aec8161340b565b80516fffffffffffffffffffffffffffffffff8116811461397857600080fd5b600060a08284031215613d0157600080fd5b60405160a0810181811067ffffffffffffffff82111715613d2457613d24613378565b6040528251613d328161340b565b8152602083015160038110613d4657600080fd5b6020820152613d5760408401613ccf565b6040820152613d6860608401613ccf565b60608201526080830151613d7b8161340b565b60808201529392505050565b8581526001600160a01b038516602082015283604082015282606082015260a0608082015260006132a560a0830184613564565b600060208284031215613dcd57600080fd5b815167ffffffffffffffff811115613de457600080fd5b6131b6848285016138eb565b600060608284031215613e0257600080fd5b613e0a61338e565b9050613e16838361342f565b81526040820135602082015292915050565b600082601f830112613e3957600080fd5b81356020613e496134d4836135db565b82815260609283028501820192828201919087851115613e6857600080fd5b8387015b85811015613b3a57613e7e8982613df0565b8452928401928101613e6c565b6000806000806000806000610120888a031215613ea757600080fd5b8735613eb28161340b565b9650613ec18960208a01613df0565b9550608088013567ffffffffffffffff80821115613ede57600080fd5b613eea8b838c01613e28565b965060a08a0135915080821115613f0057600080fd5b50613f0d8a828b01613e28565b979a969950949760c08101359660e0820135965061010090910135945092505050565b60006001600160a01b03808816835286602084015285604084015280851660608401525060a060808301526132a560a0830184613564565b60008251613f7a818460208701613540565b9190910192915050565b634e487b7160e01b600052603260045260246000fd5b600060208284031215613fac57600080fd5b8151612aec81613420565b6020808252825182820181905260009190848201906040850190845b81811015613ff85783516001600160a01b031683529284019291840191600101613fd3565b50909695505050505050565b6000602080838503121561401757600080fd5b825167ffffffffffffffff81111561402e57600080fd5b8301601f8101851361403f57600080fd5b805161404d6134d4826135db565b81815260059190911b8201830190838101908783111561406c57600080fd5b928401925b828410156132a557835182529284019290840190614071565b634e487b7160e01b600052601260045260246000fd5b60006001600160a01b038087168352808616602084015250608060408301526140cc6080830185613bbb565b82810360608401526132a58185613564565b60006101206001600160a01b038a16835261411d602084018a805180516001600160a01b0316835260209081015160ff16818401520151604090910152565b80608084015261412f81840189613bbb565b905082810360a08401526141438188613bbb565b60c0840196909652505060e081019290925261010090910152949350505050565b6001600160a01b038716815261ffff8616602082015267ffffffffffffffff8516604082015283606082015260ff8316608082015260c060a0820152600061306860c0830184613564565b600081518084526020808501945080840160005b83811015613c0e578151875295820195908201906001016141c3565b60006001600160a01b03808816835260a0602084015261420260a08401886141af565b838103604085015261421481886141af565b9050818616606085015283810360808501526142308186613564565b9998505050505050505050565b60006020828403121561424f57600080fd5b815167ffffffffffffffff81111561426657600080fd5b8201601f8101841361427757600080fd5b6131b6848251602084016138bb565b60008351614298818460208801613540565b7f20426f6e6420436f75706f6e202800000000000000000000000000000000000090830190815283516142d281600e840160208801613540565b7f2900000000000000000000000000000000000000000000000000000000000000600e9290910191820152600f01949350505050565b80516020808301519190811015612b535760001960209190910360031b1b16919050565b6000835161433e818460208801613540565b7f2d435000000000000000000000000000000000000000000000000000000000009083019081528351614378816003840160208801613540565b01600301949350505050565b60006020828403121561439657600080fd5b8135612aec81613420565b60ff828116828216039081111561038457610384613a2e565b600083516143cc818460208801613540565b8351908301906143e0818360208801613540565b0194935050505056fea2646970667358221220e21e5a905e207ca113185ea2b89ffad6dae6a254eaf42fcf59246375ae641dd164736f6c63430008130033",
  "devdoc": {
    "kind": "dev",
    "methods": {
      "acceptOwnership()": {
        "details": "The new owner accepts the ownership transfer."
      },
      "owner()": {
        "details": "Returns the address of the current owner."
      },
      "pendingOwner()": {
        "details": "Returns the address of the pending owner."
      },
      "renounceOwnership()": {
        "details": "Leaves the contract without owner. It will not be possible to call `onlyOwner` functions. Can only be called by the current owner. NOTE: Renouncing ownership will leave the contract without an owner, thereby disabling any functionality that is only available to the owner."
      },
      "supportsInterface(bytes4)": {
        "details": "See {IERC165-supportsInterface}."
      },
      "transferOwnership(address)": {
        "details": "Starts the ownership transfer of the contract to a new account. Replaces the pending transfer if there is one. Can only be called by the current owner."
      }
    },
    "version": 1
  },
  "userdoc": {
    "kind": "user",
    "methods": {},
    "version": 1
  },
  "storageLayout": {
    "storage": [
      {
        "astId": 7,
        "contract": "contracts/RepayAdapter.sol:RepayAdapter",
        "label": "_owner",
        "offset": 0,
        "slot": "0",
        "type": "t_address"
      },
      {
        "astId": 120,
        "contract": "contracts/RepayAdapter.sol:RepayAdapter",
        "label": "_pendingOwner",
        "offset": 0,
        "slot": "1",
        "type": "t_address"
      },
      {
        "astId": 10173,
        "contract": "contracts/RepayAdapter.sol:RepayAdapter",
        "label": "_locked",
        "offset": 0,
        "slot": "2",
        "type": "t_uint256"
      },
      {
        "astId": 8308,
        "contract": "contracts/RepayAdapter.sol:RepayAdapter",
        "label": "_couponMarkets",
        "offset": 0,
        "slot": "3",
        "type": "t_mapping(t_uint256,t_address)"
      }
    ],
    "types": {
      "t_address": {
        "encoding": "inplace",
        "label": "address",
        "numberOfBytes": "20"
      },
      "t_mapping(t_uint256,t_address)": {
        "encoding": "mapping",
        "key": "t_uint256",
        "label": "mapping(uint256 => address)",
        "numberOfBytes": "32",
        "value": "t_address"
      },
      "t_uint256": {
        "encoding": "inplace",
        "label": "uint256",
        "numberOfBytes": "32"
      }
    }
  }
}