{
  "address": "0xDBb7d68dDB3E5966a401d94E93D84B65E4D26e97",
  "abi": [
    {
      "inputs": [
        {
          "internalType": "address",
          "name": "coupon_",
          "type": "address"
        },
        {
          "internalType": "address",
          "name": "assetPool_",
          "type": "address"
        },
        {
          "internalType": "string",
          "name": "baseURI_",
          "type": "string"
        },
        {
          "internalType": "string",
          "name": "contractURI_",
          "type": "string"
        }
      ],
      "stateMutability": "nonpayable",
      "type": "constructor"
    },
    {
      "inputs": [],
      "name": "AlreadyExpired",
      "type": "error"
    },
    {
      "inputs": [],
      "name": "EpochOverflow",
      "type": "error"
    },
    {
      "inputs": [],
      "name": "InvalidAccess",
      "type": "error"
    },
    {
      "inputs": [],
      "name": "InvalidEpoch",
      "type": "error"
    },
    {
      "inputs": [],
      "name": "InvalidPositionEpoch",
      "type": "error"
    },
    {
      "inputs": [],
      "name": "InvalidShortString",
      "type": "error"
    },
    {
      "inputs": [],
      "name": "InvalidSignature",
      "type": "error"
    },
    {
      "inputs": [
        {
          "internalType": "address",
          "name": "locker",
          "type": "address"
        }
      ],
      "name": "LockedBy",
      "type": "error"
    },
    {
      "inputs": [],
      "name": "NotSettled",
      "type": "error"
    },
    {
      "inputs": [],
      "name": "PermitExpired",
      "type": "error"
    },
    {
      "inputs": [
        {
          "internalType": "string",
          "name": "str",
          "type": "string"
        }
      ],
      "name": "StringTooLong",
      "type": "error"
    },
    {
      "inputs": [],
      "name": "UnmatchedPosition",
      "type": "error"
    },
    {
      "inputs": [],
      "name": "UnregisteredAsset",
      "type": "error"
    },
    {
      "anonymous": false,
      "inputs": [
        {
          "indexed": true,
          "internalType": "address",
          "name": "owner",
          "type": "address"
        },
        {
          "indexed": true,
          "internalType": "address",
          "name": "approved",
          "type": "address"
        },
        {
          "indexed": true,
          "internalType": "uint256",
          "name": "tokenId",
          "type": "uint256"
        }
      ],
      "name": "Approval",
      "type": "event"
    },
    {
      "anonymous": false,
      "inputs": [
        {
          "indexed": true,
          "internalType": "address",
          "name": "owner",
          "type": "address"
        },
        {
          "indexed": true,
          "internalType": "address",
          "name": "operator",
          "type": "address"
        },
        {
          "indexed": false,
          "internalType": "bool",
          "name": "approved",
          "type": "bool"
        }
      ],
      "name": "ApprovalForAll",
      "type": "event"
    },
    {
      "anonymous": false,
      "inputs": [],
      "name": "EIP712DomainChanged",
      "type": "event"
    },
    {
      "anonymous": false,
      "inputs": [
        {
          "indexed": true,
          "internalType": "address",
          "name": "previousOwner",
          "type": "address"
        },
        {
          "indexed": true,
          "internalType": "address",
          "name": "newOwner",
          "type": "address"
        }
      ],
      "name": "OwnershipTransferStarted",
      "type": "event"
    },
    {
      "anonymous": false,
      "inputs": [
        {
          "indexed": true,
          "internalType": "address",
          "name": "previousOwner",
          "type": "address"
        },
        {
          "indexed": true,
          "internalType": "address",
          "name": "newOwner",
          "type": "address"
        }
      ],
      "name": "OwnershipTransferred",
      "type": "event"
    },
    {
      "anonymous": false,
      "inputs": [
        {
          "indexed": true,
          "internalType": "address",
          "name": "asset",
          "type": "address"
        }
      ],
      "name": "RegisterAsset",
      "type": "event"
    },
    {
      "anonymous": false,
      "inputs": [
        {
          "indexed": true,
          "internalType": "address",
          "name": "from",
          "type": "address"
        },
        {
          "indexed": true,
          "internalType": "address",
          "name": "to",
          "type": "address"
        },
        {
          "indexed": true,
          "internalType": "uint256",
          "name": "tokenId",
          "type": "uint256"
        }
      ],
      "name": "Transfer",
      "type": "event"
    },
    {
      "anonymous": false,
      "inputs": [
        {
          "indexed": true,
          "internalType": "uint256",
          "name": "tokenId",
          "type": "uint256"
        },
        {
          "indexed": false,
          "internalType": "uint256",
          "name": "amount",
          "type": "uint256"
        },
        {
          "indexed": false,
          "internalType": "Epoch",
          "name": "expiredWith",
          "type": "uint16"
        }
      ],
      "name": "UpdatePosition",
      "type": "event"
    },
    {
      "inputs": [],
      "name": "DOMAIN_SEPARATOR",
      "outputs": [
        {
          "internalType": "bytes32",
          "name": "",
          "type": "bytes32"
        }
      ],
      "stateMutability": "view",
      "type": "function"
    },
    {
      "inputs": [],
      "name": "MAX_EPOCH",
      "outputs": [
        {
          "internalType": "Epoch",
          "name": "",
          "type": "uint16"
        }
      ],
      "stateMutability": "view",
      "type": "function"
    },
    {
      "inputs": [],
      "name": "PERMIT_TYPEHASH",
      "outputs": [
        {
          "internalType": "bytes32",
          "name": "",
          "type": "bytes32"
        }
      ],
      "stateMutability": "view",
      "type": "function"
    },
    {
      "inputs": [],
      "name": "acceptOwnership",
      "outputs": [],
      "stateMutability": "nonpayable",
      "type": "function"
    },
    {
      "inputs": [
        {
          "internalType": "uint256",
          "name": "positionId",
          "type": "uint256"
        },
        {
          "internalType": "uint256",
          "name": "amount",
          "type": "uint256"
        },
        {
          "internalType": "Epoch",
          "name": "expiredWith",
          "type": "uint16"
        }
      ],
      "name": "adjustPosition",
      "outputs": [
        {
          "components": [
            {
              "components": [
                {
                  "internalType": "address",
                  "name": "asset",
                  "type": "address"
                },
                {
                  "internalType": "Epoch",
                  "name": "epoch",
                  "type": "uint16"
                }
              ],
              "internalType": "struct CouponKey",
              "name": "key",
              "type": "tuple"
            },
            {
              "internalType": "uint256",
              "name": "amount",
              "type": "uint256"
            }
          ],
          "internalType": "struct Coupon[]",
          "name": "couponsToMint",
          "type": "tuple[]"
        },
        {
          "components": [
            {
              "components": [
                {
                  "internalType": "address",
                  "name": "asset",
                  "type": "address"
                },
                {
                  "internalType": "Epoch",
                  "name": "epoch",
                  "type": "uint16"
                }
              ],
              "internalType": "struct CouponKey",
              "name": "key",
              "type": "tuple"
            },
            {
              "internalType": "uint256",
              "name": "amount",
              "type": "uint256"
            }
          ],
          "internalType": "struct Coupon[]",
          "name": "couponsToBurn",
          "type": "tuple[]"
        },
        {
          "internalType": "int256",
          "name": "amountDelta",
          "type": "int256"
        }
      ],
      "stateMutability": "nonpayable",
      "type": "function"
    },
    {
      "inputs": [
        {
          "internalType": "address",
          "name": "to",
          "type": "address"
        },
        {
          "internalType": "uint256",
          "name": "tokenId",
          "type": "uint256"
        }
      ],
      "name": "approve",
      "outputs": [],
      "stateMutability": "nonpayable",
      "type": "function"
    },
    {
      "inputs": [
        {
          "internalType": "address",
          "name": "locker",
          "type": "address"
        },
        {
          "internalType": "uint256",
          "name": "assetId",
          "type": "uint256"
        }
      ],
      "name": "assetDelta",
      "outputs": [
        {
          "internalType": "int256",
          "name": "delta",
          "type": "int256"
        }
      ],
      "stateMutability": "view",
      "type": "function"
    },
    {
      "inputs": [],
      "name": "assetPool",
      "outputs": [
        {
          "internalType": "address",
          "name": "",
          "type": "address"
        }
      ],
      "stateMutability": "view",
      "type": "function"
    },
    {
      "inputs": [
        {
          "internalType": "address",
          "name": "owner",
          "type": "address"
        }
      ],
      "name": "balanceOf",
      "outputs": [
        {
          "internalType": "uint256",
          "name": "",
          "type": "uint256"
        }
      ],
      "stateMutability": "view",
      "type": "function"
    },
    {
      "inputs": [],
      "name": "baseURI",
      "outputs": [
        {
          "internalType": "string",
          "name": "",
          "type": "string"
        }
      ],
      "stateMutability": "view",
      "type": "function"
    },
    {
      "inputs": [
        {
          "components": [
            {
              "components": [
                {
                  "internalType": "address",
                  "name": "asset",
                  "type": "address"
                },
                {
                  "internalType": "Epoch",
                  "name": "epoch",
                  "type": "uint16"
                }
              ],
              "internalType": "struct CouponKey",
              "name": "key",
              "type": "tuple"
            },
            {
              "internalType": "uint256",
              "name": "amount",
              "type": "uint256"
            }
          ],
          "internalType": "struct Coupon[]",
          "name": "coupons",
          "type": "tuple[]"
        }
      ],
      "name": "burnCoupons",
      "outputs": [],
      "stateMutability": "nonpayable",
      "type": "function"
    },
    {
      "inputs": [],
      "name": "contractURI",
      "outputs": [
        {
          "internalType": "string",
          "name": "",
          "type": "string"
        }
      ],
      "stateMutability": "view",
      "type": "function"
    },
    {
      "inputs": [
        {
          "internalType": "address",
          "name": "token",
          "type": "address"
        },
        {
          "internalType": "uint256",
          "name": "amount",
          "type": "uint256"
        }
      ],
      "name": "depositToken",
      "outputs": [],
      "stateMutability": "nonpayable",
      "type": "function"
    },
    {
      "inputs": [],
      "name": "eip712Domain",
      "outputs": [
        {
          "internalType": "bytes1",
          "name": "fields",
          "type": "bytes1"
        },
        {
          "internalType": "string",
          "name": "name",
          "type": "string"
        },
        {
          "internalType": "string",
          "name": "version",
          "type": "string"
        },
        {
          "internalType": "uint256",
          "name": "chainId",
          "type": "uint256"
        },
        {
          "internalType": "address",
          "name": "verifyingContract",
          "type": "address"
        },
        {
          "internalType": "bytes32",
          "name": "salt",
          "type": "bytes32"
        },
        {
          "internalType": "uint256[]",
          "name": "extensions",
          "type": "uint256[]"
        }
      ],
      "stateMutability": "view",
      "type": "function"
    },
    {
      "inputs": [
        {
          "internalType": "uint256",
          "name": "tokenId",
          "type": "uint256"
        }
      ],
      "name": "getApproved",
      "outputs": [
        {
          "internalType": "address",
          "name": "",
          "type": "address"
        }
      ],
      "stateMutability": "view",
      "type": "function"
    },
    {
      "inputs": [
        {
          "internalType": "uint256",
          "name": "positionId",
          "type": "uint256"
        }
      ],
      "name": "getPosition",
      "outputs": [
        {
          "components": [
            {
              "internalType": "address",
              "name": "asset",
              "type": "address"
            },
            {
              "internalType": "uint64",
              "name": "nonce",
              "type": "uint64"
            },
            {
              "internalType": "Epoch",
              "name": "expiredWith",
              "type": "uint16"
            },
            {
              "internalType": "bool",
              "name": "isSettled",
              "type": "bool"
            },
            {
              "internalType": "uint256",
              "name": "amount",
              "type": "uint256"
            }
          ],
          "internalType": "struct BondPosition",
          "name": "",
          "type": "tuple"
        }
      ],
      "stateMutability": "view",
      "type": "function"
    },
    {
      "inputs": [
        {
          "internalType": "address",
          "name": "owner",
          "type": "address"
        },
        {
          "internalType": "address",
          "name": "operator",
          "type": "address"
        }
      ],
      "name": "isApprovedForAll",
      "outputs": [
        {
          "internalType": "bool",
          "name": "",
          "type": "bool"
        }
      ],
      "stateMutability": "view",
      "type": "function"
    },
    {
      "inputs": [
        {
          "internalType": "address",
          "name": "asset",
          "type": "address"
        }
      ],
      "name": "isAssetRegistered",
      "outputs": [
        {
          "internalType": "bool",
          "name": "",
          "type": "bool"
        }
      ],
      "stateMutability": "view",
      "type": "function"
    },
    {
      "inputs": [
        {
          "internalType": "bytes",
          "name": "data",
          "type": "bytes"
        }
      ],
      "name": "lock",
      "outputs": [
        {
          "internalType": "bytes",
          "name": "result",
          "type": "bytes"
        }
      ],
      "stateMutability": "nonpayable",
      "type": "function"
    },
    {
      "inputs": [],
      "name": "lockData",
      "outputs": [
        {
          "internalType": "uint128",
          "name": "",
          "type": "uint128"
        },
        {
          "internalType": "uint128",
          "name": "",
          "type": "uint128"
        }
      ],
      "stateMutability": "view",
      "type": "function"
    },
    {
      "inputs": [
        {
          "internalType": "address",
          "name": "asset",
          "type": "address"
        }
      ],
      "name": "mint",
      "outputs": [
        {
          "internalType": "uint256",
          "name": "positionId",
          "type": "uint256"
        }
      ],
      "stateMutability": "nonpayable",
      "type": "function"
    },
    {
      "inputs": [
        {
          "components": [
            {
              "components": [
                {
                  "internalType": "address",
                  "name": "asset",
                  "type": "address"
                },
                {
                  "internalType": "Epoch",
                  "name": "epoch",
                  "type": "uint16"
                }
              ],
              "internalType": "struct CouponKey",
              "name": "key",
              "type": "tuple"
            },
            {
              "internalType": "uint256",
              "name": "amount",
              "type": "uint256"
            }
          ],
          "internalType": "struct Coupon[]",
          "name": "coupons",
          "type": "tuple[]"
        },
        {
          "internalType": "address",
          "name": "to",
          "type": "address"
        },
        {
          "internalType": "bytes",
          "name": "data",
          "type": "bytes"
        }
      ],
      "name": "mintCoupons",
      "outputs": [],
      "stateMutability": "nonpayable",
      "type": "function"
    },
    {
      "inputs": [],
      "name": "name",
      "outputs": [
        {
          "internalType": "string",
          "name": "",
          "type": "string"
        }
      ],
      "stateMutability": "view",
      "type": "function"
    },
    {
      "inputs": [],
      "name": "nextId",
      "outputs": [
        {
          "internalType": "uint256",
          "name": "",
          "type": "uint256"
        }
      ],
      "stateMutability": "view",
      "type": "function"
    },
    {
      "inputs": [
        {
          "internalType": "uint256",
          "name": "positionId",
          "type": "uint256"
        }
      ],
      "name": "nonces",
      "outputs": [
        {
          "internalType": "uint256",
          "name": "",
          "type": "uint256"
        }
      ],
      "stateMutability": "view",
      "type": "function"
    },
    {
      "inputs": [],
      "name": "owner",
      "outputs": [
        {
          "internalType": "address",
          "name": "",
          "type": "address"
        }
      ],
      "stateMutability": "view",
      "type": "function"
    },
    {
      "inputs": [
        {
          "internalType": "uint256",
          "name": "tokenId",
          "type": "uint256"
        }
      ],
      "name": "ownerOf",
      "outputs": [
        {
          "internalType": "address",
          "name": "",
          "type": "address"
        }
      ],
      "stateMutability": "view",
      "type": "function"
    },
    {
      "inputs": [],
      "name": "pendingOwner",
      "outputs": [
        {
          "internalType": "address",
          "name": "",
          "type": "address"
        }
      ],
      "stateMutability": "view",
      "type": "function"
    },
    {
      "inputs": [
        {
          "internalType": "address",
          "name": "spender",
          "type": "address"
        },
        {
          "internalType": "uint256",
          "name": "tokenId",
          "type": "uint256"
        },
        {
          "internalType": "uint256",
          "name": "deadline",
          "type": "uint256"
        },
        {
          "internalType": "uint8",
          "name": "v",
          "type": "uint8"
        },
        {
          "internalType": "bytes32",
          "name": "r",
          "type": "bytes32"
        },
        {
          "internalType": "bytes32",
          "name": "s",
          "type": "bytes32"
        }
      ],
      "name": "permit",
      "outputs": [],
      "stateMutability": "nonpayable",
      "type": "function"
    },
    {
      "inputs": [
        {
          "internalType": "address",
          "name": "asset",
          "type": "address"
        }
      ],
      "name": "registerAsset",
      "outputs": [],
      "stateMutability": "nonpayable",
      "type": "function"
    },
    {
      "inputs": [],
      "name": "renounceOwnership",
      "outputs": [],
      "stateMutability": "nonpayable",
      "type": "function"
    },
    {
      "inputs": [
        {
          "internalType": "address",
          "name": "from",
          "type": "address"
        },
        {
          "internalType": "address",
          "name": "to",
          "type": "address"
        },
        {
          "internalType": "uint256",
          "name": "tokenId",
          "type": "uint256"
        }
      ],
      "name": "safeTransferFrom",
      "outputs": [],
      "stateMutability": "nonpayable",
      "type": "function"
    },
    {
      "inputs": [
        {
          "internalType": "address",
          "name": "from",
          "type": "address"
        },
        {
          "internalType": "address",
          "name": "to",
          "type": "address"
        },
        {
          "internalType": "uint256",
          "name": "tokenId",
          "type": "uint256"
        },
        {
          "internalType": "bytes",
          "name": "data",
          "type": "bytes"
        }
      ],
      "name": "safeTransferFrom",
      "outputs": [],
      "stateMutability": "nonpayable",
      "type": "function"
    },
    {
      "inputs": [
        {
          "internalType": "address",
          "name": "operator",
          "type": "address"
        },
        {
          "internalType": "bool",
          "name": "approved",
          "type": "bool"
        }
      ],
      "name": "setApprovalForAll",
      "outputs": [],
      "stateMutability": "nonpayable",
      "type": "function"
    },
    {
      "inputs": [
        {
          "internalType": "uint256",
          "name": "positionId",
          "type": "uint256"
        }
      ],
      "name": "settlePosition",
      "outputs": [],
      "stateMutability": "nonpayable",
      "type": "function"
    },
    {
      "inputs": [
        {
          "internalType": "bytes4",
          "name": "interfaceId",
          "type": "bytes4"
        }
      ],
      "name": "supportsInterface",
      "outputs": [
        {
          "internalType": "bool",
          "name": "",
          "type": "bool"
        }
      ],
      "stateMutability": "view",
      "type": "function"
    },
    {
      "inputs": [],
      "name": "symbol",
      "outputs": [
        {
          "internalType": "string",
          "name": "",
          "type": "string"
        }
      ],
      "stateMutability": "view",
      "type": "function"
    },
    {
      "inputs": [
        {
          "internalType": "uint256",
          "name": "tokenId",
          "type": "uint256"
        }
      ],
      "name": "tokenURI",
      "outputs": [
        {
          "internalType": "string",
          "name": "",
          "type": "string"
        }
      ],
      "stateMutability": "view",
      "type": "function"
    },
    {
      "inputs": [
        {
          "internalType": "address",
          "name": "from",
          "type": "address"
        },
        {
          "internalType": "address",
          "name": "to",
          "type": "address"
        },
        {
          "internalType": "uint256",
          "name": "tokenId",
          "type": "uint256"
        }
      ],
      "name": "transferFrom",
      "outputs": [],
      "stateMutability": "nonpayable",
      "type": "function"
    },
    {
      "inputs": [
        {
          "internalType": "address",
          "name": "newOwner",
          "type": "address"
        }
      ],
      "name": "transferOwnership",
      "outputs": [],
      "stateMutability": "nonpayable",
      "type": "function"
    },
    {
      "inputs": [
        {
          "internalType": "address",
          "name": "token",
          "type": "address"
        },
        {
          "internalType": "address",
          "name": "to",
          "type": "address"
        },
        {
          "internalType": "uint256",
          "name": "amount",
          "type": "uint256"
        }
      ],
      "name": "withdrawToken",
      "outputs": [],
      "stateMutability": "nonpayable",
      "type": "function"
    }
  ],
  "transactionHash": "0xee370660fb95b7ddf66a23f7d98068a435d654d3f06dc99626a5d607037f5071",
  "args": [
    "0x3e21698fc6A8bAda6Caf38C99F5D57121b90b4A0",
    "0x95269638e68F0c6ABee2574eF9a8c99b037a5bD1",
    "https://coupon.finance/api/nft/chains/421613/bonds/",
    "https://coupon.finance/api/nft/chains/421613/bonds"
  ],
  "numDeployments": 1,
  "solcInputHash": "79048f46984044ebed3dd29bb6e9cb9d",
  "bytecode": "0x6101a06040526001600a553480156200001757600080fd5b5060405162004a7338038062004a738339810160408190526200003a91620003bc565b838383836040518060400160405280600d81526020016c2137b732102837b9b4ba34b7b760991b81525060405180604001604052806002815260200161042560f41b8152508181604051806040016040528060018152602001603160f81b815250828184848160009081620000b09190620004db565b506001620000bf8282620004db565b50620000d191508390506006620001d9565b61012052620000e2816007620001d9565b61014052815160208084019190912060e052815190820120610100524660a0526200017060e05161010051604080517f8b73c3c69bb8fe3d512ecc4cf759cc79239f7b179b0ffacaa9a75d522b39400f60208201529081019290925260608201524660808201523060a082015260009060c00160405160208183030381529060405280519060200120905090565b60805250503060c0525050506001600160a01b038681166101605285166101805260086200019f8582620004db565b506009620001ae8482620004db565b50505050505050620001cf620001c96200021260201b60201c565b62000216565b5050505062000601565b6000602083511015620001f957620001f18362000234565b90506200020c565b81620002068482620004db565b5060ff90505b92915050565b3390565b600e80546001600160a01b0319169055620002318162000280565b50565b600080829050601f815111156200026b578260405163305a27a960e01b8152600401620002629190620005a7565b60405180910390fd5b80516200027882620005dc565b179392505050565b600d80546001600160a01b038381166001600160a01b0319831681179093556040519116919082907f8be0079c531659141344cd1fd0a4f28419497f9722a3daafe3b4186f6b6457e090600090a35050565b80516001600160a01b0381168114620002ea57600080fd5b919050565b634e487b7160e01b600052604160045260246000fd5b60005b838110156200032257818101518382015260200162000308565b50506000910152565b600082601f8301126200033d57600080fd5b81516001600160401b03808211156200035a576200035a620002ef565b604051601f8301601f19908116603f01168101908282118183101715620003855762000385620002ef565b816040528381528660208588010111156200039f57600080fd5b620003b284602083016020890162000305565b9695505050505050565b60008060008060808587031215620003d357600080fd5b620003de85620002d2565b9350620003ee60208601620002d2565b60408601519093506001600160401b03808211156200040c57600080fd5b6200041a888389016200032b565b935060608701519150808211156200043157600080fd5b5062000440878288016200032b565b91505092959194509250565b600181811c908216806200046157607f821691505b6020821081036200048257634e487b7160e01b600052602260045260246000fd5b50919050565b601f821115620004d657600081815260208120601f850160051c81016020861015620004b15750805b601f850160051c820191505b81811015620004d257828155600101620004bd565b5050505b505050565b81516001600160401b03811115620004f757620004f7620002ef565b6200050f816200050884546200044c565b8462000488565b602080601f8311600181146200054757600084156200052e5750858301515b600019600386901b1c1916600185901b178555620004d2565b600085815260208120601f198616915b82811015620005785788860151825594840194600190910190840162000557565b5085821015620005975787850151600019600388901b60f8161c191681555b5050505050600190811b01905550565b6020815260008251806020840152620005c881604085016020870162000305565b601f01601f19169190910160400192915050565b80516020808301519190811015620004825760001960209190910360031b1b16919050565b60805160a05160c05160e05161010051610120516101405161016051610180516143ec62000687600039600081816103bf01528181610afd0152611df3015260008181611b18015261243201526000611770015260006117450152600061239c01526000612374015260006122cf015260006122f90152600061232301526143ec6000f3fe608060405234801561001057600080fd5b50600436106102d35760003560e01c8063715018a611610186578063b88d4fde116100e3578063e6ee95e211610097578063eb02c30111610071578063eb02c30114610650578063f2fde38b14610755578063f8fcd1561461076857600080fd5b8063e6ee95e2146105f9578063e8a3d4851461060c578063e985e9c51461061457600080fd5b8063c87b56dd116100c8578063c87b56dd146105c2578063d312998f146105d5578063e30c3978146105e857600080fd5b8063b88d4fde14610593578063bf9559c3146105a657600080fd5b806384b0196e1161013a57806395d89b411161011f57806395d89b4114610565578063a22cb4651461056d578063aba5b4b31461058057600080fd5b806384b0196e146105395780638da5cb5b1461055457600080fd5b80637ac2ff7b1161016b5780637ac2ff7b146104f15780637c6af77d14610504578063815483191461052657600080fd5b8063715018a6146104e157806379ba5097146104e957600080fd5b8063338b5dea1161023457806365ae5847116101e85780636af6dbf4116101cd5780636af6dbf41461049b5780636c0360eb146104c657806370a08231146104ce57600080fd5b806365ae5847146104755780636a6278421461048857600080fd5b806342842e0e1161021957806342842e0e1461044657806361b8ce8c146104595780636352211e1461046257600080fd5b8063338b5dea1461042b5780633644e5151461043e57600080fd5b8063141a468c1161028b5780632ec939f9116102705780632ec939f9146103ba57806330adf81f146103e1578063332b2ee01461040857600080fd5b8063141a468c1461036857806323b872dd146103a757600080fd5b806306fdde03116102bc57806306fdde0314610315578063081812fc1461032a578063095ea7b31461035557600080fd5b806301e33667146102d857806301ffc9a7146102ed575b600080fd5b6102eb6102e6366004613989565b610792565b005b6103006102fb3660046139db565b610800565b60405190151581526020015b60405180910390f35b61031d610844565b60405161030c9190613a48565b61033d610338366004613a5b565b6108d6565b6040516001600160a01b03909116815260200161030c565b6102eb610363366004613a74565b6108fd565b610399610376366004613a5b565b600090815260106020526040902054600160a01b900467ffffffffffffffff1690565b60405190815260200161030c565b6102eb6103b5366004613989565b610a2e565b61033d7f000000000000000000000000000000000000000000000000000000000000000081565b6103997f49ecf333e5b8c95c40fdafc95c1ad136e8914a8fb55e9dc8bb01eaa83a2df9ad81565b610300610416366004613a9e565b600f6020526000908152604090205460ff1681565b6102eb610439366004613a74565b610aa5565b610399610b37565b6102eb610454366004613989565b610b46565b610399600a5481565b61033d610470366004613a5b565b610b61565b6102eb610483366004613b47565b610bc6565b610399610496366004613a9e565b610d0e565b6103996104a9366004613a74565b600c60209081526000928352604080842090915290825290205481565b61031d610de7565b6103996104dc366004613a9e565b610e75565b6102eb610f0f565b6102eb610f23565b6102eb6104ff366004613bcb565b610fb1565b610517610512366004613c3d565b611228565b60405161030c93929190613ccf565b61031d610534366004613d05565b6115ba565b610541611737565b60405161030c9796959493929190613d47565b600d546001600160a01b031661033d565b61031d6117dc565b6102eb61057b366004613e07565b6117eb565b6102eb61058e366004613a5b565b6117fa565b6102eb6105a1366004613ed6565b611973565b6105af6103b381565b60405161ffff909116815260200161030c565b61031d6105d0366004613a5b565b6119eb565b6102eb6105e3366004613a9e565b611a52565b600e546001600160a01b031661033d565b6102eb610607366004613f81565b611aa6565b61031d611bd2565b610300610622366004613fb7565b6001600160a01b03918216600090815260056020908152604080832093909416825291909152205460ff1690565b6106fa61065e366004613a5b565b6040805160a08101825260008082526020820181905291810182905260608101829052608081019190915250600090815260106020908152604091829020825160a08101845281546001600160a01b0381168252600160a01b810467ffffffffffffffff1693820193909352600160e01b830461ffff1693810193909352600160f01b90910460ff161515606083015260010154608082015290565b60405161030c9190600060a0820190506001600160a01b03835116825267ffffffffffffffff602084015116602083015261ffff60408401511660408301526060830151151560608301526080830151608083015292915050565b6102eb610763366004613a9e565b611bdf565b600b54604080516001600160801b038084168252600160801b90930490921660208301520161030c565b600061079e600b611c50565b9050336001600160a01b038216146107d9576040516313d2c13360e21b81526001600160a01b03821660048201526024015b60405180910390fd5b6107ee846001600160a01b0316836000611c9d565b506107fa848385611dac565b50505050565b60006001600160e01b031982167f6831a4fd00000000000000000000000000000000000000000000000000000000148061083e575061083e82611e55565b92915050565b60606000805461085390613fea565b80601f016020809104026020016040519081016040528092919081815260200182805461087f90613fea565b80156108cc5780601f106108a1576101008083540402835291602001916108cc565b820191906000526020600020905b8154815290600101906020018083116108af57829003601f168201915b5050505050905090565b60006108e182611ef0565b506000908152600460205260409020546001600160a01b031690565b600061090882610b61565b9050806001600160a01b0316836001600160a01b0316036109915760405162461bcd60e51b815260206004820152602160248201527f4552433732313a20617070726f76616c20746f2063757272656e74206f776e6560448201527f720000000000000000000000000000000000000000000000000000000000000060648201526084016107d0565b336001600160a01b03821614806109ad57506109ad8133610622565b610a1f5760405162461bcd60e51b815260206004820152603d60248201527f4552433732313a20617070726f76652063616c6c6572206973206e6f7420746f60448201527f6b656e206f776e6572206f7220617070726f76656420666f7220616c6c00000060648201526084016107d0565b610a298383611f54565b505050565b610a383382611fc2565b610a9a5760405162461bcd60e51b815260206004820152602d60248201527f4552433732313a2063616c6c6572206973206e6f7420746f6b656e206f776e6560448201526c1c881bdc88185c1c1c9bdd9959609a1b60648201526084016107d0565b610a29838383612041565b6000610ab1600b611c50565b9050336001600160a01b03821614610ae7576040516313d2c13360e21b81526001600160a01b03821660048201526024016107d0565b8115610a2957610b226001600160a01b038416337f00000000000000000000000000000000000000000000000000000000000000008561223a565b6107fa836001600160a01b0316600084611c9d565b6000610b416122c2565b905090565b610a2983838360405180602001604052806000815250611973565b6000818152600260205260408120546001600160a01b03168061083e5760405162461bcd60e51b815260206004820152601860248201527f4552433732313a20696e76616c696420746f6b656e204944000000000000000060448201526064016107d0565b6000610bd2600b611c50565b9050336001600160a01b03821614610c08576040516313d2c13360e21b81526001600160a01b03821660048201526024016107d0565b60005b85811015610c7257610c69610c46888884818110610c2b57610c2b61401e565b905060600201803603810190610c419190614034565b6123ed565b888884818110610c5857610c5861401e565b905060600201604001356000611c9d565b50600101610c0b565b50610d06848787808060200260200160405190810160405280939291908181526020016000905b82821015610cc557610cb660608302860136819003810190614034565b81526020019060010190610c99565b505050505085858080601f01602080910402602001604051908101604052809392919081815260200183838082843760009201919091525061240292505050565b505050505050565b600080610d1b600b611c50565b9050336001600160a01b03821614610d51576040516313d2c13360e21b81526001600160a01b03821660048201526024016107d0565b6001600160a01b0383166000908152600f602052604090205460ff16610da3576040517fcea93bf200000000000000000000000000000000000000000000000000000000815260040160405180910390fd5b600a805460018101909155600081815260106020526040902080546001600160a01b0319166001600160a01b0386161790559150610de1338361246b565b50919050565b60088054610df490613fea565b80601f0160208091040260200160405190810160405280929190818152602001828054610e2090613fea565b8015610e6d5780601f10610e4257610100808354040283529160200191610e6d565b820191906000526020600020905b815481529060010190602001808311610e5057829003601f168201915b505050505081565b60006001600160a01b038216610ef35760405162461bcd60e51b815260206004820152602960248201527f4552433732313a2061646472657373207a65726f206973206e6f74206120766160448201527f6c6964206f776e6572000000000000000000000000000000000000000000000060648201526084016107d0565b506001600160a01b031660009081526003602052604090205490565b610f176124b5565b610f21600061250f565b565b600e5433906001600160a01b03168114610fa55760405162461bcd60e51b815260206004820152602960248201527f4f776e61626c6532537465703a2063616c6c6572206973206e6f74207468652060448201527f6e6577206f776e6572000000000000000000000000000000000000000000000060648201526084016107d0565b610fae8161250f565b50565b83421115610feb576040517f1a15a3cc00000000000000000000000000000000000000000000000000000000815260040160405180910390fd5b60006110697f49ecf333e5b8c95c40fdafc95c1ad136e8914a8fb55e9dc8bb01eaa83a2df9ad888861101c81612528565b6040805160208101959095526001600160a01b03909316928401929092526060830152608082015260a0810187905260c0016040516020818303038152906040528051906020012061254f565b9050600061107687610b61565b9050806001600160a01b0316886001600160a01b0316036110aa57604051638baa579f60e01b815260040160405180910390fd5b6001600160a01b0381163b156111d757604080516020810186905280820185905260f887901b7fff000000000000000000000000000000000000000000000000000000000000001660608201528151604181830301815260618201928390527f1626ba7e000000000000000000000000000000000000000000000000000000009092526001600160a01b03831691631626ba7e9161114c91869160650161409b565b602060405180830381865afa158015611169573d6000803e3d6000fd5b505050506040513d601f19601f8201168201806040525081019061118d91906140b4565b7bffffffffffffffffffffffffffffffffffffffffffffffffffffffff1916631626ba7e60e01b146111d257604051638baa579f60e01b815260040160405180910390fd5b611214565b806001600160a01b03166111ed83878787612597565b6001600160a01b03161461121457604051638baa579f60e01b815260040160405180910390fd5b61121e8888611f54565b5050505050505050565b606080600080611238600b611c50565b9050336001600160a01b0382161461126e576040516313d2c13360e21b81526001600160a01b03821660048201526024016107d0565b866112793389611fc2565b6112af576040517fc0185c6400000000000000000000000000000000000000000000000000000000815260040160405180910390fd5b60006112b96125bf565b90508715806112ca575061ffff8716155b156112d757600097508096505b61ffff80821690881610806112f1575061ffff87166103b3105b1561130f5760405163d5b25b6360e01b815260040160405180910390fd5b6000898152601060208181526040808420815160a08101835281546001600160a01b0381168252600160a01b810467ffffffffffffffff1682860152600160e01b810461ffff16938201938452600160f01b900460ff16151560608201526001909101805460808301528e865293909252918b9055905190916113989161ffff90811691161090565b80156113af5750604081015161ffff808416911611155b156113f15788156113ec576040517fa0d64f8a00000000000000000000000000000000000000000000000000000000815260040160405180910390fd5b6114d3565b60008a81526010602052604080822080547fffff0000ffffffffffffffffffffffffffffffffffffffffffffffffffffffff16600160e01b61ffff8d16021790558201516114459161ffff90811691161490565b156114555761ffff821660408201525b60008a815260106020908152604091829020825160a08101845281546001600160a01b0381168252600160a01b810467ffffffffffffffff1693820193909352600160e01b830461ffff1693810193909352600160f01b90910460ff16151560608301526001015460808201526114cd9082906125d8565b90975095505b60005b8751811015611532576115296115048983815181106114f7576114f761401e565b60200260200101516123ed565b60008a84815181106115185761151861401e565b602002602001015160200151611c9d565b506001016114d6565b5060005b86518110156115855761157c6115578883815181106114f7576114f761401e565b8883815181106115695761156961401e565b6020026020010151602001516000611c9d565b50600101611536565b506115a281600001516001600160a01b03168a8360800151611c9d565b945050506115af816129f3565b505093509350939050565b6060611616600b3381546001600160801b039081167f760a9a962ae3d184e99c0483cf5684fb3170f47116ca4f445c50209da4f4f90681019290925582546fffffffffffffffffffffffffffffffff1916600190920116179055565b6040517f46a114e200000000000000000000000000000000000000000000000000000000815233906346a114e29061165490869086906004016140d1565b6000604051808303816000875af1158015611673573d6000803e3d6000fd5b505050506040513d6000823e601f3d908101601f1916820160405261169b9190810190614100565b600b549091506001600160801b031660010361170557600b54600160801b90046001600160801b0316156116fb576040517fba329a9b00000000000000000000000000000000000000000000000000000000815260040160405180910390fd5b6000600b5561083e565b600b80546fffffffffffffffffffffffffffffffff1981166001600160801b039182166000190190911617905561083e565b60006060808280808361176b7f00000000000000000000000000000000000000000000000000000000000000006006612a52565b6117967f00000000000000000000000000000000000000000000000000000000000000006007612a52565b604080516000808252602082019092527f0f000000000000000000000000000000000000000000000000000000000000009b939a50919850469750309650945092509050565b60606001805461085390613fea565b6117f6338383612afd565b5050565b6000611806600b611c50565b9050336001600160a01b0382161461183c576040516313d2c13360e21b81526001600160a01b03821660048201526024016107d0565b61184582612bcb565b600082815260106020908152604091829020825160a08101845281546001600160a01b0381168252600160a01b810467ffffffffffffffff1693820193909352600160e01b830461ffff16938101849052600160f01b90920460ff1615156060830152600101546080820152906103b310156118d45760405163d5b25b6360e01b815260040160405180910390fd5b80608001516000036118ee576118e983612c35565b611928565b61190a81604001516118fe612cca565b61ffff90811691161090565b156119285760405163d5b25b6360e01b815260040160405180910390fd5b6080810151604080830151815192835261ffff16602083015284917fd4e012ba2e7ea69149a846c8b4315219b01c4bd4430379b72b414c02a097554b910160405180910390a2505050565b61197d3383611fc2565b6119df5760405162461bcd60e51b815260206004820152602d60248201527f4552433732313a2063616c6c6572206973206e6f7420746f6b656e206f776e6560448201526c1c881bdc88185c1c1c9bdd9959609a1b60648201526084016107d0565b6107fa84848484612cd5565b60606119f682611ef0565b6000611a00612d5e565b90506000815111611a205760405180602001604052806000815250611a4b565b80611a2a84612d6d565b604051602001611a3b929190614177565b6040516020818303038152906040525b9392505050565b611a5a6124b5565b6001600160a01b0381166000818152600f6020526040808220805460ff19166001179055517f1d034b2e4fdfa6ae2551ce484daa9f20adabb0ab3a986c965e974981247b50489190a250565b6000611ab2600b611c50565b9050336001600160a01b03821614611ae8576040516313d2c13360e21b81526001600160a01b03821660048201526024016107d0565b6040517f84a3d8240000000000000000000000000000000000000000000000000000000081526001600160a01b037f000000000000000000000000000000000000000000000000000000000000000016906384a3d82490611b51903390879087906004016141a6565b600060405180830381600087803b158015611b6b57600080fd5b505af1158015611b7f573d6000803e3d6000fd5b5050505060005b828110156107fa57611bc9611ba6858584818110610c2b57610c2b61401e565b6000868685818110611bba57611bba61401e565b90506060020160400135611c9d565b50600101611b86565b60098054610df490613fea565b611be76124b5565b600e80546001600160a01b0383166001600160a01b03199091168117909155611c18600d546001600160a01b031690565b6001600160a01b03167f38d16b8cac22d99fc7c124b9cd0de2d3fa1faef420bfe791d8c362d765e2270060405160405180910390a350565b805460009061083e90611c6e906001906001600160801b0316614235565b6001600160801b03167f760a9a962ae3d184e99c0483cf5684fb3170f47116ca4f445c50209da4f4f906015490565b6000818303611cae57506000611a4b565b6000611cba600b611c50565b6001600160a01b0381166000908152600c6020908152604080832089845290915290205490915083851115611cfb57611cf4848603612e0d565b9250611d0c565b611d06858503612e0d565b60000392505b6000611d18848361425c565b905080600003611d4e57600b80546000196001600160801b03600160801b80840482169290920181169091029116179055611d7d565b81600003611d7d57600b805460016001600160801b03600160801b808404821692909201811690910291161790555b6001600160a01b03929092166000908152600c6020908152604080832098835297905295909520559392505050565b6040517f69328dec0000000000000000000000000000000000000000000000000000000081526001600160a01b0384811660048301526024820184905282811660448301527f000000000000000000000000000000000000000000000000000000000000000016906369328dec906064015b600060405180830381600087803b158015611e3857600080fd5b505af1158015611e4c573d6000803e3d6000fd5b50505050505050565b60006001600160e01b031982167f80ac58cd000000000000000000000000000000000000000000000000000000001480611eb857506001600160e01b031982167f5b5e139f00000000000000000000000000000000000000000000000000000000145b8061083e57507f01ffc9a7000000000000000000000000000000000000000000000000000000006001600160e01b031983161461083e565b6000818152600260205260409020546001600160a01b0316610fae5760405162461bcd60e51b815260206004820152601860248201527f4552433732313a20696e76616c696420746f6b656e204944000000000000000060448201526064016107d0565b600081815260046020526040902080546001600160a01b0319166001600160a01b0384169081179091558190611f8982610b61565b6001600160a01b03167f8c5be1e5ebec7d5bd14f71427d1e84f3dd0314c0f7b2291e5b200ac8c7c3b92560405160405180910390a45050565b600080611fce83610b61565b9050806001600160a01b0316846001600160a01b0316148061201557506001600160a01b0380821660009081526005602090815260408083209388168352929052205460ff165b806120395750836001600160a01b031661202e846108d6565b6001600160a01b0316145b949350505050565b826001600160a01b031661205482610b61565b6001600160a01b0316146120b85760405162461bcd60e51b815260206004820152602560248201527f4552433732313a207472616e736665722066726f6d20696e636f72726563742060448201526437bbb732b960d91b60648201526084016107d0565b6001600160a01b0382166121335760405162461bcd60e51b8152602060048201526024808201527f4552433732313a207472616e7366657220746f20746865207a65726f2061646460448201527f726573730000000000000000000000000000000000000000000000000000000060648201526084016107d0565b826001600160a01b031661214682610b61565b6001600160a01b0316146121aa5760405162461bcd60e51b815260206004820152602560248201527f4552433732313a207472616e736665722066726f6d20696e636f72726563742060448201526437bbb732b960d91b60648201526084016107d0565b600081815260046020908152604080832080546001600160a01b03199081169091556001600160a01b0387811680865260038552838620805460001901905590871680865283862080546001019055868652600290945282852080549092168417909155905184937fddf252ad1be2c89b69c2b068fc378daa952ba7f163c4a11628f55a4df523b3ef91a4505050565b604080516001600160a01b0385811660248301528416604482015260648082018490528251808303909101815260849091019091526020810180517bffffffffffffffffffffffffffffffffffffffffffffffffffffffff167f23b872dd000000000000000000000000000000000000000000000000000000001790526107fa908590612ea9565b6000306001600160a01b037f00000000000000000000000000000000000000000000000000000000000000001614801561231b57507f000000000000000000000000000000000000000000000000000000000000000046145b1561234557507f000000000000000000000000000000000000000000000000000000000000000090565b610b41604080517f8b73c3c69bb8fe3d512ecc4cf759cc79239f7b179b0ffacaa9a75d522b39400f60208201527f0000000000000000000000000000000000000000000000000000000000000000918101919091527f000000000000000000000000000000000000000000000000000000000000000060608201524660808201523060a082015260009060c00160405160208183030381529060405280519060200120905090565b80516020810151905160009160a01b0161083e565b6040517fb546ac4f0000000000000000000000000000000000000000000000000000000081526001600160a01b037f0000000000000000000000000000000000000000000000000000000000000000169063b546ac4f90611e1e90869086908690600401614284565b6124758282612f91565b6000908152601060205260409020805460ff60f01b1916905550600b8054600160801b8082046001600160801b0390811660010181169091029116179055565b600d546001600160a01b03163314610f215760405162461bcd60e51b815260206004820181905260248201527f4f776e61626c653a2063616c6c6572206973206e6f7420746865206f776e657260448201526064016107d0565b600e80546001600160a01b0319169055610fae8161311c565b600081815260106020526040812061253f9061316e565b67ffffffffffffffff1692915050565b600061083e61255c6122c2565b836040517f19010000000000000000000000000000000000000000000000000000000000008152600281019290925260228201526042902090565b60008060006125a8878787876131bd565b915091506125b581613281565b5095945050505050565b6000610b4160016125ce612cca565b61ffff16906133e6565b60608082600001516001600160a01b031684600001516001600160a01b031614801561261f5750826020015167ffffffffffffffff16846020015167ffffffffffffffff16145b612655576040517f84991e9500000000000000000000000000000000000000000000000000000000815260040160405180910390fd5b600061265f6125bf565b905061267681856040015161ffff90811691161190565b8061268c5750604085015161ffff908116908216115b156126c3576040517f47a5b25b00000000000000000000000000000000000000000000000000000000815260040160405180910390fd5b60408401516000906126d99061ffff16836133e6565b61ffff16905060006126fc83886040015161ffff166133e690919063ffffffff16565b61ffff169050600061270e83836133f2565b905087608001518760800151111561272a57808203915061274f565b87608001518760800151101561274457808303925061274f565b808303925080820391505b508167ffffffffffffffff81111561276957612769613e3e565b6040519080825280602002602001820160405280156127bd57816020015b60408051608081018252600091810182815260608201839052815260208101919091528152602001906001900390816127875790505b5094508067ffffffffffffffff8111156127d9576127d9613e3e565b60405190808252806020026020018201604052801561282d57816020015b60408051608081018252600091810182815260608201839052815260208101919091528152602001906001900390816127f75790505b5093506000915060009050600061285d846125ce8a604001518a6040015161ffff1661340890919063ffffffff16565b61ffff1690508360005b828110156129e65761287e61ffff8316600161341e565b915060006128978a604001518461ffff90811691161090565b6128a55789608001516128a8565b60005b905060006128c18c604001518561ffff90811691161090565b6128cf578b608001516128d2565b60005b90508082111561295a578b51604080516080808201835260008284018181526060808501839052908452602093840191909152835191820184526001600160a01b0390941692810192835261ffff881693810193909352908252828403908201528a5160018901988c91811061294a5761294a61401e565b60200260200101819052506129dc565b808210156129dc578b51604080516080808201835260008284018181526060808501839052908452602093840191909152835191820184526001600160a01b0390941692810192835261ffff88169381019390935290825283830390820152895160018801978b9181106129d0576129d061401e565b60200260200101819052505b5050600101612867565b5050505050509250929050565b600081815260106020526040902054600160f01b900460ff16612a135750565b6000908152601060205260409020805460ff60f01b19169055600b8054600160801b8082046001600160801b0390811660010181169091029116179055565b606060ff8314612a6c57612a658361342a565b905061083e565b818054612a7890613fea565b80601f0160208091040260200160405190810160405280929190818152602001828054612aa490613fea565b8015612af15780601f10612ac657610100808354040283529160200191612af1565b820191906000526020600020905b815481529060010190602001808311612ad457829003601f168201915b5050505050905061083e565b816001600160a01b0316836001600160a01b031603612b5e5760405162461bcd60e51b815260206004820152601960248201527f4552433732313a20617070726f766520746f2063616c6c65720000000000000060448201526064016107d0565b6001600160a01b03838116600081815260056020908152604080832094871680845294825291829020805460ff191686151590811790915591519182527f17307eab39ab6107e8899845ad3d59bd9653f200f220920489ca2b5937696c31910160405180910390a3505050565b600081815260106020526040902054600160f01b900460ff1615612bec5750565b6000818152601060205260409020805460ff60f01b1916600160f01b17905550600b80546000196001600160801b03600160801b80840482169290920181169091029116179055565b6000612c4082610b61565b9050612c4b82610b61565b600083815260046020908152604080832080546001600160a01b03199081169091556001600160a01b0385168085526003845282852080546000190190558785526002909352818420805490911690555192935084927fddf252ad1be2c89b69c2b068fc378daa952ba7f163c4a11628f55a4df523b3ef908390a45050565b6000610b4142613469565b612ce0848484612041565b612cec84848484613557565b6107fa5760405162461bcd60e51b815260206004820152603260248201527f4552433732313a207472616e7366657220746f206e6f6e20455243373231526560448201527f63656976657220696d706c656d656e746572000000000000000000000000000060648201526084016107d0565b60606008805461085390613fea565b60606000612d7a836136ab565b600101905060008167ffffffffffffffff811115612d9a57612d9a613e3e565b6040519080825280601f01601f191660200182016040528015612dc4576020820181803683370190505b5090508181016020015b600019017f3031323334353637383961626364656600000000000000000000000000000000600a86061a8153600a8504945084612dce57509392505050565b60007f7fffffffffffffffffffffffffffffffffffffffffffffffffffffffffffffff821115612ea55760405162461bcd60e51b815260206004820152602860248201527f53616665436173743a2076616c756520646f65736e27742066697420696e206160448201527f6e20696e7432353600000000000000000000000000000000000000000000000060648201526084016107d0565b5090565b6000612efe826040518060400160405280602081526020017f5361666545524332303a206c6f772d6c6576656c2063616c6c206661696c6564815250856001600160a01b031661378d9092919063ffffffff16565b9050805160001480612f1f575080806020019051810190612f1f91906142d8565b610a295760405162461bcd60e51b815260206004820152602a60248201527f5361666545524332303a204552433230206f7065726174696f6e20646964206e60448201527f6f7420737563636565640000000000000000000000000000000000000000000060648201526084016107d0565b6001600160a01b038216612fe75760405162461bcd60e51b815260206004820181905260248201527f4552433732313a206d696e7420746f20746865207a65726f206164647265737360448201526064016107d0565b6000818152600260205260409020546001600160a01b03161561304c5760405162461bcd60e51b815260206004820152601c60248201527f4552433732313a20746f6b656e20616c7265616479206d696e7465640000000060448201526064016107d0565b6000818152600260205260409020546001600160a01b0316156130b15760405162461bcd60e51b815260206004820152601c60248201527f4552433732313a20746f6b656e20616c7265616479206d696e7465640000000060448201526064016107d0565b6001600160a01b038216600081815260036020908152604080832080546001019055848352600290915280822080546001600160a01b0319168417905551839291907fddf252ad1be2c89b69c2b068fc378daa952ba7f163c4a11628f55a4df523b3ef908290a45050565b600d80546001600160a01b038381166001600160a01b0319831681179093556040519116919082907f8be0079c531659141344cd1fd0a4f28419497f9722a3daafe3b4186f6b6457e090600090a35050565b8054600090600160a01b900467ffffffffffffffff16826014613190836142f5565b91906101000a81548167ffffffffffffffff021916908367ffffffffffffffff1602179055509050919050565b6000807f7fffffffffffffffffffffffffffffff5d576e7357a4501ddfe92f46681b20a08311156131f45750600090506003613278565b6040805160008082526020820180845289905260ff881692820192909252606081018690526080810185905260019060a0016020604051602081039080840390855afa158015613248573d6000803e3d6000fd5b5050604051601f1901519150506001600160a01b03811661327157600060019250925050613278565b9150600090505b94509492505050565b60008160048111156132955761329561431c565b0361329d5750565b60018160048111156132b1576132b161431c565b036132fe5760405162461bcd60e51b815260206004820152601860248201527f45434453413a20696e76616c6964207369676e6174757265000000000000000060448201526064016107d0565b60028160048111156133125761331261431c565b0361335f5760405162461bcd60e51b815260206004820152601f60248201527f45434453413a20696e76616c6964207369676e6174757265206c656e6774680060448201526064016107d0565b60038160048111156133735761337361431c565b03610fae5760405162461bcd60e51b815260206004820152602260248201527f45434453413a20696e76616c6964207369676e6174757265202773272076616c60448201527f756500000000000000000000000000000000000000000000000000000000000060648201526084016107d0565b6000611a4b8284614332565b60008183106134015781611a4b565b5090919050565b600061ffff808316908416116134015781611a4b565b6000611a4b828461434d565b606060006134378361379c565b604080516020808252818301909252919250600091906020820181803683375050509182525060208101929092525090565b600080620151808304905080622649658101600062023ab1600483020590506004600362023ab18302010590910390600062164b09610fa0600185010205905060046105b58202058303601f019250600061098f84605002816134ce576134ce6142c2565b059050600b8105935083600c0281600201039050838260318503606402010191506000600180836107b28603600c0201038161350c5761350c6142c2565b04905061ffff81111561354b576040517f73cde75100000000000000000000000000000000000000000000000000000000815260040160405180910390fd5b98975050505050505050565b60006001600160a01b0384163b156136a357604051630a85bd0160e11b81526001600160a01b0385169063150b7a029061359b903390899088908890600401614368565b6020604051808303816000875af19250505080156135d6575060408051601f3d908101601f191682019092526135d3918101906140b4565b60015b613689573d808015613604576040519150601f19603f3d011682016040523d82523d6000602084013e613609565b606091505b5080516000036136815760405162461bcd60e51b815260206004820152603260248201527f4552433732313a207472616e7366657220746f206e6f6e20455243373231526560448201527f63656976657220696d706c656d656e746572000000000000000000000000000060648201526084016107d0565b805181602001fd5b6001600160e01b031916630a85bd0160e11b149050612039565b506001612039565b6000807a184f03e93ff9f4daa797ed6e38ed64bf6a1f01000000000000000083106136f4577a184f03e93ff9f4daa797ed6e38ed64bf6a1f010000000000000000830492506040015b6d04ee2d6d415b85acef81000000008310613720576d04ee2d6d415b85acef8100000000830492506020015b662386f26fc10000831061373e57662386f26fc10000830492506010015b6305f5e1008310613756576305f5e100830492506008015b612710831061376a57612710830492506004015b6064831061377c576064830492506002015b600a831061083e5760010192915050565b606061203984846000856137dd565b600060ff8216601f81111561083e576040517fb3512b0c00000000000000000000000000000000000000000000000000000000815260040160405180910390fd5b6060824710156138555760405162461bcd60e51b815260206004820152602660248201527f416464726573733a20696e73756666696369656e742062616c616e636520666f60448201527f722063616c6c000000000000000000000000000000000000000000000000000060648201526084016107d0565b600080866001600160a01b03168587604051613871919061439a565b60006040518083038185875af1925050503d80600081146138ae576040519150601f19603f3d011682016040523d82523d6000602084013e6138b3565b606091505b50915091506138c4878383876138cf565b979650505050505050565b6060831561393e578251600003613937576001600160a01b0385163b6139375760405162461bcd60e51b815260206004820152601d60248201527f416464726573733a2063616c6c20746f206e6f6e2d636f6e747261637400000060448201526064016107d0565b5081612039565b61203983838151156139535781518083602001fd5b8060405162461bcd60e51b81526004016107d09190613a48565b80356001600160a01b038116811461398457600080fd5b919050565b60008060006060848603121561399e57600080fd5b6139a78461396d565b92506139b56020850161396d565b9150604084013590509250925092565b6001600160e01b031981168114610fae57600080fd5b6000602082840312156139ed57600080fd5b8135611a4b816139c5565b60005b83811015613a135781810151838201526020016139fb565b50506000910152565b60008151808452613a348160208601602086016139f8565b601f01601f19169290920160200192915050565b602081526000611a4b6020830184613a1c565b600060208284031215613a6d57600080fd5b5035919050565b60008060408385031215613a8757600080fd5b613a908361396d565b946020939093013593505050565b600060208284031215613ab057600080fd5b611a4b8261396d565b60008083601f840112613acb57600080fd5b50813567ffffffffffffffff811115613ae357600080fd5b602083019150836020606083028501011115613afe57600080fd5b9250929050565b60008083601f840112613b1757600080fd5b50813567ffffffffffffffff811115613b2f57600080fd5b602083019150836020828501011115613afe57600080fd5b600080600080600060608688031215613b5f57600080fd5b853567ffffffffffffffff80821115613b7757600080fd5b613b8389838a01613ab9565b9097509550859150613b976020890161396d565b94506040880135915080821115613bad57600080fd5b50613bba88828901613b05565b969995985093965092949392505050565b60008060008060008060c08789031215613be457600080fd5b613bed8761396d565b95506020870135945060408701359350606087013560ff81168114613c1157600080fd5b9598949750929560808101359460a0909101359350915050565b803561ffff8116811461398457600080fd5b600080600060608486031215613c5257600080fd5b8335925060208401359150613c6960408501613c2b565b90509250925092565b600081518084526020808501945080840160005b83811015613cc4578151805180516001600160a01b0316895284015161ffff1684890152830151604088015260609096019590820190600101613c86565b509495945050505050565b606081526000613ce26060830186613c72565b8281036020840152613cf48186613c72565b915050826040830152949350505050565b60008060208385031215613d1857600080fd5b823567ffffffffffffffff811115613d2f57600080fd5b613d3b85828601613b05565b90969095509350505050565b7fff00000000000000000000000000000000000000000000000000000000000000881681526000602060e081840152613d8360e084018a613a1c565b8381036040850152613d95818a613a1c565b606085018990526001600160a01b038816608086015260a0850187905284810360c0860152855180825283870192509083019060005b81811015613de757835183529284019291840191600101613dcb565b50909c9b505050505050505050505050565b8015158114610fae57600080fd5b60008060408385031215613e1a57600080fd5b613e238361396d565b91506020830135613e3381613df9565b809150509250929050565b634e487b7160e01b600052604160045260246000fd5b6040805190810167ffffffffffffffff81118282101715613e7757613e77613e3e565b60405290565b604051601f8201601f1916810167ffffffffffffffff81118282101715613ea657613ea6613e3e565b604052919050565b600067ffffffffffffffff821115613ec857613ec8613e3e565b50601f01601f191660200190565b60008060008060808587031215613eec57600080fd5b613ef58561396d565b9350613f036020860161396d565b925060408501359150606085013567ffffffffffffffff811115613f2657600080fd5b8501601f81018713613f3757600080fd5b8035613f4a613f4582613eae565b613e7d565b818152886020838501011115613f5f57600080fd5b8160208401602083013760006020838301015280935050505092959194509250565b60008060208385031215613f9457600080fd5b823567ffffffffffffffff811115613fab57600080fd5b613d3b85828601613ab9565b60008060408385031215613fca57600080fd5b613fd38361396d565b9150613fe16020840161396d565b90509250929050565b600181811c90821680613ffe57607f821691505b602082108103610de157634e487b7160e01b600052602260045260246000fd5b634e487b7160e01b600052603260045260246000fd5b6000818303606081121561404757600080fd5b61404f613e54565b604082121561405d57600080fd5b614065613e54565b91506140708461396d565b825261407e60208501613c2b565b602083015281815260408401356020820152809250505092915050565b8281526040602082015260006120396040830184613a1c565b6000602082840312156140c657600080fd5b8151611a4b816139c5565b60208152816020820152818360408301376000818301604090810191909152601f909201601f19160101919050565b60006020828403121561411257600080fd5b815167ffffffffffffffff81111561412957600080fd5b8201601f8101841361413a57600080fd5b8051614148613f4582613eae565b81815285602083850101111561415d57600080fd5b61416e8260208301602086016139f8565b95945050505050565b600083516141898184602088016139f8565b83519083019061419d8183602088016139f8565b01949350505050565b6001600160a01b0384811682526040602080840182905283820185905260009260609182860188865b8981101561420f57846141e18361396d565b16835261ffff6141f2858401613c2b565b1683850152818701358784015291850191908501906001016141cf565b50909a9950505050505050505050565b634e487b7160e01b600052601160045260246000fd5b6001600160801b038281168282160390808211156142555761425561421f565b5092915050565b808201828112600083128015821682158216171561427c5761427c61421f565b505092915050565b6001600160a01b03841681526060602082015260006142a66060830185613c72565b82810360408401526142b88185613a1c565b9695505050505050565b634e487b7160e01b600052601260045260246000fd5b6000602082840312156142ea57600080fd5b8151611a4b81613df9565b600067ffffffffffffffff8083168181036143125761431261421f565b6001019392505050565b634e487b7160e01b600052602160045260246000fd5b61ffff8281168282160390808211156142555761425561421f565b61ffff8181168382160190808211156142555761425561421f565b60006001600160a01b038087168352808616602084015250836040830152608060608301526142b86080830184613a1c565b600082516143ac8184602087016139f8565b919091019291505056fea2646970667358221220660c6eb4b431f1b1b38114d2970bc61ae780e3e929987f9fe1202e81a5f65a3d64736f6c63430008130033",
  "devdoc": {
    "events": {
      "Approval(address,address,uint256)": {
        "details": "Emitted when `owner` enables `approved` to manage the `tokenId` token."
      },
      "ApprovalForAll(address,address,bool)": {
        "details": "Emitted when `owner` enables or disables (`approved`) `operator` to manage all of its assets."
      },
      "EIP712DomainChanged()": {
        "details": "MAY be emitted to signal that the domain could have changed."
      },
      "Transfer(address,address,uint256)": {
        "details": "Emitted when `tokenId` token is transferred from `from` to `to`."
      }
    },
    "kind": "dev",
    "methods": {
      "acceptOwnership()": {
        "details": "The new owner accepts the ownership transfer."
      },
      "approve(address,uint256)": {
        "details": "See {IERC721-approve}."
      },
      "balanceOf(address)": {
        "details": "See {IERC721-balanceOf}."
      },
      "eip712Domain()": {
        "details": "See {EIP-5267}. _Available since v4.9._"
      },
      "getApproved(uint256)": {
        "details": "See {IERC721-getApproved}."
      },
      "isApprovedForAll(address,address)": {
        "details": "See {IERC721-isApprovedForAll}."
      },
      "name()": {
        "details": "See {IERC721Metadata-name}."
      },
      "owner()": {
        "details": "Returns the address of the current owner."
      },
      "ownerOf(uint256)": {
        "details": "See {IERC721-ownerOf}."
      },
      "pendingOwner()": {
        "details": "Returns the address of the pending owner."
      },
      "renounceOwnership()": {
        "details": "Leaves the contract without owner. It will not be possible to call `onlyOwner` functions. Can only be called by the current owner. NOTE: Renouncing ownership will leave the contract without an owner, thereby disabling any functionality that is only available to the owner."
      },
      "safeTransferFrom(address,address,uint256)": {
        "details": "See {IERC721-safeTransferFrom}."
      },
      "safeTransferFrom(address,address,uint256,bytes)": {
        "details": "See {IERC721-safeTransferFrom}."
      },
      "setApprovalForAll(address,bool)": {
        "details": "See {IERC721-setApprovalForAll}."
      },
      "symbol()": {
        "details": "See {IERC721Metadata-symbol}."
      },
      "tokenURI(uint256)": {
        "details": "See {IERC721Metadata-tokenURI}."
      },
      "transferFrom(address,address,uint256)": {
        "details": "See {IERC721-transferFrom}."
      },
      "transferOwnership(address)": {
        "details": "Starts the ownership transfer of the contract to a new account. Replaces the pending transfer if there is one. Can only be called by the current owner."
      }
    },
    "version": 1
  },
  "userdoc": {
    "kind": "user",
    "methods": {},
    "version": 1
  },
  "storageLayout": {
    "storage": [
      {
        "astId": 2418,
        "contract": "contracts/BondPositionManager.sol:BondPositionManager",
        "label": "_name",
        "offset": 0,
        "slot": "0",
        "type": "t_string_storage"
      },
      {
        "astId": 2420,
        "contract": "contracts/BondPositionManager.sol:BondPositionManager",
        "label": "_symbol",
        "offset": 0,
        "slot": "1",
        "type": "t_string_storage"
      },
      {
        "astId": 2424,
        "contract": "contracts/BondPositionManager.sol:BondPositionManager",
        "label": "_owners",
        "offset": 0,
        "slot": "2",
        "type": "t_mapping(t_uint256,t_address)"
      },
      {
        "astId": 2428,
        "contract": "contracts/BondPositionManager.sol:BondPositionManager",
        "label": "_balances",
        "offset": 0,
        "slot": "3",
        "type": "t_mapping(t_address,t_uint256)"
      },
      {
        "astId": 2432,
        "contract": "contracts/BondPositionManager.sol:BondPositionManager",
        "label": "_tokenApprovals",
        "offset": 0,
        "slot": "4",
        "type": "t_mapping(t_uint256,t_address)"
      },
      {
        "astId": 2438,
        "contract": "contracts/BondPositionManager.sol:BondPositionManager",
        "label": "_operatorApprovals",
        "offset": 0,
        "slot": "5",
        "type": "t_mapping(t_address,t_mapping(t_address,t_bool))"
      },
      {
        "astId": 4786,
        "contract": "contracts/BondPositionManager.sol:BondPositionManager",
        "label": "_nameFallback",
        "offset": 0,
        "slot": "6",
        "type": "t_string_storage"
      },
      {
        "astId": 4788,
        "contract": "contracts/BondPositionManager.sol:BondPositionManager",
        "label": "_versionFallback",
        "offset": 0,
        "slot": "7",
        "type": "t_string_storage"
      },
      {
        "astId": 17842,
        "contract": "contracts/BondPositionManager.sol:BondPositionManager",
        "label": "baseURI",
        "offset": 0,
        "slot": "8",
        "type": "t_string_storage"
      },
      {
        "astId": 17845,
        "contract": "contracts/BondPositionManager.sol:BondPositionManager",
        "label": "contractURI",
        "offset": 0,
        "slot": "9",
        "type": "t_string_storage"
      },
      {
        "astId": 17849,
        "contract": "contracts/BondPositionManager.sol:BondPositionManager",
        "label": "nextId",
        "offset": 0,
        "slot": "10",
        "type": "t_uint256"
      },
      {
        "astId": 17852,
        "contract": "contracts/BondPositionManager.sol:BondPositionManager",
        "label": "_lockData",
        "offset": 0,
        "slot": "11",
        "type": "t_struct(LockData)17707_storage"
      },
      {
        "astId": 17859,
        "contract": "contracts/BondPositionManager.sol:BondPositionManager",
        "label": "assetDelta",
        "offset": 0,
        "slot": "12",
        "type": "t_mapping(t_address,t_mapping(t_uint256,t_int256))"
      },
      {
        "astId": 7,
        "contract": "contracts/BondPositionManager.sol:BondPositionManager",
        "label": "_owner",
        "offset": 0,
        "slot": "13",
        "type": "t_address"
      },
      {
        "astId": 120,
        "contract": "contracts/BondPositionManager.sol:BondPositionManager",
        "label": "_pendingOwner",
        "offset": 0,
        "slot": "14",
        "type": "t_address"
      },
      {
        "astId": 7555,
        "contract": "contracts/BondPositionManager.sol:BondPositionManager",
        "label": "isAssetRegistered",
        "offset": 0,
        "slot": "15",
        "type": "t_mapping(t_address,t_bool)"
      },
      {
        "astId": 7560,
        "contract": "contracts/BondPositionManager.sol:BondPositionManager",
        "label": "_positionMap",
        "offset": 0,
        "slot": "16",
        "type": "t_mapping(t_uint256,t_struct(BondPosition)15142_storage)"
      }
    ],
    "types": {
      "t_address": {
        "encoding": "inplace",
        "label": "address",
        "numberOfBytes": "20"
      },
      "t_bool": {
        "encoding": "inplace",
        "label": "bool",
        "numberOfBytes": "1"
      },
      "t_int256": {
        "encoding": "inplace",
        "label": "int256",
        "numberOfBytes": "32"
      },
      "t_mapping(t_address,t_bool)": {
        "encoding": "mapping",
        "key": "t_address",
        "label": "mapping(address => bool)",
        "numberOfBytes": "32",
        "value": "t_bool"
      },
      "t_mapping(t_address,t_mapping(t_address,t_bool))": {
        "encoding": "mapping",
        "key": "t_address",
        "label": "mapping(address => mapping(address => bool))",
        "numberOfBytes": "32",
        "value": "t_mapping(t_address,t_bool)"
      },
      "t_mapping(t_address,t_mapping(t_uint256,t_int256))": {
        "encoding": "mapping",
        "key": "t_address",
        "label": "mapping(address => mapping(uint256 => int256))",
        "numberOfBytes": "32",
        "value": "t_mapping(t_uint256,t_int256)"
      },
      "t_mapping(t_address,t_uint256)": {
        "encoding": "mapping",
        "key": "t_address",
        "label": "mapping(address => uint256)",
        "numberOfBytes": "32",
        "value": "t_uint256"
      },
      "t_mapping(t_uint256,t_address)": {
        "encoding": "mapping",
        "key": "t_uint256",
        "label": "mapping(uint256 => address)",
        "numberOfBytes": "32",
        "value": "t_address"
      },
      "t_mapping(t_uint256,t_int256)": {
        "encoding": "mapping",
        "key": "t_uint256",
        "label": "mapping(uint256 => int256)",
        "numberOfBytes": "32",
        "value": "t_int256"
      },
      "t_mapping(t_uint256,t_struct(BondPosition)15142_storage)": {
        "encoding": "mapping",
        "key": "t_uint256",
        "label": "mapping(uint256 => struct BondPosition)",
        "numberOfBytes": "32",
        "value": "t_struct(BondPosition)15142_storage"
      },
      "t_string_storage": {
        "encoding": "bytes",
        "label": "string",
        "numberOfBytes": "32"
      },
      "t_struct(BondPosition)15142_storage": {
        "encoding": "inplace",
        "label": "struct BondPosition",
        "members": [
          {
            "astId": 15132,
            "contract": "contracts/BondPositionManager.sol:BondPositionManager",
            "label": "asset",
            "offset": 0,
            "slot": "0",
            "type": "t_address"
          },
          {
            "astId": 15134,
            "contract": "contracts/BondPositionManager.sol:BondPositionManager",
            "label": "nonce",
            "offset": 20,
            "slot": "0",
            "type": "t_uint64"
          },
          {
            "astId": 15137,
            "contract": "contracts/BondPositionManager.sol:BondPositionManager",
            "label": "expiredWith",
            "offset": 28,
            "slot": "0",
            "type": "t_userDefinedValueType(Epoch)16826"
          },
          {
            "astId": 15139,
            "contract": "contracts/BondPositionManager.sol:BondPositionManager",
            "label": "isSettled",
            "offset": 30,
            "slot": "0",
            "type": "t_bool"
          },
          {
            "astId": 15141,
            "contract": "contracts/BondPositionManager.sol:BondPositionManager",
            "label": "amount",
            "offset": 0,
            "slot": "1",
            "type": "t_uint256"
          }
        ],
        "numberOfBytes": "64"
      },
      "t_struct(LockData)17707_storage": {
        "encoding": "inplace",
        "label": "struct LockData",
        "members": [
          {
            "astId": 17703,
            "contract": "contracts/BondPositionManager.sol:BondPositionManager",
            "label": "length",
            "offset": 0,
            "slot": "0",
            "type": "t_uint128"
          },
          {
            "astId": 17706,
            "contract": "contracts/BondPositionManager.sol:BondPositionManager",
            "label": "nonzeroDeltaCount",
            "offset": 16,
            "slot": "0",
            "type": "t_uint128"
          }
        ],
        "numberOfBytes": "32"
      },
      "t_uint128": {
        "encoding": "inplace",
        "label": "uint128",
        "numberOfBytes": "16"
      },
      "t_uint256": {
        "encoding": "inplace",
        "label": "uint256",
        "numberOfBytes": "32"
      },
      "t_uint64": {
        "encoding": "inplace",
        "label": "uint64",
        "numberOfBytes": "8"
      },
      "t_userDefinedValueType(Epoch)16826": {
        "encoding": "inplace",
        "label": "Epoch",
        "numberOfBytes": "2"
      }
    }
  }
}