{
  "address": "0x40bd43758FfcEDB094d1F12AAB3e8323e7FEbeFb",
  "abi": [
    {
      "inputs": [
        {
          "internalType": "address",
          "name": "loanPositionManager",
          "type": "address"
        },
        {
          "internalType": "address",
          "name": "router",
          "type": "address"
        },
        {
          "internalType": "address",
          "name": "weth",
          "type": "address"
        }
      ],
      "stateMutability": "nonpayable",
      "type": "constructor"
    },
    {
      "inputs": [
        {
          "internalType": "string",
          "name": "reason",
          "type": "string"
        }
      ],
      "name": "CollateralSwapFailed",
      "type": "error"
    },
    {
      "inputs": [
        {
          "internalType": "uint256",
          "name": "positionId",
          "type": "uint256"
        },
        {
          "internalType": "uint256",
          "name": "swapAmount",
          "type": "uint256"
        },
        {
          "internalType": "bytes",
          "name": "swapData",
          "type": "bytes"
        },
        {
          "internalType": "address",
          "name": "feeRecipient",
          "type": "address"
        }
      ],
      "name": "liquidate",
      "outputs": [],
      "stateMutability": "nonpayable",
      "type": "function"
    },
    {
      "inputs": [
        {
          "internalType": "bytes",
          "name": "data",
          "type": "bytes"
        }
      ],
      "name": "positionLockAcquired",
      "outputs": [
        {
          "internalType": "bytes",
          "name": "",
          "type": "bytes"
        }
      ],
      "stateMutability": "nonpayable",
      "type": "function"
    },
    {
      "stateMutability": "payable",
      "type": "receive"
    }
  ],
  "transactionHash": "0x7e32bfe709cde95f7bdbbee7561abb476b8d9c35c8282ccf2c8189638d596cae",
  "args": [
    "0x4c856a264EE234e3DcFDEecEcfFC34ec203dF4f2",
    "0xbe83C53499C676dAB038db0E2CAd3E69a3d5CdFC",
    "0x4284186b053ACdBA28E8B26E99475d891533086a"
  ],
  "numDeployments": 1,
  "solcInputHash": "ea8b58e8a7e8e0821cfdd78d9f7388f7",
  "bytecode": "0x60e06040523480156200001157600080fd5b50604051620016903803806200169083398101604081905262000034916200006f565b6001600160a01b0392831660805290821660a0521660c052620000b9565b80516001600160a01b03811681146200006a57600080fd5b919050565b6000806000606084860312156200008557600080fd5b620000908462000052565b9250620000a06020850162000052565b9150620000b06040850162000052565b90509250925092565b60805160a05160c05161155b62000135600039600081816102b7015281816102f00152818161054e0152610587015260008181610b7701528181610bf90152610ccf01526000818160b60152818161024b01528181610392015281816104e00152818161070f015281816107d101526108a4015261155b6000f3fe60806040526004361061002d5760003560e01c806346a114e214610039578063a44a70fa1461006f57600080fd5b3661003457005b600080fd5b34801561004557600080fd5b50610059610054366004611155565b610091565b60405161006691906111da565b60405180910390f35b34801561007b57600080fd5b5061008f61008a36600461120c565b610877565b005b60606000806000848060200190518101906100ac91906112b4565b92509250925060007f00000000000000000000000000000000000000000000000000000000000000006001600160a01b031663eb02c301856040518263ffffffff1660e01b815260040161010291815260200190565b60e060405180830381865afa15801561011f573d6000803e3d6000fd5b505050506040513d601f19601f820116820180604052508101906101439190611336565b9050600081606001516001600160a01b0316632495a5996040518163ffffffff1660e01b8152600401602060405180830381865afa158015610189573d6000803e3d6000fd5b505050506040513d601f19601f820116820180604052508101906101ad91906113cc565b9050600082608001516001600160a01b0316632495a5996040518163ffffffff1660e01b8152600401602060405180830381865afa1580156101f3573d6000803e3d6000fd5b505050506040513d601f19601f8201168201806040525081019061021791906113cc565b60608401516040516301e3366760e01b81526001600160a01b039182166004820152306024820152604481018890529192507f000000000000000000000000000000000000000000000000000000000000000016906301e3366790606401600060405180830381600087803b15801561028f57600080fd5b505af11580156102a3573d6000803e3d6000fd5b505050506102b5836060015130610a66565b7f00000000000000000000000000000000000000000000000000000000000000006001600160a01b0316826001600160a01b031603610363577f00000000000000000000000000000000000000000000000000000000000000006001600160a01b031663d0e30db0866040518263ffffffff1660e01b81526004016000604051808303818588803b15801561034957600080fd5b505af115801561035d573d6000803e3d6000fd5b50505050505b61036e828686610b60565b6040516370a0823160e01b8152306004820152600090819081906001600160a01b037f000000000000000000000000000000000000000000000000000000000000000081169163d296d1f1918c91908816906370a0823190602401602060405180830381865afa1580156103e6573d6000803e3d6000fd5b505050506040513d601f19601f8201168201806040525081019061040a91906113e9565b6040517fffffffff0000000000000000000000000000000000000000000000000000000060e085901b168152600481019290925260248201526044016060604051808303816000875af1158015610465573d6000803e3d6000fd5b505050506040513d601f19601f820116820180604052508101906104899190611402565b9194509250905060008861049d8386611430565b6104a79190611430565b905080156105fa5760608701516040516301e3366760e01b81526001600160a01b039182166004820152306024820152604481018390527f0000000000000000000000000000000000000000000000000000000000000000909116906301e3366790606401600060405180830381600087803b15801561052657600080fd5b505af115801561053a573d6000803e3d6000fd5b5050505061054c876060015130610a66565b7f00000000000000000000000000000000000000000000000000000000000000006001600160a01b0316866001600160a01b0316036105fa577f00000000000000000000000000000000000000000000000000000000000000006001600160a01b031663d0e30db0826040518263ffffffff1660e01b81526004016000604051808303818588803b1580156105e057600080fd5b505af11580156105f4573d6000803e3d6000fd5b50505050505b608087015160405163095ea7b360e01b81526001600160a01b039182166004820152602481018590529086169063095ea7b3906044016020604051808303816000875af115801561064f573d6000803e3d6000fd5b505050506040513d601f19601f820116820180604052508101906106739190611457565b5060808701516040517f94bf804d000000000000000000000000000000000000000000000000000000008152600481018590523060248201526001600160a01b03909116906394bf804d90604401600060405180830381600087803b1580156106db57600080fd5b505af11580156106ef573d6000803e3d6000fd5b50505050608087015160405163095ea7b360e01b81526001600160a01b037f000000000000000000000000000000000000000000000000000000000000000081166004830152602482018690529091169063095ea7b3906044016020604051808303816000875af1158015610768573d6000803e3d6000fd5b505050506040513d601f19601f8201168201806040525081019061078c9190611457565b5060808701516040517f338b5dea0000000000000000000000000000000000000000000000000000000081526001600160a01b039182166004820152602481018590527f00000000000000000000000000000000000000000000000000000000000000009091169063338b5dea90604401600060405180830381600087803b15801561081757600080fd5b505af115801561082b573d6000803e3d6000fd5b5050505085856040516020016108579291906001600160a01b0392831681529116602082015260400190565b6040516020818303038152906040529a5050505050505050505050919050565b600084848460405160200161088e93929190611472565b60405160208183030381529060405290506000807f00000000000000000000000000000000000000000000000000000000000000006001600160a01b03166381548319846040518263ffffffff1660e01b81526004016108ee91906111da565b6000604051808303816000875af115801561090d573d6000803e3d6000fd5b505050506040513d6000823e601f3d908101601f19168201604052610935919081019061149a565b80602001905181019061094891906114cf565b6040516370a0823160e01b815230600482015291935091506000906001600160a01b038416906370a0823190602401602060405180830381865afa158015610994573d6000803e3d6000fd5b505050506040513d601f19601f820116820180604052508101906109b891906113e9565b905080156109d4576109d46001600160a01b0384168683610d53565b6040516370a0823160e01b81523060048201526000906001600160a01b038416906370a0823190602401602060405180830381865afa158015610a1b573d6000803e3d6000fd5b505050506040513d601f19601f82011682018060405250810190610a3f91906113e9565b90508015610a5b57610a5b6001600160a01b0384168783610d53565b505050505050505050565b6040516370a0823160e01b81523060048201526000906001600160a01b038416906370a0823190602401602060405180830381865afa158015610aad573d6000803e3d6000fd5b505050506040513d601f19601f82011682018060405250810190610ad191906113e9565b905080600003610ae057505050565b6040517ffcd3533c000000000000000000000000000000000000000000000000000000008152600481018290526001600160a01b03838116602483015284169063fcd3533c90604401600060405180830381600087803b158015610b4357600080fd5b505af1158015610b57573d6000803e3d6000fd5b50505050505050565b60405163095ea7b360e01b81526001600160a01b037f0000000000000000000000000000000000000000000000000000000000000000811660048301526024820184905284169063095ea7b3906044016020604051808303816000875af1158015610bcf573d6000803e3d6000fd5b505050506040513d601f19601f82011682018060405250810190610bf39190611457565b506000807f00000000000000000000000000000000000000000000000000000000000000006001600160a01b031683604051610c2f9190611509565b6000604051808303816000865af19150503d8060008114610c6c576040519150601f19603f3d011682016040523d82523d6000602084013e610c71565b606091505b509150915081610cb857806040517feff88414000000000000000000000000000000000000000000000000000000008152600401610caf91906111da565b60405180910390fd5b60405163095ea7b360e01b81526001600160a01b037f0000000000000000000000000000000000000000000000000000000000000000811660048301526000602483015286169063095ea7b3906044016020604051808303816000875af1158015610d27573d6000803e3d6000fd5b505050506040513d601f19601f82011682018060405250810190610d4b9190611457565b505050505050565b604080516001600160a01b038416602482015260448082018490528251808303909101815260649091019091526020810180517bffffffffffffffffffffffffffffffffffffffffffffffffffffffff167fa9059cbb00000000000000000000000000000000000000000000000000000000179052610dd3908490610dd8565b505050565b6000610e2d826040518060400160405280602081526020017f5361666545524332303a206c6f772d6c6576656c2063616c6c206661696c6564815250856001600160a01b0316610ec09092919063ffffffff16565b9050805160001480610e4e575080806020019051810190610e4e9190611457565b610dd35760405162461bcd60e51b815260206004820152602a60248201527f5361666545524332303a204552433230206f7065726174696f6e20646964206e60448201527f6f742073756363656564000000000000000000000000000000000000000000006064820152608401610caf565b6060610ecf8484600085610ed7565b949350505050565b606082471015610f4f5760405162461bcd60e51b815260206004820152602660248201527f416464726573733a20696e73756666696369656e742062616c616e636520666f60448201527f722063616c6c00000000000000000000000000000000000000000000000000006064820152608401610caf565b600080866001600160a01b03168587604051610f6b9190611509565b60006040518083038185875af1925050503d8060008114610fa8576040519150601f19603f3d011682016040523d82523d6000602084013e610fad565b606091505b5091509150610fbe87838387610fc9565b979650505050505050565b60608315611038578251600003611031576001600160a01b0385163b6110315760405162461bcd60e51b815260206004820152601d60248201527f416464726573733a2063616c6c20746f206e6f6e2d636f6e74726163740000006044820152606401610caf565b5081610ecf565b610ecf838381511561104d5781518083602001fd5b8060405162461bcd60e51b8152600401610caf91906111da565b634e487b7160e01b600052604160045260246000fd5b60405160e0810167ffffffffffffffff811182821017156110a0576110a0611067565b60405290565b604051601f8201601f1916810167ffffffffffffffff811182821017156110cf576110cf611067565b604052919050565b600067ffffffffffffffff8211156110f1576110f1611067565b50601f01601f191660200190565b600082601f83011261111057600080fd5b813561112361111e826110d7565b6110a6565b81815284602083860101111561113857600080fd5b816020850160208301376000918101602001919091529392505050565b60006020828403121561116757600080fd5b813567ffffffffffffffff81111561117e57600080fd5b610ecf848285016110ff565b60005b838110156111a557818101518382015260200161118d565b50506000910152565b600081518084526111c681602086016020860161118a565b601f01601f19169290920160200192915050565b6020815260006111ed60208301846111ae565b9392505050565b6001600160a01b038116811461120957600080fd5b50565b6000806000806080858703121561122257600080fd5b8435935060208501359250604085013567ffffffffffffffff81111561124757600080fd5b611253878288016110ff565b9250506060850135611264816111f4565b939692955090935050565b600082601f83011261128057600080fd5b815161128e61111e826110d7565b8181528460208386010111156112a357600080fd5b610ecf82602083016020870161118a565b6000806000606084860312156112c957600080fd5b8351925060208401519150604084015167ffffffffffffffff8111156112ee57600080fd5b6112fa8682870161126f565b9150509250925092565b805161ffff8116811461131657600080fd5b919050565b8051801515811461131657600080fd5b8051611316816111f4565b600060e0828403121561134857600080fd5b61135061107d565b825167ffffffffffffffff8116811461136857600080fd5b815261137660208401611304565b60208201526113876040840161131b565b60408201526113986060840161132b565b60608201526113a96080840161132b565b608082015260a083015160a082015260c083015160c08201528091505092915050565b6000602082840312156113de57600080fd5b81516111ed816111f4565b6000602082840312156113fb57600080fd5b5051919050565b60008060006060848603121561141757600080fd5b8351925060208401519150604084015190509250925092565b8181038181111561145157634e487b7160e01b600052601160045260246000fd5b92915050565b60006020828403121561146957600080fd5b6111ed8261131b565b83815282602082015260606040820152600061149160608301846111ae565b95945050505050565b6000602082840312156114ac57600080fd5b815167ffffffffffffffff8111156114c357600080fd5b610ecf8482850161126f565b600080604083850312156114e257600080fd5b82516114ed816111f4565b60208401519092506114fe816111f4565b809150509250929050565b6000825161151b81846020870161118a565b919091019291505056fea2646970667358221220b6d9d732b6671ae1a3213a5f7a2aa9377f37f38af901bcd0000ab08dcbd3979a64736f6c63430008130033",
  "devdoc": {
    "kind": "dev",
    "methods": {},
    "version": 1
  },
  "userdoc": {
    "kind": "user",
    "methods": {},
    "version": 1
  },
  "storageLayout": {
    "storage": [],
    "types": null
  }
}