{
  "address": "0x4c856a264EE234e3DcFDEecEcfFC34ec203dF4f2",
  "abi": [
    {
      "inputs": [
        {
          "internalType": "address",
          "name": "couponManager_",
          "type": "address"
        },
        {
          "internalType": "address",
          "name": "assetPool_",
          "type": "address"
        },
        {
          "internalType": "address",
          "name": "oracle_",
          "type": "address"
        },
        {
          "internalType": "address",
          "name": "treasury_",
          "type": "address"
        },
        {
          "internalType": "uint256",
          "name": "minDebtValueInEth_",
          "type": "uint256"
        },
        {
          "internalType": "string",
          "name": "baseURI_",
          "type": "string"
        },
        {
          "internalType": "string",
          "name": "contractURI_",
          "type": "string"
        }
      ],
      "stateMutability": "nonpayable",
      "type": "constructor"
    },
    {
      "inputs": [],
      "name": "EpochOverflow",
      "type": "error"
    },
    {
      "inputs": [],
      "name": "FullRepaymentRequired",
      "type": "error"
    },
    {
      "inputs": [],
      "name": "InvalidAccess",
      "type": "error"
    },
    {
      "inputs": [],
      "name": "InvalidConfiguration",
      "type": "error"
    },
    {
      "inputs": [],
      "name": "InvalidPair",
      "type": "error"
    },
    {
      "inputs": [],
      "name": "InvalidPositionEpoch",
      "type": "error"
    },
    {
      "inputs": [],
      "name": "InvalidShortString",
      "type": "error"
    },
    {
      "inputs": [],
      "name": "InvalidSignature",
      "type": "error"
    },
    {
      "inputs": [],
      "name": "LiquidationThreshold",
      "type": "error"
    },
    {
      "inputs": [
        {
          "internalType": "address",
          "name": "locker",
          "type": "address"
        }
      ],
      "name": "LockedBy",
      "type": "error"
    },
    {
      "inputs": [],
      "name": "NotSettled",
      "type": "error"
    },
    {
      "inputs": [],
      "name": "PermitExpired",
      "type": "error"
    },
    {
      "inputs": [
        {
          "internalType": "string",
          "name": "str",
          "type": "string"
        }
      ],
      "name": "StringTooLong",
      "type": "error"
    },
    {
      "inputs": [],
      "name": "TooSmallDebtLeft",
      "type": "error"
    },
    {
      "inputs": [],
      "name": "UnableToLiquidate",
      "type": "error"
    },
    {
      "inputs": [],
      "name": "UnmatchedPosition",
      "type": "error"
    },
    {
      "anonymous": false,
      "inputs": [
        {
          "indexed": true,
          "internalType": "address",
          "name": "owner",
          "type": "address"
        },
        {
          "indexed": true,
          "internalType": "address",
          "name": "approved",
          "type": "address"
        },
        {
          "indexed": true,
          "internalType": "uint256",
          "name": "tokenId",
          "type": "uint256"
        }
      ],
      "name": "Approval",
      "type": "event"
    },
    {
      "anonymous": false,
      "inputs": [
        {
          "indexed": true,
          "internalType": "address",
          "name": "owner",
          "type": "address"
        },
        {
          "indexed": true,
          "internalType": "address",
          "name": "operator",
          "type": "address"
        },
        {
          "indexed": false,
          "internalType": "bool",
          "name": "approved",
          "type": "bool"
        }
      ],
      "name": "ApprovalForAll",
      "type": "event"
    },
    {
      "anonymous": false,
      "inputs": [],
      "name": "EIP712DomainChanged",
      "type": "event"
    },
    {
      "anonymous": false,
      "inputs": [
        {
          "indexed": true,
          "internalType": "uint256",
          "name": "positionId",
          "type": "uint256"
        },
        {
          "indexed": true,
          "internalType": "address",
          "name": "liquidator",
          "type": "address"
        },
        {
          "indexed": false,
          "internalType": "uint256",
          "name": "liquidationAmount",
          "type": "uint256"
        },
        {
          "indexed": false,
          "internalType": "uint256",
          "name": "repayAmount",
          "type": "uint256"
        },
        {
          "indexed": false,
          "internalType": "uint256",
          "name": "protocolFeeAmount",
          "type": "uint256"
        }
      ],
      "name": "LiquidatePosition",
      "type": "event"
    },
    {
      "anonymous": false,
      "inputs": [
        {
          "indexed": true,
          "internalType": "address",
          "name": "previousOwner",
          "type": "address"
        },
        {
          "indexed": true,
          "internalType": "address",
          "name": "newOwner",
          "type": "address"
        }
      ],
      "name": "OwnershipTransferStarted",
      "type": "event"
    },
    {
      "anonymous": false,
      "inputs": [
        {
          "indexed": true,
          "internalType": "address",
          "name": "previousOwner",
          "type": "address"
        },
        {
          "indexed": true,
          "internalType": "address",
          "name": "newOwner",
          "type": "address"
        }
      ],
      "name": "OwnershipTransferred",
      "type": "event"
    },
    {
      "anonymous": false,
      "inputs": [
        {
          "indexed": true,
          "internalType": "address",
          "name": "collateral",
          "type": "address"
        },
        {
          "indexed": true,
          "internalType": "address",
          "name": "debt",
          "type": "address"
        },
        {
          "indexed": false,
          "internalType": "uint32",
          "name": "liquidationThreshold",
          "type": "uint32"
        },
        {
          "indexed": false,
          "internalType": "uint32",
          "name": "liquidationFee",
          "type": "uint32"
        },
        {
          "indexed": false,
          "internalType": "uint32",
          "name": "liquidationProtocolFee",
          "type": "uint32"
        },
        {
          "indexed": false,
          "internalType": "uint32",
          "name": "liquidationTargetLtv",
          "type": "uint32"
        },
        {
          "indexed": false,
          "internalType": "address",
          "name": "hook",
          "type": "address"
        }
      ],
      "name": "SetLoanConfiguration",
      "type": "event"
    },
    {
      "anonymous": false,
      "inputs": [
        {
          "indexed": true,
          "internalType": "address",
          "name": "newTreasury",
          "type": "address"
        }
      ],
      "name": "SetTreasury",
      "type": "event"
    },
    {
      "anonymous": false,
      "inputs": [
        {
          "indexed": true,
          "internalType": "address",
          "name": "from",
          "type": "address"
        },
        {
          "indexed": true,
          "internalType": "address",
          "name": "to",
          "type": "address"
        },
        {
          "indexed": true,
          "internalType": "uint256",
          "name": "tokenId",
          "type": "uint256"
        }
      ],
      "name": "Transfer",
      "type": "event"
    },
    {
      "anonymous": false,
      "inputs": [
        {
          "indexed": true,
          "internalType": "uint256",
          "name": "positionId",
          "type": "uint256"
        },
        {
          "indexed": false,
          "internalType": "uint256",
          "name": "collateralAmount",
          "type": "uint256"
        },
        {
          "indexed": false,
          "internalType": "uint256",
          "name": "debtAmount",
          "type": "uint256"
        },
        {
          "indexed": false,
          "internalType": "Epoch",
          "name": "unlockedAt",
          "type": "uint16"
        }
      ],
      "name": "UpdatePosition",
      "type": "event"
    },
    {
      "inputs": [],
      "name": "DOMAIN_SEPARATOR",
      "outputs": [
        {
          "internalType": "bytes32",
          "name": "",
          "type": "bytes32"
        }
      ],
      "stateMutability": "view",
      "type": "function"
    },
    {
      "inputs": [],
      "name": "PERMIT_TYPEHASH",
      "outputs": [
        {
          "internalType": "bytes32",
          "name": "",
          "type": "bytes32"
        }
      ],
      "stateMutability": "view",
      "type": "function"
    },
    {
      "inputs": [],
      "name": "acceptOwnership",
      "outputs": [],
      "stateMutability": "nonpayable",
      "type": "function"
    },
    {
      "inputs": [
        {
          "internalType": "uint256",
          "name": "positionId",
          "type": "uint256"
        },
        {
          "internalType": "uint256",
          "name": "collateralAmount",
          "type": "uint256"
        },
        {
          "internalType": "uint256",
          "name": "debtAmount",
          "type": "uint256"
        },
        {
          "internalType": "Epoch",
          "name": "expiredWith",
          "type": "uint16"
        }
      ],
      "name": "adjustPosition",
      "outputs": [
        {
          "components": [
            {
              "components": [
                {
                  "internalType": "address",
                  "name": "asset",
                  "type": "address"
                },
                {
                  "internalType": "Epoch",
                  "name": "epoch",
                  "type": "uint16"
                }
              ],
              "internalType": "struct CouponKey",
              "name": "key",
              "type": "tuple"
            },
            {
              "internalType": "uint256",
              "name": "amount",
              "type": "uint256"
            }
          ],
          "internalType": "struct Coupon[]",
          "name": "couponsToMint",
          "type": "tuple[]"
        },
        {
          "components": [
            {
              "components": [
                {
                  "internalType": "address",
                  "name": "asset",
                  "type": "address"
                },
                {
                  "internalType": "Epoch",
                  "name": "epoch",
                  "type": "uint16"
                }
              ],
              "internalType": "struct CouponKey",
              "name": "key",
              "type": "tuple"
            },
            {
              "internalType": "uint256",
              "name": "amount",
              "type": "uint256"
            }
          ],
          "internalType": "struct Coupon[]",
          "name": "couponsToBurn",
          "type": "tuple[]"
        },
        {
          "internalType": "int256",
          "name": "collateralDelta",
          "type": "int256"
        },
        {
          "internalType": "int256",
          "name": "debtDelta",
          "type": "int256"
        }
      ],
      "stateMutability": "nonpayable",
      "type": "function"
    },
    {
      "inputs": [
        {
          "internalType": "address",
          "name": "to",
          "type": "address"
        },
        {
          "internalType": "uint256",
          "name": "tokenId",
          "type": "uint256"
        }
      ],
      "name": "approve",
      "outputs": [],
      "stateMutability": "nonpayable",
      "type": "function"
    },
    {
      "inputs": [
        {
          "internalType": "address",
          "name": "locker",
          "type": "address"
        },
        {
          "internalType": "uint256",
          "name": "assetId",
          "type": "uint256"
        }
      ],
      "name": "assetDelta",
      "outputs": [
        {
          "internalType": "int256",
          "name": "delta",
          "type": "int256"
        }
      ],
      "stateMutability": "view",
      "type": "function"
    },
    {
      "inputs": [],
      "name": "assetPool",
      "outputs": [
        {
          "internalType": "address",
          "name": "",
          "type": "address"
        }
      ],
      "stateMutability": "view",
      "type": "function"
    },
    {
      "inputs": [
        {
          "internalType": "address",
          "name": "owner",
          "type": "address"
        }
      ],
      "name": "balanceOf",
      "outputs": [
        {
          "internalType": "uint256",
          "name": "",
          "type": "uint256"
        }
      ],
      "stateMutability": "view",
      "type": "function"
    },
    {
      "inputs": [],
      "name": "baseURI",
      "outputs": [
        {
          "internalType": "string",
          "name": "",
          "type": "string"
        }
      ],
      "stateMutability": "view",
      "type": "function"
    },
    {
      "inputs": [
        {
          "components": [
            {
              "components": [
                {
                  "internalType": "address",
                  "name": "asset",
                  "type": "address"
                },
                {
                  "internalType": "Epoch",
                  "name": "epoch",
                  "type": "uint16"
                }
              ],
              "internalType": "struct CouponKey",
              "name": "key",
              "type": "tuple"
            },
            {
              "internalType": "uint256",
              "name": "amount",
              "type": "uint256"
            }
          ],
          "internalType": "struct Coupon[]",
          "name": "coupons",
          "type": "tuple[]"
        }
      ],
      "name": "burnCoupons",
      "outputs": [],
      "stateMutability": "nonpayable",
      "type": "function"
    },
    {
      "inputs": [
        {
          "components": [
            {
              "internalType": "address",
              "name": "asset",
              "type": "address"
            },
            {
              "internalType": "Epoch",
              "name": "epoch",
              "type": "uint16"
            }
          ],
          "internalType": "struct CouponKey[]",
          "name": "couponKeys",
          "type": "tuple[]"
        },
        {
          "internalType": "bytes",
          "name": "data",
          "type": "bytes"
        }
      ],
      "name": "claimOwedCoupons",
      "outputs": [],
      "stateMutability": "nonpayable",
      "type": "function"
    },
    {
      "inputs": [],
      "name": "contractURI",
      "outputs": [
        {
          "internalType": "string",
          "name": "",
          "type": "string"
        }
      ],
      "stateMutability": "view",
      "type": "function"
    },
    {
      "inputs": [
        {
          "internalType": "address",
          "name": "token",
          "type": "address"
        },
        {
          "internalType": "uint256",
          "name": "amount",
          "type": "uint256"
        }
      ],
      "name": "depositToken",
      "outputs": [],
      "stateMutability": "nonpayable",
      "type": "function"
    },
    {
      "inputs": [],
      "name": "eip712Domain",
      "outputs": [
        {
          "internalType": "bytes1",
          "name": "fields",
          "type": "bytes1"
        },
        {
          "internalType": "string",
          "name": "name",
          "type": "string"
        },
        {
          "internalType": "string",
          "name": "version",
          "type": "string"
        },
        {
          "internalType": "uint256",
          "name": "chainId",
          "type": "uint256"
        },
        {
          "internalType": "address",
          "name": "verifyingContract",
          "type": "address"
        },
        {
          "internalType": "bytes32",
          "name": "salt",
          "type": "bytes32"
        },
        {
          "internalType": "uint256[]",
          "name": "extensions",
          "type": "uint256[]"
        }
      ],
      "stateMutability": "view",
      "type": "function"
    },
    {
      "inputs": [
        {
          "internalType": "uint256",
          "name": "tokenId",
          "type": "uint256"
        }
      ],
      "name": "getApproved",
      "outputs": [
        {
          "internalType": "address",
          "name": "",
          "type": "address"
        }
      ],
      "stateMutability": "view",
      "type": "function"
    },
    {
      "inputs": [
        {
          "internalType": "uint256",
          "name": "positionId",
          "type": "uint256"
        },
        {
          "internalType": "uint256",
          "name": "maxRepayAmount",
          "type": "uint256"
        }
      ],
      "name": "getLiquidationStatus",
      "outputs": [
        {
          "internalType": "uint256",
          "name": "",
          "type": "uint256"
        },
        {
          "internalType": "uint256",
          "name": "",
          "type": "uint256"
        },
        {
          "internalType": "uint256",
          "name": "",
          "type": "uint256"
        }
      ],
      "stateMutability": "view",
      "type": "function"
    },
    {
      "inputs": [
        {
          "internalType": "address",
          "name": "collateral",
          "type": "address"
        },
        {
          "internalType": "address",
          "name": "debt",
          "type": "address"
        }
      ],
      "name": "getLoanConfiguration",
      "outputs": [
        {
          "components": [
            {
              "internalType": "uint32",
              "name": "collateralDecimal",
              "type": "uint32"
            },
            {
              "internalType": "uint32",
              "name": "debtDecimal",
              "type": "uint32"
            },
            {
              "internalType": "uint32",
              "name": "liquidationThreshold",
              "type": "uint32"
            },
            {
              "internalType": "uint32",
              "name": "liquidationFee",
              "type": "uint32"
            },
            {
              "internalType": "uint32",
              "name": "liquidationProtocolFee",
              "type": "uint32"
            },
            {
              "internalType": "uint32",
              "name": "liquidationTargetLtv",
              "type": "uint32"
            }
          ],
          "internalType": "struct ILoanPositionManagerTypes.LoanConfiguration",
          "name": "",
          "type": "tuple"
        }
      ],
      "stateMutability": "view",
      "type": "function"
    },
    {
      "inputs": [
        {
          "internalType": "address",
          "name": "user",
          "type": "address"
        },
        {
          "internalType": "uint256",
          "name": "couponId",
          "type": "uint256"
        }
      ],
      "name": "getOwedCouponAmount",
      "outputs": [
        {
          "internalType": "uint256",
          "name": "",
          "type": "uint256"
        }
      ],
      "stateMutability": "view",
      "type": "function"
    },
    {
      "inputs": [
        {
          "internalType": "uint256",
          "name": "positionId",
          "type": "uint256"
        }
      ],
      "name": "getPosition",
      "outputs": [
        {
          "components": [
            {
              "internalType": "uint64",
              "name": "nonce",
              "type": "uint64"
            },
            {
              "internalType": "Epoch",
              "name": "expiredWith",
              "type": "uint16"
            },
            {
              "internalType": "bool",
              "name": "isSettled",
              "type": "bool"
            },
            {
              "internalType": "address",
              "name": "collateralToken",
              "type": "address"
            },
            {
              "internalType": "address",
              "name": "debtToken",
              "type": "address"
            },
            {
              "internalType": "uint256",
              "name": "collateralAmount",
              "type": "uint256"
            },
            {
              "internalType": "uint256",
              "name": "debtAmount",
              "type": "uint256"
            }
          ],
          "internalType": "struct LoanPosition",
          "name": "",
          "type": "tuple"
        }
      ],
      "stateMutability": "view",
      "type": "function"
    },
    {
      "inputs": [
        {
          "internalType": "address",
          "name": "owner",
          "type": "address"
        },
        {
          "internalType": "address",
          "name": "operator",
          "type": "address"
        }
      ],
      "name": "isApprovedForAll",
      "outputs": [
        {
          "internalType": "bool",
          "name": "",
          "type": "bool"
        }
      ],
      "stateMutability": "view",
      "type": "function"
    },
    {
      "inputs": [
        {
          "internalType": "address",
          "name": "collateral",
          "type": "address"
        },
        {
          "internalType": "address",
          "name": "debt",
          "type": "address"
        }
      ],
      "name": "isPairRegistered",
      "outputs": [
        {
          "internalType": "bool",
          "name": "",
          "type": "bool"
        }
      ],
      "stateMutability": "view",
      "type": "function"
    },
    {
      "inputs": [
        {
          "internalType": "uint256",
          "name": "positionId",
          "type": "uint256"
        },
        {
          "internalType": "uint256",
          "name": "maxRepayAmount",
          "type": "uint256"
        }
      ],
      "name": "liquidate",
      "outputs": [
        {
          "internalType": "uint256",
          "name": "liquidationAmount",
          "type": "uint256"
        },
        {
          "internalType": "uint256",
          "name": "repayAmount",
          "type": "uint256"
        },
        {
          "internalType": "uint256",
          "name": "protocolFeeAmount",
          "type": "uint256"
        }
      ],
      "stateMutability": "nonpayable",
      "type": "function"
    },
    {
      "inputs": [
        {
          "internalType": "bytes",
          "name": "data",
          "type": "bytes"
        }
      ],
      "name": "lock",
      "outputs": [
        {
          "internalType": "bytes",
          "name": "result",
          "type": "bytes"
        }
      ],
      "stateMutability": "nonpayable",
      "type": "function"
    },
    {
      "inputs": [],
      "name": "lockData",
      "outputs": [
        {
          "internalType": "uint128",
          "name": "",
          "type": "uint128"
        },
        {
          "internalType": "uint128",
          "name": "",
          "type": "uint128"
        }
      ],
      "stateMutability": "view",
      "type": "function"
    },
    {
      "inputs": [],
      "name": "minDebtValueInEth",
      "outputs": [
        {
          "internalType": "uint256",
          "name": "",
          "type": "uint256"
        }
      ],
      "stateMutability": "view",
      "type": "function"
    },
    {
      "inputs": [
        {
          "internalType": "address",
          "name": "collateralToken",
          "type": "address"
        },
        {
          "internalType": "address",
          "name": "debtToken",
          "type": "address"
        }
      ],
      "name": "mint",
      "outputs": [
        {
          "internalType": "uint256",
          "name": "positionId",
          "type": "uint256"
        }
      ],
      "stateMutability": "nonpayable",
      "type": "function"
    },
    {
      "inputs": [
        {
          "components": [
            {
              "components": [
                {
                  "internalType": "address",
                  "name": "asset",
                  "type": "address"
                },
                {
                  "internalType": "Epoch",
                  "name": "epoch",
                  "type": "uint16"
                }
              ],
              "internalType": "struct CouponKey",
              "name": "key",
              "type": "tuple"
            },
            {
              "internalType": "uint256",
              "name": "amount",
              "type": "uint256"
            }
          ],
          "internalType": "struct Coupon[]",
          "name": "coupons",
          "type": "tuple[]"
        },
        {
          "internalType": "address",
          "name": "to",
          "type": "address"
        },
        {
          "internalType": "bytes",
          "name": "data",
          "type": "bytes"
        }
      ],
      "name": "mintCoupons",
      "outputs": [],
      "stateMutability": "nonpayable",
      "type": "function"
    },
    {
      "inputs": [],
      "name": "name",
      "outputs": [
        {
          "internalType": "string",
          "name": "",
          "type": "string"
        }
      ],
      "stateMutability": "view",
      "type": "function"
    },
    {
      "inputs": [],
      "name": "nextId",
      "outputs": [
        {
          "internalType": "uint256",
          "name": "",
          "type": "uint256"
        }
      ],
      "stateMutability": "view",
      "type": "function"
    },
    {
      "inputs": [
        {
          "internalType": "uint256",
          "name": "positionId",
          "type": "uint256"
        }
      ],
      "name": "nonces",
      "outputs": [
        {
          "internalType": "uint256",
          "name": "",
          "type": "uint256"
        }
      ],
      "stateMutability": "view",
      "type": "function"
    },
    {
      "inputs": [],
      "name": "oracle",
      "outputs": [
        {
          "internalType": "address",
          "name": "",
          "type": "address"
        }
      ],
      "stateMutability": "view",
      "type": "function"
    },
    {
      "inputs": [],
      "name": "owner",
      "outputs": [
        {
          "internalType": "address",
          "name": "",
          "type": "address"
        }
      ],
      "stateMutability": "view",
      "type": "function"
    },
    {
      "inputs": [
        {
          "internalType": "uint256",
          "name": "tokenId",
          "type": "uint256"
        }
      ],
      "name": "ownerOf",
      "outputs": [
        {
          "internalType": "address",
          "name": "",
          "type": "address"
        }
      ],
      "stateMutability": "view",
      "type": "function"
    },
    {
      "inputs": [],
      "name": "pendingOwner",
      "outputs": [
        {
          "internalType": "address",
          "name": "",
          "type": "address"
        }
      ],
      "stateMutability": "view",
      "type": "function"
    },
    {
      "inputs": [
        {
          "internalType": "address",
          "name": "spender",
          "type": "address"
        },
        {
          "internalType": "uint256",
          "name": "tokenId",
          "type": "uint256"
        },
        {
          "internalType": "uint256",
          "name": "deadline",
          "type": "uint256"
        },
        {
          "internalType": "uint8",
          "name": "v",
          "type": "uint8"
        },
        {
          "internalType": "bytes32",
          "name": "r",
          "type": "bytes32"
        },
        {
          "internalType": "bytes32",
          "name": "s",
          "type": "bytes32"
        }
      ],
      "name": "permit",
      "outputs": [],
      "stateMutability": "nonpayable",
      "type": "function"
    },
    {
      "inputs": [],
      "name": "renounceOwnership",
      "outputs": [],
      "stateMutability": "nonpayable",
      "type": "function"
    },
    {
      "inputs": [
        {
          "internalType": "address",
          "name": "from",
          "type": "address"
        },
        {
          "internalType": "address",
          "name": "to",
          "type": "address"
        },
        {
          "internalType": "uint256",
          "name": "tokenId",
          "type": "uint256"
        }
      ],
      "name": "safeTransferFrom",
      "outputs": [],
      "stateMutability": "nonpayable",
      "type": "function"
    },
    {
      "inputs": [
        {
          "internalType": "address",
          "name": "from",
          "type": "address"
        },
        {
          "internalType": "address",
          "name": "to",
          "type": "address"
        },
        {
          "internalType": "uint256",
          "name": "tokenId",
          "type": "uint256"
        },
        {
          "internalType": "bytes",
          "name": "data",
          "type": "bytes"
        }
      ],
      "name": "safeTransferFrom",
      "outputs": [],
      "stateMutability": "nonpayable",
      "type": "function"
    },
    {
      "inputs": [
        {
          "internalType": "address",
          "name": "operator",
          "type": "address"
        },
        {
          "internalType": "bool",
          "name": "approved",
          "type": "bool"
        }
      ],
      "name": "setApprovalForAll",
      "outputs": [],
      "stateMutability": "nonpayable",
      "type": "function"
    },
    {
      "inputs": [
        {
          "internalType": "address",
          "name": "collateral",
          "type": "address"
        },
        {
          "internalType": "address",
          "name": "debt",
          "type": "address"
        },
        {
          "internalType": "uint32",
          "name": "liquidationThreshold",
          "type": "uint32"
        },
        {
          "internalType": "uint32",
          "name": "liquidationFee",
          "type": "uint32"
        },
        {
          "internalType": "uint32",
          "name": "liquidationProtocolFee",
          "type": "uint32"
        },
        {
          "internalType": "uint32",
          "name": "liquidationTargetLtv",
          "type": "uint32"
        },
        {
          "internalType": "address",
          "name": "hook",
          "type": "address"
        }
      ],
      "name": "setLoanConfiguration",
      "outputs": [],
      "stateMutability": "nonpayable",
      "type": "function"
    },
    {
      "inputs": [
        {
          "internalType": "address",
          "name": "newTreasury",
          "type": "address"
        }
      ],
      "name": "setTreasury",
      "outputs": [],
      "stateMutability": "nonpayable",
      "type": "function"
    },
    {
      "inputs": [
        {
          "internalType": "uint256",
          "name": "positionId",
          "type": "uint256"
        }
      ],
      "name": "settlePosition",
      "outputs": [],
      "stateMutability": "nonpayable",
      "type": "function"
    },
    {
      "inputs": [
        {
          "internalType": "bytes4",
          "name": "interfaceId",
          "type": "bytes4"
        }
      ],
      "name": "supportsInterface",
      "outputs": [
        {
          "internalType": "bool",
          "name": "",
          "type": "bool"
        }
      ],
      "stateMutability": "view",
      "type": "function"
    },
    {
      "inputs": [],
      "name": "symbol",
      "outputs": [
        {
          "internalType": "string",
          "name": "",
          "type": "string"
        }
      ],
      "stateMutability": "view",
      "type": "function"
    },
    {
      "inputs": [
        {
          "internalType": "uint256",
          "name": "tokenId",
          "type": "uint256"
        }
      ],
      "name": "tokenURI",
      "outputs": [
        {
          "internalType": "string",
          "name": "",
          "type": "string"
        }
      ],
      "stateMutability": "view",
      "type": "function"
    },
    {
      "inputs": [
        {
          "internalType": "address",
          "name": "from",
          "type": "address"
        },
        {
          "internalType": "address",
          "name": "to",
          "type": "address"
        },
        {
          "internalType": "uint256",
          "name": "tokenId",
          "type": "uint256"
        }
      ],
      "name": "transferFrom",
      "outputs": [],
      "stateMutability": "nonpayable",
      "type": "function"
    },
    {
      "inputs": [
        {
          "internalType": "address",
          "name": "newOwner",
          "type": "address"
        }
      ],
      "name": "transferOwnership",
      "outputs": [],
      "stateMutability": "nonpayable",
      "type": "function"
    },
    {
      "inputs": [],
      "name": "treasury",
      "outputs": [
        {
          "internalType": "address",
          "name": "",
          "type": "address"
        }
      ],
      "stateMutability": "view",
      "type": "function"
    },
    {
      "inputs": [
        {
          "internalType": "address",
          "name": "token",
          "type": "address"
        },
        {
          "internalType": "address",
          "name": "to",
          "type": "address"
        },
        {
          "internalType": "uint256",
          "name": "amount",
          "type": "uint256"
        }
      ],
      "name": "withdrawToken",
      "outputs": [],
      "stateMutability": "nonpayable",
      "type": "function"
    }
  ],
  "transactionHash": "0xe75aef05211d39dece2d6e36b784df9d0faa80c06379e62896fdaa752da1d795",
  "args": [
    "0x3e21698fc6A8bAda6Caf38C99F5D57121b90b4A0",
    "0x95269638e68F0c6ABee2574eF9a8c99b037a5bD1",
    "0xd7Fa879B747e9705Fe582d6294DF4c0CC1e7Efa1",
    "0x000000000000000000000000000000000000dEaD",
    "10000000000000000",
    "https://coupon.finance/api/nft/chains/421613/loans/",
    "https://coupon.finance/api/nft/chains/421613/loans"
  ],
  "numDeployments": 1,
  "solcInputHash": "c9ee03d6d484c9f8dce92675035b19fc",
  "bytecode": "0x6101e06040526001600a553480156200001757600080fd5b5060405162006679380380620066798339810160408190526200003a9162000413565b868683836040518060400160405280600d81526020016c2637b0b7102837b9b4ba34b7b760991b8152506040518060400160405280600281526020016104c560f41b8152508181604051806040016040528060018152602001603160f81b815250828184848160009081620000b0919062000561565b506001620000bf828262000561565b50620000d19150839050600662000230565b61012052620000e281600762000230565b61014052815160208084019190912060e052815190820120610100524660a0526200017060e05161010051604080517f8b73c3c69bb8fe3d512ecc4cf759cc79239f7b179b0ffacaa9a75d522b39400f60208201529081019290925260608201524660808201523060a082015260009060c00160405160208183030381529060405280519060200120905090565b60805250503060c0525050506001600160a01b038681166101605285166101805260086200019f858262000561565b506009620001ae848262000561565b50505050505050620001cf620001c96200026960201b60201c565b6200026d565b6001600160a01b038581166101a0526101c0849052601380546001600160a01b03191691861691821790556040517fcb7ef3e545f5cdb893f5c568ba710fe08f336375a2d9fd66e161033f8fc09ef390600090a25050505050505062000687565b6000602083511015620002505762000248836200028b565b905062000263565b816200025d848262000561565b5060ff90505b92915050565b3390565b600e80546001600160a01b03191690556200028881620002d7565b50565b600080829050601f81511115620002c2578260405163305a27a960e01b8152600401620002b991906200062d565b60405180910390fd5b8051620002cf8262000662565b179392505050565b600d80546001600160a01b038381166001600160a01b0319831681179093556040519116919082907f8be0079c531659141344cd1fd0a4f28419497f9722a3daafe3b4186f6b6457e090600090a35050565b80516001600160a01b03811681146200034157600080fd5b919050565b634e487b7160e01b600052604160045260246000fd5b60005b83811015620003795781810151838201526020016200035f565b50506000910152565b600082601f8301126200039457600080fd5b81516001600160401b0380821115620003b157620003b162000346565b604051601f8301601f19908116603f01168101908282118183101715620003dc57620003dc62000346565b81604052838152866020858801011115620003f657600080fd5b620004098460208301602089016200035c565b9695505050505050565b600080600080600080600060e0888a0312156200042f57600080fd5b6200043a8862000329565b96506200044a6020890162000329565b95506200045a6040890162000329565b94506200046a6060890162000329565b608089015160a08a015191955093506001600160401b03808211156200048f57600080fd5b6200049d8b838c0162000382565b935060c08a0151915080821115620004b457600080fd5b50620004c38a828b0162000382565b91505092959891949750929550565b600181811c90821680620004e757607f821691505b6020821081036200050857634e487b7160e01b600052602260045260246000fd5b50919050565b601f8211156200055c57600081815260208120601f850160051c81016020861015620005375750805b601f850160051c820191505b81811015620005585782815560010162000543565b5050505b505050565b81516001600160401b038111156200057d576200057d62000346565b62000595816200058e8454620004d2565b846200050e565b602080601f831160018114620005cd5760008415620005b45750858301515b600019600386901b1c1916600185901b17855562000558565b600085815260208120601f198616915b82811015620005fe57888601518255948401946001909101908401620005dd565b50858210156200061d5787850151600019600388901b60f8161c191681555b5050505050600190811b01905550565b60208152600082518060208401526200064e8160408501602087016200035c565b601f01601f19169190910160400192915050565b80516020808301519190811015620005085760001960209190910360031b1b16919050565b60805160a05160c05160e05161010051610120516101405161016051610180516101a0516101c051615f4862000731600039600081816107220152613e940152600081816105de0152613dfb015260008181610423015281816110ba0152612dd401526000818161281b0152613a2d01526000611cef01526000611cc4015260006133d7015260006133af0152600061330a015260006133340152600061335e0152615f486000f3fe608060405234801561001057600080fd5b506004361061032b5760003560e01c80637ac2ff7b116101b2578063c87b56dd116100f9578063e985e9c5116100a2578063f0f442601161007c578063f0f4426014610903578063f2fde38b14610916578063f8fcd15614610929578063fa45c0a31461095357600080fd5b8063e985e9c514610770578063eb02c301146107ac578063ee1fe2ad146108f057600080fd5b8063e30c3978116100d3578063e30c397814610744578063e6ee95e214610755578063e8a3d4851461076857600080fd5b8063c87b56dd146106f7578063d296d1f11461070a578063de0bb9331461071d57600080fd5b8063a22cb4651161015b578063b88d4fde11610135578063b88d4fde146106a3578063bb4c831e146106b6578063c1f48676146106e457600080fd5b8063a22cb46514610647578063aba5b4b31461065a578063af2b68c51461066d57600080fd5b806384b0196e1161018c57806384b0196e146106135780638da5cb5b1461062e57806395d89b411461063f57600080fd5b80637ac2ff7b146105c65780637dc0d1d0146105d9578063815483191461060057600080fd5b80633644e5151161027657806365ae58471161021f57806370a08231116101f957806370a08231146105a3578063715018a6146105b657806379ba5097146105be57600080fd5b806365ae58471461055d5780636af6dbf4146105705780636c0360eb1461059b57600080fd5b806361b8ce8c1161025057806361b8ce8c1461052e57806361d027b3146105375780636352211e1461054a57600080fd5b80633644e515146104f057806342842e0e146104f857806342e910af1461050b57600080fd5b8063141a468c116102d857806330adf81f116102b257806330adf81f14610445578063338b5dea1461046c578063350a951a1461047f57600080fd5b8063141a468c146103d357806323b872dd1461040b5780632ec939f91461041e57600080fd5b8063075aaa6211610309578063075aaa6214610382578063081812fc14610395578063095ea7b3146103c057600080fd5b806301e336671461033057806301ffc9a71461034557806306fdde031461036d575b600080fd5b61034361033e3660046151cf565b610966565b005b610358610353366004615221565b6109d4565b60405190151581526020015b60405180910390f35b610375610a18565b604051610364919061528e565b6103436103903660046152b5565b610aaa565b6103a86103a336600461533b565b610e93565b6040516001600160a01b039091168152602001610364565b6103436103ce366004615354565b610eba565b6103fd6103e136600461533b565b60009081526011602052604090205467ffffffffffffffff1690565b604051908152602001610364565b6103436104193660046151cf565b610feb565b6103a87f000000000000000000000000000000000000000000000000000000000000000081565b6103fd7f49ecf333e5b8c95c40fdafc95c1ad136e8914a8fb55e9dc8bb01eaa83a2df9ad81565b61034361047a366004615354565b611062565b61049261048d36600461537e565b6110f4565b6040516103649190600060c08201905063ffffffff8084511683528060208501511660208401528060408501511660408401528060608501511660608401528060808501511660808401528060a08501511660a08401525092915050565b6103fd6111f4565b6103436105063660046151cf565b611203565b61051e6105193660046153c3565b61121e565b604051610364949392919061545f565b6103fd600a5481565b6013546103a8906001600160a01b031681565b6103a861055836600461533b565b611564565b61034361056b366004615526565b6115c9565b6103fd61057e366004615354565b600c60209081526000928352604080842090915290825290205481565b610375611711565b6103fd6105b13660046155aa565b61179f565b610343611839565b61034361184d565b6103436105d43660046155d4565b6118db565b6103a87f000000000000000000000000000000000000000000000000000000000000000081565b61037561060e36600461562e565b611b52565b61061b611cb6565b6040516103649796959493929190615670565b600d546001600160a01b03166103a8565b610375611d5b565b610343610655366004615730565b611d6a565b61034361066836600461533b565b611d79565b6103fd61067b366004615354565b6001600160a01b03919091166000908152600f60209081526040808320938352929052205490565b6103436106b13660046157ff565b6120bf565b6106c96106c43660046158aa565b612137565b60408051938452602084019290925290820152606001610364565b6103586106f236600461537e565b6121e5565b61037561070536600461533b565b6121f9565b6106c96107183660046158aa565b612260565b6103fd7f000000000000000000000000000000000000000000000000000000000000000081565b600e546001600160a01b03166103a8565b6103436107633660046158cc565b6127a9565b6103756128d5565b61035861077e36600461537e565b6001600160a01b03918216600090815260056020908152604080832093909416825291909152205460ff1690565b61087b6107ba36600461533b565b6040805160e081018252600080825260208201819052918101829052606081018290526080810182905260a0810182905260c081019190915250600090815260116020908152604091829020825160e081018452815467ffffffffffffffff81168252600160401b810461ffff1693820193909352600160501b830460ff16151593810193909352600160581b9091046001600160a01b0390811660608401526001820154166080830152600281015460a08301526003015460c082015290565b6040516103649190600060e08201905067ffffffffffffffff835116825261ffff602084015116602083015260408301511515604083015260608301516001600160a01b038082166060850152806080860151166080850152505060a083015160a083015260c083015160c083015292915050565b6103fd6108fe36600461537e565b6128e2565b6103436109113660046155aa565b6129d0565b6103436109243660046155aa565b612a22565b600b54604080516001600160801b038084168252600160801b909304909216602083015201610364565b610343610961366004615902565b612a93565b6000610972600b612c31565b9050336001600160a01b038216146109ad576040516313d2c13360e21b81526001600160a01b03821660048201526024015b60405180910390fd5b6109c2846001600160a01b0316836000612c7e565b506109ce848385612d8d565b50505050565b60006001600160e01b031982167f6831a4fd000000000000000000000000000000000000000000000000000000001480610a125750610a1282612e36565b92915050565b606060008054610a279061599c565b80601f0160208091040260200160405190810160405280929190818152602001828054610a539061599c565b8015610aa05780601f10610a7557610100808354040283529160200191610aa0565b820191906000526020600020905b815481529060010190602001808311610a8357829003601f168201915b5050505050905090565b610ab2612ed1565b620f42408563ffffffff16101580610adc5750620f4240610ad383866159ec565b63ffffffff1610155b80610af357508463ffffffff168263ffffffff1610155b15610b2a576040517fc52a9bd300000000000000000000000000000000000000000000000000000000815260040160405180910390fd5b60408051606089811b6bffffffffffffffffffffffff19908116602080850191909152918a901b1660348301528251602881840301815260489092019092528051910120600090600081815260106020526040902054909150600160401b900463ffffffff1615610bae57604051630793df6360e21b815260040160405180910390fd5b816012600083815260200190815260200160002060006101000a8154816001600160a01b0302191690836001600160a01b031602179055506040518060c00160405280896001600160a01b031663313ce5676040518163ffffffff1660e01b8152600401602060405180830381865afa158015610c2f573d6000803e3d6000fd5b505050506040513d601f19601f82011682018060405250810190610c539190615a09565b60ff1663ffffffff168152602001886001600160a01b031663313ce5676040518163ffffffff1660e01b8152600401602060405180830381865afa158015610c9f573d6000803e3d6000fd5b505050506040513d601f19601f82011682018060405250810190610cc39190615a09565b60ff16815263ffffffff888116602080840191909152888216604080850191909152888316606080860191909152888416608095860152600087815260108452829020865181549488015188850151938901519789015160a0909901518716600160a01b027fffffffffffffffff00000000ffffffffffffffffffffffffffffffffffffffff998816600160801b02999099167fffffffffffffffff0000000000000000ffffffffffffffffffffffffffffffff988816600160601b027fffffffffffffffffffffffffffffffff00000000ffffffffffffffffffffffff958916600160401b02959095167fffffffffffffffffffffffffffffffff0000000000000000ffffffffffffffff9289166401000000000267ffffffffffffffff19909816939098169290921795909517949094169490941717939093161792909217909155516001600160a01b0380891691908a16907fac5d333887643cf799bd5e52f7ad502d3a3ec0530ebbf57361247cf9385923a090610e81908a908a908a908a908a9063ffffffff95861681529385166020850152918416604084015290921660608201526001600160a01b0391909116608082015260a00190565b60405180910390a35050505050505050565b6000610e9e82612f2b565b506000908152600460205260409020546001600160a01b031690565b6000610ec582611564565b9050806001600160a01b0316836001600160a01b031603610f4e5760405162461bcd60e51b815260206004820152602160248201527f4552433732313a20617070726f76616c20746f2063757272656e74206f776e6560448201527f720000000000000000000000000000000000000000000000000000000000000060648201526084016109a4565b336001600160a01b0382161480610f6a5750610f6a813361077e565b610fdc5760405162461bcd60e51b815260206004820152603d60248201527f4552433732313a20617070726f76652063616c6c6572206973206e6f7420746f60448201527f6b656e206f776e6572206f7220617070726f76656420666f7220616c6c00000060648201526084016109a4565b610fe68383612f8f565b505050565b610ff53382612ffd565b6110575760405162461bcd60e51b815260206004820152602d60248201527f4552433732313a2063616c6c6572206973206e6f7420746f6b656e206f776e6560448201526c1c881bdc88185c1c1c9bdd9959609a1b60648201526084016109a4565b610fe683838361307c565b600061106e600b612c31565b9050336001600160a01b038216146110a4576040516313d2c13360e21b81526001600160a01b03821660048201526024016109a4565b8115610fe6576110df6001600160a01b038416337f000000000000000000000000000000000000000000000000000000000000000085613275565b6109ce836001600160a01b0316600084612c7e565b6040805160c081018252600080825260208201819052918101829052606081018290526080810182905260a08101919091526010600061117985856040516bffffffffffffffffffffffff19606084811b8216602084015283901b16603482015260009060480160405160208183030381529060405280519060200120905092915050565b81526020808201929092526040908101600020815160c081018352905463ffffffff80821683526401000000008204811694830194909452600160401b8104841692820192909252600160601b820483166060820152600160801b820483166080820152600160a01b90910490911660a08201529392505050565b60006111fe6132fd565b905090565b610fe6838383604051806020016040528060008152506120bf565b6060806000806000611230600b612c31565b9050336001600160a01b03821614611266576040516313d2c13360e21b81526001600160a01b03821660048201526024016109a4565b88611271338b612ffd565b6112a7576040517fc0185c6400000000000000000000000000000000000000000000000000000000815260040160405180910390fd5b60006112b1613428565b60008c815260116020908152604091829020825160e081018452815467ffffffffffffffff8116825261ffff600160401b8204811694830185905260ff600160501b8304161515958301959095526001600160a01b03600160581b909104811660608301526001830154166080820152600282015460a082015260039091015460c08201529293509083161061134c5761ffff821660208201525b89600003611358578198505b61136e8c826060015183608001518e8e8e613441565b60008c815260116020908152604091829020600281018e9055600381018d9055805461ffff808e16600160401b90810269ffff00000000000000001984168117808655875160e08101895267ffffffffffffffff928316929095169190911784529081049091169382019390935260ff600160501b8404161515938101939093526001600160a01b03600160581b909204821660608401526001015416608082015260a081018c905260c081018b905261142990829061354c565b909850965060005b885181101561148d5761148461145f8a838151811061145257611452615a26565b6020026020010151613982565b60008b848151811061147357611473615a26565b602002602001015160200151612c7e565b50600101611431565b5060005b87518110156114e0576114d76114b289838151811061145257611452615a26565b8983815181106114c4576114c4615a26565b6020026020010151602001516000612c7e565b50600101611491565b506114fd81606001516001600160a01b03168c8360a00151612c7e565b955061151b81608001516001600160a01b03168260c001518c612c7e565b60000394507f8000000000000000000000000000000000000000000000000000000000000000850361154c57600080fd5b505061155781613997565b5050945094509450949050565b6000818152600260205260408120546001600160a01b031680610a125760405162461bcd60e51b815260206004820152601860248201527f4552433732313a20696e76616c696420746f6b656e204944000000000000000060448201526064016109a4565b60006115d5600b612c31565b9050336001600160a01b0382161461160b576040516313d2c13360e21b81526001600160a01b03821660048201526024016109a4565b60005b858110156116755761166c61164988888481811061162e5761162e615a26565b9050606002018036038101906116449190615a7a565b613982565b88888481811061165b5761165b615a26565b905060600201604001356000612c7e565b5060010161160e565b50611709848787808060200260200160405190810160405280939291908181526020016000905b828210156116c8576116b960608302860136819003810190615a7a565b8152602001906001019061169c565b505050505085858080601f0160208091040260200160405190810160405280939291908181526020018383808284376000920191909152506139fd92505050565b505050505050565b6008805461171e9061599c565b80601f016020809104026020016040519081016040528092919081815260200182805461174a9061599c565b80156117975780601f1061176c57610100808354040283529160200191611797565b820191906000526020600020905b81548152906001019060200180831161177a57829003601f168201915b505050505081565b60006001600160a01b03821661181d5760405162461bcd60e51b815260206004820152602960248201527f4552433732313a2061646472657373207a65726f206973206e6f74206120766160448201527f6c6964206f776e6572000000000000000000000000000000000000000000000060648201526084016109a4565b506001600160a01b031660009081526003602052604090205490565b611841612ed1565b61184b6000613a66565b565b600e5433906001600160a01b031681146118cf5760405162461bcd60e51b815260206004820152602960248201527f4f776e61626c6532537465703a2063616c6c6572206973206e6f74207468652060448201527f6e6577206f776e6572000000000000000000000000000000000000000000000060648201526084016109a4565b6118d881613a66565b50565b83421115611915576040517f1a15a3cc00000000000000000000000000000000000000000000000000000000815260040160405180910390fd5b60006119937f49ecf333e5b8c95c40fdafc95c1ad136e8914a8fb55e9dc8bb01eaa83a2df9ad888861194681613a7f565b6040805160208101959095526001600160a01b03909316928401929092526060830152608082015260a0810187905260c00160405160208183030381529060405280519060200120613aa6565b905060006119a087611564565b9050806001600160a01b0316886001600160a01b0316036119d457604051638baa579f60e01b815260040160405180910390fd5b6001600160a01b0381163b15611b0157604080516020810186905280820185905260f887901b7fff000000000000000000000000000000000000000000000000000000000000001660608201528151604181830301815260618201928390527f1626ba7e000000000000000000000000000000000000000000000000000000009092526001600160a01b03831691631626ba7e91611a76918691606501615ab2565b602060405180830381865afa158015611a93573d6000803e3d6000fd5b505050506040513d601f19601f82011682018060405250810190611ab79190615acb565b7bffffffffffffffffffffffffffffffffffffffffffffffffffffffff1916631626ba7e60e01b14611afc57604051638baa579f60e01b815260040160405180910390fd5b611b3e565b806001600160a01b0316611b1783878787613aee565b6001600160a01b031614611b3e57604051638baa579f60e01b815260040160405180910390fd5b611b488888612f8f565b5050505050505050565b6060611bae600b3381546001600160801b039081167f760a9a962ae3d184e99c0483cf5684fb3170f47116ca4f445c50209da4f4f90681019290925582546fffffffffffffffffffffffffffffffff1916600190920116179055565b6040517f46a114e200000000000000000000000000000000000000000000000000000000815233906346a114e290611bec9086908690600401615ae8565b6000604051808303816000875af1158015611c0b573d6000803e3d6000fd5b505050506040513d6000823e601f3d908101601f19168201604052611c339190810190615b17565b600b549091506001600160801b0316600103611c8457600b54600160801b90046001600160801b031615611c7a5760405163ba329a9b60e01b815260040160405180910390fd5b6000600b55610a12565b600b80546fffffffffffffffffffffffffffffffff1981166001600160801b0391821660001901909116179055610a12565b600060608082808083611cea7f00000000000000000000000000000000000000000000000000000000000000006006613b16565b611d157f00000000000000000000000000000000000000000000000000000000000000006007613b16565b604080516000808252602082019092527f0f000000000000000000000000000000000000000000000000000000000000009b939a50919850469750309650945092509050565b606060018054610a279061599c565b611d75338383613bc1565b5050565b6000611d85600b612c31565b9050336001600160a01b03821614611dbb576040516313d2c13360e21b81526001600160a01b03821660048201526024016109a4565b611dc482613c8f565b600082815260116020908152604091829020825160e081018452815467ffffffffffffffff81168252600160401b810461ffff1693820193909352600160501b830460ff16151593810193909352600160581b9091046001600160a01b0390811660608401526001820154166080830152600281015460a08301526003015460c082018190521561204857611e6c8160200151611e5f613428565b61ffff9081169116111590565b15611ea3576040517f3ec7b15c00000000000000000000000000000000000000000000000000000000815260040160405180910390fd5b600060106000611f00846060015185608001516040516bffffffffffffffffffffffff19606084811b8216602084015283901b16603482015260009060480160405160208183030381529060405280519060200120905092915050565b815260208082019290925260409081016000908120825160c081018452905463ffffffff80821683526401000000008204811695830195909552600160401b8104851693820193909352600160601b83048416606080830191909152600160801b84048516608080840191909152600160a01b90940490941660a082015292850151918501519293509182918291611f99919086613d00565b9250925092508460c00151811115611fc457604051633be901a360e21b815260040160405180910390fd5b620f4240828660c00151611fd89190615b8e565b611fe29190615b8e565b846040015163ffffffff16848760a00151611ffd9190615b8e565b6120079190615b8e565b101561203f576040517f828d924c00000000000000000000000000000000000000000000000000000000815260040160405180910390fd5b5050505061205d565b8060a0015160000361205d5761205d83613f7d565b827f06295696f366b196b32a016b5eab796626cd05c4de0456c9f590f0cae9979faf8260a001518360c0015184602001516040516120b293929190928352602083019190915261ffff16604082015260600190565b60405180910390a2505050565b6120c93383612ffd565b61212b5760405162461bcd60e51b815260206004820152602d60248201527f4552433732313a2063616c6c6572206973206e6f7420746f6b656e206f776e6560448201526c1c881bdc88185c1c1c9bdd9959609a1b60648201526084016109a4565b6109ce84848484614012565b6000828152601160209081526040808320815160e081018352815467ffffffffffffffff81168252600160401b810461ffff1694820194909452600160501b840460ff16151592810192909252600160581b9092046001600160a01b0390811660608301526001830154166080820152600282015460a082015260039091015460c0820152819081906121d790856121d15760001961409b565b8561409b565b9250925092505b9250925092565b60006121f183836143bf565b159392505050565b606061220482612f2b565b600061220e61443a565b9050600081511161222e5760405180602001604052806000815250612259565b8061223884614449565b604051602001612249929190615ba5565b6040516020818303038152906040525b9392505050565b600080600080612270600b612c31565b9050336001600160a01b038216146122a6576040516313d2c13360e21b81526001600160a01b03821660048201526024016109a4565b600086815260116020526040902054600160501b900460ff166122dc5760405163ba329a9b60e01b815260040160405180910390fd5b600086815260116020908152604091829020825160e081018452815467ffffffffffffffff81168252600160401b810461ffff1693820193909352600160501b830460ff16151593810193909352600160581b9091046001600160a01b0390811660608401526001820154166080830152600281015460a08301526003015460c082015261237781876123715760001961409b565b8761409b565b9196509450925060008590036123b9576040517f6992224600000000000000000000000000000000000000000000000000000000815260040160405180910390fd5b60006123c36144e9565b905060006123dd83602001518361ffff9081169116101590565b6123e85760006123ff565b60208301516123fb9061ffff16836144f4565b6001015b60a084018051899003905260c0840180518890039081905261ffff9190911691506000036124405761243661ffff831660016144f4565b61ffff1660208401525b61246289846060015185608001518660a001518760c001518860200151613441565b60a083015160008a8152601160209081526040909120600281019290925560c08501516003830155840151815461ffff909116600160401b0269ffff00000000000000001990911617905560608301516124c6906001600160a01b03168689612c7e565b5060608301516013546124e4919087906001600160a01b0316612d8d565b6124fd83608001516001600160a01b0316876000612c7e565b5080156126da57600061250f8a611564565b905060008267ffffffffffffffff81111561252c5761252c615767565b60405190808252806020026020018201604052801561258057816020015b604080516080810182526000918101828152606082018390528152602081019190915281526020019060019003908161254a5790505b50905060005b838110156126225760808601516125fd906125a561ffff881684614500565b8b604080516080810182526000918101828152606082018390528152602081019190915250604080516080810182526001600160a01b039490941690840190815261ffff929092166060840152908252602082015290565b82828151811061260f5761260f615a26565b6020908102919091010152600101612586565b506001600160a01b0382163b156126bd5760005b838110156126b75781818151811061265057612650615a26565b602002602001015160200151600f6000856001600160a01b03166001600160a01b03168152602001908152602001600020600061269885858151811061145257611452615a26565b8152602081019190915260400160002080549091019055600101612636565b506126d7565b6126d78282604051806020016040528060008152506139fd565b50505b60c08301511580156126ee575060a0830151155b156126fc576126fc89613f7d565b604080518881526020810188905290810186905233908a907fe5fa9a508c78f7cf1e7d0fb90c4b5aae238aa0e336c5ca713d86f74d008b397f9060600160405180910390a3887f06295696f366b196b32a016b5eab796626cd05c4de0456c9f590f0cae9979faf8460a001518560c00151866020015160405161279693929190928352602083019190915261ffff16604082015260600190565b60405180910390a2505050509250925092565b60006127b5600b612c31565b9050336001600160a01b038216146127eb576040516313d2c13360e21b81526001600160a01b03821660048201526024016109a4565b6040517f84a3d8240000000000000000000000000000000000000000000000000000000081526001600160a01b037f000000000000000000000000000000000000000000000000000000000000000016906384a3d8249061285490339087908790600401615bd4565b600060405180830381600087803b15801561286e57600080fd5b505af1158015612882573d6000803e3d6000fd5b5050505060005b828110156109ce576128cc6128a985858481811061162e5761162e615a26565b60008686858181106128bd576128bd615a26565b90506060020160400135612c7e565b50600101612889565b6009805461171e9061599c565b6000806128ef600b612c31565b9050336001600160a01b03821614612925576040516313d2c13360e21b81526001600160a01b03821660048201526024016109a4565b61292f84846143bf565b1561294d57604051630793df6360e21b815260040160405180910390fd5b600a80546001808201909255600081815260116020526040902080547fff0000000000000000000000000000000000000000ffffffffffffffffffffff16600160581b6001600160a01b0389811691909102919091178255920180546001600160a01b0319169286169290921790915591506129c9338361450c565b5092915050565b6129d8612ed1565b601380546001600160a01b0319166001600160a01b0383169081179091556040517fcb7ef3e545f5cdb893f5c568ba710fe08f336375a2d9fd66e161033f8fc09ef390600090a250565b612a2a612ed1565b600e80546001600160a01b0383166001600160a01b03199091168117909155612a5b600d546001600160a01b031690565b6001600160a01b03167f38d16b8cac22d99fc7c124b9cd0de2d3fa1faef420bfe791d8c362d765e2270060405160405180910390a350565b60008367ffffffffffffffff811115612aae57612aae615767565b604051908082528060200260200182016040528015612b0257816020015b6040805160808101825260009181018281526060820183905281526020810191909152815260200190600190039081612acc5790505b50905060005b84811015612be8576000612b4e878784818110612b2757612b27615a26565b905060400201803603810190612b3d9190615c4d565b6020810151905160a09190911b0190565b90506040518060400160405280888885818110612b6d57612b6d615a26565b905060400201803603810190612b839190615c4d565b8152336000908152600f602090815260408083208684528252909120549101528351849084908110612bb757612bb7615a26565b602090810291909101810191909152336000908152600f825260408082209382529290915290812055600101612b08565b50612c2a338285858080601f0160208091040260200160405190810160405280939291908181526020018383808284376000920191909152506139fd92505050565b5050505050565b8054600090610a1290612c4f906001906001600160801b0316615c69565b6001600160801b03167f760a9a962ae3d184e99c0483cf5684fb3170f47116ca4f445c50209da4f4f906015490565b6000818303612c8f57506000612259565b6000612c9b600b612c31565b6001600160a01b0381166000908152600c6020908152604080832089845290915290205490915083851115612cdc57612cd584860361455d565b9250612ced565b612ce785850361455d565b60000392505b6000612cf98483615c89565b905080600003612d2f57600b80546000196001600160801b03600160801b80840482169290920181169091029116179055612d5e565b81600003612d5e57600b805460016001600160801b03600160801b808404821692909201811690910291161790555b6001600160a01b03929092166000908152600c6020908152604080832098835297905295909520559392505050565b6040517f69328dec0000000000000000000000000000000000000000000000000000000081526001600160a01b0384811660048301526024820184905282811660448301527f000000000000000000000000000000000000000000000000000000000000000016906369328dec906064015b600060405180830381600087803b158015612e1957600080fd5b505af1158015612e2d573d6000803e3d6000fd5b50505050505050565b60006001600160e01b031982167f80ac58cd000000000000000000000000000000000000000000000000000000001480612e9957506001600160e01b031982167f5b5e139f00000000000000000000000000000000000000000000000000000000145b80610a1257507f01ffc9a7000000000000000000000000000000000000000000000000000000006001600160e01b0319831614610a12565b600d546001600160a01b0316331461184b5760405162461bcd60e51b815260206004820181905260248201527f4f776e61626c653a2063616c6c6572206973206e6f7420746865206f776e657260448201526064016109a4565b6000818152600260205260409020546001600160a01b03166118d85760405162461bcd60e51b815260206004820152601860248201527f4552433732313a20696e76616c696420746f6b656e204944000000000000000060448201526064016109a4565b600081815260046020526040902080546001600160a01b0319166001600160a01b0384169081179091558190612fc482611564565b6001600160a01b03167f8c5be1e5ebec7d5bd14f71427d1e84f3dd0314c0f7b2291e5b200ac8c7c3b92560405160405180910390a45050565b60008061300983611564565b9050806001600160a01b0316846001600160a01b0316148061305057506001600160a01b0380821660009081526005602090815260408083209388168352929052205460ff165b806130745750836001600160a01b031661306984610e93565b6001600160a01b0316145b949350505050565b826001600160a01b031661308f82611564565b6001600160a01b0316146130f35760405162461bcd60e51b815260206004820152602560248201527f4552433732313a207472616e736665722066726f6d20696e636f72726563742060448201526437bbb732b960d91b60648201526084016109a4565b6001600160a01b03821661316e5760405162461bcd60e51b8152602060048201526024808201527f4552433732313a207472616e7366657220746f20746865207a65726f2061646460448201527f726573730000000000000000000000000000000000000000000000000000000060648201526084016109a4565b826001600160a01b031661318182611564565b6001600160a01b0316146131e55760405162461bcd60e51b815260206004820152602560248201527f4552433732313a207472616e736665722066726f6d20696e636f72726563742060448201526437bbb732b960d91b60648201526084016109a4565b600081815260046020908152604080832080546001600160a01b03199081169091556001600160a01b0387811680865260038552838620805460001901905590871680865283862080546001019055868652600290945282852080549092168417909155905184937fddf252ad1be2c89b69c2b068fc378daa952ba7f163c4a11628f55a4df523b3ef91a4505050565b604080516001600160a01b0385811660248301528416604482015260648082018490528251808303909101815260849091019091526020810180517bffffffffffffffffffffffffffffffffffffffffffffffffffffffff167f23b872dd000000000000000000000000000000000000000000000000000000001790526109ce9085906145f9565b6000306001600160a01b037f00000000000000000000000000000000000000000000000000000000000000001614801561335657507f000000000000000000000000000000000000000000000000000000000000000046145b1561338057507f000000000000000000000000000000000000000000000000000000000000000090565b6111fe604080517f8b73c3c69bb8fe3d512ecc4cf759cc79239f7b179b0ffacaa9a75d522b39400f60208201527f0000000000000000000000000000000000000000000000000000000000000000918101919091527f000000000000000000000000000000000000000000000000000000000000000060608201524660808201523060a082015260009060c00160405160208183030381529060405280519060200120905090565b60006111fe60016134376144e9565b61ffff16906144f4565b60006012600061349688886040516bffffffffffffffffffffffff19606084811b8216602084015283901b16603482015260009060480160405160208183030381529060405280519060200120905092915050565b81526020810191909152604001600020546001600160a01b031690508015612e2d576040517f3640913000000000000000000000000000000000000000000000000000000000815260048101889052602481018590526044810184905261ffff831660648201526001600160a01b03821690633640913090608401600060405180830381600087803b15801561352b57600080fd5b505af115801561353f573d6000803e3d6000fd5b5050505050505050505050565b60608082606001516001600160a01b031684606001516001600160a01b0316148015613591575082608001516001600160a01b031684608001516001600160a01b0316145b80156135ac57508251845167ffffffffffffffff9081169116145b6135e2576040517f84991e9500000000000000000000000000000000000000000000000000000000815260040160405180910390fd5b60006135ec613428565b905061360381856020015161ffff90811691161190565b806136195750602085015161ffff908116908216115b15613650576040517f47a5b25b00000000000000000000000000000000000000000000000000000000815260040160405180910390fd5b60208501516000906136669061ffff16836144f4565b61ffff169050600061368983876020015161ffff166144f490919063ffffffff16565b61ffff169050600061369b83836146e1565b90508760c001518760c0015111156136b75780830392506136dc565b8760c001518760c0015110156136d15780820391506136dc565b808203915080830392505b508167ffffffffffffffff8111156136f6576136f6615767565b60405190808252806020026020018201604052801561374a57816020015b60408051608081018252600091810182815260608201839052815260208101919091528152602001906001900390816137145790505b5094508067ffffffffffffffff81111561376657613766615767565b6040519080825280602002602001820160405280156137ba57816020015b60408051608081018252600091810182815260608201839052815260208101919091528152602001906001900390816137845790505b509350600091506000905060006137ea846134378a602001518a6020015161ffff166146f790919063ffffffff16565b61ffff1690508360005b828110156139755761380b61ffff83166001614500565b915060006138248a602001518461ffff90811691161090565b613832578960c00151613835565b60005b9050600061384e8c602001518561ffff90811691161090565b61385c578b60c0015161385f565b60005b9050808211156138e8576080808d015160408051808401825260008183018181526060808401839052908352602092830191909152825194850183526001600160a01b0390931691840191825261ffff881692840192909252825282840390820152895160018801978b9181106138d8576138d8615a26565b602002602001018190525061396b565b8082101561396b576080808d015160408051808401825260008183018181526060808401839052908352602092830191909152825194850183526001600160a01b0390931691840191825261ffff8816928401929092528252838303908201528a5160018901988c91811061395f5761395f615a26565b60200260200101819052505b50506001016137f4565b5050505050509250929050565b80516020810151905160009160a01b01610a12565b600081815260116020526040902054600160501b900460ff166139b75750565b600090815260116020526040902080546aff0000000000000000000019169055600b8054600160801b8082046001600160801b0390811660010181169091029116179055565b6040517fb546ac4f0000000000000000000000000000000000000000000000000000000081526001600160a01b037f0000000000000000000000000000000000000000000000000000000000000000169063b546ac4f90612dff90869086908690600401615cb1565b600e80546001600160a01b03191690556118d88161470d565b6000818152601160205260408120613a969061475f565b67ffffffffffffffff1692915050565b6000610a12613ab36132fd565b836040517f19010000000000000000000000000000000000000000000000000000000000008152600281019290925260228201526042902090565b6000806000613aff878787876147a6565b91509150613b0c8161486a565b5095945050505050565b606060ff8314613b3057613b29836149cf565b9050610a12565b818054613b3c9061599c565b80601f0160208091040260200160405190810160405280929190818152602001828054613b689061599c565b8015613bb55780601f10613b8a57610100808354040283529160200191613bb5565b820191906000526020600020905b815481529060010190602001808311613b9857829003601f168201915b50505050509050610a12565b816001600160a01b0316836001600160a01b031603613c225760405162461bcd60e51b815260206004820152601960248201527f4552433732313a20617070726f766520746f2063616c6c65720000000000000060448201526064016109a4565b6001600160a01b03838116600081815260056020908152604080832094871680845294825291829020805460ff191686151590811790915591519182527f17307eab39ab6107e8899845ad3d59bd9653f200f220920489ca2b5937696c31910160405180910390a3505050565b600081815260116020526040902054600160501b900460ff1615613cb05750565b600081815260116020526040902080546aff000000000000000000001916600160501b17905550600b80546000196001600160801b03600160801b80840482169290920181169091029116179055565b8051602080830151604080516003808252608082019092526000948594859463ffffffff928316949216928592909182016060803683370190505090508881600081518110613d5157613d51615a26565b60200260200101906001600160a01b031690816001600160a01b0316815250508781600181518110613d8557613d85615a26565b60200260200101906001600160a01b031690816001600160a01b031681525050600081600281518110613dba57613dba615a26565b6001600160a01b0392831660209182029290920101526040517f9d23d9f20000000000000000000000000000000000000000000000000000000081526000917f00000000000000000000000000000000000000000000000000000000000000001690639d23d9f290613e30908590600401615cef565b600060405180830381865afa158015613e4d573d6000803e3d6000fd5b505050506040513d6000823e601f3d908101601f19168201604052613e759190810190615d3c565b905080600281518110613e8a57613e8a615a26565b60200260200101517f000000000000000000000000000000000000000000000000000000000000000002945080600081518110613ec957613ec9615a26565b6020026020010151965080600181518110613ee657613ee6615a26565b602002602001015195506012831115613f095760128303600a0a85029450613f22565b82601203600a0a8581613f1e57613f1e615dd6565b0494505b80600181518110613f3557613f35615a26565b60200260200101518581613f4b57613f4b615dd6565b04945083831115613f6557838303600a0a87029650613f70565b828403600a0a860295505b5050505093509350939050565b6000613f8882611564565b9050613f9382611564565b600083815260046020908152604080832080546001600160a01b03199081169091556001600160a01b0385168085526003845282852080546000190190558785526002909352818420805490911690555192935084927fddf252ad1be2c89b69c2b068fc378daa952ba7f163c4a11628f55a4df523b3ef908390a45050565b61401d84848461307c565b61402984848484614a0e565b6109ce5760405162461bcd60e51b815260206004820152603260248201527f4552433732313a207472616e7366657220746f206e6f6e20455243373231526560448201527f63656976657220696d706c656d656e746572000000000000000000000000000060648201526084016109a4565b600080600080601060006140fc886060015189608001516040516bffffffffffffffffffffffff19606084811b8216602084015283901b16603482015260009060480160405160208183030381529060405280519060200120905092915050565b815260208082019290925260409081016000908120825160c081018452905463ffffffff80821683526401000000008204811695830195909552600160401b8104851693820193909352600160601b83048416606080830191909152600160801b84048516608080840191909152600160a01b90940490941660a082015292890151918901519293509182918291614195919086613d00565b925092509250426141ad8a6020015161ffff16614b62565b1015614238578860c0015188106141ca578860c00151955061420f565b8860c00151818901111561420b57808960c0015110156141fd57604051633be901a360e21b815260040160405180910390fd5b808960c0015103955061420f565b8795505b614231620f424083880202856060015163ffffffff16620f4240038502614b6d565b965061437f565b60a089015160c08a0151604086015191850291908402620f4240029063ffffffff16820281116142785760008060009850985098505050505050506121de565b6142ad8660a0015163ffffffff16830282038760a0015163ffffffff16886060015163ffffffff16620f424003038702614b6d565b9850620f424084876060015163ffffffff16620f424003878c0202816142d5576142d5615dd6565b04816142e3576142e3615dd6565b60c08d0151919004985083811161431a57808b101561431557604051633be901a360e21b815260040160405180910390fd5b61434c565b88840181101561433f57808b1015614315576143388b8583036146e1565b905061434c565b6143498b8a6146e1565b90505b88811461437b57614375620f424086830202886060015163ffffffff16620f4240038802614b6d565b99508098505b5050505b8860a00151871115614393578860a0015196505b620f4240846080015163ffffffff168802816143b1576143b1615dd6565b049450505050509250925092565b60006010600061441485856040516bffffffffffffffffffffffff19606084811b8216602084015283901b16603482015260009060480160405160208183030381529060405280519060200120905092915050565b8152602081019190915260400160002054600160401b900463ffffffff16159392505050565b606060088054610a279061599c565b6060600061445683614ba4565b600101905060008167ffffffffffffffff81111561447657614476615767565b6040519080825280601f01601f1916602001820160405280156144a0576020820181803683370190505b5090508181016020015b600019017f3031323334353637383961626364656600000000000000000000000000000000600a86061a8153600a85049450846144aa57509392505050565b60006111fe42614c86565b60006122598284615dec565b60006122598284615e07565b6145168282614d74565b600090815260116020526040902080546aff000000000000000000001916905550600b8054600160801b8082046001600160801b0390811660010181169091029116179055565b60007f7fffffffffffffffffffffffffffffffffffffffffffffffffffffffffffffff8211156145f55760405162461bcd60e51b815260206004820152602860248201527f53616665436173743a2076616c756520646f65736e27742066697420696e206160448201527f6e20696e7432353600000000000000000000000000000000000000000000000060648201526084016109a4565b5090565b600061464e826040518060400160405280602081526020017f5361666545524332303a206c6f772d6c6576656c2063616c6c206661696c6564815250856001600160a01b0316614eff9092919063ffffffff16565b905080516000148061466f57508080602001905181019061466f9190615e22565b610fe65760405162461bcd60e51b815260206004820152602a60248201527f5361666545524332303a204552433230206f7065726174696f6e20646964206e60448201527f6f7420737563636565640000000000000000000000000000000000000000000060648201526084016109a4565b60008183106146f05781612259565b5090919050565b600061ffff808316908416116146f05781612259565b600d80546001600160a01b038381166001600160a01b0319831681179093556040519116919082907f8be0079c531659141344cd1fd0a4f28419497f9722a3daafe3b4186f6b6457e090600090a35050565b805460009067ffffffffffffffff16828261477983615e3f565b91906101000a81548167ffffffffffffffff021916908367ffffffffffffffff1602179055509050919050565b6000807f7fffffffffffffffffffffffffffffff5d576e7357a4501ddfe92f46681b20a08311156147dd5750600090506003614861565b6040805160008082526020820180845289905260ff881692820192909252606081018690526080810185905260019060a0016020604051602081039080840390855afa158015614831573d6000803e3d6000fd5b5050604051601f1901519150506001600160a01b03811661485a57600060019250925050614861565b9150600090505b94509492505050565b600081600481111561487e5761487e615e66565b036148865750565b600181600481111561489a5761489a615e66565b036148e75760405162461bcd60e51b815260206004820152601860248201527f45434453413a20696e76616c6964207369676e6174757265000000000000000060448201526064016109a4565b60028160048111156148fb576148fb615e66565b036149485760405162461bcd60e51b815260206004820152601f60248201527f45434453413a20696e76616c6964207369676e6174757265206c656e6774680060448201526064016109a4565b600381600481111561495c5761495c615e66565b036118d85760405162461bcd60e51b815260206004820152602260248201527f45434453413a20696e76616c6964207369676e6174757265202773272076616c60448201527f756500000000000000000000000000000000000000000000000000000000000060648201526084016109a4565b606060006149dc83614f0e565b604080516020808252818301909252919250600091906020820181803683375050509182525060208101929092525090565b60006001600160a01b0384163b15614b5a57604051630a85bd0160e11b81526001600160a01b0385169063150b7a0290614a52903390899088908890600401615e7c565b6020604051808303816000875af1925050508015614a8d575060408051601f3d908101601f19168201909252614a8a91810190615acb565b60015b614b40573d808015614abb576040519150601f19603f3d011682016040523d82523d6000602084013e614ac0565b606091505b508051600003614b385760405162461bcd60e51b815260206004820152603260248201527f4552433732313a207472616e7366657220746f206e6f6e20455243373231526560448201527f63656976657220696d706c656d656e746572000000000000000000000000000060648201526084016109a4565b805181602001fd5b6001600160e01b031916630a85bd0160e11b149050613074565b506001613074565b6000610a1282614f4f565b60008215614b9b5781614b81600185615eae565b614b8b9190615ec1565b614b96906001615ee3565b612259565b50600092915050565b6000807a184f03e93ff9f4daa797ed6e38ed64bf6a1f0100000000000000008310614bed577a184f03e93ff9f4daa797ed6e38ed64bf6a1f010000000000000000830492506040015b6d04ee2d6d415b85acef81000000008310614c19576d04ee2d6d415b85acef8100000000830492506020015b662386f26fc100008310614c3757662386f26fc10000830492506010015b6305f5e1008310614c4f576305f5e100830492506008015b6127108310614c6357612710830492506004015b60648310614c75576064830492506002015b600a8310610a125760010192915050565b600080620151808304905080622649658101600062023ab1600483020590506004600362023ab18302010590910390600062164b09610fa0600185010205905060046105b58202058303601f019250600061098f8460500281614ceb57614ceb615dd6565b059050600b8105935083600c0281600201039050838260318503606402010191506000600180836107b28603600c02010381614d2957614d29615dd6565b04905061ffff811115614d68576040517f73cde75100000000000000000000000000000000000000000000000000000000815260040160405180910390fd5b98975050505050505050565b6001600160a01b038216614dca5760405162461bcd60e51b815260206004820181905260248201527f4552433732313a206d696e7420746f20746865207a65726f206164647265737360448201526064016109a4565b6000818152600260205260409020546001600160a01b031615614e2f5760405162461bcd60e51b815260206004820152601c60248201527f4552433732313a20746f6b656e20616c7265616479206d696e7465640000000060448201526064016109a4565b6000818152600260205260409020546001600160a01b031615614e945760405162461bcd60e51b815260206004820152601c60248201527f4552433732313a20746f6b656e20616c7265616479206d696e7465640000000060448201526064016109a4565b6001600160a01b038216600081815260036020908152604080832080546001019055848352600290915280822080546001600160a01b0319168417905551839291907fddf252ad1be2c89b69c2b068fc378daa952ba7f163c4a11628f55a4df523b3ef908290a45050565b60606130748484600085615023565b600060ff8216601f811115610a12576040517fb3512b0c00000000000000000000000000000000000000000000000000000000815260040160405180910390fd5b6000600161ffff83160181600c82046107b20190506004600c8381614f7657614f76615dd6565b06901b915060048106158015614f8e57506064810615155b80614f9b57506101908106155b15614fc45779016e014f0131011200f400d500b600980079005b003c001f000090911c90614fe4565b79016d014e0130011100f300d400b500970078005a003b001f000090911c905b60016201518061019061064019840104606461076c1985010460046107b0198601046107b2860361016d028761ffff1601010301020392505050919050565b60608247101561509b5760405162461bcd60e51b815260206004820152602660248201527f416464726573733a20696e73756666696369656e742062616c616e636520666f60448201527f722063616c6c000000000000000000000000000000000000000000000000000060648201526084016109a4565b600080866001600160a01b031685876040516150b79190615ef6565b60006040518083038185875af1925050503d80600081146150f4576040519150601f19603f3d011682016040523d82523d6000602084013e6150f9565b606091505b509150915061510a87838387615115565b979650505050505050565b6060831561518457825160000361517d576001600160a01b0385163b61517d5760405162461bcd60e51b815260206004820152601d60248201527f416464726573733a2063616c6c20746f206e6f6e2d636f6e747261637400000060448201526064016109a4565b5081613074565b61307483838151156151995781518083602001fd5b8060405162461bcd60e51b81526004016109a4919061528e565b80356001600160a01b03811681146151ca57600080fd5b919050565b6000806000606084860312156151e457600080fd5b6151ed846151b3565b92506151fb602085016151b3565b9150604084013590509250925092565b6001600160e01b0319811681146118d857600080fd5b60006020828403121561523357600080fd5b81356122598161520b565b60005b83811015615259578181015183820152602001615241565b50506000910152565b6000815180845261527a81602086016020860161523e565b601f01601f19169290920160200192915050565b6020815260006122596020830184615262565b803563ffffffff811681146151ca57600080fd5b600080600080600080600060e0888a0312156152d057600080fd5b6152d9886151b3565b96506152e7602089016151b3565b95506152f5604089016152a1565b9450615303606089016152a1565b9350615311608089016152a1565b925061531f60a089016152a1565b915061532d60c089016151b3565b905092959891949750929550565b60006020828403121561534d57600080fd5b5035919050565b6000806040838503121561536757600080fd5b615370836151b3565b946020939093013593505050565b6000806040838503121561539157600080fd5b61539a836151b3565b91506153a8602084016151b3565b90509250929050565b803561ffff811681146151ca57600080fd5b600080600080608085870312156153d957600080fd5b8435935060208501359250604085013591506153f7606086016153b1565b905092959194509250565b600081518084526020808501945080840160005b83811015615454578151805180516001600160a01b0316895284015161ffff1684890152830151604088015260609096019590820190600101615416565b509495945050505050565b6080815260006154726080830187615402565b82810360208401526154848187615402565b604084019590955250506060015292915050565b60008083601f8401126154aa57600080fd5b50813567ffffffffffffffff8111156154c257600080fd5b6020830191508360206060830285010111156154dd57600080fd5b9250929050565b60008083601f8401126154f657600080fd5b50813567ffffffffffffffff81111561550e57600080fd5b6020830191508360208285010111156154dd57600080fd5b60008060008060006060868803121561553e57600080fd5b853567ffffffffffffffff8082111561555657600080fd5b61556289838a01615498565b9097509550859150615576602089016151b3565b9450604088013591508082111561558c57600080fd5b50615599888289016154e4565b969995985093965092949392505050565b6000602082840312156155bc57600080fd5b612259826151b3565b60ff811681146118d857600080fd5b60008060008060008060c087890312156155ed57600080fd5b6155f6876151b3565b955060208701359450604087013593506060870135615614816155c5565b9598949750929560808101359460a0909101359350915050565b6000806020838503121561564157600080fd5b823567ffffffffffffffff81111561565857600080fd5b615664858286016154e4565b90969095509350505050565b7fff00000000000000000000000000000000000000000000000000000000000000881681526000602060e0818401526156ac60e084018a615262565b83810360408501526156be818a615262565b606085018990526001600160a01b038816608086015260a0850187905284810360c0860152855180825283870192509083019060005b81811015615710578351835292840192918401916001016156f4565b50909c9b505050505050505050505050565b80151581146118d857600080fd5b6000806040838503121561574357600080fd5b61574c836151b3565b9150602083013561575c81615722565b809150509250929050565b634e487b7160e01b600052604160045260246000fd5b6040805190810167ffffffffffffffff811182821017156157a0576157a0615767565b60405290565b604051601f8201601f1916810167ffffffffffffffff811182821017156157cf576157cf615767565b604052919050565b600067ffffffffffffffff8211156157f1576157f1615767565b50601f01601f191660200190565b6000806000806080858703121561581557600080fd5b61581e856151b3565b935061582c602086016151b3565b925060408501359150606085013567ffffffffffffffff81111561584f57600080fd5b8501601f8101871361586057600080fd5b803561587361586e826157d7565b6157a6565b81815288602083850101111561588857600080fd5b8160208401602083013760006020838301015280935050505092959194509250565b600080604083850312156158bd57600080fd5b50508035926020909101359150565b600080602083850312156158df57600080fd5b823567ffffffffffffffff8111156158f657600080fd5b61566485828601615498565b6000806000806040858703121561591857600080fd5b843567ffffffffffffffff8082111561593057600080fd5b818701915087601f83011261594457600080fd5b81358181111561595357600080fd5b8860208260061b850101111561596857600080fd5b60209283019650945090860135908082111561598357600080fd5b50615990878288016154e4565b95989497509550505050565b600181811c908216806159b057607f821691505b6020821081036159d057634e487b7160e01b600052602260045260246000fd5b50919050565b634e487b7160e01b600052601160045260246000fd5b63ffffffff8181168382160190808211156129c9576129c96159d6565b600060208284031215615a1b57600080fd5b8151612259816155c5565b634e487b7160e01b600052603260045260246000fd5b600060408284031215615a4e57600080fd5b615a5661577d565b9050615a61826151b3565b8152615a6f602083016153b1565b602082015292915050565b600060608284031215615a8c57600080fd5b615a9461577d565b615a9e8484615a3c565b815260409290920135602083015250919050565b8281526040602082015260006130746040830184615262565b600060208284031215615add57600080fd5b81516122598161520b565b60208152816020820152818360408301376000818301604090810191909152601f909201601f19160101919050565b600060208284031215615b2957600080fd5b815167ffffffffffffffff811115615b4057600080fd5b8201601f81018413615b5157600080fd5b8051615b5f61586e826157d7565b818152856020838501011115615b7457600080fd5b615b8582602083016020860161523e565b95945050505050565b8082028115828204841417610a1257610a126159d6565b60008351615bb781846020880161523e565b835190830190615bcb81836020880161523e565b01949350505050565b6001600160a01b0384811682526040602080840182905283820185905260009260609182860188865b89811015615c3d5784615c0f836151b3565b16835261ffff615c208584016153b1565b168385015281870135878401529185019190850190600101615bfd565b50909a9950505050505050505050565b600060408284031215615c5f57600080fd5b6122598383615a3c565b6001600160801b038281168282160390808211156129c9576129c96159d6565b8082018281126000831280158216821582161715615ca957615ca96159d6565b505092915050565b6001600160a01b0384168152606060208201526000615cd36060830185615402565b8281036040840152615ce58185615262565b9695505050505050565b6020808252825182820181905260009190848201906040850190845b81811015615d305783516001600160a01b031683529284019291840191600101615d0b565b50909695505050505050565b60006020808385031215615d4f57600080fd5b825167ffffffffffffffff80821115615d6757600080fd5b818501915085601f830112615d7b57600080fd5b815181811115615d8d57615d8d615767565b8060051b9150615d9e8483016157a6565b8181529183018401918481019088841115615db857600080fd5b938501935b83851015614d6857845182529385019390850190615dbd565b634e487b7160e01b600052601260045260246000fd5b61ffff8281168282160390808211156129c9576129c96159d6565b61ffff8181168382160190808211156129c9576129c96159d6565b600060208284031215615e3457600080fd5b815161225981615722565b600067ffffffffffffffff808316818103615e5c57615e5c6159d6565b6001019392505050565b634e487b7160e01b600052602160045260246000fd5b60006001600160a01b03808716835280861660208401525083604083015260806060830152615ce56080830184615262565b81810381811115610a1257610a126159d6565b600082615ede57634e487b7160e01b600052601260045260246000fd5b500490565b80820180821115610a1257610a126159d6565b60008251615f0881846020870161523e565b919091019291505056fea264697066735822122012a12f6eaf2d8c856f130104e9d9135f1824a9532a7871ef771e920b1d4d9f5f64736f6c63430008130033",
  "devdoc": {
    "events": {
      "Approval(address,address,uint256)": {
        "details": "Emitted when `owner` enables `approved` to manage the `tokenId` token."
      },
      "ApprovalForAll(address,address,bool)": {
        "details": "Emitted when `owner` enables or disables (`approved`) `operator` to manage all of its assets."
      },
      "EIP712DomainChanged()": {
        "details": "MAY be emitted to signal that the domain could have changed."
      },
      "Transfer(address,address,uint256)": {
        "details": "Emitted when `tokenId` token is transferred from `from` to `to`."
      }
    },
    "kind": "dev",
    "methods": {
      "acceptOwnership()": {
        "details": "The new owner accepts the ownership transfer."
      },
      "approve(address,uint256)": {
        "details": "See {IERC721-approve}."
      },
      "balanceOf(address)": {
        "details": "See {IERC721-balanceOf}."
      },
      "eip712Domain()": {
        "details": "See {EIP-5267}. _Available since v4.9._"
      },
      "getApproved(uint256)": {
        "details": "See {IERC721-getApproved}."
      },
      "isApprovedForAll(address,address)": {
        "details": "See {IERC721-isApprovedForAll}."
      },
      "name()": {
        "details": "See {IERC721Metadata-name}."
      },
      "owner()": {
        "details": "Returns the address of the current owner."
      },
      "ownerOf(uint256)": {
        "details": "See {IERC721-ownerOf}."
      },
      "pendingOwner()": {
        "details": "Returns the address of the pending owner."
      },
      "renounceOwnership()": {
        "details": "Leaves the contract without owner. It will not be possible to call `onlyOwner` functions. Can only be called by the current owner. NOTE: Renouncing ownership will leave the contract without an owner, thereby disabling any functionality that is only available to the owner."
      },
      "safeTransferFrom(address,address,uint256)": {
        "details": "See {IERC721-safeTransferFrom}."
      },
      "safeTransferFrom(address,address,uint256,bytes)": {
        "details": "See {IERC721-safeTransferFrom}."
      },
      "setApprovalForAll(address,bool)": {
        "details": "See {IERC721-setApprovalForAll}."
      },
      "symbol()": {
        "details": "See {IERC721Metadata-symbol}."
      },
      "tokenURI(uint256)": {
        "details": "See {IERC721Metadata-tokenURI}."
      },
      "transferFrom(address,address,uint256)": {
        "details": "See {IERC721-transferFrom}."
      },
      "transferOwnership(address)": {
        "details": "Starts the ownership transfer of the contract to a new account. Replaces the pending transfer if there is one. Can only be called by the current owner."
      }
    },
    "version": 1
  },
  "userdoc": {
    "kind": "user",
    "methods": {},
    "version": 1
  },
  "storageLayout": {
    "storage": [
      {
        "astId": 912,
        "contract": "contracts/LoanPositionManager.sol:LoanPositionManager",
        "label": "_name",
        "offset": 0,
        "slot": "0",
        "type": "t_string_storage"
      },
      {
        "astId": 914,
        "contract": "contracts/LoanPositionManager.sol:LoanPositionManager",
        "label": "_symbol",
        "offset": 0,
        "slot": "1",
        "type": "t_string_storage"
      },
      {
        "astId": 918,
        "contract": "contracts/LoanPositionManager.sol:LoanPositionManager",
        "label": "_owners",
        "offset": 0,
        "slot": "2",
        "type": "t_mapping(t_uint256,t_address)"
      },
      {
        "astId": 922,
        "contract": "contracts/LoanPositionManager.sol:LoanPositionManager",
        "label": "_balances",
        "offset": 0,
        "slot": "3",
        "type": "t_mapping(t_address,t_uint256)"
      },
      {
        "astId": 926,
        "contract": "contracts/LoanPositionManager.sol:LoanPositionManager",
        "label": "_tokenApprovals",
        "offset": 0,
        "slot": "4",
        "type": "t_mapping(t_uint256,t_address)"
      },
      {
        "astId": 932,
        "contract": "contracts/LoanPositionManager.sol:LoanPositionManager",
        "label": "_operatorApprovals",
        "offset": 0,
        "slot": "5",
        "type": "t_mapping(t_address,t_mapping(t_address,t_bool))"
      },
      {
        "astId": 3280,
        "contract": "contracts/LoanPositionManager.sol:LoanPositionManager",
        "label": "_nameFallback",
        "offset": 0,
        "slot": "6",
        "type": "t_string_storage"
      },
      {
        "astId": 3282,
        "contract": "contracts/LoanPositionManager.sol:LoanPositionManager",
        "label": "_versionFallback",
        "offset": 0,
        "slot": "7",
        "type": "t_string_storage"
      },
      {
        "astId": 9602,
        "contract": "contracts/LoanPositionManager.sol:LoanPositionManager",
        "label": "baseURI",
        "offset": 0,
        "slot": "8",
        "type": "t_string_storage"
      },
      {
        "astId": 9605,
        "contract": "contracts/LoanPositionManager.sol:LoanPositionManager",
        "label": "contractURI",
        "offset": 0,
        "slot": "9",
        "type": "t_string_storage"
      },
      {
        "astId": 9609,
        "contract": "contracts/LoanPositionManager.sol:LoanPositionManager",
        "label": "nextId",
        "offset": 0,
        "slot": "10",
        "type": "t_uint256"
      },
      {
        "astId": 9612,
        "contract": "contracts/LoanPositionManager.sol:LoanPositionManager",
        "label": "_lockData",
        "offset": 0,
        "slot": "11",
        "type": "t_struct(LockData)9467_storage"
      },
      {
        "astId": 9619,
        "contract": "contracts/LoanPositionManager.sol:LoanPositionManager",
        "label": "assetDelta",
        "offset": 0,
        "slot": "12",
        "type": "t_mapping(t_address,t_mapping(t_uint256,t_int256))"
      },
      {
        "astId": 7,
        "contract": "contracts/LoanPositionManager.sol:LoanPositionManager",
        "label": "_owner",
        "offset": 0,
        "slot": "13",
        "type": "t_address"
      },
      {
        "astId": 120,
        "contract": "contracts/LoanPositionManager.sol:LoanPositionManager",
        "label": "_pendingOwner",
        "offset": 0,
        "slot": "14",
        "type": "t_address"
      },
      {
        "astId": 6072,
        "contract": "contracts/LoanPositionManager.sol:LoanPositionManager",
        "label": "_couponOwed",
        "offset": 0,
        "slot": "15",
        "type": "t_mapping(t_address,t_mapping(t_uint256,t_uint256))"
      },
      {
        "astId": 6077,
        "contract": "contracts/LoanPositionManager.sol:LoanPositionManager",
        "label": "_loanConfiguration",
        "offset": 0,
        "slot": "16",
        "type": "t_mapping(t_bytes32,t_struct(LoanConfiguration)7975_storage)"
      },
      {
        "astId": 6082,
        "contract": "contracts/LoanPositionManager.sol:LoanPositionManager",
        "label": "_positionMap",
        "offset": 0,
        "slot": "17",
        "type": "t_mapping(t_uint256,t_struct(LoanPosition)9191_storage)"
      },
      {
        "astId": 6086,
        "contract": "contracts/LoanPositionManager.sol:LoanPositionManager",
        "label": "_hooks",
        "offset": 0,
        "slot": "18",
        "type": "t_mapping(t_bytes32,t_address)"
      },
      {
        "astId": 6089,
        "contract": "contracts/LoanPositionManager.sol:LoanPositionManager",
        "label": "treasury",
        "offset": 0,
        "slot": "19",
        "type": "t_address"
      }
    ],
    "types": {
      "t_address": {
        "encoding": "inplace",
        "label": "address",
        "numberOfBytes": "20"
      },
      "t_bool": {
        "encoding": "inplace",
        "label": "bool",
        "numberOfBytes": "1"
      },
      "t_bytes32": {
        "encoding": "inplace",
        "label": "bytes32",
        "numberOfBytes": "32"
      },
      "t_int256": {
        "encoding": "inplace",
        "label": "int256",
        "numberOfBytes": "32"
      },
      "t_mapping(t_address,t_bool)": {
        "encoding": "mapping",
        "key": "t_address",
        "label": "mapping(address => bool)",
        "numberOfBytes": "32",
        "value": "t_bool"
      },
      "t_mapping(t_address,t_mapping(t_address,t_bool))": {
        "encoding": "mapping",
        "key": "t_address",
        "label": "mapping(address => mapping(address => bool))",
        "numberOfBytes": "32",
        "value": "t_mapping(t_address,t_bool)"
      },
      "t_mapping(t_address,t_mapping(t_uint256,t_int256))": {
        "encoding": "mapping",
        "key": "t_address",
        "label": "mapping(address => mapping(uint256 => int256))",
        "numberOfBytes": "32",
        "value": "t_mapping(t_uint256,t_int256)"
      },
      "t_mapping(t_address,t_mapping(t_uint256,t_uint256))": {
        "encoding": "mapping",
        "key": "t_address",
        "label": "mapping(address => mapping(uint256 => uint256))",
        "numberOfBytes": "32",
        "value": "t_mapping(t_uint256,t_uint256)"
      },
      "t_mapping(t_address,t_uint256)": {
        "encoding": "mapping",
        "key": "t_address",
        "label": "mapping(address => uint256)",
        "numberOfBytes": "32",
        "value": "t_uint256"
      },
      "t_mapping(t_bytes32,t_address)": {
        "encoding": "mapping",
        "key": "t_bytes32",
        "label": "mapping(bytes32 => address)",
        "numberOfBytes": "32",
        "value": "t_address"
      },
      "t_mapping(t_bytes32,t_struct(LoanConfiguration)7975_storage)": {
        "encoding": "mapping",
        "key": "t_bytes32",
        "label": "mapping(bytes32 => struct ILoanPositionManagerTypes.LoanConfiguration)",
        "numberOfBytes": "32",
        "value": "t_struct(LoanConfiguration)7975_storage"
      },
      "t_mapping(t_uint256,t_address)": {
        "encoding": "mapping",
        "key": "t_uint256",
        "label": "mapping(uint256 => address)",
        "numberOfBytes": "32",
        "value": "t_address"
      },
      "t_mapping(t_uint256,t_int256)": {
        "encoding": "mapping",
        "key": "t_uint256",
        "label": "mapping(uint256 => int256)",
        "numberOfBytes": "32",
        "value": "t_int256"
      },
      "t_mapping(t_uint256,t_struct(LoanPosition)9191_storage)": {
        "encoding": "mapping",
        "key": "t_uint256",
        "label": "mapping(uint256 => struct LoanPosition)",
        "numberOfBytes": "32",
        "value": "t_struct(LoanPosition)9191_storage"
      },
      "t_mapping(t_uint256,t_uint256)": {
        "encoding": "mapping",
        "key": "t_uint256",
        "label": "mapping(uint256 => uint256)",
        "numberOfBytes": "32",
        "value": "t_uint256"
      },
      "t_string_storage": {
        "encoding": "bytes",
        "label": "string",
        "numberOfBytes": "32"
      },
      "t_struct(LoanConfiguration)7975_storage": {
        "encoding": "inplace",
        "label": "struct ILoanPositionManagerTypes.LoanConfiguration",
        "members": [
          {
            "astId": 7964,
            "contract": "contracts/LoanPositionManager.sol:LoanPositionManager",
            "label": "collateralDecimal",
            "offset": 0,
            "slot": "0",
            "type": "t_uint32"
          },
          {
            "astId": 7966,
            "contract": "contracts/LoanPositionManager.sol:LoanPositionManager",
            "label": "debtDecimal",
            "offset": 4,
            "slot": "0",
            "type": "t_uint32"
          },
          {
            "astId": 7968,
            "contract": "contracts/LoanPositionManager.sol:LoanPositionManager",
            "label": "liquidationThreshold",
            "offset": 8,
            "slot": "0",
            "type": "t_uint32"
          },
          {
            "astId": 7970,
            "contract": "contracts/LoanPositionManager.sol:LoanPositionManager",
            "label": "liquidationFee",
            "offset": 12,
            "slot": "0",
            "type": "t_uint32"
          },
          {
            "astId": 7972,
            "contract": "contracts/LoanPositionManager.sol:LoanPositionManager",
            "label": "liquidationProtocolFee",
            "offset": 16,
            "slot": "0",
            "type": "t_uint32"
          },
          {
            "astId": 7974,
            "contract": "contracts/LoanPositionManager.sol:LoanPositionManager",
            "label": "liquidationTargetLtv",
            "offset": 20,
            "slot": "0",
            "type": "t_uint32"
          }
        ],
        "numberOfBytes": "32"
      },
      "t_struct(LoanPosition)9191_storage": {
        "encoding": "inplace",
        "label": "struct LoanPosition",
        "members": [
          {
            "astId": 9177,
            "contract": "contracts/LoanPositionManager.sol:LoanPositionManager",
            "label": "nonce",
            "offset": 0,
            "slot": "0",
            "type": "t_uint64"
          },
          {
            "astId": 9180,
            "contract": "contracts/LoanPositionManager.sol:LoanPositionManager",
            "label": "expiredWith",
            "offset": 8,
            "slot": "0",
            "type": "t_userDefinedValueType(Epoch)8586"
          },
          {
            "astId": 9182,
            "contract": "contracts/LoanPositionManager.sol:LoanPositionManager",
            "label": "isSettled",
            "offset": 10,
            "slot": "0",
            "type": "t_bool"
          },
          {
            "astId": 9184,
            "contract": "contracts/LoanPositionManager.sol:LoanPositionManager",
            "label": "collateralToken",
            "offset": 11,
            "slot": "0",
            "type": "t_address"
          },
          {
            "astId": 9186,
            "contract": "contracts/LoanPositionManager.sol:LoanPositionManager",
            "label": "debtToken",
            "offset": 0,
            "slot": "1",
            "type": "t_address"
          },
          {
            "astId": 9188,
            "contract": "contracts/LoanPositionManager.sol:LoanPositionManager",
            "label": "collateralAmount",
            "offset": 0,
            "slot": "2",
            "type": "t_uint256"
          },
          {
            "astId": 9190,
            "contract": "contracts/LoanPositionManager.sol:LoanPositionManager",
            "label": "debtAmount",
            "offset": 0,
            "slot": "3",
            "type": "t_uint256"
          }
        ],
        "numberOfBytes": "128"
      },
      "t_struct(LockData)9467_storage": {
        "encoding": "inplace",
        "label": "struct LockData",
        "members": [
          {
            "astId": 9463,
            "contract": "contracts/LoanPositionManager.sol:LoanPositionManager",
            "label": "length",
            "offset": 0,
            "slot": "0",
            "type": "t_uint128"
          },
          {
            "astId": 9466,
            "contract": "contracts/LoanPositionManager.sol:LoanPositionManager",
            "label": "nonzeroDeltaCount",
            "offset": 16,
            "slot": "0",
            "type": "t_uint128"
          }
        ],
        "numberOfBytes": "32"
      },
      "t_uint128": {
        "encoding": "inplace",
        "label": "uint128",
        "numberOfBytes": "16"
      },
      "t_uint256": {
        "encoding": "inplace",
        "label": "uint256",
        "numberOfBytes": "32"
      },
      "t_uint32": {
        "encoding": "inplace",
        "label": "uint32",
        "numberOfBytes": "4"
      },
      "t_uint64": {
        "encoding": "inplace",
        "label": "uint64",
        "numberOfBytes": "8"
      },
      "t_userDefinedValueType(Epoch)8586": {
        "encoding": "inplace",
        "label": "Epoch",
        "numberOfBytes": "2"
      }
    }
  }
}