{
  "address": "0x13055e05c713b15911cC2509B3C573478b0cd3E2",
  "abi": [
    {
      "inputs": [
        {
          "internalType": "address",
          "name": "wrapped1155Factory",
          "type": "address"
        },
        {
          "internalType": "address",
          "name": "cloberMarketFactory",
          "type": "address"
        },
        {
          "internalType": "address",
          "name": "couponManager",
          "type": "address"
        },
        {
          "internalType": "address",
          "name": "weth",
          "type": "address"
        },
        {
          "internalType": "address",
          "name": "loanPositionManager",
          "type": "address"
        }
      ],
      "stateMutability": "nonpayable",
      "type": "constructor"
    },
    {
      "inputs": [
        {
          "internalType": "string",
          "name": "reason",
          "type": "string"
        }
      ],
      "name": "CollateralSwapFailed",
      "type": "error"
    },
    {
      "inputs": [],
      "name": "ControllerSlippage",
      "type": "error"
    },
    {
      "inputs": [],
      "name": "EpochOverflow",
      "type": "error"
    },
    {
      "inputs": [],
      "name": "InvalidAccess",
      "type": "error"
    },
    {
      "inputs": [],
      "name": "InvalidDebtAmount",
      "type": "error"
    },
    {
      "inputs": [],
      "name": "InvalidMarket",
      "type": "error"
    },
    {
      "inputs": [],
      "name": "Reentrancy",
      "type": "error"
    },
    {
      "anonymous": false,
      "inputs": [
        {
          "indexed": true,
          "internalType": "address",
          "name": "previousOwner",
          "type": "address"
        },
        {
          "indexed": true,
          "internalType": "address",
          "name": "newOwner",
          "type": "address"
        }
      ],
      "name": "OwnershipTransferStarted",
      "type": "event"
    },
    {
      "anonymous": false,
      "inputs": [
        {
          "indexed": true,
          "internalType": "address",
          "name": "previousOwner",
          "type": "address"
        },
        {
          "indexed": true,
          "internalType": "address",
          "name": "newOwner",
          "type": "address"
        }
      ],
      "name": "OwnershipTransferred",
      "type": "event"
    },
    {
      "anonymous": false,
      "inputs": [
        {
          "indexed": true,
          "internalType": "address",
          "name": "asset",
          "type": "address"
        },
        {
          "indexed": true,
          "internalType": "Epoch",
          "name": "epoch",
          "type": "uint16"
        },
        {
          "indexed": true,
          "internalType": "address",
          "name": "cloberMarket",
          "type": "address"
        }
      ],
      "name": "SetCouponMarket",
      "type": "event"
    },
    {
      "inputs": [],
      "name": "acceptOwnership",
      "outputs": [],
      "stateMutability": "nonpayable",
      "type": "function"
    },
    {
      "inputs": [
        {
          "internalType": "uint256",
          "name": "positionId",
          "type": "uint256"
        },
        {
          "internalType": "uint256",
          "name": "amount",
          "type": "uint256"
        },
        {
          "components": [
            {
              "internalType": "uint256",
              "name": "deadline",
              "type": "uint256"
            },
            {
              "internalType": "uint8",
              "name": "v",
              "type": "uint8"
            },
            {
              "internalType": "bytes32",
              "name": "r",
              "type": "bytes32"
            },
            {
              "internalType": "bytes32",
              "name": "s",
              "type": "bytes32"
            }
          ],
          "internalType": "struct IController.PermitSignature",
          "name": "positionPermitParams",
          "type": "tuple"
        },
        {
          "components": [
            {
              "internalType": "uint256",
              "name": "permitAmount",
              "type": "uint256"
            },
            {
              "components": [
                {
                  "internalType": "uint256",
                  "name": "deadline",
                  "type": "uint256"
                },
                {
                  "internalType": "uint8",
                  "name": "v",
                  "type": "uint8"
                },
                {
                  "internalType": "bytes32",
                  "name": "r",
                  "type": "bytes32"
                },
                {
                  "internalType": "bytes32",
                  "name": "s",
                  "type": "bytes32"
                }
              ],
              "internalType": "struct IController.PermitSignature",
              "name": "signature",
              "type": "tuple"
            }
          ],
          "internalType": "struct IController.ERC20PermitParams",
          "name": "collateralPermitParams",
          "type": "tuple"
        }
      ],
      "name": "addCollateral",
      "outputs": [],
      "stateMutability": "payable",
      "type": "function"
    },
    {
      "inputs": [
        {
          "internalType": "address",
          "name": "collateralToken",
          "type": "address"
        },
        {
          "internalType": "address",
          "name": "debtToken",
          "type": "address"
        },
        {
          "internalType": "uint256",
          "name": "collateralAmount",
          "type": "uint256"
        },
        {
          "internalType": "uint256",
          "name": "borrowAmount",
          "type": "uint256"
        },
        {
          "internalType": "uint256",
          "name": "maxPayInterest",
          "type": "uint256"
        },
        {
          "internalType": "uint16",
          "name": "loanEpochs",
          "type": "uint16"
        },
        {
          "components": [
            {
              "internalType": "uint256",
              "name": "permitAmount",
              "type": "uint256"
            },
            {
              "components": [
                {
                  "internalType": "uint256",
                  "name": "deadline",
                  "type": "uint256"
                },
                {
                  "internalType": "uint8",
                  "name": "v",
                  "type": "uint8"
                },
                {
                  "internalType": "bytes32",
                  "name": "r",
                  "type": "bytes32"
                },
                {
                  "internalType": "bytes32",
                  "name": "s",
                  "type": "bytes32"
                }
              ],
              "internalType": "struct IController.PermitSignature",
              "name": "signature",
              "type": "tuple"
            }
          ],
          "internalType": "struct IController.ERC20PermitParams",
          "name": "collateralPermitParams",
          "type": "tuple"
        }
      ],
      "name": "borrow",
      "outputs": [],
      "stateMutability": "payable",
      "type": "function"
    },
    {
      "inputs": [
        {
          "internalType": "uint256",
          "name": "positionId",
          "type": "uint256"
        },
        {
          "internalType": "uint256",
          "name": "amount",
          "type": "uint256"
        },
        {
          "internalType": "uint256",
          "name": "maxPayInterest",
          "type": "uint256"
        },
        {
          "components": [
            {
              "internalType": "uint256",
              "name": "deadline",
              "type": "uint256"
            },
            {
              "internalType": "uint8",
              "name": "v",
              "type": "uint8"
            },
            {
              "internalType": "bytes32",
              "name": "r",
              "type": "bytes32"
            },
            {
              "internalType": "bytes32",
              "name": "s",
              "type": "bytes32"
            }
          ],
          "internalType": "struct IController.PermitSignature",
          "name": "positionPermitParams",
          "type": "tuple"
        }
      ],
      "name": "borrowMore",
      "outputs": [],
      "stateMutability": "nonpayable",
      "type": "function"
    },
    {
      "inputs": [
        {
          "internalType": "address",
          "name": "inputToken",
          "type": "address"
        },
        {
          "internalType": "address",
          "name": "",
          "type": "address"
        },
        {
          "internalType": "uint256",
          "name": "inputAmount",
          "type": "uint256"
        },
        {
          "internalType": "uint256",
          "name": "outputAmount",
          "type": "uint256"
        },
        {
          "internalType": "bytes",
          "name": "data",
          "type": "bytes"
        }
      ],
      "name": "cloberMarketSwapCallback",
      "outputs": [],
      "stateMutability": "payable",
      "type": "function"
    },
    {
      "inputs": [
        {
          "internalType": "uint256",
          "name": "positionId",
          "type": "uint256"
        },
        {
          "internalType": "uint16",
          "name": "epochs",
          "type": "uint16"
        },
        {
          "internalType": "uint256",
          "name": "maxPayInterest",
          "type": "uint256"
        },
        {
          "components": [
            {
              "internalType": "uint256",
              "name": "deadline",
              "type": "uint256"
            },
            {
              "internalType": "uint8",
              "name": "v",
              "type": "uint8"
            },
            {
              "internalType": "bytes32",
              "name": "r",
              "type": "bytes32"
            },
            {
              "internalType": "bytes32",
              "name": "s",
              "type": "bytes32"
            }
          ],
          "internalType": "struct IController.PermitSignature",
          "name": "positionPermitParams",
          "type": "tuple"
        },
        {
          "components": [
            {
              "internalType": "uint256",
              "name": "permitAmount",
              "type": "uint256"
            },
            {
              "components": [
                {
                  "internalType": "uint256",
                  "name": "deadline",
                  "type": "uint256"
                },
                {
                  "internalType": "uint8",
                  "name": "v",
                  "type": "uint8"
                },
                {
                  "internalType": "bytes32",
                  "name": "r",
                  "type": "bytes32"
                },
                {
                  "internalType": "bytes32",
                  "name": "s",
                  "type": "bytes32"
                }
              ],
              "internalType": "struct IController.PermitSignature",
              "name": "signature",
              "type": "tuple"
            }
          ],
          "internalType": "struct IController.ERC20PermitParams",
          "name": "debtPermitParams",
          "type": "tuple"
        }
      ],
      "name": "extendLoanDuration",
      "outputs": [],
      "stateMutability": "payable",
      "type": "function"
    },
    {
      "inputs": [
        {
          "components": [
            {
              "internalType": "address",
              "name": "asset",
              "type": "address"
            },
            {
              "internalType": "Epoch",
              "name": "epoch",
              "type": "uint16"
            }
          ],
          "internalType": "struct CouponKey",
          "name": "couponKey",
          "type": "tuple"
        }
      ],
      "name": "getCouponMarket",
      "outputs": [
        {
          "internalType": "address",
          "name": "",
          "type": "address"
        }
      ],
      "stateMutability": "view",
      "type": "function"
    },
    {
      "inputs": [
        {
          "internalType": "address",
          "name": "",
          "type": "address"
        },
        {
          "internalType": "address",
          "name": "",
          "type": "address"
        },
        {
          "internalType": "uint256[]",
          "name": "",
          "type": "uint256[]"
        },
        {
          "internalType": "uint256[]",
          "name": "",
          "type": "uint256[]"
        },
        {
          "internalType": "bytes",
          "name": "",
          "type": "bytes"
        }
      ],
      "name": "onERC1155BatchReceived",
      "outputs": [
        {
          "internalType": "bytes4",
          "name": "",
          "type": "bytes4"
        }
      ],
      "stateMutability": "nonpayable",
      "type": "function"
    },
    {
      "inputs": [
        {
          "internalType": "address",
          "name": "",
          "type": "address"
        },
        {
          "internalType": "address",
          "name": "",
          "type": "address"
        },
        {
          "internalType": "uint256",
          "name": "",
          "type": "uint256"
        },
        {
          "internalType": "uint256",
          "name": "",
          "type": "uint256"
        },
        {
          "internalType": "bytes",
          "name": "",
          "type": "bytes"
        }
      ],
      "name": "onERC1155Received",
      "outputs": [
        {
          "internalType": "bytes4",
          "name": "",
          "type": "bytes4"
        }
      ],
      "stateMutability": "nonpayable",
      "type": "function"
    },
    {
      "inputs": [],
      "name": "owner",
      "outputs": [
        {
          "internalType": "address",
          "name": "",
          "type": "address"
        }
      ],
      "stateMutability": "view",
      "type": "function"
    },
    {
      "inputs": [],
      "name": "pendingOwner",
      "outputs": [
        {
          "internalType": "address",
          "name": "",
          "type": "address"
        }
      ],
      "stateMutability": "view",
      "type": "function"
    },
    {
      "inputs": [
        {
          "internalType": "bytes",
          "name": "data",
          "type": "bytes"
        }
      ],
      "name": "positionLockAcquired",
      "outputs": [
        {
          "internalType": "bytes",
          "name": "result",
          "type": "bytes"
        }
      ],
      "stateMutability": "nonpayable",
      "type": "function"
    },
    {
      "inputs": [
        {
          "internalType": "uint256",
          "name": "positionId",
          "type": "uint256"
        },
        {
          "internalType": "uint256",
          "name": "amount",
          "type": "uint256"
        },
        {
          "components": [
            {
              "internalType": "uint256",
              "name": "deadline",
              "type": "uint256"
            },
            {
              "internalType": "uint8",
              "name": "v",
              "type": "uint8"
            },
            {
              "internalType": "bytes32",
              "name": "r",
              "type": "bytes32"
            },
            {
              "internalType": "bytes32",
              "name": "s",
              "type": "bytes32"
            }
          ],
          "internalType": "struct IController.PermitSignature",
          "name": "positionPermitParams",
          "type": "tuple"
        }
      ],
      "name": "removeCollateral",
      "outputs": [],
      "stateMutability": "nonpayable",
      "type": "function"
    },
    {
      "inputs": [],
      "name": "renounceOwnership",
      "outputs": [],
      "stateMutability": "nonpayable",
      "type": "function"
    },
    {
      "inputs": [
        {
          "internalType": "uint256",
          "name": "positionId",
          "type": "uint256"
        },
        {
          "internalType": "uint256",
          "name": "amount",
          "type": "uint256"
        },
        {
          "internalType": "uint256",
          "name": "minEarnInterest",
          "type": "uint256"
        },
        {
          "components": [
            {
              "internalType": "uint256",
              "name": "deadline",
              "type": "uint256"
            },
            {
              "internalType": "uint8",
              "name": "v",
              "type": "uint8"
            },
            {
              "internalType": "bytes32",
              "name": "r",
              "type": "bytes32"
            },
            {
              "internalType": "bytes32",
              "name": "s",
              "type": "bytes32"
            }
          ],
          "internalType": "struct IController.PermitSignature",
          "name": "positionPermitParams",
          "type": "tuple"
        },
        {
          "components": [
            {
              "internalType": "uint256",
              "name": "permitAmount",
              "type": "uint256"
            },
            {
              "components": [
                {
                  "internalType": "uint256",
                  "name": "deadline",
                  "type": "uint256"
                },
                {
                  "internalType": "uint8",
                  "name": "v",
                  "type": "uint8"
                },
                {
                  "internalType": "bytes32",
                  "name": "r",
                  "type": "bytes32"
                },
                {
                  "internalType": "bytes32",
                  "name": "s",
                  "type": "bytes32"
                }
              ],
              "internalType": "struct IController.PermitSignature",
              "name": "signature",
              "type": "tuple"
            }
          ],
          "internalType": "struct IController.ERC20PermitParams",
          "name": "debtPermitParams",
          "type": "tuple"
        }
      ],
      "name": "repay",
      "outputs": [],
      "stateMutability": "payable",
      "type": "function"
    },
    {
      "inputs": [
        {
          "components": [
            {
              "internalType": "address",
              "name": "asset",
              "type": "address"
            },
            {
              "internalType": "Epoch",
              "name": "epoch",
              "type": "uint16"
            }
          ],
          "internalType": "struct CouponKey",
          "name": "couponKey",
          "type": "tuple"
        },
        {
          "internalType": "address",
          "name": "cloberMarket",
          "type": "address"
        }
      ],
      "name": "setCouponMarket",
      "outputs": [],
      "stateMutability": "nonpayable",
      "type": "function"
    },
    {
      "inputs": [
        {
          "internalType": "uint256",
          "name": "positionId",
          "type": "uint256"
        },
        {
          "internalType": "uint16",
          "name": "epochs",
          "type": "uint16"
        },
        {
          "internalType": "uint256",
          "name": "minEarnInterest",
          "type": "uint256"
        },
        {
          "components": [
            {
              "internalType": "uint256",
              "name": "deadline",
              "type": "uint256"
            },
            {
              "internalType": "uint8",
              "name": "v",
              "type": "uint8"
            },
            {
              "internalType": "bytes32",
              "name": "r",
              "type": "bytes32"
            },
            {
              "internalType": "bytes32",
              "name": "s",
              "type": "bytes32"
            }
          ],
          "internalType": "struct IController.PermitSignature",
          "name": "positionPermitParams",
          "type": "tuple"
        }
      ],
      "name": "shortenLoanDuration",
      "outputs": [],
      "stateMutability": "nonpayable",
      "type": "function"
    },
    {
      "inputs": [
        {
          "internalType": "bytes4",
          "name": "interfaceId",
          "type": "bytes4"
        }
      ],
      "name": "supportsInterface",
      "outputs": [
        {
          "internalType": "bool",
          "name": "",
          "type": "bool"
        }
      ],
      "stateMutability": "view",
      "type": "function"
    },
    {
      "inputs": [
        {
          "internalType": "address",
          "name": "newOwner",
          "type": "address"
        }
      ],
      "name": "transferOwnership",
      "outputs": [],
      "stateMutability": "nonpayable",
      "type": "function"
    },
    {
      "stateMutability": "payable",
      "type": "receive"
    }
  ],
  "transactionHash": "0xf8df9a2a0fade1723be9bbdbd3ce92c4d23dea460a3ce84aa769c2d87dc86ea7",
  "args": [
    "0xfcBE16BfD991E4949244E59d9b524e6964b8BB75",
    "0x24aC0938C010Fb520F1068e96d78E0458855111D",
    "0x8bbcA766D175aDbffB073832262990df1c5ef748",
    "0x82aF49447D8a07e3bd95BD0d56f35241523fBab1",
    "0x03d65411684ae7B5440E11a6063881a774C733dF"
  ],
  "numDeployments": 1,
  "solcInputHash": "79048f46984044ebed3dd29bb6e9cb9d",
  "bytecode": "0x61012060405260016002553480156200001757600080fd5b506040516200514e3803806200514e8339810160408190526200003a9162000102565b84848484620000493362000077565b6001600160a01b0393841660805291831660a052821660c052811660e0521661010052506200017292505050565b600180546001600160a01b0319169055620000928162000095565b50565b600080546001600160a01b038381166001600160a01b0319831681178455604051919092169283917f8be0079c531659141344cd1fd0a4f28419497f9722a3daafe3b4186f6b6457e09190a35050565b80516001600160a01b0381168114620000fd57600080fd5b919050565b600080600080600060a086880312156200011b57600080fd5b6200012686620000e5565b94506200013660208701620000e5565b93506200014660408701620000e5565b92506200015660608701620000e5565b91506200016660808701620000e5565b90509295509295909350565b60805160a05160c05160e05161010051614e4762000307600039600081816104cd015281816105df0152818161061e015281816106c0015281816107ba01528181610851015281816108900152818161092c01528181610d2a01528181610def01528181610e9e01528181610f840152818161102d01528181611125015281816111bb0152818161128b0152818161134d015281816113ca015281816114640152818161153f015281816115d6015281816116910152818161172801528181611767015281816117fb0152818161187601528181611988015281816119c701528181611a7001528181611b7f01528181611c9101528181611cd001528181611d7201528181611e8001528181611f1701528181611f5601528181611fea0152818161222101526122ed0152600081816105670152818161191001528181611c1901526120c9015260008181610a31015281816126b601528181612cff01526134ac015260008181610aef0152612419015260008181610a020152818161268701528181612d2e015261347f0152614e476000f3fe6080604052600436106101485760003560e01c806379ba5097116100c0578063c6edfdf611610074578063f23a6e6111610059578063f23a6e61146103a3578063f2fde38b146103e8578063fd235fda1461040857600080fd5b8063c6edfdf614610372578063e30c39781461038557600080fd5b8063afead2e3116100a5578063afead2e3146102ad578063bc197c81146102cd578063bf4415dc1461032b57600080fd5b806379ba5097146102665780638da5cb5b1461027b57600080fd5b806346a114e21161011757806370a701f6116100fc57806370a701f61461022b578063715018a61461023e578063756bae3b1461025357600080fd5b806346a114e2146101de5780636d3a85341461020b57600080fd5b806301ffc9a71461015457806304b7336c146101895780630c52319f1461019e57806329b084c1146101be57600080fd5b3661014f57005b600080fd5b34801561016057600080fd5b5061017461016f366004613b72565b61041b565b60405190151581526020015b60405180910390f35b61019c610197366004613bc0565b610484565b005b3480156101aa57600080fd5b5061019c6101b9366004613c19565b610771565b3480156101ca57600080fd5b5061019c6101d9366004613d41565b6109d0565b3480156101ea57600080fd5b506101fe6101f9366004613df7565b610d1d565b6040516101809190613e7c565b34801561021757600080fd5b5061019c610226366004613e8f565b611648565b61019c610239366004613ec4565b61182d565b34801561024a57600080fd5b5061019c611b22565b61019c610261366004613f20565b611b36565b34801561027257600080fd5b5061019c611da4565b34801561028757600080fd5b506000546001600160a01b03165b6040516001600160a01b039091168152602001610180565b3480156102b957600080fd5b5061019c6102c8366004613f58565b611e37565b3480156102d957600080fd5b506103126102e8366004614018565b7fbc197c810000000000000000000000000000000000000000000000000000000095945050505050565b6040516001600160e01b03199091168152602001610180565b34801561033757600080fd5b506102956103463660046140c6565b602081810151915160a09290921b9091016000908152600390915260409020546001600160a01b031690565b61019c6103803660046140e2565b61209a565b34801561039157600080fd5b506001546001600160a01b0316610295565b3480156103af57600080fd5b506103126103be36600461415b565b7ff23a6e610000000000000000000000000000000000000000000000000000000095945050505050565b3480156103f457600080fd5b5061019c6104033660046141c4565b612362565b61019c6104163660046141e1565b6123e0565b60006001600160e01b031982167f4e2312e000000000000000000000000000000000000000000000000000000000148061047e57507f01ffc9a7000000000000000000000000000000000000000000000000000000006001600160e01b03198316145b92915050565b6002546001146104a75760405163558a1e0360e11b815260040160405180910390fd5b600280556040516331a9108f60e11b815260048101859052849033906001600160a01b037f00000000000000000000000000000000000000000000000000000000000000001690636352211e90602401602060405180830381865afa158015610514573d6000803e3d6000fd5b505050506040513d601f19601f82011682018060405250810190610538919061429b565b6001600160a01b03161461055f57604051633006171960e21b815260040160405180910390fd5b47156105da577f00000000000000000000000000000000000000000000000000000000000000006001600160a01b031663d0e30db0476040518263ffffffff1660e01b81526004016000604051808303818588803b1580156105c057600080fd5b505af11580156105d4573d6000803e3d6000fd5b50505050505b6106057f00000000000000000000000000000000000000000000000000000000000000008685612741565b60405163eb02c30160e01b8152600481018690526000907f00000000000000000000000000000000000000000000000000000000000000006001600160a01b03169063eb02c3019060240160e060405180830381865afa15801561066d573d6000803e3d6000fd5b505050506040513d601f19601f8201168201806040525081019061069191906142d3565b90506106a18160600151846127ef565b848160a0018181516106b3919061437f565b9052506001600160a01b037f00000000000000000000000000000000000000000000000000000000000000001663815483196106f28884600080612908565b6040518263ffffffff1660e01b815260040161070e9190613e7c565b6000604051808303816000875af115801561072d573d6000803e3d6000fd5b505050506040513d6000823e601f3d908101601f1916820160405261075591908101906143e2565b50610764816060015133612994565b5050600160025550505050565b6002546001146107945760405163558a1e0360e11b815260040160405180910390fd5b600280556040516331a9108f60e11b815260048101859052849033906001600160a01b037f00000000000000000000000000000000000000000000000000000000000000001690636352211e90602401602060405180830381865afa158015610801573d6000803e3d6000fd5b505050506040513d601f19601f82011682018060405250810190610825919061429b565b6001600160a01b03161461084c57604051633006171960e21b815260040160405180910390fd5b6108777f00000000000000000000000000000000000000000000000000000000000000008684612741565b60405163eb02c30160e01b8152600481018690526000907f00000000000000000000000000000000000000000000000000000000000000006001600160a01b03169063eb02c3019060240160e060405180830381865afa1580156108df573d6000803e3d6000fd5b505050506040513d601f19601f8201168201806040525081019061090391906142d3565b60208101519091506109199061ffff1686612a8e565b61ffff1660208201526001600160a01b037f000000000000000000000000000000000000000000000000000000000000000016638154831961095e8884600089612908565b6040518263ffffffff1660e01b815260040161097a9190613e7c565b6000604051808303816000875af1158015610999573d6000803e3d6000fd5b505050506040513d6000823e601f3d908101601f191682016040526109c191908101906143e2565b50610764816080015133612994565b6109d8612aa1565b60006109e383612afb565b905060006109fc846020810151905160a09190911b0190565b905060007f00000000000000000000000000000000000000000000000000000000000000006001600160a01b03166308b2ea5e7f000000000000000000000000000000000000000000000000000000000000000084866040518463ffffffff1660e01b8152600401610a7093929190614417565b602060405180830381865afa158015610a8d573d6000803e3d6000fd5b505050506040513d601f19601f82011682018060405250810190610ab1919061429b565b6040517f0cf85bcc0000000000000000000000000000000000000000000000000000000081526001600160a01b0386811660048301529192506000917f00000000000000000000000000000000000000000000000000000000000000001690630cf85bcc9060240160a060405180830381865afa158015610b36573d6000803e3d6000fd5b505050506040513d601f19601f82011682018060405250810190610b5a9190614468565b80519091506001600160a01b03161580610be75750816001600160a01b0316856001600160a01b031663c55dae636040518163ffffffff1660e01b8152600401602060405180830381865afa158015610bb7573d6000803e3d6000fd5b505050506040513d601f19601f82011682018060405250810190610bdb919061429b565b6001600160a01b031614155b80610c69575085600001516001600160a01b0316856001600160a01b031663217a4b706040518163ffffffff1660e01b8152600401602060405180830381865afa158015610c39573d6000803e3d6000fd5b505050506040513d601f19601f82011682018060405250810190610c5d919061429b565b6001600160a01b031614155b15610ca0576040517f9db8d5b100000000000000000000000000000000000000000000000000000000815260040160405180910390fd5b6000838152600360209081526040808320805473ffffffffffffffffffffffffffffffffffffffff19166001600160a01b038a8116918217909255928a01518a519251939461ffff9091169392909116917f36b618d929a94eeca73ecddec2f5e49fdb6e4bde0a20e2987baaabb9e7fc21ab9190a4505050505050565b6060336001600160a01b037f00000000000000000000000000000000000000000000000000000000000000001614610d6857604051633006171960e21b815260040160405180910390fd5b60008083806020019051810190610d7f9190614500565b955090925090506000829003610e855760008085806020019051810190610da6919061455a565b6040517fee1fe2ad0000000000000000000000000000000000000000000000000000000081526001600160a01b03808516600483015280841660248301529199509294509092507f0000000000000000000000000000000000000000000000000000000000000000169063ee1fe2ad906044016020604051808303816000875af1158015610e38573d6000803e3d6000fd5b505050506040513d601f19601f82011682018060405250810190610e5c919061458b565b935083604051602001610e7191815260200190565b604051602081830303815290604052945050505b60405163eb02c30160e01b8152600481018390526000907f00000000000000000000000000000000000000000000000000000000000000006001600160a01b03169063eb02c3019060240160e060405180830381865afa158015610eed573d6000803e3d6000fd5b505050506040513d601f19601f82011682018060405250810190610f1191906142d3565b905060008086806020019051810190610f2a91906145a4565b61ffff9092166020880181905260c0880184905260a088018590526040517f42e910af0000000000000000000000000000000000000000000000000000000081529196509194506000938493849384936001600160a01b037f000000000000000000000000000000000000000000000000000000000000000016936342e910af93610fd3938f936004019384526020840192909252604083015261ffff16606082015260800190565b6000604051808303816000875af1158015610ff2573d6000803e3d6000fd5b505050506040513d6000823e601f3d908101601f1916820160405261101a91908101906146b0565b935093509350935060008212156110d2577f00000000000000000000000000000000000000000000000000000000000000006001600160a01b03166301e336678860600151308561106a90614724565b6040516001600160e01b031960e086901b1681526001600160a01b0393841660048201529290911660248301526044820152606401600060405180830381600087803b1580156110b957600080fd5b505af11580156110cd573d6000803e3d6000fd5b505050505b60008113156111845760808701516040517f01e336670000000000000000000000000000000000000000000000000000000081526001600160a01b039182166004820152306024820152604481018390527f0000000000000000000000000000000000000000000000000000000000000000909116906301e3366790606401600060405180830381600087803b15801561116b57600080fd5b505af115801561117f573d6000803e3d6000fd5b505050505b83511561122d576040517f65ae58470000000000000000000000000000000000000000000000000000000081526001600160a01b037f000000000000000000000000000000000000000000000000000000000000000016906365ae5847906111f290879030906004016147bb565b600060405180830381600087803b15801561120c57600080fd5b505af1158015611220573d6000803e3d6000fd5b5050505061122d84612cc1565b611257888860800151868660008612611247576000611250565b61125086614724565b8b8b612d90565b60008213156113ac5761126f876060015189846130c0565b606087015160405163095ea7b360e01b81526001600160a01b037f000000000000000000000000000000000000000000000000000000000000000081166004830152602482018590529091169063095ea7b3906044016020604051808303816000875af11580156112e4573d6000803e3d6000fd5b505050506040513d601f19601f8201168201806040525081019061130891906147f7565b5060608701516040517f338b5dea0000000000000000000000000000000000000000000000000000000081526001600160a01b039182166004820152602481018490527f00000000000000000000000000000000000000000000000000000000000000009091169063338b5dea90604401600060405180830381600087803b15801561139357600080fd5b505af11580156113a7573d6000803e3d6000fd5b505050505b60008112156114ff5760808701516001600160a01b031663095ea7b37f00000000000000000000000000000000000000000000000000000000000000006113f284614724565b6040516001600160e01b031960e085901b1681526001600160a01b03909216600483015260248201526044016020604051808303816000875af115801561143d573d6000803e3d6000fd5b505050506040513d601f19601f8201168201806040525081019061146191906147f7565b507f00000000000000000000000000000000000000000000000000000000000000006001600160a01b031663338b5dea8860800151836114a090614724565b6040516001600160e01b031960e085901b1681526001600160a01b0390921660048301526024820152604401600060405180830381600087803b1580156114e657600080fd5b505af11580156114fa573d6000803e3d6000fd5b505050505b8251156115a75761150f83613321565b6040517fe6ee95e20000000000000000000000000000000000000000000000000000000081526001600160a01b037f0000000000000000000000000000000000000000000000000000000000000000169063e6ee95e290611574908690600401614812565b600060405180830381600087803b15801561158e57600080fd5b505af11580156115a2573d6000803e3d6000fd5b505050505b6040517faba5b4b3000000000000000000000000000000000000000000000000000000008152600481018a90527f00000000000000000000000000000000000000000000000000000000000000006001600160a01b03169063aba5b4b390602401600060405180830381600087803b15801561162257600080fd5b505af1158015611636573d6000803e3d6000fd5b50505050505050505050505050919050565b60025460011461166b5760405163558a1e0360e11b815260040160405180910390fd5b600280556040516331a9108f60e11b815260048101859052849033906001600160a01b037f00000000000000000000000000000000000000000000000000000000000000001690636352211e90602401602060405180830381865afa1580156116d8573d6000803e3d6000fd5b505050506040513d601f19601f820116820180604052508101906116fc919061429b565b6001600160a01b03161461172357604051633006171960e21b815260040160405180910390fd5b61174e7f00000000000000000000000000000000000000000000000000000000000000008684612741565b60405163eb02c30160e01b8152600481018690526000907f00000000000000000000000000000000000000000000000000000000000000006001600160a01b03169063eb02c3019060240160e060405180830381865afa1580156117b6573d6000803e3d6000fd5b505050506040513d601f19601f820116820180604052508101906117da91906142d3565b9050848160c0018181516117ee919061437f565b9052506001600160a01b037f000000000000000000000000000000000000000000000000000000000000000016638154831961095e8884886000612908565b6002546001146118505760405163558a1e0360e11b815260040160405180910390fd5b600280556040516331a9108f60e11b815260048101869052859033906001600160a01b037f00000000000000000000000000000000000000000000000000000000000000001690636352211e90602401602060405180830381865afa1580156118bd573d6000803e3d6000fd5b505050506040513d601f19601f820116820180604052508101906118e1919061429b565b6001600160a01b03161461190857604051633006171960e21b815260040160405180910390fd5b4715611983577f00000000000000000000000000000000000000000000000000000000000000006001600160a01b031663d0e30db0476040518263ffffffff1660e01b81526004016000604051808303818588803b15801561196957600080fd5b505af115801561197d573d6000803e3d6000fd5b50505050505b6119ae7f00000000000000000000000000000000000000000000000000000000000000008785612741565b60405163eb02c30160e01b8152600481018790526000907f00000000000000000000000000000000000000000000000000000000000000006001600160a01b03169063eb02c3019060240160e060405180830381865afa158015611a16573d6000803e3d6000fd5b505050506040513d601f19601f82011682018060405250810190611a3a91906142d3565b9050611a4a8160800151846127ef565b6020810151611a5d9061ffff1687613514565b61ffff1660208201526001600160a01b037f0000000000000000000000000000000000000000000000000000000000000000166381548319611aa28984896000612908565b6040518263ffffffff1660e01b8152600401611abe9190613e7c565b6000604051808303816000875af1158015611add573d6000803e3d6000fd5b505050506040513d6000823e601f3d908101601f19168201604052611b0591908101906143e2565b50611b14816080015133612994565b505060016002555050505050565b611b2a612aa1565b611b346000613520565b565b600254600114611b595760405163558a1e0360e11b815260040160405180910390fd5b600280556040516331a9108f60e11b815260048101869052859033906001600160a01b037f00000000000000000000000000000000000000000000000000000000000000001690636352211e90602401602060405180830381865afa158015611bc6573d6000803e3d6000fd5b505050506040513d601f19601f82011682018060405250810190611bea919061429b565b6001600160a01b031614611c1157604051633006171960e21b815260040160405180910390fd5b4715611c8c577f00000000000000000000000000000000000000000000000000000000000000006001600160a01b031663d0e30db0476040518263ffffffff1660e01b81526004016000604051808303818588803b158015611c7257600080fd5b505af1158015611c86573d6000803e3d6000fd5b50505050505b611cb77f00000000000000000000000000000000000000000000000000000000000000008785612741565b60405163eb02c30160e01b8152600481018790526000907f00000000000000000000000000000000000000000000000000000000000000006001600160a01b03169063eb02c3019060240160e060405180830381865afa158015611d1f573d6000803e3d6000fd5b505050506040513d601f19601f82011682018060405250810190611d4391906142d3565b9050611d538160800151846127ef565b858160c001818151611d659190614825565b9052506001600160a01b037f0000000000000000000000000000000000000000000000000000000000000000166381548319611aa2898460008a612908565b60015433906001600160a01b03168114611e2b5760405162461bcd60e51b815260206004820152602960248201527f4f776e61626c6532537465703a2063616c6c6572206973206e6f74207468652060448201527f6e6577206f776e6572000000000000000000000000000000000000000000000060648201526084015b60405180910390fd5b611e3481613520565b50565b600254600114611e5a5760405163558a1e0360e11b815260040160405180910390fd5b600280556040516331a9108f60e11b815260048101849052839033906001600160a01b037f00000000000000000000000000000000000000000000000000000000000000001690636352211e90602401602060405180830381865afa158015611ec7573d6000803e3d6000fd5b505050506040513d601f19601f82011682018060405250810190611eeb919061429b565b6001600160a01b031614611f1257604051633006171960e21b815260040160405180910390fd5b611f3d7f00000000000000000000000000000000000000000000000000000000000000008584612741565b60405163eb02c30160e01b8152600481018590526000907f00000000000000000000000000000000000000000000000000000000000000006001600160a01b03169063eb02c3019060240160e060405180830381865afa158015611fa5573d6000803e3d6000fd5b505050506040513d601f19601f82011682018060405250810190611fc991906142d3565b9050838160a001818151611fdd9190614825565b9052506001600160a01b037f000000000000000000000000000000000000000000000000000000000000000016638154831961201c8784600080612908565b6040518263ffffffff1660e01b81526004016120389190613e7c565b6000604051808303816000875af1158015612057573d6000803e3d6000fd5b505050506040513d6000823e601f3d908101601f1916820160405261207f91908101906143e2565b5061208e816060015133612994565b50506001600255505050565b6002546001146120bd5760405163558a1e0360e11b815260040160405180910390fd5b60028055471561213c577f00000000000000000000000000000000000000000000000000000000000000006001600160a01b031663d0e30db0476040518263ffffffff1660e01b81526004016000604051808303818588803b15801561212257600080fd5b505af1158015612136573d6000803e3d6000fd5b50505050505b61214687826127ef565b6000858561216a612158600187614838565b612160613546565b61ffff1690613514565b60408051602081019490945283019190915261ffff16606082015260808101859052600060a082015260c00160405160208183030381529060405290506000338989846040516020016121bf9392919061485a565b60408051601f19818403018152908290526121de939291602001614886565b60408051601f19818403018152908290527f8154831900000000000000000000000000000000000000000000000000000000825291506000906001600160a01b037f00000000000000000000000000000000000000000000000000000000000000001690638154831990612256908590600401613e7c565b6000604051808303816000875af1158015612275573d6000803e3d6000fd5b505050506040513d6000823e601f3d908101601f1916820160405261229d91908101906143e2565b90506000818060200190518101906122b5919061458b565b90506122c18a33612994565b6122cb8933612994565b6040516323b872dd60e01b8152306004820152336024820152604481018290527f00000000000000000000000000000000000000000000000000000000000000006001600160a01b0316906323b872dd90606401600060405180830381600087803b15801561233957600080fd5b505af115801561234d573d6000803e3d6000fd5b50506001600255505050505050505050505050565b61236a612aa1565b600180546001600160a01b03831673ffffffffffffffffffffffffffffffffffffffff1990911681179091556123a86000546001600160a01b031690565b6001600160a01b03167f38d16b8cac22d99fc7c124b9cd0de2d3fa1faef420bfe791d8c362d765e2270060405160405180910390a350565b6040517fafdd9edc0000000000000000000000000000000000000000000000000000000081523360048201526000906001600160a01b037f0000000000000000000000000000000000000000000000000000000000000000169063afdd9edc90602401602060405180830381865afa158015612460573d6000803e3d6000fd5b505050506040513d601f19601f82011682018060405250810190612484919061429b565b6001600160a01b0316036124ab57604051633006171960e21b815260040160405180910390fd5b6000336001600160a01b031663217a4b706040518163ffffffff1660e01b8152600401602060405180830381865afa1580156124eb573d6000803e3d6000fd5b505050506040513d601f19601f8201168201806040525081019061250f919061429b565b604080516080810182526000918101828152606082018390528152602081018290529192509060608060008080612548898b018b61494c565b959c50939a5091985096509450925090506001600160a01b03808f169089160361259b578b82101561258d57604051630f271b5560e41b815260040160405180910390fd5b918b0191908b9003906125af565b8a8111156125ab578a90036125af565b5060005b6125be87898787878787612d90565b505050505060008711156125e0576125e06001600160a01b038a163389613556565b6040516370a0823160e01b81523060048201526000906001600160a01b038b16906370a0823190602401602060405180830381865afa158015612627573d6000803e3d6000fd5b505050506040513d601f19601f8201168201806040525081019061264b919061458b565b9050896001600160a01b0316846001600160a01b03161415801561266f5750600081115b156127355760006126838360000151612afb565b90507f00000000000000000000000000000000000000000000000000000000000000006001600160a01b03166352aecb247f00000000000000000000000000000000000000000000000000000000000000006126de866135e7565b8588866040518663ffffffff1660e01b81526004016127019594939291906149f1565b600060405180830381600087803b15801561271b57600080fd5b505af115801561272f573d6000803e3d6000fd5b50505050505b50505050505050505050565b8035156127ea576001600160a01b038316637ac2ff7b3084843561276b6040870160208801614a38565b604080516001600160e01b031960e088901b1681526001600160a01b0390951660048601526024850193909352604484019190915260ff1660648301528401356084820152606084013560a482015260c401600060405180830381600087803b1580156127d757600080fd5b505af19250505080156127e8575060015b505b505050565b60208101351561290457816001600160a01b0316632495a5996040518163ffffffff1660e01b8152600401602060405180830381865afa158015612837573d6000803e3d6000fd5b505050506040513d601f19601f8201168201806040525081019061285b919061429b565b6001600160a01b031663d505accf3330843560208601356128826060880160408901614a38565b60405160e087901b6001600160e01b03191681526001600160a01b0395861660048201529490931660248501526044840191909152606483015260ff166084820152606084013560a4820152608084013560c482015260e401600060405180830381600087803b1580156128f557600080fd5b505af19250505080156127ea57505b5050565b606060008460a001518560c0015186602001518686604051602001612953959493929190948552602085019390935261ffff9190911660408401526060830152608082015260a00190565b604051602081830303815290604052905085338260405160200161297993929190614a55565b6040516020818303038152906040529150505b949350505050565b6040516370a0823160e01b81523060048201526000906001600160a01b038416906370a0823190602401602060405180830381865afa1580156129db573d6000803e3d6000fd5b505050506040513d601f19601f820116820180604052508101906129ff919061458b565b905080600003612a0e57505050565b6040517ffcd3533c000000000000000000000000000000000000000000000000000000008152600481018290526001600160a01b03838116602483015284169063fcd3533c90604401600060405180830381600087803b158015612a7157600080fd5b505af1158015612a85573d6000803e3d6000fd5b50505050505050565b6000612a9a8284614838565b9392505050565b6000546001600160a01b03163314611b345760405162461bcd60e51b815260206004820181905260248201527f4f776e61626c653a2063616c6c6572206973206e6f7420746865206f776e65726044820152606401611e22565b6060600082600001516001600160a01b03166395d89b416040518163ffffffff1660e01b8152600401600060405180830381865afa158015612b41573d6000803e3d6000fd5b505050506040513d6000823e601f3d908101601f19168201604052612b699190810190614a7d565b90506000612b7e846020015161ffff166135fc565b905060008282604051602001612b95929190614ac6565b604051602081830303815290604052612bad90614b48565b905060008383604051602001612bc4929190614b6c565b604051602081830303815290604052612bdc90614b48565b9050825184510160020280601e0183019250806006018201915050818187600001516001600160a01b031663313ce5676040518163ffffffff1660e01b8152600401602060405180830381865afa158015612c3b573d6000803e3d6000fd5b505050506040513d601f19601f82011682018060405250810190612c5f9190614bc4565b60f81b604051602001612ca79392919092835260208301919091527fff0000000000000000000000000000000000000000000000000000000000000016604082015260410190565b604051602081830303815290604052945050505050919050565b6000612ccc8261369c565b6040517fa50e72320000000000000000000000000000000000000000000000000000000081529091506001600160a01b037f0000000000000000000000000000000000000000000000000000000000000000169063a50e723290612d5a9030907f00000000000000000000000000000000000000000000000000000000000000009087908790600401614be1565b600060405180830381600087803b158015612d7457600080fd5b505af1158015612d88573d6000803e3d6000fd5b505050505050565b835115612f8f5760008460018651612da89190614825565b81518110612db857612db8614c1f565b6020026020010151905060018551038552600088828888888888604051602001612de89796959493929190614c35565b604051602081830303815290604052905060018651018652600060036000612e0f856135e7565b815260200190815260200160002060009054906101000a90046001600160a01b031690506000816001600160a01b031663c55dae636040518163ffffffff1660e01b8152600401602060405180830381865afa158015612e73573d6000803e3d6000fd5b505050506040513d601f19601f82011682018060405250810190612e97919061429b565b6040516370a0823160e01b81523060048201526001600160a01b0391909116906370a0823190602401602060405180830381865afa158015612edd573d6000803e3d6000fd5b505050506040513d601f19601f82011682018060405250810190612f01919061458b565b8460200151612f109190614825565b60405163168da99d60e31b81529091506001600160a01b0383169063b46d4ce890612f5490309061ffff9067ffffffffffffffff9087906001908b90600401614cbc565b600060405180830381600087803b158015612f6e57600080fd5b505af1158015612f82573d6000803e3d6000fd5b5050505050505050612a85565b84511561309a5760008560018751612fa79190614825565b81518110612fb757612fb7614c1f565b6020026020010151905060018651038652600088828888888888604051602001612fe79796959493929190614c35565b60405160208183030381529060405290506001875101875260006003600061300e856135e7565b8152602080820192909252604090810160009081205492860151915163168da99d60e31b81526001600160a01b039093169350839263b46d4ce892613060923092909182916002908a90600401614cbc565b600060405180830381600087803b15801561307a57600080fd5b505af115801561308e573d6000803e3d6000fd5b50505050505050612a85565b80156130b957604051630f271b5560e41b815260040160405180910390fd5b612a858688855b6000836001600160a01b0316632495a5996040518163ffffffff1660e01b8152600401602060405180830381865afa158015613100573d6000803e3d6000fd5b505050506040513d601f19601f82011682018060405250810190613124919061429b565b6040516370a0823160e01b81523060048201529091506000906001600160a01b038616906370a0823190602401602060405180830381865afa15801561316e573d6000803e3d6000fd5b505050506040513d601f19601f82011682018060405250810190613192919061458b565b6040516370a0823160e01b81523060048201529091506000906001600160a01b038416906370a0823190602401602060405180830381865afa1580156131dc573d6000803e3d6000fd5b505050506040513d601f19601f82011682018060405250810190613200919061458b565b905061320c818361437f565b8411156132325761322d6001600160a01b0384168630858803859003613702565b508083035b8015612d885760405163095ea7b360e01b81526001600160a01b0387811660048301526024820183905284169063095ea7b3906044016020604051808303816000875af1158015613287573d6000803e3d6000fd5b505050506040513d601f19601f820116820180604052508101906132ab91906147f7565b506040517f94bf804d000000000000000000000000000000000000000000000000000000008152600481018290523060248201526001600160a01b038716906394bf804d90604401600060405180830381600087803b15801561330d57600080fd5b505af1158015612735573d6000803e3d6000fd5b6000815167ffffffffffffffff81111561333d5761333d613c57565b604051908082528060200260200182016040528015613366578160200160208202803683370190505b5090506000825167ffffffffffffffff81111561338557613385613c57565b6040519080825280602002602001820160405280156133ae578160200160208202803683370190505b50905060005b8351811015613440576133df8482815181106133d2576133d2614c1f565b60200260200101516135e7565b8382815181106133f1576133f1614c1f565b60200260200101818152505083818151811061340f5761340f614c1f565b60200260200101516020015182828151811061342d5761342d614c1f565b60209081029190910101526001016133b4565b50600061344c8461369c565b6040517fa7eaa1860000000000000000000000000000000000000000000000000000000081529091506001600160a01b037f0000000000000000000000000000000000000000000000000000000000000000169063a7eaa186906134dc907f0000000000000000000000000000000000000000000000000000000000000000908790879030908890600401614d37565b600060405180830381600087803b1580156134f657600080fd5b505af115801561350a573d6000803e3d6000fd5b5050505050505050565b6000612a9a8284614d95565b6001805473ffffffffffffffffffffffffffffffffffffffff19169055611e348161373a565b600061355142613797565b905090565b6040516001600160a01b0383166024820152604481018290526127ea9084907fa9059cbb00000000000000000000000000000000000000000000000000000000906064015b60408051601f198184030181529190526020810180517bffffffffffffffffffffffffffffffffffffffffffffffffffffffff166001600160e01b031990931692909217909152613885565b80516020810151905160009160a01b0161047e565b606060006136098361396d565b600101905060008167ffffffffffffffff81111561362957613629613c57565b6040519080825280601f01601f191660200182016040528015613653576020820181803683370190505b5090508181016020015b600019017f3031323334353637383961626364656600000000000000000000000000000000600a86061a8153600a850494508461365d57509392505050565b606060005b82518110156136fc57816136d18483815181106136c0576136c0614c1f565b602002602001015160000151612afb565b6040516020016136e2929190614dc6565b60408051601f1981840301815291905291506001016136a1565b50919050565b6040516001600160a01b03808516602483015283166044820152606481018290526127e89085906323b872dd60e01b9060840161359b565b600080546001600160a01b0383811673ffffffffffffffffffffffffffffffffffffffff19831681178455604051919092169283917f8be0079c531659141344cd1fd0a4f28419497f9722a3daafe3b4186f6b6457e09190a35050565b600080620151808304905080622649658101600062023ab1600483020590506004600362023ab18302010590910390600062164b09610fa0600185010205905060046105b58202058303601f019250600061098f84605002816137fc576137fc614db0565b059050600b8105935083600c0281600201039050838260318503606402010191506000600180836107b28603600c0201038161383a5761383a614db0565b04905061ffff811115613879576040517f73cde75100000000000000000000000000000000000000000000000000000000815260040160405180910390fd5b98975050505050505050565b60006138da826040518060400160405280602081526020017f5361666545524332303a206c6f772d6c6576656c2063616c6c206661696c6564815250856001600160a01b0316613a4f9092919063ffffffff16565b90508051600014806138fb5750808060200190518101906138fb91906147f7565b6127ea5760405162461bcd60e51b815260206004820152602a60248201527f5361666545524332303a204552433230206f7065726174696f6e20646964206e60448201527f6f742073756363656564000000000000000000000000000000000000000000006064820152608401611e22565b6000807a184f03e93ff9f4daa797ed6e38ed64bf6a1f01000000000000000083106139b6577a184f03e93ff9f4daa797ed6e38ed64bf6a1f010000000000000000830492506040015b6d04ee2d6d415b85acef810000000083106139e2576d04ee2d6d415b85acef8100000000830492506020015b662386f26fc100008310613a0057662386f26fc10000830492506010015b6305f5e1008310613a18576305f5e100830492506008015b6127108310613a2c57612710830492506004015b60648310613a3e576064830492506002015b600a831061047e5760010192915050565b606061298c848460008585600080866001600160a01b03168587604051613a769190614df5565b60006040518083038185875af1925050503d8060008114613ab3576040519150601f19603f3d011682016040523d82523d6000602084013e613ab8565b606091505b5091509150613ac987838387613ad4565b979650505050505050565b60608315613b43578251600003613b3c576001600160a01b0385163b613b3c5760405162461bcd60e51b815260206004820152601d60248201527f416464726573733a2063616c6c20746f206e6f6e2d636f6e74726163740000006044820152606401611e22565b508161298c565b61298c8383815115613b585781518083602001fd5b8060405162461bcd60e51b8152600401611e229190613e7c565b600060208284031215613b8457600080fd5b81356001600160e01b031981168114612a9a57600080fd5b6000608082840312156136fc57600080fd5b600060a082840312156136fc57600080fd5b6000806000806101608587031215613bd757600080fd5b8435935060208501359250613bef8660408701613b9c565b9150613bfe8660c08701613bae565b905092959194509250565b61ffff81168114611e3457600080fd5b60008060008060e08587031215613c2f57600080fd5b843593506020850135613c4181613c09565b925060408501359150613bfe8660608701613b9c565b634e487b7160e01b600052604160045260246000fd5b6040805190810167ffffffffffffffff81118282101715613c9057613c90613c57565b60405290565b60405160e0810167ffffffffffffffff81118282101715613c9057613c90613c57565b604051601f8201601f1916810167ffffffffffffffff81118282101715613ce257613ce2613c57565b604052919050565b6001600160a01b0381168114611e3457600080fd5b600060408284031215613d1157600080fd5b613d19613c6d565b90508135613d2681613cea565b81526020820135613d3681613c09565b602082015292915050565b60008060608385031215613d5457600080fd5b613d5e8484613cff565b91506040830135613d6e81613cea565b809150509250929050565b600067ffffffffffffffff821115613d9357613d93613c57565b50601f01601f191660200190565b600082601f830112613db257600080fd5b8135613dc5613dc082613d79565b613cb9565b818152846020838601011115613dda57600080fd5b816020850160208301376000918101602001919091529392505050565b600060208284031215613e0957600080fd5b813567ffffffffffffffff811115613e2057600080fd5b61298c84828501613da1565b60005b83811015613e47578181015183820152602001613e2f565b50506000910152565b60008151808452613e68816020860160208601613e2c565b601f01601f19169290920160200192915050565b602081526000612a9a6020830184613e50565b60008060008060e08587031215613ea557600080fd5b843593506020850135925060408501359150613bfe8660608701613b9c565b60008060008060006101808688031215613edd57600080fd5b853594506020860135613eef81613c09565b935060408601359250613f058760608801613b9c565b9150613f148760e08801613bae565b90509295509295909350565b60008060008060006101808688031215613f3957600080fd5b853594506020860135935060408601359250613f058760608801613b9c565b600080600060c08486031215613f6d57600080fd5b8335925060208401359150613f858560408601613b9c565b90509250925092565b600067ffffffffffffffff821115613fa857613fa8613c57565b5060051b60200190565b600082601f830112613fc357600080fd5b81356020613fd3613dc083613f8e565b82815260059290921b84018101918181019086841115613ff257600080fd5b8286015b8481101561400d5780358352918301918301613ff6565b509695505050505050565b600080600080600060a0868803121561403057600080fd5b853561403b81613cea565b9450602086013561404b81613cea565b9350604086013567ffffffffffffffff8082111561406857600080fd5b61407489838a01613fb2565b9450606088013591508082111561408a57600080fd5b61409689838a01613fb2565b935060808801359150808211156140ac57600080fd5b506140b988828901613da1565b9150509295509295909350565b6000604082840312156140d857600080fd5b612a9a8383613cff565b6000806000806000806000610160888a0312156140fe57600080fd5b873561410981613cea565b9650602088013561411981613cea565b955060408801359450606088013593506080880135925060a088013561413e81613c09565b915061414d8960c08a01613bae565b905092959891949750929550565b600080600080600060a0868803121561417357600080fd5b853561417e81613cea565b9450602086013561418e81613cea565b93506040860135925060608601359150608086013567ffffffffffffffff8111156141b857600080fd5b6140b988828901613da1565b6000602082840312156141d657600080fd5b8135612a9a81613cea565b60008060008060008060a087890312156141fa57600080fd5b863561420581613cea565b9550602087013561421581613cea565b94506040870135935060608701359250608087013567ffffffffffffffff8082111561424057600080fd5b818901915089601f83011261425457600080fd5b81358181111561426357600080fd5b8a602082850101111561427557600080fd5b6020830194508093505050509295509295509295565b805161429681613cea565b919050565b6000602082840312156142ad57600080fd5b8151612a9a81613cea565b805161429681613c09565b8051801515811461429657600080fd5b600060e082840312156142e557600080fd5b6142ed613c96565b825167ffffffffffffffff8116811461430557600080fd5b8152614313602084016142b8565b6020820152614324604084016142c3565b60408201526143356060840161428b565b60608201526143466080840161428b565b608082015260a083015160a082015260c083015160c08201528091505092915050565b634e487b7160e01b600052601160045260246000fd5b8082018082111561047e5761047e614369565b60006143a0613dc084613d79565b90508281528383830111156143b457600080fd5b612a9a836020830184613e2c565b600082601f8301126143d357600080fd5b612a9a83835160208501614392565b6000602082840312156143f457600080fd5b815167ffffffffffffffff81111561440b57600080fd5b61298c848285016143c2565b6001600160a01b038416815282602082015260606040820152600061443f6060830184613e50565b95945050505050565b80516fffffffffffffffffffffffffffffffff8116811461429657600080fd5b600060a0828403121561447a57600080fd5b60405160a0810181811067ffffffffffffffff8211171561449d5761449d613c57565b60405282516144ab81613cea565b81526020830151600381106144bf57600080fd5b60208201526144d060408401614448565b60408201526144e160608401614448565b606082015260808301516144f481613cea565b60808201529392505050565b60008060006060848603121561451557600080fd5b83519250602084015161452781613cea565b604085015190925067ffffffffffffffff81111561454457600080fd5b614550868287016143c2565b9150509250925092565b60008060006060848603121561456f57600080fd5b835161457a81613cea565b602085015190935061452781613cea565b60006020828403121561459d57600080fd5b5051919050565b600080600080600060a086880312156145bc57600080fd5b855194506020860151935060408601516145d581613c09565b6060870151608090970151959894975095949392505050565b600082601f8301126145ff57600080fd5b8151602061460f613dc083613f8e565b8281526060928302850182019282820191908785111561462e57600080fd5b8387015b858110156146a3578089038281121561464b5760008081fd5b614653613c6d565b6040808312156146635760008081fd5b61466b613c6d565b9250835161467881613cea565b83528388015161468781613c09565b8389015291815290820151818701528452928401928101614632565b5090979650505050505050565b600080600080608085870312156146c657600080fd5b845167ffffffffffffffff808211156146de57600080fd5b6146ea888389016145ee565b9550602087015191508082111561470057600080fd5b5061470d878288016145ee565b604087015160609097015195989097509350505050565b60007f8000000000000000000000000000000000000000000000000000000000000000820361475557614755614369565b5060000390565b600081518084526020808501945080840160005b838110156147b0578151805180516001600160a01b0316895260209081015161ffff16818a01520151604088015260609096019590820190600101614770565b509495945050505050565b6060815260006147ce606083018561475c565b6001600160a01b0384166020840152828103604084015260008152602081019150509392505050565b60006020828403121561480957600080fd5b612a9a826142c3565b602081526000612a9a602083018461475c565b8181038181111561047e5761047e614369565b61ffff82811682821603908082111561485357614853614369565b5092915050565b60006001600160a01b0380861683528085166020840152506060604083015261443f6060830184613e50565b60ff841681526001600160a01b038316602082015260606040820152600061443f6060830184613e50565b6000606082840312156148c357600080fd5b6148cb613c6d565b90506148d78383613cff565b81526040820135602082015292915050565b600082601f8301126148fa57600080fd5b8135602061490a613dc083613f8e565b8281526060928302850182019282820191908785111561492957600080fd5b8387015b858110156146a35761493f89826148b1565b845292840192810161492d565b6000806000806000806000610120888a03121561496857600080fd5b873561497381613cea565b96506149828960208a016148b1565b9550608088013567ffffffffffffffff8082111561499f57600080fd5b6149ab8b838c016148e9565b965060a08a01359150808211156149c157600080fd5b506149ce8a828b016148e9565b979a969950949760c08101359660e0820135965061010090910135945092505050565b60006001600160a01b03808816835286602084015285604084015280851660608401525060a06080830152613ac960a0830184613e50565b60ff81168114611e3457600080fd5b600060208284031215614a4a57600080fd5b8135612a9a81614a29565b8381526001600160a01b038316602082015260606040820152600061443f6060830184613e50565b600060208284031215614a8f57600080fd5b815167ffffffffffffffff811115614aa657600080fd5b8201601f81018413614ab757600080fd5b61298c84825160208401614392565b60008351614ad8818460208801613e2c565b7f20426f6e6420436f75706f6e20280000000000000000000000000000000000009083019081528351614b1281600e840160208801613e2c565b7f2900000000000000000000000000000000000000000000000000000000000000600e9290910191820152600f01949350505050565b805160208083015191908110156136fc5760001960209190910360031b1b16919050565b60008351614b7e818460208801613e2c565b7f2d435000000000000000000000000000000000000000000000000000000000009083019081528351614bb8816003840160208801613e2c565b01600301949350505050565b600060208284031215614bd657600080fd5b8151612a9a81614a29565b60006001600160a01b03808716835280861660208401525060806040830152614c0d608083018561475c565b8281036060840152613ac98185613e50565b634e487b7160e01b600052603260045260246000fd5b60006101206001600160a01b038a168352614c75602084018a805180516001600160a01b0316835260209081015161ffff16818401520151604090910152565b806080840152614c878184018961475c565b905082810360a0840152614c9b818861475c565b60c0840196909652505060e081019290925261010090910152949350505050565b6001600160a01b038716815261ffff8616602082015267ffffffffffffffff8516604082015283606082015260ff8316608082015260c060a0820152600061387960c0830184613e50565b600081518084526020808501945080840160005b838110156147b057815187529582019590820190600101614d1b565b60006001600160a01b03808816835260a06020840152614d5a60a0840188614d07565b8381036040850152614d6c8188614d07565b905081861660608501528381036080850152614d888186613e50565b9998505050505050505050565b61ffff81811683821601908082111561485357614853614369565b634e487b7160e01b600052601260045260246000fd5b60008351614dd8818460208801613e2c565b835190830190614dec818360208801613e2c565b01949350505050565b60008251614e07818460208701613e2c565b919091019291505056fea2646970667358221220ec8f3ea875d515ff68732f3bc756a81186c8697d1307846a225806bcd524ff5a64736f6c63430008130033",
  "devdoc": {
    "kind": "dev",
    "methods": {
      "acceptOwnership()": {
        "details": "The new owner accepts the ownership transfer."
      },
      "owner()": {
        "details": "Returns the address of the current owner."
      },
      "pendingOwner()": {
        "details": "Returns the address of the pending owner."
      },
      "renounceOwnership()": {
        "details": "Leaves the contract without owner. It will not be possible to call `onlyOwner` functions. Can only be called by the current owner. NOTE: Renouncing ownership will leave the contract without an owner, thereby disabling any functionality that is only available to the owner."
      },
      "supportsInterface(bytes4)": {
        "details": "See {IERC165-supportsInterface}."
      },
      "transferOwnership(address)": {
        "details": "Starts the ownership transfer of the contract to a new account. Replaces the pending transfer if there is one. Can only be called by the current owner."
      }
    },
    "version": 1
  },
  "userdoc": {
    "kind": "user",
    "methods": {},
    "version": 1
  },
  "storageLayout": {
    "storage": [
      {
        "astId": 7,
        "contract": "contracts/BorrowController.sol:BorrowController",
        "label": "_owner",
        "offset": 0,
        "slot": "0",
        "type": "t_address"
      },
      {
        "astId": 120,
        "contract": "contracts/BorrowController.sol:BorrowController",
        "label": "_pendingOwner",
        "offset": 0,
        "slot": "1",
        "type": "t_address"
      },
      {
        "astId": 18385,
        "contract": "contracts/BorrowController.sol:BorrowController",
        "label": "_locked",
        "offset": 0,
        "slot": "2",
        "type": "t_uint256"
      },
      {
        "astId": 15482,
        "contract": "contracts/BorrowController.sol:BorrowController",
        "label": "_couponMarkets",
        "offset": 0,
        "slot": "3",
        "type": "t_mapping(t_uint256,t_address)"
      }
    ],
    "types": {
      "t_address": {
        "encoding": "inplace",
        "label": "address",
        "numberOfBytes": "20"
      },
      "t_mapping(t_uint256,t_address)": {
        "encoding": "mapping",
        "key": "t_uint256",
        "label": "mapping(uint256 => address)",
        "numberOfBytes": "32",
        "value": "t_address"
      },
      "t_uint256": {
        "encoding": "inplace",
        "label": "uint256",
        "numberOfBytes": "32"
      }
    }
  }
}