{
  "address": "0x377d954cd4b29931b09d3943F070B28b968F034f",
  "abi": [
    {
      "inputs": [
        {
          "internalType": "address",
          "name": "wrapped1155Factory",
          "type": "address"
        },
        {
          "internalType": "address",
          "name": "cloberMarketFactory",
          "type": "address"
        },
        {
          "internalType": "address",
          "name": "couponManager",
          "type": "address"
        },
        {
          "internalType": "address",
          "name": "weth",
          "type": "address"
        },
        {
          "internalType": "address",
          "name": "bondPositionManager",
          "type": "address"
        }
      ],
      "stateMutability": "nonpayable",
      "type": "constructor"
    },
    {
      "inputs": [],
      "name": "ControllerSlippage",
      "type": "error"
    },
    {
      "inputs": [],
      "name": "EpochOverflow",
      "type": "error"
    },
    {
      "inputs": [],
      "name": "InvalidAccess",
      "type": "error"
    },
    {
      "inputs": [],
      "name": "InvalidMarket",
      "type": "error"
    },
    {
      "inputs": [],
      "name": "NotExpired",
      "type": "error"
    },
    {
      "inputs": [],
      "name": "Reentrancy",
      "type": "error"
    },
    {
      "anonymous": false,
      "inputs": [
        {
          "indexed": true,
          "internalType": "address",
          "name": "previousOwner",
          "type": "address"
        },
        {
          "indexed": true,
          "internalType": "address",
          "name": "newOwner",
          "type": "address"
        }
      ],
      "name": "OwnershipTransferStarted",
      "type": "event"
    },
    {
      "anonymous": false,
      "inputs": [
        {
          "indexed": true,
          "internalType": "address",
          "name": "previousOwner",
          "type": "address"
        },
        {
          "indexed": true,
          "internalType": "address",
          "name": "newOwner",
          "type": "address"
        }
      ],
      "name": "OwnershipTransferred",
      "type": "event"
    },
    {
      "anonymous": false,
      "inputs": [
        {
          "indexed": true,
          "internalType": "address",
          "name": "asset",
          "type": "address"
        },
        {
          "indexed": true,
          "internalType": "Epoch",
          "name": "epoch",
          "type": "uint16"
        },
        {
          "indexed": true,
          "internalType": "address",
          "name": "cloberMarket",
          "type": "address"
        }
      ],
      "name": "SetCouponMarket",
      "type": "event"
    },
    {
      "inputs": [],
      "name": "acceptOwnership",
      "outputs": [],
      "stateMutability": "nonpayable",
      "type": "function"
    },
    {
      "inputs": [
        {
          "internalType": "address",
          "name": "inputToken",
          "type": "address"
        },
        {
          "internalType": "address",
          "name": "",
          "type": "address"
        },
        {
          "internalType": "uint256",
          "name": "inputAmount",
          "type": "uint256"
        },
        {
          "internalType": "uint256",
          "name": "outputAmount",
          "type": "uint256"
        },
        {
          "internalType": "bytes",
          "name": "data",
          "type": "bytes"
        }
      ],
      "name": "cloberMarketSwapCallback",
      "outputs": [],
      "stateMutability": "payable",
      "type": "function"
    },
    {
      "inputs": [
        {
          "internalType": "uint256",
          "name": "positionId",
          "type": "uint256"
        },
        {
          "components": [
            {
              "internalType": "uint256",
              "name": "deadline",
              "type": "uint256"
            },
            {
              "internalType": "uint8",
              "name": "v",
              "type": "uint8"
            },
            {
              "internalType": "bytes32",
              "name": "r",
              "type": "bytes32"
            },
            {
              "internalType": "bytes32",
              "name": "s",
              "type": "bytes32"
            }
          ],
          "internalType": "struct IController.PermitSignature",
          "name": "positionPermitParams",
          "type": "tuple"
        }
      ],
      "name": "collect",
      "outputs": [],
      "stateMutability": "nonpayable",
      "type": "function"
    },
    {
      "inputs": [
        {
          "internalType": "address",
          "name": "asset",
          "type": "address"
        },
        {
          "internalType": "uint256",
          "name": "amount",
          "type": "uint256"
        },
        {
          "internalType": "uint16",
          "name": "lockEpochs",
          "type": "uint16"
        },
        {
          "internalType": "uint256",
          "name": "minEarnInterest",
          "type": "uint256"
        },
        {
          "components": [
            {
              "internalType": "uint256",
              "name": "permitAmount",
              "type": "uint256"
            },
            {
              "components": [
                {
                  "internalType": "uint256",
                  "name": "deadline",
                  "type": "uint256"
                },
                {
                  "internalType": "uint8",
                  "name": "v",
                  "type": "uint8"
                },
                {
                  "internalType": "bytes32",
                  "name": "r",
                  "type": "bytes32"
                },
                {
                  "internalType": "bytes32",
                  "name": "s",
                  "type": "bytes32"
                }
              ],
              "internalType": "struct IController.PermitSignature",
              "name": "signature",
              "type": "tuple"
            }
          ],
          "internalType": "struct IController.ERC20PermitParams",
          "name": "tokenPermitParams",
          "type": "tuple"
        }
      ],
      "name": "deposit",
      "outputs": [],
      "stateMutability": "payable",
      "type": "function"
    },
    {
      "inputs": [
        {
          "components": [
            {
              "internalType": "address",
              "name": "asset",
              "type": "address"
            },
            {
              "internalType": "Epoch",
              "name": "epoch",
              "type": "uint16"
            }
          ],
          "internalType": "struct CouponKey",
          "name": "couponKey",
          "type": "tuple"
        }
      ],
      "name": "getCouponMarket",
      "outputs": [
        {
          "internalType": "address",
          "name": "",
          "type": "address"
        }
      ],
      "stateMutability": "view",
      "type": "function"
    },
    {
      "inputs": [
        {
          "internalType": "address",
          "name": "",
          "type": "address"
        },
        {
          "internalType": "address",
          "name": "",
          "type": "address"
        },
        {
          "internalType": "uint256[]",
          "name": "",
          "type": "uint256[]"
        },
        {
          "internalType": "uint256[]",
          "name": "",
          "type": "uint256[]"
        },
        {
          "internalType": "bytes",
          "name": "",
          "type": "bytes"
        }
      ],
      "name": "onERC1155BatchReceived",
      "outputs": [
        {
          "internalType": "bytes4",
          "name": "",
          "type": "bytes4"
        }
      ],
      "stateMutability": "nonpayable",
      "type": "function"
    },
    {
      "inputs": [
        {
          "internalType": "address",
          "name": "",
          "type": "address"
        },
        {
          "internalType": "address",
          "name": "",
          "type": "address"
        },
        {
          "internalType": "uint256",
          "name": "",
          "type": "uint256"
        },
        {
          "internalType": "uint256",
          "name": "",
          "type": "uint256"
        },
        {
          "internalType": "bytes",
          "name": "",
          "type": "bytes"
        }
      ],
      "name": "onERC1155Received",
      "outputs": [
        {
          "internalType": "bytes4",
          "name": "",
          "type": "bytes4"
        }
      ],
      "stateMutability": "nonpayable",
      "type": "function"
    },
    {
      "inputs": [],
      "name": "owner",
      "outputs": [
        {
          "internalType": "address",
          "name": "",
          "type": "address"
        }
      ],
      "stateMutability": "view",
      "type": "function"
    },
    {
      "inputs": [],
      "name": "pendingOwner",
      "outputs": [
        {
          "internalType": "address",
          "name": "",
          "type": "address"
        }
      ],
      "stateMutability": "view",
      "type": "function"
    },
    {
      "inputs": [
        {
          "internalType": "bytes",
          "name": "data",
          "type": "bytes"
        }
      ],
      "name": "positionLockAcquired",
      "outputs": [
        {
          "internalType": "bytes",
          "name": "result",
          "type": "bytes"
        }
      ],
      "stateMutability": "nonpayable",
      "type": "function"
    },
    {
      "inputs": [],
      "name": "renounceOwnership",
      "outputs": [],
      "stateMutability": "nonpayable",
      "type": "function"
    },
    {
      "inputs": [
        {
          "components": [
            {
              "internalType": "address",
              "name": "asset",
              "type": "address"
            },
            {
              "internalType": "Epoch",
              "name": "epoch",
              "type": "uint16"
            }
          ],
          "internalType": "struct CouponKey",
          "name": "couponKey",
          "type": "tuple"
        },
        {
          "internalType": "address",
          "name": "cloberMarket",
          "type": "address"
        }
      ],
      "name": "setCouponMarket",
      "outputs": [],
      "stateMutability": "nonpayable",
      "type": "function"
    },
    {
      "inputs": [
        {
          "internalType": "bytes4",
          "name": "interfaceId",
          "type": "bytes4"
        }
      ],
      "name": "supportsInterface",
      "outputs": [
        {
          "internalType": "bool",
          "name": "",
          "type": "bool"
        }
      ],
      "stateMutability": "view",
      "type": "function"
    },
    {
      "inputs": [
        {
          "internalType": "address",
          "name": "newOwner",
          "type": "address"
        }
      ],
      "name": "transferOwnership",
      "outputs": [],
      "stateMutability": "nonpayable",
      "type": "function"
    },
    {
      "inputs": [
        {
          "internalType": "uint256",
          "name": "positionId",
          "type": "uint256"
        },
        {
          "internalType": "uint256",
          "name": "withdrawAmount",
          "type": "uint256"
        },
        {
          "internalType": "uint256",
          "name": "maxPayInterest",
          "type": "uint256"
        },
        {
          "components": [
            {
              "internalType": "uint256",
              "name": "deadline",
              "type": "uint256"
            },
            {
              "internalType": "uint8",
              "name": "v",
              "type": "uint8"
            },
            {
              "internalType": "bytes32",
              "name": "r",
              "type": "bytes32"
            },
            {
              "internalType": "bytes32",
              "name": "s",
              "type": "bytes32"
            }
          ],
          "internalType": "struct IController.PermitSignature",
          "name": "positionPermitParams",
          "type": "tuple"
        }
      ],
      "name": "withdraw",
      "outputs": [],
      "stateMutability": "nonpayable",
      "type": "function"
    },
    {
      "stateMutability": "payable",
      "type": "receive"
    }
  ],
  "transactionHash": "0x7803122bf56797526672aa7917c58eec8abb57d48f44623a6930948964977f94",
  "args": [
    "0xfcBE16BfD991E4949244E59d9b524e6964b8BB75",
    "0x24aC0938C010Fb520F1068e96d78E0458855111D",
    "0x8bbcA766D175aDbffB073832262990df1c5ef748",
    "0x82aF49447D8a07e3bd95BD0d56f35241523fBab1",
    "0x0Cf91Bc7a67B063142C029a69fF9C8ccd93476E2"
  ],
  "numDeployments": 1,
  "solcInputHash": "79048f46984044ebed3dd29bb6e9cb9d",
  "bytecode": "0x61012060405260016002553480156200001757600080fd5b5060405162004295380380620042958339810160408190526200003a9162000102565b84848484620000493362000077565b6001600160a01b0393841660805291831660a052821660c052811660e0521661010052506200017292505050565b600180546001600160a01b0319169055620000928162000095565b50565b600080546001600160a01b038381166001600160a01b0319831681178455604051919092169283917f8be0079c531659141344cd1fd0a4f28419497f9722a3daafe3b4186f6b6457e09190a35050565b80516001600160a01b0381168114620000fd57600080fd5b919050565b600080600080600060a086880312156200011b57600080fd5b6200012686620000e5565b94506200013660208701620000e5565b93506200014660408701620000e5565b92506200015660608701620000e5565b91506200016660808701620000e5565b90509295509295909350565b60805160a05160c05160e051610100516140286200026d60003960008181610418015281816104af015281816104ee015281816105b1015281816109da01528181610a9301528181610b4101528181610c2801528181610cbc01528181610d8c01528181610e4301528181610f0201528181610fa101528181611038015281816110f201528181611189015281816111c8015281816112cf0152818161154a01526116640152600061146e0152600081816106e101528181611a2b01528181611ebc015261240c01526000818161079f015261178e0152600081816106b2015281816119fc01528181611eeb01526123df01526140286000f3fe6080604052600436106100ec5760003560e01c80638da5cb5b1161008a578063e30c397811610059578063e30c3978146102d0578063f23a6e61146102ee578063f2fde38b14610333578063fd235fda1461035357600080fd5b80638da5cb5b146101e6578063a558348814610218578063bc197c811461022b578063bf4415dc1461028957600080fd5b806346a114e2116100c657806346a114e21461016f57806355d364991461019c578063715018a6146101bc57806379ba5097146101d157600080fd5b806301ffc9a7146100f85780631dc8ef1d1461012d57806329b084c11461014f57600080fd5b366100f357005b600080fd5b34801561010457600080fd5b50610118610113366004612ed7565b610366565b60405190151581526020015b60405180910390f35b34801561013957600080fd5b5061014d610148366004612f13565b6103cf565b005b34801561015b57600080fd5b5061014d61016a36600461304d565b610680565b34801561017b57600080fd5b5061018f61018a366004613103565b6109cd565b6040516101249190613188565b3480156101a857600080fd5b5061014d6101b736600461319b565b6110a9565b3480156101c857600080fd5b5061014d611398565b3480156101dd57600080fd5b5061014d6113ac565b3480156101f257600080fd5b506000546001600160a01b03165b6040516001600160a01b039091168152602001610124565b61014d6102263660046131c8565b61143f565b34801561023757600080fd5b506102706102463660046132ba565b7fbc197c810000000000000000000000000000000000000000000000000000000095945050505050565b6040516001600160e01b03199091168152602001610124565b34801561029557600080fd5b506102006102a4366004613368565b602081810151915160a09290921b9091016000908152600390915260409020546001600160a01b031690565b3480156102dc57600080fd5b506001546001600160a01b0316610200565b3480156102fa57600080fd5b50610270610309366004613384565b7ff23a6e610000000000000000000000000000000000000000000000000000000095945050505050565b34801561033f57600080fd5b5061014d61034e3660046133ed565b6116d7565b61014d61036136600461340a565b611755565b60006001600160e01b031982167f4e2312e00000000000000000000000000000000000000000000000000000000014806103c957507f01ffc9a7000000000000000000000000000000000000000000000000000000006001600160e01b03198316145b92915050565b6002546001146103f25760405163558a1e0360e11b815260040160405180910390fd5b600280556040516331a9108f60e11b815260048101859052849033906001600160a01b037f00000000000000000000000000000000000000000000000000000000000000001690636352211e90602401602060405180830381865afa15801561045f573d6000803e3d6000fd5b505050506040513d601f19601f8201168201806040525081019061048391906134b4565b6001600160a01b0316146104aa57604051633006171960e21b815260040160405180910390fd5b6104d57f00000000000000000000000000000000000000000000000000000000000000008684611ab6565b60405163eb02c30160e01b8152600481018690526000907f00000000000000000000000000000000000000000000000000000000000000006001600160a01b03169063eb02c3019060240160a060405180830381865afa15801561053d573d6000803e3d6000fd5b505050506040513d601f19601f8201168201806040525081019061056191906134e6565b90506000858260800151610575919061357b565b6040808401518151602081019390935261ffff1690820152606081018690526000608082015260a00160405160208183030381529060405290507f00000000000000000000000000000000000000000000000000000000000000006001600160a01b031663815483198833846040516020016105f39392919061358e565b6040516020818303038152906040526040518263ffffffff1660e01b815260040161061e9190613188565b6000604051808303816000875af115801561063d573d6000803e3d6000fd5b505050506040513d6000823e601f3d908101601f19168201604052610665919081019061360f565b5081516106729033611b64565b505060016002555050505050565b610688611c5e565b600061069383611cb8565b905060006106ac846020810151905160a09190911b0190565b905060007f00000000000000000000000000000000000000000000000000000000000000006001600160a01b03166308b2ea5e7f000000000000000000000000000000000000000000000000000000000000000084866040518463ffffffff1660e01b815260040161072093929190613644565b602060405180830381865afa15801561073d573d6000803e3d6000fd5b505050506040513d601f19601f8201168201806040525081019061076191906134b4565b6040517f0cf85bcc0000000000000000000000000000000000000000000000000000000081526001600160a01b0386811660048301529192506000917f00000000000000000000000000000000000000000000000000000000000000001690630cf85bcc9060240160a060405180830381865afa1580156107e6573d6000803e3d6000fd5b505050506040513d601f19601f8201168201806040525081019061080a919061368c565b80519091506001600160a01b031615806108975750816001600160a01b0316856001600160a01b031663c55dae636040518163ffffffff1660e01b8152600401602060405180830381865afa158015610867573d6000803e3d6000fd5b505050506040513d601f19601f8201168201806040525081019061088b91906134b4565b6001600160a01b031614155b80610919575085600001516001600160a01b0316856001600160a01b031663217a4b706040518163ffffffff1660e01b8152600401602060405180830381865afa1580156108e9573d6000803e3d6000fd5b505050506040513d601f19601f8201168201806040525081019061090d91906134b4565b6001600160a01b031614155b15610950576040517f9db8d5b100000000000000000000000000000000000000000000000000000000815260040160405180910390fd5b6000838152600360209081526040808320805473ffffffffffffffffffffffffffffffffffffffff19166001600160a01b038a8116918217909255928a01518a519251939461ffff9091169392909116917f36b618d929a94eeca73ecddec2f5e49fdb6e4bde0a20e2987baaabb9e7fc21ab9190a4505050505050565b6060336001600160a01b037f00000000000000000000000000000000000000000000000000000000000000001614610a1857604051633006171960e21b815260040160405180910390fd5b60008083806020019051810190610a2f9190613706565b955090925090506000829003610b2857600084806020019051810190610a559190613760565b6040517f6a6278420000000000000000000000000000000000000000000000000000000081526001600160a01b0380841660048301529197509192507f00000000000000000000000000000000000000000000000000000000000000001690636a627842906024016020604051808303816000875af1158015610adc573d6000803e3d6000fd5b505050506040513d601f19601f82011682018060405250810190610b0091906137b1565b925082604051602001610b1591815260200190565b6040516020818303038152906040529350505b60405163eb02c30160e01b8152600481018390526000907f00000000000000000000000000000000000000000000000000000000000000006001600160a01b03169063eb02c3019060240160a060405180830381865afa158015610b90573d6000803e3d6000fd5b505050506040513d601f19601f82011682018060405250810190610bb491906134e6565b905060008086806020019051810190610bcd91906137ca565b61ffff92909216604087810182905260808801859052517f7c6af77d000000000000000000000000000000000000000000000000000000008152600481018a90526024810194909452604484015293509150600090819081907f00000000000000000000000000000000000000000000000000000000000000006001600160a01b031690637c6af77d906064016000604051808303816000875af1158015610c79573d6000803e3d6000fd5b505050506040513d6000823e601f3d908101601f19168201604052610ca191908101906138ca565b9250925092506000811215610d555785516001600160a01b037f000000000000000000000000000000000000000000000000000000000000000016906301e336679030610ced85613937565b6040516001600160e01b031960e086901b1681526001600160a01b0393841660048201529290911660248301526044820152606401600060405180830381600087803b158015610d3c57600080fd5b505af1158015610d50573d6000803e3d6000fd5b505050505b825115610dfe576040517f65ae58470000000000000000000000000000000000000000000000000000000081526001600160a01b037f000000000000000000000000000000000000000000000000000000000000000016906365ae584790610dc390869030906004016139ce565b600060405180830381600087803b158015610ddd57600080fd5b505af1158015610df1573d6000803e3d6000fd5b50505050610dfe83611e7e565b610e21878760000151858560008613610e18576000610e1a565b855b8a8a611f4d565b6000811315610f6157855160405163095ea7b360e01b81526001600160a01b037f000000000000000000000000000000000000000000000000000000000000000081166004830152602482018490529091169063095ea7b3906044016020604051808303816000875af1158015610e9c573d6000803e3d6000fd5b505050506040513d601f19601f82011682018060405250810190610ec09190613a0a565b5085516040517f338b5dea0000000000000000000000000000000000000000000000000000000081526001600160a01b039182166004820152602481018390527f00000000000000000000000000000000000000000000000000000000000000009091169063338b5dea90604401600060405180830381600087803b158015610f4857600080fd5b505af1158015610f5c573d6000803e3d6000fd5b505050505b81511561100957610f7182612281565b6040517fe6ee95e20000000000000000000000000000000000000000000000000000000081526001600160a01b037f0000000000000000000000000000000000000000000000000000000000000000169063e6ee95e290610fd6908590600401613a25565b600060405180830381600087803b158015610ff057600080fd5b505af1158015611004573d6000803e3d6000fd5b505050505b6040517faba5b4b3000000000000000000000000000000000000000000000000000000008152600481018990527f00000000000000000000000000000000000000000000000000000000000000006001600160a01b03169063aba5b4b390602401600060405180830381600087803b15801561108457600080fd5b505af1158015611098573d6000803e3d6000fd5b505050505050505050505050919050565b6002546001146110cc5760405163558a1e0360e11b815260040160405180910390fd5b600280556040516331a9108f60e11b815260048101839052829033906001600160a01b037f00000000000000000000000000000000000000000000000000000000000000001690636352211e90602401602060405180830381865afa158015611139573d6000803e3d6000fd5b505050506040513d601f19601f8201168201806040525081019061115d91906134b4565b6001600160a01b03161461118457604051633006171960e21b815260040160405180910390fd5b6111af7f00000000000000000000000000000000000000000000000000000000000000008484611ab6565b60405163eb02c30160e01b8152600481018490526000907f00000000000000000000000000000000000000000000000000000000000000006001600160a01b03169063eb02c3019060240160a060405180830381865afa158015611217573d6000803e3d6000fd5b505050506040513d601f19601f8201168201806040525081019061123b91906134e6565b905061125a816040015161124d612474565b61ffff9081169116101590565b15611291576040517fd0404f8500000000000000000000000000000000000000000000000000000000815260040160405180910390fd5b604081810151815160006020820181905261ffff90921681840152606081018290526080808201929092528251808203909201825260a081019092527f00000000000000000000000000000000000000000000000000000000000000006001600160a01b03169163815483199161130e918891339160c00161358e565b6040516020818303038152906040526040518263ffffffff1660e01b81526004016113399190613188565b6000604051808303816000875af1158015611358573d6000803e3d6000fd5b505050506040513d6000823e601f3d908101601f19168201604052611380919081019061360f565b50805161138d9033611b64565b505060016002555050565b6113a0611c5e565b6113aa6000612484565b565b60015433906001600160a01b031681146114335760405162461bcd60e51b815260206004820152602960248201527f4f776e61626c6532537465703a2063616c6c6572206973206e6f74207468652060448201527f6e6577206f776e6572000000000000000000000000000000000000000000000060648201526084015b60405180910390fd5b61143c81612484565b50565b6002546001146114625760405163558a1e0360e11b815260040160405180910390fd5b6002805547156114e1577f00000000000000000000000000000000000000000000000000000000000000006001600160a01b031663d0e30db0476040518263ffffffff1660e01b81526004016000604051808303818588803b1580156114c757600080fd5b505af11580156114db573d6000803e3d6000fd5b50505050505b6114eb85826124aa565b60008461150e6114fc600187613a38565b611504612474565b61ffff16906125c3565b60408051602081019390935261ffff90911690820152600060608201526080810184905260a001604051602081830303815290604052905060007f00000000000000000000000000000000000000000000000000000000000000006001600160a01b031663815483196000338a8660405160200161158d929190613a5a565b60408051601f19818403018152908290526115ac939291602001613a7c565b6040516020818303038152906040526040518263ffffffff1660e01b81526004016115d79190613188565b6000604051808303816000875af11580156115f6573d6000803e3d6000fd5b505050506040513d6000823e601f3d908101601f1916820160405261161e919081019061360f565b905060008180602001905181019061163691906137b1565b90506116428833611b64565b6040516323b872dd60e01b8152306004820152336024820152604481018290527f00000000000000000000000000000000000000000000000000000000000000006001600160a01b0316906323b872dd90606401600060405180830381600087803b1580156116b057600080fd5b505af11580156116c4573d6000803e3d6000fd5b5050600160025550505050505050505050565b6116df611c5e565b600180546001600160a01b03831673ffffffffffffffffffffffffffffffffffffffff19909116811790915561171d6000546001600160a01b031690565b6001600160a01b03167f38d16b8cac22d99fc7c124b9cd0de2d3fa1faef420bfe791d8c362d765e2270060405160405180910390a350565b6040517fafdd9edc0000000000000000000000000000000000000000000000000000000081523360048201526000906001600160a01b037f0000000000000000000000000000000000000000000000000000000000000000169063afdd9edc90602401602060405180830381865afa1580156117d5573d6000803e3d6000fd5b505050506040513d601f19601f820116820180604052508101906117f991906134b4565b6001600160a01b03160361182057604051633006171960e21b815260040160405180910390fd5b6000336001600160a01b031663217a4b706040518163ffffffff1660e01b8152600401602060405180830381865afa158015611860573d6000803e3d6000fd5b505050506040513d601f19601f8201168201806040525081019061188491906134b4565b6040805160808101825260009181018281526060820183905281526020810182905291925090606080600080806118bd898b018b613b42565b959c50939a5091985096509450925090506001600160a01b03808f1690891603611910578b82101561190257604051630f271b5560e41b815260040160405180910390fd5b918b0191908b900390611924565b8a811115611920578a9003611924565b5060005b61193387898787878787611f4d565b50505050506000871115611955576119556001600160a01b038a1633896125d6565b6040516370a0823160e01b81523060048201526000906001600160a01b038b16906370a0823190602401602060405180830381865afa15801561199c573d6000803e3d6000fd5b505050506040513d601f19601f820116820180604052508101906119c091906137b1565b9050896001600160a01b0316846001600160a01b0316141580156119e45750600081115b15611aaa5760006119f88360000151611cb8565b90507f00000000000000000000000000000000000000000000000000000000000000006001600160a01b03166352aecb247f0000000000000000000000000000000000000000000000000000000000000000611a5386612667565b8588866040518663ffffffff1660e01b8152600401611a76959493929190613be7565b600060405180830381600087803b158015611a9057600080fd5b505af1158015611aa4573d6000803e3d6000fd5b50505050505b50505050505050505050565b803515611b5f576001600160a01b038316637ac2ff7b30848435611ae06040870160208801613c2e565b604080516001600160e01b031960e088901b1681526001600160a01b0390951660048601526024850193909352604484019190915260ff1660648301528401356084820152606084013560a482015260c401600060405180830381600087803b158015611b4c57600080fd5b505af1925050508015611b5d575060015b505b505050565b6040516370a0823160e01b81523060048201526000906001600160a01b038416906370a0823190602401602060405180830381865afa158015611bab573d6000803e3d6000fd5b505050506040513d601f19601f82011682018060405250810190611bcf91906137b1565b905080600003611bde57505050565b6040517ffcd3533c000000000000000000000000000000000000000000000000000000008152600481018290526001600160a01b03838116602483015284169063fcd3533c90604401600060405180830381600087803b158015611c4157600080fd5b505af1158015611c55573d6000803e3d6000fd5b50505050505050565b6000546001600160a01b031633146113aa5760405162461bcd60e51b815260206004820181905260248201527f4f776e61626c653a2063616c6c6572206973206e6f7420746865206f776e6572604482015260640161142a565b6060600082600001516001600160a01b03166395d89b416040518163ffffffff1660e01b8152600401600060405180830381865afa158015611cfe573d6000803e3d6000fd5b505050506040513d6000823e601f3d908101601f19168201604052611d269190810190613c4b565b90506000611d3b846020015161ffff1661267c565b905060008282604051602001611d52929190613c94565b604051602081830303815290604052611d6a90613d16565b905060008383604051602001611d81929190613d3a565b604051602081830303815290604052611d9990613d16565b9050825184510160020280601e0183019250806006018201915050818187600001516001600160a01b031663313ce5676040518163ffffffff1660e01b8152600401602060405180830381865afa158015611df8573d6000803e3d6000fd5b505050506040513d601f19601f82011682018060405250810190611e1c9190613d92565b60f81b604051602001611e649392919092835260208301919091527fff0000000000000000000000000000000000000000000000000000000000000016604082015260410190565b604051602081830303815290604052945050505050919050565b6000611e898261271c565b6040517fa50e72320000000000000000000000000000000000000000000000000000000081529091506001600160a01b037f0000000000000000000000000000000000000000000000000000000000000000169063a50e723290611f179030907f00000000000000000000000000000000000000000000000000000000000000009087908790600401613daf565b600060405180830381600087803b158015611f3157600080fd5b505af1158015611f45573d6000803e3d6000fd5b505050505050565b83511561214c5760008460018651611f65919061357b565b81518110611f7557611f75613ded565b6020026020010151905060018551038552600088828888888888604051602001611fa59796959493929190613e03565b604051602081830303815290604052905060018651018652600060036000611fcc85612667565b815260200190815260200160002060009054906101000a90046001600160a01b031690506000816001600160a01b031663c55dae636040518163ffffffff1660e01b8152600401602060405180830381865afa158015612030573d6000803e3d6000fd5b505050506040513d601f19601f8201168201806040525081019061205491906134b4565b6040516370a0823160e01b81523060048201526001600160a01b0391909116906370a0823190602401602060405180830381865afa15801561209a573d6000803e3d6000fd5b505050506040513d601f19601f820116820180604052508101906120be91906137b1565b84602001516120cd919061357b565b60405163168da99d60e31b81529091506001600160a01b0383169063b46d4ce89061211190309061ffff9067ffffffffffffffff9087906001908b90600401613e8a565b600060405180830381600087803b15801561212b57600080fd5b505af115801561213f573d6000803e3d6000fd5b5050505050505050611c55565b8451156122575760008560018751612164919061357b565b8151811061217457612174613ded565b60200260200101519050600186510386526000888288888888886040516020016121a49796959493929190613e03565b6040516020818303038152906040529050600187510187526000600360006121cb85612667565b8152602080820192909252604090810160009081205492860151915163168da99d60e31b81526001600160a01b039093169350839263b46d4ce89261221d923092909182916002908a90600401613e8a565b600060405180830381600087803b15801561223757600080fd5b505af115801561224b573d6000803e3d6000fd5b50505050505050611c55565b801561227657604051630f271b5560e41b815260040160405180910390fd5b611c55868885612782565b6000815167ffffffffffffffff81111561229d5761229d612f53565b6040519080825280602002602001820160405280156122c6578160200160208202803683370190505b5090506000825167ffffffffffffffff8111156122e5576122e5612f53565b60405190808252806020026020018201604052801561230e578160200160208202803683370190505b50905060005b83518110156123a05761233f84828151811061233257612332613ded565b6020026020010151612667565b83828151811061235157612351613ded565b60200260200101818152505083818151811061236f5761236f613ded565b60200260200101516020015182828151811061238d5761238d613ded565b6020908102919091010152600101612314565b5060006123ac8461271c565b6040517fa7eaa1860000000000000000000000000000000000000000000000000000000081529091506001600160a01b037f0000000000000000000000000000000000000000000000000000000000000000169063a7eaa1869061243c907f0000000000000000000000000000000000000000000000000000000000000000908790879030908890600401613f05565b600060405180830381600087803b15801561245657600080fd5b505af115801561246a573d6000803e3d6000fd5b5050505050505050565b600061247f426129e3565b905090565b6001805473ffffffffffffffffffffffffffffffffffffffff1916905561143c81612ad1565b6020810135156125bf57816001600160a01b0316632495a5996040518163ffffffff1660e01b8152600401602060405180830381865afa1580156124f2573d6000803e3d6000fd5b505050506040513d601f19601f8201168201806040525081019061251691906134b4565b6001600160a01b031663d505accf33308435602086013561253d6060880160408901613c2e565b60405160e087901b6001600160e01b03191681526001600160a01b0395861660048201529490931660248501526044840191909152606483015260ff166084820152606084013560a4820152608084013560c482015260e401600060405180830381600087803b1580156125b057600080fd5b505af1925050508015611b5f57505b5050565b60006125cf8284613f63565b9392505050565b6040516001600160a01b038316602482015260448101829052611b5f9084907fa9059cbb00000000000000000000000000000000000000000000000000000000906064015b60408051601f198184030181529190526020810180517bffffffffffffffffffffffffffffffffffffffffffffffffffffffff166001600160e01b031990931692909217909152612b2e565b80516020810151905160009160a01b016103c9565b6060600061268983612c16565b600101905060008167ffffffffffffffff8111156126a9576126a9612f53565b6040519080825280601f01601f1916602001820160405280156126d3576020820181803683370190505b5090508181016020015b600019017f3031323334353637383961626364656600000000000000000000000000000000600a86061a8153600a85049450846126dd57509392505050565b606060005b825181101561277c578161275184838151811061274057612740613ded565b602002602001015160000151611cb8565b604051602001612762929190613f94565b60408051601f198184030181529190529150600101612721565b50919050565b6000836001600160a01b0316632495a5996040518163ffffffff1660e01b8152600401602060405180830381865afa1580156127c2573d6000803e3d6000fd5b505050506040513d601f19601f820116820180604052508101906127e691906134b4565b6040516370a0823160e01b81523060048201529091506000906001600160a01b038616906370a0823190602401602060405180830381865afa158015612830573d6000803e3d6000fd5b505050506040513d601f19601f8201168201806040525081019061285491906137b1565b6040516370a0823160e01b81523060048201529091506000906001600160a01b038416906370a0823190602401602060405180830381865afa15801561289e573d6000803e3d6000fd5b505050506040513d601f19601f820116820180604052508101906128c291906137b1565b90506128ce8183613fc3565b8411156128f4576128ef6001600160a01b0384168630858803859003612cf8565b508083035b8015611f455760405163095ea7b360e01b81526001600160a01b0387811660048301526024820183905284169063095ea7b3906044016020604051808303816000875af1158015612949573d6000803e3d6000fd5b505050506040513d601f19601f8201168201806040525081019061296d9190613a0a565b506040517f94bf804d000000000000000000000000000000000000000000000000000000008152600481018290523060248201526001600160a01b038716906394bf804d90604401600060405180830381600087803b1580156129cf57600080fd5b505af1158015611aaa573d6000803e3d6000fd5b600080620151808304905080622649658101600062023ab1600483020590506004600362023ab18302010590910390600062164b09610fa0600185010205905060046105b58202058303601f019250600061098f8460500281612a4857612a48613f7e565b059050600b8105935083600c0281600201039050838260318503606402010191506000600180836107b28603600c02010381612a8657612a86613f7e565b04905061ffff811115612ac5576040517f73cde75100000000000000000000000000000000000000000000000000000000815260040160405180910390fd5b98975050505050505050565b600080546001600160a01b0383811673ffffffffffffffffffffffffffffffffffffffff19831681178455604051919092169283917f8be0079c531659141344cd1fd0a4f28419497f9722a3daafe3b4186f6b6457e09190a35050565b6000612b83826040518060400160405280602081526020017f5361666545524332303a206c6f772d6c6576656c2063616c6c206661696c6564815250856001600160a01b0316612d309092919063ffffffff16565b9050805160001480612ba4575080806020019051810190612ba49190613a0a565b611b5f5760405162461bcd60e51b815260206004820152602a60248201527f5361666545524332303a204552433230206f7065726174696f6e20646964206e60448201527f6f74207375636365656400000000000000000000000000000000000000000000606482015260840161142a565b6000807a184f03e93ff9f4daa797ed6e38ed64bf6a1f0100000000000000008310612c5f577a184f03e93ff9f4daa797ed6e38ed64bf6a1f010000000000000000830492506040015b6d04ee2d6d415b85acef81000000008310612c8b576d04ee2d6d415b85acef8100000000830492506020015b662386f26fc100008310612ca957662386f26fc10000830492506010015b6305f5e1008310612cc1576305f5e100830492506008015b6127108310612cd557612710830492506004015b60648310612ce7576064830492506002015b600a83106103c95760010192915050565b6040516001600160a01b0380851660248301528316604482015260648101829052611b5d9085906323b872dd60e01b9060840161261b565b6060612d3f8484600085612d47565b949350505050565b606082471015612dbf5760405162461bcd60e51b815260206004820152602660248201527f416464726573733a20696e73756666696369656e742062616c616e636520666f60448201527f722063616c6c0000000000000000000000000000000000000000000000000000606482015260840161142a565b600080866001600160a01b03168587604051612ddb9190613fd6565b60006040518083038185875af1925050503d8060008114612e18576040519150601f19603f3d011682016040523d82523d6000602084013e612e1d565b606091505b5091509150612e2e87838387612e39565b979650505050505050565b60608315612ea8578251600003612ea1576001600160a01b0385163b612ea15760405162461bcd60e51b815260206004820152601d60248201527f416464726573733a2063616c6c20746f206e6f6e2d636f6e7472616374000000604482015260640161142a565b5081612d3f565b612d3f8383815115612ebd5781518083602001fd5b8060405162461bcd60e51b815260040161142a9190613188565b600060208284031215612ee957600080fd5b81356001600160e01b0319811681146125cf57600080fd5b60006080828403121561277c57600080fd5b60008060008060e08587031215612f2957600080fd5b843593506020850135925060408501359150612f488660608701612f01565b905092959194509250565b634e487b7160e01b600052604160045260246000fd5b6040805190810167ffffffffffffffff81118282101715612f8c57612f8c612f53565b60405290565b60405160a0810167ffffffffffffffff81118282101715612f8c57612f8c612f53565b604051601f8201601f1916810167ffffffffffffffff81118282101715612fde57612fde612f53565b604052919050565b6001600160a01b038116811461143c57600080fd5b61ffff8116811461143c57600080fd5b60006040828403121561301d57600080fd5b613025612f69565b9050813561303281612fe6565b8152602082013561304281612ffb565b602082015292915050565b6000806060838503121561306057600080fd5b61306a848461300b565b9150604083013561307a81612fe6565b809150509250929050565b600067ffffffffffffffff82111561309f5761309f612f53565b50601f01601f191660200190565b600082601f8301126130be57600080fd5b81356130d16130cc82613085565b612fb5565b8181528460208386010111156130e657600080fd5b816020850160208301376000918101602001919091529392505050565b60006020828403121561311557600080fd5b813567ffffffffffffffff81111561312c57600080fd5b612d3f848285016130ad565b60005b8381101561315357818101518382015260200161313b565b50506000910152565b60008151808452613174816020860160208601613138565b601f01601f19169290920160200192915050565b6020815260006125cf602083018461315c565b60008060a083850312156131ae57600080fd5b823591506131bf8460208501612f01565b90509250929050565b60008060008060008587036101208112156131e257600080fd5b86356131ed81612fe6565b955060208701359450604087013561320481612ffb565b93506060870135925060a0607f198201121561321f57600080fd5b506080860190509295509295909350565b600067ffffffffffffffff82111561324a5761324a612f53565b5060051b60200190565b600082601f83011261326557600080fd5b813560206132756130cc83613230565b82815260059290921b8401810191818101908684111561329457600080fd5b8286015b848110156132af5780358352918301918301613298565b509695505050505050565b600080600080600060a086880312156132d257600080fd5b85356132dd81612fe6565b945060208601356132ed81612fe6565b9350604086013567ffffffffffffffff8082111561330a57600080fd5b61331689838a01613254565b9450606088013591508082111561332c57600080fd5b61333889838a01613254565b9350608088013591508082111561334e57600080fd5b5061335b888289016130ad565b9150509295509295909350565b60006040828403121561337a57600080fd5b6125cf838361300b565b600080600080600060a0868803121561339c57600080fd5b85356133a781612fe6565b945060208601356133b781612fe6565b93506040860135925060608601359150608086013567ffffffffffffffff8111156133e157600080fd5b61335b888289016130ad565b6000602082840312156133ff57600080fd5b81356125cf81612fe6565b60008060008060008060a0878903121561342357600080fd5b863561342e81612fe6565b9550602087013561343e81612fe6565b94506040870135935060608701359250608087013567ffffffffffffffff8082111561346957600080fd5b818901915089601f83011261347d57600080fd5b81358181111561348c57600080fd5b8a602082850101111561349e57600080fd5b6020830194508093505050509295509295509295565b6000602082840312156134c657600080fd5b81516125cf81612fe6565b805180151581146134e157600080fd5b919050565b600060a082840312156134f857600080fd5b613500612f92565b825161350b81612fe6565b8152602083015167ffffffffffffffff8116811461352857600080fd5b6020820152604083015161353b81612ffb565b604082015261354c606084016134d1565b6060820152608083015160808201528091505092915050565b634e487b7160e01b600052601160045260246000fd5b818103818111156103c9576103c9613565565b8381526001600160a01b03831660208201526060604082015260006135b6606083018461315c565b95945050505050565b60006135cd6130cc84613085565b90508281528383830111156135e157600080fd5b6125cf836020830184613138565b600082601f83011261360057600080fd5b6125cf838351602085016135bf565b60006020828403121561362157600080fd5b815167ffffffffffffffff81111561363857600080fd5b612d3f848285016135ef565b6001600160a01b03841681528260208201526060604082015260006135b6606083018461315c565b80516fffffffffffffffffffffffffffffffff811681146134e157600080fd5b600060a0828403121561369e57600080fd5b6136a6612f92565b82516136b181612fe6565b81526020830151600381106136c557600080fd5b60208201526136d66040840161366c565b60408201526136e76060840161366c565b606082015260808301516136fa81612fe6565b60808201529392505050565b60008060006060848603121561371b57600080fd5b83519250602084015161372d81612fe6565b604085015190925067ffffffffffffffff81111561374a57600080fd5b613756868287016135ef565b9150509250925092565b6000806040838503121561377357600080fd5b825161377e81612fe6565b602084015190925067ffffffffffffffff81111561379b57600080fd5b6137a7858286016135ef565b9150509250929050565b6000602082840312156137c357600080fd5b5051919050565b600080600080608085870312156137e057600080fd5b8451935060208501516137f281612ffb565b6040860151606090960151949790965092505050565b600082601f83011261381957600080fd5b815160206138296130cc83613230565b8281526060928302850182019282820191908785111561384857600080fd5b8387015b858110156138bd57808903828112156138655760008081fd5b61386d612f69565b60408083121561387d5760008081fd5b613885612f69565b9250835161389281612fe6565b8352838801516138a181612ffb565b838901529181529082015181870152845292840192810161384c565b5090979650505050505050565b6000806000606084860312156138df57600080fd5b835167ffffffffffffffff808211156138f757600080fd5b61390387838801613808565b9450602086015191508082111561391957600080fd5b5061392686828701613808565b925050604084015190509250925092565b60007f8000000000000000000000000000000000000000000000000000000000000000820361396857613968613565565b5060000390565b600081518084526020808501945080840160005b838110156139c3578151805180516001600160a01b0316895260209081015161ffff16818a01520151604088015260609096019590820190600101613983565b509495945050505050565b6060815260006139e1606083018561396f565b6001600160a01b0384166020840152828103604084015260008152602081019150509392505050565b600060208284031215613a1c57600080fd5b6125cf826134d1565b6020815260006125cf602083018461396f565b61ffff828116828216039080821115613a5357613a53613565565b5092915050565b6001600160a01b0383168152604060208201526000612d3f604083018461315c565b60ff841681526001600160a01b03831660208201526060604082015260006135b6606083018461315c565b600060608284031215613ab957600080fd5b613ac1612f69565b9050613acd838361300b565b81526040820135602082015292915050565b600082601f830112613af057600080fd5b81356020613b006130cc83613230565b82815260609283028501820192828201919087851115613b1f57600080fd5b8387015b858110156138bd57613b358982613aa7565b8452928401928101613b23565b6000806000806000806000610120888a031215613b5e57600080fd5b8735613b6981612fe6565b9650613b788960208a01613aa7565b9550608088013567ffffffffffffffff80821115613b9557600080fd5b613ba18b838c01613adf565b965060a08a0135915080821115613bb757600080fd5b50613bc48a828b01613adf565b979a969950949760c08101359660e0820135965061010090910135945092505050565b60006001600160a01b03808816835286602084015285604084015280851660608401525060a06080830152612e2e60a083018461315c565b60ff8116811461143c57600080fd5b600060208284031215613c4057600080fd5b81356125cf81613c1f565b600060208284031215613c5d57600080fd5b815167ffffffffffffffff811115613c7457600080fd5b8201601f81018413613c8557600080fd5b612d3f848251602084016135bf565b60008351613ca6818460208801613138565b7f20426f6e6420436f75706f6e20280000000000000000000000000000000000009083019081528351613ce081600e840160208801613138565b7f2900000000000000000000000000000000000000000000000000000000000000600e9290910191820152600f01949350505050565b8051602080830151919081101561277c5760001960209190910360031b1b16919050565b60008351613d4c818460208801613138565b7f2d435000000000000000000000000000000000000000000000000000000000009083019081528351613d86816003840160208801613138565b01600301949350505050565b600060208284031215613da457600080fd5b81516125cf81613c1f565b60006001600160a01b03808716835280861660208401525060806040830152613ddb608083018561396f565b8281036060840152612e2e818561315c565b634e487b7160e01b600052603260045260246000fd5b60006101206001600160a01b038a168352613e43602084018a805180516001600160a01b0316835260209081015161ffff16818401520151604090910152565b806080840152613e558184018961396f565b905082810360a0840152613e69818861396f565b60c0840196909652505060e081019290925261010090910152949350505050565b6001600160a01b038716815261ffff8616602082015267ffffffffffffffff8516604082015283606082015260ff8316608082015260c060a08201526000612ac560c083018461315c565b600081518084526020808501945080840160005b838110156139c357815187529582019590820190600101613ee9565b60006001600160a01b03808816835260a06020840152613f2860a0840188613ed5565b8381036040850152613f3a8188613ed5565b905081861660608501528381036080850152613f56818661315c565b9998505050505050505050565b61ffff818116838216019080821115613a5357613a53613565565b634e487b7160e01b600052601260045260246000fd5b60008351613fa6818460208801613138565b835190830190613fba818360208801613138565b01949350505050565b808201808211156103c9576103c9613565565b60008251613fe8818460208701613138565b919091019291505056fea2646970667358221220bc4037f22edd655875fc9ebee73fb8e1bcd06849fba1cb095328ffb63313268364736f6c63430008130033",
  "devdoc": {
    "kind": "dev",
    "methods": {
      "acceptOwnership()": {
        "details": "The new owner accepts the ownership transfer."
      },
      "owner()": {
        "details": "Returns the address of the current owner."
      },
      "pendingOwner()": {
        "details": "Returns the address of the pending owner."
      },
      "renounceOwnership()": {
        "details": "Leaves the contract without owner. It will not be possible to call `onlyOwner` functions. Can only be called by the current owner. NOTE: Renouncing ownership will leave the contract without an owner, thereby disabling any functionality that is only available to the owner."
      },
      "supportsInterface(bytes4)": {
        "details": "See {IERC165-supportsInterface}."
      },
      "transferOwnership(address)": {
        "details": "Starts the ownership transfer of the contract to a new account. Replaces the pending transfer if there is one. Can only be called by the current owner."
      }
    },
    "version": 1
  },
  "userdoc": {
    "kind": "user",
    "methods": {},
    "version": 1
  },
  "storageLayout": {
    "storage": [
      {
        "astId": 7,
        "contract": "contracts/DepositController.sol:DepositController",
        "label": "_owner",
        "offset": 0,
        "slot": "0",
        "type": "t_address"
      },
      {
        "astId": 120,
        "contract": "contracts/DepositController.sol:DepositController",
        "label": "_pendingOwner",
        "offset": 0,
        "slot": "1",
        "type": "t_address"
      },
      {
        "astId": 18385,
        "contract": "contracts/DepositController.sol:DepositController",
        "label": "_locked",
        "offset": 0,
        "slot": "2",
        "type": "t_uint256"
      },
      {
        "astId": 15482,
        "contract": "contracts/DepositController.sol:DepositController",
        "label": "_couponMarkets",
        "offset": 0,
        "slot": "3",
        "type": "t_mapping(t_uint256,t_address)"
      }
    ],
    "types": {
      "t_address": {
        "encoding": "inplace",
        "label": "address",
        "numberOfBytes": "20"
      },
      "t_mapping(t_uint256,t_address)": {
        "encoding": "mapping",
        "key": "t_uint256",
        "label": "mapping(uint256 => address)",
        "numberOfBytes": "32",
        "value": "t_address"
      },
      "t_uint256": {
        "encoding": "inplace",
        "label": "uint256",
        "numberOfBytes": "32"
      }
    }
  }
}