{
  "address": "0xF71D8Fbf7c605E21F5ED3728F36F203B5CEc1413",
  "abi": [
    {
      "inputs": [
        {
          "internalType": "address",
          "name": "wrapped1155Factory",
          "type": "address"
        },
        {
          "internalType": "address",
          "name": "cloberMarketFactory",
          "type": "address"
        },
        {
          "internalType": "address",
          "name": "couponManager",
          "type": "address"
        },
        {
          "internalType": "address",
          "name": "weth",
          "type": "address"
        },
        {
          "internalType": "address",
          "name": "loanPositionManager",
          "type": "address"
        },
        {
          "internalType": "address",
          "name": "router",
          "type": "address"
        }
      ],
      "stateMutability": "nonpayable",
      "type": "constructor"
    },
    {
      "inputs": [
        {
          "internalType": "string",
          "name": "reason",
          "type": "string"
        }
      ],
      "name": "CollateralSwapFailed",
      "type": "error"
    },
    {
      "inputs": [],
      "name": "ControllerSlippage",
      "type": "error"
    },
    {
      "inputs": [],
      "name": "EpochOverflow",
      "type": "error"
    },
    {
      "inputs": [],
      "name": "InvalidAccess",
      "type": "error"
    },
    {
      "inputs": [],
      "name": "InvalidMarket",
      "type": "error"
    },
    {
      "inputs": [],
      "name": "Reentrancy",
      "type": "error"
    },
    {
      "anonymous": false,
      "inputs": [
        {
          "indexed": true,
          "internalType": "address",
          "name": "previousOwner",
          "type": "address"
        },
        {
          "indexed": true,
          "internalType": "address",
          "name": "newOwner",
          "type": "address"
        }
      ],
      "name": "OwnershipTransferStarted",
      "type": "event"
    },
    {
      "anonymous": false,
      "inputs": [
        {
          "indexed": true,
          "internalType": "address",
          "name": "previousOwner",
          "type": "address"
        },
        {
          "indexed": true,
          "internalType": "address",
          "name": "newOwner",
          "type": "address"
        }
      ],
      "name": "OwnershipTransferred",
      "type": "event"
    },
    {
      "anonymous": false,
      "inputs": [
        {
          "indexed": true,
          "internalType": "address",
          "name": "asset",
          "type": "address"
        },
        {
          "indexed": true,
          "internalType": "Epoch",
          "name": "epoch",
          "type": "uint16"
        },
        {
          "indexed": true,
          "internalType": "address",
          "name": "cloberMarket",
          "type": "address"
        }
      ],
      "name": "SetCouponMarket",
      "type": "event"
    },
    {
      "inputs": [],
      "name": "acceptOwnership",
      "outputs": [],
      "stateMutability": "nonpayable",
      "type": "function"
    },
    {
      "inputs": [
        {
          "internalType": "address",
          "name": "inputToken",
          "type": "address"
        },
        {
          "internalType": "address",
          "name": "",
          "type": "address"
        },
        {
          "internalType": "uint256",
          "name": "inputAmount",
          "type": "uint256"
        },
        {
          "internalType": "uint256",
          "name": "outputAmount",
          "type": "uint256"
        },
        {
          "internalType": "bytes",
          "name": "data",
          "type": "bytes"
        }
      ],
      "name": "cloberMarketSwapCallback",
      "outputs": [],
      "stateMutability": "payable",
      "type": "function"
    },
    {
      "inputs": [
        {
          "components": [
            {
              "internalType": "address",
              "name": "asset",
              "type": "address"
            },
            {
              "internalType": "Epoch",
              "name": "epoch",
              "type": "uint16"
            }
          ],
          "internalType": "struct CouponKey",
          "name": "couponKey",
          "type": "tuple"
        }
      ],
      "name": "getCouponMarket",
      "outputs": [
        {
          "internalType": "address",
          "name": "",
          "type": "address"
        }
      ],
      "stateMutability": "view",
      "type": "function"
    },
    {
      "inputs": [
        {
          "internalType": "address",
          "name": "collateralToken",
          "type": "address"
        },
        {
          "internalType": "address",
          "name": "debtToken",
          "type": "address"
        },
        {
          "internalType": "uint256",
          "name": "collateralAmount",
          "type": "uint256"
        },
        {
          "internalType": "uint256",
          "name": "borrowAmount",
          "type": "uint256"
        },
        {
          "internalType": "uint256",
          "name": "maxPayInterest",
          "type": "uint256"
        },
        {
          "internalType": "uint16",
          "name": "loanEpochs",
          "type": "uint16"
        },
        {
          "internalType": "bytes",
          "name": "swapData",
          "type": "bytes"
        },
        {
          "components": [
            {
              "internalType": "uint256",
              "name": "permitAmount",
              "type": "uint256"
            },
            {
              "components": [
                {
                  "internalType": "uint256",
                  "name": "deadline",
                  "type": "uint256"
                },
                {
                  "internalType": "uint8",
                  "name": "v",
                  "type": "uint8"
                },
                {
                  "internalType": "bytes32",
                  "name": "r",
                  "type": "bytes32"
                },
                {
                  "internalType": "bytes32",
                  "name": "s",
                  "type": "bytes32"
                }
              ],
              "internalType": "struct IController.PermitSignature",
              "name": "signature",
              "type": "tuple"
            }
          ],
          "internalType": "struct IController.ERC20PermitParams",
          "name": "collateralPermitParams",
          "type": "tuple"
        }
      ],
      "name": "leverage",
      "outputs": [],
      "stateMutability": "payable",
      "type": "function"
    },
    {
      "inputs": [
        {
          "internalType": "uint256",
          "name": "positionId",
          "type": "uint256"
        },
        {
          "internalType": "uint256",
          "name": "collateralAmount",
          "type": "uint256"
        },
        {
          "internalType": "uint256",
          "name": "debtAmount",
          "type": "uint256"
        },
        {
          "internalType": "uint256",
          "name": "maxPayInterest",
          "type": "uint256"
        },
        {
          "internalType": "bytes",
          "name": "swapData",
          "type": "bytes"
        },
        {
          "components": [
            {
              "internalType": "uint256",
              "name": "deadline",
              "type": "uint256"
            },
            {
              "internalType": "uint8",
              "name": "v",
              "type": "uint8"
            },
            {
              "internalType": "bytes32",
              "name": "r",
              "type": "bytes32"
            },
            {
              "internalType": "bytes32",
              "name": "s",
              "type": "bytes32"
            }
          ],
          "internalType": "struct IController.PermitSignature",
          "name": "positionPermitParams",
          "type": "tuple"
        },
        {
          "components": [
            {
              "internalType": "uint256",
              "name": "permitAmount",
              "type": "uint256"
            },
            {
              "components": [
                {
                  "internalType": "uint256",
                  "name": "deadline",
                  "type": "uint256"
                },
                {
                  "internalType": "uint8",
                  "name": "v",
                  "type": "uint8"
                },
                {
                  "internalType": "bytes32",
                  "name": "r",
                  "type": "bytes32"
                },
                {
                  "internalType": "bytes32",
                  "name": "s",
                  "type": "bytes32"
                }
              ],
              "internalType": "struct IController.PermitSignature",
              "name": "signature",
              "type": "tuple"
            }
          ],
          "internalType": "struct IController.ERC20PermitParams",
          "name": "collateralPermitParams",
          "type": "tuple"
        }
      ],
      "name": "leverageMore",
      "outputs": [],
      "stateMutability": "payable",
      "type": "function"
    },
    {
      "inputs": [
        {
          "internalType": "address",
          "name": "",
          "type": "address"
        },
        {
          "internalType": "address",
          "name": "",
          "type": "address"
        },
        {
          "internalType": "uint256[]",
          "name": "",
          "type": "uint256[]"
        },
        {
          "internalType": "uint256[]",
          "name": "",
          "type": "uint256[]"
        },
        {
          "internalType": "bytes",
          "name": "",
          "type": "bytes"
        }
      ],
      "name": "onERC1155BatchReceived",
      "outputs": [
        {
          "internalType": "bytes4",
          "name": "",
          "type": "bytes4"
        }
      ],
      "stateMutability": "nonpayable",
      "type": "function"
    },
    {
      "inputs": [
        {
          "internalType": "address",
          "name": "",
          "type": "address"
        },
        {
          "internalType": "address",
          "name": "",
          "type": "address"
        },
        {
          "internalType": "uint256",
          "name": "",
          "type": "uint256"
        },
        {
          "internalType": "uint256",
          "name": "",
          "type": "uint256"
        },
        {
          "internalType": "bytes",
          "name": "",
          "type": "bytes"
        }
      ],
      "name": "onERC1155Received",
      "outputs": [
        {
          "internalType": "bytes4",
          "name": "",
          "type": "bytes4"
        }
      ],
      "stateMutability": "nonpayable",
      "type": "function"
    },
    {
      "inputs": [],
      "name": "owner",
      "outputs": [
        {
          "internalType": "address",
          "name": "",
          "type": "address"
        }
      ],
      "stateMutability": "view",
      "type": "function"
    },
    {
      "inputs": [],
      "name": "pendingOwner",
      "outputs": [
        {
          "internalType": "address",
          "name": "",
          "type": "address"
        }
      ],
      "stateMutability": "view",
      "type": "function"
    },
    {
      "inputs": [
        {
          "internalType": "bytes",
          "name": "data",
          "type": "bytes"
        }
      ],
      "name": "positionLockAcquired",
      "outputs": [
        {
          "internalType": "bytes",
          "name": "result",
          "type": "bytes"
        }
      ],
      "stateMutability": "nonpayable",
      "type": "function"
    },
    {
      "inputs": [],
      "name": "renounceOwnership",
      "outputs": [],
      "stateMutability": "nonpayable",
      "type": "function"
    },
    {
      "inputs": [
        {
          "components": [
            {
              "internalType": "address",
              "name": "asset",
              "type": "address"
            },
            {
              "internalType": "Epoch",
              "name": "epoch",
              "type": "uint16"
            }
          ],
          "internalType": "struct CouponKey",
          "name": "couponKey",
          "type": "tuple"
        },
        {
          "internalType": "address",
          "name": "cloberMarket",
          "type": "address"
        }
      ],
      "name": "setCouponMarket",
      "outputs": [],
      "stateMutability": "nonpayable",
      "type": "function"
    },
    {
      "inputs": [
        {
          "internalType": "bytes4",
          "name": "interfaceId",
          "type": "bytes4"
        }
      ],
      "name": "supportsInterface",
      "outputs": [
        {
          "internalType": "bool",
          "name": "",
          "type": "bool"
        }
      ],
      "stateMutability": "view",
      "type": "function"
    },
    {
      "inputs": [
        {
          "internalType": "address",
          "name": "newOwner",
          "type": "address"
        }
      ],
      "name": "transferOwnership",
      "outputs": [],
      "stateMutability": "nonpayable",
      "type": "function"
    },
    {
      "stateMutability": "payable",
      "type": "receive"
    }
  ],
  "transactionHash": "0x3986299ff0af94ba547096c762d62a24ee4073f4e4c3ca5499dc94929b4e8a23",
  "args": [
    "0xfcBE16BfD991E4949244E59d9b524e6964b8BB75",
    "0x24aC0938C010Fb520F1068e96d78E0458855111D",
    "0x8bbcA766D175aDbffB073832262990df1c5ef748",
    "0x82aF49447D8a07e3bd95BD0d56f35241523fBab1",
    "0x03d65411684ae7B5440E11a6063881a774C733dF",
    "0xa669e7A0d4b3e4Fa48af2dE86BD4CD7126Be4e13"
  ],
  "numDeployments": 1,
  "solcInputHash": "79048f46984044ebed3dd29bb6e9cb9d",
  "bytecode": "0x61014060405260016002553480156200001757600080fd5b5060405162004ac338038062004ac38339810160408190526200003a9162000109565b8585858562000049336200007e565b6001600160a01b0393841660805291831660a052821660c052811660e052918216610100521661012052506200018a92505050565b600180546001600160a01b031916905562000099816200009c565b50565b600080546001600160a01b038381166001600160a01b0319831681178455604051919092169283917f8be0079c531659141344cd1fd0a4f28419497f9722a3daafe3b4186f6b6457e09190a35050565b80516001600160a01b03811681146200010457600080fd5b919050565b60008060008060008060c087890312156200012357600080fd5b6200012e87620000ec565b95506200013e60208801620000ec565b94506200014e60408801620000ec565b93506200015e60608801620000ec565b92506200016e60808801620000ec565b91506200017e60a08801620000ec565b90509295509295509295565b60805160a05160c05160e0516101005161012051614817620002ac60003960008181612640015281816126c2015261278f0152600081816104740152818161051f015281816105a70152818161064f01528181610a8401528181610b4e01528181610bfd01528181610d0101528181610d8501528181610e7d01528181610f1301528181611000015281816110c20152818161113f015281816111d9015281816112b40152818161134b0152818161154701526116130152600081816103c6015281816113ed0152818161257d01526125b601526000818161078b01528181611a84015281816120180152612e7001526000818161084901526117e701526000818161075c01528181611a55015281816120470152612e4301526148176000f3fe6080604052600436106100e15760003560e01c80638da5cb5b1161007f578063e30c397811610059578063e30c397814610298578063f23a6e61146102b6578063f2fde38b146102fb578063fd235fda1461031b57600080fd5b80638da5cb5b146101c1578063bc197c81146101f3578063bf4415dc1461025157600080fd5b806346a114e2116100bb57806346a114e21461015757806347dd8b1314610184578063715018a61461019757806379ba5097146101ac57600080fd5b806301ffc9a7146100ed5780632543634a1461012257806329b084c11461013757600080fd5b366100e857005b600080fd5b3480156100f957600080fd5b5061010d6101083660046135c1565b61032e565b60405190151581526020015b60405180910390f35b61013561013036600461370e565b610397565b005b34801561014357600080fd5b50610135610152366004613809565b61072a565b34801561016357600080fd5b50610177610172366004613841565b610a77565b60405161011991906138c6565b6101356101923660046138d9565b6113be565b3480156101a357600080fd5b50610135611689565b3480156101b857600080fd5b5061013561169d565b3480156101cd57600080fd5b506000546001600160a01b03165b6040516001600160a01b039091168152602001610119565b3480156101ff57600080fd5b5061023861020e366004613a07565b7fbc197c810000000000000000000000000000000000000000000000000000000095945050505050565b6040516001600160e01b03199091168152602001610119565b34801561025d57600080fd5b506101db61026c366004613ab5565b602081810151915160a09290921b9091016000908152600390915260409020546001600160a01b031690565b3480156102a457600080fd5b506001546001600160a01b03166101db565b3480156102c257600080fd5b506102386102d1366004613ad1565b7ff23a6e610000000000000000000000000000000000000000000000000000000095945050505050565b34801561030757600080fd5b50610135610316366004613b3a565b611730565b610135610329366004613b57565b6117ae565b60006001600160e01b031982167f4e2312e000000000000000000000000000000000000000000000000000000000148061039157507f01ffc9a7000000000000000000000000000000000000000000000000000000006001600160e01b03198316145b92915050565b6002546001146103ba5760405163558a1e0360e11b815260040160405180910390fd5b600280554715610439577f00000000000000000000000000000000000000000000000000000000000000006001600160a01b031663d0e30db0476040518263ffffffff1660e01b81526004016000604051808303818588803b15801561041f57600080fd5b505af1158015610433573d6000803e3d6000fd5b50505050505b6040517f6352211e00000000000000000000000000000000000000000000000000000000815260048101889052879033906001600160a01b037f00000000000000000000000000000000000000000000000000000000000000001690636352211e90602401602060405180830381865afa1580156104bb573d6000803e3d6000fd5b505050506040513d601f19601f820116820180604052508101906104df9190613c11565b6001600160a01b03161461050657604051633006171960e21b815260040160405180910390fd5b60405163eb02c30160e01b8152600481018990526000907f00000000000000000000000000000000000000000000000000000000000000006001600160a01b03169063eb02c3019060240160e060405180830381865afa15801561056e573d6000803e3d6000fd5b505050506040513d601f19601f820116820180604052508101906105929190613c49565b90506105a2816060015184611b0f565b6105cd7f00000000000000000000000000000000000000000000000000000000000000008a86611c2c565b878160a0018181516105df9190613cf5565b90525060c0810180518891906105f6908390613cf5565b90525060a08181015160c08084015160208086015160408051928301959095528185019290925261ffff9091166060820152608081018a9052600081850152825180820390940184529081019091526001600160a01b037f0000000000000000000000000000000000000000000000000000000000000000169063815483199061068a908d90339086908c9060e001613d08565b6040516020818303038152906040526040518263ffffffff1660e01b81526004016106b591906138c6565b6000604051808303816000875af11580156106d4573d6000803e3d6000fd5b505050506040513d6000823e601f3d908101601f191682016040526106fc9190810190613d92565b5061070b826060015133611cd9565b610719826080015133611cd9565b505060016002555050505050505050565b610732611dba565b600061073d83611e14565b90506000610756846020810151905160a09190911b0190565b905060007f00000000000000000000000000000000000000000000000000000000000000006001600160a01b03166308b2ea5e7f000000000000000000000000000000000000000000000000000000000000000084866040518463ffffffff1660e01b81526004016107ca93929190613dc7565b602060405180830381865afa1580156107e7573d6000803e3d6000fd5b505050506040513d601f19601f8201168201806040525081019061080b9190613c11565b6040517f0cf85bcc0000000000000000000000000000000000000000000000000000000081526001600160a01b0386811660048301529192506000917f00000000000000000000000000000000000000000000000000000000000000001690630cf85bcc9060240160a060405180830381865afa158015610890573d6000803e3d6000fd5b505050506040513d601f19601f820116820180604052508101906108b49190613e18565b80519091506001600160a01b031615806109415750816001600160a01b0316856001600160a01b031663c55dae636040518163ffffffff1660e01b8152600401602060405180830381865afa158015610911573d6000803e3d6000fd5b505050506040513d601f19601f820116820180604052508101906109359190613c11565b6001600160a01b031614155b806109c3575085600001516001600160a01b0316856001600160a01b031663217a4b706040518163ffffffff1660e01b8152600401602060405180830381865afa158015610993573d6000803e3d6000fd5b505050506040513d601f19601f820116820180604052508101906109b79190613c11565b6001600160a01b031614155b156109fa576040517f9db8d5b100000000000000000000000000000000000000000000000000000000815260040160405180910390fd5b6000838152600360209081526040808320805473ffffffffffffffffffffffffffffffffffffffff19166001600160a01b038a8116918217909255928a01518a519251939461ffff9091169392909116917f36b618d929a94eeca73ecddec2f5e49fdb6e4bde0a20e2987baaabb9e7fc21ab9190a4505050505050565b6060336001600160a01b037f00000000000000000000000000000000000000000000000000000000000000001614610ac257604051633006171960e21b815260040160405180910390fd5b600080606084806020019051810190610adb9190613eb0565b909750919450925090506000839003610be45760008086806020019051810190610b059190613f31565b6040517fee1fe2ad0000000000000000000000000000000000000000000000000000000081526001600160a01b0380851660048301528084166024830152919a509294509092507f0000000000000000000000000000000000000000000000000000000000000000169063ee1fe2ad906044016020604051808303816000875af1158015610b97573d6000803e3d6000fd5b505050506040513d601f19601f82011682018060405250810190610bbb9190613f95565b945084604051602001610bd091815260200190565b604051602081830303815290604052955050505b60405163eb02c30160e01b8152600481018490526000907f00000000000000000000000000000000000000000000000000000000000000006001600160a01b03169063eb02c3019060240160e060405180830381865afa158015610c4c573d6000803e3d6000fd5b505050506040513d601f19601f82011682018060405250810190610c709190613c49565b905060008087806020019051810190610c899190613fae565b61ffff9092166020880181905260c0880184905260a088018590526040517f42e910af000000000000000000000000000000000000000000000000000000008152600481018c905260248101959095526044850193909352606484019290925290935091506000908190819081906001600160a01b037f000000000000000000000000000000000000000000000000000000000000000016906342e910af906084016000604051808303816000875af1158015610d4a573d6000803e3d6000fd5b505050506040513d6000823e601f3d908101601f19168201604052610d7291908101906140ba565b93509350935093506000821215610e2a577f00000000000000000000000000000000000000000000000000000000000000006001600160a01b03166301e3366788606001513085610dc29061412e565b6040516001600160e01b031960e086901b1681526001600160a01b0393841660048201529290911660248301526044820152606401600060405180830381600087803b158015610e1157600080fd5b505af1158015610e25573d6000803e3d6000fd5b505050505b6000811315610edc5760808701516040517f01e336670000000000000000000000000000000000000000000000000000000081526001600160a01b039182166004820152306024820152604481018390527f0000000000000000000000000000000000000000000000000000000000000000909116906301e3366790606401600060405180830381600087803b158015610ec357600080fd5b505af1158015610ed7573d6000803e3d6000fd5b505050505b835115610f85576040517f65ae58470000000000000000000000000000000000000000000000000000000081526001600160a01b037f000000000000000000000000000000000000000000000000000000000000000016906365ae584790610f4a90879030906004016141c5565b600060405180830381600087803b158015610f6457600080fd5b505af1158015610f78573d6000803e3d6000fd5b50505050610f8584611fda565b610faf898860800151868660008612610f9f576000610fa8565b610fa88661412e565b8b8b6120a9565b875115610fcc57610fc9876080015188606001518a6123dd565b50505b600082131561112157610fe487606001518a84612a9d565b606087015160405163095ea7b360e01b81526001600160a01b037f000000000000000000000000000000000000000000000000000000000000000081166004830152602482018590529091169063095ea7b3906044016020604051808303816000875af1158015611059573d6000803e3d6000fd5b505050506040513d601f19601f8201168201806040525081019061107d9190614201565b5060608701516040517f338b5dea0000000000000000000000000000000000000000000000000000000081526001600160a01b039182166004820152602481018490527f00000000000000000000000000000000000000000000000000000000000000009091169063338b5dea90604401600060405180830381600087803b15801561110857600080fd5b505af115801561111c573d6000803e3d6000fd5b505050505b60008112156112745760808701516001600160a01b031663095ea7b37f00000000000000000000000000000000000000000000000000000000000000006111678461412e565b6040516001600160e01b031960e085901b1681526001600160a01b03909216600483015260248201526044016020604051808303816000875af11580156111b2573d6000803e3d6000fd5b505050506040513d601f19601f820116820180604052508101906111d69190614201565b507f00000000000000000000000000000000000000000000000000000000000000006001600160a01b031663338b5dea8860800151836112159061412e565b6040516001600160e01b031960e085901b1681526001600160a01b0390921660048301526024820152604401600060405180830381600087803b15801561125b57600080fd5b505af115801561126f573d6000803e3d6000fd5b505050505b82511561131c5761128483612ce5565b6040517fe6ee95e20000000000000000000000000000000000000000000000000000000081526001600160a01b037f0000000000000000000000000000000000000000000000000000000000000000169063e6ee95e2906112e990869060040161421c565b600060405180830381600087803b15801561130357600080fd5b505af1158015611317573d6000803e3d6000fd5b505050505b6040517faba5b4b3000000000000000000000000000000000000000000000000000000008152600481018b90527f00000000000000000000000000000000000000000000000000000000000000006001600160a01b03169063aba5b4b390602401600060405180830381600087803b15801561139757600080fd5b505af11580156113ab573d6000803e3d6000fd5b5050505050505050505050505050919050565b6002546001146113e15760405163558a1e0360e11b815260040160405180910390fd5b600280554715611460577f00000000000000000000000000000000000000000000000000000000000000006001600160a01b031663d0e30db0476040518263ffffffff1660e01b81526004016000604051808303818588803b15801561144657600080fd5b505af115801561145a573d6000803e3d6000fd5b50505050505b61146a8882611b0f565b6000868661148e61147c60018861422f565b611484612ed8565b61ffff1690612ee8565b60408051602081019490945283019190915261ffff16606082015260808101869052600060a082015260c00160405160208183030381529060405290506000338a8a846040516020016114e393929190614251565b60408051601f1981840301815290829052611504939291879060200161427d565b60408051601f19818403018152908290527f8154831900000000000000000000000000000000000000000000000000000000825291506000906001600160a01b037f0000000000000000000000000000000000000000000000000000000000000000169063815483199061157c9085906004016138c6565b6000604051808303816000875af115801561159b573d6000803e3d6000fd5b505050506040513d6000823e601f3d908101601f191682016040526115c39190810190613d92565b90506000818060200190518101906115db9190613f95565b90506115e78b33611cd9565b6115f18a33611cd9565b6040516323b872dd60e01b8152306004820152336024820152604481018290527f00000000000000000000000000000000000000000000000000000000000000006001600160a01b0316906323b872dd90606401600060405180830381600087803b15801561165f57600080fd5b505af1158015611673573d6000803e3d6000fd5b5050600160025550505050505050505050505050565b611691611dba565b61169b6000612efb565b565b60015433906001600160a01b031681146117245760405162461bcd60e51b815260206004820152602960248201527f4f776e61626c6532537465703a2063616c6c6572206973206e6f74207468652060448201527f6e6577206f776e6572000000000000000000000000000000000000000000000060648201526084015b60405180910390fd5b61172d81612efb565b50565b611738611dba565b600180546001600160a01b03831673ffffffffffffffffffffffffffffffffffffffff1990911681179091556117766000546001600160a01b031690565b6001600160a01b03167f38d16b8cac22d99fc7c124b9cd0de2d3fa1faef420bfe791d8c362d765e2270060405160405180910390a350565b6040517fafdd9edc0000000000000000000000000000000000000000000000000000000081523360048201526000906001600160a01b037f0000000000000000000000000000000000000000000000000000000000000000169063afdd9edc90602401602060405180830381865afa15801561182e573d6000803e3d6000fd5b505050506040513d601f19601f820116820180604052508101906118529190613c11565b6001600160a01b03160361187957604051633006171960e21b815260040160405180910390fd5b6000336001600160a01b031663217a4b706040518163ffffffff1660e01b8152600401602060405180830381865afa1580156118b9573d6000803e3d6000fd5b505050506040513d601f19601f820116820180604052508101906118dd9190613c11565b604080516080810182526000918101828152606082018390528152602081018290529192509060608060008080611916898b018b614343565b959c50939a5091985096509450925090506001600160a01b03808f1690891603611969578b82101561195b57604051630f271b5560e41b815260040160405180910390fd5b918b0191908b90039061197d565b8a811115611979578a900361197d565b5060005b61198c878987878787876120a9565b505050505060008711156119ae576119ae6001600160a01b038a163389612f21565b6040516370a0823160e01b81523060048201526000906001600160a01b038b16906370a0823190602401602060405180830381865afa1580156119f5573d6000803e3d6000fd5b505050506040513d601f19601f82011682018060405250810190611a199190613f95565b9050896001600160a01b0316846001600160a01b031614158015611a3d5750600081115b15611b03576000611a518360000151611e14565b90507f00000000000000000000000000000000000000000000000000000000000000006001600160a01b03166352aecb247f0000000000000000000000000000000000000000000000000000000000000000611aac86612fb2565b8588866040518663ffffffff1660e01b8152600401611acf9594939291906143e8565b600060405180830381600087803b158015611ae957600080fd5b505af1158015611afd573d6000803e3d6000fd5b50505050505b50505050505050505050565b602081013515611c2857816001600160a01b0316632495a5996040518163ffffffff1660e01b8152600401602060405180830381865afa158015611b57573d6000803e3d6000fd5b505050506040513d601f19601f82011682018060405250810190611b7b9190613c11565b6001600160a01b031663d505accf333084356020860135611ba2606088016040890161442f565b60405160e087901b6001600160e01b03191681526001600160a01b0395861660048201529490931660248501526044840191909152606483015260ff166084820152606084013560a4820152608084013560c482015260e401600060405180830381600087803b158015611c1557600080fd5b505af1925050508015611c26575060015b505b5050565b803515611c26576001600160a01b038316637ac2ff7b30848435611c56604087016020880161442f565b604080516001600160e01b031960e088901b1681526001600160a01b0390951660048601526024850193909352604484019190915260ff1660648301528401356084820152606084013560a482015260c401600060405180830381600087803b158015611cc257600080fd5b505af1925050508015611cd3575060015b50505050565b6040516370a0823160e01b81523060048201526000906001600160a01b038416906370a0823190602401602060405180830381865afa158015611d20573d6000803e3d6000fd5b505050506040513d601f19601f82011682018060405250810190611d449190613f95565b905080600003611d5357505050565b604051633f34d4cf60e21b8152600481018290526001600160a01b03838116602483015284169063fcd3533c90604401600060405180830381600087803b158015611d9d57600080fd5b505af1158015611db1573d6000803e3d6000fd5b50505050505050565b6000546001600160a01b0316331461169b5760405162461bcd60e51b815260206004820181905260248201527f4f776e61626c653a2063616c6c6572206973206e6f7420746865206f776e6572604482015260640161171b565b6060600082600001516001600160a01b03166395d89b416040518163ffffffff1660e01b8152600401600060405180830381865afa158015611e5a573d6000803e3d6000fd5b505050506040513d6000823e601f3d908101601f19168201604052611e82919081019061444c565b90506000611e97846020015161ffff16612fc7565b905060008282604051602001611eae929190614495565b604051602081830303815290604052611ec690614517565b905060008383604051602001611edd92919061453b565b604051602081830303815290604052611ef590614517565b9050825184510160020280601e0183019250806006018201915050818187600001516001600160a01b031663313ce5676040518163ffffffff1660e01b8152600401602060405180830381865afa158015611f54573d6000803e3d6000fd5b505050506040513d601f19601f82011682018060405250810190611f789190614593565b60f81b604051602001611fc09392919092835260208301919091527fff0000000000000000000000000000000000000000000000000000000000000016604082015260410190565b604051602081830303815290604052945050505050919050565b6000611fe582613067565b6040517fa50e72320000000000000000000000000000000000000000000000000000000081529091506001600160a01b037f0000000000000000000000000000000000000000000000000000000000000000169063a50e7232906120739030907f000000000000000000000000000000000000000000000000000000000000000090879087906004016145b0565b600060405180830381600087803b15801561208d57600080fd5b505af11580156120a1573d6000803e3d6000fd5b505050505050565b8351156122a857600084600186516120c191906145dc565b815181106120d1576120d16145ef565b60200260200101519050600185510385526000888288888888886040516020016121019796959493929190614605565b60405160208183030381529060405290506001865101865260006003600061212885612fb2565b815260200190815260200160002060009054906101000a90046001600160a01b031690506000816001600160a01b031663c55dae636040518163ffffffff1660e01b8152600401602060405180830381865afa15801561218c573d6000803e3d6000fd5b505050506040513d601f19601f820116820180604052508101906121b09190613c11565b6040516370a0823160e01b81523060048201526001600160a01b0391909116906370a0823190602401602060405180830381865afa1580156121f6573d6000803e3d6000fd5b505050506040513d601f19601f8201168201806040525081019061221a9190613f95565b846020015161222991906145dc565b60405163168da99d60e31b81529091506001600160a01b0383169063b46d4ce89061226d90309061ffff9067ffffffffffffffff9087906001908b9060040161468c565b600060405180830381600087803b15801561228757600080fd5b505af115801561229b573d6000803e3d6000fd5b5050505050505050611db1565b8451156123b357600085600187516122c091906145dc565b815181106122d0576122d06145ef565b60200260200101519050600186510386526000888288888888886040516020016123009796959493929190614605565b60405160208183030381529060405290506001875101875260006003600061232785612fb2565b8152602080820192909252604090810160009081205492860151915163168da99d60e31b81526001600160a01b039093169350839263b46d4ce892612379923092909182916002908a9060040161468c565b600060405180830381600087803b15801561239357600080fd5b505af11580156123a7573d6000803e3d6000fd5b50505050505050611db1565b80156123d257604051630f271b5560e41b815260040160405180910390fd5b611db1868885612a9d565b6040516370a0823160e01b8152306004820152600090819081906001600160a01b038716906370a0823190602401602060405180830381865afa158015612428573d6000803e3d6000fd5b505050506040513d601f19601f8201168201806040525081019061244c9190613f95565b90506000866001600160a01b0316632495a5996040518163ffffffff1660e01b8152600401602060405180830381865afa15801561248e573d6000803e3d6000fd5b505050506040513d601f19601f820116820180604052508101906124b29190613c11565b90506000866001600160a01b0316632495a5996040518163ffffffff1660e01b8152600401602060405180830381865afa1580156124f4573d6000803e3d6000fd5b505050506040513d601f19601f820116820180604052508101906125189190613c11565b604051633f34d4cf60e21b8152600481018590523060248201529091506001600160a01b0389169063fcd3533c90604401600060405180830381600087803b15801561256357600080fd5b505af1158015612577573d6000803e3d6000fd5b505050507f00000000000000000000000000000000000000000000000000000000000000006001600160a01b0316826001600160a01b031603612629577f00000000000000000000000000000000000000000000000000000000000000006001600160a01b031663d0e30db0846040518263ffffffff1660e01b81526004016000604051808303818588803b15801561260f57600080fd5b505af1158015612623573d6000803e3d6000fd5b50505050505b60405163095ea7b360e01b81526001600160a01b037f0000000000000000000000000000000000000000000000000000000000000000811660048301526024820185905283169063095ea7b3906044016020604051808303816000875af1158015612698573d6000803e3d6000fd5b505050506040513d601f19601f820116820180604052508101906126bc9190614201565b506000807f00000000000000000000000000000000000000000000000000000000000000006001600160a01b0316886040516126f891906146d7565b6000604051808303816000865af19150503d8060008114612735576040519150601f19603f3d011682016040523d82523d6000602084013e61273a565b606091505b50915091508161277857806040517feff8841400000000000000000000000000000000000000000000000000000000815260040161171b91906138c6565b60405163095ea7b360e01b81526001600160a01b037f0000000000000000000000000000000000000000000000000000000000000000811660048301526000602483015285169063095ea7b3906044016020604051808303816000875af11580156127e7573d6000803e3d6000fd5b505050506040513d601f19601f8201168201806040525081019061280b9190614201565b506040516370a0823160e01b81523060048201526001600160a01b038416906370a0823190602401602060405180830381865afa158015612850573d6000803e3d6000fd5b505050506040513d601f19601f820116820180604052508101906128749190613f95565b6040516370a0823160e01b81523060048201529096506001600160a01b038516906370a0823190602401602060405180830381865afa1580156128bb573d6000803e3d6000fd5b505050506040513d601f19601f820116820180604052508101906128df9190613f95565b965086156129bc5760405163095ea7b360e01b81526001600160a01b038b811660048301526024820189905285169063095ea7b3906044016020604051808303816000875af1158015612936573d6000803e3d6000fd5b505050506040513d601f19601f8201168201806040525081019061295a9190614201565b506040516394bf804d60e01b8152600481018890523060248201526001600160a01b038b16906394bf804d90604401600060405180830381600087803b1580156129a357600080fd5b505af11580156129b7573d6000803e3d6000fd5b505050505b60405163095ea7b360e01b81526001600160a01b038a811660048301526024820188905284169063095ea7b3906044016020604051808303816000875af1158015612a0b573d6000803e3d6000fd5b505050506040513d601f19601f82011682018060405250810190612a2f9190614201565b506040516394bf804d60e01b8152600481018790523060248201526001600160a01b038a16906394bf804d90604401600060405180830381600087803b158015612a7857600080fd5b505af1158015612a8c573d6000803e3d6000fd5b505050505050505050935093915050565b6000836001600160a01b0316632495a5996040518163ffffffff1660e01b8152600401602060405180830381865afa158015612add573d6000803e3d6000fd5b505050506040513d601f19601f82011682018060405250810190612b019190613c11565b6040516370a0823160e01b81523060048201529091506000906001600160a01b038616906370a0823190602401602060405180830381865afa158015612b4b573d6000803e3d6000fd5b505050506040513d601f19601f82011682018060405250810190612b6f9190613f95565b6040516370a0823160e01b81523060048201529091506000906001600160a01b038416906370a0823190602401602060405180830381865afa158015612bb9573d6000803e3d6000fd5b505050506040513d601f19601f82011682018060405250810190612bdd9190613f95565b9050612be98183613cf5565b841115612c0f57612c0a6001600160a01b03841686308588038590036130cd565b508083035b80156120a15760405163095ea7b360e01b81526001600160a01b0387811660048301526024820183905284169063095ea7b3906044016020604051808303816000875af1158015612c64573d6000803e3d6000fd5b505050506040513d601f19601f82011682018060405250810190612c889190614201565b506040516394bf804d60e01b8152600481018290523060248201526001600160a01b038716906394bf804d90604401600060405180830381600087803b158015612cd157600080fd5b505af1158015611b03573d6000803e3d6000fd5b6000815167ffffffffffffffff811115612d0157612d016135eb565b604051908082528060200260200182016040528015612d2a578160200160208202803683370190505b5090506000825167ffffffffffffffff811115612d4957612d496135eb565b604051908082528060200260200182016040528015612d72578160200160208202803683370190505b50905060005b8351811015612e0457612da3848281518110612d9657612d966145ef565b6020026020010151612fb2565b838281518110612db557612db56145ef565b602002602001018181525050838181518110612dd357612dd36145ef565b602002602001015160200151828281518110612df157612df16145ef565b6020908102919091010152600101612d78565b506000612e1084613067565b6040517fa7eaa1860000000000000000000000000000000000000000000000000000000081529091506001600160a01b037f0000000000000000000000000000000000000000000000000000000000000000169063a7eaa18690612ea0907f0000000000000000000000000000000000000000000000000000000000000000908790879030908890600401614723565b600060405180830381600087803b158015612eba57600080fd5b505af1158015612ece573d6000803e3d6000fd5b5050505050505050565b6000612ee342613105565b905090565b6000612ef48284614781565b9392505050565b6001805473ffffffffffffffffffffffffffffffffffffffff1916905561172d816131f3565b6040516001600160a01b038316602482015260448101829052611c269084907fa9059cbb00000000000000000000000000000000000000000000000000000000906064015b60408051601f198184030181529190526020810180517bffffffffffffffffffffffffffffffffffffffffffffffffffffffff166001600160e01b031990931692909217909152613250565b80516020810151905160009160a01b01610391565b60606000612fd483613338565b600101905060008167ffffffffffffffff811115612ff457612ff46135eb565b6040519080825280601f01601f19166020018201604052801561301e576020820181803683370190505b5090508181016020015b600019017f3031323334353637383961626364656600000000000000000000000000000000600a86061a8153600a850494508461302857509392505050565b606060005b82518110156130c7578161309c84838151811061308b5761308b6145ef565b602002602001015160000151611e14565b6040516020016130ad9291906147b2565b60408051601f19818403018152919052915060010161306c565b50919050565b6040516001600160a01b0380851660248301528316604482015260648101829052611cd39085906323b872dd60e01b90608401612f66565b600080620151808304905080622649658101600062023ab1600483020590506004600362023ab18302010590910390600062164b09610fa0600185010205905060046105b58202058303601f019250600061098f846050028161316a5761316a61479c565b059050600b8105935083600c0281600201039050838260318503606402010191506000600180836107b28603600c020103816131a8576131a861479c565b04905061ffff8111156131e7576040517f73cde75100000000000000000000000000000000000000000000000000000000815260040160405180910390fd5b98975050505050505050565b600080546001600160a01b0383811673ffffffffffffffffffffffffffffffffffffffff19831681178455604051919092169283917f8be0079c531659141344cd1fd0a4f28419497f9722a3daafe3b4186f6b6457e09190a35050565b60006132a5826040518060400160405280602081526020017f5361666545524332303a206c6f772d6c6576656c2063616c6c206661696c6564815250856001600160a01b031661341a9092919063ffffffff16565b90508051600014806132c65750808060200190518101906132c69190614201565b611c265760405162461bcd60e51b815260206004820152602a60248201527f5361666545524332303a204552433230206f7065726174696f6e20646964206e60448201527f6f74207375636365656400000000000000000000000000000000000000000000606482015260840161171b565b6000807a184f03e93ff9f4daa797ed6e38ed64bf6a1f0100000000000000008310613381577a184f03e93ff9f4daa797ed6e38ed64bf6a1f010000000000000000830492506040015b6d04ee2d6d415b85acef810000000083106133ad576d04ee2d6d415b85acef8100000000830492506020015b662386f26fc1000083106133cb57662386f26fc10000830492506010015b6305f5e10083106133e3576305f5e100830492506008015b61271083106133f757612710830492506004015b60648310613409576064830492506002015b600a83106103915760010192915050565b60606134298484600085613431565b949350505050565b6060824710156134a95760405162461bcd60e51b815260206004820152602660248201527f416464726573733a20696e73756666696369656e742062616c616e636520666f60448201527f722063616c6c0000000000000000000000000000000000000000000000000000606482015260840161171b565b600080866001600160a01b031685876040516134c591906146d7565b60006040518083038185875af1925050503d8060008114613502576040519150601f19603f3d011682016040523d82523d6000602084013e613507565b606091505b509150915061351887838387613523565b979650505050505050565b6060831561359257825160000361358b576001600160a01b0385163b61358b5760405162461bcd60e51b815260206004820152601d60248201527f416464726573733a2063616c6c20746f206e6f6e2d636f6e7472616374000000604482015260640161171b565b5081613429565b61342983838151156135a75781518083602001fd5b8060405162461bcd60e51b815260040161171b91906138c6565b6000602082840312156135d357600080fd5b81356001600160e01b031981168114612ef457600080fd5b634e487b7160e01b600052604160045260246000fd5b6040805190810167ffffffffffffffff81118282101715613624576136246135eb565b60405290565b60405160e0810167ffffffffffffffff81118282101715613624576136246135eb565b604051601f8201601f1916810167ffffffffffffffff81118282101715613676576136766135eb565b604052919050565b600067ffffffffffffffff821115613698576136986135eb565b50601f01601f191660200190565b600082601f8301126136b757600080fd5b81356136ca6136c58261367e565b61364d565b8181528460208386010111156136df57600080fd5b816020850160208301376000918101602001919091529392505050565b600060a082840312156130c757600080fd5b60008060008060008060008789036101c081121561372b57600080fd5b88359750602089013596506040890135955060608901359450608089013567ffffffffffffffff81111561375e57600080fd5b61376a8b828c016136a6565b9450506080609f198201121561377f57600080fd5b5060a088019150613794896101208a016136fc565b905092959891949750929550565b6001600160a01b038116811461172d57600080fd5b61ffff8116811461172d57600080fd5b6000604082840312156137d957600080fd5b6137e1613601565b905081356137ee816137a2565b815260208201356137fe816137b7565b602082015292915050565b6000806060838503121561381c57600080fd5b61382684846137c7565b91506040830135613836816137a2565b809150509250929050565b60006020828403121561385357600080fd5b813567ffffffffffffffff81111561386a57600080fd5b613429848285016136a6565b60005b83811015613891578181015183820152602001613879565b50506000910152565b600081518084526138b2816020860160208601613876565b601f01601f19169290920160200192915050565b602081526000612ef4602083018461389a565b600080600080600080600080610180898b0312156138f657600080fd5b8835613901816137a2565b97506020890135613911816137a2565b965060408901359550606089013594506080890135935060a0890135613936816137b7565b925060c089013567ffffffffffffffff81111561395257600080fd5b61395e8b828c016136a6565b92505061396e8a60e08b016136fc565b90509295985092959890939650565b600067ffffffffffffffff821115613997576139976135eb565b5060051b60200190565b600082601f8301126139b257600080fd5b813560206139c26136c58361397d565b82815260059290921b840181019181810190868411156139e157600080fd5b8286015b848110156139fc57803583529183019183016139e5565b509695505050505050565b600080600080600060a08688031215613a1f57600080fd5b8535613a2a816137a2565b94506020860135613a3a816137a2565b9350604086013567ffffffffffffffff80821115613a5757600080fd5b613a6389838a016139a1565b94506060880135915080821115613a7957600080fd5b613a8589838a016139a1565b93506080880135915080821115613a9b57600080fd5b50613aa8888289016136a6565b9150509295509295909350565b600060408284031215613ac757600080fd5b612ef483836137c7565b600080600080600060a08688031215613ae957600080fd5b8535613af4816137a2565b94506020860135613b04816137a2565b93506040860135925060608601359150608086013567ffffffffffffffff811115613b2e57600080fd5b613aa8888289016136a6565b600060208284031215613b4c57600080fd5b8135612ef4816137a2565b60008060008060008060a08789031215613b7057600080fd5b8635613b7b816137a2565b95506020870135613b8b816137a2565b94506040870135935060608701359250608087013567ffffffffffffffff80821115613bb657600080fd5b818901915089601f830112613bca57600080fd5b813581811115613bd957600080fd5b8a6020828501011115613beb57600080fd5b6020830194508093505050509295509295509295565b8051613c0c816137a2565b919050565b600060208284031215613c2357600080fd5b8151612ef4816137a2565b8051613c0c816137b7565b80518015158114613c0c57600080fd5b600060e08284031215613c5b57600080fd5b613c6361362a565b825167ffffffffffffffff81168114613c7b57600080fd5b8152613c8960208401613c2e565b6020820152613c9a60408401613c39565b6040820152613cab60608401613c01565b6060820152613cbc60808401613c01565b608082015260a083015160a082015260c083015160c08201528091505092915050565b634e487b7160e01b600052601160045260246000fd5b8082018082111561039157610391613cdf565b8481526001600160a01b0384166020820152608060408201526000613d30608083018561389a565b8281036060840152613518818561389a565b6000613d506136c58461367e565b9050828152838383011115613d6457600080fd5b612ef4836020830184613876565b600082601f830112613d8357600080fd5b612ef483835160208501613d42565b600060208284031215613da457600080fd5b815167ffffffffffffffff811115613dbb57600080fd5b61342984828501613d72565b6001600160a01b0384168152826020820152606060408201526000613def606083018461389a565b95945050505050565b80516fffffffffffffffffffffffffffffffff81168114613c0c57600080fd5b600060a08284031215613e2a57600080fd5b60405160a0810181811067ffffffffffffffff82111715613e4d57613e4d6135eb565b6040528251613e5b816137a2565b8152602083015160038110613e6f57600080fd5b6020820152613e8060408401613df8565b6040820152613e9160608401613df8565b60608201526080830151613ea4816137a2565b60808201529392505050565b60008060008060808587031215613ec657600080fd5b845193506020850151613ed8816137a2565b604086015190935067ffffffffffffffff80821115613ef657600080fd5b613f0288838901613d72565b93506060870151915080821115613f1857600080fd5b50613f2587828801613d72565b91505092959194509250565b600080600060608486031215613f4657600080fd5b8351613f51816137a2565b6020850151909350613f62816137a2565b604085015190925067ffffffffffffffff811115613f7f57600080fd5b613f8b86828701613d72565b9150509250925092565b600060208284031215613fa757600080fd5b5051919050565b600080600080600060a08688031215613fc657600080fd5b85519450602086015193506040860151613fdf816137b7565b6060870151608090970151959894975095949392505050565b600082601f83011261400957600080fd5b815160206140196136c58361397d565b8281526060928302850182019282820191908785111561403857600080fd5b8387015b858110156140ad57808903828112156140555760008081fd5b61405d613601565b60408083121561406d5760008081fd5b614075613601565b92508351614082816137a2565b835283880151614091816137b7565b838901529181529082015181870152845292840192810161403c565b5090979650505050505050565b600080600080608085870312156140d057600080fd5b845167ffffffffffffffff808211156140e857600080fd5b6140f488838901613ff8565b9550602087015191508082111561410a57600080fd5b5061411787828801613ff8565b604087015160609097015195989097509350505050565b60007f8000000000000000000000000000000000000000000000000000000000000000820361415f5761415f613cdf565b5060000390565b600081518084526020808501945080840160005b838110156141ba578151805180516001600160a01b0316895260209081015161ffff16818a0152015160408801526060909601959082019060010161417a565b509495945050505050565b6060815260006141d86060830185614166565b6001600160a01b0384166020840152828103604084015260008152602081019150509392505050565b60006020828403121561421357600080fd5b612ef482613c39565b602081526000612ef46020830184614166565b61ffff82811682821603908082111561424a5761424a613cdf565b5092915050565b60006001600160a01b03808616835280851660208401525060606040830152613def606083018461389a565b60ff851681526001600160a01b0384166020820152608060408201526000613d30608083018561389a565b6000606082840312156142ba57600080fd5b6142c2613601565b90506142ce83836137c7565b81526040820135602082015292915050565b600082601f8301126142f157600080fd5b813560206143016136c58361397d565b8281526060928302850182019282820191908785111561432057600080fd5b8387015b858110156140ad5761433689826142a8565b8452928401928101614324565b6000806000806000806000610120888a03121561435f57600080fd5b873561436a816137a2565b96506143798960208a016142a8565b9550608088013567ffffffffffffffff8082111561439657600080fd5b6143a28b838c016142e0565b965060a08a01359150808211156143b857600080fd5b506143c58a828b016142e0565b979a969950949760c08101359660e0820135965061010090910135945092505050565b60006001600160a01b03808816835286602084015285604084015280851660608401525060a0608083015261351860a083018461389a565b60ff8116811461172d57600080fd5b60006020828403121561444157600080fd5b8135612ef481614420565b60006020828403121561445e57600080fd5b815167ffffffffffffffff81111561447557600080fd5b8201601f8101841361448657600080fd5b61342984825160208401613d42565b600083516144a7818460208801613876565b7f20426f6e6420436f75706f6e202800000000000000000000000000000000000090830190815283516144e181600e840160208801613876565b7f2900000000000000000000000000000000000000000000000000000000000000600e9290910191820152600f01949350505050565b805160208083015191908110156130c75760001960209190910360031b1b16919050565b6000835161454d818460208801613876565b7f2d435000000000000000000000000000000000000000000000000000000000009083019081528351614587816003840160208801613876565b01600301949350505050565b6000602082840312156145a557600080fd5b8151612ef481614420565b60006001600160a01b03808716835280861660208401525060806040830152613d306080830185614166565b8181038181111561039157610391613cdf565b634e487b7160e01b600052603260045260246000fd5b60006101206001600160a01b038a168352614645602084018a805180516001600160a01b0316835260209081015161ffff16818401520151604090910152565b80608084015261465781840189614166565b905082810360a084015261466b8188614166565b60c0840196909652505060e081019290925261010090910152949350505050565b6001600160a01b038716815261ffff8616602082015267ffffffffffffffff8516604082015283606082015260ff8316608082015260c060a082015260006131e760c083018461389a565b600082516146e9818460208701613876565b9190910192915050565b600081518084526020808501945080840160005b838110156141ba57815187529582019590820190600101614707565b60006001600160a01b03808816835260a0602084015261474660a08401886146f3565b838103604085015261475881886146f3565b905081861660608501528381036080850152614774818661389a565b9998505050505050505050565b61ffff81811683821601908082111561424a5761424a613cdf565b634e487b7160e01b600052601260045260246000fd5b600083516147c4818460208801613876565b8351908301906147d8818360208801613876565b0194935050505056fea2646970667358221220c79936f6a576e5e569d10dcd273e3126f5d912d13c42ab1a7effb73c8448853264736f6c63430008130033",
  "devdoc": {
    "kind": "dev",
    "methods": {
      "acceptOwnership()": {
        "details": "The new owner accepts the ownership transfer."
      },
      "owner()": {
        "details": "Returns the address of the current owner."
      },
      "pendingOwner()": {
        "details": "Returns the address of the pending owner."
      },
      "renounceOwnership()": {
        "details": "Leaves the contract without owner. It will not be possible to call `onlyOwner` functions. Can only be called by the current owner. NOTE: Renouncing ownership will leave the contract without an owner, thereby disabling any functionality that is only available to the owner."
      },
      "supportsInterface(bytes4)": {
        "details": "See {IERC165-supportsInterface}."
      },
      "transferOwnership(address)": {
        "details": "Starts the ownership transfer of the contract to a new account. Replaces the pending transfer if there is one. Can only be called by the current owner."
      }
    },
    "version": 1
  },
  "userdoc": {
    "kind": "user",
    "methods": {},
    "version": 1
  },
  "storageLayout": {
    "storage": [
      {
        "astId": 7,
        "contract": "contracts/LeverageAdapter.sol:LeverageAdapter",
        "label": "_owner",
        "offset": 0,
        "slot": "0",
        "type": "t_address"
      },
      {
        "astId": 120,
        "contract": "contracts/LeverageAdapter.sol:LeverageAdapter",
        "label": "_pendingOwner",
        "offset": 0,
        "slot": "1",
        "type": "t_address"
      },
      {
        "astId": 18385,
        "contract": "contracts/LeverageAdapter.sol:LeverageAdapter",
        "label": "_locked",
        "offset": 0,
        "slot": "2",
        "type": "t_uint256"
      },
      {
        "astId": 15482,
        "contract": "contracts/LeverageAdapter.sol:LeverageAdapter",
        "label": "_couponMarkets",
        "offset": 0,
        "slot": "3",
        "type": "t_mapping(t_uint256,t_address)"
      }
    ],
    "types": {
      "t_address": {
        "encoding": "inplace",
        "label": "address",
        "numberOfBytes": "20"
      },
      "t_mapping(t_uint256,t_address)": {
        "encoding": "mapping",
        "key": "t_uint256",
        "label": "mapping(uint256 => address)",
        "numberOfBytes": "32",
        "value": "t_address"
      },
      "t_uint256": {
        "encoding": "inplace",
        "label": "uint256",
        "numberOfBytes": "32"
      }
    }
  }
}