{
  "address": "0xc8905F37a05B60981A9be741B7B1B6fe1AF60A3F",
  "abi": [
    {
      "inputs": [
        {
          "internalType": "address",
          "name": "wrapped1155Factory",
          "type": "address"
        },
        {
          "internalType": "address",
          "name": "cloberMarketFactory",
          "type": "address"
        },
        {
          "internalType": "address",
          "name": "couponManager",
          "type": "address"
        },
        {
          "internalType": "address",
          "name": "weth",
          "type": "address"
        },
        {
          "internalType": "address",
          "name": "loanPositionManager",
          "type": "address"
        },
        {
          "internalType": "address",
          "name": "router",
          "type": "address"
        }
      ],
      "stateMutability": "nonpayable",
      "type": "constructor"
    },
    {
      "inputs": [
        {
          "internalType": "string",
          "name": "reason",
          "type": "string"
        }
      ],
      "name": "CollateralSwapFailed",
      "type": "error"
    },
    {
      "inputs": [],
      "name": "ControllerSlippage",
      "type": "error"
    },
    {
      "inputs": [],
      "name": "EpochOverflow",
      "type": "error"
    },
    {
      "inputs": [],
      "name": "InvalidAccess",
      "type": "error"
    },
    {
      "inputs": [],
      "name": "InvalidMarket",
      "type": "error"
    },
    {
      "inputs": [],
      "name": "Reentrancy",
      "type": "error"
    },
    {
      "anonymous": false,
      "inputs": [
        {
          "indexed": true,
          "internalType": "address",
          "name": "previousOwner",
          "type": "address"
        },
        {
          "indexed": true,
          "internalType": "address",
          "name": "newOwner",
          "type": "address"
        }
      ],
      "name": "OwnershipTransferStarted",
      "type": "event"
    },
    {
      "anonymous": false,
      "inputs": [
        {
          "indexed": true,
          "internalType": "address",
          "name": "previousOwner",
          "type": "address"
        },
        {
          "indexed": true,
          "internalType": "address",
          "name": "newOwner",
          "type": "address"
        }
      ],
      "name": "OwnershipTransferred",
      "type": "event"
    },
    {
      "anonymous": false,
      "inputs": [
        {
          "indexed": true,
          "internalType": "address",
          "name": "asset",
          "type": "address"
        },
        {
          "indexed": true,
          "internalType": "Epoch",
          "name": "epoch",
          "type": "uint16"
        },
        {
          "indexed": true,
          "internalType": "address",
          "name": "cloberMarket",
          "type": "address"
        }
      ],
      "name": "SetCouponMarket",
      "type": "event"
    },
    {
      "inputs": [],
      "name": "acceptOwnership",
      "outputs": [],
      "stateMutability": "nonpayable",
      "type": "function"
    },
    {
      "inputs": [
        {
          "internalType": "address",
          "name": "inputToken",
          "type": "address"
        },
        {
          "internalType": "address",
          "name": "",
          "type": "address"
        },
        {
          "internalType": "uint256",
          "name": "inputAmount",
          "type": "uint256"
        },
        {
          "internalType": "uint256",
          "name": "outputAmount",
          "type": "uint256"
        },
        {
          "internalType": "bytes",
          "name": "data",
          "type": "bytes"
        }
      ],
      "name": "cloberMarketSwapCallback",
      "outputs": [],
      "stateMutability": "payable",
      "type": "function"
    },
    {
      "inputs": [
        {
          "components": [
            {
              "internalType": "address",
              "name": "asset",
              "type": "address"
            },
            {
              "internalType": "Epoch",
              "name": "epoch",
              "type": "uint16"
            }
          ],
          "internalType": "struct CouponKey",
          "name": "couponKey",
          "type": "tuple"
        }
      ],
      "name": "getCouponMarket",
      "outputs": [
        {
          "internalType": "address",
          "name": "",
          "type": "address"
        }
      ],
      "stateMutability": "view",
      "type": "function"
    },
    {
      "inputs": [
        {
          "internalType": "address",
          "name": "",
          "type": "address"
        },
        {
          "internalType": "address",
          "name": "",
          "type": "address"
        },
        {
          "internalType": "uint256[]",
          "name": "",
          "type": "uint256[]"
        },
        {
          "internalType": "uint256[]",
          "name": "",
          "type": "uint256[]"
        },
        {
          "internalType": "bytes",
          "name": "",
          "type": "bytes"
        }
      ],
      "name": "onERC1155BatchReceived",
      "outputs": [
        {
          "internalType": "bytes4",
          "name": "",
          "type": "bytes4"
        }
      ],
      "stateMutability": "nonpayable",
      "type": "function"
    },
    {
      "inputs": [
        {
          "internalType": "address",
          "name": "",
          "type": "address"
        },
        {
          "internalType": "address",
          "name": "",
          "type": "address"
        },
        {
          "internalType": "uint256",
          "name": "",
          "type": "uint256"
        },
        {
          "internalType": "uint256",
          "name": "",
          "type": "uint256"
        },
        {
          "internalType": "bytes",
          "name": "",
          "type": "bytes"
        }
      ],
      "name": "onERC1155Received",
      "outputs": [
        {
          "internalType": "bytes4",
          "name": "",
          "type": "bytes4"
        }
      ],
      "stateMutability": "nonpayable",
      "type": "function"
    },
    {
      "inputs": [],
      "name": "owner",
      "outputs": [
        {
          "internalType": "address",
          "name": "",
          "type": "address"
        }
      ],
      "stateMutability": "view",
      "type": "function"
    },
    {
      "inputs": [],
      "name": "pendingOwner",
      "outputs": [
        {
          "internalType": "address",
          "name": "",
          "type": "address"
        }
      ],
      "stateMutability": "view",
      "type": "function"
    },
    {
      "inputs": [
        {
          "internalType": "bytes",
          "name": "data",
          "type": "bytes"
        }
      ],
      "name": "positionLockAcquired",
      "outputs": [
        {
          "internalType": "bytes",
          "name": "",
          "type": "bytes"
        }
      ],
      "stateMutability": "nonpayable",
      "type": "function"
    },
    {
      "inputs": [],
      "name": "renounceOwnership",
      "outputs": [],
      "stateMutability": "nonpayable",
      "type": "function"
    },
    {
      "inputs": [
        {
          "internalType": "uint256",
          "name": "positionId",
          "type": "uint256"
        },
        {
          "internalType": "uint256",
          "name": "sellCollateralAmount",
          "type": "uint256"
        },
        {
          "internalType": "uint256",
          "name": "minRepayAmount",
          "type": "uint256"
        },
        {
          "internalType": "bytes",
          "name": "swapData",
          "type": "bytes"
        },
        {
          "components": [
            {
              "internalType": "uint256",
              "name": "deadline",
              "type": "uint256"
            },
            {
              "internalType": "uint8",
              "name": "v",
              "type": "uint8"
            },
            {
              "internalType": "bytes32",
              "name": "r",
              "type": "bytes32"
            },
            {
              "internalType": "bytes32",
              "name": "s",
              "type": "bytes32"
            }
          ],
          "internalType": "struct IController.PermitSignature",
          "name": "positionPermitParams",
          "type": "tuple"
        }
      ],
      "name": "repayWithCollateral",
      "outputs": [],
      "stateMutability": "nonpayable",
      "type": "function"
    },
    {
      "inputs": [
        {
          "components": [
            {
              "internalType": "address",
              "name": "asset",
              "type": "address"
            },
            {
              "internalType": "Epoch",
              "name": "epoch",
              "type": "uint16"
            }
          ],
          "internalType": "struct CouponKey",
          "name": "couponKey",
          "type": "tuple"
        },
        {
          "internalType": "address",
          "name": "cloberMarket",
          "type": "address"
        }
      ],
      "name": "setCouponMarket",
      "outputs": [],
      "stateMutability": "nonpayable",
      "type": "function"
    },
    {
      "inputs": [
        {
          "internalType": "bytes4",
          "name": "interfaceId",
          "type": "bytes4"
        }
      ],
      "name": "supportsInterface",
      "outputs": [
        {
          "internalType": "bool",
          "name": "",
          "type": "bool"
        }
      ],
      "stateMutability": "view",
      "type": "function"
    },
    {
      "inputs": [
        {
          "internalType": "address",
          "name": "newOwner",
          "type": "address"
        }
      ],
      "name": "transferOwnership",
      "outputs": [],
      "stateMutability": "nonpayable",
      "type": "function"
    },
    {
      "stateMutability": "payable",
      "type": "receive"
    }
  ],
  "transactionHash": "0x64a524031ecb885520021e39c1dddab266aa2e700c443848de274671d62ac2ae",
  "args": [
    "0xfcBE16BfD991E4949244E59d9b524e6964b8BB75",
    "0x24aC0938C010Fb520F1068e96d78E0458855111D",
    "0x8bbcA766D175aDbffB073832262990df1c5ef748",
    "0x82aF49447D8a07e3bd95BD0d56f35241523fBab1",
    "0x03d65411684ae7B5440E11a6063881a774C733dF",
    "0xa669e7A0d4b3e4Fa48af2dE86BD4CD7126Be4e13"
  ],
  "numDeployments": 1,
  "solcInputHash": "79048f46984044ebed3dd29bb6e9cb9d",
  "bytecode": "0x61014060405260016002553480156200001757600080fd5b50604051620046d2380380620046d28339810160408190526200003a9162000109565b8585858562000049336200007e565b6001600160a01b0393841660805291831660a052821660c052811660e052918216610100521661012052506200018a92505050565b600180546001600160a01b031916905562000099816200009c565b50565b600080546001600160a01b038381166001600160a01b0319831681178455604051919092169283917f8be0079c531659141344cd1fd0a4f28419497f9722a3daafe3b4186f6b6457e09190a35050565b80516001600160a01b03811681146200010457600080fd5b919050565b60008060008060008060c087890312156200012357600080fd5b6200012e87620000ec565b95506200013e60208801620000ec565b94506200014e60408801620000ec565b93506200015e60608801620000ec565b92506200016e60808801620000ec565b91506200017e60a08801620000ec565b90509295509295509295565b60805160a05160c05160e051610100516101205161443b6200029760003960008181611b1801528181611b9a0152611c670152600081816106e00152818161074801528181610836015281816108c50152818161097501528181610a4c01528181610b3501528181610cac01528181610d5a01528181610dd101528181610ea501528181610f5101528181610ff60152818161119f015281816112360152818161125e0152818161208e015261219d015260008181611a550152611a8e0152600081816103e701528181611678015281816122c3015261281c0152600081816104a501526113db0152600081816103b801528181611649015281816122f201526127ef015261443b6000f3fe6080604052600436106100d65760003560e01c8063bc197c811161007f578063ee7b3b9b11610059578063ee7b3b9b14610285578063f23a6e61146102a5578063f2fde38b146102ea578063fd235fda1461030a57600080fd5b8063bc197c81146101c2578063bf4415dc14610220578063e30c39781461026757600080fd5b8063715018a6116100b0578063715018a61461016657806379ba50971461017b5780638da5cb5b1461019057600080fd5b806301ffc9a7146100e257806329b084c11461011757806346a114e21461013957600080fd5b366100dd57005b600080fd5b3480156100ee57600080fd5b506101026100fd36600461334f565b61031d565b60405190151581526020015b60405180910390f35b34801561012357600080fd5b50610137610132366004613473565b610386565b005b34801561014557600080fd5b50610159610154366004613529565b6106d3565b60405161010e91906135ae565b34801561017257600080fd5b5061013761107d565b34801561018757600080fd5b50610137611091565b34801561019c57600080fd5b506000546001600160a01b03165b6040516001600160a01b03909116815260200161010e565b3480156101ce57600080fd5b506102076101dd36600461364b565b7fbc197c810000000000000000000000000000000000000000000000000000000095945050505050565b6040516001600160e01b0319909116815260200161010e565b34801561022c57600080fd5b506101aa61023b3660046136f9565b602081810151915160a09290921b9091016000908152600390915260409020546001600160a01b031690565b34801561027357600080fd5b506001546001600160a01b03166101aa565b34801561029157600080fd5b506101376102a0366004613715565b611124565b3480156102b157600080fd5b506102076102c036600461378d565b7ff23a6e610000000000000000000000000000000000000000000000000000000095945050505050565b3480156102f657600080fd5b506101376103053660046137f6565b611324565b610137610318366004613813565b6113a2565b60006001600160e01b031982167f4e2312e000000000000000000000000000000000000000000000000000000000148061038057507f01ffc9a7000000000000000000000000000000000000000000000000000000006001600160e01b03198316145b92915050565b61038e611703565b60006103998361175d565b905060006103b2846020810151905160a09190911b0190565b905060007f00000000000000000000000000000000000000000000000000000000000000006001600160a01b03166308b2ea5e7f000000000000000000000000000000000000000000000000000000000000000084866040518463ffffffff1660e01b8152600401610426939291906138bd565b602060405180830381865afa158015610443573d6000803e3d6000fd5b505050506040513d601f19601f8201168201806040525081019061046791906138fe565b6040517f0cf85bcc0000000000000000000000000000000000000000000000000000000081526001600160a01b0386811660048301529192506000917f00000000000000000000000000000000000000000000000000000000000000001690630cf85bcc9060240160a060405180830381865afa1580156104ec573d6000803e3d6000fd5b505050506040513d601f19601f82011682018060405250810190610510919061393b565b80519091506001600160a01b0316158061059d5750816001600160a01b0316856001600160a01b031663c55dae636040518163ffffffff1660e01b8152600401602060405180830381865afa15801561056d573d6000803e3d6000fd5b505050506040513d601f19601f8201168201806040525081019061059191906138fe565b6001600160a01b031614155b8061061f575085600001516001600160a01b0316856001600160a01b031663217a4b706040518163ffffffff1660e01b8152600401602060405180830381865afa1580156105ef573d6000803e3d6000fd5b505050506040513d601f19601f8201168201806040525081019061061391906138fe565b6001600160a01b031614155b15610656576040517f9db8d5b100000000000000000000000000000000000000000000000000000000815260040160405180910390fd5b6000838152600360209081526040808320805473ffffffffffffffffffffffffffffffffffffffff19166001600160a01b038a8116918217909255928a01518a519251939461ffff9091169392909116917f36b618d929a94eeca73ecddec2f5e49fdb6e4bde0a20e2987baaabb9e7fc21ab9190a4505050505050565b6060336001600160a01b037f0000000000000000000000000000000000000000000000000000000000000000161461071e57604051633006171960e21b815260040160405180910390fd5b60008060008060008680602001905181019061073a9190613a23565b9450945094509450945060007f00000000000000000000000000000000000000000000000000000000000000006001600160a01b031663eb02c301876040518263ffffffff1660e01b815260040161079491815260200190565b60e060405180830381865afa1580156107b1573d6000803e3d6000fd5b505050506040513d601f19601f820116820180604052508101906107d59190613aa0565b90506000838260c001516107e99190613b4c565b60608301516040517f01e336670000000000000000000000000000000000000000000000000000000081526001600160a01b039182166004820152306024820152604481018890529192507f000000000000000000000000000000000000000000000000000000000000000016906301e3366790606401600060405180830381600087803b15801561087a57600080fd5b505af115801561088e573d6000803e3d6000fd5b505050506000806108a9846060015185608001518988611923565b606086015160405163095ea7b360e01b81526001600160a01b037f00000000000000000000000000000000000000000000000000000000000000008116600483015260248201859052939550919350919091169063095ea7b3906044016020604051808303816000875af1158015610925573d6000803e3d6000fd5b505050506040513d601f19601f820116820180604052508101906109499190613b5f565b5060608401516040516319c5aef560e11b81526001600160a01b039182166004820152602481018490527f00000000000000000000000000000000000000000000000000000000000000009091169063338b5dea90604401600060405180830381600087803b1580156109bb57600080fd5b505af11580156109cf573d6000803e3d6000fd5b5050505086828560a001516109e49190613b7a565b6109ee9190613b4c565b60a085015260006109fd611f75565b9050606080838760c001511015610a16578660c0015193505b6000848860c001510390506000610a308960800151611f93565b9050816000108015610a4157508082105b15610a4a578091505b7f00000000000000000000000000000000000000000000000000000000000000006001600160a01b03166342e910af8f8b60a001518586600014610a92578d60200151610a94565b895b6040516001600160e01b031960e087901b16815260048101949094526024840192909252604483015261ffff1660648201526084016000604051808303816000875af1158015610ae8573d6000803e3d6000fd5b505050506040513d6000823e601f3d908101601f19168201604052610b109190810190613c4f565b50508151919550935015610ba7576040516365ae584760e01b81526001600160a01b037f000000000000000000000000000000000000000000000000000000000000000016906365ae584790610b6c9087903090600401613d22565b600060405180830381600087803b158015610b8657600080fd5b505af1158015610b9a573d6000803e3d6000fd5b50505050610ba784612285565b610bbd8d8a6080015186868a6000196000612354565b60808901516040516370a0823160e01b81523060048201526000916001600160a01b0316906370a0823190602401602060405180830381865afa158015610c08573d6000803e3d6000fd5b505050506040513d601f19601f82011682018060405250810190610c2c9190613d5e565b9050808a60c0015111610c48575060c089015160009250610c52565b808a60c001510392505b600083118015610c6157508183105b15610c6a578192505b82891015610c8b57604051630f271b5560e41b815260040160405180910390fd5b60c08a015160808b015160405163095ea7b360e01b81526001600160a01b037f0000000000000000000000000000000000000000000000000000000000000000811660048301529286900360248201819052929091169063095ea7b3906044016020604051808303816000875af1158015610d0a573d6000803e3d6000fd5b505050506040513d601f19601f82011682018060405250810190610d2e9190613b5f565b5060808b01516040516319c5aef560e11b81526001600160a01b039182166004820152602481018390527f00000000000000000000000000000000000000000000000000000000000000009091169063338b5dea90604401600060405180830381600087803b158015610da057600080fd5b505af1158015610db4573d6000803e3d6000fd5b5050505060c08b0184905250505060a08801516001600160a01b037f000000000000000000000000000000000000000000000000000000000000000016916342e910af918f918015610e0a578b60200151610e0c565b875b6040516001600160e01b031960e087901b16815260048101949094526024840192909252604483015261ffff1660648201526084016000604051808303816000875af1158015610e60573d6000803e3d6000fd5b505050506040513d6000823e601f3d908101601f19168201604052610e889190810190613c4f565b50506040516365ae584760e01b8152919350506001600160a01b037f000000000000000000000000000000000000000000000000000000000000000016906365ae584790610edc9085908f90600401613d22565b600060405180830381600087803b158015610ef657600080fd5b505af1158015610f0a573d6000803e3d6000fd5b50505050600081511115610fb957610f2181612691565b6040517fe6ee95e20000000000000000000000000000000000000000000000000000000081526001600160a01b037f0000000000000000000000000000000000000000000000000000000000000000169063e6ee95e290610f86908490600401613d77565b600060405180830381600087803b158015610fa057600080fd5b505af1158015610fb4573d6000803e3d6000fd5b505050505b610fc787608001518c612884565b6040517faba5b4b3000000000000000000000000000000000000000000000000000000008152600481018d90527f00000000000000000000000000000000000000000000000000000000000000006001600160a01b03169063aba5b4b390602401600060405180830381600087803b15801561104257600080fd5b505af1158015611056573d6000803e3d6000fd5b50505050604051806020016040528060008152509c50505050505050505050505050919050565b611085611703565b61108f600061295c565b565b60015433906001600160a01b031681146111185760405162461bcd60e51b815260206004820152602960248201527f4f776e61626c6532537465703a2063616c6c6572206973206e6f74207468652060448201527f6e6577206f776e6572000000000000000000000000000000000000000000000060648201526084015b60405180910390fd5b6111218161295c565b50565b600254600114611160576040517fab143c0600000000000000000000000000000000000000000000000000000000815260040160405180910390fd5b600280556040517f6352211e00000000000000000000000000000000000000000000000000000000815260048101869052859033906001600160a01b037f00000000000000000000000000000000000000000000000000000000000000001690636352211e90602401602060405180830381865afa1580156111e6573d6000803e3d6000fd5b505050506040513d601f19601f8201168201806040525081019061120a91906138fe565b6001600160a01b03161461123157604051633006171960e21b815260040160405180910390fd5b61125c7f00000000000000000000000000000000000000000000000000000000000000008784612982565b7f00000000000000000000000000000000000000000000000000000000000000006001600160a01b0316638154831987338888886040516020016112a4959493929190613d8a565b6040516020818303038152906040526040518263ffffffff1660e01b81526004016112cf91906135ae565b6000604051808303816000875af11580156112ee573d6000803e3d6000fd5b505050506040513d6000823e601f3d908101601f191682016040526113169190810190613dbe565b505060016002555050505050565b61132c611703565b600180546001600160a01b03831673ffffffffffffffffffffffffffffffffffffffff19909116811790915561136a6000546001600160a01b031690565b6001600160a01b03167f38d16b8cac22d99fc7c124b9cd0de2d3fa1faef420bfe791d8c362d765e2270060405160405180910390a350565b6040517fafdd9edc0000000000000000000000000000000000000000000000000000000081523360048201526000906001600160a01b037f0000000000000000000000000000000000000000000000000000000000000000169063afdd9edc90602401602060405180830381865afa158015611422573d6000803e3d6000fd5b505050506040513d601f19601f8201168201806040525081019061144691906138fe565b6001600160a01b03160361146d57604051633006171960e21b815260040160405180910390fd5b6000336001600160a01b031663217a4b706040518163ffffffff1660e01b8152600401602060405180830381865afa1580156114ad573d6000803e3d6000fd5b505050506040513d601f19601f820116820180604052508101906114d191906138fe565b60408051608081018252600091810182815260608201839052815260208101829052919250906060806000808061150a898b018b613e8e565b959c50939a5091985096509450925090506001600160a01b03808f169089160361155d578b82101561154f57604051630f271b5560e41b815260040160405180910390fd5b918b0191908b900390611571565b8a81111561156d578a9003611571565b5060005b61158087898787878787612354565b505050505060008711156115a2576115a26001600160a01b038a163389612a30565b6040516370a0823160e01b81523060048201526000906001600160a01b038b16906370a0823190602401602060405180830381865afa1580156115e9573d6000803e3d6000fd5b505050506040513d601f19601f8201168201806040525081019061160d9190613d5e565b9050896001600160a01b0316846001600160a01b0316141580156116315750600081115b156116f7576000611645836000015161175d565b90507f00000000000000000000000000000000000000000000000000000000000000006001600160a01b03166352aecb247f00000000000000000000000000000000000000000000000000000000000000006116a086612ac1565b8588866040518663ffffffff1660e01b81526004016116c3959493929190613f33565b600060405180830381600087803b1580156116dd57600080fd5b505af11580156116f1573d6000803e3d6000fd5b50505050505b50505050505050505050565b6000546001600160a01b0316331461108f5760405162461bcd60e51b815260206004820181905260248201527f4f776e61626c653a2063616c6c6572206973206e6f7420746865206f776e6572604482015260640161110f565b6060600082600001516001600160a01b03166395d89b416040518163ffffffff1660e01b8152600401600060405180830381865afa1580156117a3573d6000803e3d6000fd5b505050506040513d6000823e601f3d908101601f191682016040526117cb9190810190613f6b565b905060006117e0846020015161ffff16612ad6565b9050600082826040516020016117f7929190613fb4565b60405160208183030381529060405261180f90614036565b90506000838360405160200161182692919061405a565b60405160208183030381529060405261183e90614036565b9050825184510160020280601e0183019250806006018201915050818187600001516001600160a01b031663313ce5676040518163ffffffff1660e01b8152600401602060405180830381865afa15801561189d573d6000803e3d6000fd5b505050506040513d601f19601f820116820180604052508101906118c191906140c1565b60f81b6040516020016119099392919092835260208301919091527fff0000000000000000000000000000000000000000000000000000000000000016604082015260410190565b604051602081830303815290604052945050505050919050565b6000806000866001600160a01b0316632495a5996040518163ffffffff1660e01b8152600401602060405180830381865afa158015611966573d6000803e3d6000fd5b505050506040513d601f19601f8201168201806040525081019061198a91906138fe565b90506000866001600160a01b0316632495a5996040518163ffffffff1660e01b8152600401602060405180830381865afa1580156119cc573d6000803e3d6000fd5b505050506040513d601f19601f820116820180604052508101906119f091906138fe565b604051633f34d4cf60e21b8152600481018890523060248201529091506001600160a01b0389169063fcd3533c90604401600060405180830381600087803b158015611a3b57600080fd5b505af1158015611a4f573d6000803e3d6000fd5b505050507f00000000000000000000000000000000000000000000000000000000000000006001600160a01b0316826001600160a01b031603611b01577f00000000000000000000000000000000000000000000000000000000000000006001600160a01b031663d0e30db0876040518263ffffffff1660e01b81526004016000604051808303818588803b158015611ae757600080fd5b505af1158015611afb573d6000803e3d6000fd5b50505050505b60405163095ea7b360e01b81526001600160a01b037f0000000000000000000000000000000000000000000000000000000000000000811660048301526024820188905283169063095ea7b3906044016020604051808303816000875af1158015611b70573d6000803e3d6000fd5b505050506040513d601f19601f82011682018060405250810190611b949190613b5f565b506000807f00000000000000000000000000000000000000000000000000000000000000006001600160a01b031687604051611bd091906140de565b6000604051808303816000865af19150503d8060008114611c0d576040519150601f19603f3d011682016040523d82523d6000602084013e611c12565b606091505b509150915081611c5057806040517feff8841400000000000000000000000000000000000000000000000000000000815260040161110f91906135ae565b60405163095ea7b360e01b81526001600160a01b037f0000000000000000000000000000000000000000000000000000000000000000811660048301526000602483015285169063095ea7b3906044016020604051808303816000875af1158015611cbf573d6000803e3d6000fd5b505050506040513d601f19601f82011682018060405250810190611ce39190613b5f565b506040516370a0823160e01b81523060048201526001600160a01b038416906370a0823190602401602060405180830381865afa158015611d28573d6000803e3d6000fd5b505050506040513d601f19601f82011682018060405250810190611d4c9190613d5e565b6040516370a0823160e01b81523060048201529095506001600160a01b038516906370a0823190602401602060405180830381865afa158015611d93573d6000803e3d6000fd5b505050506040513d601f19601f82011682018060405250810190611db79190613d5e565b95508515611e945760405163095ea7b360e01b81526001600160a01b038b811660048301526024820188905285169063095ea7b3906044016020604051808303816000875af1158015611e0e573d6000803e3d6000fd5b505050506040513d601f19601f82011682018060405250810190611e329190613b5f565b506040516394bf804d60e01b8152600481018790523060248201526001600160a01b038b16906394bf804d90604401600060405180830381600087803b158015611e7b57600080fd5b505af1158015611e8f573d6000803e3d6000fd5b505050505b60405163095ea7b360e01b81526001600160a01b038a811660048301526024820187905284169063095ea7b3906044016020604051808303816000875af1158015611ee3573d6000803e3d6000fd5b505050506040513d601f19601f82011682018060405250810190611f079190613b5f565b506040516394bf804d60e01b8152600481018690523060248201526001600160a01b038a16906394bf804d90604401600060405180830381600087803b158015611f5057600080fd5b505af1158015611f64573d6000803e3d6000fd5b505050505050505094509492505050565b6000611f8e6001611f84612b76565b61ffff1690612b81565b905090565b604080516002808252606082018352600092839291906020830190803683370190505090508281600081518110611fcc57611fcc6140fa565b60200260200101906001600160a01b031690816001600160a01b031681525050600081600181518110612001576120016140fa565b60200260200101906001600160a01b031690816001600160a01b0316815250506000836001600160a01b031663313ce5676040518163ffffffff1660e01b8152600401602060405180830381865afa158015612061573d6000803e3d6000fd5b505050506040513d601f19601f8201168201806040525081019061208591906140c1565b60ff16905060007f00000000000000000000000000000000000000000000000000000000000000006001600160a01b0316637dc0d1d06040518163ffffffff1660e01b8152600401602060405180830381865afa1580156120ea573d6000803e3d6000fd5b505050506040513d601f19601f8201168201806040525081019061210e91906138fe565b6001600160a01b0316639d23d9f2846040518263ffffffff1660e01b81526004016121399190614110565b600060405180830381865afa158015612156573d6000803e3d6000fd5b505050506040513d6000823e601f3d908101601f1916820160405261217e919081019061415d565b905080600181518110612193576121936140fa565b60200260200101517f00000000000000000000000000000000000000000000000000000000000000006001600160a01b031663de0bb9336040518163ffffffff1660e01b8152600401602060405180830381865afa1580156121f9573d6000803e3d6000fd5b505050506040513d601f19601f8201168201806040525081019061221d9190613d5e565b02935060128211156122395760128203600a0a84029350612252565b81601203600a0a848161224e5761224e6141e3565b0493505b80600081518110612265576122656140fa565b6020026020010151848161227b5761227b6141e3565b0495945050505050565b600061229082612b94565b6040517fa50e72320000000000000000000000000000000000000000000000000000000081529091506001600160a01b037f0000000000000000000000000000000000000000000000000000000000000000169063a50e72329061231e9030907f000000000000000000000000000000000000000000000000000000000000000090879087906004016141f9565b600060405180830381600087803b15801561233857600080fd5b505af115801561234c573d6000803e3d6000fd5b505050505050565b835115612553576000846001865161236c9190613b4c565b8151811061237c5761237c6140fa565b60200260200101519050600185510385526000888288888888886040516020016123ac9796959493929190614237565b6040516020818303038152906040529050600186510186526000600360006123d385612ac1565b815260200190815260200160002060009054906101000a90046001600160a01b031690506000816001600160a01b031663c55dae636040518163ffffffff1660e01b8152600401602060405180830381865afa158015612437573d6000803e3d6000fd5b505050506040513d601f19601f8201168201806040525081019061245b91906138fe565b6040516370a0823160e01b81523060048201526001600160a01b0391909116906370a0823190602401602060405180830381865afa1580156124a1573d6000803e3d6000fd5b505050506040513d601f19601f820116820180604052508101906124c59190613d5e565b84602001516124d49190613b4c565b60405163168da99d60e31b81529091506001600160a01b0383169063b46d4ce89061251890309061ffff9067ffffffffffffffff9087906001908b906004016142be565b600060405180830381600087803b15801561253257600080fd5b505af1158015612546573d6000803e3d6000fd5b5050505050505050612688565b84511561265e576000856001875161256b9190613b4c565b8151811061257b5761257b6140fa565b60200260200101519050600186510386526000888288888888886040516020016125ab9796959493929190614237565b6040516020818303038152906040529050600187510187526000600360006125d285612ac1565b8152602080820192909252604090810160009081205492860151915163168da99d60e31b81526001600160a01b039093169350839263b46d4ce892612624923092909182916002908a906004016142be565b600060405180830381600087803b15801561263e57600080fd5b505af1158015612652573d6000803e3d6000fd5b50505050505050612688565b801561267d57604051630f271b5560e41b815260040160405180910390fd5b612688868885612bfa565b50505050505050565b6000815167ffffffffffffffff8111156126ad576126ad613379565b6040519080825280602002602001820160405280156126d6578160200160208202803683370190505b5090506000825167ffffffffffffffff8111156126f5576126f5613379565b60405190808252806020026020018201604052801561271e578160200160208202803683370190505b50905060005b83518110156127b05761274f848281518110612742576127426140fa565b6020026020010151612ac1565b838281518110612761576127616140fa565b60200260200101818152505083818151811061277f5761277f6140fa565b60200260200101516020015182828151811061279d5761279d6140fa565b6020908102919091010152600101612724565b5060006127bc84612b94565b6040517fa7eaa1860000000000000000000000000000000000000000000000000000000081529091506001600160a01b037f0000000000000000000000000000000000000000000000000000000000000000169063a7eaa1869061284c907f0000000000000000000000000000000000000000000000000000000000000000908790879030908890600401614339565b600060405180830381600087803b15801561286657600080fd5b505af115801561287a573d6000803e3d6000fd5b5050505050505050565b6040516370a0823160e01b81523060048201526000906001600160a01b038416906370a0823190602401602060405180830381865afa1580156128cb573d6000803e3d6000fd5b505050506040513d601f19601f820116820180604052508101906128ef9190613d5e565b9050806000036128fe57505050565b604051633f34d4cf60e21b8152600481018290526001600160a01b03838116602483015284169063fcd3533c90604401600060405180830381600087803b15801561294857600080fd5b505af1158015612688573d6000803e3d6000fd5b6001805473ffffffffffffffffffffffffffffffffffffffff1916905561112181612e42565b803515612a2b576001600160a01b038316637ac2ff7b308484356129ac6040870160208801614397565b604080516001600160e01b031960e088901b1681526001600160a01b0390951660048601526024850193909352604484019190915260ff1660648301528401356084820152606084013560a482015260c401600060405180830381600087803b158015612a1857600080fd5b505af1925050508015612a29575060015b505b505050565b6040516001600160a01b038316602482015260448101829052612a2b9084907fa9059cbb00000000000000000000000000000000000000000000000000000000906064015b60408051601f198184030181529190526020810180517bffffffffffffffffffffffffffffffffffffffffffffffffffffffff166001600160e01b031990931692909217909152612e9f565b80516020810151905160009160a01b01610380565b60606000612ae383612f87565b600101905060008167ffffffffffffffff811115612b0357612b03613379565b6040519080825280601f01601f191660200182016040528015612b2d576020820181803683370190505b5090508181016020015b600019017f3031323334353637383961626364656600000000000000000000000000000000600a86061a8153600a8504945084612b3757509392505050565b6000611f8e42613069565b6000612b8d82846143b4565b9392505050565b606060005b8251811015612bf45781612bc9848381518110612bb857612bb86140fa565b60200260200101516000015161175d565b604051602001612bda9291906143d6565b60408051601f198184030181529190529150600101612b99565b50919050565b6000836001600160a01b0316632495a5996040518163ffffffff1660e01b8152600401602060405180830381865afa158015612c3a573d6000803e3d6000fd5b505050506040513d601f19601f82011682018060405250810190612c5e91906138fe565b6040516370a0823160e01b81523060048201529091506000906001600160a01b038616906370a0823190602401602060405180830381865afa158015612ca8573d6000803e3d6000fd5b505050506040513d601f19601f82011682018060405250810190612ccc9190613d5e565b6040516370a0823160e01b81523060048201529091506000906001600160a01b038416906370a0823190602401602060405180830381865afa158015612d16573d6000803e3d6000fd5b505050506040513d601f19601f82011682018060405250810190612d3a9190613d5e565b9050612d468183613b7a565b841115612d6c57612d676001600160a01b0384168630858803859003613157565b508083035b801561234c5760405163095ea7b360e01b81526001600160a01b0387811660048301526024820183905284169063095ea7b3906044016020604051808303816000875af1158015612dc1573d6000803e3d6000fd5b505050506040513d601f19601f82011682018060405250810190612de59190613b5f565b506040516394bf804d60e01b8152600481018290523060248201526001600160a01b038716906394bf804d90604401600060405180830381600087803b158015612e2e57600080fd5b505af11580156116f7573d6000803e3d6000fd5b600080546001600160a01b0383811673ffffffffffffffffffffffffffffffffffffffff19831681178455604051919092169283917f8be0079c531659141344cd1fd0a4f28419497f9722a3daafe3b4186f6b6457e09190a35050565b6000612ef4826040518060400160405280602081526020017f5361666545524332303a206c6f772d6c6576656c2063616c6c206661696c6564815250856001600160a01b03166131a89092919063ffffffff16565b9050805160001480612f15575080806020019051810190612f159190613b5f565b612a2b5760405162461bcd60e51b815260206004820152602a60248201527f5361666545524332303a204552433230206f7065726174696f6e20646964206e60448201527f6f74207375636365656400000000000000000000000000000000000000000000606482015260840161110f565b6000807a184f03e93ff9f4daa797ed6e38ed64bf6a1f0100000000000000008310612fd0577a184f03e93ff9f4daa797ed6e38ed64bf6a1f010000000000000000830492506040015b6d04ee2d6d415b85acef81000000008310612ffc576d04ee2d6d415b85acef8100000000830492506020015b662386f26fc10000831061301a57662386f26fc10000830492506010015b6305f5e1008310613032576305f5e100830492506008015b612710831061304657612710830492506004015b60648310613058576064830492506002015b600a83106103805760010192915050565b600080620151808304905080622649658101600062023ab1600483020590506004600362023ab18302010590910390600062164b09610fa0600185010205905060046105b58202058303601f019250600061098f84605002816130ce576130ce6141e3565b059050600b8105935083600c0281600201039050838260318503606402010191506000600180836107b28603600c0201038161310c5761310c6141e3565b04905061ffff81111561314b576040517f73cde75100000000000000000000000000000000000000000000000000000000815260040160405180910390fd5b98975050505050505050565b6040516001600160a01b0380851660248301528316604482015260648101829052612a299085907f23b872dd0000000000000000000000000000000000000000000000000000000090608401612a75565b60606131b784846000856131bf565b949350505050565b6060824710156132375760405162461bcd60e51b815260206004820152602660248201527f416464726573733a20696e73756666696369656e742062616c616e636520666f60448201527f722063616c6c0000000000000000000000000000000000000000000000000000606482015260840161110f565b600080866001600160a01b0316858760405161325391906140de565b60006040518083038185875af1925050503d8060008114613290576040519150601f19603f3d011682016040523d82523d6000602084013e613295565b606091505b50915091506132a6878383876132b1565b979650505050505050565b60608315613320578251600003613319576001600160a01b0385163b6133195760405162461bcd60e51b815260206004820152601d60248201527f416464726573733a2063616c6c20746f206e6f6e2d636f6e7472616374000000604482015260640161110f565b50816131b7565b6131b783838151156133355781518083602001fd5b8060405162461bcd60e51b815260040161110f91906135ae565b60006020828403121561336157600080fd5b81356001600160e01b031981168114612b8d57600080fd5b634e487b7160e01b600052604160045260246000fd5b6040805190810167ffffffffffffffff811182821017156133b2576133b2613379565b60405290565b60405160e0810167ffffffffffffffff811182821017156133b2576133b2613379565b604051601f8201601f1916810167ffffffffffffffff8111828210171561340457613404613379565b604052919050565b6001600160a01b038116811461112157600080fd5b61ffff8116811461112157600080fd5b60006040828403121561344357600080fd5b61344b61338f565b905081356134588161340c565b8152602082013561346881613421565b602082015292915050565b6000806060838503121561348657600080fd5b6134908484613431565b915060408301356134a08161340c565b809150509250929050565b600067ffffffffffffffff8211156134c5576134c5613379565b50601f01601f191660200190565b600082601f8301126134e457600080fd5b81356134f76134f2826134ab565b6133db565b81815284602083860101111561350c57600080fd5b816020850160208301376000918101602001919091529392505050565b60006020828403121561353b57600080fd5b813567ffffffffffffffff81111561355257600080fd5b6131b7848285016134d3565b60005b83811015613579578181015183820152602001613561565b50506000910152565b6000815180845261359a81602086016020860161355e565b601f01601f19169290920160200192915050565b602081526000612b8d6020830184613582565b600067ffffffffffffffff8211156135db576135db613379565b5060051b60200190565b600082601f8301126135f657600080fd5b813560206136066134f2836135c1565b82815260059290921b8401810191818101908684111561362557600080fd5b8286015b848110156136405780358352918301918301613629565b509695505050505050565b600080600080600060a0868803121561366357600080fd5b853561366e8161340c565b9450602086013561367e8161340c565b9350604086013567ffffffffffffffff8082111561369b57600080fd5b6136a789838a016135e5565b945060608801359150808211156136bd57600080fd5b6136c989838a016135e5565b935060808801359150808211156136df57600080fd5b506136ec888289016134d3565b9150509295509295909350565b60006040828403121561370b57600080fd5b612b8d8383613431565b600080600080600085870361010081121561372f57600080fd5b863595506020870135945060408701359350606087013567ffffffffffffffff81111561375b57600080fd5b61376789828a016134d3565b9350506080607f198201121561377c57600080fd5b506080860190509295509295909350565b600080600080600060a086880312156137a557600080fd5b85356137b08161340c565b945060208601356137c08161340c565b93506040860135925060608601359150608086013567ffffffffffffffff8111156137ea57600080fd5b6136ec888289016134d3565b60006020828403121561380857600080fd5b8135612b8d8161340c565b60008060008060008060a0878903121561382c57600080fd5b86356138378161340c565b955060208701356138478161340c565b94506040870135935060608701359250608087013567ffffffffffffffff8082111561387257600080fd5b818901915089601f83011261388657600080fd5b81358181111561389557600080fd5b8a60208285010111156138a757600080fd5b6020830194508093505050509295509295509295565b6001600160a01b03841681528260208201526060604082015260006138e56060830184613582565b95945050505050565b80516138f98161340c565b919050565b60006020828403121561391057600080fd5b8151612b8d8161340c565b80516fffffffffffffffffffffffffffffffff811681146138f957600080fd5b600060a0828403121561394d57600080fd5b60405160a0810181811067ffffffffffffffff8211171561397057613970613379565b604052825161397e8161340c565b815260208301516003811061399257600080fd5b60208201526139a36040840161391b565b60408201526139b46060840161391b565b606082015260808301516139c78161340c565b60808201529392505050565b60006139e16134f2846134ab565b90508281528383830111156139f557600080fd5b612b8d83602083018461355e565b600082601f830112613a1457600080fd5b612b8d838351602085016139d3565b600080600080600060a08688031215613a3b57600080fd5b855194506020860151613a4d8161340c565b809450506040860151925060608601519150608086015167ffffffffffffffff811115613a7957600080fd5b6136ec88828901613a03565b80516138f981613421565b805180151581146138f957600080fd5b600060e08284031215613ab257600080fd5b613aba6133b8565b825167ffffffffffffffff81168114613ad257600080fd5b8152613ae060208401613a85565b6020820152613af160408401613a90565b6040820152613b02606084016138ee565b6060820152613b13608084016138ee565b608082015260a083015160a082015260c083015160c08201528091505092915050565b634e487b7160e01b600052601160045260246000fd5b8181038181111561038057610380613b36565b600060208284031215613b7157600080fd5b612b8d82613a90565b8082018082111561038057610380613b36565b600082601f830112613b9e57600080fd5b81516020613bae6134f2836135c1565b82815260609283028501820192828201919087851115613bcd57600080fd5b8387015b85811015613c425780890382811215613bea5760008081fd5b613bf261338f565b604080831215613c025760008081fd5b613c0a61338f565b92508351613c178161340c565b835283880151613c2681613421565b8389015291815290820151818701528452928401928101613bd1565b5090979650505050505050565b60008060008060808587031215613c6557600080fd5b845167ffffffffffffffff80821115613c7d57600080fd5b613c8988838901613b8d565b95506020870151915080821115613c9f57600080fd5b50613cac87828801613b8d565b604087015160609097015195989097509350505050565b600081518084526020808501945080840160005b83811015613d17578151805180516001600160a01b0316895260209081015161ffff16818a01520151604088015260609096019590820190600101613cd7565b509495945050505050565b606081526000613d356060830185613cc3565b6001600160a01b0384166020840152828103604084015260008152602081019150509392505050565b600060208284031215613d7057600080fd5b5051919050565b602081526000612b8d6020830184613cc3565b8581526001600160a01b038516602082015283604082015282606082015260a0608082015260006132a660a0830184613582565b600060208284031215613dd057600080fd5b815167ffffffffffffffff811115613de757600080fd5b6131b784828501613a03565b600060608284031215613e0557600080fd5b613e0d61338f565b9050613e198383613431565b81526040820135602082015292915050565b600082601f830112613e3c57600080fd5b81356020613e4c6134f2836135c1565b82815260609283028501820192828201919087851115613e6b57600080fd5b8387015b85811015613c4257613e818982613df3565b8452928401928101613e6f565b6000806000806000806000610120888a031215613eaa57600080fd5b8735613eb58161340c565b9650613ec48960208a01613df3565b9550608088013567ffffffffffffffff80821115613ee157600080fd5b613eed8b838c01613e2b565b965060a08a0135915080821115613f0357600080fd5b50613f108a828b01613e2b565b979a969950949760c08101359660e0820135965061010090910135945092505050565b60006001600160a01b03808816835286602084015285604084015280851660608401525060a060808301526132a660a0830184613582565b600060208284031215613f7d57600080fd5b815167ffffffffffffffff811115613f9457600080fd5b8201601f81018413613fa557600080fd5b6131b7848251602084016139d3565b60008351613fc681846020880161355e565b7f20426f6e6420436f75706f6e2028000000000000000000000000000000000000908301908152835161400081600e84016020880161355e565b7f2900000000000000000000000000000000000000000000000000000000000000600e9290910191820152600f01949350505050565b80516020808301519190811015612bf45760001960209190910360031b1b16919050565b6000835161406c81846020880161355e565b7f2d4350000000000000000000000000000000000000000000000000000000000090830190815283516140a681600384016020880161355e565b01600301949350505050565b60ff8116811461112157600080fd5b6000602082840312156140d357600080fd5b8151612b8d816140b2565b600082516140f081846020870161355e565b9190910192915050565b634e487b7160e01b600052603260045260246000fd5b6020808252825182820181905260009190848201906040850190845b818110156141515783516001600160a01b03168352928401929184019160010161412c565b50909695505050505050565b6000602080838503121561417057600080fd5b825167ffffffffffffffff81111561418757600080fd5b8301601f8101851361419857600080fd5b80516141a66134f2826135c1565b81815260059190911b820183019083810190878311156141c557600080fd5b928401925b828410156132a6578351825292840192908401906141ca565b634e487b7160e01b600052601260045260246000fd5b60006001600160a01b038087168352808616602084015250608060408301526142256080830185613cc3565b82810360608401526132a68185613582565b60006101206001600160a01b038a168352614277602084018a805180516001600160a01b0316835260209081015161ffff16818401520151604090910152565b80608084015261428981840189613cc3565b905082810360a084015261429d8188613cc3565b60c0840196909652505060e081019290925261010090910152949350505050565b6001600160a01b038716815261ffff8616602082015267ffffffffffffffff8516604082015283606082015260ff8316608082015260c060a0820152600061314b60c0830184613582565b600081518084526020808501945080840160005b83811015613d175781518752958201959082019060010161431d565b60006001600160a01b03808816835260a0602084015261435c60a0840188614309565b838103604085015261436e8188614309565b90508186166060850152838103608085015261438a8186613582565b9998505050505050505050565b6000602082840312156143a957600080fd5b8135612b8d816140b2565b61ffff8281168282160390808211156143cf576143cf613b36565b5092915050565b600083516143e881846020880161355e565b8351908301906143fc81836020880161355e565b0194935050505056fea2646970667358221220bf3c6d1fa485e661bd8981128d6992ea54cc68ac2050db85c000ad8c76fa224c64736f6c63430008130033",
  "devdoc": {
    "kind": "dev",
    "methods": {
      "acceptOwnership()": {
        "details": "The new owner accepts the ownership transfer."
      },
      "owner()": {
        "details": "Returns the address of the current owner."
      },
      "pendingOwner()": {
        "details": "Returns the address of the pending owner."
      },
      "renounceOwnership()": {
        "details": "Leaves the contract without owner. It will not be possible to call `onlyOwner` functions. Can only be called by the current owner. NOTE: Renouncing ownership will leave the contract without an owner, thereby disabling any functionality that is only available to the owner."
      },
      "supportsInterface(bytes4)": {
        "details": "See {IERC165-supportsInterface}."
      },
      "transferOwnership(address)": {
        "details": "Starts the ownership transfer of the contract to a new account. Replaces the pending transfer if there is one. Can only be called by the current owner."
      }
    },
    "version": 1
  },
  "userdoc": {
    "kind": "user",
    "methods": {},
    "version": 1
  },
  "storageLayout": {
    "storage": [
      {
        "astId": 7,
        "contract": "contracts/RepayAdapter.sol:RepayAdapter",
        "label": "_owner",
        "offset": 0,
        "slot": "0",
        "type": "t_address"
      },
      {
        "astId": 120,
        "contract": "contracts/RepayAdapter.sol:RepayAdapter",
        "label": "_pendingOwner",
        "offset": 0,
        "slot": "1",
        "type": "t_address"
      },
      {
        "astId": 18385,
        "contract": "contracts/RepayAdapter.sol:RepayAdapter",
        "label": "_locked",
        "offset": 0,
        "slot": "2",
        "type": "t_uint256"
      },
      {
        "astId": 15482,
        "contract": "contracts/RepayAdapter.sol:RepayAdapter",
        "label": "_couponMarkets",
        "offset": 0,
        "slot": "3",
        "type": "t_mapping(t_uint256,t_address)"
      }
    ],
    "types": {
      "t_address": {
        "encoding": "inplace",
        "label": "address",
        "numberOfBytes": "20"
      },
      "t_mapping(t_uint256,t_address)": {
        "encoding": "mapping",
        "key": "t_uint256",
        "label": "mapping(uint256 => address)",
        "numberOfBytes": "32",
        "value": "t_address"
      },
      "t_uint256": {
        "encoding": "inplace",
        "label": "uint256",
        "numberOfBytes": "32"
      }
    }
  }
}