{
  "address": "0x3A2e22044b0d86ddb59B1baF4Cd1c047c4Bf99D9",
  "abi": [
    {
      "inputs": [
        {
          "internalType": "address[]",
          "name": "minters",
          "type": "address[]"
        },
        {
          "internalType": "string",
          "name": "baseURI_",
          "type": "string"
        },
        {
          "internalType": "string",
          "name": "contractURI_",
          "type": "string"
        }
      ],
      "stateMutability": "nonpayable",
      "type": "constructor"
    },
    {
      "inputs": [],
      "name": "EpochOverflow",
      "type": "error"
    },
    {
      "inputs": [],
      "name": "InvalidAccess",
      "type": "error"
    },
    {
      "inputs": [],
      "name": "InvalidShortString",
      "type": "error"
    },
    {
      "inputs": [],
      "name": "InvalidSignature",
      "type": "error"
    },
    {
      "inputs": [],
      "name": "PermitExpired",
      "type": "error"
    },
    {
      "inputs": [
        {
          "internalType": "string",
          "name": "str",
          "type": "string"
        }
      ],
      "name": "StringTooLong",
      "type": "error"
    },
    {
      "anonymous": false,
      "inputs": [
        {
          "indexed": true,
          "internalType": "address",
          "name": "account",
          "type": "address"
        },
        {
          "indexed": true,
          "internalType": "address",
          "name": "operator",
          "type": "address"
        },
        {
          "indexed": false,
          "internalType": "bool",
          "name": "approved",
          "type": "bool"
        }
      ],
      "name": "ApprovalForAll",
      "type": "event"
    },
    {
      "anonymous": false,
      "inputs": [],
      "name": "EIP712DomainChanged",
      "type": "event"
    },
    {
      "anonymous": false,
      "inputs": [
        {
          "indexed": true,
          "internalType": "address",
          "name": "operator",
          "type": "address"
        },
        {
          "indexed": true,
          "internalType": "address",
          "name": "from",
          "type": "address"
        },
        {
          "indexed": true,
          "internalType": "address",
          "name": "to",
          "type": "address"
        },
        {
          "indexed": false,
          "internalType": "uint256[]",
          "name": "ids",
          "type": "uint256[]"
        },
        {
          "indexed": false,
          "internalType": "uint256[]",
          "name": "values",
          "type": "uint256[]"
        }
      ],
      "name": "TransferBatch",
      "type": "event"
    },
    {
      "anonymous": false,
      "inputs": [
        {
          "indexed": true,
          "internalType": "address",
          "name": "operator",
          "type": "address"
        },
        {
          "indexed": true,
          "internalType": "address",
          "name": "from",
          "type": "address"
        },
        {
          "indexed": true,
          "internalType": "address",
          "name": "to",
          "type": "address"
        },
        {
          "indexed": false,
          "internalType": "uint256",
          "name": "id",
          "type": "uint256"
        },
        {
          "indexed": false,
          "internalType": "uint256",
          "name": "value",
          "type": "uint256"
        }
      ],
      "name": "TransferSingle",
      "type": "event"
    },
    {
      "anonymous": false,
      "inputs": [
        {
          "indexed": false,
          "internalType": "string",
          "name": "value",
          "type": "string"
        },
        {
          "indexed": true,
          "internalType": "uint256",
          "name": "id",
          "type": "uint256"
        }
      ],
      "name": "URI",
      "type": "event"
    },
    {
      "inputs": [],
      "name": "DOMAIN_SEPARATOR",
      "outputs": [
        {
          "internalType": "bytes32",
          "name": "",
          "type": "bytes32"
        }
      ],
      "stateMutability": "view",
      "type": "function"
    },
    {
      "inputs": [],
      "name": "PERMIT_TYPEHASH",
      "outputs": [
        {
          "internalType": "bytes32",
          "name": "",
          "type": "bytes32"
        }
      ],
      "stateMutability": "view",
      "type": "function"
    },
    {
      "inputs": [
        {
          "internalType": "address",
          "name": "account",
          "type": "address"
        },
        {
          "internalType": "uint256",
          "name": "id",
          "type": "uint256"
        }
      ],
      "name": "balanceOf",
      "outputs": [
        {
          "internalType": "uint256",
          "name": "",
          "type": "uint256"
        }
      ],
      "stateMutability": "view",
      "type": "function"
    },
    {
      "inputs": [
        {
          "internalType": "address[]",
          "name": "accounts",
          "type": "address[]"
        },
        {
          "internalType": "uint256[]",
          "name": "ids",
          "type": "uint256[]"
        }
      ],
      "name": "balanceOfBatch",
      "outputs": [
        {
          "internalType": "uint256[]",
          "name": "",
          "type": "uint256[]"
        }
      ],
      "stateMutability": "view",
      "type": "function"
    },
    {
      "inputs": [],
      "name": "baseURI",
      "outputs": [
        {
          "internalType": "string",
          "name": "",
          "type": "string"
        }
      ],
      "stateMutability": "view",
      "type": "function"
    },
    {
      "inputs": [
        {
          "internalType": "address",
          "name": "user",
          "type": "address"
        },
        {
          "components": [
            {
              "components": [
                {
                  "internalType": "address",
                  "name": "asset",
                  "type": "address"
                },
                {
                  "internalType": "Epoch",
                  "name": "epoch",
                  "type": "uint16"
                }
              ],
              "internalType": "struct CouponKey",
              "name": "key",
              "type": "tuple"
            },
            {
              "internalType": "uint256",
              "name": "amount",
              "type": "uint256"
            }
          ],
          "internalType": "struct Coupon[]",
          "name": "coupons",
          "type": "tuple[]"
        }
      ],
      "name": "burnBatch",
      "outputs": [],
      "stateMutability": "nonpayable",
      "type": "function"
    },
    {
      "inputs": [
        {
          "components": [
            {
              "internalType": "address",
              "name": "asset",
              "type": "address"
            },
            {
              "internalType": "Epoch",
              "name": "epoch",
              "type": "uint16"
            }
          ],
          "internalType": "struct CouponKey[]",
          "name": "couponKeys",
          "type": "tuple[]"
        }
      ],
      "name": "burnExpiredCoupons",
      "outputs": [],
      "stateMutability": "nonpayable",
      "type": "function"
    },
    {
      "inputs": [],
      "name": "contractURI",
      "outputs": [
        {
          "internalType": "string",
          "name": "",
          "type": "string"
        }
      ],
      "stateMutability": "view",
      "type": "function"
    },
    {
      "inputs": [],
      "name": "currentEpoch",
      "outputs": [
        {
          "internalType": "Epoch",
          "name": "",
          "type": "uint16"
        }
      ],
      "stateMutability": "view",
      "type": "function"
    },
    {
      "inputs": [],
      "name": "eip712Domain",
      "outputs": [
        {
          "internalType": "bytes1",
          "name": "fields",
          "type": "bytes1"
        },
        {
          "internalType": "string",
          "name": "name",
          "type": "string"
        },
        {
          "internalType": "string",
          "name": "version",
          "type": "string"
        },
        {
          "internalType": "uint256",
          "name": "chainId",
          "type": "uint256"
        },
        {
          "internalType": "address",
          "name": "verifyingContract",
          "type": "address"
        },
        {
          "internalType": "bytes32",
          "name": "salt",
          "type": "bytes32"
        },
        {
          "internalType": "uint256[]",
          "name": "extensions",
          "type": "uint256[]"
        }
      ],
      "stateMutability": "view",
      "type": "function"
    },
    {
      "inputs": [
        {
          "internalType": "Epoch",
          "name": "epoch",
          "type": "uint16"
        }
      ],
      "name": "epochEndTime",
      "outputs": [
        {
          "internalType": "uint256",
          "name": "",
          "type": "uint256"
        }
      ],
      "stateMutability": "pure",
      "type": "function"
    },
    {
      "inputs": [
        {
          "internalType": "uint256",
          "name": "id",
          "type": "uint256"
        }
      ],
      "name": "exists",
      "outputs": [
        {
          "internalType": "bool",
          "name": "",
          "type": "bool"
        }
      ],
      "stateMutability": "view",
      "type": "function"
    },
    {
      "inputs": [
        {
          "internalType": "address",
          "name": "account",
          "type": "address"
        },
        {
          "internalType": "address",
          "name": "operator",
          "type": "address"
        }
      ],
      "name": "isApprovedForAll",
      "outputs": [
        {
          "internalType": "bool",
          "name": "",
          "type": "bool"
        }
      ],
      "stateMutability": "view",
      "type": "function"
    },
    {
      "inputs": [
        {
          "internalType": "address",
          "name": "",
          "type": "address"
        }
      ],
      "name": "isMinter",
      "outputs": [
        {
          "internalType": "bool",
          "name": "",
          "type": "bool"
        }
      ],
      "stateMutability": "view",
      "type": "function"
    },
    {
      "inputs": [
        {
          "internalType": "address",
          "name": "to",
          "type": "address"
        },
        {
          "components": [
            {
              "components": [
                {
                  "internalType": "address",
                  "name": "asset",
                  "type": "address"
                },
                {
                  "internalType": "Epoch",
                  "name": "epoch",
                  "type": "uint16"
                }
              ],
              "internalType": "struct CouponKey",
              "name": "key",
              "type": "tuple"
            },
            {
              "internalType": "uint256",
              "name": "amount",
              "type": "uint256"
            }
          ],
          "internalType": "struct Coupon[]",
          "name": "coupons",
          "type": "tuple[]"
        },
        {
          "internalType": "bytes",
          "name": "data",
          "type": "bytes"
        }
      ],
      "name": "mintBatch",
      "outputs": [],
      "stateMutability": "nonpayable",
      "type": "function"
    },
    {
      "inputs": [
        {
          "internalType": "address",
          "name": "",
          "type": "address"
        }
      ],
      "name": "nonces",
      "outputs": [
        {
          "internalType": "uint256",
          "name": "",
          "type": "uint256"
        }
      ],
      "stateMutability": "view",
      "type": "function"
    },
    {
      "inputs": [
        {
          "internalType": "address",
          "name": "owner",
          "type": "address"
        },
        {
          "internalType": "address",
          "name": "operator",
          "type": "address"
        },
        {
          "internalType": "bool",
          "name": "approved",
          "type": "bool"
        },
        {
          "internalType": "uint256",
          "name": "deadline",
          "type": "uint256"
        },
        {
          "internalType": "uint8",
          "name": "v",
          "type": "uint8"
        },
        {
          "internalType": "bytes32",
          "name": "r",
          "type": "bytes32"
        },
        {
          "internalType": "bytes32",
          "name": "s",
          "type": "bytes32"
        }
      ],
      "name": "permit",
      "outputs": [],
      "stateMutability": "nonpayable",
      "type": "function"
    },
    {
      "inputs": [
        {
          "internalType": "address",
          "name": "from",
          "type": "address"
        },
        {
          "internalType": "address",
          "name": "to",
          "type": "address"
        },
        {
          "internalType": "uint256[]",
          "name": "ids",
          "type": "uint256[]"
        },
        {
          "internalType": "uint256[]",
          "name": "amounts",
          "type": "uint256[]"
        },
        {
          "internalType": "bytes",
          "name": "data",
          "type": "bytes"
        }
      ],
      "name": "safeBatchTransferFrom",
      "outputs": [],
      "stateMutability": "nonpayable",
      "type": "function"
    },
    {
      "inputs": [
        {
          "internalType": "address",
          "name": "from",
          "type": "address"
        },
        {
          "internalType": "address",
          "name": "to",
          "type": "address"
        },
        {
          "components": [
            {
              "components": [
                {
                  "internalType": "address",
                  "name": "asset",
                  "type": "address"
                },
                {
                  "internalType": "Epoch",
                  "name": "epoch",
                  "type": "uint16"
                }
              ],
              "internalType": "struct CouponKey",
              "name": "key",
              "type": "tuple"
            },
            {
              "internalType": "uint256",
              "name": "amount",
              "type": "uint256"
            }
          ],
          "internalType": "struct Coupon[]",
          "name": "coupons",
          "type": "tuple[]"
        },
        {
          "internalType": "bytes",
          "name": "data",
          "type": "bytes"
        }
      ],
      "name": "safeBatchTransferFrom",
      "outputs": [],
      "stateMutability": "nonpayable",
      "type": "function"
    },
    {
      "inputs": [
        {
          "internalType": "address",
          "name": "from",
          "type": "address"
        },
        {
          "internalType": "address",
          "name": "to",
          "type": "address"
        },
        {
          "internalType": "uint256",
          "name": "id",
          "type": "uint256"
        },
        {
          "internalType": "uint256",
          "name": "amount",
          "type": "uint256"
        },
        {
          "internalType": "bytes",
          "name": "data",
          "type": "bytes"
        }
      ],
      "name": "safeTransferFrom",
      "outputs": [],
      "stateMutability": "nonpayable",
      "type": "function"
    },
    {
      "inputs": [
        {
          "internalType": "address",
          "name": "operator",
          "type": "address"
        },
        {
          "internalType": "bool",
          "name": "approved",
          "type": "bool"
        }
      ],
      "name": "setApprovalForAll",
      "outputs": [],
      "stateMutability": "nonpayable",
      "type": "function"
    },
    {
      "inputs": [
        {
          "internalType": "bytes4",
          "name": "id",
          "type": "bytes4"
        }
      ],
      "name": "supportsInterface",
      "outputs": [
        {
          "internalType": "bool",
          "name": "",
          "type": "bool"
        }
      ],
      "stateMutability": "view",
      "type": "function"
    },
    {
      "inputs": [
        {
          "internalType": "uint256",
          "name": "id",
          "type": "uint256"
        }
      ],
      "name": "totalSupply",
      "outputs": [
        {
          "internalType": "uint256",
          "name": "",
          "type": "uint256"
        }
      ],
      "stateMutability": "view",
      "type": "function"
    },
    {
      "inputs": [
        {
          "internalType": "uint256",
          "name": "id",
          "type": "uint256"
        }
      ],
      "name": "uri",
      "outputs": [
        {
          "internalType": "string",
          "name": "",
          "type": "string"
        }
      ],
      "stateMutability": "view",
      "type": "function"
    }
  ],
  "transactionHash": "0xb5b4207a6c70b6541cb0510c8d111266258dc68e074fe23015ef02924c991528",
  "args": [
    [
      "0xa0d476c6a39bea239749c566a02343e5584ec200",
      "0x8831c769874ff23ed5df0daacfd84cc147335506"
    ],
    "https://coupon.finance/api/multi-token/chains/421614/coupons/",
    "https://coupon.finance/api/multi-token/chains/421614/coupons"
  ],
  "numDeployments": 1,
  "solcInputHash": "5a1c391176337a6742d1d379c8c16cf0",
  "bytecode": "0x61016060405234801561001157600080fd5b5060405161394138038061394183398101604081905261003091610311565b816040518060400160405280600681526020016521b7bab837b760d11b815250604051806040016040528060018152602001603160f81b81525081818461007c816101b260201b60201c565b506100888260036101c2565b610120526100978160046101c2565b61014052815160208084019190912060e052815190820120610100524660a05261012460e05161010051604080517f8b73c3c69bb8fe3d512ecc4cf759cc79239f7b179b0ffacaa9a75d522b39400f60208201529081019290925260608201524660808201523060a082015260009060c00160405160208183030381529060405280519060200120905090565b60805250503060c0525060009150505b835181101561018f5760016007600086848151811061015557610155610418565b6020908102919091018101516001600160a01b03168252810191909152604001600020805460ff1916911515919091179055600101610134565b50600861019c83826104b9565b5060096101a982826104b9565b505050506105cf565b60026101be82826104b9565b5050565b60006020835110156101de576101d7836101f5565b90506101ef565b816101e984826104b9565b5060ff90505b92915050565b600080829050601f81511115610229578260405163305a27a960e01b81526004016102209190610578565b60405180910390fd5b8051610234826105ab565b179392505050565b634e487b7160e01b600052604160045260246000fd5b604051601f8201601f191681016001600160401b038111828210171561027a5761027a61023c565b604052919050565b60005b8381101561029d578181015183820152602001610285565b50506000910152565b600082601f8301126102b757600080fd5b81516001600160401b038111156102d0576102d061023c565b6102e3601f8201601f1916602001610252565b8181528460208386010111156102f857600080fd5b610309826020830160208701610282565b949350505050565b60008060006060848603121561032657600080fd5b83516001600160401b038082111561033d57600080fd5b818601915086601f83011261035157600080fd5b81516020828211156103655761036561023c565b8160051b610374828201610252565b928352848101820192828101908b85111561038e57600080fd5b958301955b848710156103c557865192506001600160a01b03831683146103b55760008081fd5b8282529583019590830190610393565b928a0151929850919450505050808211156103df57600080fd5b6103eb878388016102a6565b9350604086015191508082111561040157600080fd5b5061040e868287016102a6565b9150509250925092565b634e487b7160e01b600052603260045260246000fd5b600181811c9082168061044257607f821691505b60208210810361046257634e487b7160e01b600052602260045260246000fd5b50919050565b601f8211156104b4576000816000526020600020601f850160051c810160208610156104915750805b601f850160051c820191505b818110156104b05782815560010161049d565b5050505b505050565b81516001600160401b038111156104d2576104d261023c565b6104e6816104e0845461042e565b84610468565b602080601f83116001811461051b57600084156105035750858301515b600019600386901b1c1916600185901b1785556104b0565b600085815260208120601f198616915b8281101561054a5788860151825594840194600190910190840161052b565b50858210156105685787850151600019600388901b60f8161c191681555b5050505050600190811b01905550565b6020815260008251806020840152610597816040850160208701610282565b601f01601f19169190910160400192915050565b805160208083015191908110156104625760001960209190910360031b1b16919050565b60805160a05160c05160e051610100516101205161014051613318610629600039600061082c015260006108010152600061138001526000611358015260006112b3015260006112dd0152600061130701526133186000f3fe608060405234801561001057600080fd5b50600436106101975760003560e01c806384a3d824116100e3578063b546ac4f1161008c578063e985e9c511610066578063e985e9c51461038a578063f242432a146103c6578063f51cc7dd146103d957600080fd5b8063b546ac4f1461035c578063bd85b0391461036f578063e8a3d4851461038257600080fd5b8063a22cb465116100bd578063a22cb46514610313578063a50e723214610326578063aa271e1a1461033957600080fd5b806384a3d824146102d257806384b0196e146102e55780638f29525a1461030057600080fd5b80633644e515116101455780636c0360eb1161011f5780636c0360eb1461028f57806376671808146102975780637ecebe00146102b257600080fd5b80633644e515146102545780634e1273f41461025c5780634f558e791461027c57600080fd5b806314751af41161017657806314751af4146102055780632eb2c2d61461021857806330adf81f1461022d57600080fd5b8062fdd58e1461019c57806301ffc9a7146101c25780630e89341c146101e5575b600080fd5b6101af6101aa3660046126e6565b6103ec565b6040519081526020015b60405180910390f35b6101d56101d0366004612726565b610498565b60405190151581526020016101b9565b6101f86101f3366004612743565b6104a3565b6040516101b991906127ac565b6101af6102133660046127d1565b610503565b61022b61022636600461293d565b610512565b005b6101af7f7bf72c3e57bc00556754c7454ead7d72d1c0e263909e7c643fbc0d1e0f3c3e7481565b6101af6105b4565b61026f61026a3660046129e7565b6105c3565b6040516101b99190612aee565b6101d561028a366004612743565b6106f9565b6101f861070f565b61029f61079d565b60405161ffff90911681526020016101b9565b6101af6102c0366004612b01565b60056020526000908152604090205481565b61022b6102e0366004612b61565b6107a7565b6102ed6107f3565b6040516101b99796959493929190612bb4565b61022b61030e366004612c3e565b610898565b61022b610321366004612cc3565b610a48565b61022b610334366004612cf6565b610a57565b6101d5610347366004612b01565b60076020526000908152604090205460ff1681565b61022b61036a366004612db3565b610ab5565b6101af61037d366004612743565b610b02565b6101f8610b16565b6101d5610398366004612e2d565b6001600160a01b03918216600090815260016020908152604080832093909416825291909152205460ff1690565b61022b6103d4366004612e57565b610b23565b61022b6103e7366004612ebc565b610bbe565b60006001600160a01b03831661046f5760405162461bcd60e51b815260206004820152602a60248201527f455243313135353a2061646472657373207a65726f206973206e6f742061207660448201527f616c6964206f776e65720000000000000000000000000000000000000000000060648201526084015b60405180910390fd5b506000818152602081815260408083206001600160a01b03861684529091529020545b92915050565b600061049282610e18565b60606000600880546104b490612f36565b9050116104d05760405180602001604052806000815250610492565b60086104dd836020610e56565b6040516020016104ee929190612f8c565b60405160208183030381529060405292915050565b60006104928261ffff1661103e565b6001600160a01b03851633148061052e575061052e8533610398565b6105a05760405162461bcd60e51b815260206004820152602e60248201527f455243313135353a2063616c6c6572206973206e6f7420746f6b656e206f776e60448201527f6572206f7220617070726f7665640000000000000000000000000000000000006064820152608401610466565b6105ad8585858585611049565b5050505050565b60006105be6112a6565b905090565b6060815183511461063c5760405162461bcd60e51b815260206004820152602960248201527f455243313135353a206163636f756e747320616e6420696473206c656e67746860448201527f206d69736d6174636800000000000000000000000000000000000000000000006064820152608401610466565b6000835167ffffffffffffffff811115610658576106586127ec565b604051908082528060200260200182016040528015610681578160200160208202803683370190505b50905060005b84518110156106f1576106cc8582815181106106a5576106a5613038565b60200260200101518583815181106106bf576106bf613038565b60200260200101516103ec565b8282815181106106de576106de613038565b6020908102919091010152600101610687565b509392505050565b6000818152600660205260408120541515610492565b6008805461071c90612f36565b80601f016020809104026020016040519081016040528092919081815260200182805461074890612f36565b80156107955780601f1061076a57610100808354040283529160200191610795565b820191906000526020600020905b81548152906001019060200180831161077857829003601f168201915b505050505081565b60006105be6113d4565b3360009081526007602052604090205460ff166107d757604051633006171960e21b815260040160405180910390fd5b6000806107e484846113df565b915091506105ad858383611514565b6000606080828080836108277f00000000000000000000000000000000000000000000000000000000000000006003611793565b6108527f00000000000000000000000000000000000000000000000000000000000000006004611793565b604080516000808252602082019092527f0f000000000000000000000000000000000000000000000000000000000000009b939a50919850469750309650945092509050565b60008167ffffffffffffffff8111156108b3576108b36127ec565b6040519080825280602002602001820160405280156108dc578160200160208202803683370190505b50905060008267ffffffffffffffff8111156108fa576108fa6127ec565b604051908082528060200260200182016040528015610923578160200160208202803683370190505b50905060006109306113d4565b90506000805b85811015610a2e5761097887878381811061095357610953613038565b905060400201602001602081019061096b91906127d1565b61ffff8086169116101590565b610a265760006109ba88888481811061099357610993613038565b9050604002018036038101906109a9919061304e565b6020810151905160a09190911b0190565b905060006109c833836103ec565b9050806000036109d9575050610a26565b818785815181106109ec576109ec613038565b60200260200101818152505080868581518110610a0b57610a0b613038565b602090810291909101015283610a20816130bf565b94505050505b600101610936565b50808452808352610a40338585611514565b505050505050565b610a5333838361183e565b5050565b600080610a6486866113df565b91509150610aab8888848488888080601f01602080910402602001604051908101604052809392919081815260200183838082843760009201919091525061051292505050565b5050505050505050565b3360009081526007602052604090205460ff16610ae557604051633006171960e21b815260040160405180910390fd5b600080610af285856113df565b91509150610a4086838386611932565b600081815260066020526040812054610492565b6009805461071c90612f36565b6001600160a01b038516331480610b3f5750610b3f8533610398565b610bb15760405162461bcd60e51b815260206004820152602e60248201527f455243313135353a2063616c6c6572206973206e6f7420746f6b656e206f776e60448201527f6572206f7220617070726f7665640000000000000000000000000000000000006064820152608401610466565b6105ad8585858585611b18565b83421115610bf8576040517f1a15a3cc00000000000000000000000000000000000000000000000000000000815260040160405180910390fd5b6001600160a01b03871660009081526005602052604081208054610ca1917f7bf72c3e57bc00556754c7454ead7d72d1c0e263909e7c643fbc0d1e0f3c3e74918b918b918b9187610c48836130bf565b909155506040805160208101969096526001600160a01b03948516908601529290911660608401521515608083015260a082015260c0810187905260e00160405160208183030381529060405280519060200120611cd1565b90506001600160a01b0388163b15610dd057604080516020810185905280820184905260f886901b7fff000000000000000000000000000000000000000000000000000000000000001660608201528151604181830301815260618201928390527f1626ba7e000000000000000000000000000000000000000000000000000000009092526001600160a01b038a1691631626ba7e91610d459185916065016130d8565b602060405180830381865afa158015610d62573d6000803e3d6000fd5b505050506040513d601f19601f82011682018060405250810190610d8691906130f9565b7bffffffffffffffffffffffffffffffffffffffffffffffffffffffff1916631626ba7e60e01b14610dcb57604051638baa579f60e01b815260040160405180910390fd5b610e0d565b876001600160a01b0316610de682868686611d19565b6001600160a01b031614610e0d57604051638baa579f60e01b815260040160405180910390fd5b610aab88888861183e565b60006001600160e01b031982167f8d3b64d7000000000000000000000000000000000000000000000000000000001480610492575061049282611d41565b60606000610e65836002613116565b610e7090600261312d565b67ffffffffffffffff811115610e8857610e886127ec565b6040519080825280601f01601f191660200182016040528015610eb2576020820181803683370190505b5090507f300000000000000000000000000000000000000000000000000000000000000081600081518110610ee957610ee9613038565b60200101906001600160f81b031916908160001a9053507f780000000000000000000000000000000000000000000000000000000000000081600181518110610f3457610f34613038565b60200101906001600160f81b031916908160001a9053506000610f58846002613116565b610f6390600161312d565b90505b6001811115610fe8577f303132333435363738396162636465660000000000000000000000000000000085600f1660108110610fa457610fa4613038565b1a60f81b828281518110610fba57610fba613038565b60200101906001600160f81b031916908160001a90535060049490941c93610fe181613140565b9050610f66565b5083156110375760405162461bcd60e51b815260206004820181905260248201527f537472696e67733a20686578206c656e67746820696e73756666696369656e746044820152606401610466565b9392505050565b600061049282611ddc565b81518351146110ab5760405162461bcd60e51b815260206004820152602860248201527f455243313135353a2069647320616e6420616d6f756e7473206c656e677468206044820152670dad2e6dac2e8c6d60c31b6064820152608401610466565b6001600160a01b03841661110f5760405162461bcd60e51b815260206004820152602560248201527f455243313135353a207472616e7366657220746f20746865207a65726f206164604482015264647265737360d81b6064820152608401610466565b3361111e818787878787611eb0565b60005b845181101561124057600085828151811061113e5761113e613038565b60200260200101519050600085838151811061115c5761115c613038565b602090810291909101810151600084815280835260408082206001600160a01b038e1683529093529190912054909150818110156111ef5760405162461bcd60e51b815260206004820152602a60248201527f455243313135353a20696e73756666696369656e742062616c616e636520666f60448201526939103a3930b739b332b960b11b6064820152608401610466565b6000838152602081815260408083206001600160a01b038e8116855292528083208585039055908b1682528120805484929061122c90849061312d565b909155505060019093019250611121915050565b50846001600160a01b0316866001600160a01b0316826001600160a01b03167f4a39dc06d4c0dbc64b70af90fd698a233a518aa5d07e595d983b8c0526c8f7fb8787604051611290929190613157565b60405180910390a4610a40818787878787611ebe565b6000306001600160a01b037f0000000000000000000000000000000000000000000000000000000000000000161480156112ff57507f000000000000000000000000000000000000000000000000000000000000000046145b1561132957507f000000000000000000000000000000000000000000000000000000000000000090565b6105be604080517f8b73c3c69bb8fe3d512ecc4cf759cc79239f7b179b0ffacaa9a75d522b39400f60208201527f0000000000000000000000000000000000000000000000000000000000000000918101919091527f000000000000000000000000000000000000000000000000000000000000000060608201524660808201523060a082015260009060c00160405160208183030381529060405280519060200120905090565b90565b60006105be4261206c565b60608060008367ffffffffffffffff8111156113fd576113fd6127ec565b604051908082528060200260200182016040528015611426578160200160208202803683370190505b50905060008467ffffffffffffffff811115611444576114446127ec565b60405190808252806020026020018201604052801561146d578160200160208202803683370190505b50905060005b85811015611506576114a787878381811061149057611490613038565b6109a992606090910201368190038101915061304e565b8382815181106114b9576114b9613038565b6020026020010181815250508686828181106114d7576114d7613038565b905060600201604001358282815181106114f3576114f3613038565b6020908102919091010152600101611473565b5090925090505b9250929050565b6001600160a01b0383166115905760405162461bcd60e51b815260206004820152602360248201527f455243313135353a206275726e2066726f6d20746865207a65726f206164647260448201527f65737300000000000000000000000000000000000000000000000000000000006064820152608401610466565b80518251146115f25760405162461bcd60e51b815260206004820152602860248201527f455243313135353a2069647320616e6420616d6f756e7473206c656e677468206044820152670dad2e6dac2e8c6d60c31b6064820152608401610466565b600033905061161581856000868660405180602001604052806000815250611eb0565b60005b835181101561172557600084828151811061163557611635613038565b60200260200101519050600084838151811061165357611653613038565b602090810291909101810151600084815280835260408082206001600160a01b038c1683529093529190912054909150818110156116f85760405162461bcd60e51b8152602060048201526024808201527f455243313135353a206275726e20616d6f756e7420657863656564732062616c60448201527f616e6365000000000000000000000000000000000000000000000000000000006064820152608401610466565b6000928352602083815260408085206001600160a01b038b16865290915290922091039055600101611618565b5060006001600160a01b0316846001600160a01b0316826001600160a01b03167f4a39dc06d4c0dbc64b70af90fd698a233a518aa5d07e595d983b8c0526c8f7fb8686604051611776929190613157565b60405180910390a460408051602081019091526000905250505050565b606060ff83146117ad576117a68361215a565b9050610492565b8180546117b990612f36565b80601f01602080910402602001604051908101604052809291908181526020018280546117e590612f36565b80156118325780601f1061180757610100808354040283529160200191611832565b820191906000526020600020905b81548152906001019060200180831161181557829003601f168201915b50505050509050610492565b816001600160a01b0316836001600160a01b0316036118c55760405162461bcd60e51b815260206004820152602960248201527f455243313135353a2073657474696e6720617070726f76616c2073746174757360448201527f20666f722073656c6600000000000000000000000000000000000000000000006064820152608401610466565b6001600160a01b03838116600081815260016020908152604080832094871680845294825291829020805460ff191686151590811790915591519182527f17307eab39ab6107e8899845ad3d59bd9653f200f220920489ca2b5937696c31910160405180910390a3505050565b6001600160a01b0384166119ae5760405162461bcd60e51b815260206004820152602160248201527f455243313135353a206d696e7420746f20746865207a65726f2061646472657360448201527f73000000000000000000000000000000000000000000000000000000000000006064820152608401610466565b8151835114611a105760405162461bcd60e51b815260206004820152602860248201527f455243313135353a2069647320616e6420616d6f756e7473206c656e677468206044820152670dad2e6dac2e8c6d60c31b6064820152608401610466565b33611a2081600087878787611eb0565b60005b8451811015611ab057838181518110611a3e57611a3e613038565b6020026020010151600080878481518110611a5b57611a5b613038565b602002602001015181526020019081526020016000206000886001600160a01b03166001600160a01b031681526020019081526020016000206000828254611aa3919061312d565b9091555050600101611a23565b50846001600160a01b031660006001600160a01b0316826001600160a01b03167f4a39dc06d4c0dbc64b70af90fd698a233a518aa5d07e595d983b8c0526c8f7fb8787604051611b01929190613157565b60405180910390a46105ad81600087878787611ebe565b6001600160a01b038416611b7c5760405162461bcd60e51b815260206004820152602560248201527f455243313135353a207472616e7366657220746f20746865207a65726f206164604482015264647265737360d81b6064820152608401610466565b336000611b8885612199565b90506000611b9585612199565b9050611ba5838989858589611eb0565b6000868152602081815260408083206001600160a01b038c16845290915290205485811015611c295760405162461bcd60e51b815260206004820152602a60248201527f455243313135353a20696e73756666696369656e742062616c616e636520666f60448201526939103a3930b739b332b960b11b6064820152608401610466565b6000878152602081815260408083206001600160a01b038d8116855292528083208985039055908a16825281208054889290611c6690849061312d565b909155505060408051888152602081018890526001600160a01b03808b16928c821692918816917fc3d58168c5ae7397731d063d5bbf3d657854427343f4c083240f7aacaa2d0f62910160405180910390a4611cc6848a8a8a8a8a6121e4565b505050505050505050565b6000610492611cde6112a6565b836040517f19010000000000000000000000000000000000000000000000000000000000008152600281019290925260228201526042902090565b6000806000611d2a878787876122e0565b91509150611d37816123a4565b5095945050505050565b60006001600160e01b031982167fd9b67a26000000000000000000000000000000000000000000000000000000001480611da457506001600160e01b031982167f0e89341c00000000000000000000000000000000000000000000000000000000145b8061049257507f01ffc9a7000000000000000000000000000000000000000000000000000000006001600160e01b0319831614610492565b6000600161ffff83160181600c82046107b20190506004600c8381611e0357611e0361317c565b06901b915060048106158015611e1b57506064810615155b80611e2857506101908106155b15611e515779016e014f0131011200f400d500b600980079005b003c001f000090911c90611e71565b79016d014e0130011100f300d400b500970078005a003b001f000090911c905b60016201518061019061064019840104606461076c1985010460046107b0198601046107b2860361016d028761ffff1601010301020392505050919050565b610a4086868686868661250c565b6001600160a01b0384163b15610a405760405163bc197c8160e01b81526001600160a01b0385169063bc197c8190611f029089908990889088908890600401613192565b6020604051808303816000875af1925050508015611f3d575060408051601f3d908101601f19168201909252611f3a918101906130f9565b60015b611ff257611f496131e4565b806308c379a003611f825750611f5d6131ff565b80611f685750611f84565b8060405162461bcd60e51b815260040161046691906127ac565b505b60405162461bcd60e51b815260206004820152603460248201527f455243313135353a207472616e7366657220746f206e6f6e2d4552433131353560448201527f526563656976657220696d706c656d656e7465720000000000000000000000006064820152608401610466565b6001600160e01b0319811663bc197c8160e01b146120635760405162461bcd60e51b815260206004820152602860248201527f455243313135353a204552433131353552656365697665722072656a656374656044820152676420746f6b656e7360c01b6064820152608401610466565b50505050505050565b600080620151808304905080622649658101600062023ab1600483020590506004600362023ab18302010590910390600062164b09610fa0600185010205905060046105b58202058303601f019250600061098f84605002816120d1576120d161317c565b059050600b8105935083600c0281600201039050838260318503606402010191506000600180836107b28603600c0201038161210f5761210f61317c565b04905061ffff81111561214e576040517f73cde75100000000000000000000000000000000000000000000000000000000815260040160405180910390fd5b98975050505050505050565b6060600061216783612689565b604080516020808252818301909252919250600091906020820181803683375050509182525060208101929092525090565b604080516001808252818301909252606091600091906020808301908036833701905050905082816000815181106121d3576121d3613038565b602090810291909101015292915050565b6001600160a01b0384163b15610a405760405163f23a6e6160e01b81526001600160a01b0385169063f23a6e61906122289089908990889088908890600401613289565b6020604051808303816000875af1925050508015612263575060408051601f3d908101601f19168201909252612260918101906130f9565b60015b61226f57611f496131e4565b6001600160e01b0319811663f23a6e6160e01b146120635760405162461bcd60e51b815260206004820152602860248201527f455243313135353a204552433131353552656365697665722072656a656374656044820152676420746f6b656e7360c01b6064820152608401610466565b6000807f7fffffffffffffffffffffffffffffff5d576e7357a4501ddfe92f46681b20a0831115612317575060009050600361239b565b6040805160008082526020820180845289905260ff881692820192909252606081018690526080810185905260019060a0016020604051602081039080840390855afa15801561236b573d6000803e3d6000fd5b5050604051601f1901519150506001600160a01b0381166123945760006001925092505061239b565b9150600090505b94509492505050565b60008160048111156123b8576123b86132cc565b036123c05750565b60018160048111156123d4576123d46132cc565b036124215760405162461bcd60e51b815260206004820152601860248201527f45434453413a20696e76616c6964207369676e617475726500000000000000006044820152606401610466565b6002816004811115612435576124356132cc565b036124825760405162461bcd60e51b815260206004820152601f60248201527f45434453413a20696e76616c6964207369676e6174757265206c656e677468006044820152606401610466565b6003816004811115612496576124966132cc565b036125095760405162461bcd60e51b815260206004820152602260248201527f45434453413a20696e76616c6964207369676e6174757265202773272076616c60448201527f75650000000000000000000000000000000000000000000000000000000000006064820152608401610466565b50565b6001600160a01b03851661258a5760005b83518110156125885782818151811061253857612538613038565b60200260200101516006600086848151811061255657612556613038565b60200260200101518152602001908152602001600020600082825461257b919061312d565b909155505060010161251d565b505b6001600160a01b038416610a405760005b83518110156120635760008482815181106125b8576125b8613038565b6020026020010151905060008483815181106125d6576125d6613038565b602002602001015190506000600660008481526020019081526020016000205490508181101561266e5760405162461bcd60e51b815260206004820152602860248201527f455243313135353a206275726e20616d6f756e74206578636565647320746f7460448201527f616c537570706c790000000000000000000000000000000000000000000000006064820152608401610466565b6000928352600660205260409092209103905560010161259b565b600060ff8216601f811115610492576040517fb3512b0c00000000000000000000000000000000000000000000000000000000815260040160405180910390fd5b80356001600160a01b03811681146126e157600080fd5b919050565b600080604083850312156126f957600080fd5b612702836126ca565b946020939093013593505050565b6001600160e01b03198116811461250957600080fd5b60006020828403121561273857600080fd5b813561103781612710565b60006020828403121561275557600080fd5b5035919050565b60005b8381101561277757818101518382015260200161275f565b50506000910152565b6000815180845261279881602086016020860161275c565b601f01601f19169290920160200192915050565b6020815260006110376020830184612780565b803561ffff811681146126e157600080fd5b6000602082840312156127e357600080fd5b611037826127bf565b634e487b7160e01b600052604160045260246000fd5b601f8201601f1916810167ffffffffffffffff81118282101715612828576128286127ec565b6040525050565b600067ffffffffffffffff821115612849576128496127ec565b5060051b60200190565b600082601f83011261286457600080fd5b813560206128718261282f565b60405161287e8282612802565b80915083815260208101915060208460051b8701019350868411156128a257600080fd5b602086015b848110156128be57803583529183019183016128a7565b509695505050505050565b600082601f8301126128da57600080fd5b813567ffffffffffffffff8111156128f4576128f46127ec565b60405161290b601f8301601f191660200182612802565b81815284602083860101111561292057600080fd5b816020850160208301376000918101602001919091529392505050565b600080600080600060a0868803121561295557600080fd5b61295e866126ca565b945061296c602087016126ca565b9350604086013567ffffffffffffffff8082111561298957600080fd5b61299589838a01612853565b945060608801359150808211156129ab57600080fd5b6129b789838a01612853565b935060808801359150808211156129cd57600080fd5b506129da888289016128c9565b9150509295509295909350565b600080604083850312156129fa57600080fd5b823567ffffffffffffffff80821115612a1257600080fd5b818501915085601f830112612a2657600080fd5b81356020612a338261282f565b604051612a408282612802565b83815260059390931b8501820192828101915089841115612a6057600080fd5b948201945b83861015612a8557612a76866126ca565b82529482019490820190612a65565b96505086013592505080821115612a9b57600080fd5b50612aa885828601612853565b9150509250929050565b60008151808452602080850194506020840160005b83811015612ae357815187529582019590820190600101612ac7565b509495945050505050565b6020815260006110376020830184612ab2565b600060208284031215612b1357600080fd5b611037826126ca565b60008083601f840112612b2e57600080fd5b50813567ffffffffffffffff811115612b4657600080fd5b60208301915083602060608302850101111561150d57600080fd5b600080600060408486031215612b7657600080fd5b612b7f846126ca565b9250602084013567ffffffffffffffff811115612b9b57600080fd5b612ba786828701612b1c565b9497909650939450505050565b7fff000000000000000000000000000000000000000000000000000000000000008816815260e060208201526000612bef60e0830189612780565b8281036040840152612c018189612780565b90508660608401526001600160a01b03861660808401528460a084015282810360c0840152612c308185612ab2565b9a9950505050505050505050565b60008060208385031215612c5157600080fd5b823567ffffffffffffffff80821115612c6957600080fd5b818501915085601f830112612c7d57600080fd5b813581811115612c8c57600080fd5b8660208260061b8501011115612ca157600080fd5b60209290920196919550909350505050565b803580151581146126e157600080fd5b60008060408385031215612cd657600080fd5b612cdf836126ca565b9150612ced60208401612cb3565b90509250929050565b60008060008060008060808789031215612d0f57600080fd5b612d18876126ca565b9550612d26602088016126ca565b9450604087013567ffffffffffffffff80821115612d4357600080fd5b612d4f8a838b01612b1c565b90965094506060890135915080821115612d6857600080fd5b818901915089601f830112612d7c57600080fd5b813581811115612d8b57600080fd5b8a6020828501011115612d9d57600080fd5b6020830194508093505050509295509295509295565b60008060008060608587031215612dc957600080fd5b612dd2856126ca565b9350602085013567ffffffffffffffff80821115612def57600080fd5b612dfb88838901612b1c565b90955093506040870135915080821115612e1457600080fd5b50612e21878288016128c9565b91505092959194509250565b60008060408385031215612e4057600080fd5b612e49836126ca565b9150612ced602084016126ca565b600080600080600060a08688031215612e6f57600080fd5b612e78866126ca565b9450612e86602087016126ca565b93506040860135925060608601359150608086013567ffffffffffffffff811115612eb057600080fd5b6129da888289016128c9565b600080600080600080600060e0888a031215612ed757600080fd5b612ee0886126ca565b9650612eee602089016126ca565b9550612efc60408901612cb3565b945060608801359350608088013560ff81168114612f1957600080fd5b9699959850939692959460a0840135945060c09093013592915050565b600181811c90821680612f4a57607f821691505b602082108103612f6a57634e487b7160e01b600052602260045260246000fd5b50919050565b60008151612f8281856020860161275c565b9290920192915050565b60008084548160018260011c91506001831680612faa57607f831692505b60208084108203612fc957634e487b7160e01b86526022600452602486fd5b818015612fdd5760018114612ff25761301f565b60ff198616895284151585028901965061301f565b60008b81526020902060005b868110156130175781548b820152908501908301612ffe565b505084890196505b50505050505061302f8185612f70565b95945050505050565b634e487b7160e01b600052603260045260246000fd5b60006040828403121561306057600080fd5b6040516040810181811067ffffffffffffffff82111715613083576130836127ec565b60405261308f836126ca565b815261309d602084016127bf565b60208201529392505050565b634e487b7160e01b600052601160045260246000fd5b6000600182016130d1576130d16130a9565b5060010190565b8281526040602082015260006130f16040830184612780565b949350505050565b60006020828403121561310b57600080fd5b815161103781612710565b8082028115828204841417610492576104926130a9565b80820180821115610492576104926130a9565b60008161314f5761314f6130a9565b506000190190565b60408152600061316a6040830185612ab2565b828103602084015261302f8185612ab2565b634e487b7160e01b600052601260045260246000fd5b60006001600160a01b03808816835280871660208401525060a060408301526131be60a0830186612ab2565b82810360608401526131d08186612ab2565b9050828103608084015261214e8185612780565b600060033d11156113d15760046000803e5060005160e01c90565b600060443d101561320d5790565b6040516003193d81016004833e81513d67ffffffffffffffff816024840111818411171561323d57505050505090565b82850191508151818111156132555750505050505090565b843d870101602082850101111561326f5750505050505090565b61327e60208286010187612802565b509095945050505050565b60006001600160a01b03808816835280871660208401525084604083015283606083015260a060808301526132c160a0830184612780565b979650505050505050565b634e487b7160e01b600052602160045260246000fdfea26469706673582212200be63506ee1574b6dfe2eb4600f4df53716570de59113f771c1bea1132ee2f6364736f6c63430008190033",
  "devdoc": {
    "events": {
      "ApprovalForAll(address,address,bool)": {
        "details": "Emitted when `account` grants or revokes permission to `operator` to transfer their tokens, according to `approved`."
      },
      "EIP712DomainChanged()": {
        "details": "MAY be emitted to signal that the domain could have changed."
      },
      "TransferBatch(address,address,address,uint256[],uint256[])": {
        "details": "Equivalent to multiple {TransferSingle} events, where `operator`, `from` and `to` are the same for all transfers."
      },
      "TransferSingle(address,address,address,uint256,uint256)": {
        "details": "Emitted when `value` tokens of token type `id` are transferred from `from` to `to` by `operator`."
      },
      "URI(string,uint256)": {
        "details": "Emitted when the URI for token type `id` changes to `value`, if it is a non-programmatic URI. If an {URI} event was emitted for `id`, the standard https://eips.ethereum.org/EIPS/eip-1155#metadata-extensions[guarantees] that `value` will equal the value returned by {IERC1155MetadataURI-uri}."
      }
    },
    "kind": "dev",
    "methods": {
      "balanceOf(address,uint256)": {
        "details": "See {IERC1155-balanceOf}. Requirements: - `account` cannot be the zero address."
      },
      "balanceOfBatch(address[],uint256[])": {
        "details": "See {IERC1155-balanceOfBatch}. Requirements: - `accounts` and `ids` must have the same length."
      },
      "eip712Domain()": {
        "details": "See {EIP-5267}. _Available since v4.9._"
      },
      "isApprovedForAll(address,address)": {
        "details": "See {IERC1155-isApprovedForAll}."
      },
      "safeBatchTransferFrom(address,address,uint256[],uint256[],bytes)": {
        "details": "See {IERC1155-safeBatchTransferFrom}."
      },
      "safeTransferFrom(address,address,uint256,uint256,bytes)": {
        "details": "See {IERC1155-safeTransferFrom}."
      },
      "setApprovalForAll(address,bool)": {
        "details": "See {IERC1155-setApprovalForAll}."
      }
    },
    "version": 1
  },
  "userdoc": {
    "kind": "user",
    "methods": {},
    "version": 1
  },
  "storageLayout": {
    "storage": [
      {
        "astId": 260,
        "contract": "contracts/CouponManager.sol:CouponManager",
        "label": "_balances",
        "offset": 0,
        "slot": "0",
        "type": "t_mapping(t_uint256,t_mapping(t_address,t_uint256))"
      },
      {
        "astId": 266,
        "contract": "contracts/CouponManager.sol:CouponManager",
        "label": "_operatorApprovals",
        "offset": 0,
        "slot": "1",
        "type": "t_mapping(t_address,t_mapping(t_address,t_bool))"
      },
      {
        "astId": 268,
        "contract": "contracts/CouponManager.sol:CouponManager",
        "label": "_uri",
        "offset": 0,
        "slot": "2",
        "type": "t_string_storage"
      },
      {
        "astId": 4701,
        "contract": "contracts/CouponManager.sol:CouponManager",
        "label": "_nameFallback",
        "offset": 0,
        "slot": "3",
        "type": "t_string_storage"
      },
      {
        "astId": 4703,
        "contract": "contracts/CouponManager.sol:CouponManager",
        "label": "_versionFallback",
        "offset": 0,
        "slot": "4",
        "type": "t_string_storage"
      },
      {
        "astId": 11912,
        "contract": "contracts/CouponManager.sol:CouponManager",
        "label": "nonces",
        "offset": 0,
        "slot": "5",
        "type": "t_mapping(t_address,t_uint256)"
      },
      {
        "astId": 1630,
        "contract": "contracts/CouponManager.sol:CouponManager",
        "label": "_totalSupply",
        "offset": 0,
        "slot": "6",
        "type": "t_mapping(t_uint256,t_uint256)"
      },
      {
        "astId": 8020,
        "contract": "contracts/CouponManager.sol:CouponManager",
        "label": "isMinter",
        "offset": 0,
        "slot": "7",
        "type": "t_mapping(t_address,t_bool)"
      },
      {
        "astId": 8023,
        "contract": "contracts/CouponManager.sol:CouponManager",
        "label": "baseURI",
        "offset": 0,
        "slot": "8",
        "type": "t_string_storage"
      },
      {
        "astId": 8026,
        "contract": "contracts/CouponManager.sol:CouponManager",
        "label": "contractURI",
        "offset": 0,
        "slot": "9",
        "type": "t_string_storage"
      }
    ],
    "types": {
      "t_address": {
        "encoding": "inplace",
        "label": "address",
        "numberOfBytes": "20"
      },
      "t_bool": {
        "encoding": "inplace",
        "label": "bool",
        "numberOfBytes": "1"
      },
      "t_mapping(t_address,t_bool)": {
        "encoding": "mapping",
        "key": "t_address",
        "label": "mapping(address => bool)",
        "numberOfBytes": "32",
        "value": "t_bool"
      },
      "t_mapping(t_address,t_mapping(t_address,t_bool))": {
        "encoding": "mapping",
        "key": "t_address",
        "label": "mapping(address => mapping(address => bool))",
        "numberOfBytes": "32",
        "value": "t_mapping(t_address,t_bool)"
      },
      "t_mapping(t_address,t_uint256)": {
        "encoding": "mapping",
        "key": "t_address",
        "label": "mapping(address => uint256)",
        "numberOfBytes": "32",
        "value": "t_uint256"
      },
      "t_mapping(t_uint256,t_mapping(t_address,t_uint256))": {
        "encoding": "mapping",
        "key": "t_uint256",
        "label": "mapping(uint256 => mapping(address => uint256))",
        "numberOfBytes": "32",
        "value": "t_mapping(t_address,t_uint256)"
      },
      "t_mapping(t_uint256,t_uint256)": {
        "encoding": "mapping",
        "key": "t_uint256",
        "label": "mapping(uint256 => uint256)",
        "numberOfBytes": "32",
        "value": "t_uint256"
      },
      "t_string_storage": {
        "encoding": "bytes",
        "label": "string",
        "numberOfBytes": "32"
      },
      "t_uint256": {
        "encoding": "inplace",
        "label": "uint256",
        "numberOfBytes": "32"
      }
    }
  }
}